{
  "_format": "hh-sol-artifact-1",
  "contractName": "ReliefPools",
  "sourceName": "contracts/ReliefPools.sol",
  "abi": [
    {
      "inputs": [
        {
          "internalType": "address",
          "name": "_adminAddress",
          "type": "address"
        },
        {
          "internalType": "address",
          "name": "_usdcToken",
          "type": "address"
        },
        {
          "internalType": "address",
          "name": "_cctpMessageTransmitter",
          "type": "address"
        }
      ],
      "stateMutability": "nonpayable",
      "type": "constructor"
    },
    {
      "anonymous": false,
      "inputs": [
        {
          "indexed": true,
          "internalType": "string",
          "name": "poolId",
          "type": "string"
        },
        {
          "indexed": true,
          "internalType": "address",
          "name": "donor",
          "type": "address"
        },
        {
          "indexed": false,
          "internalType": "uint32",
          "name": "sourceDomain",
          "type": "uint32"
        },
        {
          "indexed": false,
          "internalType": "uint256",
          "name": "amount",
          "type": "uint256"
        },
        {
          "indexed": false,
          "internalType": "uint256",
          "name": "timestamp",
          "type": "uint256"
        },
        {
          "indexed": false,
          "internalType": "string",
          "name": "location",
          "type": "string"
        }
      ],
      "name": "DonationMade",
      "type": "event"
    },
    {
      "anonymous": false,
      "inputs": [
        {
          "indexed": true,
          "internalType": "string",
          "name": "poolId",
          "type": "string"
        },
        {
          "indexed": true,
          "internalType": "address",
          "name": "claimer",
          "type": "address"
        },
        {
          "indexed": true,
          "internalType": "address",
          "name": "recipient",
          "type": "address"
        },
        {
          "indexed": false,
          "internalType": "uint256",
          "name": "nullifier",
          "type": "uint256"
        },
        {
          "indexed": false,
          "internalType": "uint256",
          "name": "userIdentifier",
          "type": "uint256"
        },
        {
          "indexed": false,
          "internalType": "string",
          "name": "nationality",
          "type": "string"
        },
        {
          "indexed": false,
          "internalType": "uint256",
          "name": "amount",
          "type": "uint256"
        },
        {
          "indexed": false,
          "internalType": "uint256",
          "name": "timestamp",
          "type": "uint256"
        }
      ],
      "name": "FundsClaimed",
      "type": "event"
    },
    {
      "anonymous": false,
      "inputs": [
        {
          "indexed": true,
          "internalType": "address",
          "name": "previousOwner",
          "type": "address"
        },
        {
          "indexed": true,
          "internalType": "address",
          "name": "newOwner",
          "type": "address"
        }
      ],
      "name": "OwnershipTransferred",
      "type": "event"
    },
    {
      "anonymous": false,
      "inputs": [
        {
          "indexed": true,
          "internalType": "string",
          "name": "poolId",
          "type": "string"
        },
        {
          "indexed": false,
          "internalType": "bool",
          "name": "isActive",
          "type": "bool"
        }
      ],
      "name": "PoolStatusChanged",
      "type": "event"
    },
    {
      "anonymous": false,
      "inputs": [
        {
          "indexed": true,
          "internalType": "string",
          "name": "poolId",
          "type": "string"
        },
        {
          "indexed": false,
          "internalType": "enum ReliefPools.DisasterTypeEnum",
          "name": "disasterType",
          "type": "uint8"
        },
        {
          "indexed": false,
          "internalType": "enum ReliefPools.ClassificationEnum",
          "name": "classification",
          "type": "uint8"
        },
        {
          "indexed": false,
          "internalType": "string",
          "name": "nationalityRequired",
          "type": "string"
        },
        {
          "indexed": false,
          "internalType": "uint256",
          "name": "allocatedFundsPerPerson",
          "type": "uint256"
        }
      ],
      "name": "ReliefPoolCreated",
      "type": "event"
    },
    {
      "inputs": [],
      "name": "DOMAIN_SEPARATOR",
      "outputs": [
        {
          "internalType": "bytes32",
          "name": "",
          "type": "bytes32"
        }
      ],
      "stateMutability": "view",
      "type": "function"
    },
    {
      "inputs": [],
      "name": "VERIFICATION_MESSAGE_TYPEHASH",
      "outputs": [
        {
          "internalType": "bytes32",
          "name": "",
          "type": "bytes32"
        }
      ],
      "stateMutability": "view",
      "type": "function"
    },
    {
      "inputs": [
        {
          "internalType": "uint32",
          "name": "sourceDomain",
          "type": "uint32"
        },
        {
          "internalType": "bytes32",
          "name": "sender",
          "type": "bytes32"
        },
        {
          "internalType": "bytes",
          "name": "messageBody",
          "type": "bytes"
        }
      ],
      "name": "_processCrossChainDonation",
      "outputs": [],
      "stateMutability": "nonpayable",
      "type": "function"
    },
    {
      "inputs": [],
      "name": "adminAddress",
      "outputs": [
        {
          "internalType": "address",
          "name": "",
          "type": "address"
        }
      ],
      "stateMutability": "view",
      "type": "function"
    },
    {
      "inputs": [],
      "name": "cctpMessageTransmitter",
      "outputs": [
        {
          "internalType": "address",
          "name": "",
          "type": "address"
        }
      ],
      "stateMutability": "view",
      "type": "function"
    },
    {
      "inputs": [
        {
          "internalType": "string",
          "name": "poolId",
          "type": "string"
        },
        {
          "internalType": "uint256",
          "name": "userIdentifier",
          "type": "uint256"
        }
      ],
      "name": "checkPersonClaimedFromPool",
      "outputs": [
        {
          "internalType": "bool",
          "name": "",
          "type": "bool"
        }
      ],
      "stateMutability": "view",
      "type": "function"
    },
    {
      "inputs": [
        {
          "internalType": "string",
          "name": "poolId",
          "type": "string"
        },
        {
          "internalType": "uint256",
          "name": "nullifier",
          "type": "uint256"
        },
        {
          "internalType": "uint256",
          "name": "userIdentifier",
          "type": "uint256"
        },
        {
          "internalType": "string",
          "name": "nationality",
          "type": "string"
        },
        {
          "internalType": "uint256",
          "name": "timestamp",
          "type": "uint256"
        },
        {
          "internalType": "address",
          "name": "recipient",
          "type": "address"
        }
      ],
      "name": "claimRelief",
      "outputs": [],
      "stateMutability": "nonpayable",
      "type": "function"
    },
    {
      "inputs": [
        {
          "internalType": "string",
          "name": "poolId",
          "type": "string"
        },
        {
          "internalType": "enum ReliefPools.DisasterTypeEnum",
          "name": "disasterType",
          "type": "uint8"
        },
        {
          "internalType": "enum ReliefPools.ClassificationEnum",
          "name": "classification",
          "type": "uint8"
        },
        {
          "internalType": "string",
          "name": "nationalityRequired",
          "type": "string"
        },
        {
          "internalType": "uint256",
          "name": "allocatedFundsPerPerson",
          "type": "uint256"
        }
      ],
      "name": "createReliefPool",
      "outputs": [
        {
          "internalType": "string",
          "name": "",
          "type": "string"
        }
      ],
      "stateMutability": "nonpayable",
      "type": "function"
    },
    {
      "inputs": [
        {
          "internalType": "string",
          "name": "poolId",
          "type": "string"
        },
        {
          "internalType": "uint256",
          "name": "amount",
          "type": "uint256"
        },
        {
          "internalType": "string",
          "name": "location",
          "type": "string"
        }
      ],
      "name": "donate",
      "outputs": [],
      "stateMutability": "nonpayable",
      "type": "function"
    },
    {
      "inputs": [
        {
          "internalType": "uint256",
          "name": "amount",
          "type": "uint256"
        }
      ],
      "name": "emergencyWithdraw",
      "outputs": [],
      "stateMutability": "nonpayable",
      "type": "function"
    },
    {
      "inputs": [],
      "name": "getAllPoolIds",
      "outputs": [
        {
          "internalType": "string[]",
          "name": "",
          "type": "string[]"
        }
      ],
      "stateMutability": "view",
      "type": "function"
    },
    {
      "inputs": [
        {
          "internalType": "string",
          "name": "poolId",
          "type": "string"
        },
        {
          "internalType": "address",
          "name": "beneficiary",
          "type": "address"
        }
      ],
      "name": "getBeneficiary",
      "outputs": [
        {
          "components": [
            {
              "internalType": "uint256",
              "name": "nullifier",
              "type": "uint256"
            },
            {
              "internalType": "uint256",
              "name": "userIdentifier",
              "type": "uint256"
            },
            {
              "internalType": "address",
              "name": "walletAddress",
              "type": "address"
            },
            {
              "internalType": "uint256",
              "name": "amount",
              "type": "uint256"
            },
            {
              "internalType": "uint256",
              "name": "timestamp",
              "type": "uint256"
            }
          ],
          "internalType": "struct ReliefPools.Beneficiary",
          "name": "",
          "type": "tuple"
        }
      ],
      "stateMutability": "view",
      "type": "function"
    },
    {
      "inputs": [],
      "name": "getContractBalance",
      "outputs": [
        {
          "internalType": "uint256",
          "name": "",
          "type": "uint256"
        }
      ],
      "stateMutability": "view",
      "type": "function"
    },
    {
      "inputs": [
        {
          "internalType": "string",
          "name": "poolId",
          "type": "string"
        },
        {
          "internalType": "address",
          "name": "donor",
          "type": "address"
        }
      ],
      "name": "getDonor",
      "outputs": [
        {
          "components": [
            {
              "internalType": "uint256",
              "name": "id",
              "type": "uint256"
            },
            {
              "internalType": "address",
              "name": "walletAddress",
              "type": "address"
            },
            {
              "internalType": "uint256",
              "name": "amount",
              "type": "uint256"
            },
            {
              "internalType": "uint256",
              "name": "timestamp",
              "type": "uint256"
            },
            {
              "internalType": "bool",
              "name": "isCrossChain",
              "type": "bool"
            },
            {
              "internalType": "uint32",
              "name": "sourceDomain",
              "type": "uint32"
            },
            {
              "internalType": "string",
              "name": "location",
              "type": "string"
            }
          ],
          "internalType": "struct ReliefPools.Donor",
          "name": "",
          "type": "tuple"
        }
      ],
      "stateMutability": "view",
      "type": "function"
    },
    {
      "inputs": [
        {
          "internalType": "uint256",
          "name": "userIdentifier",
          "type": "uint256"
        }
      ],
      "name": "getPersonClaimedPools",
      "outputs": [
        {
          "internalType": "string[]",
          "name": "",
          "type": "string[]"
        }
      ],
      "stateMutability": "view",
      "type": "function"
    },
    {
      "inputs": [
        {
          "internalType": "uint256",
          "name": "index",
          "type": "uint256"
        }
      ],
      "name": "getPoolIdByIndex",
      "outputs": [
        {
          "internalType": "string",
          "name": "",
          "type": "string"
        }
      ],
      "stateMutability": "view",
      "type": "function"
    },
    {
      "inputs": [
        {
          "internalType": "string",
          "name": "poolId",
          "type": "string"
        }
      ],
      "name": "getReliefPool",
      "outputs": [
        {
          "components": [
            {
              "internalType": "string",
              "name": "id",
              "type": "string"
            },
            {
              "internalType": "enum ReliefPools.DisasterTypeEnum",
              "name": "disasterType",
              "type": "uint8"
            },
            {
              "internalType": "enum ReliefPools.ClassificationEnum",
              "name": "classification",
              "type": "uint8"
            },
            {
              "internalType": "string",
              "name": "nationalityRequired",
              "type": "string"
            },
            {
              "internalType": "uint256",
              "name": "allocatedFundsPerPerson",
              "type": "uint256"
            },
            {
              "internalType": "uint256",
              "name": "totalBeneficiaries",
              "type": "uint256"
            },
            {
              "internalType": "uint256",
              "name": "totalDonors",
              "type": "uint256"
            },
            {
              "internalType": "uint256",
              "name": "totalAmountClaimed",
              "type": "uint256"
            },
            {
              "internalType": "uint256",
              "name": "totalAmountDonated",
              "type": "uint256"
            },
            {
              "internalType": "bool",
              "name": "isActive",
              "type": "bool"
            }
          ],
          "internalType": "struct ReliefPools.ReliefPool",
          "name": "",
          "type": "tuple"
        }
      ],
      "stateMutability": "view",
      "type": "function"
    },
    {
      "inputs": [],
      "name": "getTotalPools",
      "outputs": [
        {
          "internalType": "uint256",
          "name": "",
          "type": "uint256"
        }
      ],
      "stateMutability": "view",
      "type": "function"
    },
    {
      "inputs": [
        {
          "internalType": "uint32",
          "name": "sourceDomain",
          "type": "uint32"
        },
        {
          "internalType": "bytes32",
          "name": "sender",
          "type": "bytes32"
        },
        {
          "internalType": "uint32",
          "name": "finalityThresholdExecuted",
          "type": "uint32"
        },
        {
          "internalType": "bytes",
          "name": "messageBody",
          "type": "bytes"
        }
      ],
      "name": "handleReceiveFinalizedMessage",
      "outputs": [
        {
          "internalType": "bool",
          "name": "",
          "type": "bool"
        }
      ],
      "stateMutability": "nonpayable",
      "type": "function"
    },
    {
      "inputs": [
        {
          "internalType": "uint32",
          "name": "sourceDomain",
          "type": "uint32"
        },
        {
          "internalType": "bytes32",
          "name": "sender",
          "type": "bytes32"
        },
        {
          "internalType": "uint32",
          "name": "finalityThresholdExecuted",
          "type": "uint32"
        },
        {
          "internalType": "bytes",
          "name": "messageBody",
          "type": "bytes"
        }
      ],
      "name": "handleReceiveUnfinalizedMessage",
      "outputs": [
        {
          "internalType": "bool",
          "name": "",
          "type": "bool"
        }
      ],
      "stateMutability": "nonpayable",
      "type": "function"
    },
    {
      "inputs": [
        {
          "internalType": "string",
          "name": "",
          "type": "string"
        },
        {
          "internalType": "uint256",
          "name": "",
          "type": "uint256"
        }
      ],
      "name": "hasPersonClaimedFromPool",
      "outputs": [
        {
          "internalType": "bool",
          "name": "",
          "type": "bool"
        }
      ],
      "stateMutability": "view",
      "type": "function"
    },
    {
      "inputs": [],
      "name": "owner",
      "outputs": [
        {
          "internalType": "address",
          "name": "",
          "type": "address"
        }
      ],
      "stateMutability": "view",
      "type": "function"
    },
    {
      "inputs": [
        {
          "internalType": "uint256",
          "name": "",
          "type": "uint256"
        },
        {
          "internalType": "uint256",
          "name": "",
          "type": "uint256"
        }
      ],
      "name": "personClaimedPools",
      "outputs": [
        {
          "internalType": "string",
          "name": "",
          "type": "string"
        }
      ],
      "stateMutability": "view",
      "type": "function"
    },
    {
      "inputs": [
        {
          "internalType": "string",
          "name": "",
          "type": "string"
        },
        {
          "internalType": "address",
          "name": "",
          "type": "address"
        }
      ],
      "name": "poolBeneficiaries",
      "outputs": [
        {
          "internalType": "uint256",
          "name": "nullifier",
          "type": "uint256"
        },
        {
          "internalType": "uint256",
          "name": "userIdentifier",
          "type": "uint256"
        },
        {
          "internalType": "address",
          "name": "walletAddress",
          "type": "address"
        },
        {
          "internalType": "uint256",
          "name": "amount",
          "type": "uint256"
        },
        {
          "internalType": "uint256",
          "name": "timestamp",
          "type": "uint256"
        }
      ],
      "stateMutability": "view",
      "type": "function"
    },
    {
      "inputs": [
        {
          "internalType": "string",
          "name": "",
          "type": "string"
        },
        {
          "internalType": "address",
          "name": "",
          "type": "address"
        }
      ],
      "name": "poolDonors",
      "outputs": [
        {
          "internalType": "uint256",
          "name": "id",
          "type": "uint256"
        },
        {
          "internalType": "address",
          "name": "walletAddress",
          "type": "address"
        },
        {
          "internalType": "uint256",
          "name": "amount",
          "type": "uint256"
        },
        {
          "internalType": "uint256",
          "name": "timestamp",
          "type": "uint256"
        },
        {
          "internalType": "bool",
          "name": "isCrossChain",
          "type": "bool"
        },
        {
          "internalType": "uint32",
          "name": "sourceDomain",
          "type": "uint32"
        },
        {
          "internalType": "string",
          "name": "location",
          "type": "string"
        }
      ],
      "stateMutability": "view",
      "type": "function"
    },
    {
      "inputs": [
        {
          "internalType": "uint256",
          "name": "",
          "type": "uint256"
        }
      ],
      "name": "poolIds",
      "outputs": [
        {
          "internalType": "string",
          "name": "",
          "type": "string"
        }
      ],
      "stateMutability": "view",
      "type": "function"
    },
    {
      "inputs": [
        {
          "internalType": "string",
          "name": "",
          "type": "string"
        }
      ],
      "name": "reliefPools",
      "outputs": [
        {
          "internalType": "string",
          "name": "id",
          "type": "string"
        },
        {
          "internalType": "enum ReliefPools.DisasterTypeEnum",
          "name": "disasterType",
          "type": "uint8"
        },
        {
          "internalType": "enum ReliefPools.ClassificationEnum",
          "name": "classification",
          "type": "uint8"
        },
        {
          "internalType": "string",
          "name": "nationalityRequired",
          "type": "string"
        },
        {
          "internalType": "uint256",
          "name": "allocatedFundsPerPerson",
          "type": "uint256"
        },
        {
          "internalType": "uint256",
          "name": "totalBeneficiaries",
          "type": "uint256"
        },
        {
          "internalType": "uint256",
          "name": "totalDonors",
          "type": "uint256"
        },
        {
          "internalType": "uint256",
          "name": "totalAmountClaimed",
          "type": "uint256"
        },
        {
          "internalType": "uint256",
          "name": "totalAmountDonated",
          "type": "uint256"
        },
        {
          "internalType": "bool",
          "name": "isActive",
          "type": "bool"
        }
      ],
      "stateMutability": "view",
      "type": "function"
    },
    {
      "inputs": [],
      "name": "renounceOwnership",
      "outputs": [],
      "stateMutability": "nonpayable",
      "type": "function"
    },
    {
      "inputs": [
        {
          "internalType": "address",
          "name": "_cctpMessageTransmitter",
          "type": "address"
        }
      ],
      "name": "setCCTPMessageTransmitter",
      "outputs": [],
      "stateMutability": "nonpayable",
      "type": "function"
    },
    {
      "inputs": [
        {
          "internalType": "string",
          "name": "poolId",
          "type": "string"
        }
      ],
      "name": "togglePoolStatus",
      "outputs": [],
      "stateMutability": "nonpayable",
      "type": "function"
    },
    {
      "inputs": [
        {
          "internalType": "address",
          "name": "newOwner",
          "type": "address"
        }
      ],
      "name": "transferOwnership",
      "outputs": [],
      "stateMutability": "nonpayable",
      "type": "function"
    },
    {
      "inputs": [],
      "name": "usdcToken",
      "outputs": [
        {
          "internalType": "contract IERC20",
          "name": "",
          "type": "address"
        }
      ],
      "stateMutability": "view",
      "type": "function"
    },
    {
      "inputs": [
        {
          "internalType": "uint256",
          "name": "nullifier",
          "type": "uint256"
        },
        {
          "internalType": "uint256",
          "name": "userIdentifier",
          "type": "uint256"
        },
        {
          "internalType": "string",
          "name": "nationality",
          "type": "string"
        },
        {
          "internalType": "uint256",
          "name": "timestamp",
          "type": "uint256"
        },
        {
          "internalType": "bytes",
          "name": "adminSignature",
          "type": "bytes"
        }
      ],
      "name": "verifyAdminSignature",
      "outputs": [
        {
          "internalType": "bool",
          "name": "",
          "type": "bool"
        }
      ],
      "stateMutability": "view",
      "type": "function"
    }
  ],
  "bytecode": "0x60c06040523480156200001157600080fd5b506040516200441d3803806200441d8339810160408190526200003491620002d5565b6000620000406200019b565b600080546001600160a01b0319166001600160a01b038316908117825560405192935091600080516020620043fd833981519152908290a350600180546001600160a01b038086166001600160a01b0319928316179092556001600160601b0319606085901b166080526002805492841692909116919091179055620000c6336200019f565b604080518082018252600b81526a52656c696566506f6f6c7360a81b6020918201528151808301835260018152603160f81b90820152905162000176917f8b73c3c69bb8fe3d512ecc4cf759cc79239f7b179b0ffacaa9a75d522b39400f917f3323a8070b7081e28ca423d850c49e17147e941af41daf0ad176ecf1a5481b67917fc89efdaa54c0f20c7adf612882df0950f5a951637e0307cdcb4c672f298b8bc691612105913091016200031e565b60408051601f19818403018152919052805160209091012060a052506200034e915050565b3390565b620001a96200019b565b6001600160a01b0316620001bc620002a9565b6001600160a01b03161462000218576040805162461bcd60e51b815260206004820181905260248201527f4f776e61626c653a2063616c6c6572206973206e6f7420746865206f776e6572604482015290519081900360640190fd5b6001600160a01b0381166200025f5760405162461bcd60e51b8152600401808060200182810382526026815260200180620043d76026913960400191505060405180910390fd5b600080546040516001600160a01b0380851693921691600080516020620043fd83398151915291a3600080546001600160a01b0319166001600160a01b0392909216919091179055565b6000546001600160a01b031690565b80516001600160a01b0381168114620002d057600080fd5b919050565b600080600060608486031215620002ea578283fd5b620002f584620002b8565b92506200030560208501620002b8565b91506200031560408501620002b8565b90509250925092565b9485526020850193909352604084019190915261ffff1660608301526001600160a01b0316608082015260a00190565b60805160601c60a0516140446200039360003980610d76528061222752508061062b528061080052806108a85280610e0b5280610efa52806116f852506140446000f3fe608060405234801561001057600080fd5b50600436106101fb5760003560e01c80638be554561161011a578063d697d231116100ad578063f19c3d5b1161007c578063f19c3d5b14610469578063f2fde38b14610471578063f6ab087214610484578063fc6f946814610497578063feb165321461049f576101fb565b8063d697d23114610412578063d9db6e031461043b578063db5e4c751461044e578063e1a788eb14610461576101fb565b8063aa62e312116100e9578063aa62e312146103c4578063b2396e6c146103e4578063b9adb2f7146103f7578063d3ffe67a1461040a576101fb565b80638be554561461037b5780638c73eb041461038e5780638da5cb5b146103965780639605cfe51461039e576101fb565b80635312ea8e116101925780637332cec4116101615780637332cec414610315578063734123c4146103355780637c92f219146103555780638bbd58e214610368576101fb565b80635312ea8e146102df57806369883b4e146102f25780636f9fb98a14610305578063715018a61461030d576101fb565b80631376938d116101ce5780631376938d1461027757806320de75921461029757806321050edc146102b75780633644e515146102ca576101fb565b80630e0b8c8b1461020057806311cffb671461021557806311eac8551461023e5780631223310a14610253575b600080fd5b61021361020e36600461343d565b6104b2565b005b610228610223366004613601565b61089a565b60405161023591906137d2565b60405180910390f35b6102466108a6565b604051610235919061375e565b610266610261366004613250565b6108ca565b604051610235959493929190613d3f565b61028a610285366004613250565b61091e565b6040516102359190613b89565b6102aa6102a53660046134c9565b610998565b6040516102359190613872565b6102aa6102c536600461329b565b610a64565b6102d2610d74565b60405161023591906137dd565b6102136102ed3660046134c9565b610d98565b6102aa6103003660046134c9565b610e37565b6102d2610ee0565b610213610f84565b6103286103233660046134c9565b611030565b6040516102359190613772565b61034861034336600461321e565b61111b565b6040516102359190613c2f565b610228610363366004613601565b611306565b610228610376366004613392565b61139b565b61022861038936600461351a565b6113d3565b6102466113ec565b6102466113fb565b6103b16103ac366004613250565b61140a565b6040516102359796959493929190613ceb565b6103d76103d2366004613250565b6114fc565b6040516102359190613bc7565b6102286103f2366004613392565b611622565b6102136104053660046133d4565b611652565b6102d2611887565b61042561042036600461321e565b61188d565b6040516102359a99989796959493929190613885565b610213610449366004613204565b611a0b565b61021361045c3660046135aa565b611a8f565b6102d2611db6565b610328611dda565b61021361047f366004613204565b611eb2565b61021361049236600461321e565b611fb4565b6102466120da565b6102aa6104ad3660046134f9565b6120e9565b6001546001600160a01b031633146104e55760405162461bcd60e51b81526004016104dc906139ff565b60405180910390fd5b60006004876040516104f79190613727565b90815260405190819003602001902080549091506002600019610100600184161502019091160461053a5760405162461bcd60e51b81526004016104dc906139aa565b600881015460ff1661055e5760405162461bcd60e51b81526004016104dc90613a65565b60078760405161056e9190613727565b90815260408051602092819003830190206000898152925290205460ff16156105a95760405162461bcd60e51b81526004016104dc90613a8b565b6001600160a01b0382166105cf5760405162461bcd60e51b81526004016104dc90613980565b806002016040516105e091906136b7565b604051809103902084805190602001201461060d5760405162461bcd60e51b81526004016104dc90613900565b60038101546040516370a0823160e01b815281906001600160a01b037f000000000000000000000000000000000000000000000000000000000000000016906370a082319061066090309060040161375e565b60206040518083038186803b15801561067857600080fd5b505afa15801561068c573d6000803e3d6000fd5b505050506040513d601f19601f820116820180604052508101906106b091906134e1565b10156106ce5760405162461bcd60e51b81526004016104dc90613ab3565b6004820180546001019055600682018054820190556040805160a081018252888152602081018890526001600160a01b03851681830152606081018390524260808201529051600590610722908b90613727565b90815260408051602092819003830181206001600160a01b038881166000908152918552908390208551815593850151600180860191909155928501516002850180546001600160a01b03191691909216179055606084015160038401556080909301516004909201919091559060079061079e908b90613727565b908152604080516020928190038301902060008b8152908352818120805460ff1916941515949094179093556008825282208054600181018255908352918190208a516107f29391909101918b0190612f76565b506108276001600160a01b037f000000000000000000000000000000000000000000000000000000000000000016848361216d565b826001600160a01b0316336001600160a01b0316896040516108499190613727565b60405180910390207fcc59a4e18e6f0351e0f31e360ecbcc26cf0c96431bdf1cf16bade89f8ac1bf288a8a8a8742604051610888959493929190613d6b565b60405180910390a45050505050505050565b60015b95945050505050565b7f000000000000000000000000000000000000000000000000000000000000000081565b81516020818401810180516005825292820194820194909420919093529091526000908152604090208054600182015460028301546003840154600490940154929391926001600160a01b03909116919085565b610926613002565b6005836040516109369190613727565b90815260408051602092819003830181206001600160a01b03958616600090815290845282902060a082018352805482526001810154938201939093526002830154909416908401526003810154606084015260040154608083015250919050565b60035460609082106109bc5760405162461bcd60e51b81526004016104dc90613b09565b600382815481106109c957fe5b600091825260209182902001805460408051601f6002600019610100600187161502019094169390930492830185900485028101850190915281815292830182828015610a575780601f10610a2c57610100808354040283529160200191610a57565b820191906000526020600020905b815481529060010190602001808311610a3a57829003601f168201915b505050505090505b919050565b6060610a6e6121c4565b6001600160a01b0316610a7f6113fb565b6001600160a01b031614610ac8576040805162461bcd60e51b81526020600482018190526024820152600080516020613f03833981519152604482015290519081900360640190fd5b6000865111610ae95760405162461bcd60e51b81526004016104dc90613b62565b6000835111610b0a5760405162461bcd60e51b81526004016104dc9061392d565b60008211610b2a5760405162461bcd60e51b81526004016104dc90613959565b600486604051610b3a9190613727565b908152604051908190036020019020546002600019610100600184161502019091160415610b7a5760405162461bcd60e51b81526004016104dc90613ade565b604051806101400160405280878152602001866003811115610b9857fe5b8152602001856001811115610ba957fe5b81526020018481526020018381526020016000815260200160008152602001600081526020016000815260200160011515815250600487604051610bed9190613727565b90815260200160405180910390206000820151816000019080519060200190610c17929190612f76565b50602082015160018083018054909160ff1990911690836003811115610c3957fe5b021790555060408201518160010160016101000a81548160ff02191690836001811115610c6257fe5b021790555060608201518051610c82916002840191602090910190612f76565b50608082015160038281019190915560a0830151600483015560c0830151600583015560e083015160068301556101008301516007830155610120909201516008909101805460ff191691151591909117905580546001810182556000919091528651610d16917fc2575a0e9e593c00f959f8c92f12db2869c3395a3b0502d05e2516446f71f85b01906020890190612f76565b5085604051610d259190613727565b60405180910390207fc1b4f0f8efc094dd344251b2bf8367c35e8e32dddf97390f50d27f2f4e2fe21a86868686604051610d629493929190613809565b60405180910390a25093949350505050565b7f000000000000000000000000000000000000000000000000000000000000000081565b610da06121c4565b6001600160a01b0316610db16113fb565b6001600160a01b031614610dfa576040805162461bcd60e51b81526020600482018190526024820152600080516020613f03833981519152604482015290519081900360640190fd5b600154610e34906001600160a01b037f0000000000000000000000000000000000000000000000000000000000000000811691168361216d565b50565b60038181548110610e4757600080fd5b600091825260209182902001805460408051601f6002600019610100600187161502019094169390930492830185900485028101850190915281815293509091830182828015610ed85780601f10610ead57610100808354040283529160200191610ed8565b820191906000526020600020905b815481529060010190602001808311610ebb57829003601f168201915b505050505081565b6040516370a0823160e01b81526000906001600160a01b037f000000000000000000000000000000000000000000000000000000000000000016906370a0823190610f2f90309060040161375e565b60206040518083038186803b158015610f4757600080fd5b505afa158015610f5b573d6000803e3d6000fd5b505050506040513d601f19601f82011682018060405250810190610f7f91906134e1565b905090565b610f8c6121c4565b6001600160a01b0316610f9d6113fb565b6001600160a01b031614610fe6576040805162461bcd60e51b81526020600482018190526024820152600080516020613f03833981519152604482015290519081900360640190fd5b600080546040516001600160a01b03909116907f8be0079c531659141344cd1fd0a4f28419497f9722a3daafe3b4186f6b6457e0908390a3600080546001600160a01b0319169055565b606060086000838152602001908152602001600020805480602002602001604051908101604052809291908181526020016000905b828210156111105760008481526020908190208301805460408051601f60026000196101006001871615020190941693909304928301859004850281018501909152818152928301828280156110fc5780601f106110d1576101008083540402835291602001916110fc565b820191906000526020600020905b8154815290600101906020018083116110df57829003601f168201915b505050505081526020019060010190611065565b505050509050919050565b61112361303a565b6004826040516111339190613727565b9081526040805160209281900383018120805460026001821615610100026000190190911604601f8101859004909402820161016090810190935261014082018481529193909284929184918401828280156111d05780601f106111a5576101008083540402835291602001916111d0565b820191906000526020600020905b8154815290600101906020018083116111b357829003601f168201915b5050509183525050600182015460209091019060ff1660038111156111f157fe5b60038111156111fc57fe5b81526020016001820160019054906101000a900460ff16600181111561121e57fe5b600181111561122957fe5b8152600282810180546040805160206001841615610100026000190190931694909404601f810183900483028501830190915280845293810193908301828280156112b55780601f1061128a576101008083540402835291602001916112b5565b820191906000526020600020905b81548152906001019060200180831161129857829003601f168201915b505050918352505060038201546020820152600482015460408201526005820154606082015260068201546080820152600782015460a082015260089091015460ff16151560c09091015292915050565b6002546000906001600160a01b031633146113335760405162461bcd60e51b81526004016104dc90613b36565b60405163db5e4c7560e01b8152309063db5e4c759061135c908990899088908890600401613d9e565b600060405180830381600087803b15801561137657600080fd5b505af1925050508015611387575060015b6113935750600061089d565b50600161089d565b60006007836040516113ad9190613727565b908152604080516020928190038301902060009485529091529091205460ff1692915050565b60006113e286868686866121c8565b9695505050505050565b6002546001600160a01b031681565b6000546001600160a01b031690565b8151602081840181018051600682529282019482019490942091909352825260009081526040908190208054600180830154600280850154600386015460048701546005880180548a516101009882161589026000190190911695909504601f81018c90048c0286018c01909a5289855296996001600160a01b03909516989297919660ff82169690910463ffffffff169491939290918301828280156114f25780601f106114c7576101008083540402835291602001916114f2565b820191906000526020600020905b8154815290600101906020018083116114d557829003601f168201915b5050505050905087565b611504613090565b6006836040516115149190613727565b9081526040805191829003602090810183206001600160a01b0380871660009081529183529083902060e08501845280548552600180820154909216858401526002808201548686015260038201546060870152600482015460ff81161515608088015263ffffffff610100918290041660a08801526005830180548751601f60001997831615909402969096011692909204908101859004850284018501909552848352909360c08601938301828280156116115780601f106115e657610100808354040283529160200191611611565b820191906000526020600020905b8154815290600101906020018083116115f457829003601f168201915b505050505081525050905092915050565b81516020818401810180516007825292820194820194909420919093529091526000908152604090205460ff1681565b60006004846040516116649190613727565b9081526040519081900360200190208054909150600260001961010060018416150201909116046116a75760405162461bcd60e51b81526004016104dc906139aa565b600881015460ff166116cb5760405162461bcd60e51b81526004016104dc90613a65565b600083116116eb5760405162461bcd60e51b81526004016104dc90613959565b6117206001600160a01b037f00000000000000000000000000000000000000000000000000000000000000001633308661229c565b60058101805460010190819055600782018054850190556040805160e08101825291825233602083015281810185905242606083015260006080830152600660a0830181905260c08301859052905161177a908790613727565b908152604080516020928190038301902033600090815290835281902083518155838301516001820180546001600160a01b0319166001600160a01b0390921691909117905590830151600282015560608301516003820155608083015160048201805460a086015160ff199091169215159290921764ffffffff00191661010063ffffffff9093169290920291909117905560c08301518051919261182892600585019290910190612f76565b505060405133915061183b908690613727565b60405180910390207fac9f2e8dfe0227cfbb82fc983a4b15e8352a7558d2688723e679f4bc157a267260068642876040516118799493929190613847565b60405180910390a350505050565b60035490565b805160208183018101805160048252928201938201939093209190925280546040805160026001841615610100026000190190931692909204601f81018590048502830185019091528082529192909183918301828280156119305780601f1061190557610100808354040283529160200191611930565b820191906000526020600020905b81548152906001019060200180831161191357829003601f168201915b50505050600183810154600280860180546040805160206101009784161588026000190190931694909404601f8101839004830285018301909152808452969760ff80861698969095049094169550929391929091908301828280156119d75780601f106119ac576101008083540402835291602001916119d7565b820191906000526020600020905b8154815290600101906020018083116119ba57829003601f168201915b5050506003840154600485015460058601546006870154600788015460089098015496979396929550909350919060ff168a565b611a136121c4565b6001600160a01b0316611a246113fb565b6001600160a01b031614611a6d576040805162461bcd60e51b81526020600482018190526024820152600080516020613f03833981519152604482015290519081900360640190fd5b600280546001600160a01b0319166001600160a01b0392909216919091179055565b333014611aae5760405162461bcd60e51b81526004016104dc906139cf565b6000611af4600084848080601f01602080910402602001604051908101604052809392919081815260200183838082843760009201919091525092939250506122fc9050565b9050611b0562ffffff198216612317565b6000611b1662ffffff1983166123d8565b90506000611b2962ffffff198316612410565b6001600160601b031611611b4f5760405162461bcd60e51b81526004016104dc90613a36565b6000611b6062ffffff19831661241f565b905060008082806020019051810190611b799190613332565b915091506000611b8e8662ffffff191661245e565b90506000600484604051611ba29190613727565b908152604051908190036020019020805490915060026000196101006001841615020190911604611be55760405162461bcd60e51b81526004016104dc906139aa565b600881015460ff16611c095760405162461bcd60e51b81526004016104dc90613a65565b60008211611c295760405162461bcd60e51b81526004016104dc90613959565b600581018054600190810191829055600783018054850190556040805160e0810182529283526001600160a01b038d166020840152828101859052426060840152608083019190915263ffffffff8d1660a083015260c08201859052518b9190600690611c97908890613727565b90815260408051602092819003830190206001600160a01b0385811660009081529184529082902084518155848401516001820180546001600160a01b031916919093161790915590830151600282015560608301516003820155608083015160048201805460a086015160ff199091169215159290921764ffffffff00191661010063ffffffff9093169290920291909117905560c083015180519192611d4792600585019290910190612f76565b50905050806001600160a01b031685604051611d639190613727565b60405180910390207fac9f2e8dfe0227cfbb82fc983a4b15e8352a7558d2688723e679f4bc157a26728e864289604051611da09493929190613847565b60405180910390a3505050505050505050505050565b7f5c64a8a74cfa7615128bcdfeee4695403156b321bc1f0f1dd1a0b09d3618731e81565b60606003805480602002602001604051908101604052809291908181526020016000905b82821015611ea95760008481526020908190208301805460408051601f6002600019610100600187161502019094169390930492830185900485028101850190915281815292830182828015611e955780601f10611e6a57610100808354040283529160200191611e95565b820191906000526020600020905b815481529060010190602001808311611e7857829003601f168201915b505050505081526020019060010190611dfe565b50505050905090565b611eba6121c4565b6001600160a01b0316611ecb6113fb565b6001600160a01b031614611f14576040805162461bcd60e51b81526020600482018190526024820152600080516020613f03833981519152604482015290519081900360640190fd5b6001600160a01b038116611f595760405162461bcd60e51b8152600401808060200182810382526026815260200180613e526026913960400191505060405180910390fd5b600080546040516001600160a01b03808516939216917f8be0079c531659141344cd1fd0a4f28419497f9722a3daafe3b4186f6b6457e091a3600080546001600160a01b0319166001600160a01b0392909216919091179055565b611fbc6121c4565b6001600160a01b0316611fcd6113fb565b6001600160a01b031614612016576040805162461bcd60e51b81526020600482018190526024820152600080516020613f03833981519152604482015290519081900360640190fd5b60006004826040516120289190613727565b90815260405190819003602001902080549091506002600019610100600184161502019091160461206b5760405162461bcd60e51b81526004016104dc906139aa565b60088101805460ff19811660ff9091161517905560405161208d908390613727565b604051908190038120600883015490917f0cf04787a730deff0c06f98fbbe7289eb4198e7df16426ba7734123ef2b06b74916120ce9160ff909116906137d2565b60405180910390a25050565b6001546001600160a01b031681565b6008602052816000526040600020818154811061210557600080fd5b600091825260209182902001805460408051601f60026000196101006001871615020190941693909304928301859004850281018501909152818152945090925090830182828015610ed85780601f10610ead57610100808354040283529160200191610ed8565b604080516001600160a01b038416602482015260448082018490528251808303909101815260649091019091526020810180516001600160e01b031663a9059cbb60e01b1790526121bf90849061246f565b505050565b3390565b6000807f5c64a8a74cfa7615128bcdfeee4695403156b321bc1f0f1dd1a0b09d3618731e878787805190602001208760405160200161220b9594939291906137e6565b60405160208183030381529060405280519060200120905060007f000000000000000000000000000000000000000000000000000000000000000082604051602001612258929190613743565b60408051601f1981840301815291905280516020909101209050600061227e8286612520565b6001546001600160a01b039081169116149998505050505050505050565b604080516001600160a01b0380861660248301528416604482015260648082018490528251808303909101815260849091019091526020810180516001600160e01b03166323b872dd60e01b1790526122f690859061246f565b50505050565b81516000906020840161089d64ffffffffff85168284612596565b61232662ffffff1982166125db565b61236b576040805162461bcd60e51b81526020600482015260116024820152704d616c666f726d6564206d65737361676560781b604482015290519081900360640190fd5b60e461237c62ffffff198316612410565b6001600160601b03161015610e34576040805162461bcd60e51b815260206004820152601f60248201527f496e76616c6964206275726e206d6573736167653a20746f6f2073686f727400604482015290519081900360640190fd5b600061240a60e4806123ef62ffffff198616612410565b62ffffff19861692916001600160601b039103166000612618565b92915050565b60181c6001600160601b031690565b606060008061242d84612410565b6001600160601b03169050604051915081925061244d8483602001612689565b508181016020016040529052919050565b600061240a62ffffff1983166127c5565b60006124c4826040518060400160405280602081526020017f5361666545524332303a206c6f772d6c6576656c2063616c6c206661696c6564815250856001600160a01b03166127da9092919063ffffffff16565b8051909150156121bf578080602001905160208110156124e357600080fd5b50516121bf5760405162461bcd60e51b815260040180806020018281038252602a815260200180613f5d602a913960400191505060405180910390fd5b60008151604114612578576040805162461bcd60e51b815260206004820152601f60248201527f45434453413a20696e76616c6964207369676e6174757265206c656e67746800604482015290519081900360640190fd5b60208201516040830151606084015160001a6113e2868285856127e9565b6000806125a3848461295e565b90506040518111156125b3575060005b806125c55762ffffff199150506125d4565b6125d08585856129b8565b9150505b9392505050565b60006125e6826129cb565b64ffffffffff1664ffffffffff141561260157506000610a5f565b600061260c836129d1565b60405110159392505050565b600080612624866129f6565b6001600160601b03169050612638866129d1565b61264c85612646848961295e565b9061295e565b111561265f5762ffffff19915050612681565b612669818661295e565b905061267d8364ffffffffff168286612596565b9150505b949350505050565b600061269483612a05565b6126cf5760405162461bcd60e51b8152600401808060200182810382526028815260200180613f876028913960400191505060405180910390fd5b6126d8836125db565b6127135760405162461bcd60e51b815260040180806020018281038252602b815260200180613faf602b913960400191505060405180910390fd5b600061271e84612410565b6001600160601b031690506000612734856129f6565b6001600160601b031690506000806040519150858211156127555760206060fd5b8386858560045afa9050806127a0576040805162461bcd60e51b815260206004820152600c60248201526b6964656e74697479204f4f4760a01b604482015290519081900360640190fd5b6127ba6127ac886129cb565b64ffffffffff1687866129b8565b979650505050505050565b600061240a62ffffff19831660446020612a17565b60606126818484600085612a38565b60007f7fffffffffffffffffffffffffffffff5d576e7357a4501ddfe92f46681b20a082111561284a5760405162461bcd60e51b8152600401808060200182810382526022815260200180613e786022913960400191505060405180910390fd5b8360ff16601b148061285f57508360ff16601c145b61289a5760405162461bcd60e51b8152600401808060200182810382526022815260200180613ee16022913960400191505060405180910390fd5b600060018686868660405160008152602001604052604051808581526020018460ff1681526020018381526020018281526020019450505050506020604051602081039080840390855afa1580156128f6573d6000803e3d6000fd5b5050604051601f1901519150506001600160a01b03811661089d576040805162461bcd60e51b815260206004820152601860248201527f45434453413a20696e76616c6964207369676e61747572650000000000000000604482015290519081900360640190fd5b6000828201838110156125d4576040805162461bcd60e51b815260206004820152601b60248201527f536166654d6174683a206164646974696f6e206f766572666c6f770000000000604482015290519081900360640190fd5b606092831b9190911790911b1760181b90565b60d81c90565b60006129dc82612410565b6129e5836129f6565b016001600160601b03169050919050565b60781c6001600160601b031690565b6000612a1082612b88565b1592915050565b60008160200360080260ff16612a2e858585612b94565b901c949350505050565b606082471015612a795760405162461bcd60e51b8152600401808060200182810382526026815260200180613e9a6026913960400191505060405180910390fd5b612a8285612cf7565b612ad3576040805162461bcd60e51b815260206004820152601d60248201527f416464726573733a2063616c6c20746f206e6f6e2d636f6e7472616374000000604482015290519081900360640190fd5b600080866001600160a01b031685876040518082805190602001908083835b60208310612b115780518252601f199092019160209182019101612af2565b6001836020036101000a03801982511681845116808217855250505050505090500191505060006040518083038185875af1925050503d8060008114612b73576040519150601f19603f3d011682016040523d82523d6000602084013e612b78565b606091505b50915091506127ba828286612cfd565b62ffffff199081161490565b600060ff8216612ba6575060006125d4565b612baf84612410565b6001600160601b0316612bc58460ff851661295e565b1115612c8057612bfc612bd7856129f6565b6001600160601b0316612be986612410565b6001600160601b0316858560ff16612d63565b60405162461bcd60e51b81526004018080602001828103825283818151815260200191508051906020019080838360005b83811015612c45578181015183820152602001612c2d565b50505050905090810190601f168015612c725780820380516001836020036101000a031916815260200191505b509250505060405180910390fd5b60208260ff161115612cc35760405162461bcd60e51b815260040180806020018281038252603a815260200180613f23603a913960400191505060405180910390fd5b600882026000612cd2866129f6565b6001600160601b031690506000612ce883612e56565b91909501511695945050505050565b3b151590565b60608315612d0c5750816125d4565b825115612d1c5782518084602001fd5b60405162461bcd60e51b8152602060048201818152845160248401528451859391928392604401919085019080838360008315612c45578181015183820152602001612c2d565b60606000612d7086612e65565b9150506000612d7e86612e65565b9150506000612d8c86612e65565b9150506000612d9a86612e65565b915050838383836040516020018080613fda603591396001600160d01b031960d087811b821660358401526e040eed2e8d040d8cadccee8d04060f608b1b603b84015286901b16604a8201526050016021613ec082396001600160d01b031960d094851b811660218301526e040eed2e8d040d8cadccee8d04060f608b1b60278301529290931b909116603683015250601760f91b603c82015260408051601d818403018152603d90920190529b9a5050505050505050505050565b600160ff1b6000199091011d90565b600080601f5b600f8160ff161115612eaf5760ff600882021684901c612e8a81612efd565b61ffff16841793508160ff16601014612ea557601084901b93505b5060001901612e6b565b50600f5b60ff8160ff161015612ef75760ff600882021684901c612ed281612efd565b61ffff16831792508160ff16600014612eed57601083901b92505b5060001901612eb3565b50915091565b6000612f0f60048360ff16901c612f2d565b60ff161760081b62ffff0016612f2482612f2d565b60ff1617919050565b6040805180820190915260108082526f181899199a1a9b1b9c1cb0b131b232b360811b6020830152600091600f84169182908110612f6757fe5b016020015160f81c9392505050565b828054600181600116156101000203166002900490600052602060002090601f016020900481019282612fac5760008555612ff2565b82601f10612fc557805160ff1916838001178555612ff2565b82800160010185558215612ff2579182015b82811115612ff2578251825591602001919060010190612fd7565b50612ffe9291506130de565b5090565b6040518060a00160405280600081526020016000815260200160006001600160a01b0316815260200160008152602001600081525090565b604080516101408101909152606081526020810160008152602001600081526020016060815260200160008152602001600081526020016000815260200160008152602001600081526020016000151581525090565b6040518060e001604052806000815260200160006001600160a01b031681526020016000815260200160008152602001600015158152602001600063ffffffff168152602001606081525090565b5b80821115612ffe57600081556001016130df565b600061310661310184613e04565b613de1565b905082815283838301111561311a57600080fd5b828260208301376000602084830101529392505050565b80356001600160a01b0381168114610a5f57600080fd5b60008083601f840112613159578182fd5b5081356001600160401b0381111561316f578182fd5b60208301915083602082850101111561318757600080fd5b9250929050565b600082601f83011261319e578081fd5b6125d4838335602085016130f3565b600082601f8301126131bd578081fd5b81516131cb61310182613e04565b8181528460208386010111156131df578283fd5b612681826020830160208701613e25565b803563ffffffff81168114610a5f57600080fd5b600060208284031215613215578081fd5b6125d482613131565b60006020828403121561322f578081fd5b81356001600160401b03811115613244578182fd5b6126818482850161318e565b60008060408385031215613262578081fd5b82356001600160401b03811115613277578182fd5b6132838582860161318e565b92505061329260208401613131565b90509250929050565b600080600080600060a086880312156132b2578081fd5b85356001600160401b03808211156132c8578283fd5b6132d489838a0161318e565b965060208801359150600482106132e9578283fd5b909450604087013590600282106132fe578283fd5b90935060608701359080821115613313578283fd5b506133208882890161318e565b95989497509295608001359392505050565b60008060408385031215613344578182fd5b82516001600160401b038082111561335a578384fd5b613366868387016131ad565b9350602085015191508082111561337b578283fd5b50613388858286016131ad565b9150509250929050565b600080604083850312156133a4578182fd5b82356001600160401b038111156133b9578283fd5b6133c58582860161318e565b95602094909401359450505050565b6000806000606084860312156133e8578283fd5b83356001600160401b03808211156133fe578485fd5b61340a8783880161318e565b9450602086013593506040860135915080821115613426578283fd5b506134338682870161318e565b9150509250925092565b60008060008060008060c08789031215613455578081fd5b86356001600160401b038082111561346b578283fd5b6134778a838b0161318e565b97506020890135965060408901359550606089013591508082111561349a578283fd5b506134a789828a0161318e565b935050608087013591506134bd60a08801613131565b90509295509295509295565b6000602082840312156134da578081fd5b5035919050565b6000602082840312156134f2578081fd5b5051919050565b6000806040838503121561350b578182fd5b50508035926020909101359150565b600080600080600060a08688031215613531578283fd5b853594506020860135935060408601356001600160401b0380821115613555578485fd5b61356189838a0161318e565b945060608801359350608088013591508082111561357d578283fd5b508601601f8101881361358e578182fd5b61359d888235602084016130f3565b9150509295509295909350565b600080600080606085870312156135bf578182fd5b6135c8856131f0565b93506020850135925060408501356001600160401b038111156135e9578283fd5b6135f587828801613148565b95989497509550505050565b600080600080600060808688031215613618578283fd5b613621866131f0565b945060208601359350613636604087016131f0565b925060608601356001600160401b03811115613650578182fd5b61365c88828901613148565b969995985093965092949392505050565b15159052565b6002811061367d57fe5b9052565b6004811061367d57fe5b600081518084526136a3816020860160208601613e25565b601f01601f19169290920160200192915050565b60008083546001808216600081146136d657600181146136ed5761371c565b60ff198316865260028304607f168601935061371c565b600283048786526020808720875b838110156137145781548a8201529085019082016136fb565b505050860193505b509195945050505050565b60008251613739818460208701613e25565b9190910192915050565b61190160f01b81526002810192909252602282015260420190565b6001600160a01b0391909116815260200190565b6000602080830181845280855180835260408601915060408482028701019250838701855b828110156137c557603f198886030184526137b385835161368b565b94509285019290850190600101613797565b5092979650505050505050565b901515815260200190565b90815260200190565b948552602085019390935260408401919091526060830152608082015260a00190565b60006138158287613681565b6138226020830186613673565b60806040830152613836608083018561368b565b905082606083015295945050505050565b600063ffffffff86168252846020830152836040830152608060608301526113e2608083018461368b565b6000602082526125d4602083018461368b565b60006101408083526138998184018e61368b565b90506138a8602084018d613681565b6138b5604084018c613673565b82810360608401526138c7818b61368b565b6080840199909952505060a081019590955260c085019390935260e0840191909152610100830152151561012090910152949350505050565b60208082526013908201527209cc2e8d2dedcc2d8d2e8f29ad2e6dac2e8c6d606b1b604082015260600190565b602080825260129082015271496e76616c69644e6174696f6e616c69747960701b604082015260600190565b6020808252600d908201526c125b9d985b1a59105b5bdd5b9d609a1b604082015260600190565b60208082526010908201526f125b9d985b1a59149958da5c1a595b9d60821b604082015260600190565b6020808252600b908201526a125b9d985b1a59141bdbdb60aa1b604082015260600190565b602080825260169082015275496e7465726e616c2066756e6374696f6e206f6e6c7960501b604082015260600190565b60208082526017908201527f556e617574686f72697a65643a204e6f742041646d696e000000000000000000604082015260600190565b602080825260159082015274139bc81a1bdbdac819185d18481c1c9bdd9a591959605a1b604082015260600190565b6020808252600c908201526b506f6f6c496e61637469766560a01b604082015260600190565b6020808252600e908201526d105b1c9958591e50db185a5b595960921b604082015260600190565b602080825260119082015270496e73756666696369656e7446756e647360781b604082015260600190565b602080825260119082015270506f6f6c416c726561647945786973747360781b604082015260600190565b602080825260139082015272496e646578206f7574206f6620626f756e647360681b604082015260600190565b6020808252601290820152712ab730baba3437b934bd32b221b0b63632b960711b604082015260600190565b6020808252600d908201526c125b9d985b1a59141bdbdb1259609a1b604082015260600190565b81518152602080830151908201526040808301516001600160a01b031690820152606080830151908201526080918201519181019190915260a00190565b6000602082528251602083015260018060a01b03602084015116604083015260408301516060830152606083015160808301526080830151151560a083015263ffffffff60a08401511660c083015260c083015160e08084015261268161010084018261368b565b6000602082528251610140806020850152613c4e61016085018361368b565b91506020850151613c626040860182613681565b506040850151613c756060860182613673565b506060850151848303601f19016080860152613c91838261368b565b925050608085015160a085015260a085015160c085015260c085015160e085015260e0850151610100818187015280870151915050610120818187015280870151915050613ce18286018261366d565b5090949350505050565b600088825260018060a01b0388166020830152866040830152856060830152841515608083015263ffffffff841660a083015260e060c0830152613d3260e083018461368b565b9998505050505050505050565b94855260208501939093526001600160a01b039190911660408401526060830152608082015260a00190565b600086825285602083015260a06040830152613d8a60a083018661368b565b606083019490945250608001529392505050565b600063ffffffff861682528460208301526060604083015282606083015282846080840137818301608090810191909152601f909201601f191601019392505050565b6040518181016001600160401b0381118282101715613dfc57fe5b604052919050565b60006001600160401b03821115613e1757fe5b50601f01601f191660200190565b60005b83811015613e40578181015183820152602001613e28565b838111156122f6575050600091015256fe4f776e61626c653a206e6577206f776e657220697320746865207a65726f206164647265737345434453413a20696e76616c6964207369676e6174757265202773272076616c7565416464726573733a20696e73756666696369656e742062616c616e636520666f722063616c6c2e20417474656d7074656420746f20696e646578206174206f666673657420307845434453413a20696e76616c6964207369676e6174757265202776272076616c75654f776e61626c653a2063616c6c6572206973206e6f7420746865206f776e657254797065644d656d566965772f696e646578202d20417474656d7074656420746f20696e646578206d6f7265207468616e2033322062797465735361666545524332303a204552433230206f7065726174696f6e20646964206e6f74207375636365656454797065644d656d566965772f636f7079546f202d204e756c6c20706f696e74657220646572656654797065644d656d566965772f636f7079546f202d20496e76616c696420706f696e74657220646572656654797065644d656d566965772f696e646578202d204f76657272616e2074686520766965772e20536c696365206973206174203078a2646970667358221220d88abc5696bf22abe1185d620eaf350fcf746d0b18e1a6d835290f91f56a6e0164736f6c634300070600334f776e61626c653a206e6577206f776e657220697320746865207a65726f20616464726573738be0079c531659141344cd1fd0a4f28419497f9722a3daafe3b4186f6b6457e0",
  "linkReferences": {},
  "deployedLinkReferences": {}
}