{
  "_format": "hh-sol-artifact-1",
  "contractName": "ReliefPools",
  "sourceName": "contracts/ReliefPools.sol",
  "abi": [
    {
      "inputs": [
        {
          "internalType": "address",
          "name": "_adminAddress",
          "type": "address"
        },
        {
          "internalType": "address",
          "name": "_usdcToken",
          "type": "address"
        },
        {
          "internalType": "address",
          "name": "_cctpMessageTransmitter",
          "type": "address"
        }
      ],
      "stateMutability": "nonpayable",
      "type": "constructor"
    },
    {
      "anonymous": false,
      "inputs": [
        {
          "indexed": true,
          "internalType": "uint256",
          "name": "poolId",
          "type": "uint256"
        },
        {
          "indexed": true,
          "internalType": "address",
          "name": "donor",
          "type": "address"
        },
        {
          "indexed": false,
          "internalType": "uint32",
          "name": "sourceDomain",
          "type": "uint32"
        },
        {
          "indexed": false,
          "internalType": "uint256",
          "name": "amount",
          "type": "uint256"
        },
        {
          "indexed": false,
          "internalType": "uint256",
          "name": "timestamp",
          "type": "uint256"
        },
        {
          "indexed": false,
          "internalType": "string",
          "name": "location",
          "type": "string"
        }
      ],
      "name": "DonationMade",
      "type": "event"
    },
    {
      "anonymous": false,
      "inputs": [
        {
          "indexed": true,
          "internalType": "uint256",
          "name": "poolId",
          "type": "uint256"
        },
        {
          "indexed": true,
          "internalType": "address",
          "name": "claimer",
          "type": "address"
        },
        {
          "indexed": true,
          "internalType": "address",
          "name": "recipient",
          "type": "address"
        },
        {
          "indexed": false,
          "internalType": "uint256",
          "name": "nullifier",
          "type": "uint256"
        },
        {
          "indexed": false,
          "internalType": "uint256",
          "name": "userIdentifier",
          "type": "uint256"
        },
        {
          "indexed": false,
          "internalType": "string",
          "name": "nationality",
          "type": "string"
        },
        {
          "indexed": false,
          "internalType": "uint256",
          "name": "amount",
          "type": "uint256"
        },
        {
          "indexed": false,
          "internalType": "uint256",
          "name": "timestamp",
          "type": "uint256"
        }
      ],
      "name": "FundsClaimed",
      "type": "event"
    },
    {
      "anonymous": false,
      "inputs": [
        {
          "indexed": true,
          "internalType": "address",
          "name": "previousOwner",
          "type": "address"
        },
        {
          "indexed": true,
          "internalType": "address",
          "name": "newOwner",
          "type": "address"
        }
      ],
      "name": "OwnershipTransferred",
      "type": "event"
    },
    {
      "anonymous": false,
      "inputs": [
        {
          "indexed": true,
          "internalType": "uint256",
          "name": "poolId",
          "type": "uint256"
        },
        {
          "indexed": false,
          "internalType": "bool",
          "name": "isActive",
          "type": "bool"
        }
      ],
      "name": "PoolStatusChanged",
      "type": "event"
    },
    {
      "anonymous": false,
      "inputs": [
        {
          "indexed": true,
          "internalType": "uint256",
          "name": "poolId",
          "type": "uint256"
        },
        {
          "indexed": false,
          "internalType": "enum ReliefPools.DisasterTypeEnum",
          "name": "disasterType",
          "type": "uint8"
        },
        {
          "indexed": false,
          "internalType": "enum ReliefPools.ClassificationEnum",
          "name": "classification",
          "type": "uint8"
        },
        {
          "indexed": false,
          "internalType": "string",
          "name": "nationalityRequired",
          "type": "string"
        },
        {
          "indexed": false,
          "internalType": "uint256",
          "name": "allocatedFundsPerPerson",
          "type": "uint256"
        }
      ],
      "name": "ReliefPoolCreated",
      "type": "event"
    },
    {
      "inputs": [],
      "name": "DOMAIN_SEPARATOR",
      "outputs": [
        {
          "internalType": "bytes32",
          "name": "",
          "type": "bytes32"
        }
      ],
      "stateMutability": "view",
      "type": "function"
    },
    {
      "inputs": [],
      "name": "VERIFICATION_MESSAGE_TYPEHASH",
      "outputs": [
        {
          "internalType": "bytes32",
          "name": "",
          "type": "bytes32"
        }
      ],
      "stateMutability": "view",
      "type": "function"
    },
    {
      "inputs": [
        {
          "internalType": "uint32",
          "name": "sourceDomain",
          "type": "uint32"
        },
        {
          "internalType": "bytes32",
          "name": "sender",
          "type": "bytes32"
        },
        {
          "internalType": "bytes",
          "name": "messageBody",
          "type": "bytes"
        }
      ],
      "name": "_processCrossChainDonation",
      "outputs": [],
      "stateMutability": "nonpayable",
      "type": "function"
    },
    {
      "inputs": [],
      "name": "adminAddress",
      "outputs": [
        {
          "internalType": "address",
          "name": "",
          "type": "address"
        }
      ],
      "stateMutability": "view",
      "type": "function"
    },
    {
      "inputs": [],
      "name": "cctpMessageTransmitter",
      "outputs": [
        {
          "internalType": "address",
          "name": "",
          "type": "address"
        }
      ],
      "stateMutability": "view",
      "type": "function"
    },
    {
      "inputs": [
        {
          "internalType": "uint256",
          "name": "poolId",
          "type": "uint256"
        },
        {
          "internalType": "uint256",
          "name": "nullifier",
          "type": "uint256"
        },
        {
          "internalType": "uint256",
          "name": "userIdentifier",
          "type": "uint256"
        }
      ],
      "name": "checkPersonClaimedFromPool",
      "outputs": [
        {
          "internalType": "bool",
          "name": "",
          "type": "bool"
        }
      ],
      "stateMutability": "view",
      "type": "function"
    },
    {
      "inputs": [
        {
          "internalType": "uint256",
          "name": "poolId",
          "type": "uint256"
        },
        {
          "internalType": "uint256",
          "name": "nullifier",
          "type": "uint256"
        },
        {
          "internalType": "uint256",
          "name": "userIdentifier",
          "type": "uint256"
        },
        {
          "internalType": "string",
          "name": "nationality",
          "type": "string"
        },
        {
          "internalType": "uint256",
          "name": "timestamp",
          "type": "uint256"
        },
        {
          "internalType": "address",
          "name": "recipient",
          "type": "address"
        },
        {
          "internalType": "bytes",
          "name": "adminSignature",
          "type": "bytes"
        }
      ],
      "name": "claimRelief",
      "outputs": [],
      "stateMutability": "nonpayable",
      "type": "function"
    },
    {
      "inputs": [
        {
          "internalType": "uint256",
          "name": "poolId",
          "type": "uint256"
        },
        {
          "internalType": "uint256",
          "name": "nullifier",
          "type": "uint256"
        },
        {
          "internalType": "uint256",
          "name": "userIdentifier",
          "type": "uint256"
        },
        {
          "internalType": "string",
          "name": "nationality",
          "type": "string"
        },
        {
          "internalType": "uint256",
          "name": "timestamp",
          "type": "uint256"
        },
        {
          "internalType": "bytes",
          "name": "adminSignature",
          "type": "bytes"
        }
      ],
      "name": "claimReliefToSelf",
      "outputs": [],
      "stateMutability": "nonpayable",
      "type": "function"
    },
    {
      "inputs": [
        {
          "internalType": "enum ReliefPools.DisasterTypeEnum",
          "name": "disasterType",
          "type": "uint8"
        },
        {
          "internalType": "enum ReliefPools.ClassificationEnum",
          "name": "classification",
          "type": "uint8"
        },
        {
          "internalType": "string",
          "name": "nationalityRequired",
          "type": "string"
        },
        {
          "internalType": "uint256",
          "name": "allocatedFundsPerPerson",
          "type": "uint256"
        }
      ],
      "name": "createReliefPool",
      "outputs": [
        {
          "internalType": "uint256",
          "name": "",
          "type": "uint256"
        }
      ],
      "stateMutability": "nonpayable",
      "type": "function"
    },
    {
      "inputs": [
        {
          "internalType": "uint256",
          "name": "poolId",
          "type": "uint256"
        },
        {
          "internalType": "uint256",
          "name": "amount",
          "type": "uint256"
        },
        {
          "internalType": "string",
          "name": "location",
          "type": "string"
        }
      ],
      "name": "donate",
      "outputs": [],
      "stateMutability": "nonpayable",
      "type": "function"
    },
    {
      "inputs": [
        {
          "internalType": "uint256",
          "name": "amount",
          "type": "uint256"
        }
      ],
      "name": "emergencyWithdraw",
      "outputs": [],
      "stateMutability": "nonpayable",
      "type": "function"
    },
    {
      "inputs": [
        {
          "internalType": "uint256",
          "name": "nullifier",
          "type": "uint256"
        },
        {
          "internalType": "uint256",
          "name": "userIdentifier",
          "type": "uint256"
        }
      ],
      "name": "generatePersonHash",
      "outputs": [
        {
          "internalType": "bytes32",
          "name": "",
          "type": "bytes32"
        }
      ],
      "stateMutability": "pure",
      "type": "function"
    },
    {
      "inputs": [
        {
          "internalType": "uint256",
          "name": "poolId",
          "type": "uint256"
        },
        {
          "internalType": "address",
          "name": "beneficiary",
          "type": "address"
        }
      ],
      "name": "getBeneficiary",
      "outputs": [
        {
          "components": [
            {
              "internalType": "uint256",
              "name": "nullifier",
              "type": "uint256"
            },
            {
              "internalType": "uint256",
              "name": "userIdentifier",
              "type": "uint256"
            },
            {
              "internalType": "address",
              "name": "walletAddress",
              "type": "address"
            },
            {
              "internalType": "uint256",
              "name": "amount",
              "type": "uint256"
            },
            {
              "internalType": "uint256",
              "name": "timestamp",
              "type": "uint256"
            }
          ],
          "internalType": "struct ReliefPools.Beneficiary",
          "name": "",
          "type": "tuple"
        }
      ],
      "stateMutability": "view",
      "type": "function"
    },
    {
      "inputs": [],
      "name": "getContractBalance",
      "outputs": [
        {
          "internalType": "uint256",
          "name": "",
          "type": "uint256"
        }
      ],
      "stateMutability": "view",
      "type": "function"
    },
    {
      "inputs": [
        {
          "internalType": "uint256",
          "name": "poolId",
          "type": "uint256"
        },
        {
          "internalType": "address",
          "name": "donor",
          "type": "address"
        }
      ],
      "name": "getDonor",
      "outputs": [
        {
          "components": [
            {
              "internalType": "uint256",
              "name": "id",
              "type": "uint256"
            },
            {
              "internalType": "address",
              "name": "walletAddress",
              "type": "address"
            },
            {
              "internalType": "uint256",
              "name": "amount",
              "type": "uint256"
            },
            {
              "internalType": "uint256",
              "name": "timestamp",
              "type": "uint256"
            },
            {
              "internalType": "bool",
              "name": "isCrossChain",
              "type": "bool"
            },
            {
              "internalType": "uint32",
              "name": "sourceDomain",
              "type": "uint32"
            },
            {
              "internalType": "string",
              "name": "location",
              "type": "string"
            }
          ],
          "internalType": "struct ReliefPools.Donor",
          "name": "",
          "type": "tuple"
        }
      ],
      "stateMutability": "view",
      "type": "function"
    },
    {
      "inputs": [
        {
          "internalType": "uint256",
          "name": "nullifier",
          "type": "uint256"
        },
        {
          "internalType": "uint256",
          "name": "userIdentifier",
          "type": "uint256"
        }
      ],
      "name": "getPersonClaimedPools",
      "outputs": [
        {
          "internalType": "uint256[]",
          "name": "",
          "type": "uint256[]"
        }
      ],
      "stateMutability": "view",
      "type": "function"
    },
    {
      "inputs": [
        {
          "internalType": "uint256",
          "name": "poolId",
          "type": "uint256"
        }
      ],
      "name": "getReliefPool",
      "outputs": [
        {
          "components": [
            {
              "internalType": "uint256",
              "name": "id",
              "type": "uint256"
            },
            {
              "internalType": "enum ReliefPools.DisasterTypeEnum",
              "name": "disasterType",
              "type": "uint8"
            },
            {
              "internalType": "enum ReliefPools.ClassificationEnum",
              "name": "classification",
              "type": "uint8"
            },
            {
              "internalType": "string",
              "name": "nationalityRequired",
              "type": "string"
            },
            {
              "internalType": "uint256",
              "name": "allocatedFundsPerPerson",
              "type": "uint256"
            },
            {
              "internalType": "uint256",
              "name": "totalBeneficiaries",
              "type": "uint256"
            },
            {
              "internalType": "uint256",
              "name": "totalDonors",
              "type": "uint256"
            },
            {
              "internalType": "uint256",
              "name": "totalAmountClaimed",
              "type": "uint256"
            },
            {
              "internalType": "uint256",
              "name": "totalAmountDonated",
              "type": "uint256"
            },
            {
              "internalType": "bool",
              "name": "isActive",
              "type": "bool"
            }
          ],
          "internalType": "struct ReliefPools.ReliefPool",
          "name": "",
          "type": "tuple"
        }
      ],
      "stateMutability": "view",
      "type": "function"
    },
    {
      "inputs": [],
      "name": "getTotalPools",
      "outputs": [
        {
          "internalType": "uint256",
          "name": "",
          "type": "uint256"
        }
      ],
      "stateMutability": "view",
      "type": "function"
    },
    {
      "inputs": [
        {
          "internalType": "uint32",
          "name": "sourceDomain",
          "type": "uint32"
        },
        {
          "internalType": "bytes32",
          "name": "sender",
          "type": "bytes32"
        },
        {
          "internalType": "uint32",
          "name": "finalityThresholdExecuted",
          "type": "uint32"
        },
        {
          "internalType": "bytes",
          "name": "messageBody",
          "type": "bytes"
        }
      ],
      "name": "handleReceiveFinalizedMessage",
      "outputs": [
        {
          "internalType": "bool",
          "name": "",
          "type": "bool"
        }
      ],
      "stateMutability": "nonpayable",
      "type": "function"
    },
    {
      "inputs": [
        {
          "internalType": "uint32",
          "name": "sourceDomain",
          "type": "uint32"
        },
        {
          "internalType": "bytes32",
          "name": "sender",
          "type": "bytes32"
        },
        {
          "internalType": "uint32",
          "name": "finalityThresholdExecuted",
          "type": "uint32"
        },
        {
          "internalType": "bytes",
          "name": "messageBody",
          "type": "bytes"
        }
      ],
      "name": "handleReceiveUnfinalizedMessage",
      "outputs": [
        {
          "internalType": "bool",
          "name": "",
          "type": "bool"
        }
      ],
      "stateMutability": "nonpayable",
      "type": "function"
    },
    {
      "inputs": [
        {
          "internalType": "uint256",
          "name": "",
          "type": "uint256"
        },
        {
          "internalType": "bytes32",
          "name": "",
          "type": "bytes32"
        }
      ],
      "name": "hasPersonClaimedFromPool",
      "outputs": [
        {
          "internalType": "bool",
          "name": "",
          "type": "bool"
        }
      ],
      "stateMutability": "view",
      "type": "function"
    },
    {
      "inputs": [],
      "name": "owner",
      "outputs": [
        {
          "internalType": "address",
          "name": "",
          "type": "address"
        }
      ],
      "stateMutability": "view",
      "type": "function"
    },
    {
      "inputs": [
        {
          "internalType": "bytes32",
          "name": "",
          "type": "bytes32"
        },
        {
          "internalType": "uint256",
          "name": "",
          "type": "uint256"
        }
      ],
      "name": "personClaimedPools",
      "outputs": [
        {
          "internalType": "uint256",
          "name": "",
          "type": "uint256"
        }
      ],
      "stateMutability": "view",
      "type": "function"
    },
    {
      "inputs": [
        {
          "internalType": "uint256",
          "name": "",
          "type": "uint256"
        },
        {
          "internalType": "address",
          "name": "",
          "type": "address"
        }
      ],
      "name": "poolBeneficiaries",
      "outputs": [
        {
          "internalType": "uint256",
          "name": "nullifier",
          "type": "uint256"
        },
        {
          "internalType": "uint256",
          "name": "userIdentifier",
          "type": "uint256"
        },
        {
          "internalType": "address",
          "name": "walletAddress",
          "type": "address"
        },
        {
          "internalType": "uint256",
          "name": "amount",
          "type": "uint256"
        },
        {
          "internalType": "uint256",
          "name": "timestamp",
          "type": "uint256"
        }
      ],
      "stateMutability": "view",
      "type": "function"
    },
    {
      "inputs": [],
      "name": "poolCounter",
      "outputs": [
        {
          "internalType": "uint256",
          "name": "",
          "type": "uint256"
        }
      ],
      "stateMutability": "view",
      "type": "function"
    },
    {
      "inputs": [
        {
          "internalType": "uint256",
          "name": "",
          "type": "uint256"
        },
        {
          "internalType": "address",
          "name": "",
          "type": "address"
        }
      ],
      "name": "poolDonors",
      "outputs": [
        {
          "internalType": "uint256",
          "name": "id",
          "type": "uint256"
        },
        {
          "internalType": "address",
          "name": "walletAddress",
          "type": "address"
        },
        {
          "internalType": "uint256",
          "name": "amount",
          "type": "uint256"
        },
        {
          "internalType": "uint256",
          "name": "timestamp",
          "type": "uint256"
        },
        {
          "internalType": "bool",
          "name": "isCrossChain",
          "type": "bool"
        },
        {
          "internalType": "uint32",
          "name": "sourceDomain",
          "type": "uint32"
        },
        {
          "internalType": "string",
          "name": "location",
          "type": "string"
        }
      ],
      "stateMutability": "view",
      "type": "function"
    },
    {
      "inputs": [
        {
          "internalType": "uint256",
          "name": "",
          "type": "uint256"
        }
      ],
      "name": "reliefPools",
      "outputs": [
        {
          "internalType": "uint256",
          "name": "id",
          "type": "uint256"
        },
        {
          "internalType": "enum ReliefPools.DisasterTypeEnum",
          "name": "disasterType",
          "type": "uint8"
        },
        {
          "internalType": "enum ReliefPools.ClassificationEnum",
          "name": "classification",
          "type": "uint8"
        },
        {
          "internalType": "string",
          "name": "nationalityRequired",
          "type": "string"
        },
        {
          "internalType": "uint256",
          "name": "allocatedFundsPerPerson",
          "type": "uint256"
        },
        {
          "internalType": "uint256",
          "name": "totalBeneficiaries",
          "type": "uint256"
        },
        {
          "internalType": "uint256",
          "name": "totalDonors",
          "type": "uint256"
        },
        {
          "internalType": "uint256",
          "name": "totalAmountClaimed",
          "type": "uint256"
        },
        {
          "internalType": "uint256",
          "name": "totalAmountDonated",
          "type": "uint256"
        },
        {
          "internalType": "bool",
          "name": "isActive",
          "type": "bool"
        }
      ],
      "stateMutability": "view",
      "type": "function"
    },
    {
      "inputs": [],
      "name": "renounceOwnership",
      "outputs": [],
      "stateMutability": "nonpayable",
      "type": "function"
    },
    {
      "inputs": [
        {
          "internalType": "address",
          "name": "_cctpMessageTransmitter",
          "type": "address"
        }
      ],
      "name": "setCCTPMessageTransmitter",
      "outputs": [],
      "stateMutability": "nonpayable",
      "type": "function"
    },
    {
      "inputs": [
        {
          "internalType": "uint256",
          "name": "poolId",
          "type": "uint256"
        }
      ],
      "name": "togglePoolStatus",
      "outputs": [],
      "stateMutability": "nonpayable",
      "type": "function"
    },
    {
      "inputs": [
        {
          "internalType": "address",
          "name": "newOwner",
          "type": "address"
        }
      ],
      "name": "transferOwnership",
      "outputs": [],
      "stateMutability": "nonpayable",
      "type": "function"
    },
    {
      "inputs": [],
      "name": "usdcToken",
      "outputs": [
        {
          "internalType": "contract IERC20",
          "name": "",
          "type": "address"
        }
      ],
      "stateMutability": "view",
      "type": "function"
    },
    {
      "inputs": [
        {
          "internalType": "address",
          "name": "userAddress",
          "type": "address"
        },
        {
          "internalType": "uint256",
          "name": "nullifier",
          "type": "uint256"
        },
        {
          "internalType": "uint256",
          "name": "userIdentifier",
          "type": "uint256"
        },
        {
          "internalType": "string",
          "name": "nationality",
          "type": "string"
        },
        {
          "internalType": "uint256",
          "name": "timestamp",
          "type": "uint256"
        },
        {
          "internalType": "bytes",
          "name": "adminSignature",
          "type": "bytes"
        }
      ],
      "name": "verifyAdminSignature",
      "outputs": [
        {
          "internalType": "bool",
          "name": "",
          "type": "bool"
        }
      ],
      "stateMutability": "view",
      "type": "function"
    }
  ],
  "bytecode": "0x60c06040523480156200001157600080fd5b5060405162003e8638038062003e868339810160408190526200003491620002d5565b6000620000406200019b565b600080546001600160a01b0319166001600160a01b03831690811782556040519293509160008051602062003e66833981519152908290a350600180546001600160a01b038086166001600160a01b0319928316179092556001600160601b0319606085901b166080526002805492841692909116919091179055620000c6836200019f565b604080518082018252600b81526a52656c696566506f6f6c7360a81b6020918201528151808301835260018152603160f81b90820152905162000176917f8b73c3c69bb8fe3d512ecc4cf759cc79239f7b179b0ffacaa9a75d522b39400f917f3323a8070b7081e28ca423d850c49e17147e941af41daf0ad176ecf1a5481b67917fc89efdaa54c0f20c7adf612882df0950f5a951637e0307cdcb4c672f298b8bc691612105913091016200031e565b60408051601f19818403018152919052805160209091012060a052506200034e915050565b3390565b620001a96200019b565b6001600160a01b0316620001bc620002a9565b6001600160a01b03161462000218576040805162461bcd60e51b815260206004820181905260248201527f4f776e61626c653a2063616c6c6572206973206e6f7420746865206f776e6572604482015290519081900360640190fd5b6001600160a01b0381166200025f5760405162461bcd60e51b815260040180806020018281038252602681526020018062003e406026913960400191505060405180910390fd5b600080546040516001600160a01b038085169392169160008051602062003e6683398151915291a3600080546001600160a01b0319166001600160a01b0392909216919091179055565b6000546001600160a01b031690565b80516001600160a01b0381168114620002d057600080fd5b919050565b600080600060608486031215620002ea578283fd5b620002f584620002b8565b92506200030560208501620002b8565b91506200031560408501620002b8565b90509250925092565b9485526020850193909352604084019190915261ffff1660608301526001600160a01b0316608082015260a00190565b60805160601c60a051613aad620003936000398061099d5280611d3752508061051d52806105c75280610a635280610b005280610e85528061108a5250613aad6000f3fe608060405234801561001057600080fd5b50600436106101fb5760003560e01c80637c92f2191161011a578063d0e5a743116100ad578063e1a788eb1161007c578063e1a788eb14610449578063ef20c85a14610451578063f2fde38b14610464578063f594dbf414610477578063fc6f94681461049d576101fb565b8063d0e5a743146103fb578063d3ffe67a1461041b578063d9db6e0314610423578063db5e4c7514610436576101fb565b80638da5cb5b116100e95780638da5cb5b146103b85780638e09727e146103c05780639e3079cb146103e0578063a8f7f995146103e8576101fb565b80637c92f2191461037757806382e15e511461038a5780638b29caf51461039d5780638c73eb04146103b0576101fb565b80633644e5151161019257806359b3c2d81161016157806359b3c2d8146103235780636f9fb98a14610347578063715018a61461034f57806373aacb0014610357576101fb565b80633644e515146102d557806344a13c1f146102ea5780635312ea8e146102fd5780635947300514610310576101fb565b806319c2799f116101ce57806319c2799f14610273578063216b31c11461029c57806329d9b720146102af57806335c1f73e146102c2576101fb565b806306cc759b1461020057806311cffb671461022957806311eac8551461024957806316c3cdf51461025e575b600080fd5b61021361020e366004612e3f565b6104a5565b60405161022091906134fb565b60405180910390f35b61023c6102373660046130a8565b61050f565b6040516102209190613250565b61025161051b565b60405161022091906131f8565b61027161026c366004612efb565b61053f565b005b610286610281366004612e0f565b610796565b6040516102209a9998979695949392919061369d565b6102716102aa366004612e0f565b61087b565b61023c6102bd366004612cf3565b610960565b61023c6102d0366004612d80565b61097b565b6102dd61099b565b604051610220919061325b565b6102dd6102f8366004612d80565b6109bf565b61027161030b366004612e0f565b6109f0565b6102dd61031e366004612ee9565b610a8f565b610336610331366004612e3f565b610aa2565b60405161022095949392919061370a565b6102dd610ae6565b610271610b8a565b61036a610365366004612ee9565b610c36565b604051610220919061320c565b61023c6103853660046130a8565b610caa565b610271610398366004612f74565b610d3f565b6102dd6103ab366004612da1565b611121565b61025161135a565b610251611369565b6103d36103ce366004612e0f565b611378565b60405161022091906135a1565b6102dd6114cf565b6102716103f636600461300c565b6114d5565b61040e610409366004612e3f565b61153e565b6040516102209190613539565b6102dd611653565b610271610431366004612cd9565b611659565b610271610444366004613050565b6116dd565b6102dd611a28565b61023c61045f366004612f49565b611a4c565b610271610472366004612cd9565b611a7f565b61048a610485366004612e3f565b611b81565b6040516102209796959493929190613649565b610251611c63565b6104ad612a99565b5060009182526005602090815260408084206001600160a01b039384168552825292839020835160a081018552815481526001820154928101929092526002810154909216928101929092526003810154606083015260040154608082015290565b60015b95945050505050565b7f000000000000000000000000000000000000000000000000000000000000000081565b6000838152600460205260409020805484146105765760405162461bcd60e51b815260040161056d906133d2565b60405180910390fd5b600881015460ff1661059a5760405162461bcd60e51b815260040161056d90613456565b600083116105ba5760405162461bcd60e51b815260040161056d90613381565b6105ef6001600160a01b037f000000000000000000000000000000000000000000000000000000000000000016333086611c72565b80600501600081548092919060010191905055508281600701600082825401925050819055506040518060e0016040528082600501548152602001336001600160a01b03168152602001848152602001428152602001600015158152602001600663ffffffff16815260200183815250600660008681526020019081526020016000206000336001600160a01b03166001600160a01b031681526020019081526020016000206000820151816000015560208201518160010160006101000a8154816001600160a01b0302191690836001600160a01b03160217905550604082015181600201556060820151816003015560808201518160040160006101000a81548160ff02191690831515021790555060a08201518160040160016101000a81548163ffffffff021916908363ffffffff16021790555060c0820151816005019080519060200190610743929190612ad1565b50905050336001600160a01b0316847f743501122ba2cd9590984350a2076553271a243e2b9de8617a802d7c7af7d301600686428760405161078894939291906132d3565b60405180910390a350505050565b60046020908152600091825260409182902080546001808301546002808501805488516101009582161586026000190190911692909204601f8101889004880283018801909852878252939660ff8084169794909304909216949390929091908301828280156108475780601f1061081c57610100808354040283529160200191610847565b820191906000526020600020905b81548152906001019060200180831161082a57829003601f168201915b5050506003840154600485015460058601546006870154600788015460089098015496979396929550909350919060ff168a565b610883611cd2565b6001600160a01b0316610894611369565b6001600160a01b0316146108dd576040805162461bcd60e51b8152602060048201819052602482015260008051602061396c833981519152604482015290519081900360640190fd5b60008181526004602052604090208054821461090b5760405162461bcd60e51b815260040161056d906133d2565b60088101805460ff19811660ff91821615179182905560405184927fb3c3c605d1520cd5bf41301dd5c04929e0ff021b02a10ea259b5a5b2d521a29c9261095492911690613250565b60405180910390a25050565b6000610970878787878787611cd6565b979650505050505050565b600760209081526000928352604080842090915290825290205460ff1681565b7f000000000000000000000000000000000000000000000000000000000000000081565b600860205281600052604060002081815481106109db57600080fd5b90600052602060002001600091509150505481565b6109f8611cd2565b6001600160a01b0316610a09611369565b6001600160a01b031614610a52576040805162461bcd60e51b8152602060048201819052602482015260008051602061396c833981519152604482015290519081900360640190fd5b600154610a8c906001600160a01b037f00000000000000000000000000000000000000000000000000000000000000008116911683611dad565b50565b6000610a9b8383611e04565b9392505050565b600560209081526000928352604080842090915290825290208054600182015460028301546003840154600490940154929391926001600160a01b03909116919085565b6040516370a0823160e01b81526000906001600160a01b037f000000000000000000000000000000000000000000000000000000000000000016906370a0823190610b359030906004016131f8565b60206040518083038186803b158015610b4d57600080fd5b505afa158015610b61573d6000803e3d6000fd5b505050506040513d601f19601f82011682018060405250810190610b859190612e27565b905090565b610b92611cd2565b6001600160a01b0316610ba3611369565b6001600160a01b031614610bec576040805162461bcd60e51b8152602060048201819052602482015260008051602061396c833981519152604482015290519081900360640190fd5b600080546040516001600160a01b03909116907f8be0079c531659141344cd1fd0a4f28419497f9722a3daafe3b4186f6b6457e0908390a3600080546001600160a01b0319169055565b60606000610c448484611e04565b6000818152600860209081526040918290208054835181840281018401909452808452939450919290830182828015610c9c57602002820191906000526020600020905b815481526020019060010190808311610c88575b505050505091505092915050565b6002546000906001600160a01b03163314610cd75760405162461bcd60e51b815260040161056d906134cf565b60405163db5e4c7560e01b8152309063db5e4c7590610d009089908990889088906004016137c4565b600060405180830381600087803b158015610d1a57600080fd5b505af1925050508015610d2b575060015b610d3757506000610512565b506001610512565b600087815260046020526040812090610d588888611e04565b82549091508914610d7b5760405162461bcd60e51b815260040161056d906133d2565b600882015460ff16610d9f5760405162461bcd60e51b815260040161056d90613456565b600089815260076020908152604080832084845290915290205460ff1615610dd95760405162461bcd60e51b815260040161056d9061347c565b6001600160a01b038416610dff5760405162461bcd60e51b815260040161056d906133a8565b81600201604051610e10919061315f565b6040518091039020868051906020012014610e3d5760405162461bcd60e51b815260040161056d906132fe565b610e4b338989898988611cd6565b610e675760405162461bcd60e51b815260040161056d9061332b565b60038201546040516370a0823160e01b815281906001600160a01b037f000000000000000000000000000000000000000000000000000000000000000016906370a0823190610eba9030906004016131f8565b60206040518083038186803b158015610ed257600080fd5b505afa158015610ee6573d6000803e3d6000fd5b505050506040513d601f19601f82011682018060405250810190610f0a9190612e27565b1015610f285760405162461bcd60e51b815260040161056d906134a4565b82600401600081548092919060010191905055508083600601600082825401925050819055506040518060a001604052808a8152602001898152602001866001600160a01b0316815260200182815260200142815250600560008c81526020019081526020016000206000876001600160a01b03166001600160a01b03168152602001908152602001600020600082015181600001556020820151816001015560408201518160020160006101000a8154816001600160a01b0302191690836001600160a01b0316021790555060608201518160030155608082015181600401559050506001600760008c8152602001908152602001600020600084815260200190815260200160002060006101000a81548160ff021916908315150217905550600860008381526020019081526020016000208a90806001815401808255809150506001900390600052602060002001600090919091909150556110c185827f00000000000000000000000000000000000000000000000000000000000000006001600160a01b0316611dad9092919063ffffffff16565b846001600160a01b0316336001600160a01b03168b7f5f6d78d5d398fbde6899ed8b8490a27ae6f7910869243d2a50b6d94b71c6ca2b8c8c8c874260405161110d959493929190613736565b60405180910390a450505050505050505050565b600061112b611cd2565b6001600160a01b031661113c611369565b6001600160a01b031614611185576040805162461bcd60e51b8152602060048201819052602482015260008051602061396c833981519152604482015290519081900360640190fd5b60008351116111a65760405162461bcd60e51b815260040161056d90613355565b600082116111c65760405162461bcd60e51b815260040161056d90613381565b600380546001810182556040805161014081019091528181529091602082019088908111156111f157fe5b815260200186600181111561120257fe5b81526020018581526020018481526020016000815260200160008152602001600081526020016000815260200160011515815250600460008381526020019081526020016000206000820151816000015560208201518160010160006101000a81548160ff0219169083600381111561127757fe5b021790555060408201518160010160016101000a81548160ff021916908360018111156112a057fe5b0217905550606082015180516112c0916002840191602090910190612ad1565b506080820151600382015560a0820151600482015560c0820151600582015560e082015160068201556101008201516007820155610120909101516008909101805460ff191691151591909117905560405181907fa359134b476f4b3e621ad56f265a9173e1d6890866fc0250caa7e37f2b55f60c90611347908990899089908990613295565b60405180910390a290505b949350505050565b6002546001600160a01b031681565b6000546001600160a01b031690565b611380612b5d565b60008281526004602090815260409182902082516101408101909352805483526001810154909183019060ff1660038111156113b857fe5b60038111156113c357fe5b81526020016001820160019054906101000a900460ff1660018111156113e557fe5b60018111156113f057fe5b8152600282810180546040805160206001841615610100026000190190931694909404601f8101839004830285018301909152808452938101939083018282801561147c5780601f106114515761010080835404028352916020019161147c565b820191906000526020600020905b81548152906001019060200180831161145f57829003601f168201915b505050918352505060038201546020820152600482015460408201526005820154606082015260068201546080820152600782015460a082015260089091015460ff16151560c09091015290505b919050565b60035481565b6040516382e15e5160e01b815230906382e15e5190611504908990899089908990899033908a90600401613769565b600060405180830381600087803b15801561151e57600080fd5b505af1158015611532573d6000803e3d6000fd5b50505050505050505050565b611546612bb3565b60008381526006602090815260408083206001600160a01b03868116855290835292819020815160e08101835281548152600180830154909516818501526002808301548285015260038301546060830152600483015460ff8116151560808401526101009081900463ffffffff1660a08401526005840180548651988116159092026000190190911691909104601f81018690048602870186019094528386529094919360c0860193908301828280156116425780601f1061161757610100808354040283529160200191611642565b820191906000526020600020905b81548152906001019060200180831161162557829003601f168201915b505050505081525050905092915050565b60035490565b611661611cd2565b6001600160a01b0316611672611369565b6001600160a01b0316146116bb576040805162461bcd60e51b8152602060048201819052602482015260008051602061396c833981519152604482015290519081900360640190fd5b600280546001600160a01b0319166001600160a01b0392909216919091179055565b3330146116fc5760405162461bcd60e51b815260040161056d906133f7565b6000611742600084848080601f0160208091040260200160405190810160405280939291908181526020018383808284376000920191909152509293925050611e379050565b905061175362ffffff198216611e52565b600061176462ffffff198316611f13565b9050600061177762ffffff198316611f4b565b6001600160601b03161161179d5760405162461bcd60e51b815260040161056d90613427565b60006117ae62ffffff198316611f5a565b9050600080828060200190518101906117c79190612e6a565b9150915060006117dc8662ffffff1916611f99565b6000848152600460205260409020805491925090841461180e5760405162461bcd60e51b815260040161056d906133d2565b600881015460ff166118325760405162461bcd60e51b815260040161056d90613456565b600082116118525760405162461bcd60e51b815260040161056d90613381565b806005016000815480929190600101919050555081816007016000828254019250508190555060008a60001c90506040518060e0016040528083600501548152602001826001600160a01b031681526020018481526020014281526020016001151581526020018d63ffffffff1681526020016040518060400160405280600b81526020016a31b937b9b996b1b430b4b760a91b815250815250600660008781526020019081526020016000206000836001600160a01b03166001600160a01b031681526020019081526020016000206000820151816000015560208201518160010160006101000a8154816001600160a01b0302191690836001600160a01b03160217905550604082015181600201556060820151816003015560808201518160040160006101000a81548160ff02191690831515021790555060a08201518160040160016101000a81548163ffffffff021916908363ffffffff16021790555060c08201518160050190805190602001906119d0929190612ad1565b50905050806001600160a01b0316857f743501122ba2cd9590984350a2076553271a243e2b9de8617a802d7c7af7d3018e8642604051611a1293929190613807565b60405180910390a3505050505050505050505050565b7f8db8d84faf8b2365d4ffd175c1a5bf60a3c3bb8fd65fb126c9bbc39786d11da781565b600080611a598484611e04565b6000868152600760209081526040808320938352929052205460ff169150509392505050565b611a87611cd2565b6001600160a01b0316611a98611369565b6001600160a01b031614611ae1576040805162461bcd60e51b8152602060048201819052602482015260008051602061396c833981519152604482015290519081900360640190fd5b6001600160a01b038116611b265760405162461bcd60e51b81526004018080602001828103825260268152602001806138bb6026913960400191505060405180910390fd5b600080546040516001600160a01b03808516939216917f8be0079c531659141344cd1fd0a4f28419497f9722a3daafe3b4186f6b6457e091a3600080546001600160a01b0319166001600160a01b0392909216919091179055565b60066020908152600092835260408084208252918352918190208054600180830154600280850154600386015460048701546005880180548a516101009882161589026000190190911695909504601f81018c90048c0286018c01909a5289855296996001600160a01b03909516989297919660ff82169690910463ffffffff16949193929091830182828015611c595780601f10611c2e57610100808354040283529160200191611c59565b820191906000526020600020905b815481529060010190602001808311611c3c57829003601f168201915b5050505050905087565b6001546001600160a01b031681565b604080516001600160a01b0380861660248301528416604482015260648082018490528251808303909101815260849091019091526020810180516001600160e01b03166323b872dd60e01b179052611ccc908590611faa565b50505050565b3390565b6000807f8db8d84faf8b2365d4ffd175c1a5bf60a3c3bb8fd65fb126c9bbc39786d11da7888888888051906020012088604051602001611d1b96959493929190613264565b60405160208183030381529060405280519060200120905060007f000000000000000000000000000000000000000000000000000000000000000082604051602001611d689291906131cf565b60408051601f19818403018152919052805160209091012090506000611d8e828661205b565b6001546001600160a01b039081169116149a9950505050505050505050565b604080516001600160a01b038416602482015260448082018490528251808303909101815260649091019091526020810180516001600160e01b031663a9059cbb60e01b179052611dff908490611faa565b505050565b60008282604051602001611e199291906131ea565b60405160208183030381529060405280519060200120905092915050565b81516000906020840161051264ffffffffff851682846120db565b611e6162ffffff198216612115565b611ea6576040805162461bcd60e51b81526020600482015260116024820152704d616c666f726d6564206d65737361676560781b604482015290519081900360640190fd5b60e4611eb762ffffff198316611f4b565b6001600160601b03161015610a8c576040805162461bcd60e51b815260206004820152601f60248201527f496e76616c6964206275726e206d6573736167653a20746f6f2073686f727400604482015290519081900360640190fd5b6000611f4560e480611f2a62ffffff198616611f4b565b62ffffff19861692916001600160601b039103166000612152565b92915050565b60181c6001600160601b031690565b6060600080611f6884611f4b565b6001600160601b031690506040519150819250611f8884836020016121b7565b508181016020016040529052919050565b6000611f4562ffffff1983166122e8565b6000611fff826040518060400160405280602081526020017f5361666545524332303a206c6f772d6c6576656c2063616c6c206661696c6564815250856001600160a01b03166122fd9092919063ffffffff16565b805190915015611dff5780806020019051602081101561201e57600080fd5b5051611dff5760405162461bcd60e51b815260040180806020018281038252602a8152602001806139c6602a913960400191505060405180910390fd5b600081516041146120b3576040805162461bcd60e51b815260206004820152601f60248201527f45434453413a20696e76616c6964207369676e6174757265206c656e67746800604482015290519081900360640190fd5b60208201516040830151606084015160001a6120d18682858561230c565b9695505050505050565b6000806120e88484612481565b90506040518111156120f8575060005b8061210a5762ffffff19915050610a9b565b6105128585856124db565b6000612120826124ee565b64ffffffffff1664ffffffffff141561213b575060006114ca565b6000612146836124f4565b60405110159392505050565b60008061215e86612519565b6001600160601b03169050612172866124f4565b612186856121808489612481565b90612481565b11156121995762ffffff19915050611352565b6121a38186612481565b90506120d18364ffffffffff1682866120db565b60006121c283612528565b6121fd5760405162461bcd60e51b81526004018080602001828103825260288152602001806139f06028913960400191505060405180910390fd5b61220683612115565b6122415760405162461bcd60e51b815260040180806020018281038252602b815260200180613a18602b913960400191505060405180910390fd5b600061224c84611f4b565b6001600160601b03169050600061226285612519565b6001600160601b031690506000806040519150858211156122835760206060fd5b8386858560045afa9050806122ce576040805162461bcd60e51b815260206004820152600c60248201526b6964656e74697479204f4f4760a01b604482015290519081900360640190fd5b6109706122da886124ee565b64ffffffffff1687866124db565b6000611f4562ffffff1983166044602061253a565b6060611352848460008561255b565b60007f7fffffffffffffffffffffffffffffff5d576e7357a4501ddfe92f46681b20a082111561236d5760405162461bcd60e51b81526004018080602001828103825260228152602001806138e16022913960400191505060405180910390fd5b8360ff16601b148061238257508360ff16601c145b6123bd5760405162461bcd60e51b815260040180806020018281038252602281526020018061394a6022913960400191505060405180910390fd5b600060018686868660405160008152602001604052604051808581526020018460ff1681526020018381526020018281526020019450505050506020604051602081039080840390855afa158015612419573d6000803e3d6000fd5b5050604051601f1901519150506001600160a01b038116610512576040805162461bcd60e51b815260206004820152601860248201527f45434453413a20696e76616c6964207369676e61747572650000000000000000604482015290519081900360640190fd5b600082820183811015610a9b576040805162461bcd60e51b815260206004820152601b60248201527f536166654d6174683a206164646974696f6e206f766572666c6f770000000000604482015290519081900360640190fd5b606092831b9190911790911b1760181b90565b60d81c90565b60006124ff82611f4b565b61250883612519565b016001600160601b03169050919050565b60781c6001600160601b031690565b6000612533826126ab565b1592915050565b60008160200360080260ff166125518585856126b7565b901c949350505050565b60608247101561259c5760405162461bcd60e51b81526004018080602001828103825260268152602001806139036026913960400191505060405180910390fd5b6125a58561281a565b6125f6576040805162461bcd60e51b815260206004820152601d60248201527f416464726573733a2063616c6c20746f206e6f6e2d636f6e7472616374000000604482015290519081900360640190fd5b600080866001600160a01b031685876040518082805190602001908083835b602083106126345780518252601f199092019160209182019101612615565b6001836020036101000a03801982511681845116808217855250505050505090500191505060006040518083038185875af1925050503d8060008114612696576040519150601f19603f3d011682016040523d82523d6000602084013e61269b565b606091505b5091509150610970828286612820565b62ffffff199081161490565b600060ff82166126c957506000610a9b565b6126d284611f4b565b6001600160601b03166126e88460ff8516612481565b11156127a35761271f6126fa85612519565b6001600160601b031661270c86611f4b565b6001600160601b0316858560ff16612886565b60405162461bcd60e51b81526004018080602001828103825283818151815260200191508051906020019080838360005b83811015612768578181015183820152602001612750565b50505050905090810190601f1680156127955780820380516001836020036101000a031916815260200191505b509250505060405180910390fd5b60208260ff1611156127e65760405162461bcd60e51b815260040180806020018281038252603a81526020018061398c603a913960400191505060405180910390fd5b6008820260006127f586612519565b6001600160601b03169050600061280b83612979565b91909501511695945050505050565b3b151590565b6060831561282f575081610a9b565b82511561283f5782518084602001fd5b60405162461bcd60e51b8152602060048201818152845160248401528451859391928392604401919085019080838360008315612768578181015183820152602001612750565b6060600061289386612988565b91505060006128a186612988565b91505060006128af86612988565b91505060006128bd86612988565b915050838383836040516020018080613a43603591396001600160d01b031960d087811b821660358401526e040eed2e8d040d8cadccee8d04060f608b1b603b84015286901b16604a820152605001602161392982396001600160d01b031960d094851b811660218301526e040eed2e8d040d8cadccee8d04060f608b1b60278301529290931b909116603683015250601760f91b603c82015260408051601d818403018152603d90920190529b9a5050505050505050505050565b600160ff1b6000199091011d90565b600080601f5b600f8160ff1611156129d25760ff600882021684901c6129ad81612a20565b61ffff16841793508160ff166010146129c857601084901b93505b506000190161298e565b50600f5b60ff8160ff161015612a1a5760ff600882021684901c6129f581612a20565b61ffff16831792508160ff16600014612a1057601083901b92505b50600019016129d6565b50915091565b6000612a3260048360ff16901c612a50565b60ff161760081b62ffff0016612a4782612a50565b60ff1617919050565b6040805180820190915260108082526f181899199a1a9b1b9c1cb0b131b232b360811b6020830152600091600f84169182908110612a8a57fe5b016020015160f81c9392505050565b6040518060a00160405280600081526020016000815260200160006001600160a01b0316815260200160008152602001600081525090565b828054600181600116156101000203166002900490600052602060002090601f016020900481019282612b075760008555612b4d565b82601f10612b2057805160ff1916838001178555612b4d565b82800160010185558215612b4d579182015b82811115612b4d578251825591602001919060010190612b32565b50612b59929150612c01565b5090565b604080516101408101909152600080825260208201908152602001600081526020016060815260200160008152602001600081526020016000815260200160008152602001600081526020016000151581525090565b6040518060e001604052806000815260200160006001600160a01b031681526020016000815260200160008152602001600015158152602001600063ffffffff168152602001606081525090565b5b80821115612b595760008155600101612c02565b80356001600160a01b03811681146114ca57600080fd5b60008083601f840112612c3e578182fd5b50813567ffffffffffffffff811115612c55578182fd5b602083019150836020828501011115612c6d57600080fd5b9250929050565b600082601f830112612c84578081fd5b8135612c97612c928261386c565b613848565b818152846020838601011115612cab578283fd5b816020850160208301379081016020019190915292915050565b803563ffffffff811681146114ca57600080fd5b600060208284031215612cea578081fd5b610a9b82612c16565b60008060008060008060c08789031215612d0b578182fd5b612d1487612c16565b95506020870135945060408701359350606087013567ffffffffffffffff80821115612d3e578384fd5b612d4a8a838b01612c74565b94506080890135935060a0890135915080821115612d66578283fd5b50612d7389828a01612c74565b9150509295509295509295565b60008060408385031215612d92578182fd5b50508035926020909101359150565b60008060008060808587031215612db6578384fd5b843560048110612dc4578485fd5b9350602085013560028110612dd7578384fd5b9250604085013567ffffffffffffffff811115612df2578283fd5b612dfe87828801612c74565b949793965093946060013593505050565b600060208284031215612e20578081fd5b5035919050565b600060208284031215612e38578081fd5b5051919050565b60008060408385031215612e51578182fd5b82359150612e6160208401612c16565b90509250929050565b60008060408385031215612e7c578182fd5b82519150602083015167ffffffffffffffff811115612e99578182fd5b8301601f81018513612ea9578182fd5b8051612eb7612c928261386c565b818152866020838501011115612ecb578384fd5b612edc82602083016020860161388e565b8093505050509250929050565b60008060408385031215612d92578081fd5b600080600060608486031215612f0f578081fd5b8335925060208401359150604084013567ffffffffffffffff811115612f33578182fd5b612f3f86828701612c74565b9150509250925092565b600080600060608486031215612f5d578081fd5b505081359360208301359350604090920135919050565b600080600080600080600060e0888a031215612f8e578485fd5b873596506020880135955060408801359450606088013567ffffffffffffffff80821115612fba578283fd5b612fc68b838c01612c74565b955060808a01359450612fdb60a08b01612c16565b935060c08a0135915080821115612ff0578283fd5b50612ffd8a828b01612c74565b91505092959891949750929550565b60008060008060008060c08789031215613024578384fd5b863595506020870135945060408701359350606087013567ffffffffffffffff80821115612d3e578384fd5b60008060008060608587031215613065578182fd5b61306e85612cc5565b935060208501359250604085013567ffffffffffffffff811115613090578283fd5b61309c87828801612c2d565b95989497509550505050565b6000806000806000608086880312156130bf578283fd5b6130c886612cc5565b9450602086013593506130dd60408701612cc5565b9250606086013567ffffffffffffffff8111156130f8578182fd5b61310488828901612c2d565b969995985093965092949392505050565b15159052565b6000815180845261313381602086016020860161388e565b601f01601f19169290920160200192915050565b6002811061315157fe5b9052565b6004811061315157fe5b600080835460018082166000811461317e5760018114613195576131c4565b60ff198316865260028304607f16860193506131c4565b600283048786526020808720875b838110156131bc5781548a8201529085019082016131a3565b505050860193505b509195945050505050565b61190160f01b81526002810192909252602282015260420190565b918252602082015260400190565b6001600160a01b0391909116815260200190565b6020808252825182820181905260009190848201906040850190845b8181101561324457835183529284019291840191600101613228565b50909695505050505050565b901515815260200190565b90815260200190565b9586526001600160a01b0394909416602086015260408501929092526060840152608083015260a082015260c00190565b60006132a18287613155565b6132ae6020830186613147565b608060408301526132c2608083018561311b565b905082606083015295945050505050565b600063ffffffff86168252846020830152836040830152608060608301526120d1608083018461311b565b60208082526013908201527209cc2e8d2dedcc2d8d2e8f29ad2e6dac2e8c6d606b1b604082015260600190565b60208082526010908201526f496e76616c69645369676e617475726560801b604082015260600190565b602080825260129082015271496e76616c69644e6174696f6e616c69747960701b604082015260600190565b6020808252600d908201526c125b9d985b1a59105b5bdd5b9d609a1b604082015260600190565b60208082526010908201526f125b9d985b1a59149958da5c1a595b9d60821b604082015260600190565b6020808252600b908201526a125b9d985b1a59141bdbdb60aa1b604082015260600190565b602080825260169082015275496e7465726e616c2066756e6374696f6e206f6e6c7960501b604082015260600190565b602080825260159082015274139bc81a1bdbdac819185d18481c1c9bdd9a591959605a1b604082015260600190565b6020808252600c908201526b506f6f6c496e61637469766560a01b604082015260600190565b6020808252600e908201526d105b1c9958591e50db185a5b595960921b604082015260600190565b602080825260119082015270496e73756666696369656e7446756e647360781b604082015260600190565b6020808252601290820152712ab730baba3437b934bd32b221b0b63632b960711b604082015260600190565b81518152602080830151908201526040808301516001600160a01b031690820152606080830151908201526080918201519181019190915260a00190565b6000602082528251602083015260018060a01b03602084015116604083015260408301516060830152606083015160808301526080830151151560a083015263ffffffff60a08401511660c083015260c083015160e08084015261135261010084018261311b565b6000602082528251602083015260208301516135c06040840182613155565b5060408301516135d36060840182613147565b5060608301516101408060808501526135f061016085018361311b565b9150608085015160a085015260a085015160c085015260c085015160e085015260e085015161010081818701528087015191505061012081818701528087015191505061363f82860182613115565b5090949350505050565b600088825260018060a01b0388166020830152866040830152856060830152841515608083015263ffffffff841660a083015260e060c083015261369060e083018461311b565b9998505050505050505050565b60006101408c83526136b2602084018d613155565b6136bf604084018c613147565b8060608401526136d18184018b61311b565b6080840199909952505060a081019590955260c085019390935260e0840191909152610100830152151561012090910152949350505050565b94855260208501939093526001600160a01b039190911660408401526060830152608082015260a00190565b600086825285602083015260a0604083015261375560a083018661311b565b606083019490945250608001529392505050565b600088825287602083015286604083015260e0606083015261378e60e083018761311b565b608083018690526001600160a01b03851660a084015282810360c08401526137b6818561311b565b9a9950505050505050505050565b600063ffffffff861682528460208301526060604083015282606083015282846080840137818301608090810191909152601f909201601f191601019392505050565b63ffffffff93909316835260208301919091526040820152608060608201819052600b908201526a31b937b9b996b1b430b4b760a91b60a082015260c00190565b60405181810167ffffffffffffffff8111828210171561386457fe5b604052919050565b600067ffffffffffffffff82111561388057fe5b50601f01601f191660200190565b60005b838110156138a9578181015183820152602001613891565b83811115611ccc575050600091015256fe4f776e61626c653a206e6577206f776e657220697320746865207a65726f206164647265737345434453413a20696e76616c6964207369676e6174757265202773272076616c7565416464726573733a20696e73756666696369656e742062616c616e636520666f722063616c6c2e20417474656d7074656420746f20696e646578206174206f666673657420307845434453413a20696e76616c6964207369676e6174757265202776272076616c75654f776e61626c653a2063616c6c6572206973206e6f7420746865206f776e657254797065644d656d566965772f696e646578202d20417474656d7074656420746f20696e646578206d6f7265207468616e2033322062797465735361666545524332303a204552433230206f7065726174696f6e20646964206e6f74207375636365656454797065644d656d566965772f636f7079546f202d204e756c6c20706f696e74657220646572656654797065644d656d566965772f636f7079546f202d20496e76616c696420706f696e74657220646572656654797065644d656d566965772f696e646578202d204f76657272616e2074686520766965772e20536c696365206973206174203078a2646970667358221220bdb17b1a93e45b0aa2b90eb8f626581660c6c1336591df394244a3c0f3cc1d8564736f6c634300070600334f776e61626c653a206e6577206f776e657220697320746865207a65726f20616464726573738be0079c531659141344cd1fd0a4f28419497f9722a3daafe3b4186f6b6457e0",
  "linkReferences": {},
  "deployedLinkReferences": {}
}