{
  "_format": "hh-sol-artifact-1",
  "contractName": "IdentityVerifier",
  "sourceName": "contracts/IdentityVerifier.sol",
  "abi": [
    {
      "inputs": [
        {
          "internalType": "address",
          "name": "_adminAddress",
          "type": "address"
        },
        {
          "internalType": "address",
          "name": "_identityVerificationHubV2",
          "type": "address"
        },
        {
          "internalType": "uint256",
          "name": "_scope",
          "type": "uint256"
        },
        {
          "internalType": "bytes32",
          "name": "_configId",
          "type": "bytes32"
        }
      ],
      "stateMutability": "nonpayable",
      "type": "constructor"
    },
    {
      "inputs": [],
      "name": "ECDSAInvalidSignature",
      "type": "error"
    },
    {
      "inputs": [
        {
          "internalType": "uint256",
          "name": "length",
          "type": "uint256"
        }
      ],
      "name": "ECDSAInvalidSignatureLength",
      "type": "error"
    },
    {
      "inputs": [
        {
          "internalType": "bytes32",
          "name": "s",
          "type": "bytes32"
        }
      ],
      "name": "ECDSAInvalidSignatureS",
      "type": "error"
    },
    {
      "inputs": [],
      "name": "InvalidDataFormat",
      "type": "error"
    },
    {
      "inputs": [],
      "name": "InvalidNationality",
      "type": "error"
    },
    {
      "inputs": [],
      "name": "InvalidSignature",
      "type": "error"
    },
    {
      "inputs": [],
      "name": "InvalidUserIdentifier",
      "type": "error"
    },
    {
      "inputs": [
        {
          "internalType": "address",
          "name": "owner",
          "type": "address"
        }
      ],
      "name": "OwnableInvalidOwner",
      "type": "error"
    },
    {
      "inputs": [
        {
          "internalType": "address",
          "name": "account",
          "type": "address"
        }
      ],
      "name": "OwnableUnauthorizedAccount",
      "type": "error"
    },
    {
      "inputs": [],
      "name": "RegisteredNullifier",
      "type": "error"
    },
    {
      "inputs": [],
      "name": "UnauthorizedCaller",
      "type": "error"
    },
    {
      "inputs": [],
      "name": "UserIdentifierAlreadyVerified",
      "type": "error"
    },
    {
      "inputs": [],
      "name": "UserNotVerified",
      "type": "error"
    },
    {
      "anonymous": false,
      "inputs": [
        {
          "indexed": true,
          "internalType": "address",
          "name": "userAddress",
          "type": "address"
        },
        {
          "indexed": false,
          "internalType": "bytes",
          "name": "signature",
          "type": "bytes"
        },
        {
          "indexed": false,
          "internalType": "uint256",
          "name": "timestamp",
          "type": "uint256"
        }
      ],
      "name": "AdminSignatureGenerated",
      "type": "event"
    },
    {
      "anonymous": false,
      "inputs": [
        {
          "indexed": true,
          "internalType": "address",
          "name": "previousOwner",
          "type": "address"
        },
        {
          "indexed": true,
          "internalType": "address",
          "name": "newOwner",
          "type": "address"
        }
      ],
      "name": "OwnershipTransferred",
      "type": "event"
    },
    {
      "anonymous": false,
      "inputs": [
        {
          "indexed": true,
          "internalType": "uint256",
          "name": "newScope",
          "type": "uint256"
        }
      ],
      "name": "ScopeUpdated",
      "type": "event"
    },
    {
      "anonymous": false,
      "inputs": [
        {
          "indexed": true,
          "internalType": "address",
          "name": "userAddress",
          "type": "address"
        },
        {
          "indexed": true,
          "internalType": "uint256",
          "name": "nullifier",
          "type": "uint256"
        },
        {
          "indexed": true,
          "internalType": "uint256",
          "name": "userIdentifier",
          "type": "uint256"
        },
        {
          "indexed": false,
          "internalType": "string",
          "name": "nationality",
          "type": "string"
        },
        {
          "indexed": false,
          "internalType": "uint256",
          "name": "timestamp",
          "type": "uint256"
        }
      ],
      "name": "UserVerified",
      "type": "event"
    },
    {
      "inputs": [],
      "name": "DOMAIN_SEPARATOR",
      "outputs": [
        {
          "internalType": "bytes32",
          "name": "",
          "type": "bytes32"
        }
      ],
      "stateMutability": "view",
      "type": "function"
    },
    {
      "inputs": [],
      "name": "VERIFICATION_MESSAGE_TYPEHASH",
      "outputs": [
        {
          "internalType": "bytes32",
          "name": "",
          "type": "bytes32"
        }
      ],
      "stateMutability": "view",
      "type": "function"
    },
    {
      "inputs": [],
      "name": "adminAddress",
      "outputs": [
        {
          "internalType": "address",
          "name": "",
          "type": "address"
        }
      ],
      "stateMutability": "view",
      "type": "function"
    },
    {
      "inputs": [
        {
          "internalType": "address",
          "name": "",
          "type": "address"
        }
      ],
      "name": "adminSignatures",
      "outputs": [
        {
          "internalType": "bytes",
          "name": "",
          "type": "bytes"
        }
      ],
      "stateMutability": "view",
      "type": "function"
    },
    {
      "inputs": [],
      "name": "configId",
      "outputs": [
        {
          "internalType": "bytes32",
          "name": "",
          "type": "bytes32"
        }
      ],
      "stateMutability": "view",
      "type": "function"
    },
    {
      "inputs": [
        {
          "internalType": "address",
          "name": "userAddress",
          "type": "address"
        }
      ],
      "name": "getAdminSignature",
      "outputs": [
        {
          "internalType": "bytes",
          "name": "",
          "type": "bytes"
        }
      ],
      "stateMutability": "view",
      "type": "function"
    },
    {
      "inputs": [],
      "name": "getConfigId",
      "outputs": [
        {
          "internalType": "bytes32",
          "name": "",
          "type": "bytes32"
        }
      ],
      "stateMutability": "view",
      "type": "function"
    },
    {
      "inputs": [
        {
          "internalType": "bytes32",
          "name": "",
          "type": "bytes32"
        },
        {
          "internalType": "bytes32",
          "name": "",
          "type": "bytes32"
        },
        {
          "internalType": "bytes",
          "name": "",
          "type": "bytes"
        }
      ],
      "name": "getConfigId",
      "outputs": [
        {
          "internalType": "bytes32",
          "name": "",
          "type": "bytes32"
        }
      ],
      "stateMutability": "view",
      "type": "function"
    },
    {
      "inputs": [
        {
          "internalType": "address",
          "name": "userAddress",
          "type": "address"
        },
        {
          "internalType": "uint256",
          "name": "nullifier",
          "type": "uint256"
        },
        {
          "internalType": "uint256",
          "name": "userIdentifier",
          "type": "uint256"
        },
        {
          "internalType": "string",
          "name": "nationality",
          "type": "string"
        },
        {
          "internalType": "uint256",
          "name": "timestamp",
          "type": "uint256"
        }
      ],
      "name": "getMessageHash",
      "outputs": [
        {
          "internalType": "bytes32",
          "name": "",
          "type": "bytes32"
        }
      ],
      "stateMutability": "view",
      "type": "function"
    },
    {
      "inputs": [],
      "name": "getScope",
      "outputs": [
        {
          "internalType": "uint256",
          "name": "",
          "type": "uint256"
        }
      ],
      "stateMutability": "view",
      "type": "function"
    },
    {
      "inputs": [
        {
          "internalType": "address",
          "name": "userAddress",
          "type": "address"
        }
      ],
      "name": "getVerificationData",
      "outputs": [
        {
          "components": [
            {
              "internalType": "uint256",
              "name": "nullifier",
              "type": "uint256"
            },
            {
              "internalType": "uint256",
              "name": "userIdentifier",
              "type": "uint256"
            },
            {
              "internalType": "string",
              "name": "nationality",
              "type": "string"
            },
            {
              "internalType": "uint256",
              "name": "timestamp",
              "type": "uint256"
            },
            {
              "internalType": "bool",
              "name": "isVerified",
              "type": "bool"
            }
          ],
          "internalType": "struct IdentityVerifier.VerificationData",
          "name": "",
          "type": "tuple"
        }
      ],
      "stateMutability": "view",
      "type": "function"
    },
    {
      "inputs": [
        {
          "internalType": "address",
          "name": "userAddress",
          "type": "address"
        }
      ],
      "name": "isUserVerified",
      "outputs": [
        {
          "internalType": "bool",
          "name": "",
          "type": "bool"
        }
      ],
      "stateMutability": "view",
      "type": "function"
    },
    {
      "inputs": [
        {
          "internalType": "bytes",
          "name": "output",
          "type": "bytes"
        },
        {
          "internalType": "bytes",
          "name": "userData",
          "type": "bytes"
        }
      ],
      "name": "onVerificationSuccess",
      "outputs": [],
      "stateMutability": "nonpayable",
      "type": "function"
    },
    {
      "inputs": [],
      "name": "owner",
      "outputs": [
        {
          "internalType": "address",
          "name": "",
          "type": "address"
        }
      ],
      "stateMutability": "view",
      "type": "function"
    },
    {
      "inputs": [],
      "name": "renounceOwnership",
      "outputs": [],
      "stateMutability": "nonpayable",
      "type": "function"
    },
    {
      "inputs": [],
      "name": "scope",
      "outputs": [
        {
          "internalType": "uint256",
          "name": "",
          "type": "uint256"
        }
      ],
      "stateMutability": "view",
      "type": "function"
    },
    {
      "inputs": [
        {
          "internalType": "uint256",
          "name": "_scope",
          "type": "uint256"
        }
      ],
      "name": "setScope",
      "outputs": [],
      "stateMutability": "nonpayable",
      "type": "function"
    },
    {
      "inputs": [
        {
          "internalType": "address",
          "name": "newOwner",
          "type": "address"
        }
      ],
      "name": "transferOwnership",
      "outputs": [],
      "stateMutability": "nonpayable",
      "type": "function"
    },
    {
      "inputs": [
        {
          "internalType": "address",
          "name": "",
          "type": "address"
        }
      ],
      "name": "verifiedUsers",
      "outputs": [
        {
          "internalType": "uint256",
          "name": "nullifier",
          "type": "uint256"
        },
        {
          "internalType": "uint256",
          "name": "userIdentifier",
          "type": "uint256"
        },
        {
          "internalType": "string",
          "name": "nationality",
          "type": "string"
        },
        {
          "internalType": "uint256",
          "name": "timestamp",
          "type": "uint256"
        },
        {
          "internalType": "bool",
          "name": "isVerified",
          "type": "bool"
        }
      ],
      "stateMutability": "view",
      "type": "function"
    },
    {
      "inputs": [
        {
          "internalType": "address",
          "name": "userAddress",
          "type": "address"
        },
        {
          "internalType": "uint256",
          "name": "nullifier",
          "type": "uint256"
        },
        {
          "internalType": "uint256",
          "name": "userIdentifier",
          "type": "uint256"
        },
        {
          "internalType": "string",
          "name": "nationality",
          "type": "string"
        },
        {
          "internalType": "uint256",
          "name": "timestamp",
          "type": "uint256"
        },
        {
          "internalType": "bytes",
          "name": "signature",
          "type": "bytes"
        }
      ],
      "name": "verifyAdminSignature",
      "outputs": [
        {
          "internalType": "bool",
          "name": "",
          "type": "bool"
        }
      ],
      "stateMutability": "view",
      "type": "function"
    },
    {
      "inputs": [
        {
          "internalType": "bytes",
          "name": "proofPayload",
          "type": "bytes"
        },
        {
          "internalType": "bytes",
          "name": "userContextData",
          "type": "bytes"
        }
      ],
      "name": "verifySelfProof",
      "outputs": [],
      "stateMutability": "nonpayable",
      "type": "function"
    }
  ],
  "bytecode": "0x60e060405234801561001057600080fd5b50604051611e0a380380611e0a83398101604081905261002f916101e8565b6001600160a01b0380841660805260008390558490811661006a57604051631e4fbdf760e01b81526000600482015260240160405180910390fd5b6100738161017a565b50600280546001600160a01b0319166001600160a01b03959095169490941790935560a092835260035550604080518082018252601081526f24b232b73a34ba3cab32b934b334b2b960811b6020918201528151808301835260018152603160f81b9082015281517f8b73c3c69bb8fe3d512ecc4cf759cc79239f7b179b0ffacaa9a75d522b39400f818301527f433800fed47aa798145e03f4cb479559d05f87d4328f79a7f8ca22d60688100a818401527fc89efdaa54c0f20c7adf612882df0950f5a951637e0307cdcb4c672f298b8bc6606082015262014a34608082015230818501528251808203909401845260c09081019092528251920191909120905261022b565b600180546001600160a01b038381166001600160a01b0319831681179093556040519116919082907f8be0079c531659141344cd1fd0a4f28419497f9722a3daafe3b4186f6b6457e090600090a35050565b80516001600160a01b03811681146101e357600080fd5b919050565b600080600080608085870312156101fe57600080fd5b610207856101cc565b9350610215602086016101cc565b6040860151606090960151949790965092505050565b60805160a05160c051611b7f61028b60003960008181610169015281816103d70152818161049a0152610f5c0152600081816101ae015281816102a3015281816102e1015261085e01526000818161050c01526108d10152611b7f6000f3fe608060405234801561001057600080fd5b50600436106101375760003560e01c80639948251b116100b8578063d161802b1161007c578063d161802b14610303578063d952c30314610316578063e1a788eb14610329578063e35fe3661461033e578063f2fde38b14610362578063fc6f94681461037557600080fd5b80639948251b14610244578063ace417e014610264578063ada1b31914610293578063b4ba6ff9146102c9578063b564eb27146102dc57600080fd5b8063715018a6116100ff578063715018a6146101da5780638d2d8d6a146101e45780638da5cb5b146101f757806395183eb71461021c578063951cfa471461023c57600080fd5b806329d9b7201461013c5780633644e51514610164578063597c5b4c14610199578063634daa11146101ac5780636e62d0a8146101d2575b600080fd5b61014f61014a36600461119e565b610388565b60405190151581526020015b60405180910390f35b61018b7f000000000000000000000000000000000000000000000000000000000000000081565b60405190815260200161015b565b61018b6101a7366004611231565b61044d565b7f000000000000000000000000000000000000000000000000000000000000000061018b565b60005461018b565b6101e26104ed565b005b6101e26101f2366004611299565b610501565b6001546001600160a01b03165b6040516001600160a01b03909116815260200161015b565b61022f61022a366004611300565b610571565b60405161015b9190611372565b61018b61069b565b610257610252366004611300565b6106ab565b60405161015b91906113c4565b61014f610272366004611300565b6001600160a01b031660009081526006602052604090206004015460ff1690565b61018b6102a13660046113d7565b7f00000000000000000000000000000000000000000000000000000000000000009392505050565b6101e26102d7366004611426565b610792565b61018b7f000000000000000000000000000000000000000000000000000000000000000081565b6101e2610311366004611487565b61079f565b610257610324366004611300565b61097e565b61018b600080516020611b2a83398151915281565b61035161034c366004611300565b610a18565b60405161015b9594939291906114f6565b6101e2610370366004611300565b610ad3565b600254610204906001600160a01b031681565b600080600080516020611b2a8339815191528888888880519060200120886040516020016103bb9695949392919061152e565b60405160208183030381529060405280519060200120905060007f00000000000000000000000000000000000000000000000000000000000000008260405160200161040892919061155f565b60408051601f1981840301815291905280516020909101209050600061042e8286610b16565b6002546001600160a01b039081169116149a9950505050505050505050565b600080600080516020611b2a8339815191528787878780519060200120876040516020016104809695949392919061152e565b6040516020818303038152906040528051906020012090507f0000000000000000000000000000000000000000000000000000000000000000816040516020016104cb92919061155f565b6040516020818303038152906040528051906020012091505095945050505050565b6104f5610b42565b6104ff6000610b6f565b565b336001600160a01b037f0000000000000000000000000000000000000000000000000000000000000000161461054a57604051635c427cd960e01b815260040160405180910390fd5b6000828060200190518101906105609190611714565b905061056c8183610bc1565b505050565b6105a56040518060a00160405280600081526020016000815260200160608152602001600081526020016000151581525090565b60066000836001600160a01b03166001600160a01b031681526020019081526020016000206040518060a001604052908160008201548152602001600182015481526020016002820180546105f9906118df565b80601f0160208091040260200160405190810160405280929190818152602001828054610625906118df565b80156106725780601f1061064757610100808354040283529160200191610672565b820191906000526020600020905b81548152906001019060200180831161065557829003601f168201915b50505091835250506003820154602082015260049091015460ff16151560409091015292915050565b60006106a660035490565b905090565b6001600160a01b03811660009081526006602052604090206004015460609060ff166106ea57604051637d93d32b60e01b815260040160405180910390fd5b6001600160a01b0382166000908152600760205260409020805461070d906118df565b80601f0160208091040260200160405190810160405280929190818152602001828054610739906118df565b80156107865780601f1061075b57610100808354040283529160200191610786565b820191906000526020600020905b81548152906001019060200180831161076957829003601f168201915b50505050509050919050565b61079a610b42565b600355565b60208310156107c15760405163a512e2ff60e01b815260040160405180910390fd5b60408110156107e35760405163a512e2ff60e01b815260040160405180910390fd5b833560006107f46020828587611919565b6107fd91611943565b9050600061080f604060208688611919565b61081891611943565b905060006108298560408189611919565b8080601f01602080910402602001604051908101604052809392919081815260200183838082843760009201829052509394507f00000000000000000000000000000000000000000000000000000000000000009250610887915050565b905060006002600060081b600054888d8d60209080926108a993929190611919565b6040516020016108be96959493929190611961565b60405160208183030381529060405290507f00000000000000000000000000000000000000000000000000000000000000006001600160a01b031663f7e83aee82848b8b6040516020016109149392919061199d565b6040516020818303038152906040526040518363ffffffff1660e01b81526004016109409291906119b7565b600060405180830381600087803b15801561095a57600080fd5b505af115801561096e573d6000803e3d6000fd5b5050505050505050505050505050565b60076020526000908152604090208054610997906118df565b80601f01602080910402602001604051908101604052809291908181526020018280546109c3906118df565b8015610a105780601f106109e557610100808354040283529160200191610a10565b820191906000526020600020905b8154815290600101906020018083116109f357829003601f168201915b505050505081565b60066020526000908152604090208054600182015460028301805492939192610a40906118df565b80601f0160208091040260200160405190810160405280929190818152602001828054610a6c906118df565b8015610ab95780601f10610a8e57610100808354040283529160200191610ab9565b820191906000526020600020905b815481529060010190602001808311610a9c57829003601f168201915b50505050600383015460049093015491929160ff16905085565b610adb610b42565b6001600160a01b038116610b0a57604051631e4fbdf760e01b8152600060048201526024015b60405180910390fd5b610b1381610b6f565b50565b600080600080610b268686610e02565b925092509250610b368282610e4f565b50909150505b92915050565b6001546001600160a01b031633146104ff5760405163118cdaa760e01b8152336004820152602401610b01565b600180546001600160a01b038381166001600160a01b0319831681179093556040519116919082907f8be0079c531659141344cd1fd0a4f28419497f9722a3daafe3b4186f6b6457e090600090a35050565b8160200151600003610be65760405163f0c426db60e01b815260040160405180910390fd5b60408083015160009081526004602052205415610c1657604051631165e35160e11b815260040160405180910390fd5b60208083015160009081526005909152604090205460ff1615610c4c5760405163cab65ccd60e01b815260040160405180910390fd5b8160e0015151600003610c7257604051631d89d0ab60e11b815260040160405180910390fd5b6020808301805160408086018051600090815260048652828120939093558351835260058552818320805460ff19166001908117909155825160a08101845291518252935181860190815260e0880151828401908152426060840152608083018690523380865260069097529290932081518155925193830193909355516002820190610cff9082611a33565b50606082015160038201556080909101516004909101805460ff19169115159190911790556040830151602084015160e0850151600092610d4292859242610f0c565b6001600160a01b0383166000908152600760205260409020909150610d678282611a33565b5083602001518460400151836001600160a01b03167f1cb4cb11e427b149571bdd797a651e51618ab02dca30b7753b0732255761f4028760e0015142604051610db1929190611af1565b60405180910390a4816001600160a01b03167f012f548f41d1d41001e5063672f002d6555e4ff68a593d055bdf31cec3fbbb6c8242604051610df4929190611af1565b60405180910390a250505050565b60008060008351604103610e3c5760208401516040850151606086015160001a610e2e88828585610fc4565b955095509550505050610e48565b50508151600091506002905b9250925092565b6000826003811115610e6357610e63611b13565b03610e6c575050565b6001826003811115610e8057610e80611b13565b03610e9e5760405163f645eedf60e01b815260040160405180910390fd5b6002826003811115610eb257610eb2611b13565b03610ed35760405163fce698f760e01b815260048101829052602401610b01565b6003826003811115610ee757610ee7611b13565b03610f08576040516335e2f38360e21b815260048101829052602401610b01565b5050565b60606000600080516020611b2a833981519152878787878051906020012087604051602001610f409695949392919061152e565b60405160208183030381529060405280519060200120905060007f000000000000000000000000000000000000000000000000000000000000000082604051602001610f8d92919061155f565b60408051808303601f1901815282825280516020918201208184015281518084039091018152918101905298975050505050505050565b600080807f7fffffffffffffffffffffffffffffff5d576e7357a4501ddfe92f46681b20a0841115610fff5750600091506003905082611089565b604080516000808252602082018084528a905260ff891692820192909252606081018790526080810186905260019060a0016020604051602081039080840390855afa158015611053573d6000803e3d6000fd5b5050604051601f1901519150506001600160a01b03811661107f57506000925060019150829050611089565b9250600091508190505b9450945094915050565b80356001600160a01b03811681146110aa57600080fd5b919050565b634e487b7160e01b600052604160045260246000fd5b6040516101a081016001600160401b03811182821017156110e8576110e86110af565b60405290565b604051601f8201601f191681016001600160401b0381118282101715611116576111166110af565b604052919050565b60006001600160401b03821115611137576111376110af565b50601f01601f191660200190565b600082601f83011261115657600080fd5b813560208301600061116f61116a8461111e565b6110ee565b905082815285838301111561118357600080fd5b82826020830137600092810160200192909252509392505050565b60008060008060008060c087890312156111b757600080fd5b6111c087611093565b9550602087013594506040870135935060608701356001600160401b038111156111e957600080fd5b6111f589828a01611145565b9350506080870135915060a08701356001600160401b0381111561121857600080fd5b61122489828a01611145565b9150509295509295509295565b600080600080600060a0868803121561124957600080fd5b61125286611093565b9450602086013593506040860135925060608601356001600160401b0381111561127b57600080fd5b61128788828901611145565b95989497509295608001359392505050565b600080604083850312156112ac57600080fd5b82356001600160401b038111156112c257600080fd5b6112ce85828601611145565b92505060208301356001600160401b038111156112ea57600080fd5b6112f685828601611145565b9150509250929050565b60006020828403121561131257600080fd5b61131b82611093565b9392505050565b60005b8381101561133d578181015183820152602001611325565b50506000910152565b6000815180845261135e816020860160208601611322565b601f01601f19169290920160200192915050565b6020815281516020820152602082015160408201526000604083015160a060608401526113a260c0840182611346565b9050606084015160808401526080840151151560a08401528091505092915050565b60208152600061131b6020830184611346565b6000806000606084860312156113ec57600080fd5b833592506020840135915060408401356001600160401b0381111561141057600080fd5b61141c86828701611145565b9150509250925092565b60006020828403121561143857600080fd5b5035919050565b60008083601f84011261145157600080fd5b5081356001600160401b0381111561146857600080fd5b60208301915083602082850101111561148057600080fd5b9250929050565b6000806000806040858703121561149d57600080fd5b84356001600160401b038111156114b357600080fd5b6114bf8782880161143f565b90955093505060208501356001600160401b038111156114de57600080fd5b6114ea8782880161143f565b95989497509550505050565b85815284602082015260a06040820152600061151560a0830186611346565b6060830194909452509015156080909101529392505050565b9586526001600160a01b0394909416602086015260408501929092526060840152608083015260a082015260c00190565b61190160f01b81526002810192909252602282015260420190565b600082601f83011261158b57600080fd5b61159560806110ee565b8060808401858111156115a757600080fd5b845b818110156115c15780518452602093840193016115a9565b509095945050505050565b600082601f8301126115dd57600080fd5b81516115eb61116a8261111e565b81815284602083860101111561160057600080fd5b611611826020830160208701611322565b949350505050565b600082601f83011261162a57600080fd5b81516001600160401b03811115611643576116436110af565b8060051b611653602082016110ee565b9182526020818501810192908101908684111561166f57600080fd5b6020860192505b838310156116b55782516001600160401b0381111561169457600080fd5b6116a3886020838a01016115cc565b83525060209283019290910190611676565b9695505050505050565b600082601f8301126116d057600080fd5b6116da60606110ee565b8060608401858111156116ec57600080fd5b845b818110156115c1578051801515811461170657600080fd5b8452602093840193016116ee565b60006020828403121561172657600080fd5b81516001600160401b0381111561173c57600080fd5b8201610240818503121561174f57600080fd5b6117576110c5565b81518152602080830151908201526040808301519082015261177c856060840161157a565b606082015260e08201516001600160401b0381111561179a57600080fd5b6117a6868285016115cc565b6080830152506101008201516001600160401b038111156117c657600080fd5b6117d286828501611619565b60a0830152506101208201516001600160401b038111156117f257600080fd5b6117fe868285016115cc565b60c0830152506101408201516001600160401b0381111561181e57600080fd5b61182a868285016115cc565b60e0830152506101608201516001600160401b0381111561184a57600080fd5b611856868285016115cc565b610100830152506101808201516001600160401b0381111561187757600080fd5b611883868285016115cc565b610120830152506101a08201516001600160401b038111156118a457600080fd5b6118b0868285016115cc565b610140830152506101c08201516101608201526118d1856101e084016116bf565b610180820152949350505050565b600181811c908216806118f357607f821691505b60208210810361191357634e487b7160e01b600052602260045260246000fd5b50919050565b6000808585111561192957600080fd5b8386111561193657600080fd5b5050820193919092039150565b80356020831015610b3c57600019602084900360031b1b1692915050565b60ff60f81b8760f81b16815260ff1986166001820152846020820152836040820152818360608301376000910160600190815295945050505050565b838152818360208301376000910160200190815292915050565b6040815260006119ca6040830185611346565b82810360208401526119dc8185611346565b95945050505050565b601f82111561056c57806000526020600020601f840160051c81016020851015611a0c5750805b601f840160051c820191505b81811015611a2c5760008155600101611a18565b5050505050565b81516001600160401b03811115611a4c57611a4c6110af565b611a6081611a5a84546118df565b846119e5565b6020601f821160018114611a945760008315611a7c5750848201515b600019600385901b1c1916600184901b178455611a2c565b600084815260208120601f198516915b82811015611ac45787850151825560209485019460019092019101611aa4565b5084821015611ae25786840151600019600387901b60f8161c191681555b50505050600190811b01905550565b604081526000611b046040830185611346565b90508260208301529392505050565b634e487b7160e01b600052602160045260246000fdfe8db8d84faf8b2365d4ffd175c1a5bf60a3c3bb8fd65fb126c9bbc39786d11da7a26469706673582212209dc215f762953ed2a37203da4cf88306f71ccbaa88abbda2e5c73ca88d4e38ba64736f6c634300081c0033",
  "linkReferences": {},
  "deployedLinkReferences": {}
}