{
  "_format": "hh-sol-artifact-1",
  "contractName": "TypedMemView",
  "sourceName": "contracts/TypedMemView.sol",
  "abi": [
    {
      "inputs": [],
      "name": "NULL",
      "outputs": [
        {
          "internalType": "bytes29",
          "name": "",
          "type": "bytes29"
        }
      ],
      "stateMutability": "view",
      "type": "function"
    }
  ],
  "bytecode": "0x6095610024600b82828239805160001a607314601757fe5b30600052607381538281f3fe730000000000000000000000000000000000000000301460806040526004361060335760003560e01c8063f26be3fc146038575b600080fd5b603e6057565b6040805162ffffff199092168252519081900360200190f35b62ffffff198156fea2646970667358221220e46c93ef476a79de00530f72e67cd3ebf63809c06cf4b4303ec1d729c4aed5f564736f6c63430007060033",
  "linkReferences": {},
  "deployedLinkReferences": {}
}