{
  "_format": "hh-sol-artifact-1",
  "contractName": "IdentityVerifier",
  "sourceName": "contracts/IdentityVerifier.sol",
  "abi": [
    {
      "inputs": [
        {
          "internalType": "address",
          "name": "_adminAddress",
          "type": "address"
        },
        {
          "internalType": "address",
          "name": "_identityVerificationHubV2",
          "type": "address"
        },
        {
          "internalType": "uint256",
          "name": "_scope",
          "type": "uint256"
        },
        {
          "internalType": "bytes32",
          "name": "_configId",
          "type": "bytes32"
        },
        {
          "internalType": "address",
          "name": "_reliefPoolsContract",
          "type": "address"
        }
      ],
      "stateMutability": "nonpayable",
      "type": "constructor"
    },
    {
      "inputs": [],
      "name": "ECDSAInvalidSignature",
      "type": "error"
    },
    {
      "inputs": [
        {
          "internalType": "uint256",
          "name": "length",
          "type": "uint256"
        }
      ],
      "name": "ECDSAInvalidSignatureLength",
      "type": "error"
    },
    {
      "inputs": [
        {
          "internalType": "bytes32",
          "name": "s",
          "type": "bytes32"
        }
      ],
      "name": "ECDSAInvalidSignatureS",
      "type": "error"
    },
    {
      "inputs": [],
      "name": "InvalidDataFormat",
      "type": "error"
    },
    {
      "inputs": [],
      "name": "InvalidNationality",
      "type": "error"
    },
    {
      "inputs": [],
      "name": "InvalidSignature",
      "type": "error"
    },
    {
      "inputs": [],
      "name": "InvalidUserIdentifier",
      "type": "error"
    },
    {
      "inputs": [
        {
          "internalType": "address",
          "name": "owner",
          "type": "address"
        }
      ],
      "name": "OwnableInvalidOwner",
      "type": "error"
    },
    {
      "inputs": [
        {
          "internalType": "address",
          "name": "account",
          "type": "address"
        }
      ],
      "name": "OwnableUnauthorizedAccount",
      "type": "error"
    },
    {
      "inputs": [],
      "name": "RegisteredNullifier",
      "type": "error"
    },
    {
      "inputs": [],
      "name": "UnauthorizedCaller",
      "type": "error"
    },
    {
      "inputs": [],
      "name": "UserIdentifierAlreadyVerified",
      "type": "error"
    },
    {
      "inputs": [],
      "name": "UserNotVerified",
      "type": "error"
    },
    {
      "anonymous": false,
      "inputs": [
        {
          "indexed": true,
          "internalType": "uint256",
          "name": "nullifier",
          "type": "uint256"
        },
        {
          "indexed": false,
          "internalType": "bytes",
          "name": "signature",
          "type": "bytes"
        },
        {
          "indexed": false,
          "internalType": "uint256",
          "name": "timestamp",
          "type": "uint256"
        }
      ],
      "name": "AdminSignatureGenerated",
      "type": "event"
    },
    {
      "anonymous": false,
      "inputs": [
        {
          "indexed": true,
          "internalType": "address",
          "name": "previousOwner",
          "type": "address"
        },
        {
          "indexed": true,
          "internalType": "address",
          "name": "newOwner",
          "type": "address"
        }
      ],
      "name": "OwnershipTransferred",
      "type": "event"
    },
    {
      "anonymous": false,
      "inputs": [
        {
          "indexed": true,
          "internalType": "uint256",
          "name": "newScope",
          "type": "uint256"
        }
      ],
      "name": "ScopeUpdated",
      "type": "event"
    },
    {
      "anonymous": false,
      "inputs": [
        {
          "indexed": true,
          "internalType": "uint256",
          "name": "nullifier",
          "type": "uint256"
        },
        {
          "indexed": true,
          "internalType": "uint256",
          "name": "userIdentifier",
          "type": "uint256"
        },
        {
          "indexed": false,
          "internalType": "string",
          "name": "nationality",
          "type": "string"
        },
        {
          "indexed": false,
          "internalType": "address",
          "name": "userAddress",
          "type": "address"
        },
        {
          "indexed": false,
          "internalType": "string",
          "name": "reliefPoolId",
          "type": "string"
        },
        {
          "indexed": false,
          "internalType": "uint256",
          "name": "timestamp",
          "type": "uint256"
        }
      ],
      "name": "UserVerified",
      "type": "event"
    },
    {
      "inputs": [],
      "name": "VERIFICATION_MESSAGE_TYPEHASH",
      "outputs": [
        {
          "internalType": "bytes32",
          "name": "",
          "type": "bytes32"
        }
      ],
      "stateMutability": "view",
      "type": "function"
    },
    {
      "inputs": [],
      "name": "adminAddress",
      "outputs": [
        {
          "internalType": "address",
          "name": "",
          "type": "address"
        }
      ],
      "stateMutability": "view",
      "type": "function"
    },
    {
      "inputs": [
        {
          "internalType": "uint256",
          "name": "",
          "type": "uint256"
        }
      ],
      "name": "adminSignatures",
      "outputs": [
        {
          "internalType": "bytes",
          "name": "",
          "type": "bytes"
        }
      ],
      "stateMutability": "view",
      "type": "function"
    },
    {
      "inputs": [],
      "name": "configId",
      "outputs": [
        {
          "internalType": "bytes32",
          "name": "",
          "type": "bytes32"
        }
      ],
      "stateMutability": "view",
      "type": "function"
    },
    {
      "inputs": [
        {
          "internalType": "uint256",
          "name": "nullifier",
          "type": "uint256"
        }
      ],
      "name": "getAdminSignature",
      "outputs": [
        {
          "internalType": "bytes",
          "name": "",
          "type": "bytes"
        }
      ],
      "stateMutability": "view",
      "type": "function"
    },
    {
      "inputs": [],
      "name": "getConfigId",
      "outputs": [
        {
          "internalType": "bytes32",
          "name": "",
          "type": "bytes32"
        }
      ],
      "stateMutability": "view",
      "type": "function"
    },
    {
      "inputs": [
        {
          "internalType": "bytes32",
          "name": "",
          "type": "bytes32"
        },
        {
          "internalType": "bytes32",
          "name": "",
          "type": "bytes32"
        },
        {
          "internalType": "bytes",
          "name": "",
          "type": "bytes"
        }
      ],
      "name": "getConfigId",
      "outputs": [
        {
          "internalType": "bytes32",
          "name": "",
          "type": "bytes32"
        }
      ],
      "stateMutability": "view",
      "type": "function"
    },
    {
      "inputs": [
        {
          "internalType": "uint256",
          "name": "nullifier",
          "type": "uint256"
        },
        {
          "internalType": "uint256",
          "name": "userIdentifier",
          "type": "uint256"
        },
        {
          "internalType": "string",
          "name": "nationality",
          "type": "string"
        },
        {
          "internalType": "uint256",
          "name": "timestamp",
          "type": "uint256"
        }
      ],
      "name": "getMessageHash",
      "outputs": [
        {
          "internalType": "bytes32",
          "name": "",
          "type": "bytes32"
        }
      ],
      "stateMutability": "view",
      "type": "function"
    },
    {
      "inputs": [
        {
          "internalType": "uint256",
          "name": "nullifier",
          "type": "uint256"
        }
      ],
      "name": "getMessageHashToSign",
      "outputs": [
        {
          "internalType": "bytes32",
          "name": "",
          "type": "bytes32"
        }
      ],
      "stateMutability": "view",
      "type": "function"
    },
    {
      "inputs": [
        {
          "internalType": "uint256",
          "name": "nullifier",
          "type": "uint256"
        }
      ],
      "name": "getVerificationData",
      "outputs": [
        {
          "components": [
            {
              "internalType": "uint256",
              "name": "nullifier",
              "type": "uint256"
            },
            {
              "internalType": "uint256",
              "name": "userIdentifier",
              "type": "uint256"
            },
            {
              "internalType": "string",
              "name": "nationality",
              "type": "string"
            },
            {
              "internalType": "uint256",
              "name": "timestamp",
              "type": "uint256"
            },
            {
              "internalType": "bool",
              "name": "isVerified",
              "type": "bool"
            }
          ],
          "internalType": "struct IdentityVerifier.VerificationData",
          "name": "",
          "type": "tuple"
        }
      ],
      "stateMutability": "view",
      "type": "function"
    },
    {
      "inputs": [
        {
          "internalType": "uint256",
          "name": "nullifier",
          "type": "uint256"
        }
      ],
      "name": "getVerifiedUserAddress",
      "outputs": [
        {
          "internalType": "address",
          "name": "",
          "type": "address"
        }
      ],
      "stateMutability": "view",
      "type": "function"
    },
    {
      "inputs": [
        {
          "internalType": "uint256",
          "name": "nullifier",
          "type": "uint256"
        }
      ],
      "name": "isUserVerified",
      "outputs": [
        {
          "internalType": "bool",
          "name": "",
          "type": "bool"
        }
      ],
      "stateMutability": "view",
      "type": "function"
    },
    {
      "inputs": [
        {
          "internalType": "uint256",
          "name": "",
          "type": "uint256"
        }
      ],
      "name": "messageHashes",
      "outputs": [
        {
          "internalType": "bytes32",
          "name": "",
          "type": "bytes32"
        }
      ],
      "stateMutability": "view",
      "type": "function"
    },
    {
      "inputs": [
        {
          "internalType": "bytes",
          "name": "output",
          "type": "bytes"
        },
        {
          "internalType": "bytes",
          "name": "userData",
          "type": "bytes"
        }
      ],
      "name": "onVerificationSuccess",
      "outputs": [],
      "stateMutability": "nonpayable",
      "type": "function"
    },
    {
      "inputs": [],
      "name": "owner",
      "outputs": [
        {
          "internalType": "address",
          "name": "",
          "type": "address"
        }
      ],
      "stateMutability": "view",
      "type": "function"
    },
    {
      "inputs": [],
      "name": "reliefPoolsContract",
      "outputs": [
        {
          "internalType": "address",
          "name": "",
          "type": "address"
        }
      ],
      "stateMutability": "view",
      "type": "function"
    },
    {
      "inputs": [],
      "name": "renounceOwnership",
      "outputs": [],
      "stateMutability": "nonpayable",
      "type": "function"
    },
    {
      "inputs": [],
      "name": "scope",
      "outputs": [
        {
          "internalType": "uint256",
          "name": "",
          "type": "uint256"
        }
      ],
      "stateMutability": "view",
      "type": "function"
    },
    {
      "inputs": [
        {
          "internalType": "uint256",
          "name": "nullifier",
          "type": "uint256"
        },
        {
          "internalType": "bytes",
          "name": "signature",
          "type": "bytes"
        }
      ],
      "name": "setAdminSignature",
      "outputs": [],
      "stateMutability": "nonpayable",
      "type": "function"
    },
    {
      "inputs": [
        {
          "internalType": "address",
          "name": "_reliefPoolsContract",
          "type": "address"
        }
      ],
      "name": "setReliefPoolsContract",
      "outputs": [],
      "stateMutability": "nonpayable",
      "type": "function"
    },
    {
      "inputs": [
        {
          "internalType": "uint256",
          "name": "_scope",
          "type": "uint256"
        }
      ],
      "name": "setScope",
      "outputs": [],
      "stateMutability": "nonpayable",
      "type": "function"
    },
    {
      "inputs": [
        {
          "internalType": "address",
          "name": "newOwner",
          "type": "address"
        }
      ],
      "name": "transferOwnership",
      "outputs": [],
      "stateMutability": "nonpayable",
      "type": "function"
    },
    {
      "inputs": [
        {
          "internalType": "uint256",
          "name": "userIdentifier",
          "type": "uint256"
        }
      ],
      "name": "userIdentifierToAddress",
      "outputs": [
        {
          "internalType": "address",
          "name": "",
          "type": "address"
        }
      ],
      "stateMutability": "pure",
      "type": "function"
    },
    {
      "inputs": [
        {
          "internalType": "uint256",
          "name": "",
          "type": "uint256"
        }
      ],
      "name": "verifiedUsers",
      "outputs": [
        {
          "internalType": "uint256",
          "name": "nullifier",
          "type": "uint256"
        },
        {
          "internalType": "uint256",
          "name": "userIdentifier",
          "type": "uint256"
        },
        {
          "internalType": "string",
          "name": "nationality",
          "type": "string"
        },
        {
          "internalType": "uint256",
          "name": "timestamp",
          "type": "uint256"
        },
        {
          "internalType": "bool",
          "name": "isVerified",
          "type": "bool"
        }
      ],
      "stateMutability": "view",
      "type": "function"
    },
    {
      "inputs": [
        {
          "internalType": "uint256",
          "name": "nullifier",
          "type": "uint256"
        },
        {
          "internalType": "uint256",
          "name": "userIdentifier",
          "type": "uint256"
        },
        {
          "internalType": "string",
          "name": "nationality",
          "type": "string"
        },
        {
          "internalType": "uint256",
          "name": "timestamp",
          "type": "uint256"
        },
        {
          "internalType": "bytes",
          "name": "signature",
          "type": "bytes"
        }
      ],
      "name": "verifyAdminSignature",
      "outputs": [
        {
          "internalType": "bool",
          "name": "",
          "type": "bool"
        }
      ],
      "stateMutability": "view",
      "type": "function"
    },
    {
      "inputs": [
        {
          "internalType": "bytes",
          "name": "proofPayload",
          "type": "bytes"
        },
        {
          "internalType": "bytes",
          "name": "userContextData",
          "type": "bytes"
        }
      ],
      "name": "verifySelfProof",
      "outputs": [],
      "stateMutability": "nonpayable",
      "type": "function"
    }
  ],
  "bytecode": "0x60c060405234801561001057600080fd5b506040516121cc3803806121cc83398101604081905261002f91610165565b6001600160a01b0380851660805260008490558590811661006a57604051631e4fbdf760e01b81526000600482015260240160405180910390fd5b610073816100c7565b50600280546001600160a01b0319166001600160a01b03871617905560a082905261009d83610119565b600380546001600160a01b0319166001600160a01b0392909216919091179055506101bc92505050565b600180546001600160a01b038381166001600160a01b0319831681179093556040519116919082907f8be0079c531659141344cd1fd0a4f28419497f9722a3daafe3b4186f6b6457e090600090a35050565b600081815560405182917f379705e49518633184cc7e64f6a0c9361e35f275be47634afb6c2c603e5311e591a250565b80516001600160a01b038116811461016057600080fd5b919050565b600080600080600060a0868803121561017d57600080fd5b61018686610149565b945061019460208701610149565b935060408601519250606086015191506101b060808701610149565b90509295509295909350565b60805160a051611fcf6101fd6000396000818161029501528181610336015281816103a70152610d0d0152600081816108420152610d800152611fcf6000f3fe608060405234801561001057600080fd5b506004361061018e5760003560e01c80638da5cb5b116100de578063b564eb2711610097578063d161802b11610071578063d161802b146103ed578063e1a788eb14610400578063f2fde38b14610427578063fc6f94681461043a57600080fd5b8063b564eb27146103a2578063b8a6efbd146103c9578063b8baf4e4146103dc57600080fd5b80638da5cb5b14610302578063a81302a514610313578063ada1b31914610326578063b454bfed1461035c578063b4ba6ff91461037c578063b556c6da1461038f57600080fd5b80635d53ac161161014b578063715018a611610125578063715018a6146102c1578063833e5d78146102c95780638be55456146102dc5780638d2d8d6a146102ef57600080fd5b80635d53ac1614610268578063634daa11146102935780636e62d0a8146102b957600080fd5b806302de6988146101935780630343b1e7146101b9578063070f09ad146101d957806307763ec3146101ee5780632789b4d71461021257806337364ea214610248575b600080fd5b6101a66101a13660046114f1565b61044d565b6040519081526020015b60405180910390f35b6101cc6101c73660046114f1565b610492565b6040516101b0919061155a565b6101ec6101e73660046115ac565b6105aa565b005b6102016101fc3660046114f1565b6105d4565b6040516101b09594939291906115dc565b6102386102203660046114f1565b60009081526006602052604090206004015460ff1690565b60405190151581526020016101b0565b6101a66102563660046114f1565b60086020526000908152604090205481565b60035461027b906001600160a01b031681565b6040516001600160a01b0390911681526020016101b0565b7f00000000000000000000000000000000000000000000000000000000000000006101a6565b6000546101a6565b6101ec61068f565b6101a66102d7366004611703565b6106a3565b6102386102ea36600461175a565b61075a565b6101ec6102fd3660046117de565b610837565b6001546001600160a01b031661027b565b6101ec610321366004611845565b6108a7565b6101a6610334366004611875565b7f00000000000000000000000000000000000000000000000000000000000000009392505050565b61036f61036a3660046114f1565b610a03565b6040516101b091906118c4565b6101ec61038a3660046114f1565b610b32565b61027b61039d3660046114f1565b610b46565b6101a67f000000000000000000000000000000000000000000000000000000000000000081565b61036f6103d73660046114f1565b610bb4565b61027b6103ea3660046114f1565b90565b6101ec6103fb36600461191f565b610c4e565b6101a67f5c64a8a74cfa7615128bcdfeee4695403156b321bc1f0f1dd1a0b09d3618731e81565b6101ec6104353660046115ac565b610e2d565b60025461027b906001600160a01b031681565b60008181526006602052604081206004015460ff1661047f57604051637d93d32b60e01b815260040160405180910390fd5b5060009081526008602052604090205490565b6104c66040518060a00160405280600081526020016000815260200160608152602001600081526020016000151581525090565b600660008381526020019081526020016000206040518060a001604052908160008201548152602001600182015481526020016002820180546105089061198e565b80601f01602080910402602001604051908101604052809291908181526020018280546105349061198e565b80156105815780601f1061055657610100808354040283529160200191610581565b820191906000526020600020905b81548152906001019060200180831161056457829003601f168201915b50505091835250506003820154602082015260049091015460ff16151560409091015292915050565b6105b2610e68565b600380546001600160a01b0319166001600160a01b0392909216919091179055565b600660205260009081526040902080546001820154600283018054929391926105fc9061198e565b80601f01602080910402602001604051908101604052809291908181526020018280546106289061198e565b80156106755780601f1061064a57610100808354040283529160200191610675565b820191906000526020600020905b81548152906001019060200180831161065857829003601f168201915b50505050600383015460049093015491929160ff16905085565b610697610e68565b6106a16000610e95565b565b8151602080840191909120604080517f5c64a8a74cfa7615128bcdfeee4695403156b321bc1f0f1dd1a0b09d3618731e8185015280820188905260608101879052608081019290925260a08083018590528151808403909101815260c09092019052805191012060009081610716610ee7565b60405161190160f01b602082015260228101829052604281018490529091506062016040516020818303038152906040528051906020012092505050949350505050565b8251602080850191909120604080517f5c64a8a74cfa7615128bcdfeee4695403156b321bc1f0f1dd1a0b09d3618731e8185015280820189905260608101889052608081019290925260a08083018690528151808403909101815260c090920190528051910120600090816107cd610ee7565b60405161190160f01b6020820152602281018290526042810184905290915060009060620160408051601f198184030181529190528051602090910120905060006108188287611024565b6002546001600160a01b039081169116149a9950505050505050505050565b336001600160a01b037f0000000000000000000000000000000000000000000000000000000000000000161461088057604051635c427cd960e01b815260040160405180910390fd5b6000828060200190518101906108969190611b62565b90506108a2818361104e565b505050565b6002546001600160a01b031633146109065760405162461bcd60e51b815260206004820152601760248201527f556e617574686f72697a65643a204e6f742041646d696e00000000000000000060448201526064015b60405180910390fd5b60008281526006602052604090206004015460ff1661095b5760405162461bcd60e51b8152602060048201526011602482015270155cd95c881b9bdd081d995c9a599a5959607a1b60448201526064016108fd565b80516041146109ac5760405162461bcd60e51b815260206004820152601860248201527f496e76616c6964207369676e6174757265206c656e677468000000000000000060448201526064016108fd565b60008281526007602052604090206109c48282611d7b565b50817fe82ef336dc43f8105a8efda77cbaabb7fec1003a770537904a41858c706b0c2582426040516109f7929190611e39565b60405180910390a25050565b60008181526006602052604090206004015460609060ff16610a3857604051637d93d32b60e01b815260040160405180910390fd5b60008281526007602052604081208054610a519061198e565b905011610a945760405162461bcd60e51b815260206004820152601160248201527014da59db985d1d5c99481b9bdd081cd95d607a1b60448201526064016108fd565b60008281526007602052604090208054610aad9061198e565b80601f0160208091040260200160405190810160405280929190818152602001828054610ad99061198e565b8015610b265780601f10610afb57610100808354040283529160200191610b26565b820191906000526020600020905b815481529060010190602001808311610b0957829003601f168201915b50505050509050919050565b610b3a610e68565b610b43816111ec565b50565b60008181526006602052604081206004015460ff16610b9b5760405162461bcd60e51b8152602060048201526011602482015270155cd95c881b9bdd081d995c9a599a5959607a1b60448201526064016108fd565b6000828152600660205260409020600101545b92915050565b60076020526000908152604090208054610bcd9061198e565b80601f0160208091040260200160405190810160405280929190818152602001828054610bf99061198e565b8015610c465780601f10610c1b57610100808354040283529160200191610c46565b820191906000526020600020905b815481529060010190602001808311610c2957829003601f168201915b505050505081565b6020831015610c705760405163a512e2ff60e01b815260040160405180910390fd5b6040811015610c925760405163a512e2ff60e01b815260040160405180910390fd5b83356000610ca36020828587611e5b565b610cac91611e85565b90506000610cbe604060208688611e5b565b610cc791611e85565b90506000610cd88560408189611e5b565b8080601f01602080910402602001604051908101604052809392919081815260200183838082843760009201829052509394507f00000000000000000000000000000000000000000000000000000000000000009250610d36915050565b905060006002600060081b600054888d8d6020908092610d5893929190611e5b565b604051602001610d6d96959493929190611ea3565b60405160208183030381529060405290507f00000000000000000000000000000000000000000000000000000000000000006001600160a01b031663f7e83aee82848b8b604051602001610dc393929190611edf565b6040516020818303038152906040526040518363ffffffff1660e01b8152600401610def929190611ef9565b600060405180830381600087803b158015610e0957600080fd5b505af1158015610e1d573d6000803e3d6000fd5b5050505050505050505050505050565b610e35610e68565b6001600160a01b038116610e5f57604051631e4fbdf760e01b8152600060048201526024016108fd565b610b4381610e95565b6001546001600160a01b031633146106a15760405163118cdaa760e01b81523360048201526024016108fd565b600180546001600160a01b038381166001600160a01b0319831681179093556040519116919082907f8be0079c531659141344cd1fd0a4f28419497f9722a3daafe3b4186f6b6457e090600090a35050565b6003546000906001600160a01b0316610f425760405162461bcd60e51b815260206004820152601c60248201527f52656c696566506f6f6c7320636f6e7472616374206e6f74207365740000000060448201526064016108fd565b50604080518082018252600b81526a52656c696566506f6f6c7360a81b6020918201528151808301835260018152603160f81b9082015260035482517f8b73c3c69bb8fe3d512ecc4cf759cc79239f7b179b0ffacaa9a75d522b39400f818401527f3323a8070b7081e28ca423d850c49e17147e941af41daf0ad176ecf1a5481b67818501527fc89efdaa54c0f20c7adf612882df0950f5a951637e0307cdcb4c672f298b8bc6606082015261210560808201526001600160a01b0390911660a0808301919091528351808303909101815260c0909101909252815191012090565b600080600080611034868661121c565b9250925092506110448282611269565b5090949350505050565b8160e001515160000361107457604051631d89d0ab60e11b815260040160405180910390fd5b6040805160a0810182528382018051825260208086015181840190815260e08701518486019081524260608601526001608086018190529351600090815260069093529490912083518155905191810191909155915190919060028201906110dc9082611d7b565b50606082015160038201556080909101516004909101805460ff19169115159190911790556040820151602083015160e084015160009261111f929091426106a3565b6040848101516000908152600860209081529181208390559085015191925061114784611326565b9050600081511161119a5760405162461bcd60e51b815260206004820152601760248201527f506f6f6c2049442063616e6e6f7420626520656d70747900000000000000000060448201526064016108fd565b846020015185604001517f4bbd3d450af4603e26025d94c195e0ca7ee1f4b60fe2363806b06285e60d2bb88760e001518585426040516111dd9493929190611f27565b60405180910390a35050505050565b600081815560405182917f379705e49518633184cc7e64f6a0c9361e35f275be47634afb6c2c603e5311e591a250565b600080600083516041036112565760208401516040850151606086015160001a61124888828585611422565b955095509550505050611262565b50508151600091506002905b9250925092565b600082600381111561127d5761127d611f6d565b03611286575050565b600182600381111561129a5761129a611f6d565b036112b85760405163f645eedf60e01b815260040160405180910390fd5b60028260038111156112cc576112cc611f6d565b036112ed5760405163fce698f760e01b8152600481018290526024016108fd565b600382600381111561130157611301611f6d565b03611322576040516335e2f38360e21b8152600481018290526024016108fd565b5050565b60606000805b835181101561136d5783818151811061134757611347611f83565b01602001516001600160f81b0319166000036113655780915061136d565b60010161132c565b508060000361137a575081515b6000816001600160401b0381111561139457611394611614565b6040519080825280601f01601f1916602001820160405280156113be576020820181803683370190505b50905060005b8281101561141a578481815181106113de576113de611f83565b602001015160f81c60f81b8282815181106113fb576113fb611f83565b60200101906001600160f81b031916908160001a9053506001016113c4565b509392505050565b600080807f7fffffffffffffffffffffffffffffff5d576e7357a4501ddfe92f46681b20a084111561145d57506000915060039050826114e7565b604080516000808252602082018084528a905260ff891692820192909252606081018790526080810186905260019060a0016020604051602081039080840390855afa1580156114b1573d6000803e3d6000fd5b5050604051601f1901519150506001600160a01b0381166114dd575060009250600191508290506114e7565b9250600091508190505b9450945094915050565b60006020828403121561150357600080fd5b5035919050565b60005b8381101561152557818101518382015260200161150d565b50506000910152565b6000815180845261154681602086016020860161150a565b601f01601f19169290920160200192915050565b6020815281516020820152602082015160408201526000604083015160a0606084015261158a60c084018261152e565b9050606084015160808401526080840151151560a08401528091505092915050565b6000602082840312156115be57600080fd5b81356001600160a01b03811681146115d557600080fd5b9392505050565b85815284602082015260a0604082015260006115fb60a083018661152e565b6060830194909452509015156080909101529392505050565b634e487b7160e01b600052604160045260246000fd5b6040516101a081016001600160401b038111828210171561164d5761164d611614565b60405290565b604051601f8201601f191681016001600160401b038111828210171561167b5761167b611614565b604052919050565b60006001600160401b0382111561169c5761169c611614565b50601f01601f191660200190565b600082601f8301126116bb57600080fd5b81356020830160006116d46116cf84611683565b611653565b90508281528583830111156116e857600080fd5b82826020830137600092810160200192909252509392505050565b6000806000806080858703121561171957600080fd5b843593506020850135925060408501356001600160401b0381111561173d57600080fd5b611749878288016116aa565b949793965093946060013593505050565b600080600080600060a0868803121561177257600080fd5b853594506020860135935060408601356001600160401b0381111561179657600080fd5b6117a2888289016116aa565b9350506060860135915060808601356001600160401b038111156117c557600080fd5b6117d1888289016116aa565b9150509295509295909350565b600080604083850312156117f157600080fd5b82356001600160401b0381111561180757600080fd5b611813858286016116aa565b92505060208301356001600160401b0381111561182f57600080fd5b61183b858286016116aa565b9150509250929050565b6000806040838503121561185857600080fd5b8235915060208301356001600160401b0381111561182f57600080fd5b60008060006060848603121561188a57600080fd5b833592506020840135915060408401356001600160401b038111156118ae57600080fd5b6118ba868287016116aa565b9150509250925092565b6020815260006115d5602083018461152e565b60008083601f8401126118e957600080fd5b5081356001600160401b0381111561190057600080fd5b60208301915083602082850101111561191857600080fd5b9250929050565b6000806000806040858703121561193557600080fd5b84356001600160401b0381111561194b57600080fd5b611957878288016118d7565b90955093505060208501356001600160401b0381111561197657600080fd5b611982878288016118d7565b95989497509550505050565b600181811c908216806119a257607f821691505b6020821081036119c257634e487b7160e01b600052602260045260246000fd5b50919050565b600082601f8301126119d957600080fd5b6119e36080611653565b8060808401858111156119f557600080fd5b845b81811015611a0f5780518452602093840193016119f7565b509095945050505050565b600082601f830112611a2b57600080fd5b8151611a396116cf82611683565b818152846020838601011115611a4e57600080fd5b611a5f82602083016020870161150a565b949350505050565b600082601f830112611a7857600080fd5b81516001600160401b03811115611a9157611a91611614565b8060051b611aa160208201611653565b91825260208185018101929081019086841115611abd57600080fd5b6020860192505b83831015611b035782516001600160401b03811115611ae257600080fd5b611af1886020838a0101611a1a565b83525060209283019290910190611ac4565b9695505050505050565b600082601f830112611b1e57600080fd5b611b286060611653565b806060840185811115611b3a57600080fd5b845b81811015611a0f5780518015158114611b5457600080fd5b845260209384019301611b3c565b600060208284031215611b7457600080fd5b81516001600160401b03811115611b8a57600080fd5b82016102408185031215611b9d57600080fd5b611ba561162a565b815181526020808301519082015260408083015190820152611bca85606084016119c8565b606082015260e08201516001600160401b03811115611be857600080fd5b611bf486828501611a1a565b6080830152506101008201516001600160401b03811115611c1457600080fd5b611c2086828501611a67565b60a0830152506101208201516001600160401b03811115611c4057600080fd5b611c4c86828501611a1a565b60c0830152506101408201516001600160401b03811115611c6c57600080fd5b611c7886828501611a1a565b60e0830152506101608201516001600160401b03811115611c9857600080fd5b611ca486828501611a1a565b610100830152506101808201516001600160401b03811115611cc557600080fd5b611cd186828501611a1a565b610120830152506101a08201516001600160401b03811115611cf257600080fd5b611cfe86828501611a1a565b610140830152506101c0820151610160820152611d1f856101e08401611b0d565b610180820152949350505050565b601f8211156108a257806000526020600020601f840160051c81016020851015611d545750805b601f840160051c820191505b81811015611d745760008155600101611d60565b5050505050565b81516001600160401b03811115611d9457611d94611614565b611da881611da2845461198e565b84611d2d565b6020601f821160018114611ddc5760008315611dc45750848201515b600019600385901b1c1916600184901b178455611d74565b600084815260208120601f198516915b82811015611e0c5787850151825560209485019460019092019101611dec565b5084821015611e2a5786840151600019600387901b60f8161c191681555b50505050600190811b01905550565b604081526000611e4c604083018561152e565b90508260208301529392505050565b60008085851115611e6b57600080fd5b83861115611e7857600080fd5b5050820193919092039150565b80356020831015610bae57600019602084900360031b1b1692915050565b60ff60f81b8760f81b16815260ff1986166001820152846020820152836040820152818360608301376000910160600190815295945050505050565b838152818360208301376000910160200190815292915050565b604081526000611f0c604083018561152e565b8281036020840152611f1e818561152e565b95945050505050565b608081526000611f3a608083018761152e565b6001600160a01b03861660208401528281036040840152611f5b818661152e565b91505082606083015295945050505050565b634e487b7160e01b600052602160045260246000fd5b634e487b7160e01b600052603260045260246000fdfea2646970667358221220036ddfd440565b6a5d8303fcade5120c5b888d39523c865c59c1833b2411f0d764736f6c634300081c0033",
  "linkReferences": {},
  "deployedLinkReferences": {}
}