{
  "_format": "hh-sol-artifact-1",
  "contractName": "IdentityVerifier",
  "sourceName": "contracts/IdentityVerifier.sol",
  "abi": [
    {
      "inputs": [
        {
          "internalType": "address",
          "name": "_adminAddress",
          "type": "address"
        },
        {
          "internalType": "address",
          "name": "_identityVerificationHubV2",
          "type": "address"
        },
        {
          "internalType": "uint256",
          "name": "_scope",
          "type": "uint256"
        },
        {
          "internalType": "bytes32",
          "name": "_configId",
          "type": "bytes32"
        }
      ],
      "stateMutability": "nonpayable",
      "type": "constructor"
    },
    {
      "inputs": [],
      "name": "ECDSAInvalidSignature",
      "type": "error"
    },
    {
      "inputs": [
        {
          "internalType": "uint256",
          "name": "length",
          "type": "uint256"
        }
      ],
      "name": "ECDSAInvalidSignatureLength",
      "type": "error"
    },
    {
      "inputs": [
        {
          "internalType": "bytes32",
          "name": "s",
          "type": "bytes32"
        }
      ],
      "name": "ECDSAInvalidSignatureS",
      "type": "error"
    },
    {
      "inputs": [],
      "name": "InvalidDataFormat",
      "type": "error"
    },
    {
      "inputs": [],
      "name": "InvalidNationality",
      "type": "error"
    },
    {
      "inputs": [],
      "name": "InvalidSignature",
      "type": "error"
    },
    {
      "inputs": [],
      "name": "InvalidUserIdentifier",
      "type": "error"
    },
    {
      "inputs": [
        {
          "internalType": "address",
          "name": "owner",
          "type": "address"
        }
      ],
      "name": "OwnableInvalidOwner",
      "type": "error"
    },
    {
      "inputs": [
        {
          "internalType": "address",
          "name": "account",
          "type": "address"
        }
      ],
      "name": "OwnableUnauthorizedAccount",
      "type": "error"
    },
    {
      "inputs": [],
      "name": "RegisteredNullifier",
      "type": "error"
    },
    {
      "inputs": [],
      "name": "UnauthorizedCaller",
      "type": "error"
    },
    {
      "inputs": [],
      "name": "UserIdentifierAlreadyVerified",
      "type": "error"
    },
    {
      "inputs": [],
      "name": "UserNotVerified",
      "type": "error"
    },
    {
      "anonymous": false,
      "inputs": [
        {
          "indexed": true,
          "internalType": "address",
          "name": "userAddress",
          "type": "address"
        },
        {
          "indexed": false,
          "internalType": "bytes",
          "name": "signature",
          "type": "bytes"
        },
        {
          "indexed": false,
          "internalType": "uint256",
          "name": "timestamp",
          "type": "uint256"
        }
      ],
      "name": "AdminSignatureGenerated",
      "type": "event"
    },
    {
      "anonymous": false,
      "inputs": [
        {
          "indexed": true,
          "internalType": "address",
          "name": "previousOwner",
          "type": "address"
        },
        {
          "indexed": true,
          "internalType": "address",
          "name": "newOwner",
          "type": "address"
        }
      ],
      "name": "OwnershipTransferred",
      "type": "event"
    },
    {
      "anonymous": false,
      "inputs": [
        {
          "indexed": true,
          "internalType": "uint256",
          "name": "newScope",
          "type": "uint256"
        }
      ],
      "name": "ScopeUpdated",
      "type": "event"
    },
    {
      "anonymous": false,
      "inputs": [
        {
          "indexed": true,
          "internalType": "address",
          "name": "userAddress",
          "type": "address"
        },
        {
          "indexed": true,
          "internalType": "uint256",
          "name": "nullifier",
          "type": "uint256"
        },
        {
          "indexed": true,
          "internalType": "uint256",
          "name": "userIdentifier",
          "type": "uint256"
        },
        {
          "indexed": false,
          "internalType": "string",
          "name": "nationality",
          "type": "string"
        },
        {
          "indexed": false,
          "internalType": "uint256",
          "name": "timestamp",
          "type": "uint256"
        }
      ],
      "name": "UserVerified",
      "type": "event"
    },
    {
      "inputs": [],
      "name": "DOMAIN_SEPARATOR",
      "outputs": [
        {
          "internalType": "bytes32",
          "name": "",
          "type": "bytes32"
        }
      ],
      "stateMutability": "view",
      "type": "function"
    },
    {
      "inputs": [],
      "name": "VERIFICATION_MESSAGE_TYPEHASH",
      "outputs": [
        {
          "internalType": "bytes32",
          "name": "",
          "type": "bytes32"
        }
      ],
      "stateMutability": "view",
      "type": "function"
    },
    {
      "inputs": [],
      "name": "adminAddress",
      "outputs": [
        {
          "internalType": "address",
          "name": "",
          "type": "address"
        }
      ],
      "stateMutability": "view",
      "type": "function"
    },
    {
      "inputs": [
        {
          "internalType": "address",
          "name": "",
          "type": "address"
        }
      ],
      "name": "adminSignatures",
      "outputs": [
        {
          "internalType": "bytes",
          "name": "",
          "type": "bytes"
        }
      ],
      "stateMutability": "view",
      "type": "function"
    },
    {
      "inputs": [],
      "name": "configId",
      "outputs": [
        {
          "internalType": "bytes32",
          "name": "",
          "type": "bytes32"
        }
      ],
      "stateMutability": "view",
      "type": "function"
    },
    {
      "inputs": [
        {
          "internalType": "address",
          "name": "userAddress",
          "type": "address"
        }
      ],
      "name": "getAdminSignature",
      "outputs": [
        {
          "internalType": "bytes",
          "name": "",
          "type": "bytes"
        }
      ],
      "stateMutability": "view",
      "type": "function"
    },
    {
      "inputs": [],
      "name": "getConfigId",
      "outputs": [
        {
          "internalType": "bytes32",
          "name": "",
          "type": "bytes32"
        }
      ],
      "stateMutability": "view",
      "type": "function"
    },
    {
      "inputs": [
        {
          "internalType": "bytes32",
          "name": "",
          "type": "bytes32"
        },
        {
          "internalType": "bytes32",
          "name": "",
          "type": "bytes32"
        },
        {
          "internalType": "bytes",
          "name": "",
          "type": "bytes"
        }
      ],
      "name": "getConfigId",
      "outputs": [
        {
          "internalType": "bytes32",
          "name": "",
          "type": "bytes32"
        }
      ],
      "stateMutability": "view",
      "type": "function"
    },
    {
      "inputs": [
        {
          "internalType": "address",
          "name": "userAddress",
          "type": "address"
        },
        {
          "internalType": "uint256",
          "name": "nullifier",
          "type": "uint256"
        },
        {
          "internalType": "uint256",
          "name": "userIdentifier",
          "type": "uint256"
        },
        {
          "internalType": "string",
          "name": "nationality",
          "type": "string"
        },
        {
          "internalType": "uint256",
          "name": "timestamp",
          "type": "uint256"
        }
      ],
      "name": "getMessageHash",
      "outputs": [
        {
          "internalType": "bytes32",
          "name": "",
          "type": "bytes32"
        }
      ],
      "stateMutability": "view",
      "type": "function"
    },
    {
      "inputs": [
        {
          "internalType": "address",
          "name": "userAddress",
          "type": "address"
        }
      ],
      "name": "getVerificationData",
      "outputs": [
        {
          "components": [
            {
              "internalType": "uint256",
              "name": "nullifier",
              "type": "uint256"
            },
            {
              "internalType": "uint256",
              "name": "userIdentifier",
              "type": "uint256"
            },
            {
              "internalType": "string",
              "name": "nationality",
              "type": "string"
            },
            {
              "internalType": "uint256",
              "name": "timestamp",
              "type": "uint256"
            },
            {
              "internalType": "bool",
              "name": "isVerified",
              "type": "bool"
            }
          ],
          "internalType": "struct IdentityVerifier.VerificationData",
          "name": "",
          "type": "tuple"
        }
      ],
      "stateMutability": "view",
      "type": "function"
    },
    {
      "inputs": [
        {
          "internalType": "address",
          "name": "userAddress",
          "type": "address"
        }
      ],
      "name": "isUserVerified",
      "outputs": [
        {
          "internalType": "bool",
          "name": "",
          "type": "bool"
        }
      ],
      "stateMutability": "view",
      "type": "function"
    },
    {
      "inputs": [
        {
          "internalType": "bytes",
          "name": "output",
          "type": "bytes"
        },
        {
          "internalType": "bytes",
          "name": "userData",
          "type": "bytes"
        }
      ],
      "name": "onVerificationSuccess",
      "outputs": [],
      "stateMutability": "nonpayable",
      "type": "function"
    },
    {
      "inputs": [],
      "name": "owner",
      "outputs": [
        {
          "internalType": "address",
          "name": "",
          "type": "address"
        }
      ],
      "stateMutability": "view",
      "type": "function"
    },
    {
      "inputs": [],
      "name": "renounceOwnership",
      "outputs": [],
      "stateMutability": "nonpayable",
      "type": "function"
    },
    {
      "inputs": [],
      "name": "scope",
      "outputs": [
        {
          "internalType": "uint256",
          "name": "",
          "type": "uint256"
        }
      ],
      "stateMutability": "view",
      "type": "function"
    },
    {
      "inputs": [
        {
          "internalType": "uint256",
          "name": "_scope",
          "type": "uint256"
        }
      ],
      "name": "setScope",
      "outputs": [],
      "stateMutability": "nonpayable",
      "type": "function"
    },
    {
      "inputs": [
        {
          "internalType": "address",
          "name": "newOwner",
          "type": "address"
        }
      ],
      "name": "transferOwnership",
      "outputs": [],
      "stateMutability": "nonpayable",
      "type": "function"
    },
    {
      "inputs": [
        {
          "internalType": "address",
          "name": "",
          "type": "address"
        }
      ],
      "name": "verifiedUsers",
      "outputs": [
        {
          "internalType": "uint256",
          "name": "nullifier",
          "type": "uint256"
        },
        {
          "internalType": "uint256",
          "name": "userIdentifier",
          "type": "uint256"
        },
        {
          "internalType": "string",
          "name": "nationality",
          "type": "string"
        },
        {
          "internalType": "uint256",
          "name": "timestamp",
          "type": "uint256"
        },
        {
          "internalType": "bool",
          "name": "isVerified",
          "type": "bool"
        }
      ],
      "stateMutability": "view",
      "type": "function"
    },
    {
      "inputs": [
        {
          "internalType": "address",
          "name": "userAddress",
          "type": "address"
        },
        {
          "internalType": "uint256",
          "name": "nullifier",
          "type": "uint256"
        },
        {
          "internalType": "uint256",
          "name": "userIdentifier",
          "type": "uint256"
        },
        {
          "internalType": "string",
          "name": "nationality",
          "type": "string"
        },
        {
          "internalType": "uint256",
          "name": "timestamp",
          "type": "uint256"
        },
        {
          "internalType": "bytes",
          "name": "signature",
          "type": "bytes"
        }
      ],
      "name": "verifyAdminSignature",
      "outputs": [
        {
          "internalType": "bool",
          "name": "",
          "type": "bool"
        }
      ],
      "stateMutability": "view",
      "type": "function"
    },
    {
      "inputs": [
        {
          "internalType": "bytes",
          "name": "proofPayload",
          "type": "bytes"
        },
        {
          "internalType": "bytes",
          "name": "userContextData",
          "type": "bytes"
        }
      ],
      "name": "verifySelfProof",
      "outputs": [],
      "stateMutability": "nonpayable",
      "type": "function"
    }
  ],
  "bytecode": "0x60e060405234801561001057600080fd5b50604051611a28380380611a2883398101604081905261002f91610225565b6001600160a01b0380841660805260008390558490811661006a57604051631e4fbdf760e01b81526000600482015260240160405180910390fd5b61007381610187565b50600280546001600160a01b0319166001600160a01b03861617905560a081905261009d826101d9565b604080518082018252601081526f24b232b73a34ba3cab32b934b334b2b960811b6020918201528151808301835260018152603160f81b9082015281517f8b73c3c69bb8fe3d512ecc4cf759cc79239f7b179b0ffacaa9a75d522b39400f918101919091527f433800fed47aa798145e03f4cb479559d05f87d4328f79a7f8ca22d60688100a918101919091527fc89efdaa54c0f20c7adf612882df0950f5a951637e0307cdcb4c672f298b8bc6606082015262014a3460808201523060a082015260c00160408051601f19818403018152919052805160209091012060c0525061026892505050565b600180546001600160a01b038381166001600160a01b0319831681179093556040519116919082907f8be0079c531659141344cd1fd0a4f28419497f9722a3daafe3b4186f6b6457e090600090a35050565b600081815560405182917f379705e49518633184cc7e64f6a0c9361e35f275be47634afb6c2c603e5311e591a250565b80516001600160a01b038116811461022057600080fd5b919050565b6000806000806080858703121561023b57600080fd5b61024485610209565b935061025260208601610209565b6040860151606090960151949790965092505050565b60805160a05160c0516117676102c16000396000818161015e0152818161022501526104d90152600081816102710152818161035e0152818161039c01526108ac01526000818161056e015261091f01526117676000f3fe608060405234801561001057600080fd5b506004361061012c5760003560e01c8063ace417e0116100ad578063d952c30311610071578063d952c303146103d1578063e1a788eb146103e4578063e35fe3661461040b578063f2fde38b1461042f578063fc6f94681461044257600080fd5b8063ace417e01461031f578063ada1b3191461034e578063b4ba6ff914610384578063b564eb2714610397578063d161802b146103be57600080fd5b8063715018a6116100f4578063715018a61461029d5780638d2d8d6a146102a75780638da5cb5b146102ba57806395183eb7146102df5780639948251b146102ff57600080fd5b806329d9b720146101315780633644e51514610159578063597c5b4c1461018e578063634daa111461026f5780636e62d0a814610295575b600080fd5b61014461013f366004610f20565b610455565b60405190151581526020015b60405180910390f35b6101807f000000000000000000000000000000000000000000000000000000000000000081565b604051908152602001610150565b61018061019c366004610fb3565b8151602092830120604080517f8db8d84faf8b2365d4ffd175c1a5bf60a3c3bb8fd65fb126c9bbc39786d11da7818601526001600160a01b0397909716878201526060870195909552608086019390935260a085019290925260c0808501929092528251808503909201825260e08401835281519181019190912061190160f01b6101008501527f00000000000000000000000000000000000000000000000000000000000000006101028501526101228085019190915282518085039091018152610142909301909152815191012090565b7f0000000000000000000000000000000000000000000000000000000000000000610180565b600054610180565b6102a561054f565b005b6102a56102b536600461101b565b610563565b6001546001600160a01b03165b6040516001600160a01b039091168152602001610150565b6102f26102ed366004611082565b6105c8565b60405161015091906110f4565b61031261030d366004611082565b6106f2565b6040516101509190611146565b61014461032d366004611082565b6001600160a01b031660009081526005602052604090206004015460ff1690565b61018061035c366004611159565b7f00000000000000000000000000000000000000000000000000000000000000009392505050565b6102a56103923660046111a8565b6107d9565b6101807f000000000000000000000000000000000000000000000000000000000000000081565b6102a56103cc366004611209565b6107ed565b6103126103df366004611082565b6109cc565b6101807f8db8d84faf8b2365d4ffd175c1a5bf60a3c3bb8fd65fb126c9bbc39786d11da781565b61041e610419366004611082565b610a66565b604051610150959493929190611278565b6102a561043d366004611082565b610b21565b6002546102c7906001600160a01b031681565b8251602080850191909120604080517f8db8d84faf8b2365d4ffd175c1a5bf60a3c3bb8fd65fb126c9bbc39786d11da7818501526001600160a01b038a1681830152606081018990526080810188905260a081019290925260c08083018690528151808403909101815260e08301825280519084012061190160f01b6101008401527f0000000000000000000000000000000000000000000000000000000000000000610102840152610122808401829052825180850390910181526101429093019091528151919092012060009190826105308286610b61565b6002546001600160a01b039081169116149a9950505050505050505050565b610557610b8d565b6105616000610bba565b565b336001600160a01b037f000000000000000000000000000000000000000000000000000000000000000016146105ac57604051635c427cd960e01b815260040160405180910390fd5b6000828060200190518101906105c2919061144a565b50505050565b6105fc6040518060a00160405280600081526020016000815260200160608152602001600081526020016000151581525090565b60056000836001600160a01b03166001600160a01b031681526020019081526020016000206040518060a0016040529081600082015481526020016001820154815260200160028201805461065090611615565b80601f016020809104026020016040519081016040528092919081815260200182805461067c90611615565b80156106c95780601f1061069e576101008083540402835291602001916106c9565b820191906000526020600020905b8154815290600101906020018083116106ac57829003601f168201915b50505091835250506003820154602082015260049091015460ff16151560409091015292915050565b6001600160a01b03811660009081526005602052604090206004015460609060ff1661073157604051637d93d32b60e01b815260040160405180910390fd5b6001600160a01b0382166000908152600660205260409020805461075490611615565b80601f016020809104026020016040519081016040528092919081815260200182805461078090611615565b80156107cd5780601f106107a2576101008083540402835291602001916107cd565b820191906000526020600020905b8154815290600101906020018083116107b057829003601f168201915b50505050509050919050565b6107e1610b8d565b6107ea81610c10565b50565b602083101561080f5760405163a512e2ff60e01b815260040160405180910390fd5b60408110156108315760405163a512e2ff60e01b815260040160405180910390fd5b83356000610842602082858761164f565b61084b91611679565b9050600061085d60406020868861164f565b61086691611679565b90506000610877856040818961164f565b8080601f01602080910402602001604051908101604052809392919081815260200183838082843760009201829052509394507f000000000000000000000000000000000000000000000000000000000000000092506108d5915050565b905060006002600060081b600054888d8d60209080926108f79392919061164f565b60405160200161090c96959493929190611697565b60405160208183030381529060405290507f00000000000000000000000000000000000000000000000000000000000000006001600160a01b031663f7e83aee82848b8b604051602001610962939291906116d3565b6040516020818303038152906040526040518363ffffffff1660e01b815260040161098e9291906116ed565b600060405180830381600087803b1580156109a857600080fd5b505af11580156109bc573d6000803e3d6000fd5b5050505050505050505050505050565b600660205260009081526040902080546109e590611615565b80601f0160208091040260200160405190810160405280929190818152602001828054610a1190611615565b8015610a5e5780601f10610a3357610100808354040283529160200191610a5e565b820191906000526020600020905b815481529060010190602001808311610a4157829003601f168201915b505050505081565b60056020526000908152604090208054600182015460028301805492939192610a8e90611615565b80601f0160208091040260200160405190810160405280929190818152602001828054610aba90611615565b8015610b075780601f10610adc57610100808354040283529160200191610b07565b820191906000526020600020905b815481529060010190602001808311610aea57829003601f168201915b50505050600383015460049093015491929160ff16905085565b610b29610b8d565b6001600160a01b038116610b5857604051631e4fbdf760e01b8152600060048201526024015b60405180910390fd5b6107ea81610bba565b600080600080610b718686610c40565b925092509250610b818282610c8d565b50909150505b92915050565b6001546001600160a01b031633146105615760405163118cdaa760e01b8152336004820152602401610b4f565b600180546001600160a01b038381166001600160a01b0319831681179093556040519116919082907f8be0079c531659141344cd1fd0a4f28419497f9722a3daafe3b4186f6b6457e090600090a35050565b5050565b600081815560405182917f379705e49518633184cc7e64f6a0c9361e35f275be47634afb6c2c603e5311e591a250565b60008060008351604103610c7a5760208401516040850151606086015160001a610c6c88828585610d46565b955095509550505050610c86565b50508151600091506002905b9250925092565b6000826003811115610ca157610ca161171b565b03610caa575050565b6001826003811115610cbe57610cbe61171b565b03610cdc5760405163f645eedf60e01b815260040160405180910390fd5b6002826003811115610cf057610cf061171b565b03610d115760405163fce698f760e01b815260048101829052602401610b4f565b6003826003811115610d2557610d2561171b565b03610c0c576040516335e2f38360e21b815260048101829052602401610b4f565b600080807f7fffffffffffffffffffffffffffffff5d576e7357a4501ddfe92f46681b20a0841115610d815750600091506003905082610e0b565b604080516000808252602082018084528a905260ff891692820192909252606081018790526080810186905260019060a0016020604051602081039080840390855afa158015610dd5573d6000803e3d6000fd5b5050604051601f1901519150506001600160a01b038116610e0157506000925060019150829050610e0b565b9250600091508190505b9450945094915050565b80356001600160a01b0381168114610e2c57600080fd5b919050565b634e487b7160e01b600052604160045260246000fd5b6040516101a081016001600160401b0381118282101715610e6a57610e6a610e31565b60405290565b604051601f8201601f191681016001600160401b0381118282101715610e9857610e98610e31565b604052919050565b60006001600160401b03821115610eb957610eb9610e31565b50601f01601f191660200190565b600082601f830112610ed857600080fd5b8135602083016000610ef1610eec84610ea0565b610e70565b9050828152858383011115610f0557600080fd5b82826020830137600092810160200192909252509392505050565b60008060008060008060c08789031215610f3957600080fd5b610f4287610e15565b9550602087013594506040870135935060608701356001600160401b03811115610f6b57600080fd5b610f7789828a01610ec7565b9350506080870135915060a08701356001600160401b03811115610f9a57600080fd5b610fa689828a01610ec7565b9150509295509295509295565b600080600080600060a08688031215610fcb57600080fd5b610fd486610e15565b9450602086013593506040860135925060608601356001600160401b03811115610ffd57600080fd5b61100988828901610ec7565b95989497509295608001359392505050565b6000806040838503121561102e57600080fd5b82356001600160401b0381111561104457600080fd5b61105085828601610ec7565b92505060208301356001600160401b0381111561106c57600080fd5b61107885828601610ec7565b9150509250929050565b60006020828403121561109457600080fd5b61109d82610e15565b9392505050565b60005b838110156110bf5781810151838201526020016110a7565b50506000910152565b600081518084526110e08160208601602086016110a4565b601f01601f19169290920160200192915050565b6020815281516020820152602082015160408201526000604083015160a0606084015261112460c08401826110c8565b9050606084015160808401526080840151151560a08401528091505092915050565b60208152600061109d60208301846110c8565b60008060006060848603121561116e57600080fd5b833592506020840135915060408401356001600160401b0381111561119257600080fd5b61119e86828701610ec7565b9150509250925092565b6000602082840312156111ba57600080fd5b5035919050565b60008083601f8401126111d357600080fd5b5081356001600160401b038111156111ea57600080fd5b60208301915083602082850101111561120257600080fd5b9250929050565b6000806000806040858703121561121f57600080fd5b84356001600160401b0381111561123557600080fd5b611241878288016111c1565b90955093505060208501356001600160401b0381111561126057600080fd5b61126c878288016111c1565b95989497509550505050565b85815284602082015260a06040820152600061129760a08301866110c8565b6060830194909452509015156080909101529392505050565b600082601f8301126112c157600080fd5b6112cb6080610e70565b8060808401858111156112dd57600080fd5b845b818110156112f75780518452602093840193016112df565b509095945050505050565b600082601f83011261131357600080fd5b8151611321610eec82610ea0565b81815284602083860101111561133657600080fd5b6113478260208301602087016110a4565b949350505050565b600082601f83011261136057600080fd5b81516001600160401b0381111561137957611379610e31565b8060051b61138960208201610e70565b918252602081850181019290810190868411156113a557600080fd5b6020860192505b838310156113eb5782516001600160401b038111156113ca57600080fd5b6113d9886020838a0101611302565b835250602092830192909101906113ac565b9695505050505050565b600082601f83011261140657600080fd5b6114106060610e70565b80606084018581111561142257600080fd5b845b818110156112f7578051801515811461143c57600080fd5b845260209384019301611424565b60006020828403121561145c57600080fd5b81516001600160401b0381111561147257600080fd5b8201610240818503121561148557600080fd5b61148d610e47565b8151815260208083015190820152604080830151908201526114b285606084016112b0565b606082015260e08201516001600160401b038111156114d057600080fd5b6114dc86828501611302565b6080830152506101008201516001600160401b038111156114fc57600080fd5b6115088682850161134f565b60a0830152506101208201516001600160401b0381111561152857600080fd5b61153486828501611302565b60c0830152506101408201516001600160401b0381111561155457600080fd5b61156086828501611302565b60e0830152506101608201516001600160401b0381111561158057600080fd5b61158c86828501611302565b610100830152506101808201516001600160401b038111156115ad57600080fd5b6115b986828501611302565b610120830152506101a08201516001600160401b038111156115da57600080fd5b6115e686828501611302565b610140830152506101c0820151610160820152611607856101e084016113f5565b610180820152949350505050565b600181811c9082168061162957607f821691505b60208210810361164957634e487b7160e01b600052602260045260246000fd5b50919050565b6000808585111561165f57600080fd5b8386111561166c57600080fd5b5050820193919092039150565b80356020831015610b8757600019602084900360031b1b1692915050565b60ff60f81b8760f81b16815260ff1986166001820152846020820152836040820152818360608301376000910160600190815295945050505050565b838152818360208301376000910160200190815292915050565b60408152600061170060408301856110c8565b828103602084015261171281856110c8565b95945050505050565b634e487b7160e01b600052602160045260246000fdfea2646970667358221220ec719784d6cd0e1c89d00757a7d3bcfb86a36d725245b01543eb293123e375fe64736f6c634300081c0033",
  "linkReferences": {},
  "deployedLinkReferences": {}
}