{
  "_format": "hh-sol-artifact-1",
  "contractName": "IdentityVerifier",
  "sourceName": "contracts/IdentityVerifier.sol",
  "abi": [
    {
      "inputs": [
        {
          "internalType": "address",
          "name": "_adminAddress",
          "type": "address"
        },
        {
          "internalType": "address",
          "name": "_identityVerificationHubV2",
          "type": "address"
        },
        {
          "internalType": "uint256",
          "name": "_scope",
          "type": "uint256"
        },
        {
          "internalType": "bytes32",
          "name": "_configId",
          "type": "bytes32"
        }
      ],
      "stateMutability": "nonpayable",
      "type": "constructor"
    },
    {
      "inputs": [],
      "name": "ECDSAInvalidSignature",
      "type": "error"
    },
    {
      "inputs": [
        {
          "internalType": "uint256",
          "name": "length",
          "type": "uint256"
        }
      ],
      "name": "ECDSAInvalidSignatureLength",
      "type": "error"
    },
    {
      "inputs": [
        {
          "internalType": "bytes32",
          "name": "s",
          "type": "bytes32"
        }
      ],
      "name": "ECDSAInvalidSignatureS",
      "type": "error"
    },
    {
      "inputs": [],
      "name": "InvalidDataFormat",
      "type": "error"
    },
    {
      "inputs": [],
      "name": "InvalidNationality",
      "type": "error"
    },
    {
      "inputs": [],
      "name": "InvalidSignature",
      "type": "error"
    },
    {
      "inputs": [],
      "name": "InvalidUserIdentifier",
      "type": "error"
    },
    {
      "inputs": [
        {
          "internalType": "address",
          "name": "owner",
          "type": "address"
        }
      ],
      "name": "OwnableInvalidOwner",
      "type": "error"
    },
    {
      "inputs": [
        {
          "internalType": "address",
          "name": "account",
          "type": "address"
        }
      ],
      "name": "OwnableUnauthorizedAccount",
      "type": "error"
    },
    {
      "inputs": [],
      "name": "RegisteredNullifier",
      "type": "error"
    },
    {
      "inputs": [],
      "name": "UnauthorizedCaller",
      "type": "error"
    },
    {
      "inputs": [],
      "name": "UserIdentifierAlreadyVerified",
      "type": "error"
    },
    {
      "inputs": [],
      "name": "UserNotVerified",
      "type": "error"
    },
    {
      "anonymous": false,
      "inputs": [
        {
          "indexed": true,
          "internalType": "address",
          "name": "userAddress",
          "type": "address"
        },
        {
          "indexed": false,
          "internalType": "bytes",
          "name": "signature",
          "type": "bytes"
        },
        {
          "indexed": false,
          "internalType": "uint256",
          "name": "timestamp",
          "type": "uint256"
        }
      ],
      "name": "AdminSignatureGenerated",
      "type": "event"
    },
    {
      "anonymous": false,
      "inputs": [
        {
          "indexed": true,
          "internalType": "address",
          "name": "previousOwner",
          "type": "address"
        },
        {
          "indexed": true,
          "internalType": "address",
          "name": "newOwner",
          "type": "address"
        }
      ],
      "name": "OwnershipTransferred",
      "type": "event"
    },
    {
      "anonymous": false,
      "inputs": [
        {
          "indexed": true,
          "internalType": "uint256",
          "name": "newScope",
          "type": "uint256"
        }
      ],
      "name": "ScopeUpdated",
      "type": "event"
    },
    {
      "anonymous": false,
      "inputs": [
        {
          "indexed": true,
          "internalType": "address",
          "name": "userAddress",
          "type": "address"
        },
        {
          "indexed": true,
          "internalType": "uint256",
          "name": "nullifier",
          "type": "uint256"
        },
        {
          "indexed": true,
          "internalType": "uint256",
          "name": "userIdentifier",
          "type": "uint256"
        },
        {
          "indexed": false,
          "internalType": "string",
          "name": "nationality",
          "type": "string"
        },
        {
          "indexed": false,
          "internalType": "uint256",
          "name": "timestamp",
          "type": "uint256"
        }
      ],
      "name": "UserVerified",
      "type": "event"
    },
    {
      "inputs": [],
      "name": "DOMAIN_SEPARATOR",
      "outputs": [
        {
          "internalType": "bytes32",
          "name": "",
          "type": "bytes32"
        }
      ],
      "stateMutability": "view",
      "type": "function"
    },
    {
      "inputs": [],
      "name": "VERIFICATION_MESSAGE_TYPEHASH",
      "outputs": [
        {
          "internalType": "bytes32",
          "name": "",
          "type": "bytes32"
        }
      ],
      "stateMutability": "view",
      "type": "function"
    },
    {
      "inputs": [],
      "name": "adminAddress",
      "outputs": [
        {
          "internalType": "address",
          "name": "",
          "type": "address"
        }
      ],
      "stateMutability": "view",
      "type": "function"
    },
    {
      "inputs": [
        {
          "internalType": "address",
          "name": "",
          "type": "address"
        }
      ],
      "name": "adminSignatures",
      "outputs": [
        {
          "internalType": "bytes",
          "name": "",
          "type": "bytes"
        }
      ],
      "stateMutability": "view",
      "type": "function"
    },
    {
      "inputs": [],
      "name": "configId",
      "outputs": [
        {
          "internalType": "bytes32",
          "name": "",
          "type": "bytes32"
        }
      ],
      "stateMutability": "view",
      "type": "function"
    },
    {
      "inputs": [
        {
          "internalType": "address",
          "name": "userAddress",
          "type": "address"
        }
      ],
      "name": "getAdminSignature",
      "outputs": [
        {
          "internalType": "bytes",
          "name": "",
          "type": "bytes"
        }
      ],
      "stateMutability": "view",
      "type": "function"
    },
    {
      "inputs": [],
      "name": "getConfigId",
      "outputs": [
        {
          "internalType": "bytes32",
          "name": "",
          "type": "bytes32"
        }
      ],
      "stateMutability": "view",
      "type": "function"
    },
    {
      "inputs": [
        {
          "internalType": "bytes32",
          "name": "",
          "type": "bytes32"
        },
        {
          "internalType": "bytes32",
          "name": "",
          "type": "bytes32"
        },
        {
          "internalType": "bytes",
          "name": "",
          "type": "bytes"
        }
      ],
      "name": "getConfigId",
      "outputs": [
        {
          "internalType": "bytes32",
          "name": "",
          "type": "bytes32"
        }
      ],
      "stateMutability": "view",
      "type": "function"
    },
    {
      "inputs": [
        {
          "internalType": "address",
          "name": "userAddress",
          "type": "address"
        },
        {
          "internalType": "uint256",
          "name": "nullifier",
          "type": "uint256"
        },
        {
          "internalType": "uint256",
          "name": "userIdentifier",
          "type": "uint256"
        },
        {
          "internalType": "string",
          "name": "nationality",
          "type": "string"
        },
        {
          "internalType": "uint256",
          "name": "timestamp",
          "type": "uint256"
        }
      ],
      "name": "getMessageHash",
      "outputs": [
        {
          "internalType": "bytes32",
          "name": "",
          "type": "bytes32"
        }
      ],
      "stateMutability": "view",
      "type": "function"
    },
    {
      "inputs": [],
      "name": "getScope",
      "outputs": [
        {
          "internalType": "uint256",
          "name": "",
          "type": "uint256"
        }
      ],
      "stateMutability": "view",
      "type": "function"
    },
    {
      "inputs": [
        {
          "internalType": "address",
          "name": "userAddress",
          "type": "address"
        }
      ],
      "name": "getVerificationData",
      "outputs": [
        {
          "components": [
            {
              "internalType": "uint256",
              "name": "nullifier",
              "type": "uint256"
            },
            {
              "internalType": "uint256",
              "name": "userIdentifier",
              "type": "uint256"
            },
            {
              "internalType": "string",
              "name": "nationality",
              "type": "string"
            },
            {
              "internalType": "uint256",
              "name": "timestamp",
              "type": "uint256"
            },
            {
              "internalType": "bool",
              "name": "isVerified",
              "type": "bool"
            }
          ],
          "internalType": "struct IdentityVerifier.VerificationData",
          "name": "",
          "type": "tuple"
        }
      ],
      "stateMutability": "view",
      "type": "function"
    },
    {
      "inputs": [
        {
          "internalType": "address",
          "name": "userAddress",
          "type": "address"
        }
      ],
      "name": "isUserVerified",
      "outputs": [
        {
          "internalType": "bool",
          "name": "",
          "type": "bool"
        }
      ],
      "stateMutability": "view",
      "type": "function"
    },
    {
      "inputs": [
        {
          "internalType": "bytes",
          "name": "output",
          "type": "bytes"
        },
        {
          "internalType": "bytes",
          "name": "userData",
          "type": "bytes"
        }
      ],
      "name": "onVerificationSuccess",
      "outputs": [],
      "stateMutability": "nonpayable",
      "type": "function"
    },
    {
      "inputs": [],
      "name": "owner",
      "outputs": [
        {
          "internalType": "address",
          "name": "",
          "type": "address"
        }
      ],
      "stateMutability": "view",
      "type": "function"
    },
    {
      "inputs": [],
      "name": "renounceOwnership",
      "outputs": [],
      "stateMutability": "nonpayable",
      "type": "function"
    },
    {
      "inputs": [],
      "name": "scope",
      "outputs": [
        {
          "internalType": "uint256",
          "name": "",
          "type": "uint256"
        }
      ],
      "stateMutability": "view",
      "type": "function"
    },
    {
      "inputs": [
        {
          "internalType": "address",
          "name": "newOwner",
          "type": "address"
        }
      ],
      "name": "transferOwnership",
      "outputs": [],
      "stateMutability": "nonpayable",
      "type": "function"
    },
    {
      "inputs": [
        {
          "internalType": "address",
          "name": "",
          "type": "address"
        }
      ],
      "name": "verifiedUsers",
      "outputs": [
        {
          "internalType": "uint256",
          "name": "nullifier",
          "type": "uint256"
        },
        {
          "internalType": "uint256",
          "name": "userIdentifier",
          "type": "uint256"
        },
        {
          "internalType": "string",
          "name": "nationality",
          "type": "string"
        },
        {
          "internalType": "uint256",
          "name": "timestamp",
          "type": "uint256"
        },
        {
          "internalType": "bool",
          "name": "isVerified",
          "type": "bool"
        }
      ],
      "stateMutability": "view",
      "type": "function"
    },
    {
      "inputs": [
        {
          "internalType": "address",
          "name": "userAddress",
          "type": "address"
        },
        {
          "internalType": "uint256",
          "name": "nullifier",
          "type": "uint256"
        },
        {
          "internalType": "uint256",
          "name": "userIdentifier",
          "type": "uint256"
        },
        {
          "internalType": "string",
          "name": "nationality",
          "type": "string"
        },
        {
          "internalType": "uint256",
          "name": "timestamp",
          "type": "uint256"
        },
        {
          "internalType": "bytes",
          "name": "signature",
          "type": "bytes"
        }
      ],
      "name": "verifyAdminSignature",
      "outputs": [
        {
          "internalType": "bool",
          "name": "",
          "type": "bool"
        }
      ],
      "stateMutability": "view",
      "type": "function"
    },
    {
      "inputs": [
        {
          "internalType": "bytes",
          "name": "proofPayload",
          "type": "bytes"
        },
        {
          "internalType": "bytes",
          "name": "userContextData",
          "type": "bytes"
        }
      ],
      "name": "verifySelfProof",
      "outputs": [],
      "stateMutability": "nonpayable",
      "type": "function"
    }
  ],
  "bytecode": "0x60e060405234801561001057600080fd5b50604051611dc6380380611dc683398101604081905261002f916101e8565b6001600160a01b0380841660805260008390558490811661006a57604051631e4fbdf760e01b81526000600482015260240160405180910390fd5b6100738161017a565b50600280546001600160a01b0319166001600160a01b03959095169490941790935560a092835260035550604080518082018252601081526f24b232b73a34ba3cab32b934b334b2b960811b6020918201528151808301835260018152603160f81b9082015281517f8b73c3c69bb8fe3d512ecc4cf759cc79239f7b179b0ffacaa9a75d522b39400f818301527f433800fed47aa798145e03f4cb479559d05f87d4328f79a7f8ca22d60688100a818401527fc89efdaa54c0f20c7adf612882df0950f5a951637e0307cdcb4c672f298b8bc6606082015262014a34608082015230818501528251808203909401845260c09081019092528251920191909120905261022b565b600180546001600160a01b038381166001600160a01b0319831681179093556040519116919082907f8be0079c531659141344cd1fd0a4f28419497f9722a3daafe3b4186f6b6457e090600090a35050565b80516001600160a01b03811681146101e357600080fd5b919050565b600080600080608085870312156101fe57600080fd5b610207856101cc565b9350610215602086016101cc565b6040860151606090960151949790965092505050565b60805160a05160c051611b3b61028b6000396000818161015e015281816103b90152818161047c0152610f310152600081816101a301528181610298015281816102c301526108330152600081816104ee01526108a60152611b3b6000f3fe608060405234801561001057600080fd5b506004361061012c5760003560e01c80639948251b116100ad578063d952c30311610071578063d952c303146102f8578063e1a788eb1461030b578063e35fe36614610320578063f2fde38b14610344578063fc6f94681461035757600080fd5b80639948251b14610239578063ace417e014610259578063ada1b31914610288578063b564eb27146102be578063d161802b146102e557600080fd5b8063715018a6116100f4578063715018a6146101cf5780638d2d8d6a146101d95780638da5cb5b146101ec57806395183eb714610211578063951cfa471461023157600080fd5b806329d9b720146101315780633644e51514610159578063597c5b4c1461018e578063634daa11146101a15780636e62d0a8146101c7575b600080fd5b61014461013f366004611173565b61036a565b60405190151581526020015b60405180910390f35b6101807f000000000000000000000000000000000000000000000000000000000000000081565b604051908152602001610150565b61018061019c366004611206565b61042f565b7f0000000000000000000000000000000000000000000000000000000000000000610180565b600054610180565b6101d76104cf565b005b6101d76101e736600461126e565b6104e3565b6001546001600160a01b03165b6040516001600160a01b039091168152602001610150565b61022461021f3660046112d5565b610553565b6040516101509190611347565b61018061067d565b61024c6102473660046112d5565b61068d565b6040516101509190611399565b6101446102673660046112d5565b6001600160a01b031660009081526006602052604090206004015460ff1690565b6101806102963660046113ac565b7f00000000000000000000000000000000000000000000000000000000000000009392505050565b6101807f000000000000000000000000000000000000000000000000000000000000000081565b6101d76102f3366004611443565b610774565b61024c6103063660046112d5565b610953565b610180600080516020611ae683398151915281565b61033361032e3660046112d5565b6109ed565b6040516101509594939291906114b2565b6101d76103523660046112d5565b610aa8565b6002546101f9906001600160a01b031681565b600080600080516020611ae683398151915288888888805190602001208860405160200161039d969594939291906114ea565b60405160208183030381529060405280519060200120905060007f0000000000000000000000000000000000000000000000000000000000000000826040516020016103ea92919061151b565b60408051601f198184030181529190528051602090910120905060006104108286610aeb565b6002546001600160a01b039081169116149a9950505050505050505050565b600080600080516020611ae6833981519152878787878051906020012087604051602001610462969594939291906114ea565b6040516020818303038152906040528051906020012090507f0000000000000000000000000000000000000000000000000000000000000000816040516020016104ad92919061151b565b6040516020818303038152906040528051906020012091505095945050505050565b6104d7610b17565b6104e16000610b44565b565b336001600160a01b037f0000000000000000000000000000000000000000000000000000000000000000161461052c57604051635c427cd960e01b815260040160405180910390fd5b60008280602001905181019061054291906116d0565b905061054e8183610b96565b505050565b6105876040518060a00160405280600081526020016000815260200160608152602001600081526020016000151581525090565b60066000836001600160a01b03166001600160a01b031681526020019081526020016000206040518060a001604052908160008201548152602001600182015481526020016002820180546105db9061189b565b80601f01602080910402602001604051908101604052809291908181526020018280546106079061189b565b80156106545780601f1061062957610100808354040283529160200191610654565b820191906000526020600020905b81548152906001019060200180831161063757829003601f168201915b50505091835250506003820154602082015260049091015460ff16151560409091015292915050565b600061068860035490565b905090565b6001600160a01b03811660009081526006602052604090206004015460609060ff166106cc57604051637d93d32b60e01b815260040160405180910390fd5b6001600160a01b038216600090815260076020526040902080546106ef9061189b565b80601f016020809104026020016040519081016040528092919081815260200182805461071b9061189b565b80156107685780601f1061073d57610100808354040283529160200191610768565b820191906000526020600020905b81548152906001019060200180831161074b57829003601f168201915b50505050509050919050565b60208310156107965760405163a512e2ff60e01b815260040160405180910390fd5b60408110156107b85760405163a512e2ff60e01b815260040160405180910390fd5b833560006107c960208285876118d5565b6107d2916118ff565b905060006107e46040602086886118d5565b6107ed916118ff565b905060006107fe85604081896118d5565b8080601f01602080910402602001604051908101604052809392919081815260200183838082843760009201829052509394507f0000000000000000000000000000000000000000000000000000000000000000925061085c915050565b905060006002600060081b600054888d8d602090809261087e939291906118d5565b6040516020016108939695949392919061191d565b60405160208183030381529060405290507f00000000000000000000000000000000000000000000000000000000000000006001600160a01b031663f7e83aee82848b8b6040516020016108e993929190611959565b6040516020818303038152906040526040518363ffffffff1660e01b8152600401610915929190611973565b600060405180830381600087803b15801561092f57600080fd5b505af1158015610943573d6000803e3d6000fd5b5050505050505050505050505050565b6007602052600090815260409020805461096c9061189b565b80601f01602080910402602001604051908101604052809291908181526020018280546109989061189b565b80156109e55780601f106109ba576101008083540402835291602001916109e5565b820191906000526020600020905b8154815290600101906020018083116109c857829003601f168201915b505050505081565b60066020526000908152604090208054600182015460028301805492939192610a159061189b565b80601f0160208091040260200160405190810160405280929190818152602001828054610a419061189b565b8015610a8e5780601f10610a6357610100808354040283529160200191610a8e565b820191906000526020600020905b815481529060010190602001808311610a7157829003601f168201915b50505050600383015460049093015491929160ff16905085565b610ab0610b17565b6001600160a01b038116610adf57604051631e4fbdf760e01b8152600060048201526024015b60405180910390fd5b610ae881610b44565b50565b600080600080610afb8686610dd7565b925092509250610b0b8282610e24565b50909150505b92915050565b6001546001600160a01b031633146104e15760405163118cdaa760e01b8152336004820152602401610ad6565b600180546001600160a01b038381166001600160a01b0319831681179093556040519116919082907f8be0079c531659141344cd1fd0a4f28419497f9722a3daafe3b4186f6b6457e090600090a35050565b8160200151600003610bbb5760405163f0c426db60e01b815260040160405180910390fd5b60408083015160009081526004602052205415610beb57604051631165e35160e11b815260040160405180910390fd5b60208083015160009081526005909152604090205460ff1615610c215760405163cab65ccd60e01b815260040160405180910390fd5b8160e0015151600003610c4757604051631d89d0ab60e11b815260040160405180910390fd5b6020808301805160408086018051600090815260048652828120939093558351835260058552818320805460ff19166001908117909155825160a08101845291518252935181860190815260e0880151828401908152426060840152608083018690523380865260069097529290932081518155925193830193909355516002820190610cd490826119ef565b50606082015160038201556080909101516004909101805460ff19169115159190911790556040830151602084015160e0850151600092610d1792859242610ee1565b6001600160a01b0383166000908152600760205260409020909150610d3c82826119ef565b5083602001518460400151836001600160a01b03167f1cb4cb11e427b149571bdd797a651e51618ab02dca30b7753b0732255761f4028760e0015142604051610d86929190611aad565b60405180910390a4816001600160a01b03167f012f548f41d1d41001e5063672f002d6555e4ff68a593d055bdf31cec3fbbb6c8242604051610dc9929190611aad565b60405180910390a250505050565b60008060008351604103610e115760208401516040850151606086015160001a610e0388828585610f99565b955095509550505050610e1d565b50508151600091506002905b9250925092565b6000826003811115610e3857610e38611acf565b03610e41575050565b6001826003811115610e5557610e55611acf565b03610e735760405163f645eedf60e01b815260040160405180910390fd5b6002826003811115610e8757610e87611acf565b03610ea85760405163fce698f760e01b815260048101829052602401610ad6565b6003826003811115610ebc57610ebc611acf565b03610edd576040516335e2f38360e21b815260048101829052602401610ad6565b5050565b60606000600080516020611ae6833981519152878787878051906020012087604051602001610f15969594939291906114ea565b60405160208183030381529060405280519060200120905060007f000000000000000000000000000000000000000000000000000000000000000082604051602001610f6292919061151b565b60408051808303601f1901815282825280516020918201208184015281518084039091018152918101905298975050505050505050565b600080807f7fffffffffffffffffffffffffffffff5d576e7357a4501ddfe92f46681b20a0841115610fd4575060009150600390508261105e565b604080516000808252602082018084528a905260ff891692820192909252606081018790526080810186905260019060a0016020604051602081039080840390855afa158015611028573d6000803e3d6000fd5b5050604051601f1901519150506001600160a01b0381166110545750600092506001915082905061105e565b9250600091508190505b9450945094915050565b80356001600160a01b038116811461107f57600080fd5b919050565b634e487b7160e01b600052604160045260246000fd5b6040516101a081016001600160401b03811182821017156110bd576110bd611084565b60405290565b604051601f8201601f191681016001600160401b03811182821017156110eb576110eb611084565b604052919050565b60006001600160401b0382111561110c5761110c611084565b50601f01601f191660200190565b600082601f83011261112b57600080fd5b813560208301600061114461113f846110f3565b6110c3565b905082815285838301111561115857600080fd5b82826020830137600092810160200192909252509392505050565b60008060008060008060c0878903121561118c57600080fd5b61119587611068565b9550602087013594506040870135935060608701356001600160401b038111156111be57600080fd5b6111ca89828a0161111a565b9350506080870135915060a08701356001600160401b038111156111ed57600080fd5b6111f989828a0161111a565b9150509295509295509295565b600080600080600060a0868803121561121e57600080fd5b61122786611068565b9450602086013593506040860135925060608601356001600160401b0381111561125057600080fd5b61125c8882890161111a565b95989497509295608001359392505050565b6000806040838503121561128157600080fd5b82356001600160401b0381111561129757600080fd5b6112a38582860161111a565b92505060208301356001600160401b038111156112bf57600080fd5b6112cb8582860161111a565b9150509250929050565b6000602082840312156112e757600080fd5b6112f082611068565b9392505050565b60005b838110156113125781810151838201526020016112fa565b50506000910152565b600081518084526113338160208601602086016112f7565b601f01601f19169290920160200192915050565b6020815281516020820152602082015160408201526000604083015160a0606084015261137760c084018261131b565b9050606084015160808401526080840151151560a08401528091505092915050565b6020815260006112f0602083018461131b565b6000806000606084860312156113c157600080fd5b833592506020840135915060408401356001600160401b038111156113e557600080fd5b6113f18682870161111a565b9150509250925092565b60008083601f84011261140d57600080fd5b5081356001600160401b0381111561142457600080fd5b60208301915083602082850101111561143c57600080fd5b9250929050565b6000806000806040858703121561145957600080fd5b84356001600160401b0381111561146f57600080fd5b61147b878288016113fb565b90955093505060208501356001600160401b0381111561149a57600080fd5b6114a6878288016113fb565b95989497509550505050565b85815284602082015260a0604082015260006114d160a083018661131b565b6060830194909452509015156080909101529392505050565b9586526001600160a01b0394909416602086015260408501929092526060840152608083015260a082015260c00190565b61190160f01b81526002810192909252602282015260420190565b600082601f83011261154757600080fd5b61155160806110c3565b80608084018581111561156357600080fd5b845b8181101561157d578051845260209384019301611565565b509095945050505050565b600082601f83011261159957600080fd5b81516115a761113f826110f3565b8181528460208386010111156115bc57600080fd5b6115cd8260208301602087016112f7565b949350505050565b600082601f8301126115e657600080fd5b81516001600160401b038111156115ff576115ff611084565b8060051b61160f602082016110c3565b9182526020818501810192908101908684111561162b57600080fd5b6020860192505b838310156116715782516001600160401b0381111561165057600080fd5b61165f886020838a0101611588565b83525060209283019290910190611632565b9695505050505050565b600082601f83011261168c57600080fd5b61169660606110c3565b8060608401858111156116a857600080fd5b845b8181101561157d57805180151581146116c257600080fd5b8452602093840193016116aa565b6000602082840312156116e257600080fd5b81516001600160401b038111156116f857600080fd5b8201610240818503121561170b57600080fd5b61171361109a565b8151815260208083015190820152604080830151908201526117388560608401611536565b606082015260e08201516001600160401b0381111561175657600080fd5b61176286828501611588565b6080830152506101008201516001600160401b0381111561178257600080fd5b61178e868285016115d5565b60a0830152506101208201516001600160401b038111156117ae57600080fd5b6117ba86828501611588565b60c0830152506101408201516001600160401b038111156117da57600080fd5b6117e686828501611588565b60e0830152506101608201516001600160401b0381111561180657600080fd5b61181286828501611588565b610100830152506101808201516001600160401b0381111561183357600080fd5b61183f86828501611588565b610120830152506101a08201516001600160401b0381111561186057600080fd5b61186c86828501611588565b610140830152506101c082015161016082015261188d856101e0840161167b565b610180820152949350505050565b600181811c908216806118af57607f821691505b6020821081036118cf57634e487b7160e01b600052602260045260246000fd5b50919050565b600080858511156118e557600080fd5b838611156118f257600080fd5b5050820193919092039150565b80356020831015610b1157600019602084900360031b1b1692915050565b60ff60f81b8760f81b16815260ff1986166001820152846020820152836040820152818360608301376000910160600190815295945050505050565b838152818360208301376000910160200190815292915050565b604081526000611986604083018561131b565b8281036020840152611998818561131b565b95945050505050565b601f82111561054e57806000526020600020601f840160051c810160208510156119c85750805b601f840160051c820191505b818110156119e857600081556001016119d4565b5050505050565b81516001600160401b03811115611a0857611a08611084565b611a1c81611a16845461189b565b846119a1565b6020601f821160018114611a505760008315611a385750848201515b600019600385901b1c1916600184901b1784556119e8565b600084815260208120601f198516915b82811015611a805787850151825560209485019460019092019101611a60565b5084821015611a9e5786840151600019600387901b60f8161c191681555b50505050600190811b01905550565b604081526000611ac0604083018561131b565b90508260208301529392505050565b634e487b7160e01b600052602160045260246000fdfe8db8d84faf8b2365d4ffd175c1a5bf60a3c3bb8fd65fb126c9bbc39786d11da7a2646970667358221220506d1d33a5329153c3c7211bb594b8d6c4dd7677221bd05898c634f58f68fe9c64736f6c634300081c0033",
  "linkReferences": {},
  "deployedLinkReferences": {}
}