{
  "contracts/ReliefPools.sol": {
    "ReliefPools": {
      "abi": [
        {
          "inputs": [
            {
              "internalType": "address",
              "name": "_adminAddress",
              "type": "address"
            },
            {
              "internalType": "address",
              "name": "_usdcToken",
              "type": "address"
            },
            {
              "internalType": "address",
              "name": "_cctpMessageTransmitter",
              "type": "address"
            }
          ],
          "stateMutability": "nonpayable",
          "type": "constructor"
        },
        {
          "anonymous": false,
          "inputs": [
            {
              "indexed": true,
              "internalType": "string",
              "name": "poolId",
              "type": "string"
            },
            {
              "indexed": true,
              "internalType": "address",
              "name": "donor",
              "type": "address"
            },
            {
              "indexed": false,
              "internalType": "uint32",
              "name": "sourceDomain",
              "type": "uint32"
            },
            {
              "indexed": false,
              "internalType": "uint256",
              "name": "amount",
              "type": "uint256"
            },
            {
              "indexed": false,
              "internalType": "uint256",
              "name": "timestamp",
              "type": "uint256"
            },
            {
              "indexed": false,
              "internalType": "string",
              "name": "location",
              "type": "string"
            }
          ],
          "name": "DonationMade",
          "type": "event"
        },
        {
          "anonymous": false,
          "inputs": [
            {
              "indexed": true,
              "internalType": "string",
              "name": "poolId",
              "type": "string"
            },
            {
              "indexed": true,
              "internalType": "address",
              "name": "claimer",
              "type": "address"
            },
            {
              "indexed": true,
              "internalType": "address",
              "name": "recipient",
              "type": "address"
            },
            {
              "indexed": false,
              "internalType": "uint256",
              "name": "nullifier",
              "type": "uint256"
            },
            {
              "indexed": false,
              "internalType": "uint256",
              "name": "userIdentifier",
              "type": "uint256"
            },
            {
              "indexed": false,
              "internalType": "string",
              "name": "nationality",
              "type": "string"
            },
            {
              "indexed": false,
              "internalType": "uint256",
              "name": "amount",
              "type": "uint256"
            },
            {
              "indexed": false,
              "internalType": "uint256",
              "name": "timestamp",
              "type": "uint256"
            }
          ],
          "name": "FundsClaimed",
          "type": "event"
        },
        {
          "anonymous": false,
          "inputs": [
            {
              "indexed": true,
              "internalType": "address",
              "name": "previousOwner",
              "type": "address"
            },
            {
              "indexed": true,
              "internalType": "address",
              "name": "newOwner",
              "type": "address"
            }
          ],
          "name": "OwnershipTransferred",
          "type": "event"
        },
        {
          "anonymous": false,
          "inputs": [
            {
              "indexed": true,
              "internalType": "string",
              "name": "poolId",
              "type": "string"
            },
            {
              "indexed": false,
              "internalType": "bool",
              "name": "isActive",
              "type": "bool"
            }
          ],
          "name": "PoolStatusChanged",
          "type": "event"
        },
        {
          "anonymous": false,
          "inputs": [
            {
              "indexed": true,
              "internalType": "string",
              "name": "poolId",
              "type": "string"
            },
            {
              "indexed": false,
              "internalType": "enum ReliefPools.DisasterTypeEnum",
              "name": "disasterType",
              "type": "uint8"
            },
            {
              "indexed": false,
              "internalType": "enum ReliefPools.ClassificationEnum",
              "name": "classification",
              "type": "uint8"
            },
            {
              "indexed": false,
              "internalType": "string",
              "name": "nationalityRequired",
              "type": "string"
            },
            {
              "indexed": false,
              "internalType": "uint256",
              "name": "allocatedFundsPerPerson",
              "type": "uint256"
            }
          ],
          "name": "ReliefPoolCreated",
          "type": "event"
        },
        {
          "inputs": [],
          "name": "DOMAIN_SEPARATOR",
          "outputs": [
            {
              "internalType": "bytes32",
              "name": "",
              "type": "bytes32"
            }
          ],
          "stateMutability": "view",
          "type": "function"
        },
        {
          "inputs": [],
          "name": "VERIFICATION_MESSAGE_TYPEHASH",
          "outputs": [
            {
              "internalType": "bytes32",
              "name": "",
              "type": "bytes32"
            }
          ],
          "stateMutability": "view",
          "type": "function"
        },
        {
          "inputs": [],
          "name": "adminAddress",
          "outputs": [
            {
              "internalType": "address",
              "name": "",
              "type": "address"
            }
          ],
          "stateMutability": "view",
          "type": "function"
        },
        {
          "inputs": [],
          "name": "cctpMessageTransmitter",
          "outputs": [
            {
              "internalType": "address",
              "name": "",
              "type": "address"
            }
          ],
          "stateMutability": "view",
          "type": "function"
        },
        {
          "inputs": [
            {
              "internalType": "string",
              "name": "poolId",
              "type": "string"
            },
            {
              "internalType": "uint256",
              "name": "userIdentifier",
              "type": "uint256"
            }
          ],
          "name": "checkPersonClaimedFromPool",
          "outputs": [
            {
              "internalType": "bool",
              "name": "",
              "type": "bool"
            }
          ],
          "stateMutability": "view",
          "type": "function"
        },
        {
          "inputs": [
            {
              "internalType": "string",
              "name": "poolId",
              "type": "string"
            },
            {
              "internalType": "uint256",
              "name": "nullifier",
              "type": "uint256"
            },
            {
              "internalType": "uint256",
              "name": "userIdentifier",
              "type": "uint256"
            },
            {
              "internalType": "string",
              "name": "nationality",
              "type": "string"
            },
            {
              "internalType": "uint256",
              "name": "timestamp",
              "type": "uint256"
            },
            {
              "internalType": "address",
              "name": "recipient",
              "type": "address"
            }
          ],
          "name": "claimRelief",
          "outputs": [],
          "stateMutability": "nonpayable",
          "type": "function"
        },
        {
          "inputs": [
            {
              "internalType": "string",
              "name": "poolId",
              "type": "string"
            },
            {
              "internalType": "enum ReliefPools.DisasterTypeEnum",
              "name": "disasterType",
              "type": "uint8"
            },
            {
              "internalType": "enum ReliefPools.ClassificationEnum",
              "name": "classification",
              "type": "uint8"
            },
            {
              "internalType": "string",
              "name": "nationalityRequired",
              "type": "string"
            },
            {
              "internalType": "uint256",
              "name": "allocatedFundsPerPerson",
              "type": "uint256"
            }
          ],
          "name": "createReliefPool",
          "outputs": [
            {
              "internalType": "string",
              "name": "",
              "type": "string"
            }
          ],
          "stateMutability": "nonpayable",
          "type": "function"
        },
        {
          "inputs": [
            {
              "internalType": "string",
              "name": "poolId",
              "type": "string"
            },
            {
              "internalType": "uint256",
              "name": "amount",
              "type": "uint256"
            },
            {
              "internalType": "string",
              "name": "location",
              "type": "string"
            }
          ],
          "name": "donate",
          "outputs": [],
          "stateMutability": "nonpayable",
          "type": "function"
        },
        {
          "inputs": [
            {
              "internalType": "uint256",
              "name": "amount",
              "type": "uint256"
            }
          ],
          "name": "emergencyWithdraw",
          "outputs": [],
          "stateMutability": "nonpayable",
          "type": "function"
        },
        {
          "inputs": [],
          "name": "getAllPoolIds",
          "outputs": [
            {
              "internalType": "string[]",
              "name": "",
              "type": "string[]"
            }
          ],
          "stateMutability": "view",
          "type": "function"
        },
        {
          "inputs": [
            {
              "internalType": "string",
              "name": "poolId",
              "type": "string"
            },
            {
              "internalType": "address",
              "name": "beneficiary",
              "type": "address"
            }
          ],
          "name": "getBeneficiary",
          "outputs": [
            {
              "components": [
                {
                  "internalType": "uint256",
                  "name": "nullifier",
                  "type": "uint256"
                },
                {
                  "internalType": "uint256",
                  "name": "userIdentifier",
                  "type": "uint256"
                },
                {
                  "internalType": "address",
                  "name": "walletAddress",
                  "type": "address"
                },
                {
                  "internalType": "uint256",
                  "name": "amount",
                  "type": "uint256"
                },
                {
                  "internalType": "uint256",
                  "name": "timestamp",
                  "type": "uint256"
                }
              ],
              "internalType": "struct ReliefPools.Beneficiary",
              "name": "",
              "type": "tuple"
            }
          ],
          "stateMutability": "view",
          "type": "function"
        },
        {
          "inputs": [],
          "name": "getContractBalance",
          "outputs": [
            {
              "internalType": "uint256",
              "name": "",
              "type": "uint256"
            }
          ],
          "stateMutability": "view",
          "type": "function"
        },
        {
          "inputs": [
            {
              "internalType": "string",
              "name": "poolId",
              "type": "string"
            },
            {
              "internalType": "address",
              "name": "donor",
              "type": "address"
            }
          ],
          "name": "getDonor",
          "outputs": [
            {
              "components": [
                {
                  "internalType": "uint256",
                  "name": "id",
                  "type": "uint256"
                },
                {
                  "internalType": "address",
                  "name": "walletAddress",
                  "type": "address"
                },
                {
                  "internalType": "uint256",
                  "name": "amount",
                  "type": "uint256"
                },
                {
                  "internalType": "uint256",
                  "name": "timestamp",
                  "type": "uint256"
                },
                {
                  "internalType": "bool",
                  "name": "isCrossChain",
                  "type": "bool"
                },
                {
                  "internalType": "uint32",
                  "name": "sourceDomain",
                  "type": "uint32"
                },
                {
                  "internalType": "string",
                  "name": "location",
                  "type": "string"
                }
              ],
              "internalType": "struct ReliefPools.Donor",
              "name": "",
              "type": "tuple"
            }
          ],
          "stateMutability": "view",
          "type": "function"
        },
        {
          "inputs": [
            {
              "internalType": "uint256",
              "name": "userIdentifier",
              "type": "uint256"
            }
          ],
          "name": "getPersonClaimedPools",
          "outputs": [
            {
              "internalType": "string[]",
              "name": "",
              "type": "string[]"
            }
          ],
          "stateMutability": "view",
          "type": "function"
        },
        {
          "inputs": [
            {
              "internalType": "uint256",
              "name": "index",
              "type": "uint256"
            }
          ],
          "name": "getPoolIdByIndex",
          "outputs": [
            {
              "internalType": "string",
              "name": "",
              "type": "string"
            }
          ],
          "stateMutability": "view",
          "type": "function"
        },
        {
          "inputs": [
            {
              "internalType": "string",
              "name": "poolId",
              "type": "string"
            }
          ],
          "name": "getReliefPool",
          "outputs": [
            {
              "components": [
                {
                  "internalType": "string",
                  "name": "id",
                  "type": "string"
                },
                {
                  "internalType": "enum ReliefPools.DisasterTypeEnum",
                  "name": "disasterType",
                  "type": "uint8"
                },
                {
                  "internalType": "enum ReliefPools.ClassificationEnum",
                  "name": "classification",
                  "type": "uint8"
                },
                {
                  "internalType": "string",
                  "name": "nationalityRequired",
                  "type": "string"
                },
                {
                  "internalType": "uint256",
                  "name": "allocatedFundsPerPerson",
                  "type": "uint256"
                },
                {
                  "internalType": "uint256",
                  "name": "totalBeneficiaries",
                  "type": "uint256"
                },
                {
                  "internalType": "uint256",
                  "name": "totalDonors",
                  "type": "uint256"
                },
                {
                  "internalType": "uint256",
                  "name": "totalAmountClaimed",
                  "type": "uint256"
                },
                {
                  "internalType": "uint256",
                  "name": "totalAmountDonated",
                  "type": "uint256"
                },
                {
                  "internalType": "bool",
                  "name": "isActive",
                  "type": "bool"
                }
              ],
              "internalType": "struct ReliefPools.ReliefPool",
              "name": "",
              "type": "tuple"
            }
          ],
          "stateMutability": "view",
          "type": "function"
        },
        {
          "inputs": [],
          "name": "getTotalPools",
          "outputs": [
            {
              "internalType": "uint256",
              "name": "",
              "type": "uint256"
            }
          ],
          "stateMutability": "view",
          "type": "function"
        },
        {
          "inputs": [
            {
              "internalType": "uint32",
              "name": "sourceDomain",
              "type": "uint32"
            },
            {
              "internalType": "bytes32",
              "name": "sender",
              "type": "bytes32"
            },
            {
              "internalType": "uint32",
              "name": "finalityThresholdExecuted",
              "type": "uint32"
            },
            {
              "internalType": "bytes",
              "name": "messageBody",
              "type": "bytes"
            }
          ],
          "name": "handleReceiveFinalizedMessage",
          "outputs": [
            {
              "internalType": "bool",
              "name": "",
              "type": "bool"
            }
          ],
          "stateMutability": "nonpayable",
          "type": "function"
        },
        {
          "inputs": [
            {
              "internalType": "uint32",
              "name": "sourceDomain",
              "type": "uint32"
            },
            {
              "internalType": "bytes32",
              "name": "sender",
              "type": "bytes32"
            },
            {
              "internalType": "uint32",
              "name": "finalityThresholdExecuted",
              "type": "uint32"
            },
            {
              "internalType": "bytes",
              "name": "messageBody",
              "type": "bytes"
            }
          ],
          "name": "handleReceiveUnfinalizedMessage",
          "outputs": [
            {
              "internalType": "bool",
              "name": "",
              "type": "bool"
            }
          ],
          "stateMutability": "nonpayable",
          "type": "function"
        },
        {
          "inputs": [
            {
              "internalType": "string",
              "name": "",
              "type": "string"
            },
            {
              "internalType": "uint256",
              "name": "",
              "type": "uint256"
            }
          ],
          "name": "hasPersonClaimedFromPool",
          "outputs": [
            {
              "internalType": "bool",
              "name": "",
              "type": "bool"
            }
          ],
          "stateMutability": "view",
          "type": "function"
        },
        {
          "inputs": [],
          "name": "owner",
          "outputs": [
            {
              "internalType": "address",
              "name": "",
              "type": "address"
            }
          ],
          "stateMutability": "view",
          "type": "function"
        },
        {
          "inputs": [
            {
              "internalType": "uint256",
              "name": "",
              "type": "uint256"
            },
            {
              "internalType": "uint256",
              "name": "",
              "type": "uint256"
            }
          ],
          "name": "personClaimedPools",
          "outputs": [
            {
              "internalType": "string",
              "name": "",
              "type": "string"
            }
          ],
          "stateMutability": "view",
          "type": "function"
        },
        {
          "inputs": [
            {
              "internalType": "string",
              "name": "",
              "type": "string"
            },
            {
              "internalType": "address",
              "name": "",
              "type": "address"
            }
          ],
          "name": "poolBeneficiaries",
          "outputs": [
            {
              "internalType": "uint256",
              "name": "nullifier",
              "type": "uint256"
            },
            {
              "internalType": "uint256",
              "name": "userIdentifier",
              "type": "uint256"
            },
            {
              "internalType": "address",
              "name": "walletAddress",
              "type": "address"
            },
            {
              "internalType": "uint256",
              "name": "amount",
              "type": "uint256"
            },
            {
              "internalType": "uint256",
              "name": "timestamp",
              "type": "uint256"
            }
          ],
          "stateMutability": "view",
          "type": "function"
        },
        {
          "inputs": [
            {
              "internalType": "string",
              "name": "",
              "type": "string"
            },
            {
              "internalType": "address",
              "name": "",
              "type": "address"
            }
          ],
          "name": "poolDonors",
          "outputs": [
            {
              "internalType": "uint256",
              "name": "id",
              "type": "uint256"
            },
            {
              "internalType": "address",
              "name": "walletAddress",
              "type": "address"
            },
            {
              "internalType": "uint256",
              "name": "amount",
              "type": "uint256"
            },
            {
              "internalType": "uint256",
              "name": "timestamp",
              "type": "uint256"
            },
            {
              "internalType": "bool",
              "name": "isCrossChain",
              "type": "bool"
            },
            {
              "internalType": "uint32",
              "name": "sourceDomain",
              "type": "uint32"
            },
            {
              "internalType": "string",
              "name": "location",
              "type": "string"
            }
          ],
          "stateMutability": "view",
          "type": "function"
        },
        {
          "inputs": [
            {
              "internalType": "uint256",
              "name": "",
              "type": "uint256"
            }
          ],
          "name": "poolIds",
          "outputs": [
            {
              "internalType": "string",
              "name": "",
              "type": "string"
            }
          ],
          "stateMutability": "view",
          "type": "function"
        },
        {
          "inputs": [
            {
              "internalType": "string",
              "name": "",
              "type": "string"
            }
          ],
          "name": "reliefPools",
          "outputs": [
            {
              "internalType": "string",
              "name": "id",
              "type": "string"
            },
            {
              "internalType": "enum ReliefPools.DisasterTypeEnum",
              "name": "disasterType",
              "type": "uint8"
            },
            {
              "internalType": "enum ReliefPools.ClassificationEnum",
              "name": "classification",
              "type": "uint8"
            },
            {
              "internalType": "string",
              "name": "nationalityRequired",
              "type": "string"
            },
            {
              "internalType": "uint256",
              "name": "allocatedFundsPerPerson",
              "type": "uint256"
            },
            {
              "internalType": "uint256",
              "name": "totalBeneficiaries",
              "type": "uint256"
            },
            {
              "internalType": "uint256",
              "name": "totalDonors",
              "type": "uint256"
            },
            {
              "internalType": "uint256",
              "name": "totalAmountClaimed",
              "type": "uint256"
            },
            {
              "internalType": "uint256",
              "name": "totalAmountDonated",
              "type": "uint256"
            },
            {
              "internalType": "bool",
              "name": "isActive",
              "type": "bool"
            }
          ],
          "stateMutability": "view",
          "type": "function"
        },
        {
          "inputs": [],
          "name": "renounceOwnership",
          "outputs": [],
          "stateMutability": "nonpayable",
          "type": "function"
        },
        {
          "inputs": [
            {
              "internalType": "address",
              "name": "_cctpMessageTransmitter",
              "type": "address"
            }
          ],
          "name": "setCCTPMessageTransmitter",
          "outputs": [],
          "stateMutability": "nonpayable",
          "type": "function"
        },
        {
          "inputs": [
            {
              "internalType": "string",
              "name": "poolId",
              "type": "string"
            }
          ],
          "name": "togglePoolStatus",
          "outputs": [],
          "stateMutability": "nonpayable",
          "type": "function"
        },
        {
          "inputs": [
            {
              "internalType": "address",
              "name": "newOwner",
              "type": "address"
            }
          ],
          "name": "transferOwnership",
          "outputs": [],
          "stateMutability": "nonpayable",
          "type": "function"
        },
        {
          "inputs": [],
          "name": "usdcToken",
          "outputs": [
            {
              "internalType": "contract IERC20",
              "name": "",
              "type": "address"
            }
          ],
          "stateMutability": "view",
          "type": "function"
        },
        {
          "inputs": [
            {
              "internalType": "uint256",
              "name": "nullifier",
              "type": "uint256"
            },
            {
              "internalType": "uint256",
              "name": "userIdentifier",
              "type": "uint256"
            },
            {
              "internalType": "string",
              "name": "nationality",
              "type": "string"
            },
            {
              "internalType": "uint256",
              "name": "timestamp",
              "type": "uint256"
            },
            {
              "internalType": "bytes",
              "name": "adminSignature",
              "type": "bytes"
            }
          ],
          "name": "verifyAdminSignature",
          "outputs": [
            {
              "internalType": "bool",
              "name": "",
              "type": "bool"
            }
          ],
          "stateMutability": "view",
          "type": "function"
        }
      ],
      "evm": {
        "bytecode": {
          "linkReferences": {},
          "object": "60c06040523480156200001157600080fd5b506040516200425c3803806200425c8339810160408190526200003491620002d5565b6000620000406200019b565b600080546001600160a01b0319166001600160a01b0383169081178255604051929350916000805160206200423c833981519152908290a350600180546001600160a01b038086166001600160a01b0319928316179092556001600160601b0319606085901b166080526002805492841692909116919091179055620000c6336200019f565b604080518082018252600b81526a52656c696566506f6f6c7360a81b6020918201528151808301835260018152603160f81b90820152905162000176917f8b73c3c69bb8fe3d512ecc4cf759cc79239f7b179b0ffacaa9a75d522b39400f917f3323a8070b7081e28ca423d850c49e17147e941af41daf0ad176ecf1a5481b67917fc89efdaa54c0f20c7adf612882df0950f5a951637e0307cdcb4c672f298b8bc691612105913091016200031e565b60408051601f19818403018152919052805160209091012060a052506200034e915050565b3390565b620001a96200019b565b6001600160a01b0316620001bc620002a9565b6001600160a01b03161462000218576040805162461bcd60e51b815260206004820181905260248201527f4f776e61626c653a2063616c6c6572206973206e6f7420746865206f776e6572604482015290519081900360640190fd5b6001600160a01b0381166200025f5760405162461bcd60e51b8152600401808060200182810382526026815260200180620042166026913960400191505060405180910390fd5b600080546040516001600160a01b03808516939216916000805160206200423c83398151915291a3600080546001600160a01b0319166001600160a01b0392909216919091179055565b6000546001600160a01b031690565b80516001600160a01b0381168114620002d057600080fd5b919050565b600080600060608486031215620002ea578283fd5b620002f584620002b8565b92506200030560208501620002b8565b91506200031560408501620002b8565b90509250925092565b9485526020850193909352604084019190915261ffff1660608301526001600160a01b0316608082015260a00190565b60805160601c60a051613e836200039360003980610d57528061216552508061060d52806107e252806108895280610dec5280610edb52806116525250613e836000f3fe608060405234801561001057600080fd5b50600436106101f05760003560e01c80638be554561161010f578063d697d231116100a2578063f2fde38b11610071578063f2fde38b14610453578063f6ab087214610466578063fc6f946814610479578063feb1653214610481576101f0565b8063d697d23114610407578063d9db6e0314610430578063e1a788eb14610443578063f19c3d5b1461044b576101f0565b8063aa62e312116100de578063aa62e312146103b9578063b2396e6c146103d9578063b9adb2f7146103ec578063d3ffe67a146103ff576101f0565b80638be55456146103705780638c73eb04146103835780638da5cb5b1461038b5780639605cfe514610393576101f0565b80635312ea8e116101875780637332cec4116101565780637332cec41461030a578063734123c41461032a5780637c92f2191461034a5780638bbd58e21461035d576101f0565b80635312ea8e146102d457806369883b4e146102e75780636f9fb98a146102fa578063715018a614610302576101f0565b80631376938d116101c35780631376938d1461026c57806320de75921461028c57806321050edc146102ac5780633644e515146102bf576101f0565b80630e0b8c8b146101f557806311cffb671461020a57806311eac855146102335780631223310a14610248575b600080fd5b610208610203366004613344565b610494565b005b61021d6102183660046134b3565b61087c565b60405161022a91906136ae565b60405180910390f35b61023b610887565b60405161022a919061363a565b61025b610256366004613152565b6108ab565b60405161022a959493929190613bbf565b61027f61027a366004613152565b6108ff565b60405161022a9190613a09565b61029f61029a3660046133d1565b610979565b60405161022a919061374e565b61029f6102ba36600461319e565b610a45565b6102c7610d55565b60405161022a91906136b9565b6102086102e23660046133d1565b610d79565b61029f6102f53660046133d1565b610e18565b6102c7610ec1565b610208610f65565b61031d6103183660046133d1565b611011565b60405161022a919061364e565b61033d61033836600461311f565b6110fc565b60405161022a9190613aaf565b61021d6103583660046134b3565b6112e7565b61021d61036b366004613297565b6112ff565b61021d61037e366004613422565b611337565b61023b611346565b61023b611355565b6103a66103a1366004613152565b611364565b60405161022a9796959493929190613b6b565b6103cc6103c7366004613152565b611456565b60405161022a9190613a47565b61021d6103e7366004613297565b61157c565b6102086103fa3660046132da565b6115ac565b6102c76117e1565b61041a61041536600461311f565b6117e7565b60405161022a9a99989796959493929190613761565b61020861043e366004613105565b611965565b6102c76119e9565b61031d611a0d565b610208610461366004613105565b611ae5565b61020861047436600461311f565b611be7565b61023b611d0d565b61029f61048f366004613401565b611d1c565b6001546001600160a01b031633146104c75760405162461bcd60e51b81526004016104be906138ab565b60405180910390fd5b60006004876040516104d99190613603565b90815260405190819003602001902080549091506002600019610100600184161502019091160461051c5760405162461bcd60e51b81526004016104be90613886565b600881015460ff166105405760405162461bcd60e51b81526004016104be90613911565b6007876040516105509190613603565b90815260408051602092819003830190206000898152925290205460ff161561058b5760405162461bcd60e51b81526004016104be90613937565b6001600160a01b0382166105b15760405162461bcd60e51b81526004016104be9061385c565b806002016040516105c29190613593565b60405180910390208480519060200120146105ef5760405162461bcd60e51b81526004016104be906137dc565b60038101546040516370a0823160e01b815281906001600160a01b037f000000000000000000000000000000000000000000000000000000000000000016906370a082319061064290309060040161363a565b60206040518083038186803b15801561065a57600080fd5b505afa15801561066e573d6000803e3d6000fd5b505050506040513d601f19601f8201168201806040525081019061069291906133e9565b10156106b05760405162461bcd60e51b81526004016104be9061395f565b6004820180546001019055600682018054820190556040805160a081018252888152602081018890526001600160a01b03851681830152606081018390524260808201529051600590610704908b90613603565b90815260408051602092819003830181206001600160a01b038881166000908152918552908390208551815593850151600180860191909155928501516002850180546001600160a01b031916919092161790556060840151600384015560809093015160049092019190915590600790610780908b90613603565b908152604080516020928190038301902060008b8152908352818120805460ff1916941515949094179093556008825282208054600181018255908352918190208a516107d49391909101918b0190612ebd565b506108096001600160a01b037f0000000000000000000000000000000000000000000000000000000000000000168483611da0565b826001600160a01b0316336001600160a01b03168960405161082b9190613603565b60405180910390207fcc59a4e18e6f0351e0f31e360ecbcc26cf0c96431bdf1cf16bade89f8ac1bf288a8a8a874260405161086a959493929190613beb565b60405180910390a45050505050505050565b600195945050505050565b7f000000000000000000000000000000000000000000000000000000000000000081565b81516020818401810180516005825292820194820194909420919093529091526000908152604090208054600182015460028301546003840154600490940154929391926001600160a01b03909116919085565b610907612f49565b6005836040516109179190613603565b90815260408051602092819003830181206001600160a01b03958616600090815290845282902060a082018352805482526001810154938201939093526002830154909416908401526003810154606084015260040154608083015250919050565b600354606090821061099d5760405162461bcd60e51b81526004016104be906139b5565b600382815481106109aa57fe5b600091825260209182902001805460408051601f6002600019610100600187161502019094169390930492830185900485028101850190915281815292830182828015610a385780601f10610a0d57610100808354040283529160200191610a38565b820191906000526020600020905b815481529060010190602001808311610a1b57829003601f168201915b505050505090505b919050565b6060610a4f611df7565b6001600160a01b0316610a60611355565b6001600160a01b031614610aa9576040805162461bcd60e51b81526020600482018190526024820152600080516020613d42833981519152604482015290519081900360640190fd5b6000865111610aca5760405162461bcd60e51b81526004016104be906139e2565b6000835111610aeb5760405162461bcd60e51b81526004016104be90613809565b60008211610b0b5760405162461bcd60e51b81526004016104be90613835565b600486604051610b1b9190613603565b908152604051908190036020019020546002600019610100600184161502019091160415610b5b5760405162461bcd60e51b81526004016104be9061398a565b604051806101400160405280878152602001866003811115610b7957fe5b8152602001856001811115610b8a57fe5b81526020018481526020018381526020016000815260200160008152602001600081526020016000815260200160011515815250600487604051610bce9190613603565b90815260200160405180910390206000820151816000019080519060200190610bf8929190612ebd565b50602082015160018083018054909160ff1990911690836003811115610c1a57fe5b021790555060408201518160010160016101000a81548160ff02191690836001811115610c4357fe5b021790555060608201518051610c63916002840191602090910190612ebd565b50608082015160038281019190915560a0830151600483015560c0830151600583015560e083015160068301556101008301516007830155610120909201516008909101805460ff191691151591909117905580546001810182556000919091528651610cf7917fc2575a0e9e593c00f959f8c92f12db2869c3395a3b0502d05e2516446f71f85b01906020890190612ebd565b5085604051610d069190613603565b60405180910390207fc1b4f0f8efc094dd344251b2bf8367c35e8e32dddf97390f50d27f2f4e2fe21a86868686604051610d4394939291906136e5565b60405180910390a25093949350505050565b7f000000000000000000000000000000000000000000000000000000000000000081565b610d81611df7565b6001600160a01b0316610d92611355565b6001600160a01b031614610ddb576040805162461bcd60e51b81526020600482018190526024820152600080516020613d42833981519152604482015290519081900360640190fd5b600154610e15906001600160a01b037f00000000000000000000000000000000000000000000000000000000000000008116911683611da0565b50565b60038181548110610e2857600080fd5b600091825260209182902001805460408051601f6002600019610100600187161502019094169390930492830185900485028101850190915281815293509091830182828015610eb95780601f10610e8e57610100808354040283529160200191610eb9565b820191906000526020600020905b815481529060010190602001808311610e9c57829003601f168201915b505050505081565b6040516370a0823160e01b81526000906001600160a01b037f000000000000000000000000000000000000000000000000000000000000000016906370a0823190610f1090309060040161363a565b60206040518083038186803b158015610f2857600080fd5b505afa158015610f3c573d6000803e3d6000fd5b505050506040513d601f19601f82011682018060405250810190610f6091906133e9565b905090565b610f6d611df7565b6001600160a01b0316610f7e611355565b6001600160a01b031614610fc7576040805162461bcd60e51b81526020600482018190526024820152600080516020613d42833981519152604482015290519081900360640190fd5b600080546040516001600160a01b03909116907f8be0079c531659141344cd1fd0a4f28419497f9722a3daafe3b4186f6b6457e0908390a3600080546001600160a01b0319169055565b606060086000838152602001908152602001600020805480602002602001604051908101604052809291908181526020016000905b828210156110f15760008481526020908190208301805460408051601f60026000196101006001871615020190941693909304928301859004850281018501909152818152928301828280156110dd5780601f106110b2576101008083540402835291602001916110dd565b820191906000526020600020905b8154815290600101906020018083116110c057829003601f168201915b505050505081526020019060010190611046565b505050509050919050565b611104612f81565b6004826040516111149190613603565b9081526040805160209281900383018120805460026001821615610100026000190190911604601f8101859004909402820161016090810190935261014082018481529193909284929184918401828280156111b15780601f10611186576101008083540402835291602001916111b1565b820191906000526020600020905b81548152906001019060200180831161119457829003601f168201915b5050509183525050600182015460209091019060ff1660038111156111d257fe5b60038111156111dd57fe5b81526020016001820160019054906101000a900460ff1660018111156111ff57fe5b600181111561120a57fe5b8152600282810180546040805160206001841615610100026000190190931694909404601f810183900483028501830190915280845293810193908301828280156112965780601f1061126b57610100808354040283529160200191611296565b820191906000526020600020905b81548152906001019060200180831161127957829003601f168201915b505050918352505060038201546020820152600482015460408201526005820154606082015260068201546080820152600782015460a082015260089091015460ff16151560c09091015292915050565b60006112f586868585611dfb565b9695505050505050565b60006007836040516113119190613603565b908152604080516020928190038301902060009485529091529091205460ff1692915050565b60006112f58686868686612106565b6002546001600160a01b031681565b6000546001600160a01b031690565b8151602081840181018051600682529282019482019490942091909352825260009081526040908190208054600180830154600280850154600386015460048701546005880180548a516101009882161589026000190190911695909504601f81018c90048c0286018c01909a5289855296996001600160a01b03909516989297919660ff82169690910463ffffffff1694919392909183018282801561144c5780601f106114215761010080835404028352916020019161144c565b820191906000526020600020905b81548152906001019060200180831161142f57829003601f168201915b5050505050905087565b61145e612fd7565b60068360405161146e9190613603565b9081526040805191829003602090810183206001600160a01b0380871660009081529183529083902060e08501845280548552600180820154909216858401526002808201548686015260038201546060870152600482015460ff81161515608088015263ffffffff610100918290041660a08801526005830180548751601f60001997831615909402969096011692909204908101859004850284018501909552848352909360c086019383018282801561156b5780601f106115405761010080835404028352916020019161156b565b820191906000526020600020905b81548152906001019060200180831161154e57829003601f168201915b505050505081525050905092915050565b81516020818401810180516007825292820194820194909420919093529091526000908152604090205460ff1681565b60006004846040516115be9190613603565b9081526040519081900360200190208054909150600260001961010060018416150201909116046116015760405162461bcd60e51b81526004016104be90613886565b600881015460ff166116255760405162461bcd60e51b81526004016104be90613911565b600083116116455760405162461bcd60e51b81526004016104be90613835565b61167a6001600160a01b037f0000000000000000000000000000000000000000000000000000000000000000163330866121da565b60058101805460010190819055600782018054850190556040805160e08101825291825233602083015281810185905242606083015260006080830152600660a0830181905260c0830185905290516116d4908790613603565b908152604080516020928190038301902033600090815290835281902083518155838301516001820180546001600160a01b0319166001600160a01b0390921691909117905590830151600282015560608301516003820155608083015160048201805460a086015160ff199091169215159290921764ffffffff00191661010063ffffffff9093169290920291909117905560c08301518051919261178292600585019290910190612ebd565b5050604051339150611795908690613603565b60405180910390207fac9f2e8dfe0227cfbb82fc983a4b15e8352a7558d2688723e679f4bc157a267260068642876040516117d39493929190613723565b60405180910390a350505050565b60035490565b805160208183018101805160048252928201938201939093209190925280546040805160026001841615610100026000190190931692909204601f810185900485028301850190915280825291929091839183018282801561188a5780601f1061185f5761010080835404028352916020019161188a565b820191906000526020600020905b81548152906001019060200180831161186d57829003601f168201915b50505050600183810154600280860180546040805160206101009784161588026000190190931694909404601f8101839004830285018301909152808452969760ff80861698969095049094169550929391929091908301828280156119315780601f1061190657610100808354040283529160200191611931565b820191906000526020600020905b81548152906001019060200180831161191457829003601f168201915b5050506003840154600485015460058601546006870154600788015460089098015496979396929550909350919060ff168a565b61196d611df7565b6001600160a01b031661197e611355565b6001600160a01b0316146119c7576040805162461bcd60e51b81526020600482018190526024820152600080516020613d42833981519152604482015290519081900360640190fd5b600280546001600160a01b0319166001600160a01b0392909216919091179055565b7f5c64a8a74cfa7615128bcdfeee4695403156b321bc1f0f1dd1a0b09d3618731e81565b60606003805480602002602001604051908101604052809291908181526020016000905b82821015611adc5760008481526020908190208301805460408051601f6002600019610100600187161502019094169390930492830185900485028101850190915281815292830182828015611ac85780601f10611a9d57610100808354040283529160200191611ac8565b820191906000526020600020905b815481529060010190602001808311611aab57829003601f168201915b505050505081526020019060010190611a31565b50505050905090565b611aed611df7565b6001600160a01b0316611afe611355565b6001600160a01b031614611b47576040805162461bcd60e51b81526020600482018190526024820152600080516020613d42833981519152604482015290519081900360640190fd5b6001600160a01b038116611b8c5760405162461bcd60e51b8152600401808060200182810382526026815260200180613c916026913960400191505060405180910390fd5b600080546040516001600160a01b03808516939216917f8be0079c531659141344cd1fd0a4f28419497f9722a3daafe3b4186f6b6457e091a3600080546001600160a01b0319166001600160a01b0392909216919091179055565b611bef611df7565b6001600160a01b0316611c00611355565b6001600160a01b031614611c49576040805162461bcd60e51b81526020600482018190526024820152600080516020613d42833981519152604482015290519081900360640190fd5b6000600482604051611c5b9190613603565b908152604051908190036020019020805490915060026000196101006001841615020190911604611c9e5760405162461bcd60e51b81526004016104be90613886565b60088101805460ff19811660ff90911615179055604051611cc0908390613603565b604051908190038120600883015490917f0cf04787a730deff0c06f98fbbe7289eb4198e7df16426ba7734123ef2b06b7491611d019160ff909116906136ae565b60405180910390a25050565b6001546001600160a01b031681565b60086020528160005260406000208181548110611d3857600080fd5b600091825260209182902001805460408051601f60026000196101006001871615020190941693909304928301859004850281018501909152818152945090925090830182828015610eb95780601f10610e8e57610100808354040283529160200191610eb9565b604080516001600160a01b038416602482015260448082018490528251808303909101815260649091019091526020810180516001600160e01b031663a9059cbb60e01b179052611df290849061223a565b505050565b3390565b600080611e42600085858080601f01602080910402602001604051908101604052809392919081815260200183838082843760009201919091525092939250506122eb9050565b9050611e5362ffffff19821661230f565b6000611e6462ffffff1983166123d0565b90506000611e7762ffffff198316612408565b6001600160601b031611611e9d5760405162461bcd60e51b81526004016104be906138e2565b6000611eae62ffffff198316612417565b905060008082806020019051810190611ec79190613236565b915091506000611edc8662ffffff1916612456565b90506000600484604051611ef09190613603565b908152604051908190036020019020805490915060026000196101006001841615020190911604611f335760405162461bcd60e51b81526004016104be90613886565b600881015460ff16611f575760405162461bcd60e51b81526004016104be90613911565b60008211611f775760405162461bcd60e51b81526004016104be90613835565b600581018054600190810191829055600783018054850190556040805160e0810182529283526001600160a01b038e166020840152828101859052426060840152608083019190915263ffffffff8e1660a083015260c08201859052518c9190600690611fe5908890613603565b90815260408051602092819003830190206001600160a01b0385811660009081529184529082902084518155848401516001820180546001600160a01b031916919093161790915590830151600282015560608301516003820155608083015160048201805460a086015160ff199091169215159290921764ffffffff00191661010063ffffffff9093169290920291909117905560c08301518051919261209592600585019290910190612ebd565b50905050806001600160a01b0316856040516120b19190613603565b60405180910390207fac9f2e8dfe0227cfbb82fc983a4b15e8352a7558d2688723e679f4bc157a26728f8642896040516120ee9493929190613723565b60405180910390a35050505050505050949350505050565b6000807f5c64a8a74cfa7615128bcdfeee4695403156b321bc1f0f1dd1a0b09d3618731e87878780519060200120876040516020016121499594939291906136c2565b60405160208183030381529060405280519060200120905060007f00000000000000000000000000000000000000000000000000000000000000008260405160200161219692919061361f565b60408051601f198184030181529190528051602090910120905060006121bc8286612467565b6001546001600160a01b039081169116149998505050505050505050565b604080516001600160a01b0380861660248301528416604482015260648082018490528251808303909101815260849091019091526020810180516001600160e01b03166323b872dd60e01b17905261223490859061223a565b50505050565b600061228f826040518060400160405280602081526020017f5361666545524332303a206c6f772d6c6576656c2063616c6c206661696c6564815250856001600160a01b03166124dd9092919063ffffffff16565b805190915015611df2578080602001905160208110156122ae57600080fd5b5051611df25760405162461bcd60e51b815260040180806020018281038252602a815260200180613d9c602a913960400191505060405180910390fd5b81516000906020840161230664ffffffffff851682846124f6565b95945050505050565b61231e62ffffff198216612530565b612363576040805162461bcd60e51b81526020600482015260116024820152704d616c666f726d6564206d65737361676560781b604482015290519081900360640190fd5b60e461237462ffffff198316612408565b6001600160601b03161015610e15576040805162461bcd60e51b815260206004820152601f60248201527f496e76616c6964206275726e206d6573736167653a20746f6f2073686f727400604482015290519081900360640190fd5b600061240260e4806123e762ffffff198616612408565b62ffffff19861692916001600160601b03910316600061256d565b92915050565b60181c6001600160601b031690565b606060008061242584612408565b6001600160601b03169050604051915081925061244584836020016125de565b508181016020016040529052919050565b600061240262ffffff19831661271a565b600081516041146124bf576040805162461bcd60e51b815260206004820152601f60248201527f45434453413a20696e76616c6964207369676e6174757265206c656e67746800604482015290519081900360640190fd5b60208201516040830151606084015160001a6112f58682858561272f565b60606124ec84846000856128a4565b90505b9392505050565b60008061250384846129f4565b9050604051811115612513575060005b806125255762ffffff199150506124ef565b612306858585612a4e565b600061253b82612a61565b64ffffffffff1664ffffffffff141561255657506000610a40565b600061256183612a67565b60405110159392505050565b60008061257986612a8c565b6001600160601b0316905061258d86612a67565b6125a18561259b84896129f4565b906129f4565b11156125b45762ffffff199150506125d6565b6125be81866129f4565b90506125d28364ffffffffff1682866124f6565b9150505b949350505050565b60006125e983612a9b565b6126245760405162461bcd60e51b8152600401808060200182810382526028815260200180613dc66028913960400191505060405180910390fd5b61262d83612530565b6126685760405162461bcd60e51b815260040180806020018281038252602b815260200180613dee602b913960400191505060405180910390fd5b600061267384612408565b6001600160601b03169050600061268985612a8c565b6001600160601b031690506000806040519150858211156126aa5760206060fd5b8386858560045afa9050806126f5576040805162461bcd60e51b815260206004820152600c60248201526b6964656e74697479204f4f4760a01b604482015290519081900360640190fd5b61270f61270188612a61565b64ffffffffff168786612a4e565b979650505050505050565b600061240262ffffff19831660446020612aad565b60007f7fffffffffffffffffffffffffffffff5d576e7357a4501ddfe92f46681b20a08211156127905760405162461bcd60e51b8152600401808060200182810382526022815260200180613cb76022913960400191505060405180910390fd5b8360ff16601b14806127a557508360ff16601c145b6127e05760405162461bcd60e51b8152600401808060200182810382526022815260200180613d206022913960400191505060405180910390fd5b600060018686868660405160008152602001604052604051808581526020018460ff1681526020018381526020018281526020019450505050506020604051602081039080840390855afa15801561283c573d6000803e3d6000fd5b5050604051601f1901519150506001600160a01b038116612306576040805162461bcd60e51b815260206004820152601860248201527f45434453413a20696e76616c6964207369676e61747572650000000000000000604482015290519081900360640190fd5b6060824710156128e55760405162461bcd60e51b8152600401808060200182810382526026815260200180613cd96026913960400191505060405180910390fd5b6128ee85612ace565b61293f576040805162461bcd60e51b815260206004820152601d60248201527f416464726573733a2063616c6c20746f206e6f6e2d636f6e7472616374000000604482015290519081900360640190fd5b600080866001600160a01b031685876040518082805190602001908083835b6020831061297d5780518252601f19909201916020918201910161295e565b6001836020036101000a03801982511681845116808217855250505050505090500191505060006040518083038185875af1925050503d80600081146129df576040519150601f19603f3d011682016040523d82523d6000602084013e6129e4565b606091505b509150915061270f828286612ad4565b6000828201838110156124ef576040805162461bcd60e51b815260206004820152601b60248201527f536166654d6174683a206164646974696f6e206f766572666c6f770000000000604482015290519081900360640190fd5b606092831b9190911790911b1760181b90565b60d81c90565b6000612a7282612408565b612a7b83612a8c565b016001600160601b03169050919050565b60781c6001600160601b031690565b6000612aa682612b78565b1592915050565b60008160200360080260ff16612ac4858585612b84565b901c949350505050565b3b151590565b60608315612ae35750816124ef565b825115612af35782518084602001fd5b8160405162461bcd60e51b81526004018080602001828103825283818151815260200191508051906020019080838360005b83811015612b3d578181015183820152602001612b25565b50505050905090810190601f168015612b6a5780820380516001836020036101000a031916815260200191505b509250505060405180910390fd5b62ffffff199081161490565b600060ff8216612b96575060006124ef565b612b9f84612408565b6001600160601b0316612bb58460ff85166129f4565b1115612c3357612bec612bc785612a8c565b6001600160601b0316612bd986612408565b6001600160601b0316858560ff16612caa565b60405162461bcd60e51b8152602060048201818152835160248401528351909283926044909101919085019080838360008315612b3d578181015183820152602001612b25565b60208260ff161115612c765760405162461bcd60e51b815260040180806020018281038252603a815260200180613d62603a913960400191505060405180910390fd5b600882026000612c8586612a8c565b6001600160601b031690506000612c9b83612d9d565b91909501511695945050505050565b60606000612cb786612dac565b9150506000612cc586612dac565b9150506000612cd386612dac565b9150506000612ce186612dac565b915050838383836040516020018080613e19603591396001600160d01b031960d087811b821660358401526e040eed2e8d040d8cadccee8d04060f608b1b603b84015286901b16604a8201526050016021613cff82396001600160d01b031960d094851b811660218301526e040eed2e8d040d8cadccee8d04060f608b1b60278301529290931b909116603683015250601760f91b603c82015260408051601d818403018152603d90920190529b9a5050505050505050505050565b600160ff1b6000199091011d90565b600080601f5b600f8160ff161115612df65760ff600882021684901c612dd181612e44565b61ffff16841793508160ff16601014612dec57601084901b93505b5060001901612db2565b50600f5b60ff8160ff161015612e3e5760ff600882021684901c612e1981612e44565b61ffff16831792508160ff16600014612e3457601083901b92505b5060001901612dfa565b50915091565b6000612e5660048360ff16901c612e74565b60ff161760081b62ffff0016612e6b82612e74565b60ff1617919050565b6040805180820190915260108082526f181899199a1a9b1b9c1cb0b131b232b360811b6020830152600091600f84169182908110612eae57fe5b016020015160f81c9392505050565b828054600181600116156101000203166002900490600052602060002090601f016020900481019282612ef35760008555612f39565b82601f10612f0c57805160ff1916838001178555612f39565b82800160010185558215612f39579182015b82811115612f39578251825591602001919060010190612f1e565b50612f45929150613025565b5090565b6040518060a00160405280600081526020016000815260200160006001600160a01b0316815260200160008152602001600081525090565b604080516101408101909152606081526020810160008152602001600081526020016060815260200160008152602001600081526020016000815260200160008152602001600081526020016000151581525090565b6040518060e001604052806000815260200160006001600160a01b031681526020016000815260200160008152602001600015158152602001600063ffffffff168152602001606081525090565b5b80821115612f455760008155600101613026565b600061304d61304884613c42565b613c1e565b905082815283838301111561306157600080fd5b828260208301376000602084830101529392505050565b80356001600160a01b0381168114610a4057600080fd5b600082601f83011261309f578081fd5b6124ef8383356020850161303a565b600082601f8301126130be578081fd5b81516130cc61304882613c42565b8181528460208386010111156130e0578283fd5b6125d6826020830160208701613c64565b803563ffffffff81168114610a4057600080fd5b600060208284031215613116578081fd5b6124ef82613078565b600060208284031215613130578081fd5b813567ffffffffffffffff811115613146578182fd5b6125d68482850161308f565b60008060408385031215613164578081fd5b823567ffffffffffffffff81111561317a578182fd5b6131868582860161308f565b92505061319560208401613078565b90509250929050565b600080600080600060a086880312156131b5578081fd5b853567ffffffffffffffff808211156131cc578283fd5b6131d889838a0161308f565b965060208801359150600482106131ed578283fd5b90945060408701359060028210613202578283fd5b90935060608701359080821115613217578283fd5b506132248882890161308f565b95989497509295608001359392505050565b60008060408385031215613248578182fd5b825167ffffffffffffffff8082111561325f578384fd5b61326b868387016130ae565b93506020850151915080821115613280578283fd5b5061328d858286016130ae565b9150509250929050565b600080604083850312156132a9578182fd5b823567ffffffffffffffff8111156132bf578283fd5b6132cb8582860161308f565b95602094909401359450505050565b6000806000606084860312156132ee578283fd5b833567ffffffffffffffff80821115613305578485fd5b6133118783880161308f565b945060208601359350604086013591508082111561332d578283fd5b5061333a8682870161308f565b9150509250925092565b60008060008060008060c0878903121561335c578081fd5b863567ffffffffffffffff80821115613373578283fd5b61337f8a838b0161308f565b9750602089013596506040890135955060608901359150808211156133a2578283fd5b506133af89828a0161308f565b935050608087013591506133c560a08801613078565b90509295509295509295565b6000602082840312156133e2578081fd5b5035919050565b6000602082840312156133fa578081fd5b5051919050565b60008060408385031215613413578182fd5b50508035926020909101359150565b600080600080600060a08688031215613439578283fd5b8535945060208601359350604086013567ffffffffffffffff8082111561345e578485fd5b61346a89838a0161308f565b9450606088013593506080880135915080821115613486578283fd5b508601601f81018813613497578182fd5b6134a68882356020840161303a565b9150509295509295909350565b6000806000806000608086880312156134ca578283fd5b6134d3866130f1565b9450602086013593506134e8604087016130f1565b9250606086013567ffffffffffffffff80821115613504578283fd5b818801915088601f830112613517578283fd5b813581811115613525578384fd5b896020828501011115613536578384fd5b9699959850939650602001949392505050565b15159052565b6002811061355957fe5b9052565b6004811061355957fe5b6000815180845261357f816020860160208601613c64565b601f01601f19169290920160200192915050565b60008083546001808216600081146135b257600181146135c9576135f8565b60ff198316865260028304607f16860193506135f8565b600283048786526020808720875b838110156135f05781548a8201529085019082016135d7565b505050860193505b509195945050505050565b60008251613615818460208701613c64565b9190910192915050565b61190160f01b81526002810192909252602282015260420190565b6001600160a01b0391909116815260200190565b6000602080830181845280855180835260408601915060408482028701019250838701855b828110156136a157603f1988860301845261368f858351613567565b94509285019290850190600101613673565b5092979650505050505050565b901515815260200190565b90815260200190565b948552602085019390935260408401919091526060830152608082015260a00190565b60006136f1828761355d565b6136fe602083018661354f565b608060408301526137126080830185613567565b905082606083015295945050505050565b600063ffffffff86168252846020830152836040830152608060608301526112f56080830184613567565b6000602082526124ef6020830184613567565b60006101408083526137758184018e613567565b9050613784602084018d61355d565b613791604084018c61354f565b82810360608401526137a3818b613567565b6080840199909952505060a081019590955260c085019390935260e0840191909152610100830152151561012090910152949350505050565b60208082526013908201527209cc2e8d2dedcc2d8d2e8f29ad2e6dac2e8c6d606b1b604082015260600190565b602080825260129082015271496e76616c69644e6174696f6e616c69747960701b604082015260600190565b6020808252600d908201526c125b9d985b1a59105b5bdd5b9d609a1b604082015260600190565b60208082526010908201526f125b9d985b1a59149958da5c1a595b9d60821b604082015260600190565b6020808252600b908201526a125b9d985b1a59141bdbdb60aa1b604082015260600190565b60208082526017908201527f556e617574686f72697a65643a204e6f742041646d696e000000000000000000604082015260600190565b602080825260159082015274139bc81a1bdbdac819185d18481c1c9bdd9a591959605a1b604082015260600190565b6020808252600c908201526b506f6f6c496e61637469766560a01b604082015260600190565b6020808252600e908201526d105b1c9958591e50db185a5b595960921b604082015260600190565b602080825260119082015270496e73756666696369656e7446756e647360781b604082015260600190565b602080825260119082015270506f6f6c416c726561647945786973747360781b604082015260600190565b602080825260139082015272496e646578206f7574206f6620626f756e647360681b604082015260600190565b6020808252600d908201526c125b9d985b1a59141bdbdb1259609a1b604082015260600190565b81518152602080830151908201526040808301516001600160a01b031690820152606080830151908201526080918201519181019190915260a00190565b6000602082528251602083015260018060a01b03602084015116604083015260408301516060830152606083015160808301526080830151151560a083015263ffffffff60a08401511660c083015260c083015160e0808401526125d6610100840182613567565b6000602082528251610140806020850152613ace610160850183613567565b91506020850151613ae2604086018261355d565b506040850151613af5606086018261354f565b506060850151848303601f19016080860152613b118382613567565b925050608085015160a085015260a085015160c085015260c085015160e085015260e0850151610100818187015280870151915050610120818187015280870151915050613b6182860182613549565b5090949350505050565b600088825260018060a01b0388166020830152866040830152856060830152841515608083015263ffffffff841660a083015260e060c0830152613bb260e0830184613567565b9998505050505050505050565b94855260208501939093526001600160a01b039190911660408401526060830152608082015260a00190565b600086825285602083015260a06040830152613c0a60a0830186613567565b606083019490945250608001529392505050565b60405181810167ffffffffffffffff81118282101715613c3a57fe5b604052919050565b600067ffffffffffffffff821115613c5657fe5b50601f01601f191660200190565b60005b83811015613c7f578181015183820152602001613c67565b83811115612234575050600091015256fe4f776e61626c653a206e6577206f776e657220697320746865207a65726f206164647265737345434453413a20696e76616c6964207369676e6174757265202773272076616c7565416464726573733a20696e73756666696369656e742062616c616e636520666f722063616c6c2e20417474656d7074656420746f20696e646578206174206f666673657420307845434453413a20696e76616c6964207369676e6174757265202776272076616c75654f776e61626c653a2063616c6c6572206973206e6f7420746865206f776e657254797065644d656d566965772f696e646578202d20417474656d7074656420746f20696e646578206d6f7265207468616e2033322062797465735361666545524332303a204552433230206f7065726174696f6e20646964206e6f74207375636365656454797065644d656d566965772f636f7079546f202d204e756c6c20706f696e74657220646572656654797065644d656d566965772f636f7079546f202d20496e76616c696420706f696e74657220646572656654797065644d656d566965772f696e646578202d204f76657272616e2074686520766965772e20536c696365206973206174203078a2646970667358221220a876f916525596638336cb45ce09a038df5d65dc8e03ec1f126f6b0dfe5fadff64736f6c634300070600334f776e61626c653a206e6577206f776e657220697320746865207a65726f20616464726573738be0079c531659141344cd1fd0a4f28419497f9722a3daafe3b4186f6b6457e0",
          "opcodes": "PUSH1 0xC0 PUSH1 0x40 MSTORE CALLVALUE DUP1 ISZERO PUSH3 0x11 JUMPI PUSH1 0x0 DUP1 REVERT JUMPDEST POP PUSH1 0x40 MLOAD PUSH3 0x425C CODESIZE SUB DUP1 PUSH3 0x425C DUP4 CODECOPY DUP2 ADD PUSH1 0x40 DUP2 SWAP1 MSTORE PUSH3 0x34 SWAP2 PUSH3 0x2D5 JUMP JUMPDEST PUSH1 0x0 PUSH3 0x40 PUSH3 0x19B JUMP JUMPDEST PUSH1 0x0 DUP1 SLOAD PUSH1 0x1 PUSH1 0x1 PUSH1 0xA0 SHL SUB NOT AND PUSH1 0x1 PUSH1 0x1 PUSH1 0xA0 SHL SUB DUP4 AND SWAP1 DUP2 OR DUP3 SSTORE PUSH1 0x40 MLOAD SWAP3 SWAP4 POP SWAP2 PUSH1 0x0 DUP1 MLOAD PUSH1 0x20 PUSH3 0x423C DUP4 CODECOPY DUP2 MLOAD SWAP2 MSTORE SWAP1 DUP3 SWAP1 LOG3 POP PUSH1 0x1 DUP1 SLOAD PUSH1 0x1 PUSH1 0x1 PUSH1 0xA0 SHL SUB DUP1 DUP7 AND PUSH1 0x1 PUSH1 0x1 PUSH1 0xA0 SHL SUB NOT SWAP3 DUP4 AND OR SWAP1 SWAP3 SSTORE PUSH1 0x1 PUSH1 0x1 PUSH1 0x60 SHL SUB NOT PUSH1 0x60 DUP6 SWAP1 SHL AND PUSH1 0x80 MSTORE PUSH1 0x2 DUP1 SLOAD SWAP3 DUP5 AND SWAP3 SWAP1 SWAP2 AND SWAP2 SWAP1 SWAP2 OR SWAP1 SSTORE PUSH3 0xC6 CALLER PUSH3 0x19F JUMP JUMPDEST PUSH1 0x40 DUP1 MLOAD DUP1 DUP3 ADD DUP3 MSTORE PUSH1 0xB DUP2 MSTORE PUSH11 0x52656C696566506F6F6C73 PUSH1 0xA8 SHL PUSH1 0x20 SWAP2 DUP3 ADD MSTORE DUP2 MLOAD DUP1 DUP4 ADD DUP4 MSTORE PUSH1 0x1 DUP2 MSTORE PUSH1 0x31 PUSH1 0xF8 SHL SWAP1 DUP3 ADD MSTORE SWAP1 MLOAD PUSH3 0x176 SWAP2 PUSH32 0x8B73C3C69BB8FE3D512ECC4CF759CC79239F7B179B0FFACAA9A75D522B39400F SWAP2 PUSH32 0x3323A8070B7081E28CA423D850C49E17147E941AF41DAF0AD176ECF1A5481B67 SWAP2 PUSH32 0xC89EFDAA54C0F20C7ADF612882DF0950F5A951637E0307CDCB4C672F298B8BC6 SWAP2 PUSH2 0x2105 SWAP2 ADDRESS SWAP2 ADD PUSH3 0x31E JUMP JUMPDEST PUSH1 0x40 DUP1 MLOAD PUSH1 0x1F NOT DUP2 DUP5 SUB ADD DUP2 MSTORE SWAP2 SWAP1 MSTORE DUP1 MLOAD PUSH1 0x20 SWAP1 SWAP2 ADD KECCAK256 PUSH1 0xA0 MSTORE POP PUSH3 0x34E SWAP2 POP POP JUMP JUMPDEST CALLER SWAP1 JUMP JUMPDEST PUSH3 0x1A9 PUSH3 0x19B JUMP JUMPDEST PUSH1 0x1 PUSH1 0x1 PUSH1 0xA0 SHL SUB AND PUSH3 0x1BC PUSH3 0x2A9 JUMP JUMPDEST PUSH1 0x1 PUSH1 0x1 PUSH1 0xA0 SHL SUB AND EQ PUSH3 0x218 JUMPI PUSH1 0x40 DUP1 MLOAD PUSH3 0x461BCD PUSH1 0xE5 SHL DUP2 MSTORE PUSH1 0x20 PUSH1 0x4 DUP3 ADD DUP2 SWAP1 MSTORE PUSH1 0x24 DUP3 ADD MSTORE PUSH32 0x4F776E61626C653A2063616C6C6572206973206E6F7420746865206F776E6572 PUSH1 0x44 DUP3 ADD MSTORE SWAP1 MLOAD SWAP1 DUP2 SWAP1 SUB PUSH1 0x64 ADD SWAP1 REVERT JUMPDEST PUSH1 0x1 PUSH1 0x1 PUSH1 0xA0 SHL SUB DUP2 AND PUSH3 0x25F JUMPI PUSH1 0x40 MLOAD PUSH3 0x461BCD PUSH1 0xE5 SHL DUP2 MSTORE PUSH1 0x4 ADD DUP1 DUP1 PUSH1 0x20 ADD DUP3 DUP2 SUB DUP3 MSTORE PUSH1 0x26 DUP2 MSTORE PUSH1 0x20 ADD DUP1 PUSH3 0x4216 PUSH1 0x26 SWAP2 CODECOPY PUSH1 0x40 ADD SWAP2 POP POP PUSH1 0x40 MLOAD DUP1 SWAP2 SUB SWAP1 REVERT JUMPDEST PUSH1 0x0 DUP1 SLOAD PUSH1 0x40 MLOAD PUSH1 0x1 PUSH1 0x1 PUSH1 0xA0 SHL SUB DUP1 DUP6 AND SWAP4 SWAP3 AND SWAP2 PUSH1 0x0 DUP1 MLOAD PUSH1 0x20 PUSH3 0x423C DUP4 CODECOPY DUP2 MLOAD SWAP2 MSTORE SWAP2 LOG3 PUSH1 0x0 DUP1 SLOAD PUSH1 0x1 PUSH1 0x1 PUSH1 0xA0 SHL SUB NOT AND PUSH1 0x1 PUSH1 0x1 PUSH1 0xA0 SHL SUB SWAP3 SWAP1 SWAP3 AND SWAP2 SWAP1 SWAP2 OR SWAP1 SSTORE JUMP JUMPDEST PUSH1 0x0 SLOAD PUSH1 0x1 PUSH1 0x1 PUSH1 0xA0 SHL SUB AND SWAP1 JUMP JUMPDEST DUP1 MLOAD PUSH1 0x1 PUSH1 0x1 PUSH1 0xA0 SHL SUB DUP2 AND DUP2 EQ PUSH3 0x2D0 JUMPI PUSH1 0x0 DUP1 REVERT JUMPDEST SWAP2 SWAP1 POP JUMP JUMPDEST PUSH1 0x0 DUP1 PUSH1 0x0 PUSH1 0x60 DUP5 DUP7 SUB SLT ISZERO PUSH3 0x2EA JUMPI DUP3 DUP4 REVERT JUMPDEST PUSH3 0x2F5 DUP5 PUSH3 0x2B8 JUMP JUMPDEST SWAP3 POP PUSH3 0x305 PUSH1 0x20 DUP6 ADD PUSH3 0x2B8 JUMP JUMPDEST SWAP2 POP PUSH3 0x315 PUSH1 0x40 DUP6 ADD PUSH3 0x2B8 JUMP JUMPDEST SWAP1 POP SWAP3 POP SWAP3 POP SWAP3 JUMP JUMPDEST SWAP5 DUP6 MSTORE PUSH1 0x20 DUP6 ADD SWAP4 SWAP1 SWAP4 MSTORE PUSH1 0x40 DUP5 ADD SWAP2 SWAP1 SWAP2 MSTORE PUSH2 0xFFFF AND PUSH1 0x60 DUP4 ADD MSTORE PUSH1 0x1 PUSH1 0x1 PUSH1 0xA0 SHL SUB AND PUSH1 0x80 DUP3 ADD MSTORE PUSH1 0xA0 ADD SWAP1 JUMP JUMPDEST PUSH1 0x80 MLOAD PUSH1 0x60 SHR PUSH1 0xA0 MLOAD PUSH2 0x3E83 PUSH3 0x393 PUSH1 0x0 CODECOPY DUP1 PUSH2 0xD57 MSTORE DUP1 PUSH2 0x2165 MSTORE POP DUP1 PUSH2 0x60D MSTORE DUP1 PUSH2 0x7E2 MSTORE DUP1 PUSH2 0x889 MSTORE DUP1 PUSH2 0xDEC MSTORE DUP1 PUSH2 0xEDB MSTORE DUP1 PUSH2 0x1652 MSTORE POP PUSH2 0x3E83 PUSH1 0x0 RETURN INVALID PUSH1 0x80 PUSH1 0x40 MSTORE CALLVALUE DUP1 ISZERO PUSH2 0x10 JUMPI PUSH1 0x0 DUP1 REVERT JUMPDEST POP PUSH1 0x4 CALLDATASIZE LT PUSH2 0x1F0 JUMPI PUSH1 0x0 CALLDATALOAD PUSH1 0xE0 SHR DUP1 PUSH4 0x8BE55456 GT PUSH2 0x10F JUMPI DUP1 PUSH4 0xD697D231 GT PUSH2 0xA2 JUMPI DUP1 PUSH4 0xF2FDE38B GT PUSH2 0x71 JUMPI DUP1 PUSH4 0xF2FDE38B EQ PUSH2 0x453 JUMPI DUP1 PUSH4 0xF6AB0872 EQ PUSH2 0x466 JUMPI DUP1 PUSH4 0xFC6F9468 EQ PUSH2 0x479 JUMPI DUP1 PUSH4 0xFEB16532 EQ PUSH2 0x481 JUMPI PUSH2 0x1F0 JUMP JUMPDEST DUP1 PUSH4 0xD697D231 EQ PUSH2 0x407 JUMPI DUP1 PUSH4 0xD9DB6E03 EQ PUSH2 0x430 JUMPI DUP1 PUSH4 0xE1A788EB EQ PUSH2 0x443 JUMPI DUP1 PUSH4 0xF19C3D5B EQ PUSH2 0x44B JUMPI PUSH2 0x1F0 JUMP JUMPDEST DUP1 PUSH4 0xAA62E312 GT PUSH2 0xDE JUMPI DUP1 PUSH4 0xAA62E312 EQ PUSH2 0x3B9 JUMPI DUP1 PUSH4 0xB2396E6C EQ PUSH2 0x3D9 JUMPI DUP1 PUSH4 0xB9ADB2F7 EQ PUSH2 0x3EC JUMPI DUP1 PUSH4 0xD3FFE67A EQ PUSH2 0x3FF JUMPI PUSH2 0x1F0 JUMP JUMPDEST DUP1 PUSH4 0x8BE55456 EQ PUSH2 0x370 JUMPI DUP1 PUSH4 0x8C73EB04 EQ PUSH2 0x383 JUMPI DUP1 PUSH4 0x8DA5CB5B EQ PUSH2 0x38B JUMPI DUP1 PUSH4 0x9605CFE5 EQ PUSH2 0x393 JUMPI PUSH2 0x1F0 JUMP JUMPDEST DUP1 PUSH4 0x5312EA8E GT PUSH2 0x187 JUMPI DUP1 PUSH4 0x7332CEC4 GT PUSH2 0x156 JUMPI DUP1 PUSH4 0x7332CEC4 EQ PUSH2 0x30A JUMPI DUP1 PUSH4 0x734123C4 EQ PUSH2 0x32A JUMPI DUP1 PUSH4 0x7C92F219 EQ PUSH2 0x34A JUMPI DUP1 PUSH4 0x8BBD58E2 EQ PUSH2 0x35D JUMPI PUSH2 0x1F0 JUMP JUMPDEST DUP1 PUSH4 0x5312EA8E EQ PUSH2 0x2D4 JUMPI DUP1 PUSH4 0x69883B4E EQ PUSH2 0x2E7 JUMPI DUP1 PUSH4 0x6F9FB98A EQ PUSH2 0x2FA JUMPI DUP1 PUSH4 0x715018A6 EQ PUSH2 0x302 JUMPI PUSH2 0x1F0 JUMP JUMPDEST DUP1 PUSH4 0x1376938D GT PUSH2 0x1C3 JUMPI DUP1 PUSH4 0x1376938D EQ PUSH2 0x26C JUMPI DUP1 PUSH4 0x20DE7592 EQ PUSH2 0x28C JUMPI DUP1 PUSH4 0x21050EDC EQ PUSH2 0x2AC JUMPI DUP1 PUSH4 0x3644E515 EQ PUSH2 0x2BF JUMPI PUSH2 0x1F0 JUMP JUMPDEST DUP1 PUSH4 0xE0B8C8B EQ PUSH2 0x1F5 JUMPI DUP1 PUSH4 0x11CFFB67 EQ PUSH2 0x20A JUMPI DUP1 PUSH4 0x11EAC855 EQ PUSH2 0x233 JUMPI DUP1 PUSH4 0x1223310A EQ PUSH2 0x248 JUMPI JUMPDEST PUSH1 0x0 DUP1 REVERT JUMPDEST PUSH2 0x208 PUSH2 0x203 CALLDATASIZE PUSH1 0x4 PUSH2 0x3344 JUMP JUMPDEST PUSH2 0x494 JUMP JUMPDEST STOP JUMPDEST PUSH2 0x21D PUSH2 0x218 CALLDATASIZE PUSH1 0x4 PUSH2 0x34B3 JUMP JUMPDEST PUSH2 0x87C JUMP JUMPDEST PUSH1 0x40 MLOAD PUSH2 0x22A SWAP2 SWAP1 PUSH2 0x36AE JUMP JUMPDEST PUSH1 0x40 MLOAD DUP1 SWAP2 SUB SWAP1 RETURN JUMPDEST PUSH2 0x23B PUSH2 0x887 JUMP JUMPDEST PUSH1 0x40 MLOAD PUSH2 0x22A SWAP2 SWAP1 PUSH2 0x363A JUMP JUMPDEST PUSH2 0x25B PUSH2 0x256 CALLDATASIZE PUSH1 0x4 PUSH2 0x3152 JUMP JUMPDEST PUSH2 0x8AB JUMP JUMPDEST PUSH1 0x40 MLOAD PUSH2 0x22A SWAP6 SWAP5 SWAP4 SWAP3 SWAP2 SWAP1 PUSH2 0x3BBF JUMP JUMPDEST PUSH2 0x27F PUSH2 0x27A CALLDATASIZE PUSH1 0x4 PUSH2 0x3152 JUMP JUMPDEST PUSH2 0x8FF JUMP JUMPDEST PUSH1 0x40 MLOAD PUSH2 0x22A SWAP2 SWAP1 PUSH2 0x3A09 JUMP JUMPDEST PUSH2 0x29F PUSH2 0x29A CALLDATASIZE PUSH1 0x4 PUSH2 0x33D1 JUMP JUMPDEST PUSH2 0x979 JUMP JUMPDEST PUSH1 0x40 MLOAD PUSH2 0x22A SWAP2 SWAP1 PUSH2 0x374E JUMP JUMPDEST PUSH2 0x29F PUSH2 0x2BA CALLDATASIZE PUSH1 0x4 PUSH2 0x319E JUMP JUMPDEST PUSH2 0xA45 JUMP JUMPDEST PUSH2 0x2C7 PUSH2 0xD55 JUMP JUMPDEST PUSH1 0x40 MLOAD PUSH2 0x22A SWAP2 SWAP1 PUSH2 0x36B9 JUMP JUMPDEST PUSH2 0x208 PUSH2 0x2E2 CALLDATASIZE PUSH1 0x4 PUSH2 0x33D1 JUMP JUMPDEST PUSH2 0xD79 JUMP JUMPDEST PUSH2 0x29F PUSH2 0x2F5 CALLDATASIZE PUSH1 0x4 PUSH2 0x33D1 JUMP JUMPDEST PUSH2 0xE18 JUMP JUMPDEST PUSH2 0x2C7 PUSH2 0xEC1 JUMP JUMPDEST PUSH2 0x208 PUSH2 0xF65 JUMP JUMPDEST PUSH2 0x31D PUSH2 0x318 CALLDATASIZE PUSH1 0x4 PUSH2 0x33D1 JUMP JUMPDEST PUSH2 0x1011 JUMP JUMPDEST PUSH1 0x40 MLOAD PUSH2 0x22A SWAP2 SWAP1 PUSH2 0x364E JUMP JUMPDEST PUSH2 0x33D PUSH2 0x338 CALLDATASIZE PUSH1 0x4 PUSH2 0x311F JUMP JUMPDEST PUSH2 0x10FC JUMP JUMPDEST PUSH1 0x40 MLOAD PUSH2 0x22A SWAP2 SWAP1 PUSH2 0x3AAF JUMP JUMPDEST PUSH2 0x21D PUSH2 0x358 CALLDATASIZE PUSH1 0x4 PUSH2 0x34B3 JUMP JUMPDEST PUSH2 0x12E7 JUMP JUMPDEST PUSH2 0x21D PUSH2 0x36B CALLDATASIZE PUSH1 0x4 PUSH2 0x3297 JUMP JUMPDEST PUSH2 0x12FF JUMP JUMPDEST PUSH2 0x21D PUSH2 0x37E CALLDATASIZE PUSH1 0x4 PUSH2 0x3422 JUMP JUMPDEST PUSH2 0x1337 JUMP JUMPDEST PUSH2 0x23B PUSH2 0x1346 JUMP JUMPDEST PUSH2 0x23B PUSH2 0x1355 JUMP JUMPDEST PUSH2 0x3A6 PUSH2 0x3A1 CALLDATASIZE PUSH1 0x4 PUSH2 0x3152 JUMP JUMPDEST PUSH2 0x1364 JUMP JUMPDEST PUSH1 0x40 MLOAD PUSH2 0x22A SWAP8 SWAP7 SWAP6 SWAP5 SWAP4 SWAP3 SWAP2 SWAP1 PUSH2 0x3B6B JUMP JUMPDEST PUSH2 0x3CC PUSH2 0x3C7 CALLDATASIZE PUSH1 0x4 PUSH2 0x3152 JUMP JUMPDEST PUSH2 0x1456 JUMP JUMPDEST PUSH1 0x40 MLOAD PUSH2 0x22A SWAP2 SWAP1 PUSH2 0x3A47 JUMP JUMPDEST PUSH2 0x21D PUSH2 0x3E7 CALLDATASIZE PUSH1 0x4 PUSH2 0x3297 JUMP JUMPDEST PUSH2 0x157C JUMP JUMPDEST PUSH2 0x208 PUSH2 0x3FA CALLDATASIZE PUSH1 0x4 PUSH2 0x32DA JUMP JUMPDEST PUSH2 0x15AC JUMP JUMPDEST PUSH2 0x2C7 PUSH2 0x17E1 JUMP JUMPDEST PUSH2 0x41A PUSH2 0x415 CALLDATASIZE PUSH1 0x4 PUSH2 0x311F JUMP JUMPDEST PUSH2 0x17E7 JUMP JUMPDEST PUSH1 0x40 MLOAD PUSH2 0x22A SWAP11 SWAP10 SWAP9 SWAP8 SWAP7 SWAP6 SWAP5 SWAP4 SWAP3 SWAP2 SWAP1 PUSH2 0x3761 JUMP JUMPDEST PUSH2 0x208 PUSH2 0x43E CALLDATASIZE PUSH1 0x4 PUSH2 0x3105 JUMP JUMPDEST PUSH2 0x1965 JUMP JUMPDEST PUSH2 0x2C7 PUSH2 0x19E9 JUMP JUMPDEST PUSH2 0x31D PUSH2 0x1A0D JUMP JUMPDEST PUSH2 0x208 PUSH2 0x461 CALLDATASIZE PUSH1 0x4 PUSH2 0x3105 JUMP JUMPDEST PUSH2 0x1AE5 JUMP JUMPDEST PUSH2 0x208 PUSH2 0x474 CALLDATASIZE PUSH1 0x4 PUSH2 0x311F JUMP JUMPDEST PUSH2 0x1BE7 JUMP JUMPDEST PUSH2 0x23B PUSH2 0x1D0D JUMP JUMPDEST PUSH2 0x29F PUSH2 0x48F CALLDATASIZE PUSH1 0x4 PUSH2 0x3401 JUMP JUMPDEST PUSH2 0x1D1C JUMP JUMPDEST PUSH1 0x1 SLOAD PUSH1 0x1 PUSH1 0x1 PUSH1 0xA0 SHL SUB AND CALLER EQ PUSH2 0x4C7 JUMPI PUSH1 0x40 MLOAD PUSH3 0x461BCD PUSH1 0xE5 SHL DUP2 MSTORE PUSH1 0x4 ADD PUSH2 0x4BE SWAP1 PUSH2 0x38AB JUMP JUMPDEST PUSH1 0x40 MLOAD DUP1 SWAP2 SUB SWAP1 REVERT JUMPDEST PUSH1 0x0 PUSH1 0x4 DUP8 PUSH1 0x40 MLOAD PUSH2 0x4D9 SWAP2 SWAP1 PUSH2 0x3603 JUMP JUMPDEST SWAP1 DUP2 MSTORE PUSH1 0x40 MLOAD SWAP1 DUP2 SWAP1 SUB PUSH1 0x20 ADD SWAP1 KECCAK256 DUP1 SLOAD SWAP1 SWAP2 POP PUSH1 0x2 PUSH1 0x0 NOT PUSH2 0x100 PUSH1 0x1 DUP5 AND ISZERO MUL ADD SWAP1 SWAP2 AND DIV PUSH2 0x51C JUMPI PUSH1 0x40 MLOAD PUSH3 0x461BCD PUSH1 0xE5 SHL DUP2 MSTORE PUSH1 0x4 ADD PUSH2 0x4BE SWAP1 PUSH2 0x3886 JUMP JUMPDEST PUSH1 0x8 DUP2 ADD SLOAD PUSH1 0xFF AND PUSH2 0x540 JUMPI PUSH1 0x40 MLOAD PUSH3 0x461BCD PUSH1 0xE5 SHL DUP2 MSTORE PUSH1 0x4 ADD PUSH2 0x4BE SWAP1 PUSH2 0x3911 JUMP JUMPDEST PUSH1 0x7 DUP8 PUSH1 0x40 MLOAD PUSH2 0x550 SWAP2 SWAP1 PUSH2 0x3603 JUMP JUMPDEST SWAP1 DUP2 MSTORE PUSH1 0x40 DUP1 MLOAD PUSH1 0x20 SWAP3 DUP2 SWAP1 SUB DUP4 ADD SWAP1 KECCAK256 PUSH1 0x0 DUP10 DUP2 MSTORE SWAP3 MSTORE SWAP1 KECCAK256 SLOAD PUSH1 0xFF AND ISZERO PUSH2 0x58B JUMPI PUSH1 0x40 MLOAD PUSH3 0x461BCD PUSH1 0xE5 SHL DUP2 MSTORE PUSH1 0x4 ADD PUSH2 0x4BE SWAP1 PUSH2 0x3937 JUMP JUMPDEST PUSH1 0x1 PUSH1 0x1 PUSH1 0xA0 SHL SUB DUP3 AND PUSH2 0x5B1 JUMPI PUSH1 0x40 MLOAD PUSH3 0x461BCD PUSH1 0xE5 SHL DUP2 MSTORE PUSH1 0x4 ADD PUSH2 0x4BE SWAP1 PUSH2 0x385C JUMP JUMPDEST DUP1 PUSH1 0x2 ADD PUSH1 0x40 MLOAD PUSH2 0x5C2 SWAP2 SWAP1 PUSH2 0x3593 JUMP JUMPDEST PUSH1 0x40 MLOAD DUP1 SWAP2 SUB SWAP1 KECCAK256 DUP5 DUP1 MLOAD SWAP1 PUSH1 0x20 ADD KECCAK256 EQ PUSH2 0x5EF JUMPI PUSH1 0x40 MLOAD PUSH3 0x461BCD PUSH1 0xE5 SHL DUP2 MSTORE PUSH1 0x4 ADD PUSH2 0x4BE SWAP1 PUSH2 0x37DC JUMP JUMPDEST PUSH1 0x3 DUP2 ADD SLOAD PUSH1 0x40 MLOAD PUSH4 0x70A08231 PUSH1 0xE0 SHL DUP2 MSTORE DUP2 SWAP1 PUSH1 0x1 PUSH1 0x1 PUSH1 0xA0 SHL SUB PUSH32 0x0 AND SWAP1 PUSH4 0x70A08231 SWAP1 PUSH2 0x642 SWAP1 ADDRESS SWAP1 PUSH1 0x4 ADD PUSH2 0x363A JUMP JUMPDEST PUSH1 0x20 PUSH1 0x40 MLOAD DUP1 DUP4 SUB DUP2 DUP7 DUP1 EXTCODESIZE ISZERO DUP1 ISZERO PUSH2 0x65A JUMPI PUSH1 0x0 DUP1 REVERT JUMPDEST POP GAS STATICCALL ISZERO DUP1 ISZERO PUSH2 0x66E JUMPI RETURNDATASIZE PUSH1 0x0 DUP1 RETURNDATACOPY RETURNDATASIZE PUSH1 0x0 REVERT JUMPDEST POP POP POP POP PUSH1 0x40 MLOAD RETURNDATASIZE PUSH1 0x1F NOT PUSH1 0x1F DUP3 ADD AND DUP3 ADD DUP1 PUSH1 0x40 MSTORE POP DUP2 ADD SWAP1 PUSH2 0x692 SWAP2 SWAP1 PUSH2 0x33E9 JUMP JUMPDEST LT ISZERO PUSH2 0x6B0 JUMPI PUSH1 0x40 MLOAD PUSH3 0x461BCD PUSH1 0xE5 SHL DUP2 MSTORE PUSH1 0x4 ADD PUSH2 0x4BE SWAP1 PUSH2 0x395F JUMP JUMPDEST PUSH1 0x4 DUP3 ADD DUP1 SLOAD PUSH1 0x1 ADD SWAP1 SSTORE PUSH1 0x6 DUP3 ADD DUP1 SLOAD DUP3 ADD SWAP1 SSTORE PUSH1 0x40 DUP1 MLOAD PUSH1 0xA0 DUP2 ADD DUP3 MSTORE DUP9 DUP2 MSTORE PUSH1 0x20 DUP2 ADD DUP9 SWAP1 MSTORE PUSH1 0x1 PUSH1 0x1 PUSH1 0xA0 SHL SUB DUP6 AND DUP2 DUP4 ADD MSTORE PUSH1 0x60 DUP2 ADD DUP4 SWAP1 MSTORE TIMESTAMP PUSH1 0x80 DUP3 ADD MSTORE SWAP1 MLOAD PUSH1 0x5 SWAP1 PUSH2 0x704 SWAP1 DUP12 SWAP1 PUSH2 0x3603 JUMP JUMPDEST SWAP1 DUP2 MSTORE PUSH1 0x40 DUP1 MLOAD PUSH1 0x20 SWAP3 DUP2 SWAP1 SUB DUP4 ADD DUP2 KECCAK256 PUSH1 0x1 PUSH1 0x1 PUSH1 0xA0 SHL SUB DUP9 DUP2 AND PUSH1 0x0 SWAP1 DUP2 MSTORE SWAP2 DUP6 MSTORE SWAP1 DUP4 SWAP1 KECCAK256 DUP6 MLOAD DUP2 SSTORE SWAP4 DUP6 ADD MLOAD PUSH1 0x1 DUP1 DUP7 ADD SWAP2 SWAP1 SWAP2 SSTORE SWAP3 DUP6 ADD MLOAD PUSH1 0x2 DUP6 ADD DUP1 SLOAD PUSH1 0x1 PUSH1 0x1 PUSH1 0xA0 SHL SUB NOT AND SWAP2 SWAP1 SWAP3 AND OR SWAP1 SSTORE PUSH1 0x60 DUP5 ADD MLOAD PUSH1 0x3 DUP5 ADD SSTORE PUSH1 0x80 SWAP1 SWAP4 ADD MLOAD PUSH1 0x4 SWAP1 SWAP3 ADD SWAP2 SWAP1 SWAP2 SSTORE SWAP1 PUSH1 0x7 SWAP1 PUSH2 0x780 SWAP1 DUP12 SWAP1 PUSH2 0x3603 JUMP JUMPDEST SWAP1 DUP2 MSTORE PUSH1 0x40 DUP1 MLOAD PUSH1 0x20 SWAP3 DUP2 SWAP1 SUB DUP4 ADD SWAP1 KECCAK256 PUSH1 0x0 DUP12 DUP2 MSTORE SWAP1 DUP4 MSTORE DUP2 DUP2 KECCAK256 DUP1 SLOAD PUSH1 0xFF NOT AND SWAP5 ISZERO ISZERO SWAP5 SWAP1 SWAP5 OR SWAP1 SWAP4 SSTORE PUSH1 0x8 DUP3 MSTORE DUP3 KECCAK256 DUP1 SLOAD PUSH1 0x1 DUP2 ADD DUP3 SSTORE SWAP1 DUP4 MSTORE SWAP2 DUP2 SWAP1 KECCAK256 DUP11 MLOAD PUSH2 0x7D4 SWAP4 SWAP2 SWAP1 SWAP2 ADD SWAP2 DUP12 ADD SWAP1 PUSH2 0x2EBD JUMP JUMPDEST POP PUSH2 0x809 PUSH1 0x1 PUSH1 0x1 PUSH1 0xA0 SHL SUB PUSH32 0x0 AND DUP5 DUP4 PUSH2 0x1DA0 JUMP JUMPDEST DUP3 PUSH1 0x1 PUSH1 0x1 PUSH1 0xA0 SHL SUB AND CALLER PUSH1 0x1 PUSH1 0x1 PUSH1 0xA0 SHL SUB AND DUP10 PUSH1 0x40 MLOAD PUSH2 0x82B SWAP2 SWAP1 PUSH2 0x3603 JUMP JUMPDEST PUSH1 0x40 MLOAD DUP1 SWAP2 SUB SWAP1 KECCAK256 PUSH32 0xCC59A4E18E6F0351E0F31E360ECBCC26CF0C96431BDF1CF16BADE89F8AC1BF28 DUP11 DUP11 DUP11 DUP8 TIMESTAMP PUSH1 0x40 MLOAD PUSH2 0x86A SWAP6 SWAP5 SWAP4 SWAP3 SWAP2 SWAP1 PUSH2 0x3BEB JUMP JUMPDEST PUSH1 0x40 MLOAD DUP1 SWAP2 SUB SWAP1 LOG4 POP POP POP POP POP POP POP POP JUMP JUMPDEST PUSH1 0x1 SWAP6 SWAP5 POP POP POP POP POP JUMP JUMPDEST PUSH32 0x0 DUP2 JUMP JUMPDEST DUP2 MLOAD PUSH1 0x20 DUP2 DUP5 ADD DUP2 ADD DUP1 MLOAD PUSH1 0x5 DUP3 MSTORE SWAP3 DUP3 ADD SWAP5 DUP3 ADD SWAP5 SWAP1 SWAP5 KECCAK256 SWAP2 SWAP1 SWAP4 MSTORE SWAP1 SWAP2 MSTORE PUSH1 0x0 SWAP1 DUP2 MSTORE PUSH1 0x40 SWAP1 KECCAK256 DUP1 SLOAD PUSH1 0x1 DUP3 ADD SLOAD PUSH1 0x2 DUP4 ADD SLOAD PUSH1 0x3 DUP5 ADD SLOAD PUSH1 0x4 SWAP1 SWAP5 ADD SLOAD SWAP3 SWAP4 SWAP2 SWAP3 PUSH1 0x1 PUSH1 0x1 PUSH1 0xA0 SHL SUB SWAP1 SWAP2 AND SWAP2 SWAP1 DUP6 JUMP JUMPDEST PUSH2 0x907 PUSH2 0x2F49 JUMP JUMPDEST PUSH1 0x5 DUP4 PUSH1 0x40 MLOAD PUSH2 0x917 SWAP2 SWAP1 PUSH2 0x3603 JUMP JUMPDEST SWAP1 DUP2 MSTORE PUSH1 0x40 DUP1 MLOAD PUSH1 0x20 SWAP3 DUP2 SWAP1 SUB DUP4 ADD DUP2 KECCAK256 PUSH1 0x1 PUSH1 0x1 PUSH1 0xA0 SHL SUB SWAP6 DUP7 AND PUSH1 0x0 SWAP1 DUP2 MSTORE SWAP1 DUP5 MSTORE DUP3 SWAP1 KECCAK256 PUSH1 0xA0 DUP3 ADD DUP4 MSTORE DUP1 SLOAD DUP3 MSTORE PUSH1 0x1 DUP2 ADD SLOAD SWAP4 DUP3 ADD SWAP4 SWAP1 SWAP4 MSTORE PUSH1 0x2 DUP4 ADD SLOAD SWAP1 SWAP5 AND SWAP1 DUP5 ADD MSTORE PUSH1 0x3 DUP2 ADD SLOAD PUSH1 0x60 DUP5 ADD MSTORE PUSH1 0x4 ADD SLOAD PUSH1 0x80 DUP4 ADD MSTORE POP SWAP2 SWAP1 POP JUMP JUMPDEST PUSH1 0x3 SLOAD PUSH1 0x60 SWAP1 DUP3 LT PUSH2 0x99D JUMPI PUSH1 0x40 MLOAD PUSH3 0x461BCD PUSH1 0xE5 SHL DUP2 MSTORE PUSH1 0x4 ADD PUSH2 0x4BE SWAP1 PUSH2 0x39B5 JUMP JUMPDEST PUSH1 0x3 DUP3 DUP2 SLOAD DUP2 LT PUSH2 0x9AA JUMPI INVALID JUMPDEST PUSH1 0x0 SWAP2 DUP3 MSTORE PUSH1 0x20 SWAP2 DUP3 SWAP1 KECCAK256 ADD DUP1 SLOAD PUSH1 0x40 DUP1 MLOAD PUSH1 0x1F PUSH1 0x2 PUSH1 0x0 NOT PUSH2 0x100 PUSH1 0x1 DUP8 AND ISZERO MUL ADD SWAP1 SWAP5 AND SWAP4 SWAP1 SWAP4 DIV SWAP3 DUP4 ADD DUP6 SWAP1 DIV DUP6 MUL DUP2 ADD DUP6 ADD SWAP1 SWAP2 MSTORE DUP2 DUP2 MSTORE SWAP3 DUP4 ADD DUP3 DUP3 DUP1 ISZERO PUSH2 0xA38 JUMPI DUP1 PUSH1 0x1F LT PUSH2 0xA0D JUMPI PUSH2 0x100 DUP1 DUP4 SLOAD DIV MUL DUP4 MSTORE SWAP2 PUSH1 0x20 ADD SWAP2 PUSH2 0xA38 JUMP JUMPDEST DUP3 ADD SWAP2 SWAP1 PUSH1 0x0 MSTORE PUSH1 0x20 PUSH1 0x0 KECCAK256 SWAP1 JUMPDEST DUP2 SLOAD DUP2 MSTORE SWAP1 PUSH1 0x1 ADD SWAP1 PUSH1 0x20 ADD DUP1 DUP4 GT PUSH2 0xA1B JUMPI DUP3 SWAP1 SUB PUSH1 0x1F AND DUP3 ADD SWAP2 JUMPDEST POP POP POP POP POP SWAP1 POP JUMPDEST SWAP2 SWAP1 POP JUMP JUMPDEST PUSH1 0x60 PUSH2 0xA4F PUSH2 0x1DF7 JUMP JUMPDEST PUSH1 0x1 PUSH1 0x1 PUSH1 0xA0 SHL SUB AND PUSH2 0xA60 PUSH2 0x1355 JUMP JUMPDEST PUSH1 0x1 PUSH1 0x1 PUSH1 0xA0 SHL SUB AND EQ PUSH2 0xAA9 JUMPI PUSH1 0x40 DUP1 MLOAD PUSH3 0x461BCD PUSH1 0xE5 SHL DUP2 MSTORE PUSH1 0x20 PUSH1 0x4 DUP3 ADD DUP2 SWAP1 MSTORE PUSH1 0x24 DUP3 ADD MSTORE PUSH1 0x0 DUP1 MLOAD PUSH1 0x20 PUSH2 0x3D42 DUP4 CODECOPY DUP2 MLOAD SWAP2 MSTORE PUSH1 0x44 DUP3 ADD MSTORE SWAP1 MLOAD SWAP1 DUP2 SWAP1 SUB PUSH1 0x64 ADD SWAP1 REVERT JUMPDEST PUSH1 0x0 DUP7 MLOAD GT PUSH2 0xACA JUMPI PUSH1 0x40 MLOAD PUSH3 0x461BCD PUSH1 0xE5 SHL DUP2 MSTORE PUSH1 0x4 ADD PUSH2 0x4BE SWAP1 PUSH2 0x39E2 JUMP JUMPDEST PUSH1 0x0 DUP4 MLOAD GT PUSH2 0xAEB JUMPI PUSH1 0x40 MLOAD PUSH3 0x461BCD PUSH1 0xE5 SHL DUP2 MSTORE PUSH1 0x4 ADD PUSH2 0x4BE SWAP1 PUSH2 0x3809 JUMP JUMPDEST PUSH1 0x0 DUP3 GT PUSH2 0xB0B JUMPI PUSH1 0x40 MLOAD PUSH3 0x461BCD PUSH1 0xE5 SHL DUP2 MSTORE PUSH1 0x4 ADD PUSH2 0x4BE SWAP1 PUSH2 0x3835 JUMP JUMPDEST PUSH1 0x4 DUP7 PUSH1 0x40 MLOAD PUSH2 0xB1B SWAP2 SWAP1 PUSH2 0x3603 JUMP JUMPDEST SWAP1 DUP2 MSTORE PUSH1 0x40 MLOAD SWAP1 DUP2 SWAP1 SUB PUSH1 0x20 ADD SWAP1 KECCAK256 SLOAD PUSH1 0x2 PUSH1 0x0 NOT PUSH2 0x100 PUSH1 0x1 DUP5 AND ISZERO MUL ADD SWAP1 SWAP2 AND DIV ISZERO PUSH2 0xB5B JUMPI PUSH1 0x40 MLOAD PUSH3 0x461BCD PUSH1 0xE5 SHL DUP2 MSTORE PUSH1 0x4 ADD PUSH2 0x4BE SWAP1 PUSH2 0x398A JUMP JUMPDEST PUSH1 0x40 MLOAD DUP1 PUSH2 0x140 ADD PUSH1 0x40 MSTORE DUP1 DUP8 DUP2 MSTORE PUSH1 0x20 ADD DUP7 PUSH1 0x3 DUP2 GT ISZERO PUSH2 0xB79 JUMPI INVALID JUMPDEST DUP2 MSTORE PUSH1 0x20 ADD DUP6 PUSH1 0x1 DUP2 GT ISZERO PUSH2 0xB8A JUMPI INVALID JUMPDEST DUP2 MSTORE PUSH1 0x20 ADD DUP5 DUP2 MSTORE PUSH1 0x20 ADD DUP4 DUP2 MSTORE PUSH1 0x20 ADD PUSH1 0x0 DUP2 MSTORE PUSH1 0x20 ADD PUSH1 0x0 DUP2 MSTORE PUSH1 0x20 ADD PUSH1 0x0 DUP2 MSTORE PUSH1 0x20 ADD PUSH1 0x0 DUP2 MSTORE PUSH1 0x20 ADD PUSH1 0x1 ISZERO ISZERO DUP2 MSTORE POP PUSH1 0x4 DUP8 PUSH1 0x40 MLOAD PUSH2 0xBCE SWAP2 SWAP1 PUSH2 0x3603 JUMP JUMPDEST SWAP1 DUP2 MSTORE PUSH1 0x20 ADD PUSH1 0x40 MLOAD DUP1 SWAP2 SUB SWAP1 KECCAK256 PUSH1 0x0 DUP3 ADD MLOAD DUP2 PUSH1 0x0 ADD SWAP1 DUP1 MLOAD SWAP1 PUSH1 0x20 ADD SWAP1 PUSH2 0xBF8 SWAP3 SWAP2 SWAP1 PUSH2 0x2EBD JUMP JUMPDEST POP PUSH1 0x20 DUP3 ADD MLOAD PUSH1 0x1 DUP1 DUP4 ADD DUP1 SLOAD SWAP1 SWAP2 PUSH1 0xFF NOT SWAP1 SWAP2 AND SWAP1 DUP4 PUSH1 0x3 DUP2 GT ISZERO PUSH2 0xC1A JUMPI INVALID JUMPDEST MUL OR SWAP1 SSTORE POP PUSH1 0x40 DUP3 ADD MLOAD DUP2 PUSH1 0x1 ADD PUSH1 0x1 PUSH2 0x100 EXP DUP2 SLOAD DUP2 PUSH1 0xFF MUL NOT AND SWAP1 DUP4 PUSH1 0x1 DUP2 GT ISZERO PUSH2 0xC43 JUMPI INVALID JUMPDEST MUL OR SWAP1 SSTORE POP PUSH1 0x60 DUP3 ADD MLOAD DUP1 MLOAD PUSH2 0xC63 SWAP2 PUSH1 0x2 DUP5 ADD SWAP2 PUSH1 0x20 SWAP1 SWAP2 ADD SWAP1 PUSH2 0x2EBD JUMP JUMPDEST POP PUSH1 0x80 DUP3 ADD MLOAD PUSH1 0x3 DUP3 DUP2 ADD SWAP2 SWAP1 SWAP2 SSTORE PUSH1 0xA0 DUP4 ADD MLOAD PUSH1 0x4 DUP4 ADD SSTORE PUSH1 0xC0 DUP4 ADD MLOAD PUSH1 0x5 DUP4 ADD SSTORE PUSH1 0xE0 DUP4 ADD MLOAD PUSH1 0x6 DUP4 ADD SSTORE PUSH2 0x100 DUP4 ADD MLOAD PUSH1 0x7 DUP4 ADD SSTORE PUSH2 0x120 SWAP1 SWAP3 ADD MLOAD PUSH1 0x8 SWAP1 SWAP2 ADD DUP1 SLOAD PUSH1 0xFF NOT AND SWAP2 ISZERO ISZERO SWAP2 SWAP1 SWAP2 OR SWAP1 SSTORE DUP1 SLOAD PUSH1 0x1 DUP2 ADD DUP3 SSTORE PUSH1 0x0 SWAP2 SWAP1 SWAP2 MSTORE DUP7 MLOAD PUSH2 0xCF7 SWAP2 PUSH32 0xC2575A0E9E593C00F959F8C92F12DB2869C3395A3B0502D05E2516446F71F85B ADD SWAP1 PUSH1 0x20 DUP10 ADD SWAP1 PUSH2 0x2EBD JUMP JUMPDEST POP DUP6 PUSH1 0x40 MLOAD PUSH2 0xD06 SWAP2 SWAP1 PUSH2 0x3603 JUMP JUMPDEST PUSH1 0x40 MLOAD DUP1 SWAP2 SUB SWAP1 KECCAK256 PUSH32 0xC1B4F0F8EFC094DD344251B2BF8367C35E8E32DDDF97390F50D27F2F4E2FE21A DUP7 DUP7 DUP7 DUP7 PUSH1 0x40 MLOAD PUSH2 0xD43 SWAP5 SWAP4 SWAP3 SWAP2 SWAP1 PUSH2 0x36E5 JUMP JUMPDEST PUSH1 0x40 MLOAD DUP1 SWAP2 SUB SWAP1 LOG2 POP SWAP4 SWAP5 SWAP4 POP POP POP POP JUMP JUMPDEST PUSH32 0x0 DUP2 JUMP JUMPDEST PUSH2 0xD81 PUSH2 0x1DF7 JUMP JUMPDEST PUSH1 0x1 PUSH1 0x1 PUSH1 0xA0 SHL SUB AND PUSH2 0xD92 PUSH2 0x1355 JUMP JUMPDEST PUSH1 0x1 PUSH1 0x1 PUSH1 0xA0 SHL SUB AND EQ PUSH2 0xDDB JUMPI PUSH1 0x40 DUP1 MLOAD PUSH3 0x461BCD PUSH1 0xE5 SHL DUP2 MSTORE PUSH1 0x20 PUSH1 0x4 DUP3 ADD DUP2 SWAP1 MSTORE PUSH1 0x24 DUP3 ADD MSTORE PUSH1 0x0 DUP1 MLOAD PUSH1 0x20 PUSH2 0x3D42 DUP4 CODECOPY DUP2 MLOAD SWAP2 MSTORE PUSH1 0x44 DUP3 ADD MSTORE SWAP1 MLOAD SWAP1 DUP2 SWAP1 SUB PUSH1 0x64 ADD SWAP1 REVERT JUMPDEST PUSH1 0x1 SLOAD PUSH2 0xE15 SWAP1 PUSH1 0x1 PUSH1 0x1 PUSH1 0xA0 SHL SUB PUSH32 0x0 DUP2 AND SWAP2 AND DUP4 PUSH2 0x1DA0 JUMP JUMPDEST POP JUMP JUMPDEST PUSH1 0x3 DUP2 DUP2 SLOAD DUP2 LT PUSH2 0xE28 JUMPI PUSH1 0x0 DUP1 REVERT JUMPDEST PUSH1 0x0 SWAP2 DUP3 MSTORE PUSH1 0x20 SWAP2 DUP3 SWAP1 KECCAK256 ADD DUP1 SLOAD PUSH1 0x40 DUP1 MLOAD PUSH1 0x1F PUSH1 0x2 PUSH1 0x0 NOT PUSH2 0x100 PUSH1 0x1 DUP8 AND ISZERO MUL ADD SWAP1 SWAP5 AND SWAP4 SWAP1 SWAP4 DIV SWAP3 DUP4 ADD DUP6 SWAP1 DIV DUP6 MUL DUP2 ADD DUP6 ADD SWAP1 SWAP2 MSTORE DUP2 DUP2 MSTORE SWAP4 POP SWAP1 SWAP2 DUP4 ADD DUP3 DUP3 DUP1 ISZERO PUSH2 0xEB9 JUMPI DUP1 PUSH1 0x1F LT PUSH2 0xE8E JUMPI PUSH2 0x100 DUP1 DUP4 SLOAD DIV MUL DUP4 MSTORE SWAP2 PUSH1 0x20 ADD SWAP2 PUSH2 0xEB9 JUMP JUMPDEST DUP3 ADD SWAP2 SWAP1 PUSH1 0x0 MSTORE PUSH1 0x20 PUSH1 0x0 KECCAK256 SWAP1 JUMPDEST DUP2 SLOAD DUP2 MSTORE SWAP1 PUSH1 0x1 ADD SWAP1 PUSH1 0x20 ADD DUP1 DUP4 GT PUSH2 0xE9C JUMPI DUP3 SWAP1 SUB PUSH1 0x1F AND DUP3 ADD SWAP2 JUMPDEST POP POP POP POP POP DUP2 JUMP JUMPDEST PUSH1 0x40 MLOAD PUSH4 0x70A08231 PUSH1 0xE0 SHL DUP2 MSTORE PUSH1 0x0 SWAP1 PUSH1 0x1 PUSH1 0x1 PUSH1 0xA0 SHL SUB PUSH32 0x0 AND SWAP1 PUSH4 0x70A08231 SWAP1 PUSH2 0xF10 SWAP1 ADDRESS SWAP1 PUSH1 0x4 ADD PUSH2 0x363A JUMP JUMPDEST PUSH1 0x20 PUSH1 0x40 MLOAD DUP1 DUP4 SUB DUP2 DUP7 DUP1 EXTCODESIZE ISZERO DUP1 ISZERO PUSH2 0xF28 JUMPI PUSH1 0x0 DUP1 REVERT JUMPDEST POP GAS STATICCALL ISZERO DUP1 ISZERO PUSH2 0xF3C JUMPI RETURNDATASIZE PUSH1 0x0 DUP1 RETURNDATACOPY RETURNDATASIZE PUSH1 0x0 REVERT JUMPDEST POP POP POP POP PUSH1 0x40 MLOAD RETURNDATASIZE PUSH1 0x1F NOT PUSH1 0x1F DUP3 ADD AND DUP3 ADD DUP1 PUSH1 0x40 MSTORE POP DUP2 ADD SWAP1 PUSH2 0xF60 SWAP2 SWAP1 PUSH2 0x33E9 JUMP JUMPDEST SWAP1 POP SWAP1 JUMP JUMPDEST PUSH2 0xF6D PUSH2 0x1DF7 JUMP JUMPDEST PUSH1 0x1 PUSH1 0x1 PUSH1 0xA0 SHL SUB AND PUSH2 0xF7E PUSH2 0x1355 JUMP JUMPDEST PUSH1 0x1 PUSH1 0x1 PUSH1 0xA0 SHL SUB AND EQ PUSH2 0xFC7 JUMPI PUSH1 0x40 DUP1 MLOAD PUSH3 0x461BCD PUSH1 0xE5 SHL DUP2 MSTORE PUSH1 0x20 PUSH1 0x4 DUP3 ADD DUP2 SWAP1 MSTORE PUSH1 0x24 DUP3 ADD MSTORE PUSH1 0x0 DUP1 MLOAD PUSH1 0x20 PUSH2 0x3D42 DUP4 CODECOPY DUP2 MLOAD SWAP2 MSTORE PUSH1 0x44 DUP3 ADD MSTORE SWAP1 MLOAD SWAP1 DUP2 SWAP1 SUB PUSH1 0x64 ADD SWAP1 REVERT JUMPDEST PUSH1 0x0 DUP1 SLOAD PUSH1 0x40 MLOAD PUSH1 0x1 PUSH1 0x1 PUSH1 0xA0 SHL SUB SWAP1 SWAP2 AND SWAP1 PUSH32 0x8BE0079C531659141344CD1FD0A4F28419497F9722A3DAAFE3B4186F6B6457E0 SWAP1 DUP4 SWAP1 LOG3 PUSH1 0x0 DUP1 SLOAD PUSH1 0x1 PUSH1 0x1 PUSH1 0xA0 SHL SUB NOT AND SWAP1 SSTORE JUMP JUMPDEST PUSH1 0x60 PUSH1 0x8 PUSH1 0x0 DUP4 DUP2 MSTORE PUSH1 0x20 ADD SWAP1 DUP2 MSTORE PUSH1 0x20 ADD PUSH1 0x0 KECCAK256 DUP1 SLOAD DUP1 PUSH1 0x20 MUL PUSH1 0x20 ADD PUSH1 0x40 MLOAD SWAP1 DUP2 ADD PUSH1 0x40 MSTORE DUP1 SWAP3 SWAP2 SWAP1 DUP2 DUP2 MSTORE PUSH1 0x20 ADD PUSH1 0x0 SWAP1 JUMPDEST DUP3 DUP3 LT ISZERO PUSH2 0x10F1 JUMPI PUSH1 0x0 DUP5 DUP2 MSTORE PUSH1 0x20 SWAP1 DUP2 SWAP1 KECCAK256 DUP4 ADD DUP1 SLOAD PUSH1 0x40 DUP1 MLOAD PUSH1 0x1F PUSH1 0x2 PUSH1 0x0 NOT PUSH2 0x100 PUSH1 0x1 DUP8 AND ISZERO MUL ADD SWAP1 SWAP5 AND SWAP4 SWAP1 SWAP4 DIV SWAP3 DUP4 ADD DUP6 SWAP1 DIV DUP6 MUL DUP2 ADD DUP6 ADD SWAP1 SWAP2 MSTORE DUP2 DUP2 MSTORE SWAP3 DUP4 ADD DUP3 DUP3 DUP1 ISZERO PUSH2 0x10DD JUMPI DUP1 PUSH1 0x1F LT PUSH2 0x10B2 JUMPI PUSH2 0x100 DUP1 DUP4 SLOAD DIV MUL DUP4 MSTORE SWAP2 PUSH1 0x20 ADD SWAP2 PUSH2 0x10DD JUMP JUMPDEST DUP3 ADD SWAP2 SWAP1 PUSH1 0x0 MSTORE PUSH1 0x20 PUSH1 0x0 KECCAK256 SWAP1 JUMPDEST DUP2 SLOAD DUP2 MSTORE SWAP1 PUSH1 0x1 ADD SWAP1 PUSH1 0x20 ADD DUP1 DUP4 GT PUSH2 0x10C0 JUMPI DUP3 SWAP1 SUB PUSH1 0x1F AND DUP3 ADD SWAP2 JUMPDEST POP POP POP POP POP DUP2 MSTORE PUSH1 0x20 ADD SWAP1 PUSH1 0x1 ADD SWAP1 PUSH2 0x1046 JUMP JUMPDEST POP POP POP POP SWAP1 POP SWAP2 SWAP1 POP JUMP JUMPDEST PUSH2 0x1104 PUSH2 0x2F81 JUMP JUMPDEST PUSH1 0x4 DUP3 PUSH1 0x40 MLOAD PUSH2 0x1114 SWAP2 SWAP1 PUSH2 0x3603 JUMP JUMPDEST SWAP1 DUP2 MSTORE PUSH1 0x40 DUP1 MLOAD PUSH1 0x20 SWAP3 DUP2 SWAP1 SUB DUP4 ADD DUP2 KECCAK256 DUP1 SLOAD PUSH1 0x2 PUSH1 0x1 DUP3 AND ISZERO PUSH2 0x100 MUL PUSH1 0x0 NOT ADD SWAP1 SWAP2 AND DIV PUSH1 0x1F DUP2 ADD DUP6 SWAP1 DIV SWAP1 SWAP5 MUL DUP3 ADD PUSH2 0x160 SWAP1 DUP2 ADD SWAP1 SWAP4 MSTORE PUSH2 0x140 DUP3 ADD DUP5 DUP2 MSTORE SWAP2 SWAP4 SWAP1 SWAP3 DUP5 SWAP3 SWAP2 DUP5 SWAP2 DUP5 ADD DUP3 DUP3 DUP1 ISZERO PUSH2 0x11B1 JUMPI DUP1 PUSH1 0x1F LT PUSH2 0x1186 JUMPI PUSH2 0x100 DUP1 DUP4 SLOAD DIV MUL DUP4 MSTORE SWAP2 PUSH1 0x20 ADD SWAP2 PUSH2 0x11B1 JUMP JUMPDEST DUP3 ADD SWAP2 SWAP1 PUSH1 0x0 MSTORE PUSH1 0x20 PUSH1 0x0 KECCAK256 SWAP1 JUMPDEST DUP2 SLOAD DUP2 MSTORE SWAP1 PUSH1 0x1 ADD SWAP1 PUSH1 0x20 ADD DUP1 DUP4 GT PUSH2 0x1194 JUMPI DUP3 SWAP1 SUB PUSH1 0x1F AND DUP3 ADD SWAP2 JUMPDEST POP POP POP SWAP2 DUP4 MSTORE POP POP PUSH1 0x1 DUP3 ADD SLOAD PUSH1 0x20 SWAP1 SWAP2 ADD SWAP1 PUSH1 0xFF AND PUSH1 0x3 DUP2 GT ISZERO PUSH2 0x11D2 JUMPI INVALID JUMPDEST PUSH1 0x3 DUP2 GT ISZERO PUSH2 0x11DD JUMPI INVALID JUMPDEST DUP2 MSTORE PUSH1 0x20 ADD PUSH1 0x1 DUP3 ADD PUSH1 0x1 SWAP1 SLOAD SWAP1 PUSH2 0x100 EXP SWAP1 DIV PUSH1 0xFF AND PUSH1 0x1 DUP2 GT ISZERO PUSH2 0x11FF JUMPI INVALID JUMPDEST PUSH1 0x1 DUP2 GT ISZERO PUSH2 0x120A JUMPI INVALID JUMPDEST DUP2 MSTORE PUSH1 0x2 DUP3 DUP2 ADD DUP1 SLOAD PUSH1 0x40 DUP1 MLOAD PUSH1 0x20 PUSH1 0x1 DUP5 AND ISZERO PUSH2 0x100 MUL PUSH1 0x0 NOT ADD SWAP1 SWAP4 AND SWAP5 SWAP1 SWAP5 DIV PUSH1 0x1F DUP2 ADD DUP4 SWAP1 DIV DUP4 MUL DUP6 ADD DUP4 ADD SWAP1 SWAP2 MSTORE DUP1 DUP5 MSTORE SWAP4 DUP2 ADD SWAP4 SWAP1 DUP4 ADD DUP3 DUP3 DUP1 ISZERO PUSH2 0x1296 JUMPI DUP1 PUSH1 0x1F LT PUSH2 0x126B JUMPI PUSH2 0x100 DUP1 DUP4 SLOAD DIV MUL DUP4 MSTORE SWAP2 PUSH1 0x20 ADD SWAP2 PUSH2 0x1296 JUMP JUMPDEST DUP3 ADD SWAP2 SWAP1 PUSH1 0x0 MSTORE PUSH1 0x20 PUSH1 0x0 KECCAK256 SWAP1 JUMPDEST DUP2 SLOAD DUP2 MSTORE SWAP1 PUSH1 0x1 ADD SWAP1 PUSH1 0x20 ADD DUP1 DUP4 GT PUSH2 0x1279 JUMPI DUP3 SWAP1 SUB PUSH1 0x1F AND DUP3 ADD SWAP2 JUMPDEST POP POP POP SWAP2 DUP4 MSTORE POP POP PUSH1 0x3 DUP3 ADD SLOAD PUSH1 0x20 DUP3 ADD MSTORE PUSH1 0x4 DUP3 ADD SLOAD PUSH1 0x40 DUP3 ADD MSTORE PUSH1 0x5 DUP3 ADD SLOAD PUSH1 0x60 DUP3 ADD MSTORE PUSH1 0x6 DUP3 ADD SLOAD PUSH1 0x80 DUP3 ADD MSTORE PUSH1 0x7 DUP3 ADD SLOAD PUSH1 0xA0 DUP3 ADD MSTORE PUSH1 0x8 SWAP1 SWAP2 ADD SLOAD PUSH1 0xFF AND ISZERO ISZERO PUSH1 0xC0 SWAP1 SWAP2 ADD MSTORE SWAP3 SWAP2 POP POP JUMP JUMPDEST PUSH1 0x0 PUSH2 0x12F5 DUP7 DUP7 DUP6 DUP6 PUSH2 0x1DFB JUMP JUMPDEST SWAP7 SWAP6 POP POP POP POP POP POP JUMP JUMPDEST PUSH1 0x0 PUSH1 0x7 DUP4 PUSH1 0x40 MLOAD PUSH2 0x1311 SWAP2 SWAP1 PUSH2 0x3603 JUMP JUMPDEST SWAP1 DUP2 MSTORE PUSH1 0x40 DUP1 MLOAD PUSH1 0x20 SWAP3 DUP2 SWAP1 SUB DUP4 ADD SWAP1 KECCAK256 PUSH1 0x0 SWAP5 DUP6 MSTORE SWAP1 SWAP2 MSTORE SWAP1 SWAP2 KECCAK256 SLOAD PUSH1 0xFF AND SWAP3 SWAP2 POP POP JUMP JUMPDEST PUSH1 0x0 PUSH2 0x12F5 DUP7 DUP7 DUP7 DUP7 DUP7 PUSH2 0x2106 JUMP JUMPDEST PUSH1 0x2 SLOAD PUSH1 0x1 PUSH1 0x1 PUSH1 0xA0 SHL SUB AND DUP2 JUMP JUMPDEST PUSH1 0x0 SLOAD PUSH1 0x1 PUSH1 0x1 PUSH1 0xA0 SHL SUB AND SWAP1 JUMP JUMPDEST DUP2 MLOAD PUSH1 0x20 DUP2 DUP5 ADD DUP2 ADD DUP1 MLOAD PUSH1 0x6 DUP3 MSTORE SWAP3 DUP3 ADD SWAP5 DUP3 ADD SWAP5 SWAP1 SWAP5 KECCAK256 SWAP2 SWAP1 SWAP4 MSTORE DUP3 MSTORE PUSH1 0x0 SWAP1 DUP2 MSTORE PUSH1 0x40 SWAP1 DUP2 SWAP1 KECCAK256 DUP1 SLOAD PUSH1 0x1 DUP1 DUP4 ADD SLOAD PUSH1 0x2 DUP1 DUP6 ADD SLOAD PUSH1 0x3 DUP7 ADD SLOAD PUSH1 0x4 DUP8 ADD SLOAD PUSH1 0x5 DUP9 ADD DUP1 SLOAD DUP11 MLOAD PUSH2 0x100 SWAP9 DUP3 AND ISZERO DUP10 MUL PUSH1 0x0 NOT ADD SWAP1 SWAP2 AND SWAP6 SWAP1 SWAP6 DIV PUSH1 0x1F DUP2 ADD DUP13 SWAP1 DIV DUP13 MUL DUP7 ADD DUP13 ADD SWAP1 SWAP11 MSTORE DUP10 DUP6 MSTORE SWAP7 SWAP10 PUSH1 0x1 PUSH1 0x1 PUSH1 0xA0 SHL SUB SWAP1 SWAP6 AND SWAP9 SWAP3 SWAP8 SWAP2 SWAP7 PUSH1 0xFF DUP3 AND SWAP7 SWAP1 SWAP2 DIV PUSH4 0xFFFFFFFF AND SWAP5 SWAP2 SWAP4 SWAP3 SWAP1 SWAP2 DUP4 ADD DUP3 DUP3 DUP1 ISZERO PUSH2 0x144C JUMPI DUP1 PUSH1 0x1F LT PUSH2 0x1421 JUMPI PUSH2 0x100 DUP1 DUP4 SLOAD DIV MUL DUP4 MSTORE SWAP2 PUSH1 0x20 ADD SWAP2 PUSH2 0x144C JUMP JUMPDEST DUP3 ADD SWAP2 SWAP1 PUSH1 0x0 MSTORE PUSH1 0x20 PUSH1 0x0 KECCAK256 SWAP1 JUMPDEST DUP2 SLOAD DUP2 MSTORE SWAP1 PUSH1 0x1 ADD SWAP1 PUSH1 0x20 ADD DUP1 DUP4 GT PUSH2 0x142F JUMPI DUP3 SWAP1 SUB PUSH1 0x1F AND DUP3 ADD SWAP2 JUMPDEST POP POP POP POP POP SWAP1 POP DUP8 JUMP JUMPDEST PUSH2 0x145E PUSH2 0x2FD7 JUMP JUMPDEST PUSH1 0x6 DUP4 PUSH1 0x40 MLOAD PUSH2 0x146E SWAP2 SWAP1 PUSH2 0x3603 JUMP JUMPDEST SWAP1 DUP2 MSTORE PUSH1 0x40 DUP1 MLOAD SWAP2 DUP3 SWAP1 SUB PUSH1 0x20 SWAP1 DUP2 ADD DUP4 KECCAK256 PUSH1 0x1 PUSH1 0x1 PUSH1 0xA0 SHL SUB DUP1 DUP8 AND PUSH1 0x0 SWAP1 DUP2 MSTORE SWAP2 DUP4 MSTORE SWAP1 DUP4 SWAP1 KECCAK256 PUSH1 0xE0 DUP6 ADD DUP5 MSTORE DUP1 SLOAD DUP6 MSTORE PUSH1 0x1 DUP1 DUP3 ADD SLOAD SWAP1 SWAP3 AND DUP6 DUP5 ADD MSTORE PUSH1 0x2 DUP1 DUP3 ADD SLOAD DUP7 DUP7 ADD MSTORE PUSH1 0x3 DUP3 ADD SLOAD PUSH1 0x60 DUP8 ADD MSTORE PUSH1 0x4 DUP3 ADD SLOAD PUSH1 0xFF DUP2 AND ISZERO ISZERO PUSH1 0x80 DUP9 ADD MSTORE PUSH4 0xFFFFFFFF PUSH2 0x100 SWAP2 DUP3 SWAP1 DIV AND PUSH1 0xA0 DUP9 ADD MSTORE PUSH1 0x5 DUP4 ADD DUP1 SLOAD DUP8 MLOAD PUSH1 0x1F PUSH1 0x0 NOT SWAP8 DUP4 AND ISZERO SWAP1 SWAP5 MUL SWAP7 SWAP1 SWAP7 ADD AND SWAP3 SWAP1 SWAP3 DIV SWAP1 DUP2 ADD DUP6 SWAP1 DIV DUP6 MUL DUP5 ADD DUP6 ADD SWAP1 SWAP6 MSTORE DUP5 DUP4 MSTORE SWAP1 SWAP4 PUSH1 0xC0 DUP7 ADD SWAP4 DUP4 ADD DUP3 DUP3 DUP1 ISZERO PUSH2 0x156B JUMPI DUP1 PUSH1 0x1F LT PUSH2 0x1540 JUMPI PUSH2 0x100 DUP1 DUP4 SLOAD DIV MUL DUP4 MSTORE SWAP2 PUSH1 0x20 ADD SWAP2 PUSH2 0x156B JUMP JUMPDEST DUP3 ADD SWAP2 SWAP1 PUSH1 0x0 MSTORE PUSH1 0x20 PUSH1 0x0 KECCAK256 SWAP1 JUMPDEST DUP2 SLOAD DUP2 MSTORE SWAP1 PUSH1 0x1 ADD SWAP1 PUSH1 0x20 ADD DUP1 DUP4 GT PUSH2 0x154E JUMPI DUP3 SWAP1 SUB PUSH1 0x1F AND DUP3 ADD SWAP2 JUMPDEST POP POP POP POP POP DUP2 MSTORE POP POP SWAP1 POP SWAP3 SWAP2 POP POP JUMP JUMPDEST DUP2 MLOAD PUSH1 0x20 DUP2 DUP5 ADD DUP2 ADD DUP1 MLOAD PUSH1 0x7 DUP3 MSTORE SWAP3 DUP3 ADD SWAP5 DUP3 ADD SWAP5 SWAP1 SWAP5 KECCAK256 SWAP2 SWAP1 SWAP4 MSTORE SWAP1 SWAP2 MSTORE PUSH1 0x0 SWAP1 DUP2 MSTORE PUSH1 0x40 SWAP1 KECCAK256 SLOAD PUSH1 0xFF AND DUP2 JUMP JUMPDEST PUSH1 0x0 PUSH1 0x4 DUP5 PUSH1 0x40 MLOAD PUSH2 0x15BE SWAP2 SWAP1 PUSH2 0x3603 JUMP JUMPDEST SWAP1 DUP2 MSTORE PUSH1 0x40 MLOAD SWAP1 DUP2 SWAP1 SUB PUSH1 0x20 ADD SWAP1 KECCAK256 DUP1 SLOAD SWAP1 SWAP2 POP PUSH1 0x2 PUSH1 0x0 NOT PUSH2 0x100 PUSH1 0x1 DUP5 AND ISZERO MUL ADD SWAP1 SWAP2 AND DIV PUSH2 0x1601 JUMPI PUSH1 0x40 MLOAD PUSH3 0x461BCD PUSH1 0xE5 SHL DUP2 MSTORE PUSH1 0x4 ADD PUSH2 0x4BE SWAP1 PUSH2 0x3886 JUMP JUMPDEST PUSH1 0x8 DUP2 ADD SLOAD PUSH1 0xFF AND PUSH2 0x1625 JUMPI PUSH1 0x40 MLOAD PUSH3 0x461BCD PUSH1 0xE5 SHL DUP2 MSTORE PUSH1 0x4 ADD PUSH2 0x4BE SWAP1 PUSH2 0x3911 JUMP JUMPDEST PUSH1 0x0 DUP4 GT PUSH2 0x1645 JUMPI PUSH1 0x40 MLOAD PUSH3 0x461BCD PUSH1 0xE5 SHL DUP2 MSTORE PUSH1 0x4 ADD PUSH2 0x4BE SWAP1 PUSH2 0x3835 JUMP JUMPDEST PUSH2 0x167A PUSH1 0x1 PUSH1 0x1 PUSH1 0xA0 SHL SUB PUSH32 0x0 AND CALLER ADDRESS DUP7 PUSH2 0x21DA JUMP JUMPDEST PUSH1 0x5 DUP2 ADD DUP1 SLOAD PUSH1 0x1 ADD SWAP1 DUP2 SWAP1 SSTORE PUSH1 0x7 DUP3 ADD DUP1 SLOAD DUP6 ADD SWAP1 SSTORE PUSH1 0x40 DUP1 MLOAD PUSH1 0xE0 DUP2 ADD DUP3 MSTORE SWAP2 DUP3 MSTORE CALLER PUSH1 0x20 DUP4 ADD MSTORE DUP2 DUP2 ADD DUP6 SWAP1 MSTORE TIMESTAMP PUSH1 0x60 DUP4 ADD MSTORE PUSH1 0x0 PUSH1 0x80 DUP4 ADD MSTORE PUSH1 0x6 PUSH1 0xA0 DUP4 ADD DUP2 SWAP1 MSTORE PUSH1 0xC0 DUP4 ADD DUP6 SWAP1 MSTORE SWAP1 MLOAD PUSH2 0x16D4 SWAP1 DUP8 SWAP1 PUSH2 0x3603 JUMP JUMPDEST SWAP1 DUP2 MSTORE PUSH1 0x40 DUP1 MLOAD PUSH1 0x20 SWAP3 DUP2 SWAP1 SUB DUP4 ADD SWAP1 KECCAK256 CALLER PUSH1 0x0 SWAP1 DUP2 MSTORE SWAP1 DUP4 MSTORE DUP2 SWAP1 KECCAK256 DUP4 MLOAD DUP2 SSTORE DUP4 DUP4 ADD MLOAD PUSH1 0x1 DUP3 ADD DUP1 SLOAD PUSH1 0x1 PUSH1 0x1 PUSH1 0xA0 SHL SUB NOT AND PUSH1 0x1 PUSH1 0x1 PUSH1 0xA0 SHL SUB SWAP1 SWAP3 AND SWAP2 SWAP1 SWAP2 OR SWAP1 SSTORE SWAP1 DUP4 ADD MLOAD PUSH1 0x2 DUP3 ADD SSTORE PUSH1 0x60 DUP4 ADD MLOAD PUSH1 0x3 DUP3 ADD SSTORE PUSH1 0x80 DUP4 ADD MLOAD PUSH1 0x4 DUP3 ADD DUP1 SLOAD PUSH1 0xA0 DUP7 ADD MLOAD PUSH1 0xFF NOT SWAP1 SWAP2 AND SWAP3 ISZERO ISZERO SWAP3 SWAP1 SWAP3 OR PUSH5 0xFFFFFFFF00 NOT AND PUSH2 0x100 PUSH4 0xFFFFFFFF SWAP1 SWAP4 AND SWAP3 SWAP1 SWAP3 MUL SWAP2 SWAP1 SWAP2 OR SWAP1 SSTORE PUSH1 0xC0 DUP4 ADD MLOAD DUP1 MLOAD SWAP2 SWAP3 PUSH2 0x1782 SWAP3 PUSH1 0x5 DUP6 ADD SWAP3 SWAP1 SWAP2 ADD SWAP1 PUSH2 0x2EBD JUMP JUMPDEST POP POP PUSH1 0x40 MLOAD CALLER SWAP2 POP PUSH2 0x1795 SWAP1 DUP7 SWAP1 PUSH2 0x3603 JUMP JUMPDEST PUSH1 0x40 MLOAD DUP1 SWAP2 SUB SWAP1 KECCAK256 PUSH32 0xAC9F2E8DFE0227CFBB82FC983A4B15E8352A7558D2688723E679F4BC157A2672 PUSH1 0x6 DUP7 TIMESTAMP DUP8 PUSH1 0x40 MLOAD PUSH2 0x17D3 SWAP5 SWAP4 SWAP3 SWAP2 SWAP1 PUSH2 0x3723 JUMP JUMPDEST PUSH1 0x40 MLOAD DUP1 SWAP2 SUB SWAP1 LOG3 POP POP POP POP JUMP JUMPDEST PUSH1 0x3 SLOAD SWAP1 JUMP JUMPDEST DUP1 MLOAD PUSH1 0x20 DUP2 DUP4 ADD DUP2 ADD DUP1 MLOAD PUSH1 0x4 DUP3 MSTORE SWAP3 DUP3 ADD SWAP4 DUP3 ADD SWAP4 SWAP1 SWAP4 KECCAK256 SWAP2 SWAP1 SWAP3 MSTORE DUP1 SLOAD PUSH1 0x40 DUP1 MLOAD PUSH1 0x2 PUSH1 0x1 DUP5 AND ISZERO PUSH2 0x100 MUL PUSH1 0x0 NOT ADD SWAP1 SWAP4 AND SWAP3 SWAP1 SWAP3 DIV PUSH1 0x1F DUP2 ADD DUP6 SWAP1 DIV DUP6 MUL DUP4 ADD DUP6 ADD SWAP1 SWAP2 MSTORE DUP1 DUP3 MSTORE SWAP2 SWAP3 SWAP1 SWAP2 DUP4 SWAP2 DUP4 ADD DUP3 DUP3 DUP1 ISZERO PUSH2 0x188A JUMPI DUP1 PUSH1 0x1F LT PUSH2 0x185F JUMPI PUSH2 0x100 DUP1 DUP4 SLOAD DIV MUL DUP4 MSTORE SWAP2 PUSH1 0x20 ADD SWAP2 PUSH2 0x188A JUMP JUMPDEST DUP3 ADD SWAP2 SWAP1 PUSH1 0x0 MSTORE PUSH1 0x20 PUSH1 0x0 KECCAK256 SWAP1 JUMPDEST DUP2 SLOAD DUP2 MSTORE SWAP1 PUSH1 0x1 ADD SWAP1 PUSH1 0x20 ADD DUP1 DUP4 GT PUSH2 0x186D JUMPI DUP3 SWAP1 SUB PUSH1 0x1F AND DUP3 ADD SWAP2 JUMPDEST POP POP POP POP PUSH1 0x1 DUP4 DUP2 ADD SLOAD PUSH1 0x2 DUP1 DUP7 ADD DUP1 SLOAD PUSH1 0x40 DUP1 MLOAD PUSH1 0x20 PUSH2 0x100 SWAP8 DUP5 AND ISZERO DUP9 MUL PUSH1 0x0 NOT ADD SWAP1 SWAP4 AND SWAP5 SWAP1 SWAP5 DIV PUSH1 0x1F DUP2 ADD DUP4 SWAP1 DIV DUP4 MUL DUP6 ADD DUP4 ADD SWAP1 SWAP2 MSTORE DUP1 DUP5 MSTORE SWAP7 SWAP8 PUSH1 0xFF DUP1 DUP7 AND SWAP9 SWAP7 SWAP1 SWAP6 DIV SWAP1 SWAP5 AND SWAP6 POP SWAP3 SWAP4 SWAP2 SWAP3 SWAP1 SWAP2 SWAP1 DUP4 ADD DUP3 DUP3 DUP1 ISZERO PUSH2 0x1931 JUMPI DUP1 PUSH1 0x1F LT PUSH2 0x1906 JUMPI PUSH2 0x100 DUP1 DUP4 SLOAD DIV MUL DUP4 MSTORE SWAP2 PUSH1 0x20 ADD SWAP2 PUSH2 0x1931 JUMP JUMPDEST DUP3 ADD SWAP2 SWAP1 PUSH1 0x0 MSTORE PUSH1 0x20 PUSH1 0x0 KECCAK256 SWAP1 JUMPDEST DUP2 SLOAD DUP2 MSTORE SWAP1 PUSH1 0x1 ADD SWAP1 PUSH1 0x20 ADD DUP1 DUP4 GT PUSH2 0x1914 JUMPI DUP3 SWAP1 SUB PUSH1 0x1F AND DUP3 ADD SWAP2 JUMPDEST POP POP POP PUSH1 0x3 DUP5 ADD SLOAD PUSH1 0x4 DUP6 ADD SLOAD PUSH1 0x5 DUP7 ADD SLOAD PUSH1 0x6 DUP8 ADD SLOAD PUSH1 0x7 DUP9 ADD SLOAD PUSH1 0x8 SWAP1 SWAP9 ADD SLOAD SWAP7 SWAP8 SWAP4 SWAP7 SWAP3 SWAP6 POP SWAP1 SWAP4 POP SWAP2 SWAP1 PUSH1 0xFF AND DUP11 JUMP JUMPDEST PUSH2 0x196D PUSH2 0x1DF7 JUMP JUMPDEST PUSH1 0x1 PUSH1 0x1 PUSH1 0xA0 SHL SUB AND PUSH2 0x197E PUSH2 0x1355 JUMP JUMPDEST PUSH1 0x1 PUSH1 0x1 PUSH1 0xA0 SHL SUB AND EQ PUSH2 0x19C7 JUMPI PUSH1 0x40 DUP1 MLOAD PUSH3 0x461BCD PUSH1 0xE5 SHL DUP2 MSTORE PUSH1 0x20 PUSH1 0x4 DUP3 ADD DUP2 SWAP1 MSTORE PUSH1 0x24 DUP3 ADD MSTORE PUSH1 0x0 DUP1 MLOAD PUSH1 0x20 PUSH2 0x3D42 DUP4 CODECOPY DUP2 MLOAD SWAP2 MSTORE PUSH1 0x44 DUP3 ADD MSTORE SWAP1 MLOAD SWAP1 DUP2 SWAP1 SUB PUSH1 0x64 ADD SWAP1 REVERT JUMPDEST PUSH1 0x2 DUP1 SLOAD PUSH1 0x1 PUSH1 0x1 PUSH1 0xA0 SHL SUB NOT AND PUSH1 0x1 PUSH1 0x1 PUSH1 0xA0 SHL SUB SWAP3 SWAP1 SWAP3 AND SWAP2 SWAP1 SWAP2 OR SWAP1 SSTORE JUMP JUMPDEST PUSH32 0x5C64A8A74CFA7615128BCDFEEE4695403156B321BC1F0F1DD1A0B09D3618731E DUP2 JUMP JUMPDEST PUSH1 0x60 PUSH1 0x3 DUP1 SLOAD DUP1 PUSH1 0x20 MUL PUSH1 0x20 ADD PUSH1 0x40 MLOAD SWAP1 DUP2 ADD PUSH1 0x40 MSTORE DUP1 SWAP3 SWAP2 SWAP1 DUP2 DUP2 MSTORE PUSH1 0x20 ADD PUSH1 0x0 SWAP1 JUMPDEST DUP3 DUP3 LT ISZERO PUSH2 0x1ADC JUMPI PUSH1 0x0 DUP5 DUP2 MSTORE PUSH1 0x20 SWAP1 DUP2 SWAP1 KECCAK256 DUP4 ADD DUP1 SLOAD PUSH1 0x40 DUP1 MLOAD PUSH1 0x1F PUSH1 0x2 PUSH1 0x0 NOT PUSH2 0x100 PUSH1 0x1 DUP8 AND ISZERO MUL ADD SWAP1 SWAP5 AND SWAP4 SWAP1 SWAP4 DIV SWAP3 DUP4 ADD DUP6 SWAP1 DIV DUP6 MUL DUP2 ADD DUP6 ADD SWAP1 SWAP2 MSTORE DUP2 DUP2 MSTORE SWAP3 DUP4 ADD DUP3 DUP3 DUP1 ISZERO PUSH2 0x1AC8 JUMPI DUP1 PUSH1 0x1F LT PUSH2 0x1A9D JUMPI PUSH2 0x100 DUP1 DUP4 SLOAD DIV MUL DUP4 MSTORE SWAP2 PUSH1 0x20 ADD SWAP2 PUSH2 0x1AC8 JUMP JUMPDEST DUP3 ADD SWAP2 SWAP1 PUSH1 0x0 MSTORE PUSH1 0x20 PUSH1 0x0 KECCAK256 SWAP1 JUMPDEST DUP2 SLOAD DUP2 MSTORE SWAP1 PUSH1 0x1 ADD SWAP1 PUSH1 0x20 ADD DUP1 DUP4 GT PUSH2 0x1AAB JUMPI DUP3 SWAP1 SUB PUSH1 0x1F AND DUP3 ADD SWAP2 JUMPDEST POP POP POP POP POP DUP2 MSTORE PUSH1 0x20 ADD SWAP1 PUSH1 0x1 ADD SWAP1 PUSH2 0x1A31 JUMP JUMPDEST POP POP POP POP SWAP1 POP SWAP1 JUMP JUMPDEST PUSH2 0x1AED PUSH2 0x1DF7 JUMP JUMPDEST PUSH1 0x1 PUSH1 0x1 PUSH1 0xA0 SHL SUB AND PUSH2 0x1AFE PUSH2 0x1355 JUMP JUMPDEST PUSH1 0x1 PUSH1 0x1 PUSH1 0xA0 SHL SUB AND EQ PUSH2 0x1B47 JUMPI PUSH1 0x40 DUP1 MLOAD PUSH3 0x461BCD PUSH1 0xE5 SHL DUP2 MSTORE PUSH1 0x20 PUSH1 0x4 DUP3 ADD DUP2 SWAP1 MSTORE PUSH1 0x24 DUP3 ADD MSTORE PUSH1 0x0 DUP1 MLOAD PUSH1 0x20 PUSH2 0x3D42 DUP4 CODECOPY DUP2 MLOAD SWAP2 MSTORE PUSH1 0x44 DUP3 ADD MSTORE SWAP1 MLOAD SWAP1 DUP2 SWAP1 SUB PUSH1 0x64 ADD SWAP1 REVERT JUMPDEST PUSH1 0x1 PUSH1 0x1 PUSH1 0xA0 SHL SUB DUP2 AND PUSH2 0x1B8C JUMPI PUSH1 0x40 MLOAD PUSH3 0x461BCD PUSH1 0xE5 SHL DUP2 MSTORE PUSH1 0x4 ADD DUP1 DUP1 PUSH1 0x20 ADD DUP3 DUP2 SUB DUP3 MSTORE PUSH1 0x26 DUP2 MSTORE PUSH1 0x20 ADD DUP1 PUSH2 0x3C91 PUSH1 0x26 SWAP2 CODECOPY PUSH1 0x40 ADD SWAP2 POP POP PUSH1 0x40 MLOAD DUP1 SWAP2 SUB SWAP1 REVERT JUMPDEST PUSH1 0x0 DUP1 SLOAD PUSH1 0x40 MLOAD PUSH1 0x1 PUSH1 0x1 PUSH1 0xA0 SHL SUB DUP1 DUP6 AND SWAP4 SWAP3 AND SWAP2 PUSH32 0x8BE0079C531659141344CD1FD0A4F28419497F9722A3DAAFE3B4186F6B6457E0 SWAP2 LOG3 PUSH1 0x0 DUP1 SLOAD PUSH1 0x1 PUSH1 0x1 PUSH1 0xA0 SHL SUB NOT AND PUSH1 0x1 PUSH1 0x1 PUSH1 0xA0 SHL SUB SWAP3 SWAP1 SWAP3 AND SWAP2 SWAP1 SWAP2 OR SWAP1 SSTORE JUMP JUMPDEST PUSH2 0x1BEF PUSH2 0x1DF7 JUMP JUMPDEST PUSH1 0x1 PUSH1 0x1 PUSH1 0xA0 SHL SUB AND PUSH2 0x1C00 PUSH2 0x1355 JUMP JUMPDEST PUSH1 0x1 PUSH1 0x1 PUSH1 0xA0 SHL SUB AND EQ PUSH2 0x1C49 JUMPI PUSH1 0x40 DUP1 MLOAD PUSH3 0x461BCD PUSH1 0xE5 SHL DUP2 MSTORE PUSH1 0x20 PUSH1 0x4 DUP3 ADD DUP2 SWAP1 MSTORE PUSH1 0x24 DUP3 ADD MSTORE PUSH1 0x0 DUP1 MLOAD PUSH1 0x20 PUSH2 0x3D42 DUP4 CODECOPY DUP2 MLOAD SWAP2 MSTORE PUSH1 0x44 DUP3 ADD MSTORE SWAP1 MLOAD SWAP1 DUP2 SWAP1 SUB PUSH1 0x64 ADD SWAP1 REVERT JUMPDEST PUSH1 0x0 PUSH1 0x4 DUP3 PUSH1 0x40 MLOAD PUSH2 0x1C5B SWAP2 SWAP1 PUSH2 0x3603 JUMP JUMPDEST SWAP1 DUP2 MSTORE PUSH1 0x40 MLOAD SWAP1 DUP2 SWAP1 SUB PUSH1 0x20 ADD SWAP1 KECCAK256 DUP1 SLOAD SWAP1 SWAP2 POP PUSH1 0x2 PUSH1 0x0 NOT PUSH2 0x100 PUSH1 0x1 DUP5 AND ISZERO MUL ADD SWAP1 SWAP2 AND DIV PUSH2 0x1C9E JUMPI PUSH1 0x40 MLOAD PUSH3 0x461BCD PUSH1 0xE5 SHL DUP2 MSTORE PUSH1 0x4 ADD PUSH2 0x4BE SWAP1 PUSH2 0x3886 JUMP JUMPDEST PUSH1 0x8 DUP2 ADD DUP1 SLOAD PUSH1 0xFF NOT DUP2 AND PUSH1 0xFF SWAP1 SWAP2 AND ISZERO OR SWAP1 SSTORE PUSH1 0x40 MLOAD PUSH2 0x1CC0 SWAP1 DUP4 SWAP1 PUSH2 0x3603 JUMP JUMPDEST PUSH1 0x40 MLOAD SWAP1 DUP2 SWAP1 SUB DUP2 KECCAK256 PUSH1 0x8 DUP4 ADD SLOAD SWAP1 SWAP2 PUSH32 0xCF04787A730DEFF0C06F98FBBE7289EB4198E7DF16426BA7734123EF2B06B74 SWAP2 PUSH2 0x1D01 SWAP2 PUSH1 0xFF SWAP1 SWAP2 AND SWAP1 PUSH2 0x36AE JUMP JUMPDEST PUSH1 0x40 MLOAD DUP1 SWAP2 SUB SWAP1 LOG2 POP POP JUMP JUMPDEST PUSH1 0x1 SLOAD PUSH1 0x1 PUSH1 0x1 PUSH1 0xA0 SHL SUB AND DUP2 JUMP JUMPDEST PUSH1 0x8 PUSH1 0x20 MSTORE DUP2 PUSH1 0x0 MSTORE PUSH1 0x40 PUSH1 0x0 KECCAK256 DUP2 DUP2 SLOAD DUP2 LT PUSH2 0x1D38 JUMPI PUSH1 0x0 DUP1 REVERT JUMPDEST PUSH1 0x0 SWAP2 DUP3 MSTORE PUSH1 0x20 SWAP2 DUP3 SWAP1 KECCAK256 ADD DUP1 SLOAD PUSH1 0x40 DUP1 MLOAD PUSH1 0x1F PUSH1 0x2 PUSH1 0x0 NOT PUSH2 0x100 PUSH1 0x1 DUP8 AND ISZERO MUL ADD SWAP1 SWAP5 AND SWAP4 SWAP1 SWAP4 DIV SWAP3 DUP4 ADD DUP6 SWAP1 DIV DUP6 MUL DUP2 ADD DUP6 ADD SWAP1 SWAP2 MSTORE DUP2 DUP2 MSTORE SWAP5 POP SWAP1 SWAP3 POP SWAP1 DUP4 ADD DUP3 DUP3 DUP1 ISZERO PUSH2 0xEB9 JUMPI DUP1 PUSH1 0x1F LT PUSH2 0xE8E JUMPI PUSH2 0x100 DUP1 DUP4 SLOAD DIV MUL DUP4 MSTORE SWAP2 PUSH1 0x20 ADD SWAP2 PUSH2 0xEB9 JUMP JUMPDEST PUSH1 0x40 DUP1 MLOAD PUSH1 0x1 PUSH1 0x1 PUSH1 0xA0 SHL SUB DUP5 AND PUSH1 0x24 DUP3 ADD MSTORE PUSH1 0x44 DUP1 DUP3 ADD DUP5 SWAP1 MSTORE DUP3 MLOAD DUP1 DUP4 SUB SWAP1 SWAP2 ADD DUP2 MSTORE PUSH1 0x64 SWAP1 SWAP2 ADD SWAP1 SWAP2 MSTORE PUSH1 0x20 DUP2 ADD DUP1 MLOAD PUSH1 0x1 PUSH1 0x1 PUSH1 0xE0 SHL SUB AND PUSH4 0xA9059CBB PUSH1 0xE0 SHL OR SWAP1 MSTORE PUSH2 0x1DF2 SWAP1 DUP5 SWAP1 PUSH2 0x223A JUMP JUMPDEST POP POP POP JUMP JUMPDEST CALLER SWAP1 JUMP JUMPDEST PUSH1 0x0 DUP1 PUSH2 0x1E42 PUSH1 0x0 DUP6 DUP6 DUP1 DUP1 PUSH1 0x1F ADD PUSH1 0x20 DUP1 SWAP2 DIV MUL PUSH1 0x20 ADD PUSH1 0x40 MLOAD SWAP1 DUP2 ADD PUSH1 0x40 MSTORE DUP1 SWAP4 SWAP3 SWAP2 SWAP1 DUP2 DUP2 MSTORE PUSH1 0x20 ADD DUP4 DUP4 DUP1 DUP3 DUP5 CALLDATACOPY PUSH1 0x0 SWAP3 ADD SWAP2 SWAP1 SWAP2 MSTORE POP SWAP3 SWAP4 SWAP3 POP POP PUSH2 0x22EB SWAP1 POP JUMP JUMPDEST SWAP1 POP PUSH2 0x1E53 PUSH3 0xFFFFFF NOT DUP3 AND PUSH2 0x230F JUMP JUMPDEST PUSH1 0x0 PUSH2 0x1E64 PUSH3 0xFFFFFF NOT DUP4 AND PUSH2 0x23D0 JUMP JUMPDEST SWAP1 POP PUSH1 0x0 PUSH2 0x1E77 PUSH3 0xFFFFFF NOT DUP4 AND PUSH2 0x2408 JUMP JUMPDEST PUSH1 0x1 PUSH1 0x1 PUSH1 0x60 SHL SUB AND GT PUSH2 0x1E9D JUMPI PUSH1 0x40 MLOAD PUSH3 0x461BCD PUSH1 0xE5 SHL DUP2 MSTORE PUSH1 0x4 ADD PUSH2 0x4BE SWAP1 PUSH2 0x38E2 JUMP JUMPDEST PUSH1 0x0 PUSH2 0x1EAE PUSH3 0xFFFFFF NOT DUP4 AND PUSH2 0x2417 JUMP JUMPDEST SWAP1 POP PUSH1 0x0 DUP1 DUP3 DUP1 PUSH1 0x20 ADD SWAP1 MLOAD DUP2 ADD SWAP1 PUSH2 0x1EC7 SWAP2 SWAP1 PUSH2 0x3236 JUMP JUMPDEST SWAP2 POP SWAP2 POP PUSH1 0x0 PUSH2 0x1EDC DUP7 PUSH3 0xFFFFFF NOT AND PUSH2 0x2456 JUMP JUMPDEST SWAP1 POP PUSH1 0x0 PUSH1 0x4 DUP5 PUSH1 0x40 MLOAD PUSH2 0x1EF0 SWAP2 SWAP1 PUSH2 0x3603 JUMP JUMPDEST SWAP1 DUP2 MSTORE PUSH1 0x40 MLOAD SWAP1 DUP2 SWAP1 SUB PUSH1 0x20 ADD SWAP1 KECCAK256 DUP1 SLOAD SWAP1 SWAP2 POP PUSH1 0x2 PUSH1 0x0 NOT PUSH2 0x100 PUSH1 0x1 DUP5 AND ISZERO MUL ADD SWAP1 SWAP2 AND DIV PUSH2 0x1F33 JUMPI PUSH1 0x40 MLOAD PUSH3 0x461BCD PUSH1 0xE5 SHL DUP2 MSTORE PUSH1 0x4 ADD PUSH2 0x4BE SWAP1 PUSH2 0x3886 JUMP JUMPDEST PUSH1 0x8 DUP2 ADD SLOAD PUSH1 0xFF AND PUSH2 0x1F57 JUMPI PUSH1 0x40 MLOAD PUSH3 0x461BCD PUSH1 0xE5 SHL DUP2 MSTORE PUSH1 0x4 ADD PUSH2 0x4BE SWAP1 PUSH2 0x3911 JUMP JUMPDEST PUSH1 0x0 DUP3 GT PUSH2 0x1F77 JUMPI PUSH1 0x40 MLOAD PUSH3 0x461BCD PUSH1 0xE5 SHL DUP2 MSTORE PUSH1 0x4 ADD PUSH2 0x4BE SWAP1 PUSH2 0x3835 JUMP JUMPDEST PUSH1 0x5 DUP2 ADD DUP1 SLOAD PUSH1 0x1 SWAP1 DUP2 ADD SWAP2 DUP3 SWAP1 SSTORE PUSH1 0x7 DUP4 ADD DUP1 SLOAD DUP6 ADD SWAP1 SSTORE PUSH1 0x40 DUP1 MLOAD PUSH1 0xE0 DUP2 ADD DUP3 MSTORE SWAP3 DUP4 MSTORE PUSH1 0x1 PUSH1 0x1 PUSH1 0xA0 SHL SUB DUP15 AND PUSH1 0x20 DUP5 ADD MSTORE DUP3 DUP2 ADD DUP6 SWAP1 MSTORE TIMESTAMP PUSH1 0x60 DUP5 ADD MSTORE PUSH1 0x80 DUP4 ADD SWAP2 SWAP1 SWAP2 MSTORE PUSH4 0xFFFFFFFF DUP15 AND PUSH1 0xA0 DUP4 ADD MSTORE PUSH1 0xC0 DUP3 ADD DUP6 SWAP1 MSTORE MLOAD DUP13 SWAP2 SWAP1 PUSH1 0x6 SWAP1 PUSH2 0x1FE5 SWAP1 DUP9 SWAP1 PUSH2 0x3603 JUMP JUMPDEST SWAP1 DUP2 MSTORE PUSH1 0x40 DUP1 MLOAD PUSH1 0x20 SWAP3 DUP2 SWAP1 SUB DUP4 ADD SWAP1 KECCAK256 PUSH1 0x1 PUSH1 0x1 PUSH1 0xA0 SHL SUB DUP6 DUP2 AND PUSH1 0x0 SWAP1 DUP2 MSTORE SWAP2 DUP5 MSTORE SWAP1 DUP3 SWAP1 KECCAK256 DUP5 MLOAD DUP2 SSTORE DUP5 DUP5 ADD MLOAD PUSH1 0x1 DUP3 ADD DUP1 SLOAD PUSH1 0x1 PUSH1 0x1 PUSH1 0xA0 SHL SUB NOT AND SWAP2 SWAP1 SWAP4 AND OR SWAP1 SWAP2 SSTORE SWAP1 DUP4 ADD MLOAD PUSH1 0x2 DUP3 ADD SSTORE PUSH1 0x60 DUP4 ADD MLOAD PUSH1 0x3 DUP3 ADD SSTORE PUSH1 0x80 DUP4 ADD MLOAD PUSH1 0x4 DUP3 ADD DUP1 SLOAD PUSH1 0xA0 DUP7 ADD MLOAD PUSH1 0xFF NOT SWAP1 SWAP2 AND SWAP3 ISZERO ISZERO SWAP3 SWAP1 SWAP3 OR PUSH5 0xFFFFFFFF00 NOT AND PUSH2 0x100 PUSH4 0xFFFFFFFF SWAP1 SWAP4 AND SWAP3 SWAP1 SWAP3 MUL SWAP2 SWAP1 SWAP2 OR SWAP1 SSTORE PUSH1 0xC0 DUP4 ADD MLOAD DUP1 MLOAD SWAP2 SWAP3 PUSH2 0x2095 SWAP3 PUSH1 0x5 DUP6 ADD SWAP3 SWAP1 SWAP2 ADD SWAP1 PUSH2 0x2EBD JUMP JUMPDEST POP SWAP1 POP POP DUP1 PUSH1 0x1 PUSH1 0x1 PUSH1 0xA0 SHL SUB AND DUP6 PUSH1 0x40 MLOAD PUSH2 0x20B1 SWAP2 SWAP1 PUSH2 0x3603 JUMP JUMPDEST PUSH1 0x40 MLOAD DUP1 SWAP2 SUB SWAP1 KECCAK256 PUSH32 0xAC9F2E8DFE0227CFBB82FC983A4B15E8352A7558D2688723E679F4BC157A2672 DUP16 DUP7 TIMESTAMP DUP10 PUSH1 0x40 MLOAD PUSH2 0x20EE SWAP5 SWAP4 SWAP3 SWAP2 SWAP1 PUSH2 0x3723 JUMP JUMPDEST PUSH1 0x40 MLOAD DUP1 SWAP2 SUB SWAP1 LOG3 POP POP POP POP POP POP POP POP SWAP5 SWAP4 POP POP POP POP JUMP JUMPDEST PUSH1 0x0 DUP1 PUSH32 0x5C64A8A74CFA7615128BCDFEEE4695403156B321BC1F0F1DD1A0B09D3618731E DUP8 DUP8 DUP8 DUP1 MLOAD SWAP1 PUSH1 0x20 ADD KECCAK256 DUP8 PUSH1 0x40 MLOAD PUSH1 0x20 ADD PUSH2 0x2149 SWAP6 SWAP5 SWAP4 SWAP3 SWAP2 SWAP1 PUSH2 0x36C2 JUMP JUMPDEST PUSH1 0x40 MLOAD PUSH1 0x20 DUP2 DUP4 SUB SUB DUP2 MSTORE SWAP1 PUSH1 0x40 MSTORE DUP1 MLOAD SWAP1 PUSH1 0x20 ADD KECCAK256 SWAP1 POP PUSH1 0x0 PUSH32 0x0 DUP3 PUSH1 0x40 MLOAD PUSH1 0x20 ADD PUSH2 0x2196 SWAP3 SWAP2 SWAP1 PUSH2 0x361F JUMP JUMPDEST PUSH1 0x40 DUP1 MLOAD PUSH1 0x1F NOT DUP2 DUP5 SUB ADD DUP2 MSTORE SWAP2 SWAP1 MSTORE DUP1 MLOAD PUSH1 0x20 SWAP1 SWAP2 ADD KECCAK256 SWAP1 POP PUSH1 0x0 PUSH2 0x21BC DUP3 DUP7 PUSH2 0x2467 JUMP JUMPDEST PUSH1 0x1 SLOAD PUSH1 0x1 PUSH1 0x1 PUSH1 0xA0 SHL SUB SWAP1 DUP2 AND SWAP2 AND EQ SWAP10 SWAP9 POP POP POP POP POP POP POP POP POP JUMP JUMPDEST PUSH1 0x40 DUP1 MLOAD PUSH1 0x1 PUSH1 0x1 PUSH1 0xA0 SHL SUB DUP1 DUP7 AND PUSH1 0x24 DUP4 ADD MSTORE DUP5 AND PUSH1 0x44 DUP3 ADD MSTORE PUSH1 0x64 DUP1 DUP3 ADD DUP5 SWAP1 MSTORE DUP3 MLOAD DUP1 DUP4 SUB SWAP1 SWAP2 ADD DUP2 MSTORE PUSH1 0x84 SWAP1 SWAP2 ADD SWAP1 SWAP2 MSTORE PUSH1 0x20 DUP2 ADD DUP1 MLOAD PUSH1 0x1 PUSH1 0x1 PUSH1 0xE0 SHL SUB AND PUSH4 0x23B872DD PUSH1 0xE0 SHL OR SWAP1 MSTORE PUSH2 0x2234 SWAP1 DUP6 SWAP1 PUSH2 0x223A JUMP JUMPDEST POP POP POP POP JUMP JUMPDEST PUSH1 0x0 PUSH2 0x228F DUP3 PUSH1 0x40 MLOAD DUP1 PUSH1 0x40 ADD PUSH1 0x40 MSTORE DUP1 PUSH1 0x20 DUP2 MSTORE PUSH1 0x20 ADD PUSH32 0x5361666545524332303A206C6F772D6C6576656C2063616C6C206661696C6564 DUP2 MSTORE POP DUP6 PUSH1 0x1 PUSH1 0x1 PUSH1 0xA0 SHL SUB AND PUSH2 0x24DD SWAP1 SWAP3 SWAP2 SWAP1 PUSH4 0xFFFFFFFF AND JUMP JUMPDEST DUP1 MLOAD SWAP1 SWAP2 POP ISZERO PUSH2 0x1DF2 JUMPI DUP1 DUP1 PUSH1 0x20 ADD SWAP1 MLOAD PUSH1 0x20 DUP2 LT ISZERO PUSH2 0x22AE JUMPI PUSH1 0x0 DUP1 REVERT JUMPDEST POP MLOAD PUSH2 0x1DF2 JUMPI PUSH1 0x40 MLOAD PUSH3 0x461BCD PUSH1 0xE5 SHL DUP2 MSTORE PUSH1 0x4 ADD DUP1 DUP1 PUSH1 0x20 ADD DUP3 DUP2 SUB DUP3 MSTORE PUSH1 0x2A DUP2 MSTORE PUSH1 0x20 ADD DUP1 PUSH2 0x3D9C PUSH1 0x2A SWAP2 CODECOPY PUSH1 0x40 ADD SWAP2 POP POP PUSH1 0x40 MLOAD DUP1 SWAP2 SUB SWAP1 REVERT JUMPDEST DUP2 MLOAD PUSH1 0x0 SWAP1 PUSH1 0x20 DUP5 ADD PUSH2 0x2306 PUSH5 0xFFFFFFFFFF DUP6 AND DUP3 DUP5 PUSH2 0x24F6 JUMP JUMPDEST SWAP6 SWAP5 POP POP POP POP POP JUMP JUMPDEST PUSH2 0x231E PUSH3 0xFFFFFF NOT DUP3 AND PUSH2 0x2530 JUMP JUMPDEST PUSH2 0x2363 JUMPI PUSH1 0x40 DUP1 MLOAD PUSH3 0x461BCD PUSH1 0xE5 SHL DUP2 MSTORE PUSH1 0x20 PUSH1 0x4 DUP3 ADD MSTORE PUSH1 0x11 PUSH1 0x24 DUP3 ADD MSTORE PUSH17 0x4D616C666F726D6564206D657373616765 PUSH1 0x78 SHL PUSH1 0x44 DUP3 ADD MSTORE SWAP1 MLOAD SWAP1 DUP2 SWAP1 SUB PUSH1 0x64 ADD SWAP1 REVERT JUMPDEST PUSH1 0xE4 PUSH2 0x2374 PUSH3 0xFFFFFF NOT DUP4 AND PUSH2 0x2408 JUMP JUMPDEST PUSH1 0x1 PUSH1 0x1 PUSH1 0x60 SHL SUB AND LT ISZERO PUSH2 0xE15 JUMPI PUSH1 0x40 DUP1 MLOAD PUSH3 0x461BCD PUSH1 0xE5 SHL DUP2 MSTORE PUSH1 0x20 PUSH1 0x4 DUP3 ADD MSTORE PUSH1 0x1F PUSH1 0x24 DUP3 ADD MSTORE PUSH32 0x496E76616C6964206275726E206D6573736167653A20746F6F2073686F727400 PUSH1 0x44 DUP3 ADD MSTORE SWAP1 MLOAD SWAP1 DUP2 SWAP1 SUB PUSH1 0x64 ADD SWAP1 REVERT JUMPDEST PUSH1 0x0 PUSH2 0x2402 PUSH1 0xE4 DUP1 PUSH2 0x23E7 PUSH3 0xFFFFFF NOT DUP7 AND PUSH2 0x2408 JUMP JUMPDEST PUSH3 0xFFFFFF NOT DUP7 AND SWAP3 SWAP2 PUSH1 0x1 PUSH1 0x1 PUSH1 0x60 SHL SUB SWAP2 SUB AND PUSH1 0x0 PUSH2 0x256D JUMP JUMPDEST SWAP3 SWAP2 POP POP JUMP JUMPDEST PUSH1 0x18 SHR PUSH1 0x1 PUSH1 0x1 PUSH1 0x60 SHL SUB AND SWAP1 JUMP JUMPDEST PUSH1 0x60 PUSH1 0x0 DUP1 PUSH2 0x2425 DUP5 PUSH2 0x2408 JUMP JUMPDEST PUSH1 0x1 PUSH1 0x1 PUSH1 0x60 SHL SUB AND SWAP1 POP PUSH1 0x40 MLOAD SWAP2 POP DUP2 SWAP3 POP PUSH2 0x2445 DUP5 DUP4 PUSH1 0x20 ADD PUSH2 0x25DE JUMP JUMPDEST POP DUP2 DUP2 ADD PUSH1 0x20 ADD PUSH1 0x40 MSTORE SWAP1 MSTORE SWAP2 SWAP1 POP JUMP JUMPDEST PUSH1 0x0 PUSH2 0x2402 PUSH3 0xFFFFFF NOT DUP4 AND PUSH2 0x271A JUMP JUMPDEST PUSH1 0x0 DUP2 MLOAD PUSH1 0x41 EQ PUSH2 0x24BF JUMPI PUSH1 0x40 DUP1 MLOAD PUSH3 0x461BCD PUSH1 0xE5 SHL DUP2 MSTORE PUSH1 0x20 PUSH1 0x4 DUP3 ADD MSTORE PUSH1 0x1F PUSH1 0x24 DUP3 ADD MSTORE PUSH32 0x45434453413A20696E76616C6964207369676E6174757265206C656E67746800 PUSH1 0x44 DUP3 ADD MSTORE SWAP1 MLOAD SWAP1 DUP2 SWAP1 SUB PUSH1 0x64 ADD SWAP1 REVERT JUMPDEST PUSH1 0x20 DUP3 ADD MLOAD PUSH1 0x40 DUP4 ADD MLOAD PUSH1 0x60 DUP5 ADD MLOAD PUSH1 0x0 BYTE PUSH2 0x12F5 DUP7 DUP3 DUP6 DUP6 PUSH2 0x272F JUMP JUMPDEST PUSH1 0x60 PUSH2 0x24EC DUP5 DUP5 PUSH1 0x0 DUP6 PUSH2 0x28A4 JUMP JUMPDEST SWAP1 POP JUMPDEST SWAP4 SWAP3 POP POP POP JUMP JUMPDEST PUSH1 0x0 DUP1 PUSH2 0x2503 DUP5 DUP5 PUSH2 0x29F4 JUMP JUMPDEST SWAP1 POP PUSH1 0x40 MLOAD DUP2 GT ISZERO PUSH2 0x2513 JUMPI POP PUSH1 0x0 JUMPDEST DUP1 PUSH2 0x2525 JUMPI PUSH3 0xFFFFFF NOT SWAP2 POP POP PUSH2 0x24EF JUMP JUMPDEST PUSH2 0x2306 DUP6 DUP6 DUP6 PUSH2 0x2A4E JUMP JUMPDEST PUSH1 0x0 PUSH2 0x253B DUP3 PUSH2 0x2A61 JUMP JUMPDEST PUSH5 0xFFFFFFFFFF AND PUSH5 0xFFFFFFFFFF EQ ISZERO PUSH2 0x2556 JUMPI POP PUSH1 0x0 PUSH2 0xA40 JUMP JUMPDEST PUSH1 0x0 PUSH2 0x2561 DUP4 PUSH2 0x2A67 JUMP JUMPDEST PUSH1 0x40 MLOAD LT ISZERO SWAP4 SWAP3 POP POP POP JUMP JUMPDEST PUSH1 0x0 DUP1 PUSH2 0x2579 DUP7 PUSH2 0x2A8C JUMP JUMPDEST PUSH1 0x1 PUSH1 0x1 PUSH1 0x60 SHL SUB AND SWAP1 POP PUSH2 0x258D DUP7 PUSH2 0x2A67 JUMP JUMPDEST PUSH2 0x25A1 DUP6 PUSH2 0x259B DUP5 DUP10 PUSH2 0x29F4 JUMP JUMPDEST SWAP1 PUSH2 0x29F4 JUMP JUMPDEST GT ISZERO PUSH2 0x25B4 JUMPI PUSH3 0xFFFFFF NOT SWAP2 POP POP PUSH2 0x25D6 JUMP JUMPDEST PUSH2 0x25BE DUP2 DUP7 PUSH2 0x29F4 JUMP JUMPDEST SWAP1 POP PUSH2 0x25D2 DUP4 PUSH5 0xFFFFFFFFFF AND DUP3 DUP7 PUSH2 0x24F6 JUMP JUMPDEST SWAP2 POP POP JUMPDEST SWAP5 SWAP4 POP POP POP POP JUMP JUMPDEST PUSH1 0x0 PUSH2 0x25E9 DUP4 PUSH2 0x2A9B JUMP JUMPDEST PUSH2 0x2624 JUMPI PUSH1 0x40 MLOAD PUSH3 0x461BCD PUSH1 0xE5 SHL DUP2 MSTORE PUSH1 0x4 ADD DUP1 DUP1 PUSH1 0x20 ADD DUP3 DUP2 SUB DUP3 MSTORE PUSH1 0x28 DUP2 MSTORE PUSH1 0x20 ADD DUP1 PUSH2 0x3DC6 PUSH1 0x28 SWAP2 CODECOPY PUSH1 0x40 ADD SWAP2 POP POP PUSH1 0x40 MLOAD DUP1 SWAP2 SUB SWAP1 REVERT JUMPDEST PUSH2 0x262D DUP4 PUSH2 0x2530 JUMP JUMPDEST PUSH2 0x2668 JUMPI PUSH1 0x40 MLOAD PUSH3 0x461BCD PUSH1 0xE5 SHL DUP2 MSTORE PUSH1 0x4 ADD DUP1 DUP1 PUSH1 0x20 ADD DUP3 DUP2 SUB DUP3 MSTORE PUSH1 0x2B DUP2 MSTORE PUSH1 0x20 ADD DUP1 PUSH2 0x3DEE PUSH1 0x2B SWAP2 CODECOPY PUSH1 0x40 ADD SWAP2 POP POP PUSH1 0x40 MLOAD DUP1 SWAP2 SUB SWAP1 REVERT JUMPDEST PUSH1 0x0 PUSH2 0x2673 DUP5 PUSH2 0x2408 JUMP JUMPDEST PUSH1 0x1 PUSH1 0x1 PUSH1 0x60 SHL SUB AND SWAP1 POP PUSH1 0x0 PUSH2 0x2689 DUP6 PUSH2 0x2A8C JUMP JUMPDEST PUSH1 0x1 PUSH1 0x1 PUSH1 0x60 SHL SUB AND SWAP1 POP PUSH1 0x0 DUP1 PUSH1 0x40 MLOAD SWAP2 POP DUP6 DUP3 GT ISZERO PUSH2 0x26AA JUMPI PUSH1 0x20 PUSH1 0x60 REVERT JUMPDEST DUP4 DUP7 DUP6 DUP6 PUSH1 0x4 GAS STATICCALL SWAP1 POP DUP1 PUSH2 0x26F5 JUMPI PUSH1 0x40 DUP1 MLOAD PUSH3 0x461BCD PUSH1 0xE5 SHL DUP2 MSTORE PUSH1 0x20 PUSH1 0x4 DUP3 ADD MSTORE PUSH1 0xC PUSH1 0x24 DUP3 ADD MSTORE PUSH12 0x6964656E74697479204F4F47 PUSH1 0xA0 SHL PUSH1 0x44 DUP3 ADD MSTORE SWAP1 MLOAD SWAP1 DUP2 SWAP1 SUB PUSH1 0x64 ADD SWAP1 REVERT JUMPDEST PUSH2 0x270F PUSH2 0x2701 DUP9 PUSH2 0x2A61 JUMP JUMPDEST PUSH5 0xFFFFFFFFFF AND DUP8 DUP7 PUSH2 0x2A4E JUMP JUMPDEST SWAP8 SWAP7 POP POP POP POP POP POP POP JUMP JUMPDEST PUSH1 0x0 PUSH2 0x2402 PUSH3 0xFFFFFF NOT DUP4 AND PUSH1 0x44 PUSH1 0x20 PUSH2 0x2AAD JUMP JUMPDEST PUSH1 0x0 PUSH32 0x7FFFFFFFFFFFFFFFFFFFFFFFFFFFFFFF5D576E7357A4501DDFE92F46681B20A0 DUP3 GT ISZERO PUSH2 0x2790 JUMPI PUSH1 0x40 MLOAD PUSH3 0x461BCD PUSH1 0xE5 SHL DUP2 MSTORE PUSH1 0x4 ADD DUP1 DUP1 PUSH1 0x20 ADD DUP3 DUP2 SUB DUP3 MSTORE PUSH1 0x22 DUP2 MSTORE PUSH1 0x20 ADD DUP1 PUSH2 0x3CB7 PUSH1 0x22 SWAP2 CODECOPY PUSH1 0x40 ADD SWAP2 POP POP PUSH1 0x40 MLOAD DUP1 SWAP2 SUB SWAP1 REVERT JUMPDEST DUP4 PUSH1 0xFF AND PUSH1 0x1B EQ DUP1 PUSH2 0x27A5 JUMPI POP DUP4 PUSH1 0xFF AND PUSH1 0x1C EQ JUMPDEST PUSH2 0x27E0 JUMPI PUSH1 0x40 MLOAD PUSH3 0x461BCD PUSH1 0xE5 SHL DUP2 MSTORE PUSH1 0x4 ADD DUP1 DUP1 PUSH1 0x20 ADD DUP3 DUP2 SUB DUP3 MSTORE PUSH1 0x22 DUP2 MSTORE PUSH1 0x20 ADD DUP1 PUSH2 0x3D20 PUSH1 0x22 SWAP2 CODECOPY PUSH1 0x40 ADD SWAP2 POP POP PUSH1 0x40 MLOAD DUP1 SWAP2 SUB SWAP1 REVERT JUMPDEST PUSH1 0x0 PUSH1 0x1 DUP7 DUP7 DUP7 DUP7 PUSH1 0x40 MLOAD PUSH1 0x0 DUP2 MSTORE PUSH1 0x20 ADD PUSH1 0x40 MSTORE PUSH1 0x40 MLOAD DUP1 DUP6 DUP2 MSTORE PUSH1 0x20 ADD DUP5 PUSH1 0xFF AND DUP2 MSTORE PUSH1 0x20 ADD DUP4 DUP2 MSTORE PUSH1 0x20 ADD DUP3 DUP2 MSTORE PUSH1 0x20 ADD SWAP5 POP POP POP POP POP PUSH1 0x20 PUSH1 0x40 MLOAD PUSH1 0x20 DUP2 SUB SWAP1 DUP1 DUP5 SUB SWAP1 DUP6 GAS STATICCALL ISZERO DUP1 ISZERO PUSH2 0x283C JUMPI RETURNDATASIZE PUSH1 0x0 DUP1 RETURNDATACOPY RETURNDATASIZE PUSH1 0x0 REVERT JUMPDEST POP POP PUSH1 0x40 MLOAD PUSH1 0x1F NOT ADD MLOAD SWAP2 POP POP PUSH1 0x1 PUSH1 0x1 PUSH1 0xA0 SHL SUB DUP2 AND PUSH2 0x2306 JUMPI PUSH1 0x40 DUP1 MLOAD PUSH3 0x461BCD PUSH1 0xE5 SHL DUP2 MSTORE PUSH1 0x20 PUSH1 0x4 DUP3 ADD MSTORE PUSH1 0x18 PUSH1 0x24 DUP3 ADD MSTORE PUSH32 0x45434453413A20696E76616C6964207369676E61747572650000000000000000 PUSH1 0x44 DUP3 ADD MSTORE SWAP1 MLOAD SWAP1 DUP2 SWAP1 SUB PUSH1 0x64 ADD SWAP1 REVERT JUMPDEST PUSH1 0x60 DUP3 SELFBALANCE LT ISZERO PUSH2 0x28E5 JUMPI PUSH1 0x40 MLOAD PUSH3 0x461BCD PUSH1 0xE5 SHL DUP2 MSTORE PUSH1 0x4 ADD DUP1 DUP1 PUSH1 0x20 ADD DUP3 DUP2 SUB DUP3 MSTORE PUSH1 0x26 DUP2 MSTORE PUSH1 0x20 ADD DUP1 PUSH2 0x3CD9 PUSH1 0x26 SWAP2 CODECOPY PUSH1 0x40 ADD SWAP2 POP POP PUSH1 0x40 MLOAD DUP1 SWAP2 SUB SWAP1 REVERT JUMPDEST PUSH2 0x28EE DUP6 PUSH2 0x2ACE JUMP JUMPDEST PUSH2 0x293F JUMPI PUSH1 0x40 DUP1 MLOAD PUSH3 0x461BCD PUSH1 0xE5 SHL DUP2 MSTORE PUSH1 0x20 PUSH1 0x4 DUP3 ADD MSTORE PUSH1 0x1D PUSH1 0x24 DUP3 ADD MSTORE PUSH32 0x416464726573733A2063616C6C20746F206E6F6E2D636F6E7472616374000000 PUSH1 0x44 DUP3 ADD MSTORE SWAP1 MLOAD SWAP1 DUP2 SWAP1 SUB PUSH1 0x64 ADD SWAP1 REVERT JUMPDEST PUSH1 0x0 DUP1 DUP7 PUSH1 0x1 PUSH1 0x1 PUSH1 0xA0 SHL SUB AND DUP6 DUP8 PUSH1 0x40 MLOAD DUP1 DUP3 DUP1 MLOAD SWAP1 PUSH1 0x20 ADD SWAP1 DUP1 DUP4 DUP4 JUMPDEST PUSH1 0x20 DUP4 LT PUSH2 0x297D JUMPI DUP1 MLOAD DUP3 MSTORE PUSH1 0x1F NOT SWAP1 SWAP3 ADD SWAP2 PUSH1 0x20 SWAP2 DUP3 ADD SWAP2 ADD PUSH2 0x295E JUMP JUMPDEST PUSH1 0x1 DUP4 PUSH1 0x20 SUB PUSH2 0x100 EXP SUB DUP1 NOT DUP3 MLOAD AND DUP2 DUP5 MLOAD AND DUP1 DUP3 OR DUP6 MSTORE POP POP POP POP POP POP SWAP1 POP ADD SWAP2 POP POP PUSH1 0x0 PUSH1 0x40 MLOAD DUP1 DUP4 SUB DUP2 DUP6 DUP8 GAS CALL SWAP3 POP POP POP RETURNDATASIZE DUP1 PUSH1 0x0 DUP2 EQ PUSH2 0x29DF JUMPI PUSH1 0x40 MLOAD SWAP2 POP PUSH1 0x1F NOT PUSH1 0x3F RETURNDATASIZE ADD AND DUP3 ADD PUSH1 0x40 MSTORE RETURNDATASIZE DUP3 MSTORE RETURNDATASIZE PUSH1 0x0 PUSH1 0x20 DUP5 ADD RETURNDATACOPY PUSH2 0x29E4 JUMP JUMPDEST PUSH1 0x60 SWAP2 POP JUMPDEST POP SWAP2 POP SWAP2 POP PUSH2 0x270F DUP3 DUP3 DUP7 PUSH2 0x2AD4 JUMP JUMPDEST PUSH1 0x0 DUP3 DUP3 ADD DUP4 DUP2 LT ISZERO PUSH2 0x24EF JUMPI PUSH1 0x40 DUP1 MLOAD PUSH3 0x461BCD PUSH1 0xE5 SHL DUP2 MSTORE PUSH1 0x20 PUSH1 0x4 DUP3 ADD MSTORE PUSH1 0x1B PUSH1 0x24 DUP3 ADD MSTORE PUSH32 0x536166654D6174683A206164646974696F6E206F766572666C6F770000000000 PUSH1 0x44 DUP3 ADD MSTORE SWAP1 MLOAD SWAP1 DUP2 SWAP1 SUB PUSH1 0x64 ADD SWAP1 REVERT JUMPDEST PUSH1 0x60 SWAP3 DUP4 SHL SWAP2 SWAP1 SWAP2 OR SWAP1 SWAP2 SHL OR PUSH1 0x18 SHL SWAP1 JUMP JUMPDEST PUSH1 0xD8 SHR SWAP1 JUMP JUMPDEST PUSH1 0x0 PUSH2 0x2A72 DUP3 PUSH2 0x2408 JUMP JUMPDEST PUSH2 0x2A7B DUP4 PUSH2 0x2A8C JUMP JUMPDEST ADD PUSH1 0x1 PUSH1 0x1 PUSH1 0x60 SHL SUB AND SWAP1 POP SWAP2 SWAP1 POP JUMP JUMPDEST PUSH1 0x78 SHR PUSH1 0x1 PUSH1 0x1 PUSH1 0x60 SHL SUB AND SWAP1 JUMP JUMPDEST PUSH1 0x0 PUSH2 0x2AA6 DUP3 PUSH2 0x2B78 JUMP JUMPDEST ISZERO SWAP3 SWAP2 POP POP JUMP JUMPDEST PUSH1 0x0 DUP2 PUSH1 0x20 SUB PUSH1 0x8 MUL PUSH1 0xFF AND PUSH2 0x2AC4 DUP6 DUP6 DUP6 PUSH2 0x2B84 JUMP JUMPDEST SWAP1 SHR SWAP5 SWAP4 POP POP POP POP JUMP JUMPDEST EXTCODESIZE ISZERO ISZERO SWAP1 JUMP JUMPDEST PUSH1 0x60 DUP4 ISZERO PUSH2 0x2AE3 JUMPI POP DUP2 PUSH2 0x24EF JUMP JUMPDEST DUP3 MLOAD ISZERO PUSH2 0x2AF3 JUMPI DUP3 MLOAD DUP1 DUP5 PUSH1 0x20 ADD REVERT JUMPDEST DUP2 PUSH1 0x40 MLOAD PUSH3 0x461BCD PUSH1 0xE5 SHL DUP2 MSTORE PUSH1 0x4 ADD DUP1 DUP1 PUSH1 0x20 ADD DUP3 DUP2 SUB DUP3 MSTORE DUP4 DUP2 DUP2 MLOAD DUP2 MSTORE PUSH1 0x20 ADD SWAP2 POP DUP1 MLOAD SWAP1 PUSH1 0x20 ADD SWAP1 DUP1 DUP4 DUP4 PUSH1 0x0 JUMPDEST DUP4 DUP2 LT ISZERO PUSH2 0x2B3D JUMPI DUP2 DUP2 ADD MLOAD DUP4 DUP3 ADD MSTORE PUSH1 0x20 ADD PUSH2 0x2B25 JUMP JUMPDEST POP POP POP POP SWAP1 POP SWAP1 DUP2 ADD SWAP1 PUSH1 0x1F AND DUP1 ISZERO PUSH2 0x2B6A JUMPI DUP1 DUP3 SUB DUP1 MLOAD PUSH1 0x1 DUP4 PUSH1 0x20 SUB PUSH2 0x100 EXP SUB NOT AND DUP2 MSTORE PUSH1 0x20 ADD SWAP2 POP JUMPDEST POP SWAP3 POP POP POP PUSH1 0x40 MLOAD DUP1 SWAP2 SUB SWAP1 REVERT JUMPDEST PUSH3 0xFFFFFF NOT SWAP1 DUP2 AND EQ SWAP1 JUMP JUMPDEST PUSH1 0x0 PUSH1 0xFF DUP3 AND PUSH2 0x2B96 JUMPI POP PUSH1 0x0 PUSH2 0x24EF JUMP JUMPDEST PUSH2 0x2B9F DUP5 PUSH2 0x2408 JUMP JUMPDEST PUSH1 0x1 PUSH1 0x1 PUSH1 0x60 SHL SUB AND PUSH2 0x2BB5 DUP5 PUSH1 0xFF DUP6 AND PUSH2 0x29F4 JUMP JUMPDEST GT ISZERO PUSH2 0x2C33 JUMPI PUSH2 0x2BEC PUSH2 0x2BC7 DUP6 PUSH2 0x2A8C JUMP JUMPDEST PUSH1 0x1 PUSH1 0x1 PUSH1 0x60 SHL SUB AND PUSH2 0x2BD9 DUP7 PUSH2 0x2408 JUMP JUMPDEST PUSH1 0x1 PUSH1 0x1 PUSH1 0x60 SHL SUB AND DUP6 DUP6 PUSH1 0xFF AND PUSH2 0x2CAA JUMP JUMPDEST PUSH1 0x40 MLOAD PUSH3 0x461BCD PUSH1 0xE5 SHL DUP2 MSTORE PUSH1 0x20 PUSH1 0x4 DUP3 ADD DUP2 DUP2 MSTORE DUP4 MLOAD PUSH1 0x24 DUP5 ADD MSTORE DUP4 MLOAD SWAP1 SWAP3 DUP4 SWAP3 PUSH1 0x44 SWAP1 SWAP2 ADD SWAP2 SWAP1 DUP6 ADD SWAP1 DUP1 DUP4 DUP4 PUSH1 0x0 DUP4 ISZERO PUSH2 0x2B3D JUMPI DUP2 DUP2 ADD MLOAD DUP4 DUP3 ADD MSTORE PUSH1 0x20 ADD PUSH2 0x2B25 JUMP JUMPDEST PUSH1 0x20 DUP3 PUSH1 0xFF AND GT ISZERO PUSH2 0x2C76 JUMPI PUSH1 0x40 MLOAD PUSH3 0x461BCD PUSH1 0xE5 SHL DUP2 MSTORE PUSH1 0x4 ADD DUP1 DUP1 PUSH1 0x20 ADD DUP3 DUP2 SUB DUP3 MSTORE PUSH1 0x3A DUP2 MSTORE PUSH1 0x20 ADD DUP1 PUSH2 0x3D62 PUSH1 0x3A SWAP2 CODECOPY PUSH1 0x40 ADD SWAP2 POP POP PUSH1 0x40 MLOAD DUP1 SWAP2 SUB SWAP1 REVERT JUMPDEST PUSH1 0x8 DUP3 MUL PUSH1 0x0 PUSH2 0x2C85 DUP7 PUSH2 0x2A8C JUMP JUMPDEST PUSH1 0x1 PUSH1 0x1 PUSH1 0x60 SHL SUB AND SWAP1 POP PUSH1 0x0 PUSH2 0x2C9B DUP4 PUSH2 0x2D9D JUMP JUMPDEST SWAP2 SWAP1 SWAP6 ADD MLOAD AND SWAP6 SWAP5 POP POP POP POP POP JUMP JUMPDEST PUSH1 0x60 PUSH1 0x0 PUSH2 0x2CB7 DUP7 PUSH2 0x2DAC JUMP JUMPDEST SWAP2 POP POP PUSH1 0x0 PUSH2 0x2CC5 DUP7 PUSH2 0x2DAC JUMP JUMPDEST SWAP2 POP POP PUSH1 0x0 PUSH2 0x2CD3 DUP7 PUSH2 0x2DAC JUMP JUMPDEST SWAP2 POP POP PUSH1 0x0 PUSH2 0x2CE1 DUP7 PUSH2 0x2DAC JUMP JUMPDEST SWAP2 POP POP DUP4 DUP4 DUP4 DUP4 PUSH1 0x40 MLOAD PUSH1 0x20 ADD DUP1 DUP1 PUSH2 0x3E19 PUSH1 0x35 SWAP2 CODECOPY PUSH1 0x1 PUSH1 0x1 PUSH1 0xD0 SHL SUB NOT PUSH1 0xD0 DUP8 DUP2 SHL DUP3 AND PUSH1 0x35 DUP5 ADD MSTORE PUSH15 0x40EED2E8D040D8CADCCEE8D04060F PUSH1 0x8B SHL PUSH1 0x3B DUP5 ADD MSTORE DUP7 SWAP1 SHL AND PUSH1 0x4A DUP3 ADD MSTORE PUSH1 0x50 ADD PUSH1 0x21 PUSH2 0x3CFF DUP3 CODECOPY PUSH1 0x1 PUSH1 0x1 PUSH1 0xD0 SHL SUB NOT PUSH1 0xD0 SWAP5 DUP6 SHL DUP2 AND PUSH1 0x21 DUP4 ADD MSTORE PUSH15 0x40EED2E8D040D8CADCCEE8D04060F PUSH1 0x8B SHL PUSH1 0x27 DUP4 ADD MSTORE SWAP3 SWAP1 SWAP4 SHL SWAP1 SWAP2 AND PUSH1 0x36 DUP4 ADD MSTORE POP PUSH1 0x17 PUSH1 0xF9 SHL PUSH1 0x3C DUP3 ADD MSTORE PUSH1 0x40 DUP1 MLOAD PUSH1 0x1D DUP2 DUP5 SUB ADD DUP2 MSTORE PUSH1 0x3D SWAP1 SWAP3 ADD SWAP1 MSTORE SWAP12 SWAP11 POP POP POP POP POP POP POP POP POP POP POP JUMP JUMPDEST PUSH1 0x1 PUSH1 0xFF SHL PUSH1 0x0 NOT SWAP1 SWAP2 ADD SAR SWAP1 JUMP JUMPDEST PUSH1 0x0 DUP1 PUSH1 0x1F JUMPDEST PUSH1 0xF DUP2 PUSH1 0xFF AND GT ISZERO PUSH2 0x2DF6 JUMPI PUSH1 0xFF PUSH1 0x8 DUP3 MUL AND DUP5 SWAP1 SHR PUSH2 0x2DD1 DUP2 PUSH2 0x2E44 JUMP JUMPDEST PUSH2 0xFFFF AND DUP5 OR SWAP4 POP DUP2 PUSH1 0xFF AND PUSH1 0x10 EQ PUSH2 0x2DEC JUMPI PUSH1 0x10 DUP5 SWAP1 SHL SWAP4 POP JUMPDEST POP PUSH1 0x0 NOT ADD PUSH2 0x2DB2 JUMP JUMPDEST POP PUSH1 0xF JUMPDEST PUSH1 0xFF DUP2 PUSH1 0xFF AND LT ISZERO PUSH2 0x2E3E JUMPI PUSH1 0xFF PUSH1 0x8 DUP3 MUL AND DUP5 SWAP1 SHR PUSH2 0x2E19 DUP2 PUSH2 0x2E44 JUMP JUMPDEST PUSH2 0xFFFF AND DUP4 OR SWAP3 POP DUP2 PUSH1 0xFF AND PUSH1 0x0 EQ PUSH2 0x2E34 JUMPI PUSH1 0x10 DUP4 SWAP1 SHL SWAP3 POP JUMPDEST POP PUSH1 0x0 NOT ADD PUSH2 0x2DFA JUMP JUMPDEST POP SWAP2 POP SWAP2 JUMP JUMPDEST PUSH1 0x0 PUSH2 0x2E56 PUSH1 0x4 DUP4 PUSH1 0xFF AND SWAP1 SHR PUSH2 0x2E74 JUMP JUMPDEST PUSH1 0xFF AND OR PUSH1 0x8 SHL PUSH3 0xFFFF00 AND PUSH2 0x2E6B DUP3 PUSH2 0x2E74 JUMP JUMPDEST PUSH1 0xFF AND OR SWAP2 SWAP1 POP JUMP JUMPDEST PUSH1 0x40 DUP1 MLOAD DUP1 DUP3 ADD SWAP1 SWAP2 MSTORE PUSH1 0x10 DUP1 DUP3 MSTORE PUSH16 0x181899199A1A9B1B9C1CB0B131B232B3 PUSH1 0x81 SHL PUSH1 0x20 DUP4 ADD MSTORE PUSH1 0x0 SWAP2 PUSH1 0xF DUP5 AND SWAP2 DUP3 SWAP1 DUP2 LT PUSH2 0x2EAE JUMPI INVALID JUMPDEST ADD PUSH1 0x20 ADD MLOAD PUSH1 0xF8 SHR SWAP4 SWAP3 POP POP POP JUMP JUMPDEST DUP3 DUP1 SLOAD PUSH1 0x1 DUP2 PUSH1 0x1 AND ISZERO PUSH2 0x100 MUL SUB AND PUSH1 0x2 SWAP1 DIV SWAP1 PUSH1 0x0 MSTORE PUSH1 0x20 PUSH1 0x0 KECCAK256 SWAP1 PUSH1 0x1F ADD PUSH1 0x20 SWAP1 DIV DUP2 ADD SWAP3 DUP3 PUSH2 0x2EF3 JUMPI PUSH1 0x0 DUP6 SSTORE PUSH2 0x2F39 JUMP JUMPDEST DUP3 PUSH1 0x1F LT PUSH2 0x2F0C JUMPI DUP1 MLOAD PUSH1 0xFF NOT AND DUP4 DUP1 ADD OR DUP6 SSTORE PUSH2 0x2F39 JUMP JUMPDEST DUP3 DUP1 ADD PUSH1 0x1 ADD DUP6 SSTORE DUP3 ISZERO PUSH2 0x2F39 JUMPI SWAP2 DUP3 ADD JUMPDEST DUP3 DUP2 GT ISZERO PUSH2 0x2F39 JUMPI DUP3 MLOAD DUP3 SSTORE SWAP2 PUSH1 0x20 ADD SWAP2 SWAP1 PUSH1 0x1 ADD SWAP1 PUSH2 0x2F1E JUMP JUMPDEST POP PUSH2 0x2F45 SWAP3 SWAP2 POP PUSH2 0x3025 JUMP JUMPDEST POP SWAP1 JUMP JUMPDEST PUSH1 0x40 MLOAD DUP1 PUSH1 0xA0 ADD PUSH1 0x40 MSTORE DUP1 PUSH1 0x0 DUP2 MSTORE PUSH1 0x20 ADD PUSH1 0x0 DUP2 MSTORE PUSH1 0x20 ADD PUSH1 0x0 PUSH1 0x1 PUSH1 0x1 PUSH1 0xA0 SHL SUB AND DUP2 MSTORE PUSH1 0x20 ADD PUSH1 0x0 DUP2 MSTORE PUSH1 0x20 ADD PUSH1 0x0 DUP2 MSTORE POP SWAP1 JUMP JUMPDEST PUSH1 0x40 DUP1 MLOAD PUSH2 0x140 DUP2 ADD SWAP1 SWAP2 MSTORE PUSH1 0x60 DUP2 MSTORE PUSH1 0x20 DUP2 ADD PUSH1 0x0 DUP2 MSTORE PUSH1 0x20 ADD PUSH1 0x0 DUP2 MSTORE PUSH1 0x20 ADD PUSH1 0x60 DUP2 MSTORE PUSH1 0x20 ADD PUSH1 0x0 DUP2 MSTORE PUSH1 0x20 ADD PUSH1 0x0 DUP2 MSTORE PUSH1 0x20 ADD PUSH1 0x0 DUP2 MSTORE PUSH1 0x20 ADD PUSH1 0x0 DUP2 MSTORE PUSH1 0x20 ADD PUSH1 0x0 DUP2 MSTORE PUSH1 0x20 ADD PUSH1 0x0 ISZERO ISZERO DUP2 MSTORE POP SWAP1 JUMP JUMPDEST PUSH1 0x40 MLOAD DUP1 PUSH1 0xE0 ADD PUSH1 0x40 MSTORE DUP1 PUSH1 0x0 DUP2 MSTORE PUSH1 0x20 ADD PUSH1 0x0 PUSH1 0x1 PUSH1 0x1 PUSH1 0xA0 SHL SUB AND DUP2 MSTORE PUSH1 0x20 ADD PUSH1 0x0 DUP2 MSTORE PUSH1 0x20 ADD PUSH1 0x0 DUP2 MSTORE PUSH1 0x20 ADD PUSH1 0x0 ISZERO ISZERO DUP2 MSTORE PUSH1 0x20 ADD PUSH1 0x0 PUSH4 0xFFFFFFFF AND DUP2 MSTORE PUSH1 0x20 ADD PUSH1 0x60 DUP2 MSTORE POP SWAP1 JUMP JUMPDEST JUMPDEST DUP1 DUP3 GT ISZERO PUSH2 0x2F45 JUMPI PUSH1 0x0 DUP2 SSTORE PUSH1 0x1 ADD PUSH2 0x3026 JUMP JUMPDEST PUSH1 0x0 PUSH2 0x304D PUSH2 0x3048 DUP5 PUSH2 0x3C42 JUMP JUMPDEST PUSH2 0x3C1E JUMP JUMPDEST SWAP1 POP DUP3 DUP2 MSTORE DUP4 DUP4 DUP4 ADD GT ISZERO PUSH2 0x3061 JUMPI PUSH1 0x0 DUP1 REVERT JUMPDEST DUP3 DUP3 PUSH1 0x20 DUP4 ADD CALLDATACOPY PUSH1 0x0 PUSH1 0x20 DUP5 DUP4 ADD ADD MSTORE SWAP4 SWAP3 POP POP POP JUMP JUMPDEST DUP1 CALLDATALOAD PUSH1 0x1 PUSH1 0x1 PUSH1 0xA0 SHL SUB DUP2 AND DUP2 EQ PUSH2 0xA40 JUMPI PUSH1 0x0 DUP1 REVERT JUMPDEST PUSH1 0x0 DUP3 PUSH1 0x1F DUP4 ADD SLT PUSH2 0x309F JUMPI DUP1 DUP2 REVERT JUMPDEST PUSH2 0x24EF DUP4 DUP4 CALLDATALOAD PUSH1 0x20 DUP6 ADD PUSH2 0x303A JUMP JUMPDEST PUSH1 0x0 DUP3 PUSH1 0x1F DUP4 ADD SLT PUSH2 0x30BE JUMPI DUP1 DUP2 REVERT JUMPDEST DUP2 MLOAD PUSH2 0x30CC PUSH2 0x3048 DUP3 PUSH2 0x3C42 JUMP JUMPDEST DUP2 DUP2 MSTORE DUP5 PUSH1 0x20 DUP4 DUP7 ADD ADD GT ISZERO PUSH2 0x30E0 JUMPI DUP3 DUP4 REVERT JUMPDEST PUSH2 0x25D6 DUP3 PUSH1 0x20 DUP4 ADD PUSH1 0x20 DUP8 ADD PUSH2 0x3C64 JUMP JUMPDEST DUP1 CALLDATALOAD PUSH4 0xFFFFFFFF DUP2 AND DUP2 EQ PUSH2 0xA40 JUMPI PUSH1 0x0 DUP1 REVERT JUMPDEST PUSH1 0x0 PUSH1 0x20 DUP3 DUP5 SUB SLT ISZERO PUSH2 0x3116 JUMPI DUP1 DUP2 REVERT JUMPDEST PUSH2 0x24EF DUP3 PUSH2 0x3078 JUMP JUMPDEST PUSH1 0x0 PUSH1 0x20 DUP3 DUP5 SUB SLT ISZERO PUSH2 0x3130 JUMPI DUP1 DUP2 REVERT JUMPDEST DUP2 CALLDATALOAD PUSH8 0xFFFFFFFFFFFFFFFF DUP2 GT ISZERO PUSH2 0x3146 JUMPI DUP2 DUP3 REVERT JUMPDEST PUSH2 0x25D6 DUP5 DUP3 DUP6 ADD PUSH2 0x308F JUMP JUMPDEST PUSH1 0x0 DUP1 PUSH1 0x40 DUP4 DUP6 SUB SLT ISZERO PUSH2 0x3164 JUMPI DUP1 DUP2 REVERT JUMPDEST DUP3 CALLDATALOAD PUSH8 0xFFFFFFFFFFFFFFFF DUP2 GT ISZERO PUSH2 0x317A JUMPI DUP2 DUP3 REVERT JUMPDEST PUSH2 0x3186 DUP6 DUP3 DUP7 ADD PUSH2 0x308F JUMP JUMPDEST SWAP3 POP POP PUSH2 0x3195 PUSH1 0x20 DUP5 ADD PUSH2 0x3078 JUMP JUMPDEST SWAP1 POP SWAP3 POP SWAP3 SWAP1 POP JUMP JUMPDEST PUSH1 0x0 DUP1 PUSH1 0x0 DUP1 PUSH1 0x0 PUSH1 0xA0 DUP7 DUP9 SUB SLT ISZERO PUSH2 0x31B5 JUMPI DUP1 DUP2 REVERT JUMPDEST DUP6 CALLDATALOAD PUSH8 0xFFFFFFFFFFFFFFFF DUP1 DUP3 GT ISZERO PUSH2 0x31CC JUMPI DUP3 DUP4 REVERT JUMPDEST PUSH2 0x31D8 DUP10 DUP4 DUP11 ADD PUSH2 0x308F JUMP JUMPDEST SWAP7 POP PUSH1 0x20 DUP9 ADD CALLDATALOAD SWAP2 POP PUSH1 0x4 DUP3 LT PUSH2 0x31ED JUMPI DUP3 DUP4 REVERT JUMPDEST SWAP1 SWAP5 POP PUSH1 0x40 DUP8 ADD CALLDATALOAD SWAP1 PUSH1 0x2 DUP3 LT PUSH2 0x3202 JUMPI DUP3 DUP4 REVERT JUMPDEST SWAP1 SWAP4 POP PUSH1 0x60 DUP8 ADD CALLDATALOAD SWAP1 DUP1 DUP3 GT ISZERO PUSH2 0x3217 JUMPI DUP3 DUP4 REVERT JUMPDEST POP PUSH2 0x3224 DUP9 DUP3 DUP10 ADD PUSH2 0x308F JUMP JUMPDEST SWAP6 SWAP9 SWAP5 SWAP8 POP SWAP3 SWAP6 PUSH1 0x80 ADD CALLDATALOAD SWAP4 SWAP3 POP POP POP JUMP JUMPDEST PUSH1 0x0 DUP1 PUSH1 0x40 DUP4 DUP6 SUB SLT ISZERO PUSH2 0x3248 JUMPI DUP2 DUP3 REVERT JUMPDEST DUP3 MLOAD PUSH8 0xFFFFFFFFFFFFFFFF DUP1 DUP3 GT ISZERO PUSH2 0x325F JUMPI DUP4 DUP5 REVERT JUMPDEST PUSH2 0x326B DUP7 DUP4 DUP8 ADD PUSH2 0x30AE JUMP JUMPDEST SWAP4 POP PUSH1 0x20 DUP6 ADD MLOAD SWAP2 POP DUP1 DUP3 GT ISZERO PUSH2 0x3280 JUMPI DUP3 DUP4 REVERT JUMPDEST POP PUSH2 0x328D DUP6 DUP3 DUP7 ADD PUSH2 0x30AE JUMP JUMPDEST SWAP2 POP POP SWAP3 POP SWAP3 SWAP1 POP JUMP JUMPDEST PUSH1 0x0 DUP1 PUSH1 0x40 DUP4 DUP6 SUB SLT ISZERO PUSH2 0x32A9 JUMPI DUP2 DUP3 REVERT JUMPDEST DUP3 CALLDATALOAD PUSH8 0xFFFFFFFFFFFFFFFF DUP2 GT ISZERO PUSH2 0x32BF JUMPI DUP3 DUP4 REVERT JUMPDEST PUSH2 0x32CB DUP6 DUP3 DUP7 ADD PUSH2 0x308F JUMP JUMPDEST SWAP6 PUSH1 0x20 SWAP5 SWAP1 SWAP5 ADD CALLDATALOAD SWAP5 POP POP POP POP JUMP JUMPDEST PUSH1 0x0 DUP1 PUSH1 0x0 PUSH1 0x60 DUP5 DUP7 SUB SLT ISZERO PUSH2 0x32EE JUMPI DUP3 DUP4 REVERT JUMPDEST DUP4 CALLDATALOAD PUSH8 0xFFFFFFFFFFFFFFFF DUP1 DUP3 GT ISZERO PUSH2 0x3305 JUMPI DUP5 DUP6 REVERT JUMPDEST PUSH2 0x3311 DUP8 DUP4 DUP9 ADD PUSH2 0x308F JUMP JUMPDEST SWAP5 POP PUSH1 0x20 DUP7 ADD CALLDATALOAD SWAP4 POP PUSH1 0x40 DUP7 ADD CALLDATALOAD SWAP2 POP DUP1 DUP3 GT ISZERO PUSH2 0x332D JUMPI DUP3 DUP4 REVERT JUMPDEST POP PUSH2 0x333A DUP7 DUP3 DUP8 ADD PUSH2 0x308F JUMP JUMPDEST SWAP2 POP POP SWAP3 POP SWAP3 POP SWAP3 JUMP JUMPDEST PUSH1 0x0 DUP1 PUSH1 0x0 DUP1 PUSH1 0x0 DUP1 PUSH1 0xC0 DUP8 DUP10 SUB SLT ISZERO PUSH2 0x335C JUMPI DUP1 DUP2 REVERT JUMPDEST DUP7 CALLDATALOAD PUSH8 0xFFFFFFFFFFFFFFFF DUP1 DUP3 GT ISZERO PUSH2 0x3373 JUMPI DUP3 DUP4 REVERT JUMPDEST PUSH2 0x337F DUP11 DUP4 DUP12 ADD PUSH2 0x308F JUMP JUMPDEST SWAP8 POP PUSH1 0x20 DUP10 ADD CALLDATALOAD SWAP7 POP PUSH1 0x40 DUP10 ADD CALLDATALOAD SWAP6 POP PUSH1 0x60 DUP10 ADD CALLDATALOAD SWAP2 POP DUP1 DUP3 GT ISZERO PUSH2 0x33A2 JUMPI DUP3 DUP4 REVERT JUMPDEST POP PUSH2 0x33AF DUP10 DUP3 DUP11 ADD PUSH2 0x308F JUMP JUMPDEST SWAP4 POP POP PUSH1 0x80 DUP8 ADD CALLDATALOAD SWAP2 POP PUSH2 0x33C5 PUSH1 0xA0 DUP9 ADD PUSH2 0x3078 JUMP JUMPDEST SWAP1 POP SWAP3 SWAP6 POP SWAP3 SWAP6 POP SWAP3 SWAP6 JUMP JUMPDEST PUSH1 0x0 PUSH1 0x20 DUP3 DUP5 SUB SLT ISZERO PUSH2 0x33E2 JUMPI DUP1 DUP2 REVERT JUMPDEST POP CALLDATALOAD SWAP2 SWAP1 POP JUMP JUMPDEST PUSH1 0x0 PUSH1 0x20 DUP3 DUP5 SUB SLT ISZERO PUSH2 0x33FA JUMPI DUP1 DUP2 REVERT JUMPDEST POP MLOAD SWAP2 SWAP1 POP JUMP JUMPDEST PUSH1 0x0 DUP1 PUSH1 0x40 DUP4 DUP6 SUB SLT ISZERO PUSH2 0x3413 JUMPI DUP2 DUP3 REVERT JUMPDEST POP POP DUP1 CALLDATALOAD SWAP3 PUSH1 0x20 SWAP1 SWAP2 ADD CALLDATALOAD SWAP2 POP JUMP JUMPDEST PUSH1 0x0 DUP1 PUSH1 0x0 DUP1 PUSH1 0x0 PUSH1 0xA0 DUP7 DUP9 SUB SLT ISZERO PUSH2 0x3439 JUMPI DUP3 DUP4 REVERT JUMPDEST DUP6 CALLDATALOAD SWAP5 POP PUSH1 0x20 DUP7 ADD CALLDATALOAD SWAP4 POP PUSH1 0x40 DUP7 ADD CALLDATALOAD PUSH8 0xFFFFFFFFFFFFFFFF DUP1 DUP3 GT ISZERO PUSH2 0x345E JUMPI DUP5 DUP6 REVERT JUMPDEST PUSH2 0x346A DUP10 DUP4 DUP11 ADD PUSH2 0x308F JUMP JUMPDEST SWAP5 POP PUSH1 0x60 DUP9 ADD CALLDATALOAD SWAP4 POP PUSH1 0x80 DUP9 ADD CALLDATALOAD SWAP2 POP DUP1 DUP3 GT ISZERO PUSH2 0x3486 JUMPI DUP3 DUP4 REVERT JUMPDEST POP DUP7 ADD PUSH1 0x1F DUP2 ADD DUP9 SGT PUSH2 0x3497 JUMPI DUP2 DUP3 REVERT JUMPDEST PUSH2 0x34A6 DUP9 DUP3 CALLDATALOAD PUSH1 0x20 DUP5 ADD PUSH2 0x303A JUMP JUMPDEST SWAP2 POP POP SWAP3 SWAP6 POP SWAP3 SWAP6 SWAP1 SWAP4 POP JUMP JUMPDEST PUSH1 0x0 DUP1 PUSH1 0x0 DUP1 PUSH1 0x0 PUSH1 0x80 DUP7 DUP9 SUB SLT ISZERO PUSH2 0x34CA JUMPI DUP3 DUP4 REVERT JUMPDEST PUSH2 0x34D3 DUP7 PUSH2 0x30F1 JUMP JUMPDEST SWAP5 POP PUSH1 0x20 DUP7 ADD CALLDATALOAD SWAP4 POP PUSH2 0x34E8 PUSH1 0x40 DUP8 ADD PUSH2 0x30F1 JUMP JUMPDEST SWAP3 POP PUSH1 0x60 DUP7 ADD CALLDATALOAD PUSH8 0xFFFFFFFFFFFFFFFF DUP1 DUP3 GT ISZERO PUSH2 0x3504 JUMPI DUP3 DUP4 REVERT JUMPDEST DUP2 DUP9 ADD SWAP2 POP DUP9 PUSH1 0x1F DUP4 ADD SLT PUSH2 0x3517 JUMPI DUP3 DUP4 REVERT JUMPDEST DUP2 CALLDATALOAD DUP2 DUP2 GT ISZERO PUSH2 0x3525 JUMPI DUP4 DUP5 REVERT JUMPDEST DUP10 PUSH1 0x20 DUP3 DUP6 ADD ADD GT ISZERO PUSH2 0x3536 JUMPI DUP4 DUP5 REVERT JUMPDEST SWAP7 SWAP10 SWAP6 SWAP9 POP SWAP4 SWAP7 POP PUSH1 0x20 ADD SWAP5 SWAP4 SWAP3 POP POP POP JUMP JUMPDEST ISZERO ISZERO SWAP1 MSTORE JUMP JUMPDEST PUSH1 0x2 DUP2 LT PUSH2 0x3559 JUMPI INVALID JUMPDEST SWAP1 MSTORE JUMP JUMPDEST PUSH1 0x4 DUP2 LT PUSH2 0x3559 JUMPI INVALID JUMPDEST PUSH1 0x0 DUP2 MLOAD DUP1 DUP5 MSTORE PUSH2 0x357F DUP2 PUSH1 0x20 DUP7 ADD PUSH1 0x20 DUP7 ADD PUSH2 0x3C64 JUMP JUMPDEST PUSH1 0x1F ADD PUSH1 0x1F NOT AND SWAP3 SWAP1 SWAP3 ADD PUSH1 0x20 ADD SWAP3 SWAP2 POP POP JUMP JUMPDEST PUSH1 0x0 DUP1 DUP4 SLOAD PUSH1 0x1 DUP1 DUP3 AND PUSH1 0x0 DUP2 EQ PUSH2 0x35B2 JUMPI PUSH1 0x1 DUP2 EQ PUSH2 0x35C9 JUMPI PUSH2 0x35F8 JUMP JUMPDEST PUSH1 0xFF NOT DUP4 AND DUP7 MSTORE PUSH1 0x2 DUP4 DIV PUSH1 0x7F AND DUP7 ADD SWAP4 POP PUSH2 0x35F8 JUMP JUMPDEST PUSH1 0x2 DUP4 DIV DUP8 DUP7 MSTORE PUSH1 0x20 DUP1 DUP8 KECCAK256 DUP8 JUMPDEST DUP4 DUP2 LT ISZERO PUSH2 0x35F0 JUMPI DUP2 SLOAD DUP11 DUP3 ADD MSTORE SWAP1 DUP6 ADD SWAP1 DUP3 ADD PUSH2 0x35D7 JUMP JUMPDEST POP POP POP DUP7 ADD SWAP4 POP JUMPDEST POP SWAP2 SWAP6 SWAP5 POP POP POP POP POP JUMP JUMPDEST PUSH1 0x0 DUP3 MLOAD PUSH2 0x3615 DUP2 DUP5 PUSH1 0x20 DUP8 ADD PUSH2 0x3C64 JUMP JUMPDEST SWAP2 SWAP1 SWAP2 ADD SWAP3 SWAP2 POP POP JUMP JUMPDEST PUSH2 0x1901 PUSH1 0xF0 SHL DUP2 MSTORE PUSH1 0x2 DUP2 ADD SWAP3 SWAP1 SWAP3 MSTORE PUSH1 0x22 DUP3 ADD MSTORE PUSH1 0x42 ADD SWAP1 JUMP JUMPDEST PUSH1 0x1 PUSH1 0x1 PUSH1 0xA0 SHL SUB SWAP2 SWAP1 SWAP2 AND DUP2 MSTORE PUSH1 0x20 ADD SWAP1 JUMP JUMPDEST PUSH1 0x0 PUSH1 0x20 DUP1 DUP4 ADD DUP2 DUP5 MSTORE DUP1 DUP6 MLOAD DUP1 DUP4 MSTORE PUSH1 0x40 DUP7 ADD SWAP2 POP PUSH1 0x40 DUP5 DUP3 MUL DUP8 ADD ADD SWAP3 POP DUP4 DUP8 ADD DUP6 JUMPDEST DUP3 DUP2 LT ISZERO PUSH2 0x36A1 JUMPI PUSH1 0x3F NOT DUP9 DUP7 SUB ADD DUP5 MSTORE PUSH2 0x368F DUP6 DUP4 MLOAD PUSH2 0x3567 JUMP JUMPDEST SWAP5 POP SWAP3 DUP6 ADD SWAP3 SWAP1 DUP6 ADD SWAP1 PUSH1 0x1 ADD PUSH2 0x3673 JUMP JUMPDEST POP SWAP3 SWAP8 SWAP7 POP POP POP POP POP POP POP JUMP JUMPDEST SWAP1 ISZERO ISZERO DUP2 MSTORE PUSH1 0x20 ADD SWAP1 JUMP JUMPDEST SWAP1 DUP2 MSTORE PUSH1 0x20 ADD SWAP1 JUMP JUMPDEST SWAP5 DUP6 MSTORE PUSH1 0x20 DUP6 ADD SWAP4 SWAP1 SWAP4 MSTORE PUSH1 0x40 DUP5 ADD SWAP2 SWAP1 SWAP2 MSTORE PUSH1 0x60 DUP4 ADD MSTORE PUSH1 0x80 DUP3 ADD MSTORE PUSH1 0xA0 ADD SWAP1 JUMP JUMPDEST PUSH1 0x0 PUSH2 0x36F1 DUP3 DUP8 PUSH2 0x355D JUMP JUMPDEST PUSH2 0x36FE PUSH1 0x20 DUP4 ADD DUP7 PUSH2 0x354F JUMP JUMPDEST PUSH1 0x80 PUSH1 0x40 DUP4 ADD MSTORE PUSH2 0x3712 PUSH1 0x80 DUP4 ADD DUP6 PUSH2 0x3567 JUMP JUMPDEST SWAP1 POP DUP3 PUSH1 0x60 DUP4 ADD MSTORE SWAP6 SWAP5 POP POP POP POP POP JUMP JUMPDEST PUSH1 0x0 PUSH4 0xFFFFFFFF DUP7 AND DUP3 MSTORE DUP5 PUSH1 0x20 DUP4 ADD MSTORE DUP4 PUSH1 0x40 DUP4 ADD MSTORE PUSH1 0x80 PUSH1 0x60 DUP4 ADD MSTORE PUSH2 0x12F5 PUSH1 0x80 DUP4 ADD DUP5 PUSH2 0x3567 JUMP JUMPDEST PUSH1 0x0 PUSH1 0x20 DUP3 MSTORE PUSH2 0x24EF PUSH1 0x20 DUP4 ADD DUP5 PUSH2 0x3567 JUMP JUMPDEST PUSH1 0x0 PUSH2 0x140 DUP1 DUP4 MSTORE PUSH2 0x3775 DUP2 DUP5 ADD DUP15 PUSH2 0x3567 JUMP JUMPDEST SWAP1 POP PUSH2 0x3784 PUSH1 0x20 DUP5 ADD DUP14 PUSH2 0x355D JUMP JUMPDEST PUSH2 0x3791 PUSH1 0x40 DUP5 ADD DUP13 PUSH2 0x354F JUMP JUMPDEST DUP3 DUP2 SUB PUSH1 0x60 DUP5 ADD MSTORE PUSH2 0x37A3 DUP2 DUP12 PUSH2 0x3567 JUMP JUMPDEST PUSH1 0x80 DUP5 ADD SWAP10 SWAP1 SWAP10 MSTORE POP POP PUSH1 0xA0 DUP2 ADD SWAP6 SWAP1 SWAP6 MSTORE PUSH1 0xC0 DUP6 ADD SWAP4 SWAP1 SWAP4 MSTORE PUSH1 0xE0 DUP5 ADD SWAP2 SWAP1 SWAP2 MSTORE PUSH2 0x100 DUP4 ADD MSTORE ISZERO ISZERO PUSH2 0x120 SWAP1 SWAP2 ADD MSTORE SWAP5 SWAP4 POP POP POP POP JUMP JUMPDEST PUSH1 0x20 DUP1 DUP3 MSTORE PUSH1 0x13 SWAP1 DUP3 ADD MSTORE PUSH19 0x9CC2E8D2DEDCC2D8D2E8F29AD2E6DAC2E8C6D PUSH1 0x6B SHL PUSH1 0x40 DUP3 ADD MSTORE PUSH1 0x60 ADD SWAP1 JUMP JUMPDEST PUSH1 0x20 DUP1 DUP3 MSTORE PUSH1 0x12 SWAP1 DUP3 ADD MSTORE PUSH18 0x496E76616C69644E6174696F6E616C697479 PUSH1 0x70 SHL PUSH1 0x40 DUP3 ADD MSTORE PUSH1 0x60 ADD SWAP1 JUMP JUMPDEST PUSH1 0x20 DUP1 DUP3 MSTORE PUSH1 0xD SWAP1 DUP3 ADD MSTORE PUSH13 0x125B9D985B1A59105B5BDD5B9D PUSH1 0x9A SHL PUSH1 0x40 DUP3 ADD MSTORE PUSH1 0x60 ADD SWAP1 JUMP JUMPDEST PUSH1 0x20 DUP1 DUP3 MSTORE PUSH1 0x10 SWAP1 DUP3 ADD MSTORE PUSH16 0x125B9D985B1A59149958DA5C1A595B9D PUSH1 0x82 SHL PUSH1 0x40 DUP3 ADD MSTORE PUSH1 0x60 ADD SWAP1 JUMP JUMPDEST PUSH1 0x20 DUP1 DUP3 MSTORE PUSH1 0xB SWAP1 DUP3 ADD MSTORE PUSH11 0x125B9D985B1A59141BDBDB PUSH1 0xAA SHL PUSH1 0x40 DUP3 ADD MSTORE PUSH1 0x60 ADD SWAP1 JUMP JUMPDEST PUSH1 0x20 DUP1 DUP3 MSTORE PUSH1 0x17 SWAP1 DUP3 ADD MSTORE PUSH32 0x556E617574686F72697A65643A204E6F742041646D696E000000000000000000 PUSH1 0x40 DUP3 ADD MSTORE PUSH1 0x60 ADD SWAP1 JUMP JUMPDEST PUSH1 0x20 DUP1 DUP3 MSTORE PUSH1 0x15 SWAP1 DUP3 ADD MSTORE PUSH21 0x139BC81A1BDBDAC819185D18481C1C9BDD9A591959 PUSH1 0x5A SHL PUSH1 0x40 DUP3 ADD MSTORE PUSH1 0x60 ADD SWAP1 JUMP JUMPDEST PUSH1 0x20 DUP1 DUP3 MSTORE PUSH1 0xC SWAP1 DUP3 ADD MSTORE PUSH12 0x506F6F6C496E616374697665 PUSH1 0xA0 SHL PUSH1 0x40 DUP3 ADD MSTORE PUSH1 0x60 ADD SWAP1 JUMP JUMPDEST PUSH1 0x20 DUP1 DUP3 MSTORE PUSH1 0xE SWAP1 DUP3 ADD MSTORE PUSH14 0x105B1C9958591E50DB185A5B5959 PUSH1 0x92 SHL PUSH1 0x40 DUP3 ADD MSTORE PUSH1 0x60 ADD SWAP1 JUMP JUMPDEST PUSH1 0x20 DUP1 DUP3 MSTORE PUSH1 0x11 SWAP1 DUP3 ADD MSTORE PUSH17 0x496E73756666696369656E7446756E6473 PUSH1 0x78 SHL PUSH1 0x40 DUP3 ADD MSTORE PUSH1 0x60 ADD SWAP1 JUMP JUMPDEST PUSH1 0x20 DUP1 DUP3 MSTORE PUSH1 0x11 SWAP1 DUP3 ADD MSTORE PUSH17 0x506F6F6C416C7265616479457869737473 PUSH1 0x78 SHL PUSH1 0x40 DUP3 ADD MSTORE PUSH1 0x60 ADD SWAP1 JUMP JUMPDEST PUSH1 0x20 DUP1 DUP3 MSTORE PUSH1 0x13 SWAP1 DUP3 ADD MSTORE PUSH19 0x496E646578206F7574206F6620626F756E6473 PUSH1 0x68 SHL PUSH1 0x40 DUP3 ADD MSTORE PUSH1 0x60 ADD SWAP1 JUMP JUMPDEST PUSH1 0x20 DUP1 DUP3 MSTORE PUSH1 0xD SWAP1 DUP3 ADD MSTORE PUSH13 0x125B9D985B1A59141BDBDB1259 PUSH1 0x9A SHL PUSH1 0x40 DUP3 ADD MSTORE PUSH1 0x60 ADD SWAP1 JUMP JUMPDEST DUP2 MLOAD DUP2 MSTORE PUSH1 0x20 DUP1 DUP4 ADD MLOAD SWAP1 DUP3 ADD MSTORE PUSH1 0x40 DUP1 DUP4 ADD MLOAD PUSH1 0x1 PUSH1 0x1 PUSH1 0xA0 SHL SUB AND SWAP1 DUP3 ADD MSTORE PUSH1 0x60 DUP1 DUP4 ADD MLOAD SWAP1 DUP3 ADD MSTORE PUSH1 0x80 SWAP2 DUP3 ADD MLOAD SWAP2 DUP2 ADD SWAP2 SWAP1 SWAP2 MSTORE PUSH1 0xA0 ADD SWAP1 JUMP JUMPDEST PUSH1 0x0 PUSH1 0x20 DUP3 MSTORE DUP3 MLOAD PUSH1 0x20 DUP4 ADD MSTORE PUSH1 0x1 DUP1 PUSH1 0xA0 SHL SUB PUSH1 0x20 DUP5 ADD MLOAD AND PUSH1 0x40 DUP4 ADD MSTORE PUSH1 0x40 DUP4 ADD MLOAD PUSH1 0x60 DUP4 ADD MSTORE PUSH1 0x60 DUP4 ADD MLOAD PUSH1 0x80 DUP4 ADD MSTORE PUSH1 0x80 DUP4 ADD MLOAD ISZERO ISZERO PUSH1 0xA0 DUP4 ADD MSTORE PUSH4 0xFFFFFFFF PUSH1 0xA0 DUP5 ADD MLOAD AND PUSH1 0xC0 DUP4 ADD MSTORE PUSH1 0xC0 DUP4 ADD MLOAD PUSH1 0xE0 DUP1 DUP5 ADD MSTORE PUSH2 0x25D6 PUSH2 0x100 DUP5 ADD DUP3 PUSH2 0x3567 JUMP JUMPDEST PUSH1 0x0 PUSH1 0x20 DUP3 MSTORE DUP3 MLOAD PUSH2 0x140 DUP1 PUSH1 0x20 DUP6 ADD MSTORE PUSH2 0x3ACE PUSH2 0x160 DUP6 ADD DUP4 PUSH2 0x3567 JUMP JUMPDEST SWAP2 POP PUSH1 0x20 DUP6 ADD MLOAD PUSH2 0x3AE2 PUSH1 0x40 DUP7 ADD DUP3 PUSH2 0x355D JUMP JUMPDEST POP PUSH1 0x40 DUP6 ADD MLOAD PUSH2 0x3AF5 PUSH1 0x60 DUP7 ADD DUP3 PUSH2 0x354F JUMP JUMPDEST POP PUSH1 0x60 DUP6 ADD MLOAD DUP5 DUP4 SUB PUSH1 0x1F NOT ADD PUSH1 0x80 DUP7 ADD MSTORE PUSH2 0x3B11 DUP4 DUP3 PUSH2 0x3567 JUMP JUMPDEST SWAP3 POP POP PUSH1 0x80 DUP6 ADD MLOAD PUSH1 0xA0 DUP6 ADD MSTORE PUSH1 0xA0 DUP6 ADD MLOAD PUSH1 0xC0 DUP6 ADD MSTORE PUSH1 0xC0 DUP6 ADD MLOAD PUSH1 0xE0 DUP6 ADD MSTORE PUSH1 0xE0 DUP6 ADD MLOAD PUSH2 0x100 DUP2 DUP2 DUP8 ADD MSTORE DUP1 DUP8 ADD MLOAD SWAP2 POP POP PUSH2 0x120 DUP2 DUP2 DUP8 ADD MSTORE DUP1 DUP8 ADD MLOAD SWAP2 POP POP PUSH2 0x3B61 DUP3 DUP7 ADD DUP3 PUSH2 0x3549 JUMP JUMPDEST POP SWAP1 SWAP5 SWAP4 POP POP POP POP JUMP JUMPDEST PUSH1 0x0 DUP9 DUP3 MSTORE PUSH1 0x1 DUP1 PUSH1 0xA0 SHL SUB DUP9 AND PUSH1 0x20 DUP4 ADD MSTORE DUP7 PUSH1 0x40 DUP4 ADD MSTORE DUP6 PUSH1 0x60 DUP4 ADD MSTORE DUP5 ISZERO ISZERO PUSH1 0x80 DUP4 ADD MSTORE PUSH4 0xFFFFFFFF DUP5 AND PUSH1 0xA0 DUP4 ADD MSTORE PUSH1 0xE0 PUSH1 0xC0 DUP4 ADD MSTORE PUSH2 0x3BB2 PUSH1 0xE0 DUP4 ADD DUP5 PUSH2 0x3567 JUMP JUMPDEST SWAP10 SWAP9 POP POP POP POP POP POP POP POP POP JUMP JUMPDEST SWAP5 DUP6 MSTORE PUSH1 0x20 DUP6 ADD SWAP4 SWAP1 SWAP4 MSTORE PUSH1 0x1 PUSH1 0x1 PUSH1 0xA0 SHL SUB SWAP2 SWAP1 SWAP2 AND PUSH1 0x40 DUP5 ADD MSTORE PUSH1 0x60 DUP4 ADD MSTORE PUSH1 0x80 DUP3 ADD MSTORE PUSH1 0xA0 ADD SWAP1 JUMP JUMPDEST PUSH1 0x0 DUP7 DUP3 MSTORE DUP6 PUSH1 0x20 DUP4 ADD MSTORE PUSH1 0xA0 PUSH1 0x40 DUP4 ADD MSTORE PUSH2 0x3C0A PUSH1 0xA0 DUP4 ADD DUP7 PUSH2 0x3567 JUMP JUMPDEST PUSH1 0x60 DUP4 ADD SWAP5 SWAP1 SWAP5 MSTORE POP PUSH1 0x80 ADD MSTORE SWAP4 SWAP3 POP POP POP JUMP JUMPDEST PUSH1 0x40 MLOAD DUP2 DUP2 ADD PUSH8 0xFFFFFFFFFFFFFFFF DUP2 GT DUP3 DUP3 LT OR ISZERO PUSH2 0x3C3A JUMPI INVALID JUMPDEST PUSH1 0x40 MSTORE SWAP2 SWAP1 POP JUMP JUMPDEST PUSH1 0x0 PUSH8 0xFFFFFFFFFFFFFFFF DUP3 GT ISZERO PUSH2 0x3C56 JUMPI INVALID JUMPDEST POP PUSH1 0x1F ADD PUSH1 0x1F NOT AND PUSH1 0x20 ADD SWAP1 JUMP JUMPDEST PUSH1 0x0 JUMPDEST DUP4 DUP2 LT ISZERO PUSH2 0x3C7F JUMPI DUP2 DUP2 ADD MLOAD DUP4 DUP3 ADD MSTORE PUSH1 0x20 ADD PUSH2 0x3C67 JUMP JUMPDEST DUP4 DUP2 GT ISZERO PUSH2 0x2234 JUMPI POP POP PUSH1 0x0 SWAP2 ADD MSTORE JUMP INVALID 0x4F PUSH24 0x6E61626C653A206E6577206F776E65722069732074686520 PUSH27 0x65726F206164647265737345434453413A20696E76616C69642073 PUSH10 0x676E6174757265202773 0x27 KECCAK256 PUSH23 0x616C7565416464726573733A20696E7375666669636965 PUSH15 0x742062616C616E636520666F722063 PUSH2 0x6C6C 0x2E KECCAK256 COINBASE PUSH21 0x74656D7074656420746F20696E646578206174206F PUSH7 0x66736574203078 GASLIMIT NUMBER DIFFICULTY MSTORE8 COINBASE GASPRICE KECCAK256 PUSH10 0x6E76616C696420736967 PUSH15 0x6174757265202776272076616C7565 0x4F PUSH24 0x6E61626C653A2063616C6C6572206973206E6F7420746865 KECCAK256 PUSH16 0x776E657254797065644D656D56696577 0x2F PUSH10 0x6E646578202D20417474 PUSH6 0x6D7074656420 PUSH21 0x6F20696E646578206D6F7265207468616E20333220 PUSH3 0x797465 PUSH20 0x5361666545524332303A204552433230206F7065 PUSH19 0x6174696F6E20646964206E6F74207375636365 PUSH6 0x645479706564 0x4D PUSH6 0x6D566965772F PUSH4 0x6F707954 PUSH16 0x202D204E756C6C20706F696E74657220 PUSH5 0x6572656654 PUSH26 0x7065644D656D566965772F636F7079546F202D20496E76616C69 PUSH5 0x20706F696E PUSH21 0x657220646572656654797065644D656D566965772F PUSH10 0x6E646578202D204F7665 PUSH19 0x72616E2074686520766965772E20536C696365 KECCAK256 PUSH10 0x73206174203078A26469 PUSH17 0x667358221220A876F916525596638336CB GASLIMIT 0xCE MULMOD LOG0 CODESIZE 0xDF 0x5D PUSH6 0xDC8E03EC1F12 PUSH16 0x6B0DFE5FADFF64736F6C634300070600 CALLER 0x4F PUSH24 0x6E61626C653A206E6577206F776E65722069732074686520 PUSH27 0x65726F20616464726573738BE0079C531659141344CD1FD0A4F284 NOT 0x49 PUSH32 0x9722A3DAAFE3B4186F6B6457E000000000000000000000000000000000000000 "
        },
        "methodIdentifiers": {
          "DOMAIN_SEPARATOR()": "3644e515",
          "VERIFICATION_MESSAGE_TYPEHASH()": "e1a788eb",
          "adminAddress()": "fc6f9468",
          "cctpMessageTransmitter()": "8c73eb04",
          "checkPersonClaimedFromPool(string,uint256)": "8bbd58e2",
          "claimRelief(string,uint256,uint256,string,uint256,address)": "0e0b8c8b",
          "createReliefPool(string,uint8,uint8,string,uint256)": "21050edc",
          "donate(string,uint256,string)": "b9adb2f7",
          "emergencyWithdraw(uint256)": "5312ea8e",
          "getAllPoolIds()": "f19c3d5b",
          "getBeneficiary(string,address)": "1376938d",
          "getContractBalance()": "6f9fb98a",
          "getDonor(string,address)": "aa62e312",
          "getPersonClaimedPools(uint256)": "7332cec4",
          "getPoolIdByIndex(uint256)": "20de7592",
          "getReliefPool(string)": "734123c4",
          "getTotalPools()": "d3ffe67a",
          "handleReceiveFinalizedMessage(uint32,bytes32,uint32,bytes)": "11cffb67",
          "handleReceiveUnfinalizedMessage(uint32,bytes32,uint32,bytes)": "7c92f219",
          "hasPersonClaimedFromPool(string,uint256)": "b2396e6c",
          "owner()": "8da5cb5b",
          "personClaimedPools(uint256,uint256)": "feb16532",
          "poolBeneficiaries(string,address)": "1223310a",
          "poolDonors(string,address)": "9605cfe5",
          "poolIds(uint256)": "69883b4e",
          "reliefPools(string)": "d697d231",
          "renounceOwnership()": "715018a6",
          "setCCTPMessageTransmitter(address)": "d9db6e03",
          "togglePoolStatus(string)": "f6ab0872",
          "transferOwnership(address)": "f2fde38b",
          "usdcToken()": "11eac855",
          "verifyAdminSignature(uint256,uint256,string,uint256,bytes)": "8be55456"
        }
      }
    }
  }
}