{
  "contracts/ReliefPools.sol": {
    "ReliefPools": {
      "abi": [
        {
          "inputs": [
            {
              "internalType": "address",
              "name": "_adminAddress",
              "type": "address"
            },
            {
              "internalType": "address",
              "name": "_usdcToken",
              "type": "address"
            },
            {
              "internalType": "address",
              "name": "_cctpMessageTransmitter",
              "type": "address"
            }
          ],
          "stateMutability": "nonpayable",
          "type": "constructor"
        },
        {
          "anonymous": false,
          "inputs": [
            {
              "indexed": false,
              "internalType": "string",
              "name": "poolId",
              "type": "string"
            },
            {
              "indexed": true,
              "internalType": "address",
              "name": "donor",
              "type": "address"
            },
            {
              "indexed": false,
              "internalType": "uint32",
              "name": "sourceDomain",
              "type": "uint32"
            },
            {
              "indexed": false,
              "internalType": "uint256",
              "name": "amount",
              "type": "uint256"
            },
            {
              "indexed": false,
              "internalType": "uint256",
              "name": "timestamp",
              "type": "uint256"
            },
            {
              "indexed": false,
              "internalType": "string",
              "name": "location",
              "type": "string"
            }
          ],
          "name": "DonationMade",
          "type": "event"
        },
        {
          "anonymous": false,
          "inputs": [
            {
              "indexed": false,
              "internalType": "string",
              "name": "poolId",
              "type": "string"
            },
            {
              "indexed": true,
              "internalType": "address",
              "name": "claimer",
              "type": "address"
            },
            {
              "indexed": true,
              "internalType": "address",
              "name": "recipient",
              "type": "address"
            },
            {
              "indexed": false,
              "internalType": "uint256",
              "name": "nullifier",
              "type": "uint256"
            },
            {
              "indexed": false,
              "internalType": "uint256",
              "name": "userIdentifier",
              "type": "uint256"
            },
            {
              "indexed": false,
              "internalType": "string",
              "name": "nationality",
              "type": "string"
            },
            {
              "indexed": false,
              "internalType": "uint256",
              "name": "amount",
              "type": "uint256"
            },
            {
              "indexed": false,
              "internalType": "uint256",
              "name": "timestamp",
              "type": "uint256"
            }
          ],
          "name": "FundsClaimed",
          "type": "event"
        },
        {
          "anonymous": false,
          "inputs": [
            {
              "indexed": true,
              "internalType": "address",
              "name": "previousOwner",
              "type": "address"
            },
            {
              "indexed": true,
              "internalType": "address",
              "name": "newOwner",
              "type": "address"
            }
          ],
          "name": "OwnershipTransferred",
          "type": "event"
        },
        {
          "anonymous": false,
          "inputs": [
            {
              "indexed": true,
              "internalType": "string",
              "name": "poolId",
              "type": "string"
            },
            {
              "indexed": false,
              "internalType": "bool",
              "name": "isActive",
              "type": "bool"
            }
          ],
          "name": "PoolStatusChanged",
          "type": "event"
        },
        {
          "anonymous": false,
          "inputs": [
            {
              "indexed": false,
              "internalType": "string",
              "name": "poolId",
              "type": "string"
            },
            {
              "indexed": false,
              "internalType": "enum ReliefPools.DisasterTypeEnum",
              "name": "disasterType",
              "type": "uint8"
            },
            {
              "indexed": false,
              "internalType": "enum ReliefPools.ClassificationEnum",
              "name": "classification",
              "type": "uint8"
            },
            {
              "indexed": false,
              "internalType": "string",
              "name": "nationalityRequired",
              "type": "string"
            },
            {
              "indexed": false,
              "internalType": "uint256",
              "name": "allocatedFundsPerPerson",
              "type": "uint256"
            }
          ],
          "name": "ReliefPoolCreated",
          "type": "event"
        },
        {
          "inputs": [],
          "name": "DOMAIN_SEPARATOR",
          "outputs": [
            {
              "internalType": "bytes32",
              "name": "",
              "type": "bytes32"
            }
          ],
          "stateMutability": "view",
          "type": "function"
        },
        {
          "inputs": [],
          "name": "adminAddress",
          "outputs": [
            {
              "internalType": "address",
              "name": "",
              "type": "address"
            }
          ],
          "stateMutability": "view",
          "type": "function"
        },
        {
          "inputs": [],
          "name": "cctpMessageTransmitter",
          "outputs": [
            {
              "internalType": "address",
              "name": "",
              "type": "address"
            }
          ],
          "stateMutability": "view",
          "type": "function"
        },
        {
          "inputs": [
            {
              "internalType": "string",
              "name": "poolId",
              "type": "string"
            },
            {
              "internalType": "uint256",
              "name": "userIdentifier",
              "type": "uint256"
            }
          ],
          "name": "checkPersonClaimedFromPool",
          "outputs": [
            {
              "internalType": "bool",
              "name": "",
              "type": "bool"
            }
          ],
          "stateMutability": "view",
          "type": "function"
        },
        {
          "inputs": [
            {
              "internalType": "string",
              "name": "poolId",
              "type": "string"
            },
            {
              "internalType": "uint256",
              "name": "nullifier",
              "type": "uint256"
            },
            {
              "internalType": "uint256",
              "name": "userIdentifier",
              "type": "uint256"
            },
            {
              "internalType": "string",
              "name": "nationality",
              "type": "string"
            },
            {
              "internalType": "uint256",
              "name": "timestamp",
              "type": "uint256"
            },
            {
              "internalType": "address",
              "name": "recipient",
              "type": "address"
            }
          ],
          "name": "claimRelief",
          "outputs": [],
          "stateMutability": "nonpayable",
          "type": "function"
        },
        {
          "inputs": [
            {
              "internalType": "string",
              "name": "poolId",
              "type": "string"
            },
            {
              "internalType": "enum ReliefPools.DisasterTypeEnum",
              "name": "disasterType",
              "type": "uint8"
            },
            {
              "internalType": "enum ReliefPools.ClassificationEnum",
              "name": "classification",
              "type": "uint8"
            },
            {
              "internalType": "string",
              "name": "nationalityRequired",
              "type": "string"
            },
            {
              "internalType": "uint256",
              "name": "allocatedFundsPerPerson",
              "type": "uint256"
            }
          ],
          "name": "createReliefPool",
          "outputs": [
            {
              "internalType": "string",
              "name": "",
              "type": "string"
            }
          ],
          "stateMutability": "nonpayable",
          "type": "function"
        },
        {
          "inputs": [
            {
              "internalType": "string",
              "name": "poolId",
              "type": "string"
            },
            {
              "internalType": "uint256",
              "name": "amount",
              "type": "uint256"
            },
            {
              "internalType": "string",
              "name": "location",
              "type": "string"
            }
          ],
          "name": "donate",
          "outputs": [],
          "stateMutability": "nonpayable",
          "type": "function"
        },
        {
          "inputs": [
            {
              "internalType": "uint256",
              "name": "amount",
              "type": "uint256"
            }
          ],
          "name": "emergencyWithdraw",
          "outputs": [],
          "stateMutability": "nonpayable",
          "type": "function"
        },
        {
          "inputs": [],
          "name": "getAllPoolIds",
          "outputs": [
            {
              "internalType": "string[]",
              "name": "",
              "type": "string[]"
            }
          ],
          "stateMutability": "view",
          "type": "function"
        },
        {
          "inputs": [
            {
              "internalType": "string",
              "name": "poolId",
              "type": "string"
            },
            {
              "internalType": "address",
              "name": "beneficiary",
              "type": "address"
            }
          ],
          "name": "getBeneficiary",
          "outputs": [
            {
              "components": [
                {
                  "internalType": "uint256",
                  "name": "nullifier",
                  "type": "uint256"
                },
                {
                  "internalType": "uint256",
                  "name": "userIdentifier",
                  "type": "uint256"
                },
                {
                  "internalType": "address",
                  "name": "walletAddress",
                  "type": "address"
                },
                {
                  "internalType": "uint256",
                  "name": "amount",
                  "type": "uint256"
                },
                {
                  "internalType": "uint256",
                  "name": "timestamp",
                  "type": "uint256"
                }
              ],
              "internalType": "struct ReliefPools.Beneficiary",
              "name": "",
              "type": "tuple"
            }
          ],
          "stateMutability": "view",
          "type": "function"
        },
        {
          "inputs": [],
          "name": "getContractBalance",
          "outputs": [
            {
              "internalType": "uint256",
              "name": "",
              "type": "uint256"
            }
          ],
          "stateMutability": "view",
          "type": "function"
        },
        {
          "inputs": [
            {
              "internalType": "string",
              "name": "poolId",
              "type": "string"
            },
            {
              "internalType": "address",
              "name": "donor",
              "type": "address"
            }
          ],
          "name": "getDonor",
          "outputs": [
            {
              "components": [
                {
                  "internalType": "uint256",
                  "name": "id",
                  "type": "uint256"
                },
                {
                  "internalType": "address",
                  "name": "walletAddress",
                  "type": "address"
                },
                {
                  "internalType": "uint256",
                  "name": "amount",
                  "type": "uint256"
                },
                {
                  "internalType": "uint256",
                  "name": "timestamp",
                  "type": "uint256"
                },
                {
                  "internalType": "bool",
                  "name": "isCrossChain",
                  "type": "bool"
                },
                {
                  "internalType": "uint32",
                  "name": "sourceDomain",
                  "type": "uint32"
                },
                {
                  "internalType": "string",
                  "name": "location",
                  "type": "string"
                }
              ],
              "internalType": "struct ReliefPools.Donor",
              "name": "",
              "type": "tuple"
            }
          ],
          "stateMutability": "view",
          "type": "function"
        },
        {
          "inputs": [
            {
              "internalType": "uint256",
              "name": "userIdentifier",
              "type": "uint256"
            }
          ],
          "name": "getPersonClaimedPools",
          "outputs": [
            {
              "internalType": "string[]",
              "name": "",
              "type": "string[]"
            }
          ],
          "stateMutability": "view",
          "type": "function"
        },
        {
          "inputs": [
            {
              "internalType": "uint256",
              "name": "index",
              "type": "uint256"
            }
          ],
          "name": "getPoolIdByIndex",
          "outputs": [
            {
              "internalType": "string",
              "name": "",
              "type": "string"
            }
          ],
          "stateMutability": "view",
          "type": "function"
        },
        {
          "inputs": [
            {
              "internalType": "string",
              "name": "poolId",
              "type": "string"
            }
          ],
          "name": "getReliefPool",
          "outputs": [
            {
              "components": [
                {
                  "internalType": "string",
                  "name": "id",
                  "type": "string"
                },
                {
                  "internalType": "enum ReliefPools.DisasterTypeEnum",
                  "name": "disasterType",
                  "type": "uint8"
                },
                {
                  "internalType": "enum ReliefPools.ClassificationEnum",
                  "name": "classification",
                  "type": "uint8"
                },
                {
                  "internalType": "string",
                  "name": "nationalityRequired",
                  "type": "string"
                },
                {
                  "internalType": "uint256",
                  "name": "allocatedFundsPerPerson",
                  "type": "uint256"
                },
                {
                  "internalType": "uint256",
                  "name": "totalBeneficiaries",
                  "type": "uint256"
                },
                {
                  "internalType": "uint256",
                  "name": "totalDonors",
                  "type": "uint256"
                },
                {
                  "internalType": "uint256",
                  "name": "totalAmountClaimed",
                  "type": "uint256"
                },
                {
                  "internalType": "uint256",
                  "name": "totalAmountDonated",
                  "type": "uint256"
                },
                {
                  "internalType": "bool",
                  "name": "isActive",
                  "type": "bool"
                }
              ],
              "internalType": "struct ReliefPools.ReliefPool",
              "name": "",
              "type": "tuple"
            }
          ],
          "stateMutability": "view",
          "type": "function"
        },
        {
          "inputs": [],
          "name": "getTotalPools",
          "outputs": [
            {
              "internalType": "uint256",
              "name": "",
              "type": "uint256"
            }
          ],
          "stateMutability": "view",
          "type": "function"
        },
        {
          "inputs": [
            {
              "internalType": "uint32",
              "name": "sourceDomain",
              "type": "uint32"
            },
            {
              "internalType": "bytes32",
              "name": "sender",
              "type": "bytes32"
            },
            {
              "internalType": "uint32",
              "name": "finalityThresholdExecuted",
              "type": "uint32"
            },
            {
              "internalType": "bytes",
              "name": "messageBody",
              "type": "bytes"
            }
          ],
          "name": "handleReceiveFinalizedMessage",
          "outputs": [
            {
              "internalType": "bool",
              "name": "",
              "type": "bool"
            }
          ],
          "stateMutability": "nonpayable",
          "type": "function"
        },
        {
          "inputs": [
            {
              "internalType": "uint32",
              "name": "sourceDomain",
              "type": "uint32"
            },
            {
              "internalType": "bytes32",
              "name": "sender",
              "type": "bytes32"
            },
            {
              "internalType": "uint32",
              "name": "finalityThresholdExecuted",
              "type": "uint32"
            },
            {
              "internalType": "bytes",
              "name": "messageBody",
              "type": "bytes"
            }
          ],
          "name": "handleReceiveUnfinalizedMessage",
          "outputs": [
            {
              "internalType": "bool",
              "name": "",
              "type": "bool"
            }
          ],
          "stateMutability": "nonpayable",
          "type": "function"
        },
        {
          "inputs": [
            {
              "internalType": "string",
              "name": "",
              "type": "string"
            },
            {
              "internalType": "uint256",
              "name": "",
              "type": "uint256"
            }
          ],
          "name": "hasPersonClaimedFromPool",
          "outputs": [
            {
              "internalType": "bool",
              "name": "",
              "type": "bool"
            }
          ],
          "stateMutability": "view",
          "type": "function"
        },
        {
          "inputs": [],
          "name": "owner",
          "outputs": [
            {
              "internalType": "address",
              "name": "",
              "type": "address"
            }
          ],
          "stateMutability": "view",
          "type": "function"
        },
        {
          "inputs": [
            {
              "internalType": "uint256",
              "name": "",
              "type": "uint256"
            },
            {
              "internalType": "uint256",
              "name": "",
              "type": "uint256"
            }
          ],
          "name": "personClaimedPools",
          "outputs": [
            {
              "internalType": "string",
              "name": "",
              "type": "string"
            }
          ],
          "stateMutability": "view",
          "type": "function"
        },
        {
          "inputs": [
            {
              "internalType": "string",
              "name": "",
              "type": "string"
            },
            {
              "internalType": "address",
              "name": "",
              "type": "address"
            }
          ],
          "name": "poolBeneficiaries",
          "outputs": [
            {
              "internalType": "uint256",
              "name": "nullifier",
              "type": "uint256"
            },
            {
              "internalType": "uint256",
              "name": "userIdentifier",
              "type": "uint256"
            },
            {
              "internalType": "address",
              "name": "walletAddress",
              "type": "address"
            },
            {
              "internalType": "uint256",
              "name": "amount",
              "type": "uint256"
            },
            {
              "internalType": "uint256",
              "name": "timestamp",
              "type": "uint256"
            }
          ],
          "stateMutability": "view",
          "type": "function"
        },
        {
          "inputs": [
            {
              "internalType": "string",
              "name": "",
              "type": "string"
            },
            {
              "internalType": "address",
              "name": "",
              "type": "address"
            }
          ],
          "name": "poolDonors",
          "outputs": [
            {
              "internalType": "uint256",
              "name": "id",
              "type": "uint256"
            },
            {
              "internalType": "address",
              "name": "walletAddress",
              "type": "address"
            },
            {
              "internalType": "uint256",
              "name": "amount",
              "type": "uint256"
            },
            {
              "internalType": "uint256",
              "name": "timestamp",
              "type": "uint256"
            },
            {
              "internalType": "bool",
              "name": "isCrossChain",
              "type": "bool"
            },
            {
              "internalType": "uint32",
              "name": "sourceDomain",
              "type": "uint32"
            },
            {
              "internalType": "string",
              "name": "location",
              "type": "string"
            }
          ],
          "stateMutability": "view",
          "type": "function"
        },
        {
          "inputs": [
            {
              "internalType": "uint256",
              "name": "",
              "type": "uint256"
            }
          ],
          "name": "poolIds",
          "outputs": [
            {
              "internalType": "string",
              "name": "",
              "type": "string"
            }
          ],
          "stateMutability": "view",
          "type": "function"
        },
        {
          "inputs": [
            {
              "internalType": "string",
              "name": "",
              "type": "string"
            }
          ],
          "name": "reliefPools",
          "outputs": [
            {
              "internalType": "string",
              "name": "id",
              "type": "string"
            },
            {
              "internalType": "enum ReliefPools.DisasterTypeEnum",
              "name": "disasterType",
              "type": "uint8"
            },
            {
              "internalType": "enum ReliefPools.ClassificationEnum",
              "name": "classification",
              "type": "uint8"
            },
            {
              "internalType": "string",
              "name": "nationalityRequired",
              "type": "string"
            },
            {
              "internalType": "uint256",
              "name": "allocatedFundsPerPerson",
              "type": "uint256"
            },
            {
              "internalType": "uint256",
              "name": "totalBeneficiaries",
              "type": "uint256"
            },
            {
              "internalType": "uint256",
              "name": "totalDonors",
              "type": "uint256"
            },
            {
              "internalType": "uint256",
              "name": "totalAmountClaimed",
              "type": "uint256"
            },
            {
              "internalType": "uint256",
              "name": "totalAmountDonated",
              "type": "uint256"
            },
            {
              "internalType": "bool",
              "name": "isActive",
              "type": "bool"
            }
          ],
          "stateMutability": "view",
          "type": "function"
        },
        {
          "inputs": [],
          "name": "renounceOwnership",
          "outputs": [],
          "stateMutability": "nonpayable",
          "type": "function"
        },
        {
          "inputs": [
            {
              "internalType": "address",
              "name": "_cctpMessageTransmitter",
              "type": "address"
            }
          ],
          "name": "setCCTPMessageTransmitter",
          "outputs": [],
          "stateMutability": "nonpayable",
          "type": "function"
        },
        {
          "inputs": [
            {
              "internalType": "string",
              "name": "poolId",
              "type": "string"
            }
          ],
          "name": "togglePoolStatus",
          "outputs": [],
          "stateMutability": "nonpayable",
          "type": "function"
        },
        {
          "inputs": [
            {
              "internalType": "address",
              "name": "newOwner",
              "type": "address"
            }
          ],
          "name": "transferOwnership",
          "outputs": [],
          "stateMutability": "nonpayable",
          "type": "function"
        },
        {
          "inputs": [],
          "name": "usdcToken",
          "outputs": [
            {
              "internalType": "contract IERC20",
              "name": "",
              "type": "address"
            }
          ],
          "stateMutability": "view",
          "type": "function"
        },
        {
          "inputs": [
            {
              "internalType": "uint256",
              "name": "nullifier",
              "type": "uint256"
            },
            {
              "internalType": "uint256",
              "name": "userIdentifier",
              "type": "uint256"
            },
            {
              "internalType": "string",
              "name": "nationality",
              "type": "string"
            },
            {
              "internalType": "uint256",
              "name": "timestamp",
              "type": "uint256"
            },
            {
              "internalType": "bytes",
              "name": "adminSignature",
              "type": "bytes"
            }
          ],
          "name": "verifyAdminSignature",
          "outputs": [
            {
              "internalType": "bool",
              "name": "",
              "type": "bool"
            }
          ],
          "stateMutability": "view",
          "type": "function"
        }
      ],
      "evm": {
        "bytecode": {
          "linkReferences": {},
          "object": "60c06040523480156200001157600080fd5b506040516200420b3803806200420b8339810160408190526200003491620002d6565b6000620000406200019c565b600080546001600160a01b0319166001600160a01b038316908117825560405192935091600080516020620041eb833981519152908290a350600180546001600160a01b038086166001600160a01b0319928316179092556001600160601b0319606085901b166080526002805492841692909116919091179055620000c633620001a0565b604080518082018252600b81526a52656c696566506f6f6c7360a81b6020918201528151808301835260018152603160f81b90820152905162000177917f8b73c3c69bb8fe3d512ecc4cf759cc79239f7b179b0ffacaa9a75d522b39400f917f3323a8070b7081e28ca423d850c49e17147e941af41daf0ad176ecf1a5481b67917fc89efdaa54c0f20c7adf612882df0950f5a951637e0307cdcb4c672f298b8bc69162014a34913091016200031f565b60408051601f19818403018152919052805160209091012060a0525062000350915050565b3390565b620001aa6200019c565b6001600160a01b0316620001bd620002aa565b6001600160a01b03161462000219576040805162461bcd60e51b815260206004820181905260248201527f4f776e61626c653a2063616c6c6572206973206e6f7420746865206f776e6572604482015290519081900360640190fd5b6001600160a01b038116620002605760405162461bcd60e51b8152600401808060200182810382526026815260200180620041c56026913960400191505060405180910390fd5b600080546040516001600160a01b0380851693921691600080516020620041eb83398151915291a3600080546001600160a01b0319166001600160a01b0392909216919091179055565b6000546001600160a01b031690565b80516001600160a01b0381168114620002d157600080fd5b919050565b600080600060608486031215620002eb578283fd5b620002f684620002b9565b92506200030660208501620002b9565b91506200031660408501620002b9565b90509250925092565b9485526020850193909352604084019190915262ffffff1660608301526001600160a01b0316608082015260a00190565b60805160601c60a051613e306200039560003980610d1c52806122485250806105fa52806107cf52806108625280610db15280610ea052806118fb5250613e306000f3fe608060405234801561001057600080fd5b50600436106101e55760003560e01c80638bbd58e21161010f578063d3ffe67a116100a2578063f2fde38b11610071578063f2fde38b14610440578063f6ab087214610453578063fc6f946814610466578063feb165321461046e576101e5565b8063d3ffe67a146103f4578063d697d231146103fc578063d9db6e0314610425578063f19c3d5b14610438576101e5565b80639605cfe5116100de5780639605cfe514610388578063aa62e312146103ae578063b2396e6c146103ce578063b9adb2f7146103e1576101e5565b80638bbd58e2146103525780638be55456146103655780638c73eb04146103785780638da5cb5b14610380576101e5565b80633644e51511610187578063715018a611610156578063715018a6146102f75780637332cec4146102ff578063734123c41461031f5780637c92f2191461033f576101e5565b80633644e515146102b45780635312ea8e146102c957806369883b4e146102dc5780636f9fb98a146102ef576101e5565b80631223310a116101c35780631223310a1461023d5780631376938d1461026157806320de75921461028157806321050edc146102a1576101e5565b80630e0b8c8b146101ea57806311cffb67146101ff57806311eac85514610228575b600080fd5b6101fd6101f83660046132ab565b610481565b005b61021261020d36600461341a565b610855565b60405161021f9190613615565b60405180910390f35b610230610860565b60405161021f91906135a1565b61025061024b3660046130b9565b610884565b60405161021f959493929190613b9f565b61027461026f3660046130b9565b6108d8565b60405161021f91906139e9565b61029461028f366004613338565b610952565b60405161021f919061364c565b6102946102af366004613105565b610a1e565b6102bc610d1a565b60405161021f9190613620565b6101fd6102d7366004613338565b610d3e565b6102946102ea366004613338565b610ddd565b6102bc610e86565b6101fd610f2a565b61031261030d366004613338565b610fd6565b60405161021f91906135b5565b61033261032d366004613086565b6110c1565b60405161021f9190613a8f565b61021261034d36600461341a565b6112ac565b6102126103603660046131fe565b61159e565b610212610373366004613389565b6115d6565b6102306115ef565b6102306115fe565b61039b6103963660046130b9565b61160d565b60405161021f9796959493929190613b4b565b6103c16103bc3660046130b9565b6116ff565b60405161021f9190613a27565b6102126103dc3660046131fe565b611825565b6101fd6103ef366004613241565b611855565b6102bc611a77565b61040f61040a366004613086565b611a7d565b60405161021f9a999897969594939291906136b1565b6101fd61043336600461306c565b611bfb565b610312611c7f565b6101fd61044e36600461306c565b611d57565b6101fd610461366004613086565b611e59565b610230611f7f565b61029461047c366004613368565b611f8e565b6001546001600160a01b031633146104b45760405162461bcd60e51b81526004016104ab9061388b565b60405180910390fd5b60006004876040516104c6919061356a565b9081526040519081900360200190208054909150600260001961010060018416150201909116046105095760405162461bcd60e51b81526004016104ab90613866565b600881015460ff1661052d5760405162461bcd60e51b81526004016104ab906138f1565b60078760405161053d919061356a565b90815260408051602092819003830190206000898152925290205460ff16156105785760405162461bcd60e51b81526004016104ab90613917565b6001600160a01b03821661059e5760405162461bcd60e51b81526004016104ab9061383c565b806002016040516105af91906134fa565b60405180910390208480519060200120146105dc5760405162461bcd60e51b81526004016104ab906137bc565b60038101546040516370a0823160e01b815281906001600160a01b037f000000000000000000000000000000000000000000000000000000000000000016906370a082319061062f9030906004016135a1565b60206040518083038186803b15801561064757600080fd5b505afa15801561065b573d6000803e3d6000fd5b505050506040513d601f19601f8201168201806040525081019061067f9190613350565b101561069d5760405162461bcd60e51b81526004016104ab9061393f565b6004820180546001019055600682018054820190556040805160a081018252888152602081018890526001600160a01b038516818301526060810183905242608082015290516005906106f1908b9061356a565b90815260408051602092819003830181206001600160a01b038881166000908152918552908390208551815593850151600180860191909155928501516002850180546001600160a01b03191691909216179055606084015160038401556080909301516004909201919091559060079061076d908b9061356a565b908152604080516020928190038301902060008b8152908352818120805460ff1916941515949094179093556008825282208054600181018255908352918190208a516107c19391909101918b0190612e24565b506107f66001600160a01b037f0000000000000000000000000000000000000000000000000000000000000000168483612012565b826001600160a01b0316336001600160a01b03167fcc59a4e18e6f0351e0f31e360ecbcc26cf0c96431bdf1cf16bade89f8ac1bf288a8a8a8a874260405161084396959493929190613775565b60405180910390a35050505050505050565b600195945050505050565b7f000000000000000000000000000000000000000000000000000000000000000081565b81516020818401810180516005825292820194820194909420919093529091526000908152604090208054600182015460028301546003840154600490940154929391926001600160a01b03909116919085565b6108e0612eb0565b6005836040516108f0919061356a565b90815260408051602092819003830181206001600160a01b03958616600090815290845282902060a082018352805482526001810154938201939093526002830154909416908401526003810154606084015260040154608083015250919050565b60035460609082106109765760405162461bcd60e51b81526004016104ab90613995565b6003828154811061098357fe5b600091825260209182902001805460408051601f6002600019610100600187161502019094169390930492830185900485028101850190915281815292830182828015610a115780601f106109e657610100808354040283529160200191610a11565b820191906000526020600020905b8154815290600101906020018083116109f457829003601f168201915b505050505090505b919050565b6060610a28612069565b6001600160a01b0316610a396115fe565b6001600160a01b031614610a82576040805162461bcd60e51b81526020600482018190526024820152600080516020613cef833981519152604482015290519081900360640190fd5b6000865111610aa35760405162461bcd60e51b81526004016104ab906139c2565b6000835111610ac45760405162461bcd60e51b81526004016104ab906137e9565b60008211610ae45760405162461bcd60e51b81526004016104ab90613815565b600486604051610af4919061356a565b908152604051908190036020019020546002600019610100600184161502019091160415610b345760405162461bcd60e51b81526004016104ab9061396a565b604051806101400160405280878152602001866003811115610b5257fe5b8152602001856001811115610b6357fe5b81526020018481526020018381526020016000815260200160008152602001600081526020016000815260200160011515815250600487604051610ba7919061356a565b90815260200160405180910390206000820151816000019080519060200190610bd1929190612e24565b50602082015160018083018054909160ff1990911690836003811115610bf357fe5b021790555060408201518160010160016101000a81548160ff02191690836001811115610c1c57fe5b021790555060608201518051610c3c916002840191602090910190612e24565b50608082015160038281019190915560a0830151600483015560c0830151600583015560e083015160068301556101008301516007830155610120909201516008909101805460ff191691151591909117905580546001810182556000919091528651610cd0917fc2575a0e9e593c00f959f8c92f12db2869c3395a3b0502d05e2516446f71f85b01906020890190612e24565b507fc1b4f0f8efc094dd344251b2bf8367c35e8e32dddf97390f50d27f2f4e2fe21a8686868686604051610d0895949392919061365f565b60405180910390a15093949350505050565b7f000000000000000000000000000000000000000000000000000000000000000081565b610d46612069565b6001600160a01b0316610d576115fe565b6001600160a01b031614610da0576040805162461bcd60e51b81526020600482018190526024820152600080516020613cef833981519152604482015290519081900360640190fd5b600154610dda906001600160a01b037f00000000000000000000000000000000000000000000000000000000000000008116911683612012565b50565b60038181548110610ded57600080fd5b600091825260209182902001805460408051601f6002600019610100600187161502019094169390930492830185900485028101850190915281815293509091830182828015610e7e5780601f10610e5357610100808354040283529160200191610e7e565b820191906000526020600020905b815481529060010190602001808311610e6157829003601f168201915b505050505081565b6040516370a0823160e01b81526000906001600160a01b037f000000000000000000000000000000000000000000000000000000000000000016906370a0823190610ed59030906004016135a1565b60206040518083038186803b158015610eed57600080fd5b505afa158015610f01573d6000803e3d6000fd5b505050506040513d601f19601f82011682018060405250810190610f259190613350565b905090565b610f32612069565b6001600160a01b0316610f436115fe565b6001600160a01b031614610f8c576040805162461bcd60e51b81526020600482018190526024820152600080516020613cef833981519152604482015290519081900360640190fd5b600080546040516001600160a01b03909116907f8be0079c531659141344cd1fd0a4f28419497f9722a3daafe3b4186f6b6457e0908390a3600080546001600160a01b0319169055565b606060086000838152602001908152602001600020805480602002602001604051908101604052809291908181526020016000905b828210156110b65760008481526020908190208301805460408051601f60026000196101006001871615020190941693909304928301859004850281018501909152818152928301828280156110a25780601f10611077576101008083540402835291602001916110a2565b820191906000526020600020905b81548152906001019060200180831161108557829003601f168201915b50505050508152602001906001019061100b565b505050509050919050565b6110c9612ee8565b6004826040516110d9919061356a565b9081526040805160209281900383018120805460026001821615610100026000190190911604601f8101859004909402820161016090810190935261014082018481529193909284929184918401828280156111765780601f1061114b57610100808354040283529160200191611176565b820191906000526020600020905b81548152906001019060200180831161115957829003601f168201915b5050509183525050600182015460209091019060ff16600381111561119757fe5b60038111156111a257fe5b81526020016001820160019054906101000a900460ff1660018111156111c457fe5b60018111156111cf57fe5b8152600282810180546040805160206001841615610100026000190190931694909404601f8101839004830285018301909152808452938101939083018282801561125b5780601f106112305761010080835404028352916020019161125b565b820191906000526020600020905b81548152906001019060200180831161123e57829003601f168201915b505050918352505060038201546020820152600482015460408201526005820154606082015260068201546080820152600782015460a082015260089091015460ff16151560c09091015292915050565b6000806112f3600085858080601f016020809104026020016040519081016040528093929190818152602001838380828437600092019190915250929392505061206d9050565b905061130462ffffff198216612091565b600061131562ffffff198316612152565b9050600061132862ffffff19831661218a565b6001600160601b03161161134e5760405162461bcd60e51b81526004016104ab906138c2565b60008061136062ffffff198416612199565b806020019051810190611373919061319d565b9150915060006113888562ffffff19166121d8565b9050600060048460405161139c919061356a565b9081526040519081900360200190208054909150600260001961010060018416150201909116046113df5760405162461bcd60e51b81526004016104ab90613866565b600881015460ff166114035760405162461bcd60e51b81526004016104ab906138f1565b600082116114235760405162461bcd60e51b81526004016104ab90613815565b600581018054600190810191829055600783018054850190556040805160e0810182529283526001600160a01b038e166020840152828101859052426060840152608083019190915263ffffffff8e1660a083015260c08201859052518c919060069061149190889061356a565b90815260408051602092819003830190206001600160a01b0385811660009081529184529082902084518155848401516001820180546001600160a01b031916919093161790915590830151600282015560608301516003820155608083015160048201805460a086015160ff199091169215159290921764ffffffff00191661010063ffffffff9093169290920291909117905560c08301518051919261154192600585019290910190612e24565b50905050806001600160a01b03167fac9f2e8dfe0227cfbb82fc983a4b15e8352a7558d2688723e679f4bc157a2672868f86428960405161158695949392919061372c565b60405180910390a25050505050505095945050505050565b60006007836040516115b0919061356a565b908152604080516020928190038301902060009485529091529091205460ff1692915050565b60006115e586868686866121e9565b9695505050505050565b6002546001600160a01b031681565b6000546001600160a01b031690565b8151602081840181018051600682529282019482019490942091909352825260009081526040908190208054600180830154600280850154600386015460048701546005880180548a516101009882161589026000190190911695909504601f81018c90048c0286018c01909a5289855296996001600160a01b03909516989297919660ff82169690910463ffffffff169491939290918301828280156116f55780601f106116ca576101008083540402835291602001916116f5565b820191906000526020600020905b8154815290600101906020018083116116d857829003601f168201915b5050505050905087565b611707612f3e565b600683604051611717919061356a565b9081526040805191829003602090810183206001600160a01b0380871660009081529183529083902060e08501845280548552600180820154909216858401526002808201548686015260038201546060870152600482015460ff81161515608088015263ffffffff610100918290041660a08801526005830180548751601f60001997831615909402969096011692909204908101859004850284018501909552848352909360c08601938301828280156118145780601f106117e957610100808354040283529160200191611814565b820191906000526020600020905b8154815290600101906020018083116117f757829003601f168201915b505050505081525050905092915050565b81516020818401810180516007825292820194820194909420919093529091526000908152604090205460ff1681565b6000600484604051611867919061356a565b9081526040519081900360200190208054909150600260001961010060018416150201909116046118aa5760405162461bcd60e51b81526004016104ab90613866565b600881015460ff166118ce5760405162461bcd60e51b81526004016104ab906138f1565b600083116118ee5760405162461bcd60e51b81526004016104ab90613815565b6119236001600160a01b037f0000000000000000000000000000000000000000000000000000000000000000163330866122bd565b60058101805460010190819055600782018054850190556040805160e08101825291825233602083015281810185905242606083015260006080830152600660a0830181905260c08301859052905161197d90879061356a565b908152604080516020928190038301902033600090815290835281902083518155838301516001820180546001600160a01b0319166001600160a01b0390921691909117905590830151600282015560608301516003820155608083015160048201805460a086015160ff199091169215159290921764ffffffff00191661010063ffffffff9093169290920291909117905560c083015180519192611a2b92600585019290910190612e24565b50506040513391507fac9f2e8dfe0227cfbb82fc983a4b15e8352a7558d2688723e679f4bc157a267290611a6990879060069088904290899061372c565b60405180910390a250505050565b60035490565b805160208183018101805160048252928201938201939093209190925280546040805160026001841615610100026000190190931692909204601f8101859004850283018501909152808252919290918391830182828015611b205780601f10611af557610100808354040283529160200191611b20565b820191906000526020600020905b815481529060010190602001808311611b0357829003601f168201915b50505050600183810154600280860180546040805160206101009784161588026000190190931694909404601f8101839004830285018301909152808452969760ff8086169896909504909416955092939192909190830182828015611bc75780601f10611b9c57610100808354040283529160200191611bc7565b820191906000526020600020905b815481529060010190602001808311611baa57829003601f168201915b5050506003840154600485015460058601546006870154600788015460089098015496979396929550909350919060ff168a565b611c03612069565b6001600160a01b0316611c146115fe565b6001600160a01b031614611c5d576040805162461bcd60e51b81526020600482018190526024820152600080516020613cef833981519152604482015290519081900360640190fd5b600280546001600160a01b0319166001600160a01b0392909216919091179055565b60606003805480602002602001604051908101604052809291908181526020016000905b82821015611d4e5760008481526020908190208301805460408051601f6002600019610100600187161502019094169390930492830185900485028101850190915281815292830182828015611d3a5780601f10611d0f57610100808354040283529160200191611d3a565b820191906000526020600020905b815481529060010190602001808311611d1d57829003601f168201915b505050505081526020019060010190611ca3565b50505050905090565b611d5f612069565b6001600160a01b0316611d706115fe565b6001600160a01b031614611db9576040805162461bcd60e51b81526020600482018190526024820152600080516020613cef833981519152604482015290519081900360640190fd5b6001600160a01b038116611dfe5760405162461bcd60e51b8152600401808060200182810382526026815260200180613c3e6026913960400191505060405180910390fd5b600080546040516001600160a01b03808516939216917f8be0079c531659141344cd1fd0a4f28419497f9722a3daafe3b4186f6b6457e091a3600080546001600160a01b0319166001600160a01b0392909216919091179055565b611e61612069565b6001600160a01b0316611e726115fe565b6001600160a01b031614611ebb576040805162461bcd60e51b81526020600482018190526024820152600080516020613cef833981519152604482015290519081900360640190fd5b6000600482604051611ecd919061356a565b908152604051908190036020019020805490915060026000196101006001841615020190911604611f105760405162461bcd60e51b81526004016104ab90613866565b60088101805460ff19811660ff90911615179055604051611f3290839061356a565b604051908190038120600883015490917f0cf04787a730deff0c06f98fbbe7289eb4198e7df16426ba7734123ef2b06b7491611f739160ff90911690613615565b60405180910390a25050565b6001546001600160a01b031681565b60086020528160005260406000208181548110611faa57600080fd5b600091825260209182902001805460408051601f60026000196101006001871615020190941693909304928301859004850281018501909152818152945090925090830182828015610e7e5780601f10610e5357610100808354040283529160200191610e7e565b604080516001600160a01b038416602482015260448082018490528251808303909101815260649091019091526020810180516001600160e01b031663a9059cbb60e01b17905261206490849061231d565b505050565b3390565b81516000906020840161208864ffffffffff851682846123ce565b95945050505050565b6120a062ffffff198216612413565b6120e5576040805162461bcd60e51b81526020600482015260116024820152704d616c666f726d6564206d65737361676560781b604482015290519081900360640190fd5b60e46120f662ffffff19831661218a565b6001600160601b03161015610dda576040805162461bcd60e51b815260206004820152601f60248201527f496e76616c6964206275726e206d6573736167653a20746f6f2073686f727400604482015290519081900360640190fd5b600061218460e48061216962ffffff19861661218a565b62ffffff19861692916001600160601b039103166000612450565b92915050565b60181c6001600160601b031690565b60606000806121a78461218a565b6001600160601b0316905060405191508192506121c784836020016124c1565b508181016020016040529052919050565b600061218462ffffff1983166125fd565b6000807f5c64a8a74cfa7615128bcdfeee4695403156b321bc1f0f1dd1a0b09d3618731e878787805190602001208760405160200161222c959493929190613629565b60405160208183030381529060405280519060200120905060007f000000000000000000000000000000000000000000000000000000000000000082604051602001612279929190613586565b60408051601f1981840301815291905280516020909101209050600061229f8286612612565b6001546001600160a01b039081169116149998505050505050505050565b604080516001600160a01b0380861660248301528416604482015260648082018490528251808303909101815260849091019091526020810180516001600160e01b03166323b872dd60e01b17905261231790859061231d565b50505050565b6000612372826040518060400160405280602081526020017f5361666545524332303a206c6f772d6c6576656c2063616c6c206661696c6564815250856001600160a01b03166126889092919063ffffffff16565b8051909150156120645780806020019051602081101561239157600080fd5b50516120645760405162461bcd60e51b815260040180806020018281038252602a815260200180613d49602a913960400191505060405180910390fd5b6000806123db8484612697565b90506040518111156123eb575060005b806123fd5762ffffff1991505061240c565b6124088585856126f1565b9150505b9392505050565b600061241e82612704565b64ffffffffff1664ffffffffff141561243957506000610a19565b60006124448361270a565b60405110159392505050565b60008061245c8661272f565b6001600160601b031690506124708661270a565b6124848561247e8489612697565b90612697565b11156124975762ffffff199150506124b9565b6124a18186612697565b90506124b58364ffffffffff1682866123ce565b9150505b949350505050565b60006124cc8361273e565b6125075760405162461bcd60e51b8152600401808060200182810382526028815260200180613d736028913960400191505060405180910390fd5b61251083612413565b61254b5760405162461bcd60e51b815260040180806020018281038252602b815260200180613d9b602b913960400191505060405180910390fd5b60006125568461218a565b6001600160601b03169050600061256c8561272f565b6001600160601b0316905060008060405191508582111561258d5760206060fd5b8386858560045afa9050806125d8576040805162461bcd60e51b815260206004820152600c60248201526b6964656e74697479204f4f4760a01b604482015290519081900360640190fd5b6125f26125e488612704565b64ffffffffff1687866126f1565b979650505050505050565b600061218462ffffff19831660446020612750565b6000815160411461266a576040805162461bcd60e51b815260206004820152601f60248201527f45434453413a20696e76616c6964207369676e6174757265206c656e67746800604482015290519081900360640190fd5b60208201516040830151606084015160001a6115e586828585612771565b60606124b984846000856128e6565b60008282018381101561240c576040805162461bcd60e51b815260206004820152601b60248201527f536166654d6174683a206164646974696f6e206f766572666c6f770000000000604482015290519081900360640190fd5b606092831b9190911790911b1760181b90565b60d81c90565b60006127158261218a565b61271e8361272f565b016001600160601b03169050919050565b60781c6001600160601b031690565b600061274982612a36565b1592915050565b60008160200360080260ff16612767858585612a42565b901c949350505050565b60007f7fffffffffffffffffffffffffffffff5d576e7357a4501ddfe92f46681b20a08211156127d25760405162461bcd60e51b8152600401808060200182810382526022815260200180613c646022913960400191505060405180910390fd5b8360ff16601b14806127e757508360ff16601c145b6128225760405162461bcd60e51b8152600401808060200182810382526022815260200180613ccd6022913960400191505060405180910390fd5b600060018686868660405160008152602001604052604051808581526020018460ff1681526020018381526020018281526020019450505050506020604051602081039080840390855afa15801561287e573d6000803e3d6000fd5b5050604051601f1901519150506001600160a01b038116612088576040805162461bcd60e51b815260206004820152601860248201527f45434453413a20696e76616c6964207369676e61747572650000000000000000604482015290519081900360640190fd5b6060824710156129275760405162461bcd60e51b8152600401808060200182810382526026815260200180613c866026913960400191505060405180910390fd5b61293085612ba5565b612981576040805162461bcd60e51b815260206004820152601d60248201527f416464726573733a2063616c6c20746f206e6f6e2d636f6e7472616374000000604482015290519081900360640190fd5b600080866001600160a01b031685876040518082805190602001908083835b602083106129bf5780518252601f1990920191602091820191016129a0565b6001836020036101000a03801982511681845116808217855250505050505090500191505060006040518083038185875af1925050503d8060008114612a21576040519150601f19603f3d011682016040523d82523d6000602084013e612a26565b606091505b50915091506125f2828286612bab565b62ffffff199081161490565b600060ff8216612a545750600061240c565b612a5d8461218a565b6001600160601b0316612a738460ff8516612697565b1115612b2e57612aaa612a858561272f565b6001600160601b0316612a978661218a565b6001600160601b0316858560ff16612c11565b60405162461bcd60e51b81526004018080602001828103825283818151815260200191508051906020019080838360005b83811015612af3578181015183820152602001612adb565b50505050905090810190601f168015612b205780820380516001836020036101000a031916815260200191505b509250505060405180910390fd5b60208260ff161115612b715760405162461bcd60e51b815260040180806020018281038252603a815260200180613d0f603a913960400191505060405180910390fd5b600882026000612b808661272f565b6001600160601b031690506000612b9683612d04565b91909501511695945050505050565b3b151590565b60608315612bba57508161240c565b825115612bca5782518084602001fd5b60405162461bcd60e51b8152602060048201818152845160248401528451859391928392604401919085019080838360008315612af3578181015183820152602001612adb565b60606000612c1e86612d13565b9150506000612c2c86612d13565b9150506000612c3a86612d13565b9150506000612c4886612d13565b915050838383836040516020018080613dc6603591396001600160d01b031960d087811b821660358401526e040eed2e8d040d8cadccee8d04060f608b1b603b84015286901b16604a8201526050016021613cac82396001600160d01b031960d094851b811660218301526e040eed2e8d040d8cadccee8d04060f608b1b60278301529290931b909116603683015250601760f91b603c82015260408051601d818403018152603d90920190529b9a5050505050505050505050565b600160ff1b6000199091011d90565b600080601f5b600f8160ff161115612d5d5760ff600882021684901c612d3881612dab565b61ffff16841793508160ff16601014612d5357601084901b93505b5060001901612d19565b50600f5b60ff8160ff161015612da55760ff600882021684901c612d8081612dab565b61ffff16831792508160ff16600014612d9b57601083901b92505b5060001901612d61565b50915091565b6000612dbd60048360ff16901c612ddb565b60ff161760081b62ffff0016612dd282612ddb565b60ff1617919050565b6040805180820190915260108082526f181899199a1a9b1b9c1cb0b131b232b360811b6020830152600091600f84169182908110612e1557fe5b016020015160f81c9392505050565b828054600181600116156101000203166002900490600052602060002090601f016020900481019282612e5a5760008555612ea0565b82601f10612e7357805160ff1916838001178555612ea0565b82800160010185558215612ea0579182015b82811115612ea0578251825591602001919060010190612e85565b50612eac929150612f8c565b5090565b6040518060a00160405280600081526020016000815260200160006001600160a01b0316815260200160008152602001600081525090565b604080516101408101909152606081526020810160008152602001600081526020016060815260200160008152602001600081526020016000815260200160008152602001600081526020016000151581525090565b6040518060e001604052806000815260200160006001600160a01b031681526020016000815260200160008152602001600015158152602001600063ffffffff168152602001606081525090565b5b80821115612eac5760008155600101612f8d565b6000612fb4612faf84613bef565b613bcb565b9050828152838383011115612fc857600080fd5b828260208301376000602084830101529392505050565b80356001600160a01b0381168114610a1957600080fd5b600082601f830112613006578081fd5b61240c83833560208501612fa1565b600082601f830112613025578081fd5b8151613033612faf82613bef565b818152846020838601011115613047578283fd5b6124b9826020830160208701613c11565b803563ffffffff81168114610a1957600080fd5b60006020828403121561307d578081fd5b61240c82612fdf565b600060208284031215613097578081fd5b813567ffffffffffffffff8111156130ad578182fd5b6124b984828501612ff6565b600080604083850312156130cb578081fd5b823567ffffffffffffffff8111156130e1578182fd5b6130ed85828601612ff6565b9250506130fc60208401612fdf565b90509250929050565b600080600080600060a0868803121561311c578081fd5b853567ffffffffffffffff80821115613133578283fd5b61313f89838a01612ff6565b96506020880135915060048210613154578283fd5b90945060408701359060028210613169578283fd5b9093506060870135908082111561317e578283fd5b5061318b88828901612ff6565b95989497509295608001359392505050565b600080604083850312156131af578182fd5b825167ffffffffffffffff808211156131c6578384fd5b6131d286838701613015565b935060208501519150808211156131e7578283fd5b506131f485828601613015565b9150509250929050565b60008060408385031215613210578182fd5b823567ffffffffffffffff811115613226578283fd5b61323285828601612ff6565b95602094909401359450505050565b600080600060608486031215613255578283fd5b833567ffffffffffffffff8082111561326c578485fd5b61327887838801612ff6565b9450602086013593506040860135915080821115613294578283fd5b506132a186828701612ff6565b9150509250925092565b60008060008060008060c087890312156132c3578081fd5b863567ffffffffffffffff808211156132da578283fd5b6132e68a838b01612ff6565b975060208901359650604089013595506060890135915080821115613309578283fd5b5061331689828a01612ff6565b9350506080870135915061332c60a08801612fdf565b90509295509295509295565b600060208284031215613349578081fd5b5035919050565b600060208284031215613361578081fd5b5051919050565b6000806040838503121561337a578182fd5b50508035926020909101359150565b600080600080600060a086880312156133a0578283fd5b8535945060208601359350604086013567ffffffffffffffff808211156133c5578485fd5b6133d189838a01612ff6565b94506060880135935060808801359150808211156133ed578283fd5b508601601f810188136133fe578182fd5b61340d88823560208401612fa1565b9150509295509295909350565b600080600080600060808688031215613431578283fd5b61343a86613058565b94506020860135935061344f60408701613058565b9250606086013567ffffffffffffffff8082111561346b578283fd5b818801915088601f83011261347e578283fd5b81358181111561348c578384fd5b89602082850101111561349d578384fd5b9699959850939650602001949392505050565b15159052565b600281106134c057fe5b9052565b600481106134c057fe5b600081518084526134e6816020860160208601613c11565b601f01601f19169290920160200192915050565b600080835460018082166000811461351957600181146135305761355f565b60ff198316865260028304607f168601935061355f565b600283048786526020808720875b838110156135575781548a82015290850190820161353e565b505050860193505b509195945050505050565b6000825161357c818460208701613c11565b9190910192915050565b61190160f01b81526002810192909252602282015260420190565b6001600160a01b0391909116815260200190565b6000602080830181845280855180835260408601915060408482028701019250838701855b8281101561360857603f198886030184526135f68583516134ce565b945092850192908501906001016135da565b5092979650505050505050565b901515815260200190565b90815260200190565b948552602085019390935260408401919091526060830152608082015260a00190565b60006020825261240c60208301846134ce565b600060a0825261367260a08301886134ce565b61367f60208401886134c4565b61368c60408401876134b6565b828103606084015261369e81866134ce565b9150508260808301529695505050505050565b60006101408083526136c58184018e6134ce565b90506136d4602084018d6134c4565b6136e1604084018c6134b6565b82810360608401526136f3818b6134ce565b6080840199909952505060a081019590955260c085019390935260e0840191909152610100830152151561012090910152949350505050565b600060a0825261373f60a08301886134ce565b63ffffffff87166020840152856040840152846060840152828103608084015261376981856134ce565b98975050505050505050565b600060c0825261378860c08301896134ce565b87602084015286604084015282810360608401526137a681876134ce565b6080840195909552505060a00152949350505050565b60208082526013908201527209cc2e8d2dedcc2d8d2e8f29ad2e6dac2e8c6d606b1b604082015260600190565b602080825260129082015271496e76616c69644e6174696f6e616c69747960701b604082015260600190565b6020808252600d908201526c125b9d985b1a59105b5bdd5b9d609a1b604082015260600190565b60208082526010908201526f125b9d985b1a59149958da5c1a595b9d60821b604082015260600190565b6020808252600b908201526a125b9d985b1a59141bdbdb60aa1b604082015260600190565b60208082526017908201527f556e617574686f72697a65643a204e6f742041646d696e000000000000000000604082015260600190565b602080825260159082015274139bc81a1bdbdac819185d18481c1c9bdd9a591959605a1b604082015260600190565b6020808252600c908201526b506f6f6c496e61637469766560a01b604082015260600190565b6020808252600e908201526d105b1c9958591e50db185a5b595960921b604082015260600190565b602080825260119082015270496e73756666696369656e7446756e647360781b604082015260600190565b602080825260119082015270506f6f6c416c726561647945786973747360781b604082015260600190565b602080825260139082015272496e646578206f7574206f6620626f756e647360681b604082015260600190565b6020808252600d908201526c125b9d985b1a59141bdbdb1259609a1b604082015260600190565b81518152602080830151908201526040808301516001600160a01b031690820152606080830151908201526080918201519181019190915260a00190565b6000602082528251602083015260018060a01b03602084015116604083015260408301516060830152606083015160808301526080830151151560a083015263ffffffff60a08401511660c083015260c083015160e0808401526124b96101008401826134ce565b6000602082528251610140806020850152613aae6101608501836134ce565b91506020850151613ac260408601826134c4565b506040850151613ad560608601826134b6565b506060850151848303601f19016080860152613af183826134ce565b925050608085015160a085015260a085015160c085015260c085015160e085015260e0850151610100818187015280870151915050610120818187015280870151915050613b41828601826134b0565b5090949350505050565b600088825260018060a01b0388166020830152866040830152856060830152841515608083015263ffffffff841660a083015260e060c0830152613b9260e08301846134ce565b9998505050505050505050565b94855260208501939093526001600160a01b039190911660408401526060830152608082015260a00190565b60405181810167ffffffffffffffff81118282101715613be757fe5b604052919050565b600067ffffffffffffffff821115613c0357fe5b50601f01601f191660200190565b60005b83811015613c2c578181015183820152602001613c14565b83811115612317575050600091015256fe4f776e61626c653a206e6577206f776e657220697320746865207a65726f206164647265737345434453413a20696e76616c6964207369676e6174757265202773272076616c7565416464726573733a20696e73756666696369656e742062616c616e636520666f722063616c6c2e20417474656d7074656420746f20696e646578206174206f666673657420307845434453413a20696e76616c6964207369676e6174757265202776272076616c75654f776e61626c653a2063616c6c6572206973206e6f7420746865206f776e657254797065644d656d566965772f696e646578202d20417474656d7074656420746f20696e646578206d6f7265207468616e2033322062797465735361666545524332303a204552433230206f7065726174696f6e20646964206e6f74207375636365656454797065644d656d566965772f636f7079546f202d204e756c6c20706f696e74657220646572656654797065644d656d566965772f636f7079546f202d20496e76616c696420706f696e74657220646572656654797065644d656d566965772f696e646578202d204f76657272616e2074686520766965772e20536c696365206973206174203078a2646970667358221220193fcfb876610d9ac08a40aff01a77adf2fd4ee091b2d5836598e1499e55913a64736f6c634300070600334f776e61626c653a206e6577206f776e657220697320746865207a65726f20616464726573738be0079c531659141344cd1fd0a4f28419497f9722a3daafe3b4186f6b6457e0",
          "opcodes": "PUSH1 0xC0 PUSH1 0x40 MSTORE CALLVALUE DUP1 ISZERO PUSH3 0x11 JUMPI PUSH1 0x0 DUP1 REVERT JUMPDEST POP PUSH1 0x40 MLOAD PUSH3 0x420B CODESIZE SUB DUP1 PUSH3 0x420B DUP4 CODECOPY DUP2 ADD PUSH1 0x40 DUP2 SWAP1 MSTORE PUSH3 0x34 SWAP2 PUSH3 0x2D6 JUMP JUMPDEST PUSH1 0x0 PUSH3 0x40 PUSH3 0x19C JUMP JUMPDEST PUSH1 0x0 DUP1 SLOAD PUSH1 0x1 PUSH1 0x1 PUSH1 0xA0 SHL SUB NOT AND PUSH1 0x1 PUSH1 0x1 PUSH1 0xA0 SHL SUB DUP4 AND SWAP1 DUP2 OR DUP3 SSTORE PUSH1 0x40 MLOAD SWAP3 SWAP4 POP SWAP2 PUSH1 0x0 DUP1 MLOAD PUSH1 0x20 PUSH3 0x41EB DUP4 CODECOPY DUP2 MLOAD SWAP2 MSTORE SWAP1 DUP3 SWAP1 LOG3 POP PUSH1 0x1 DUP1 SLOAD PUSH1 0x1 PUSH1 0x1 PUSH1 0xA0 SHL SUB DUP1 DUP7 AND PUSH1 0x1 PUSH1 0x1 PUSH1 0xA0 SHL SUB NOT SWAP3 DUP4 AND OR SWAP1 SWAP3 SSTORE PUSH1 0x1 PUSH1 0x1 PUSH1 0x60 SHL SUB NOT PUSH1 0x60 DUP6 SWAP1 SHL AND PUSH1 0x80 MSTORE PUSH1 0x2 DUP1 SLOAD SWAP3 DUP5 AND SWAP3 SWAP1 SWAP2 AND SWAP2 SWAP1 SWAP2 OR SWAP1 SSTORE PUSH3 0xC6 CALLER PUSH3 0x1A0 JUMP JUMPDEST PUSH1 0x40 DUP1 MLOAD DUP1 DUP3 ADD DUP3 MSTORE PUSH1 0xB DUP2 MSTORE PUSH11 0x52656C696566506F6F6C73 PUSH1 0xA8 SHL PUSH1 0x20 SWAP2 DUP3 ADD MSTORE DUP2 MLOAD DUP1 DUP4 ADD DUP4 MSTORE PUSH1 0x1 DUP2 MSTORE PUSH1 0x31 PUSH1 0xF8 SHL SWAP1 DUP3 ADD MSTORE SWAP1 MLOAD PUSH3 0x177 SWAP2 PUSH32 0x8B73C3C69BB8FE3D512ECC4CF759CC79239F7B179B0FFACAA9A75D522B39400F SWAP2 PUSH32 0x3323A8070B7081E28CA423D850C49E17147E941AF41DAF0AD176ECF1A5481B67 SWAP2 PUSH32 0xC89EFDAA54C0F20C7ADF612882DF0950F5A951637E0307CDCB4C672F298B8BC6 SWAP2 PUSH3 0x14A34 SWAP2 ADDRESS SWAP2 ADD PUSH3 0x31F JUMP JUMPDEST PUSH1 0x40 DUP1 MLOAD PUSH1 0x1F NOT DUP2 DUP5 SUB ADD DUP2 MSTORE SWAP2 SWAP1 MSTORE DUP1 MLOAD PUSH1 0x20 SWAP1 SWAP2 ADD KECCAK256 PUSH1 0xA0 MSTORE POP PUSH3 0x350 SWAP2 POP POP JUMP JUMPDEST CALLER SWAP1 JUMP JUMPDEST PUSH3 0x1AA PUSH3 0x19C JUMP JUMPDEST PUSH1 0x1 PUSH1 0x1 PUSH1 0xA0 SHL SUB AND PUSH3 0x1BD PUSH3 0x2AA JUMP JUMPDEST PUSH1 0x1 PUSH1 0x1 PUSH1 0xA0 SHL SUB AND EQ PUSH3 0x219 JUMPI PUSH1 0x40 DUP1 MLOAD PUSH3 0x461BCD PUSH1 0xE5 SHL DUP2 MSTORE PUSH1 0x20 PUSH1 0x4 DUP3 ADD DUP2 SWAP1 MSTORE PUSH1 0x24 DUP3 ADD MSTORE PUSH32 0x4F776E61626C653A2063616C6C6572206973206E6F7420746865206F776E6572 PUSH1 0x44 DUP3 ADD MSTORE SWAP1 MLOAD SWAP1 DUP2 SWAP1 SUB PUSH1 0x64 ADD SWAP1 REVERT JUMPDEST PUSH1 0x1 PUSH1 0x1 PUSH1 0xA0 SHL SUB DUP2 AND PUSH3 0x260 JUMPI PUSH1 0x40 MLOAD PUSH3 0x461BCD PUSH1 0xE5 SHL DUP2 MSTORE PUSH1 0x4 ADD DUP1 DUP1 PUSH1 0x20 ADD DUP3 DUP2 SUB DUP3 MSTORE PUSH1 0x26 DUP2 MSTORE PUSH1 0x20 ADD DUP1 PUSH3 0x41C5 PUSH1 0x26 SWAP2 CODECOPY PUSH1 0x40 ADD SWAP2 POP POP PUSH1 0x40 MLOAD DUP1 SWAP2 SUB SWAP1 REVERT JUMPDEST PUSH1 0x0 DUP1 SLOAD PUSH1 0x40 MLOAD PUSH1 0x1 PUSH1 0x1 PUSH1 0xA0 SHL SUB DUP1 DUP6 AND SWAP4 SWAP3 AND SWAP2 PUSH1 0x0 DUP1 MLOAD PUSH1 0x20 PUSH3 0x41EB DUP4 CODECOPY DUP2 MLOAD SWAP2 MSTORE SWAP2 LOG3 PUSH1 0x0 DUP1 SLOAD PUSH1 0x1 PUSH1 0x1 PUSH1 0xA0 SHL SUB NOT AND PUSH1 0x1 PUSH1 0x1 PUSH1 0xA0 SHL SUB SWAP3 SWAP1 SWAP3 AND SWAP2 SWAP1 SWAP2 OR SWAP1 SSTORE JUMP JUMPDEST PUSH1 0x0 SLOAD PUSH1 0x1 PUSH1 0x1 PUSH1 0xA0 SHL SUB AND SWAP1 JUMP JUMPDEST DUP1 MLOAD PUSH1 0x1 PUSH1 0x1 PUSH1 0xA0 SHL SUB DUP2 AND DUP2 EQ PUSH3 0x2D1 JUMPI PUSH1 0x0 DUP1 REVERT JUMPDEST SWAP2 SWAP1 POP JUMP JUMPDEST PUSH1 0x0 DUP1 PUSH1 0x0 PUSH1 0x60 DUP5 DUP7 SUB SLT ISZERO PUSH3 0x2EB JUMPI DUP3 DUP4 REVERT JUMPDEST PUSH3 0x2F6 DUP5 PUSH3 0x2B9 JUMP JUMPDEST SWAP3 POP PUSH3 0x306 PUSH1 0x20 DUP6 ADD PUSH3 0x2B9 JUMP JUMPDEST SWAP2 POP PUSH3 0x316 PUSH1 0x40 DUP6 ADD PUSH3 0x2B9 JUMP JUMPDEST SWAP1 POP SWAP3 POP SWAP3 POP SWAP3 JUMP JUMPDEST SWAP5 DUP6 MSTORE PUSH1 0x20 DUP6 ADD SWAP4 SWAP1 SWAP4 MSTORE PUSH1 0x40 DUP5 ADD SWAP2 SWAP1 SWAP2 MSTORE PUSH3 0xFFFFFF AND PUSH1 0x60 DUP4 ADD MSTORE PUSH1 0x1 PUSH1 0x1 PUSH1 0xA0 SHL SUB AND PUSH1 0x80 DUP3 ADD MSTORE PUSH1 0xA0 ADD SWAP1 JUMP JUMPDEST PUSH1 0x80 MLOAD PUSH1 0x60 SHR PUSH1 0xA0 MLOAD PUSH2 0x3E30 PUSH3 0x395 PUSH1 0x0 CODECOPY DUP1 PUSH2 0xD1C MSTORE DUP1 PUSH2 0x2248 MSTORE POP DUP1 PUSH2 0x5FA MSTORE DUP1 PUSH2 0x7CF MSTORE DUP1 PUSH2 0x862 MSTORE DUP1 PUSH2 0xDB1 MSTORE DUP1 PUSH2 0xEA0 MSTORE DUP1 PUSH2 0x18FB MSTORE POP PUSH2 0x3E30 PUSH1 0x0 RETURN INVALID PUSH1 0x80 PUSH1 0x40 MSTORE CALLVALUE DUP1 ISZERO PUSH2 0x10 JUMPI PUSH1 0x0 DUP1 REVERT JUMPDEST POP PUSH1 0x4 CALLDATASIZE LT PUSH2 0x1E5 JUMPI PUSH1 0x0 CALLDATALOAD PUSH1 0xE0 SHR DUP1 PUSH4 0x8BBD58E2 GT PUSH2 0x10F JUMPI DUP1 PUSH4 0xD3FFE67A GT PUSH2 0xA2 JUMPI DUP1 PUSH4 0xF2FDE38B GT PUSH2 0x71 JUMPI DUP1 PUSH4 0xF2FDE38B EQ PUSH2 0x440 JUMPI DUP1 PUSH4 0xF6AB0872 EQ PUSH2 0x453 JUMPI DUP1 PUSH4 0xFC6F9468 EQ PUSH2 0x466 JUMPI DUP1 PUSH4 0xFEB16532 EQ PUSH2 0x46E JUMPI PUSH2 0x1E5 JUMP JUMPDEST DUP1 PUSH4 0xD3FFE67A EQ PUSH2 0x3F4 JUMPI DUP1 PUSH4 0xD697D231 EQ PUSH2 0x3FC JUMPI DUP1 PUSH4 0xD9DB6E03 EQ PUSH2 0x425 JUMPI DUP1 PUSH4 0xF19C3D5B EQ PUSH2 0x438 JUMPI PUSH2 0x1E5 JUMP JUMPDEST DUP1 PUSH4 0x9605CFE5 GT PUSH2 0xDE JUMPI DUP1 PUSH4 0x9605CFE5 EQ PUSH2 0x388 JUMPI DUP1 PUSH4 0xAA62E312 EQ PUSH2 0x3AE JUMPI DUP1 PUSH4 0xB2396E6C EQ PUSH2 0x3CE JUMPI DUP1 PUSH4 0xB9ADB2F7 EQ PUSH2 0x3E1 JUMPI PUSH2 0x1E5 JUMP JUMPDEST DUP1 PUSH4 0x8BBD58E2 EQ PUSH2 0x352 JUMPI DUP1 PUSH4 0x8BE55456 EQ PUSH2 0x365 JUMPI DUP1 PUSH4 0x8C73EB04 EQ PUSH2 0x378 JUMPI DUP1 PUSH4 0x8DA5CB5B EQ PUSH2 0x380 JUMPI PUSH2 0x1E5 JUMP JUMPDEST DUP1 PUSH4 0x3644E515 GT PUSH2 0x187 JUMPI DUP1 PUSH4 0x715018A6 GT PUSH2 0x156 JUMPI DUP1 PUSH4 0x715018A6 EQ PUSH2 0x2F7 JUMPI DUP1 PUSH4 0x7332CEC4 EQ PUSH2 0x2FF JUMPI DUP1 PUSH4 0x734123C4 EQ PUSH2 0x31F JUMPI DUP1 PUSH4 0x7C92F219 EQ PUSH2 0x33F JUMPI PUSH2 0x1E5 JUMP JUMPDEST DUP1 PUSH4 0x3644E515 EQ PUSH2 0x2B4 JUMPI DUP1 PUSH4 0x5312EA8E EQ PUSH2 0x2C9 JUMPI DUP1 PUSH4 0x69883B4E EQ PUSH2 0x2DC JUMPI DUP1 PUSH4 0x6F9FB98A EQ PUSH2 0x2EF JUMPI PUSH2 0x1E5 JUMP JUMPDEST DUP1 PUSH4 0x1223310A GT PUSH2 0x1C3 JUMPI DUP1 PUSH4 0x1223310A EQ PUSH2 0x23D JUMPI DUP1 PUSH4 0x1376938D EQ PUSH2 0x261 JUMPI DUP1 PUSH4 0x20DE7592 EQ PUSH2 0x281 JUMPI DUP1 PUSH4 0x21050EDC EQ PUSH2 0x2A1 JUMPI PUSH2 0x1E5 JUMP JUMPDEST DUP1 PUSH4 0xE0B8C8B EQ PUSH2 0x1EA JUMPI DUP1 PUSH4 0x11CFFB67 EQ PUSH2 0x1FF JUMPI DUP1 PUSH4 0x11EAC855 EQ PUSH2 0x228 JUMPI JUMPDEST PUSH1 0x0 DUP1 REVERT JUMPDEST PUSH2 0x1FD PUSH2 0x1F8 CALLDATASIZE PUSH1 0x4 PUSH2 0x32AB JUMP JUMPDEST PUSH2 0x481 JUMP JUMPDEST STOP JUMPDEST PUSH2 0x212 PUSH2 0x20D CALLDATASIZE PUSH1 0x4 PUSH2 0x341A JUMP JUMPDEST PUSH2 0x855 JUMP JUMPDEST PUSH1 0x40 MLOAD PUSH2 0x21F SWAP2 SWAP1 PUSH2 0x3615 JUMP JUMPDEST PUSH1 0x40 MLOAD DUP1 SWAP2 SUB SWAP1 RETURN JUMPDEST PUSH2 0x230 PUSH2 0x860 JUMP JUMPDEST PUSH1 0x40 MLOAD PUSH2 0x21F SWAP2 SWAP1 PUSH2 0x35A1 JUMP JUMPDEST PUSH2 0x250 PUSH2 0x24B CALLDATASIZE PUSH1 0x4 PUSH2 0x30B9 JUMP JUMPDEST PUSH2 0x884 JUMP JUMPDEST PUSH1 0x40 MLOAD PUSH2 0x21F SWAP6 SWAP5 SWAP4 SWAP3 SWAP2 SWAP1 PUSH2 0x3B9F JUMP JUMPDEST PUSH2 0x274 PUSH2 0x26F CALLDATASIZE PUSH1 0x4 PUSH2 0x30B9 JUMP JUMPDEST PUSH2 0x8D8 JUMP JUMPDEST PUSH1 0x40 MLOAD PUSH2 0x21F SWAP2 SWAP1 PUSH2 0x39E9 JUMP JUMPDEST PUSH2 0x294 PUSH2 0x28F CALLDATASIZE PUSH1 0x4 PUSH2 0x3338 JUMP JUMPDEST PUSH2 0x952 JUMP JUMPDEST PUSH1 0x40 MLOAD PUSH2 0x21F SWAP2 SWAP1 PUSH2 0x364C JUMP JUMPDEST PUSH2 0x294 PUSH2 0x2AF CALLDATASIZE PUSH1 0x4 PUSH2 0x3105 JUMP JUMPDEST PUSH2 0xA1E JUMP JUMPDEST PUSH2 0x2BC PUSH2 0xD1A JUMP JUMPDEST PUSH1 0x40 MLOAD PUSH2 0x21F SWAP2 SWAP1 PUSH2 0x3620 JUMP JUMPDEST PUSH2 0x1FD PUSH2 0x2D7 CALLDATASIZE PUSH1 0x4 PUSH2 0x3338 JUMP JUMPDEST PUSH2 0xD3E JUMP JUMPDEST PUSH2 0x294 PUSH2 0x2EA CALLDATASIZE PUSH1 0x4 PUSH2 0x3338 JUMP JUMPDEST PUSH2 0xDDD JUMP JUMPDEST PUSH2 0x2BC PUSH2 0xE86 JUMP JUMPDEST PUSH2 0x1FD PUSH2 0xF2A JUMP JUMPDEST PUSH2 0x312 PUSH2 0x30D CALLDATASIZE PUSH1 0x4 PUSH2 0x3338 JUMP JUMPDEST PUSH2 0xFD6 JUMP JUMPDEST PUSH1 0x40 MLOAD PUSH2 0x21F SWAP2 SWAP1 PUSH2 0x35B5 JUMP JUMPDEST PUSH2 0x332 PUSH2 0x32D CALLDATASIZE PUSH1 0x4 PUSH2 0x3086 JUMP JUMPDEST PUSH2 0x10C1 JUMP JUMPDEST PUSH1 0x40 MLOAD PUSH2 0x21F SWAP2 SWAP1 PUSH2 0x3A8F JUMP JUMPDEST PUSH2 0x212 PUSH2 0x34D CALLDATASIZE PUSH1 0x4 PUSH2 0x341A JUMP JUMPDEST PUSH2 0x12AC JUMP JUMPDEST PUSH2 0x212 PUSH2 0x360 CALLDATASIZE PUSH1 0x4 PUSH2 0x31FE JUMP JUMPDEST PUSH2 0x159E JUMP JUMPDEST PUSH2 0x212 PUSH2 0x373 CALLDATASIZE PUSH1 0x4 PUSH2 0x3389 JUMP JUMPDEST PUSH2 0x15D6 JUMP JUMPDEST PUSH2 0x230 PUSH2 0x15EF JUMP JUMPDEST PUSH2 0x230 PUSH2 0x15FE JUMP JUMPDEST PUSH2 0x39B PUSH2 0x396 CALLDATASIZE PUSH1 0x4 PUSH2 0x30B9 JUMP JUMPDEST PUSH2 0x160D JUMP JUMPDEST PUSH1 0x40 MLOAD PUSH2 0x21F SWAP8 SWAP7 SWAP6 SWAP5 SWAP4 SWAP3 SWAP2 SWAP1 PUSH2 0x3B4B JUMP JUMPDEST PUSH2 0x3C1 PUSH2 0x3BC CALLDATASIZE PUSH1 0x4 PUSH2 0x30B9 JUMP JUMPDEST PUSH2 0x16FF JUMP JUMPDEST PUSH1 0x40 MLOAD PUSH2 0x21F SWAP2 SWAP1 PUSH2 0x3A27 JUMP JUMPDEST PUSH2 0x212 PUSH2 0x3DC CALLDATASIZE PUSH1 0x4 PUSH2 0x31FE JUMP JUMPDEST PUSH2 0x1825 JUMP JUMPDEST PUSH2 0x1FD PUSH2 0x3EF CALLDATASIZE PUSH1 0x4 PUSH2 0x3241 JUMP JUMPDEST PUSH2 0x1855 JUMP JUMPDEST PUSH2 0x2BC PUSH2 0x1A77 JUMP JUMPDEST PUSH2 0x40F PUSH2 0x40A CALLDATASIZE PUSH1 0x4 PUSH2 0x3086 JUMP JUMPDEST PUSH2 0x1A7D JUMP JUMPDEST PUSH1 0x40 MLOAD PUSH2 0x21F SWAP11 SWAP10 SWAP9 SWAP8 SWAP7 SWAP6 SWAP5 SWAP4 SWAP3 SWAP2 SWAP1 PUSH2 0x36B1 JUMP JUMPDEST PUSH2 0x1FD PUSH2 0x433 CALLDATASIZE PUSH1 0x4 PUSH2 0x306C JUMP JUMPDEST PUSH2 0x1BFB JUMP JUMPDEST PUSH2 0x312 PUSH2 0x1C7F JUMP JUMPDEST PUSH2 0x1FD PUSH2 0x44E CALLDATASIZE PUSH1 0x4 PUSH2 0x306C JUMP JUMPDEST PUSH2 0x1D57 JUMP JUMPDEST PUSH2 0x1FD PUSH2 0x461 CALLDATASIZE PUSH1 0x4 PUSH2 0x3086 JUMP JUMPDEST PUSH2 0x1E59 JUMP JUMPDEST PUSH2 0x230 PUSH2 0x1F7F JUMP JUMPDEST PUSH2 0x294 PUSH2 0x47C CALLDATASIZE PUSH1 0x4 PUSH2 0x3368 JUMP JUMPDEST PUSH2 0x1F8E JUMP JUMPDEST PUSH1 0x1 SLOAD PUSH1 0x1 PUSH1 0x1 PUSH1 0xA0 SHL SUB AND CALLER EQ PUSH2 0x4B4 JUMPI PUSH1 0x40 MLOAD PUSH3 0x461BCD PUSH1 0xE5 SHL DUP2 MSTORE PUSH1 0x4 ADD PUSH2 0x4AB SWAP1 PUSH2 0x388B JUMP JUMPDEST PUSH1 0x40 MLOAD DUP1 SWAP2 SUB SWAP1 REVERT JUMPDEST PUSH1 0x0 PUSH1 0x4 DUP8 PUSH1 0x40 MLOAD PUSH2 0x4C6 SWAP2 SWAP1 PUSH2 0x356A JUMP JUMPDEST SWAP1 DUP2 MSTORE PUSH1 0x40 MLOAD SWAP1 DUP2 SWAP1 SUB PUSH1 0x20 ADD SWAP1 KECCAK256 DUP1 SLOAD SWAP1 SWAP2 POP PUSH1 0x2 PUSH1 0x0 NOT PUSH2 0x100 PUSH1 0x1 DUP5 AND ISZERO MUL ADD SWAP1 SWAP2 AND DIV PUSH2 0x509 JUMPI PUSH1 0x40 MLOAD PUSH3 0x461BCD PUSH1 0xE5 SHL DUP2 MSTORE PUSH1 0x4 ADD PUSH2 0x4AB SWAP1 PUSH2 0x3866 JUMP JUMPDEST PUSH1 0x8 DUP2 ADD SLOAD PUSH1 0xFF AND PUSH2 0x52D JUMPI PUSH1 0x40 MLOAD PUSH3 0x461BCD PUSH1 0xE5 SHL DUP2 MSTORE PUSH1 0x4 ADD PUSH2 0x4AB SWAP1 PUSH2 0x38F1 JUMP JUMPDEST PUSH1 0x7 DUP8 PUSH1 0x40 MLOAD PUSH2 0x53D SWAP2 SWAP1 PUSH2 0x356A JUMP JUMPDEST SWAP1 DUP2 MSTORE PUSH1 0x40 DUP1 MLOAD PUSH1 0x20 SWAP3 DUP2 SWAP1 SUB DUP4 ADD SWAP1 KECCAK256 PUSH1 0x0 DUP10 DUP2 MSTORE SWAP3 MSTORE SWAP1 KECCAK256 SLOAD PUSH1 0xFF AND ISZERO PUSH2 0x578 JUMPI PUSH1 0x40 MLOAD PUSH3 0x461BCD PUSH1 0xE5 SHL DUP2 MSTORE PUSH1 0x4 ADD PUSH2 0x4AB SWAP1 PUSH2 0x3917 JUMP JUMPDEST PUSH1 0x1 PUSH1 0x1 PUSH1 0xA0 SHL SUB DUP3 AND PUSH2 0x59E JUMPI PUSH1 0x40 MLOAD PUSH3 0x461BCD PUSH1 0xE5 SHL DUP2 MSTORE PUSH1 0x4 ADD PUSH2 0x4AB SWAP1 PUSH2 0x383C JUMP JUMPDEST DUP1 PUSH1 0x2 ADD PUSH1 0x40 MLOAD PUSH2 0x5AF SWAP2 SWAP1 PUSH2 0x34FA JUMP JUMPDEST PUSH1 0x40 MLOAD DUP1 SWAP2 SUB SWAP1 KECCAK256 DUP5 DUP1 MLOAD SWAP1 PUSH1 0x20 ADD KECCAK256 EQ PUSH2 0x5DC JUMPI PUSH1 0x40 MLOAD PUSH3 0x461BCD PUSH1 0xE5 SHL DUP2 MSTORE PUSH1 0x4 ADD PUSH2 0x4AB SWAP1 PUSH2 0x37BC JUMP JUMPDEST PUSH1 0x3 DUP2 ADD SLOAD PUSH1 0x40 MLOAD PUSH4 0x70A08231 PUSH1 0xE0 SHL DUP2 MSTORE DUP2 SWAP1 PUSH1 0x1 PUSH1 0x1 PUSH1 0xA0 SHL SUB PUSH32 0x0 AND SWAP1 PUSH4 0x70A08231 SWAP1 PUSH2 0x62F SWAP1 ADDRESS SWAP1 PUSH1 0x4 ADD PUSH2 0x35A1 JUMP JUMPDEST PUSH1 0x20 PUSH1 0x40 MLOAD DUP1 DUP4 SUB DUP2 DUP7 DUP1 EXTCODESIZE ISZERO DUP1 ISZERO PUSH2 0x647 JUMPI PUSH1 0x0 DUP1 REVERT JUMPDEST POP GAS STATICCALL ISZERO DUP1 ISZERO PUSH2 0x65B JUMPI RETURNDATASIZE PUSH1 0x0 DUP1 RETURNDATACOPY RETURNDATASIZE PUSH1 0x0 REVERT JUMPDEST POP POP POP POP PUSH1 0x40 MLOAD RETURNDATASIZE PUSH1 0x1F NOT PUSH1 0x1F DUP3 ADD AND DUP3 ADD DUP1 PUSH1 0x40 MSTORE POP DUP2 ADD SWAP1 PUSH2 0x67F SWAP2 SWAP1 PUSH2 0x3350 JUMP JUMPDEST LT ISZERO PUSH2 0x69D JUMPI PUSH1 0x40 MLOAD PUSH3 0x461BCD PUSH1 0xE5 SHL DUP2 MSTORE PUSH1 0x4 ADD PUSH2 0x4AB SWAP1 PUSH2 0x393F JUMP JUMPDEST PUSH1 0x4 DUP3 ADD DUP1 SLOAD PUSH1 0x1 ADD SWAP1 SSTORE PUSH1 0x6 DUP3 ADD DUP1 SLOAD DUP3 ADD SWAP1 SSTORE PUSH1 0x40 DUP1 MLOAD PUSH1 0xA0 DUP2 ADD DUP3 MSTORE DUP9 DUP2 MSTORE PUSH1 0x20 DUP2 ADD DUP9 SWAP1 MSTORE PUSH1 0x1 PUSH1 0x1 PUSH1 0xA0 SHL SUB DUP6 AND DUP2 DUP4 ADD MSTORE PUSH1 0x60 DUP2 ADD DUP4 SWAP1 MSTORE TIMESTAMP PUSH1 0x80 DUP3 ADD MSTORE SWAP1 MLOAD PUSH1 0x5 SWAP1 PUSH2 0x6F1 SWAP1 DUP12 SWAP1 PUSH2 0x356A JUMP JUMPDEST SWAP1 DUP2 MSTORE PUSH1 0x40 DUP1 MLOAD PUSH1 0x20 SWAP3 DUP2 SWAP1 SUB DUP4 ADD DUP2 KECCAK256 PUSH1 0x1 PUSH1 0x1 PUSH1 0xA0 SHL SUB DUP9 DUP2 AND PUSH1 0x0 SWAP1 DUP2 MSTORE SWAP2 DUP6 MSTORE SWAP1 DUP4 SWAP1 KECCAK256 DUP6 MLOAD DUP2 SSTORE SWAP4 DUP6 ADD MLOAD PUSH1 0x1 DUP1 DUP7 ADD SWAP2 SWAP1 SWAP2 SSTORE SWAP3 DUP6 ADD MLOAD PUSH1 0x2 DUP6 ADD DUP1 SLOAD PUSH1 0x1 PUSH1 0x1 PUSH1 0xA0 SHL SUB NOT AND SWAP2 SWAP1 SWAP3 AND OR SWAP1 SSTORE PUSH1 0x60 DUP5 ADD MLOAD PUSH1 0x3 DUP5 ADD SSTORE PUSH1 0x80 SWAP1 SWAP4 ADD MLOAD PUSH1 0x4 SWAP1 SWAP3 ADD SWAP2 SWAP1 SWAP2 SSTORE SWAP1 PUSH1 0x7 SWAP1 PUSH2 0x76D SWAP1 DUP12 SWAP1 PUSH2 0x356A JUMP JUMPDEST SWAP1 DUP2 MSTORE PUSH1 0x40 DUP1 MLOAD PUSH1 0x20 SWAP3 DUP2 SWAP1 SUB DUP4 ADD SWAP1 KECCAK256 PUSH1 0x0 DUP12 DUP2 MSTORE SWAP1 DUP4 MSTORE DUP2 DUP2 KECCAK256 DUP1 SLOAD PUSH1 0xFF NOT AND SWAP5 ISZERO ISZERO SWAP5 SWAP1 SWAP5 OR SWAP1 SWAP4 SSTORE PUSH1 0x8 DUP3 MSTORE DUP3 KECCAK256 DUP1 SLOAD PUSH1 0x1 DUP2 ADD DUP3 SSTORE SWAP1 DUP4 MSTORE SWAP2 DUP2 SWAP1 KECCAK256 DUP11 MLOAD PUSH2 0x7C1 SWAP4 SWAP2 SWAP1 SWAP2 ADD SWAP2 DUP12 ADD SWAP1 PUSH2 0x2E24 JUMP JUMPDEST POP PUSH2 0x7F6 PUSH1 0x1 PUSH1 0x1 PUSH1 0xA0 SHL SUB PUSH32 0x0 AND DUP5 DUP4 PUSH2 0x2012 JUMP JUMPDEST DUP3 PUSH1 0x1 PUSH1 0x1 PUSH1 0xA0 SHL SUB AND CALLER PUSH1 0x1 PUSH1 0x1 PUSH1 0xA0 SHL SUB AND PUSH32 0xCC59A4E18E6F0351E0F31E360ECBCC26CF0C96431BDF1CF16BADE89F8AC1BF28 DUP11 DUP11 DUP11 DUP11 DUP8 TIMESTAMP PUSH1 0x40 MLOAD PUSH2 0x843 SWAP7 SWAP6 SWAP5 SWAP4 SWAP3 SWAP2 SWAP1 PUSH2 0x3775 JUMP JUMPDEST PUSH1 0x40 MLOAD DUP1 SWAP2 SUB SWAP1 LOG3 POP POP POP POP POP POP POP POP JUMP JUMPDEST PUSH1 0x1 SWAP6 SWAP5 POP POP POP POP POP JUMP JUMPDEST PUSH32 0x0 DUP2 JUMP JUMPDEST DUP2 MLOAD PUSH1 0x20 DUP2 DUP5 ADD DUP2 ADD DUP1 MLOAD PUSH1 0x5 DUP3 MSTORE SWAP3 DUP3 ADD SWAP5 DUP3 ADD SWAP5 SWAP1 SWAP5 KECCAK256 SWAP2 SWAP1 SWAP4 MSTORE SWAP1 SWAP2 MSTORE PUSH1 0x0 SWAP1 DUP2 MSTORE PUSH1 0x40 SWAP1 KECCAK256 DUP1 SLOAD PUSH1 0x1 DUP3 ADD SLOAD PUSH1 0x2 DUP4 ADD SLOAD PUSH1 0x3 DUP5 ADD SLOAD PUSH1 0x4 SWAP1 SWAP5 ADD SLOAD SWAP3 SWAP4 SWAP2 SWAP3 PUSH1 0x1 PUSH1 0x1 PUSH1 0xA0 SHL SUB SWAP1 SWAP2 AND SWAP2 SWAP1 DUP6 JUMP JUMPDEST PUSH2 0x8E0 PUSH2 0x2EB0 JUMP JUMPDEST PUSH1 0x5 DUP4 PUSH1 0x40 MLOAD PUSH2 0x8F0 SWAP2 SWAP1 PUSH2 0x356A JUMP JUMPDEST SWAP1 DUP2 MSTORE PUSH1 0x40 DUP1 MLOAD PUSH1 0x20 SWAP3 DUP2 SWAP1 SUB DUP4 ADD DUP2 KECCAK256 PUSH1 0x1 PUSH1 0x1 PUSH1 0xA0 SHL SUB SWAP6 DUP7 AND PUSH1 0x0 SWAP1 DUP2 MSTORE SWAP1 DUP5 MSTORE DUP3 SWAP1 KECCAK256 PUSH1 0xA0 DUP3 ADD DUP4 MSTORE DUP1 SLOAD DUP3 MSTORE PUSH1 0x1 DUP2 ADD SLOAD SWAP4 DUP3 ADD SWAP4 SWAP1 SWAP4 MSTORE PUSH1 0x2 DUP4 ADD SLOAD SWAP1 SWAP5 AND SWAP1 DUP5 ADD MSTORE PUSH1 0x3 DUP2 ADD SLOAD PUSH1 0x60 DUP5 ADD MSTORE PUSH1 0x4 ADD SLOAD PUSH1 0x80 DUP4 ADD MSTORE POP SWAP2 SWAP1 POP JUMP JUMPDEST PUSH1 0x3 SLOAD PUSH1 0x60 SWAP1 DUP3 LT PUSH2 0x976 JUMPI PUSH1 0x40 MLOAD PUSH3 0x461BCD PUSH1 0xE5 SHL DUP2 MSTORE PUSH1 0x4 ADD PUSH2 0x4AB SWAP1 PUSH2 0x3995 JUMP JUMPDEST PUSH1 0x3 DUP3 DUP2 SLOAD DUP2 LT PUSH2 0x983 JUMPI INVALID JUMPDEST PUSH1 0x0 SWAP2 DUP3 MSTORE PUSH1 0x20 SWAP2 DUP3 SWAP1 KECCAK256 ADD DUP1 SLOAD PUSH1 0x40 DUP1 MLOAD PUSH1 0x1F PUSH1 0x2 PUSH1 0x0 NOT PUSH2 0x100 PUSH1 0x1 DUP8 AND ISZERO MUL ADD SWAP1 SWAP5 AND SWAP4 SWAP1 SWAP4 DIV SWAP3 DUP4 ADD DUP6 SWAP1 DIV DUP6 MUL DUP2 ADD DUP6 ADD SWAP1 SWAP2 MSTORE DUP2 DUP2 MSTORE SWAP3 DUP4 ADD DUP3 DUP3 DUP1 ISZERO PUSH2 0xA11 JUMPI DUP1 PUSH1 0x1F LT PUSH2 0x9E6 JUMPI PUSH2 0x100 DUP1 DUP4 SLOAD DIV MUL DUP4 MSTORE SWAP2 PUSH1 0x20 ADD SWAP2 PUSH2 0xA11 JUMP JUMPDEST DUP3 ADD SWAP2 SWAP1 PUSH1 0x0 MSTORE PUSH1 0x20 PUSH1 0x0 KECCAK256 SWAP1 JUMPDEST DUP2 SLOAD DUP2 MSTORE SWAP1 PUSH1 0x1 ADD SWAP1 PUSH1 0x20 ADD DUP1 DUP4 GT PUSH2 0x9F4 JUMPI DUP3 SWAP1 SUB PUSH1 0x1F AND DUP3 ADD SWAP2 JUMPDEST POP POP POP POP POP SWAP1 POP JUMPDEST SWAP2 SWAP1 POP JUMP JUMPDEST PUSH1 0x60 PUSH2 0xA28 PUSH2 0x2069 JUMP JUMPDEST PUSH1 0x1 PUSH1 0x1 PUSH1 0xA0 SHL SUB AND PUSH2 0xA39 PUSH2 0x15FE JUMP JUMPDEST PUSH1 0x1 PUSH1 0x1 PUSH1 0xA0 SHL SUB AND EQ PUSH2 0xA82 JUMPI PUSH1 0x40 DUP1 MLOAD PUSH3 0x461BCD PUSH1 0xE5 SHL DUP2 MSTORE PUSH1 0x20 PUSH1 0x4 DUP3 ADD DUP2 SWAP1 MSTORE PUSH1 0x24 DUP3 ADD MSTORE PUSH1 0x0 DUP1 MLOAD PUSH1 0x20 PUSH2 0x3CEF DUP4 CODECOPY DUP2 MLOAD SWAP2 MSTORE PUSH1 0x44 DUP3 ADD MSTORE SWAP1 MLOAD SWAP1 DUP2 SWAP1 SUB PUSH1 0x64 ADD SWAP1 REVERT JUMPDEST PUSH1 0x0 DUP7 MLOAD GT PUSH2 0xAA3 JUMPI PUSH1 0x40 MLOAD PUSH3 0x461BCD PUSH1 0xE5 SHL DUP2 MSTORE PUSH1 0x4 ADD PUSH2 0x4AB SWAP1 PUSH2 0x39C2 JUMP JUMPDEST PUSH1 0x0 DUP4 MLOAD GT PUSH2 0xAC4 JUMPI PUSH1 0x40 MLOAD PUSH3 0x461BCD PUSH1 0xE5 SHL DUP2 MSTORE PUSH1 0x4 ADD PUSH2 0x4AB SWAP1 PUSH2 0x37E9 JUMP JUMPDEST PUSH1 0x0 DUP3 GT PUSH2 0xAE4 JUMPI PUSH1 0x40 MLOAD PUSH3 0x461BCD PUSH1 0xE5 SHL DUP2 MSTORE PUSH1 0x4 ADD PUSH2 0x4AB SWAP1 PUSH2 0x3815 JUMP JUMPDEST PUSH1 0x4 DUP7 PUSH1 0x40 MLOAD PUSH2 0xAF4 SWAP2 SWAP1 PUSH2 0x356A JUMP JUMPDEST SWAP1 DUP2 MSTORE PUSH1 0x40 MLOAD SWAP1 DUP2 SWAP1 SUB PUSH1 0x20 ADD SWAP1 KECCAK256 SLOAD PUSH1 0x2 PUSH1 0x0 NOT PUSH2 0x100 PUSH1 0x1 DUP5 AND ISZERO MUL ADD SWAP1 SWAP2 AND DIV ISZERO PUSH2 0xB34 JUMPI PUSH1 0x40 MLOAD PUSH3 0x461BCD PUSH1 0xE5 SHL DUP2 MSTORE PUSH1 0x4 ADD PUSH2 0x4AB SWAP1 PUSH2 0x396A JUMP JUMPDEST PUSH1 0x40 MLOAD DUP1 PUSH2 0x140 ADD PUSH1 0x40 MSTORE DUP1 DUP8 DUP2 MSTORE PUSH1 0x20 ADD DUP7 PUSH1 0x3 DUP2 GT ISZERO PUSH2 0xB52 JUMPI INVALID JUMPDEST DUP2 MSTORE PUSH1 0x20 ADD DUP6 PUSH1 0x1 DUP2 GT ISZERO PUSH2 0xB63 JUMPI INVALID JUMPDEST DUP2 MSTORE PUSH1 0x20 ADD DUP5 DUP2 MSTORE PUSH1 0x20 ADD DUP4 DUP2 MSTORE PUSH1 0x20 ADD PUSH1 0x0 DUP2 MSTORE PUSH1 0x20 ADD PUSH1 0x0 DUP2 MSTORE PUSH1 0x20 ADD PUSH1 0x0 DUP2 MSTORE PUSH1 0x20 ADD PUSH1 0x0 DUP2 MSTORE PUSH1 0x20 ADD PUSH1 0x1 ISZERO ISZERO DUP2 MSTORE POP PUSH1 0x4 DUP8 PUSH1 0x40 MLOAD PUSH2 0xBA7 SWAP2 SWAP1 PUSH2 0x356A JUMP JUMPDEST SWAP1 DUP2 MSTORE PUSH1 0x20 ADD PUSH1 0x40 MLOAD DUP1 SWAP2 SUB SWAP1 KECCAK256 PUSH1 0x0 DUP3 ADD MLOAD DUP2 PUSH1 0x0 ADD SWAP1 DUP1 MLOAD SWAP1 PUSH1 0x20 ADD SWAP1 PUSH2 0xBD1 SWAP3 SWAP2 SWAP1 PUSH2 0x2E24 JUMP JUMPDEST POP PUSH1 0x20 DUP3 ADD MLOAD PUSH1 0x1 DUP1 DUP4 ADD DUP1 SLOAD SWAP1 SWAP2 PUSH1 0xFF NOT SWAP1 SWAP2 AND SWAP1 DUP4 PUSH1 0x3 DUP2 GT ISZERO PUSH2 0xBF3 JUMPI INVALID JUMPDEST MUL OR SWAP1 SSTORE POP PUSH1 0x40 DUP3 ADD MLOAD DUP2 PUSH1 0x1 ADD PUSH1 0x1 PUSH2 0x100 EXP DUP2 SLOAD DUP2 PUSH1 0xFF MUL NOT AND SWAP1 DUP4 PUSH1 0x1 DUP2 GT ISZERO PUSH2 0xC1C JUMPI INVALID JUMPDEST MUL OR SWAP1 SSTORE POP PUSH1 0x60 DUP3 ADD MLOAD DUP1 MLOAD PUSH2 0xC3C SWAP2 PUSH1 0x2 DUP5 ADD SWAP2 PUSH1 0x20 SWAP1 SWAP2 ADD SWAP1 PUSH2 0x2E24 JUMP JUMPDEST POP PUSH1 0x80 DUP3 ADD MLOAD PUSH1 0x3 DUP3 DUP2 ADD SWAP2 SWAP1 SWAP2 SSTORE PUSH1 0xA0 DUP4 ADD MLOAD PUSH1 0x4 DUP4 ADD SSTORE PUSH1 0xC0 DUP4 ADD MLOAD PUSH1 0x5 DUP4 ADD SSTORE PUSH1 0xE0 DUP4 ADD MLOAD PUSH1 0x6 DUP4 ADD SSTORE PUSH2 0x100 DUP4 ADD MLOAD PUSH1 0x7 DUP4 ADD SSTORE PUSH2 0x120 SWAP1 SWAP3 ADD MLOAD PUSH1 0x8 SWAP1 SWAP2 ADD DUP1 SLOAD PUSH1 0xFF NOT AND SWAP2 ISZERO ISZERO SWAP2 SWAP1 SWAP2 OR SWAP1 SSTORE DUP1 SLOAD PUSH1 0x1 DUP2 ADD DUP3 SSTORE PUSH1 0x0 SWAP2 SWAP1 SWAP2 MSTORE DUP7 MLOAD PUSH2 0xCD0 SWAP2 PUSH32 0xC2575A0E9E593C00F959F8C92F12DB2869C3395A3B0502D05E2516446F71F85B ADD SWAP1 PUSH1 0x20 DUP10 ADD SWAP1 PUSH2 0x2E24 JUMP JUMPDEST POP PUSH32 0xC1B4F0F8EFC094DD344251B2BF8367C35E8E32DDDF97390F50D27F2F4E2FE21A DUP7 DUP7 DUP7 DUP7 DUP7 PUSH1 0x40 MLOAD PUSH2 0xD08 SWAP6 SWAP5 SWAP4 SWAP3 SWAP2 SWAP1 PUSH2 0x365F JUMP JUMPDEST PUSH1 0x40 MLOAD DUP1 SWAP2 SUB SWAP1 LOG1 POP SWAP4 SWAP5 SWAP4 POP POP POP POP JUMP JUMPDEST PUSH32 0x0 DUP2 JUMP JUMPDEST PUSH2 0xD46 PUSH2 0x2069 JUMP JUMPDEST PUSH1 0x1 PUSH1 0x1 PUSH1 0xA0 SHL SUB AND PUSH2 0xD57 PUSH2 0x15FE JUMP JUMPDEST PUSH1 0x1 PUSH1 0x1 PUSH1 0xA0 SHL SUB AND EQ PUSH2 0xDA0 JUMPI PUSH1 0x40 DUP1 MLOAD PUSH3 0x461BCD PUSH1 0xE5 SHL DUP2 MSTORE PUSH1 0x20 PUSH1 0x4 DUP3 ADD DUP2 SWAP1 MSTORE PUSH1 0x24 DUP3 ADD MSTORE PUSH1 0x0 DUP1 MLOAD PUSH1 0x20 PUSH2 0x3CEF DUP4 CODECOPY DUP2 MLOAD SWAP2 MSTORE PUSH1 0x44 DUP3 ADD MSTORE SWAP1 MLOAD SWAP1 DUP2 SWAP1 SUB PUSH1 0x64 ADD SWAP1 REVERT JUMPDEST PUSH1 0x1 SLOAD PUSH2 0xDDA SWAP1 PUSH1 0x1 PUSH1 0x1 PUSH1 0xA0 SHL SUB PUSH32 0x0 DUP2 AND SWAP2 AND DUP4 PUSH2 0x2012 JUMP JUMPDEST POP JUMP JUMPDEST PUSH1 0x3 DUP2 DUP2 SLOAD DUP2 LT PUSH2 0xDED JUMPI PUSH1 0x0 DUP1 REVERT JUMPDEST PUSH1 0x0 SWAP2 DUP3 MSTORE PUSH1 0x20 SWAP2 DUP3 SWAP1 KECCAK256 ADD DUP1 SLOAD PUSH1 0x40 DUP1 MLOAD PUSH1 0x1F PUSH1 0x2 PUSH1 0x0 NOT PUSH2 0x100 PUSH1 0x1 DUP8 AND ISZERO MUL ADD SWAP1 SWAP5 AND SWAP4 SWAP1 SWAP4 DIV SWAP3 DUP4 ADD DUP6 SWAP1 DIV DUP6 MUL DUP2 ADD DUP6 ADD SWAP1 SWAP2 MSTORE DUP2 DUP2 MSTORE SWAP4 POP SWAP1 SWAP2 DUP4 ADD DUP3 DUP3 DUP1 ISZERO PUSH2 0xE7E JUMPI DUP1 PUSH1 0x1F LT PUSH2 0xE53 JUMPI PUSH2 0x100 DUP1 DUP4 SLOAD DIV MUL DUP4 MSTORE SWAP2 PUSH1 0x20 ADD SWAP2 PUSH2 0xE7E JUMP JUMPDEST DUP3 ADD SWAP2 SWAP1 PUSH1 0x0 MSTORE PUSH1 0x20 PUSH1 0x0 KECCAK256 SWAP1 JUMPDEST DUP2 SLOAD DUP2 MSTORE SWAP1 PUSH1 0x1 ADD SWAP1 PUSH1 0x20 ADD DUP1 DUP4 GT PUSH2 0xE61 JUMPI DUP3 SWAP1 SUB PUSH1 0x1F AND DUP3 ADD SWAP2 JUMPDEST POP POP POP POP POP DUP2 JUMP JUMPDEST PUSH1 0x40 MLOAD PUSH4 0x70A08231 PUSH1 0xE0 SHL DUP2 MSTORE PUSH1 0x0 SWAP1 PUSH1 0x1 PUSH1 0x1 PUSH1 0xA0 SHL SUB PUSH32 0x0 AND SWAP1 PUSH4 0x70A08231 SWAP1 PUSH2 0xED5 SWAP1 ADDRESS SWAP1 PUSH1 0x4 ADD PUSH2 0x35A1 JUMP JUMPDEST PUSH1 0x20 PUSH1 0x40 MLOAD DUP1 DUP4 SUB DUP2 DUP7 DUP1 EXTCODESIZE ISZERO DUP1 ISZERO PUSH2 0xEED JUMPI PUSH1 0x0 DUP1 REVERT JUMPDEST POP GAS STATICCALL ISZERO DUP1 ISZERO PUSH2 0xF01 JUMPI RETURNDATASIZE PUSH1 0x0 DUP1 RETURNDATACOPY RETURNDATASIZE PUSH1 0x0 REVERT JUMPDEST POP POP POP POP PUSH1 0x40 MLOAD RETURNDATASIZE PUSH1 0x1F NOT PUSH1 0x1F DUP3 ADD AND DUP3 ADD DUP1 PUSH1 0x40 MSTORE POP DUP2 ADD SWAP1 PUSH2 0xF25 SWAP2 SWAP1 PUSH2 0x3350 JUMP JUMPDEST SWAP1 POP SWAP1 JUMP JUMPDEST PUSH2 0xF32 PUSH2 0x2069 JUMP JUMPDEST PUSH1 0x1 PUSH1 0x1 PUSH1 0xA0 SHL SUB AND PUSH2 0xF43 PUSH2 0x15FE JUMP JUMPDEST PUSH1 0x1 PUSH1 0x1 PUSH1 0xA0 SHL SUB AND EQ PUSH2 0xF8C JUMPI PUSH1 0x40 DUP1 MLOAD PUSH3 0x461BCD PUSH1 0xE5 SHL DUP2 MSTORE PUSH1 0x20 PUSH1 0x4 DUP3 ADD DUP2 SWAP1 MSTORE PUSH1 0x24 DUP3 ADD MSTORE PUSH1 0x0 DUP1 MLOAD PUSH1 0x20 PUSH2 0x3CEF DUP4 CODECOPY DUP2 MLOAD SWAP2 MSTORE PUSH1 0x44 DUP3 ADD MSTORE SWAP1 MLOAD SWAP1 DUP2 SWAP1 SUB PUSH1 0x64 ADD SWAP1 REVERT JUMPDEST PUSH1 0x0 DUP1 SLOAD PUSH1 0x40 MLOAD PUSH1 0x1 PUSH1 0x1 PUSH1 0xA0 SHL SUB SWAP1 SWAP2 AND SWAP1 PUSH32 0x8BE0079C531659141344CD1FD0A4F28419497F9722A3DAAFE3B4186F6B6457E0 SWAP1 DUP4 SWAP1 LOG3 PUSH1 0x0 DUP1 SLOAD PUSH1 0x1 PUSH1 0x1 PUSH1 0xA0 SHL SUB NOT AND SWAP1 SSTORE JUMP JUMPDEST PUSH1 0x60 PUSH1 0x8 PUSH1 0x0 DUP4 DUP2 MSTORE PUSH1 0x20 ADD SWAP1 DUP2 MSTORE PUSH1 0x20 ADD PUSH1 0x0 KECCAK256 DUP1 SLOAD DUP1 PUSH1 0x20 MUL PUSH1 0x20 ADD PUSH1 0x40 MLOAD SWAP1 DUP2 ADD PUSH1 0x40 MSTORE DUP1 SWAP3 SWAP2 SWAP1 DUP2 DUP2 MSTORE PUSH1 0x20 ADD PUSH1 0x0 SWAP1 JUMPDEST DUP3 DUP3 LT ISZERO PUSH2 0x10B6 JUMPI PUSH1 0x0 DUP5 DUP2 MSTORE PUSH1 0x20 SWAP1 DUP2 SWAP1 KECCAK256 DUP4 ADD DUP1 SLOAD PUSH1 0x40 DUP1 MLOAD PUSH1 0x1F PUSH1 0x2 PUSH1 0x0 NOT PUSH2 0x100 PUSH1 0x1 DUP8 AND ISZERO MUL ADD SWAP1 SWAP5 AND SWAP4 SWAP1 SWAP4 DIV SWAP3 DUP4 ADD DUP6 SWAP1 DIV DUP6 MUL DUP2 ADD DUP6 ADD SWAP1 SWAP2 MSTORE DUP2 DUP2 MSTORE SWAP3 DUP4 ADD DUP3 DUP3 DUP1 ISZERO PUSH2 0x10A2 JUMPI DUP1 PUSH1 0x1F LT PUSH2 0x1077 JUMPI PUSH2 0x100 DUP1 DUP4 SLOAD DIV MUL DUP4 MSTORE SWAP2 PUSH1 0x20 ADD SWAP2 PUSH2 0x10A2 JUMP JUMPDEST DUP3 ADD SWAP2 SWAP1 PUSH1 0x0 MSTORE PUSH1 0x20 PUSH1 0x0 KECCAK256 SWAP1 JUMPDEST DUP2 SLOAD DUP2 MSTORE SWAP1 PUSH1 0x1 ADD SWAP1 PUSH1 0x20 ADD DUP1 DUP4 GT PUSH2 0x1085 JUMPI DUP3 SWAP1 SUB PUSH1 0x1F AND DUP3 ADD SWAP2 JUMPDEST POP POP POP POP POP DUP2 MSTORE PUSH1 0x20 ADD SWAP1 PUSH1 0x1 ADD SWAP1 PUSH2 0x100B JUMP JUMPDEST POP POP POP POP SWAP1 POP SWAP2 SWAP1 POP JUMP JUMPDEST PUSH2 0x10C9 PUSH2 0x2EE8 JUMP JUMPDEST PUSH1 0x4 DUP3 PUSH1 0x40 MLOAD PUSH2 0x10D9 SWAP2 SWAP1 PUSH2 0x356A JUMP JUMPDEST SWAP1 DUP2 MSTORE PUSH1 0x40 DUP1 MLOAD PUSH1 0x20 SWAP3 DUP2 SWAP1 SUB DUP4 ADD DUP2 KECCAK256 DUP1 SLOAD PUSH1 0x2 PUSH1 0x1 DUP3 AND ISZERO PUSH2 0x100 MUL PUSH1 0x0 NOT ADD SWAP1 SWAP2 AND DIV PUSH1 0x1F DUP2 ADD DUP6 SWAP1 DIV SWAP1 SWAP5 MUL DUP3 ADD PUSH2 0x160 SWAP1 DUP2 ADD SWAP1 SWAP4 MSTORE PUSH2 0x140 DUP3 ADD DUP5 DUP2 MSTORE SWAP2 SWAP4 SWAP1 SWAP3 DUP5 SWAP3 SWAP2 DUP5 SWAP2 DUP5 ADD DUP3 DUP3 DUP1 ISZERO PUSH2 0x1176 JUMPI DUP1 PUSH1 0x1F LT PUSH2 0x114B JUMPI PUSH2 0x100 DUP1 DUP4 SLOAD DIV MUL DUP4 MSTORE SWAP2 PUSH1 0x20 ADD SWAP2 PUSH2 0x1176 JUMP JUMPDEST DUP3 ADD SWAP2 SWAP1 PUSH1 0x0 MSTORE PUSH1 0x20 PUSH1 0x0 KECCAK256 SWAP1 JUMPDEST DUP2 SLOAD DUP2 MSTORE SWAP1 PUSH1 0x1 ADD SWAP1 PUSH1 0x20 ADD DUP1 DUP4 GT PUSH2 0x1159 JUMPI DUP3 SWAP1 SUB PUSH1 0x1F AND DUP3 ADD SWAP2 JUMPDEST POP POP POP SWAP2 DUP4 MSTORE POP POP PUSH1 0x1 DUP3 ADD SLOAD PUSH1 0x20 SWAP1 SWAP2 ADD SWAP1 PUSH1 0xFF AND PUSH1 0x3 DUP2 GT ISZERO PUSH2 0x1197 JUMPI INVALID JUMPDEST PUSH1 0x3 DUP2 GT ISZERO PUSH2 0x11A2 JUMPI INVALID JUMPDEST DUP2 MSTORE PUSH1 0x20 ADD PUSH1 0x1 DUP3 ADD PUSH1 0x1 SWAP1 SLOAD SWAP1 PUSH2 0x100 EXP SWAP1 DIV PUSH1 0xFF AND PUSH1 0x1 DUP2 GT ISZERO PUSH2 0x11C4 JUMPI INVALID JUMPDEST PUSH1 0x1 DUP2 GT ISZERO PUSH2 0x11CF JUMPI INVALID JUMPDEST DUP2 MSTORE PUSH1 0x2 DUP3 DUP2 ADD DUP1 SLOAD PUSH1 0x40 DUP1 MLOAD PUSH1 0x20 PUSH1 0x1 DUP5 AND ISZERO PUSH2 0x100 MUL PUSH1 0x0 NOT ADD SWAP1 SWAP4 AND SWAP5 SWAP1 SWAP5 DIV PUSH1 0x1F DUP2 ADD DUP4 SWAP1 DIV DUP4 MUL DUP6 ADD DUP4 ADD SWAP1 SWAP2 MSTORE DUP1 DUP5 MSTORE SWAP4 DUP2 ADD SWAP4 SWAP1 DUP4 ADD DUP3 DUP3 DUP1 ISZERO PUSH2 0x125B JUMPI DUP1 PUSH1 0x1F LT PUSH2 0x1230 JUMPI PUSH2 0x100 DUP1 DUP4 SLOAD DIV MUL DUP4 MSTORE SWAP2 PUSH1 0x20 ADD SWAP2 PUSH2 0x125B JUMP JUMPDEST DUP3 ADD SWAP2 SWAP1 PUSH1 0x0 MSTORE PUSH1 0x20 PUSH1 0x0 KECCAK256 SWAP1 JUMPDEST DUP2 SLOAD DUP2 MSTORE SWAP1 PUSH1 0x1 ADD SWAP1 PUSH1 0x20 ADD DUP1 DUP4 GT PUSH2 0x123E JUMPI DUP3 SWAP1 SUB PUSH1 0x1F AND DUP3 ADD SWAP2 JUMPDEST POP POP POP SWAP2 DUP4 MSTORE POP POP PUSH1 0x3 DUP3 ADD SLOAD PUSH1 0x20 DUP3 ADD MSTORE PUSH1 0x4 DUP3 ADD SLOAD PUSH1 0x40 DUP3 ADD MSTORE PUSH1 0x5 DUP3 ADD SLOAD PUSH1 0x60 DUP3 ADD MSTORE PUSH1 0x6 DUP3 ADD SLOAD PUSH1 0x80 DUP3 ADD MSTORE PUSH1 0x7 DUP3 ADD SLOAD PUSH1 0xA0 DUP3 ADD MSTORE PUSH1 0x8 SWAP1 SWAP2 ADD SLOAD PUSH1 0xFF AND ISZERO ISZERO PUSH1 0xC0 SWAP1 SWAP2 ADD MSTORE SWAP3 SWAP2 POP POP JUMP JUMPDEST PUSH1 0x0 DUP1 PUSH2 0x12F3 PUSH1 0x0 DUP6 DUP6 DUP1 DUP1 PUSH1 0x1F ADD PUSH1 0x20 DUP1 SWAP2 DIV MUL PUSH1 0x20 ADD PUSH1 0x40 MLOAD SWAP1 DUP2 ADD PUSH1 0x40 MSTORE DUP1 SWAP4 SWAP3 SWAP2 SWAP1 DUP2 DUP2 MSTORE PUSH1 0x20 ADD DUP4 DUP4 DUP1 DUP3 DUP5 CALLDATACOPY PUSH1 0x0 SWAP3 ADD SWAP2 SWAP1 SWAP2 MSTORE POP SWAP3 SWAP4 SWAP3 POP POP PUSH2 0x206D SWAP1 POP JUMP JUMPDEST SWAP1 POP PUSH2 0x1304 PUSH3 0xFFFFFF NOT DUP3 AND PUSH2 0x2091 JUMP JUMPDEST PUSH1 0x0 PUSH2 0x1315 PUSH3 0xFFFFFF NOT DUP4 AND PUSH2 0x2152 JUMP JUMPDEST SWAP1 POP PUSH1 0x0 PUSH2 0x1328 PUSH3 0xFFFFFF NOT DUP4 AND PUSH2 0x218A JUMP JUMPDEST PUSH1 0x1 PUSH1 0x1 PUSH1 0x60 SHL SUB AND GT PUSH2 0x134E JUMPI PUSH1 0x40 MLOAD PUSH3 0x461BCD PUSH1 0xE5 SHL DUP2 MSTORE PUSH1 0x4 ADD PUSH2 0x4AB SWAP1 PUSH2 0x38C2 JUMP JUMPDEST PUSH1 0x0 DUP1 PUSH2 0x1360 PUSH3 0xFFFFFF NOT DUP5 AND PUSH2 0x2199 JUMP JUMPDEST DUP1 PUSH1 0x20 ADD SWAP1 MLOAD DUP2 ADD SWAP1 PUSH2 0x1373 SWAP2 SWAP1 PUSH2 0x319D JUMP JUMPDEST SWAP2 POP SWAP2 POP PUSH1 0x0 PUSH2 0x1388 DUP6 PUSH3 0xFFFFFF NOT AND PUSH2 0x21D8 JUMP JUMPDEST SWAP1 POP PUSH1 0x0 PUSH1 0x4 DUP5 PUSH1 0x40 MLOAD PUSH2 0x139C SWAP2 SWAP1 PUSH2 0x356A JUMP JUMPDEST SWAP1 DUP2 MSTORE PUSH1 0x40 MLOAD SWAP1 DUP2 SWAP1 SUB PUSH1 0x20 ADD SWAP1 KECCAK256 DUP1 SLOAD SWAP1 SWAP2 POP PUSH1 0x2 PUSH1 0x0 NOT PUSH2 0x100 PUSH1 0x1 DUP5 AND ISZERO MUL ADD SWAP1 SWAP2 AND DIV PUSH2 0x13DF JUMPI PUSH1 0x40 MLOAD PUSH3 0x461BCD PUSH1 0xE5 SHL DUP2 MSTORE PUSH1 0x4 ADD PUSH2 0x4AB SWAP1 PUSH2 0x3866 JUMP JUMPDEST PUSH1 0x8 DUP2 ADD SLOAD PUSH1 0xFF AND PUSH2 0x1403 JUMPI PUSH1 0x40 MLOAD PUSH3 0x461BCD PUSH1 0xE5 SHL DUP2 MSTORE PUSH1 0x4 ADD PUSH2 0x4AB SWAP1 PUSH2 0x38F1 JUMP JUMPDEST PUSH1 0x0 DUP3 GT PUSH2 0x1423 JUMPI PUSH1 0x40 MLOAD PUSH3 0x461BCD PUSH1 0xE5 SHL DUP2 MSTORE PUSH1 0x4 ADD PUSH2 0x4AB SWAP1 PUSH2 0x3815 JUMP JUMPDEST PUSH1 0x5 DUP2 ADD DUP1 SLOAD PUSH1 0x1 SWAP1 DUP2 ADD SWAP2 DUP3 SWAP1 SSTORE PUSH1 0x7 DUP4 ADD DUP1 SLOAD DUP6 ADD SWAP1 SSTORE PUSH1 0x40 DUP1 MLOAD PUSH1 0xE0 DUP2 ADD DUP3 MSTORE SWAP3 DUP4 MSTORE PUSH1 0x1 PUSH1 0x1 PUSH1 0xA0 SHL SUB DUP15 AND PUSH1 0x20 DUP5 ADD MSTORE DUP3 DUP2 ADD DUP6 SWAP1 MSTORE TIMESTAMP PUSH1 0x60 DUP5 ADD MSTORE PUSH1 0x80 DUP4 ADD SWAP2 SWAP1 SWAP2 MSTORE PUSH4 0xFFFFFFFF DUP15 AND PUSH1 0xA0 DUP4 ADD MSTORE PUSH1 0xC0 DUP3 ADD DUP6 SWAP1 MSTORE MLOAD DUP13 SWAP2 SWAP1 PUSH1 0x6 SWAP1 PUSH2 0x1491 SWAP1 DUP9 SWAP1 PUSH2 0x356A JUMP JUMPDEST SWAP1 DUP2 MSTORE PUSH1 0x40 DUP1 MLOAD PUSH1 0x20 SWAP3 DUP2 SWAP1 SUB DUP4 ADD SWAP1 KECCAK256 PUSH1 0x1 PUSH1 0x1 PUSH1 0xA0 SHL SUB DUP6 DUP2 AND PUSH1 0x0 SWAP1 DUP2 MSTORE SWAP2 DUP5 MSTORE SWAP1 DUP3 SWAP1 KECCAK256 DUP5 MLOAD DUP2 SSTORE DUP5 DUP5 ADD MLOAD PUSH1 0x1 DUP3 ADD DUP1 SLOAD PUSH1 0x1 PUSH1 0x1 PUSH1 0xA0 SHL SUB NOT AND SWAP2 SWAP1 SWAP4 AND OR SWAP1 SWAP2 SSTORE SWAP1 DUP4 ADD MLOAD PUSH1 0x2 DUP3 ADD SSTORE PUSH1 0x60 DUP4 ADD MLOAD PUSH1 0x3 DUP3 ADD SSTORE PUSH1 0x80 DUP4 ADD MLOAD PUSH1 0x4 DUP3 ADD DUP1 SLOAD PUSH1 0xA0 DUP7 ADD MLOAD PUSH1 0xFF NOT SWAP1 SWAP2 AND SWAP3 ISZERO ISZERO SWAP3 SWAP1 SWAP3 OR PUSH5 0xFFFFFFFF00 NOT AND PUSH2 0x100 PUSH4 0xFFFFFFFF SWAP1 SWAP4 AND SWAP3 SWAP1 SWAP3 MUL SWAP2 SWAP1 SWAP2 OR SWAP1 SSTORE PUSH1 0xC0 DUP4 ADD MLOAD DUP1 MLOAD SWAP2 SWAP3 PUSH2 0x1541 SWAP3 PUSH1 0x5 DUP6 ADD SWAP3 SWAP1 SWAP2 ADD SWAP1 PUSH2 0x2E24 JUMP JUMPDEST POP SWAP1 POP POP DUP1 PUSH1 0x1 PUSH1 0x1 PUSH1 0xA0 SHL SUB AND PUSH32 0xAC9F2E8DFE0227CFBB82FC983A4B15E8352A7558D2688723E679F4BC157A2672 DUP7 DUP16 DUP7 TIMESTAMP DUP10 PUSH1 0x40 MLOAD PUSH2 0x1586 SWAP6 SWAP5 SWAP4 SWAP3 SWAP2 SWAP1 PUSH2 0x372C JUMP JUMPDEST PUSH1 0x40 MLOAD DUP1 SWAP2 SUB SWAP1 LOG2 POP POP POP POP POP POP POP SWAP6 SWAP5 POP POP POP POP POP JUMP JUMPDEST PUSH1 0x0 PUSH1 0x7 DUP4 PUSH1 0x40 MLOAD PUSH2 0x15B0 SWAP2 SWAP1 PUSH2 0x356A JUMP JUMPDEST SWAP1 DUP2 MSTORE PUSH1 0x40 DUP1 MLOAD PUSH1 0x20 SWAP3 DUP2 SWAP1 SUB DUP4 ADD SWAP1 KECCAK256 PUSH1 0x0 SWAP5 DUP6 MSTORE SWAP1 SWAP2 MSTORE SWAP1 SWAP2 KECCAK256 SLOAD PUSH1 0xFF AND SWAP3 SWAP2 POP POP JUMP JUMPDEST PUSH1 0x0 PUSH2 0x15E5 DUP7 DUP7 DUP7 DUP7 DUP7 PUSH2 0x21E9 JUMP JUMPDEST SWAP7 SWAP6 POP POP POP POP POP POP JUMP JUMPDEST PUSH1 0x2 SLOAD PUSH1 0x1 PUSH1 0x1 PUSH1 0xA0 SHL SUB AND DUP2 JUMP JUMPDEST PUSH1 0x0 SLOAD PUSH1 0x1 PUSH1 0x1 PUSH1 0xA0 SHL SUB AND SWAP1 JUMP JUMPDEST DUP2 MLOAD PUSH1 0x20 DUP2 DUP5 ADD DUP2 ADD DUP1 MLOAD PUSH1 0x6 DUP3 MSTORE SWAP3 DUP3 ADD SWAP5 DUP3 ADD SWAP5 SWAP1 SWAP5 KECCAK256 SWAP2 SWAP1 SWAP4 MSTORE DUP3 MSTORE PUSH1 0x0 SWAP1 DUP2 MSTORE PUSH1 0x40 SWAP1 DUP2 SWAP1 KECCAK256 DUP1 SLOAD PUSH1 0x1 DUP1 DUP4 ADD SLOAD PUSH1 0x2 DUP1 DUP6 ADD SLOAD PUSH1 0x3 DUP7 ADD SLOAD PUSH1 0x4 DUP8 ADD SLOAD PUSH1 0x5 DUP9 ADD DUP1 SLOAD DUP11 MLOAD PUSH2 0x100 SWAP9 DUP3 AND ISZERO DUP10 MUL PUSH1 0x0 NOT ADD SWAP1 SWAP2 AND SWAP6 SWAP1 SWAP6 DIV PUSH1 0x1F DUP2 ADD DUP13 SWAP1 DIV DUP13 MUL DUP7 ADD DUP13 ADD SWAP1 SWAP11 MSTORE DUP10 DUP6 MSTORE SWAP7 SWAP10 PUSH1 0x1 PUSH1 0x1 PUSH1 0xA0 SHL SUB SWAP1 SWAP6 AND SWAP9 SWAP3 SWAP8 SWAP2 SWAP7 PUSH1 0xFF DUP3 AND SWAP7 SWAP1 SWAP2 DIV PUSH4 0xFFFFFFFF AND SWAP5 SWAP2 SWAP4 SWAP3 SWAP1 SWAP2 DUP4 ADD DUP3 DUP3 DUP1 ISZERO PUSH2 0x16F5 JUMPI DUP1 PUSH1 0x1F LT PUSH2 0x16CA JUMPI PUSH2 0x100 DUP1 DUP4 SLOAD DIV MUL DUP4 MSTORE SWAP2 PUSH1 0x20 ADD SWAP2 PUSH2 0x16F5 JUMP JUMPDEST DUP3 ADD SWAP2 SWAP1 PUSH1 0x0 MSTORE PUSH1 0x20 PUSH1 0x0 KECCAK256 SWAP1 JUMPDEST DUP2 SLOAD DUP2 MSTORE SWAP1 PUSH1 0x1 ADD SWAP1 PUSH1 0x20 ADD DUP1 DUP4 GT PUSH2 0x16D8 JUMPI DUP3 SWAP1 SUB PUSH1 0x1F AND DUP3 ADD SWAP2 JUMPDEST POP POP POP POP POP SWAP1 POP DUP8 JUMP JUMPDEST PUSH2 0x1707 PUSH2 0x2F3E JUMP JUMPDEST PUSH1 0x6 DUP4 PUSH1 0x40 MLOAD PUSH2 0x1717 SWAP2 SWAP1 PUSH2 0x356A JUMP JUMPDEST SWAP1 DUP2 MSTORE PUSH1 0x40 DUP1 MLOAD SWAP2 DUP3 SWAP1 SUB PUSH1 0x20 SWAP1 DUP2 ADD DUP4 KECCAK256 PUSH1 0x1 PUSH1 0x1 PUSH1 0xA0 SHL SUB DUP1 DUP8 AND PUSH1 0x0 SWAP1 DUP2 MSTORE SWAP2 DUP4 MSTORE SWAP1 DUP4 SWAP1 KECCAK256 PUSH1 0xE0 DUP6 ADD DUP5 MSTORE DUP1 SLOAD DUP6 MSTORE PUSH1 0x1 DUP1 DUP3 ADD SLOAD SWAP1 SWAP3 AND DUP6 DUP5 ADD MSTORE PUSH1 0x2 DUP1 DUP3 ADD SLOAD DUP7 DUP7 ADD MSTORE PUSH1 0x3 DUP3 ADD SLOAD PUSH1 0x60 DUP8 ADD MSTORE PUSH1 0x4 DUP3 ADD SLOAD PUSH1 0xFF DUP2 AND ISZERO ISZERO PUSH1 0x80 DUP9 ADD MSTORE PUSH4 0xFFFFFFFF PUSH2 0x100 SWAP2 DUP3 SWAP1 DIV AND PUSH1 0xA0 DUP9 ADD MSTORE PUSH1 0x5 DUP4 ADD DUP1 SLOAD DUP8 MLOAD PUSH1 0x1F PUSH1 0x0 NOT SWAP8 DUP4 AND ISZERO SWAP1 SWAP5 MUL SWAP7 SWAP1 SWAP7 ADD AND SWAP3 SWAP1 SWAP3 DIV SWAP1 DUP2 ADD DUP6 SWAP1 DIV DUP6 MUL DUP5 ADD DUP6 ADD SWAP1 SWAP6 MSTORE DUP5 DUP4 MSTORE SWAP1 SWAP4 PUSH1 0xC0 DUP7 ADD SWAP4 DUP4 ADD DUP3 DUP3 DUP1 ISZERO PUSH2 0x1814 JUMPI DUP1 PUSH1 0x1F LT PUSH2 0x17E9 JUMPI PUSH2 0x100 DUP1 DUP4 SLOAD DIV MUL DUP4 MSTORE SWAP2 PUSH1 0x20 ADD SWAP2 PUSH2 0x1814 JUMP JUMPDEST DUP3 ADD SWAP2 SWAP1 PUSH1 0x0 MSTORE PUSH1 0x20 PUSH1 0x0 KECCAK256 SWAP1 JUMPDEST DUP2 SLOAD DUP2 MSTORE SWAP1 PUSH1 0x1 ADD SWAP1 PUSH1 0x20 ADD DUP1 DUP4 GT PUSH2 0x17F7 JUMPI DUP3 SWAP1 SUB PUSH1 0x1F AND DUP3 ADD SWAP2 JUMPDEST POP POP POP POP POP DUP2 MSTORE POP POP SWAP1 POP SWAP3 SWAP2 POP POP JUMP JUMPDEST DUP2 MLOAD PUSH1 0x20 DUP2 DUP5 ADD DUP2 ADD DUP1 MLOAD PUSH1 0x7 DUP3 MSTORE SWAP3 DUP3 ADD SWAP5 DUP3 ADD SWAP5 SWAP1 SWAP5 KECCAK256 SWAP2 SWAP1 SWAP4 MSTORE SWAP1 SWAP2 MSTORE PUSH1 0x0 SWAP1 DUP2 MSTORE PUSH1 0x40 SWAP1 KECCAK256 SLOAD PUSH1 0xFF AND DUP2 JUMP JUMPDEST PUSH1 0x0 PUSH1 0x4 DUP5 PUSH1 0x40 MLOAD PUSH2 0x1867 SWAP2 SWAP1 PUSH2 0x356A JUMP JUMPDEST SWAP1 DUP2 MSTORE PUSH1 0x40 MLOAD SWAP1 DUP2 SWAP1 SUB PUSH1 0x20 ADD SWAP1 KECCAK256 DUP1 SLOAD SWAP1 SWAP2 POP PUSH1 0x2 PUSH1 0x0 NOT PUSH2 0x100 PUSH1 0x1 DUP5 AND ISZERO MUL ADD SWAP1 SWAP2 AND DIV PUSH2 0x18AA JUMPI PUSH1 0x40 MLOAD PUSH3 0x461BCD PUSH1 0xE5 SHL DUP2 MSTORE PUSH1 0x4 ADD PUSH2 0x4AB SWAP1 PUSH2 0x3866 JUMP JUMPDEST PUSH1 0x8 DUP2 ADD SLOAD PUSH1 0xFF AND PUSH2 0x18CE JUMPI PUSH1 0x40 MLOAD PUSH3 0x461BCD PUSH1 0xE5 SHL DUP2 MSTORE PUSH1 0x4 ADD PUSH2 0x4AB SWAP1 PUSH2 0x38F1 JUMP JUMPDEST PUSH1 0x0 DUP4 GT PUSH2 0x18EE JUMPI PUSH1 0x40 MLOAD PUSH3 0x461BCD PUSH1 0xE5 SHL DUP2 MSTORE PUSH1 0x4 ADD PUSH2 0x4AB SWAP1 PUSH2 0x3815 JUMP JUMPDEST PUSH2 0x1923 PUSH1 0x1 PUSH1 0x1 PUSH1 0xA0 SHL SUB PUSH32 0x0 AND CALLER ADDRESS DUP7 PUSH2 0x22BD JUMP JUMPDEST PUSH1 0x5 DUP2 ADD DUP1 SLOAD PUSH1 0x1 ADD SWAP1 DUP2 SWAP1 SSTORE PUSH1 0x7 DUP3 ADD DUP1 SLOAD DUP6 ADD SWAP1 SSTORE PUSH1 0x40 DUP1 MLOAD PUSH1 0xE0 DUP2 ADD DUP3 MSTORE SWAP2 DUP3 MSTORE CALLER PUSH1 0x20 DUP4 ADD MSTORE DUP2 DUP2 ADD DUP6 SWAP1 MSTORE TIMESTAMP PUSH1 0x60 DUP4 ADD MSTORE PUSH1 0x0 PUSH1 0x80 DUP4 ADD MSTORE PUSH1 0x6 PUSH1 0xA0 DUP4 ADD DUP2 SWAP1 MSTORE PUSH1 0xC0 DUP4 ADD DUP6 SWAP1 MSTORE SWAP1 MLOAD PUSH2 0x197D SWAP1 DUP8 SWAP1 PUSH2 0x356A JUMP JUMPDEST SWAP1 DUP2 MSTORE PUSH1 0x40 DUP1 MLOAD PUSH1 0x20 SWAP3 DUP2 SWAP1 SUB DUP4 ADD SWAP1 KECCAK256 CALLER PUSH1 0x0 SWAP1 DUP2 MSTORE SWAP1 DUP4 MSTORE DUP2 SWAP1 KECCAK256 DUP4 MLOAD DUP2 SSTORE DUP4 DUP4 ADD MLOAD PUSH1 0x1 DUP3 ADD DUP1 SLOAD PUSH1 0x1 PUSH1 0x1 PUSH1 0xA0 SHL SUB NOT AND PUSH1 0x1 PUSH1 0x1 PUSH1 0xA0 SHL SUB SWAP1 SWAP3 AND SWAP2 SWAP1 SWAP2 OR SWAP1 SSTORE SWAP1 DUP4 ADD MLOAD PUSH1 0x2 DUP3 ADD SSTORE PUSH1 0x60 DUP4 ADD MLOAD PUSH1 0x3 DUP3 ADD SSTORE PUSH1 0x80 DUP4 ADD MLOAD PUSH1 0x4 DUP3 ADD DUP1 SLOAD PUSH1 0xA0 DUP7 ADD MLOAD PUSH1 0xFF NOT SWAP1 SWAP2 AND SWAP3 ISZERO ISZERO SWAP3 SWAP1 SWAP3 OR PUSH5 0xFFFFFFFF00 NOT AND PUSH2 0x100 PUSH4 0xFFFFFFFF SWAP1 SWAP4 AND SWAP3 SWAP1 SWAP3 MUL SWAP2 SWAP1 SWAP2 OR SWAP1 SSTORE PUSH1 0xC0 DUP4 ADD MLOAD DUP1 MLOAD SWAP2 SWAP3 PUSH2 0x1A2B SWAP3 PUSH1 0x5 DUP6 ADD SWAP3 SWAP1 SWAP2 ADD SWAP1 PUSH2 0x2E24 JUMP JUMPDEST POP POP PUSH1 0x40 MLOAD CALLER SWAP2 POP PUSH32 0xAC9F2E8DFE0227CFBB82FC983A4B15E8352A7558D2688723E679F4BC157A2672 SWAP1 PUSH2 0x1A69 SWAP1 DUP8 SWAP1 PUSH1 0x6 SWAP1 DUP9 SWAP1 TIMESTAMP SWAP1 DUP10 SWAP1 PUSH2 0x372C JUMP JUMPDEST PUSH1 0x40 MLOAD DUP1 SWAP2 SUB SWAP1 LOG2 POP POP POP POP JUMP JUMPDEST PUSH1 0x3 SLOAD SWAP1 JUMP JUMPDEST DUP1 MLOAD PUSH1 0x20 DUP2 DUP4 ADD DUP2 ADD DUP1 MLOAD PUSH1 0x4 DUP3 MSTORE SWAP3 DUP3 ADD SWAP4 DUP3 ADD SWAP4 SWAP1 SWAP4 KECCAK256 SWAP2 SWAP1 SWAP3 MSTORE DUP1 SLOAD PUSH1 0x40 DUP1 MLOAD PUSH1 0x2 PUSH1 0x1 DUP5 AND ISZERO PUSH2 0x100 MUL PUSH1 0x0 NOT ADD SWAP1 SWAP4 AND SWAP3 SWAP1 SWAP3 DIV PUSH1 0x1F DUP2 ADD DUP6 SWAP1 DIV DUP6 MUL DUP4 ADD DUP6 ADD SWAP1 SWAP2 MSTORE DUP1 DUP3 MSTORE SWAP2 SWAP3 SWAP1 SWAP2 DUP4 SWAP2 DUP4 ADD DUP3 DUP3 DUP1 ISZERO PUSH2 0x1B20 JUMPI DUP1 PUSH1 0x1F LT PUSH2 0x1AF5 JUMPI PUSH2 0x100 DUP1 DUP4 SLOAD DIV MUL DUP4 MSTORE SWAP2 PUSH1 0x20 ADD SWAP2 PUSH2 0x1B20 JUMP JUMPDEST DUP3 ADD SWAP2 SWAP1 PUSH1 0x0 MSTORE PUSH1 0x20 PUSH1 0x0 KECCAK256 SWAP1 JUMPDEST DUP2 SLOAD DUP2 MSTORE SWAP1 PUSH1 0x1 ADD SWAP1 PUSH1 0x20 ADD DUP1 DUP4 GT PUSH2 0x1B03 JUMPI DUP3 SWAP1 SUB PUSH1 0x1F AND DUP3 ADD SWAP2 JUMPDEST POP POP POP POP PUSH1 0x1 DUP4 DUP2 ADD SLOAD PUSH1 0x2 DUP1 DUP7 ADD DUP1 SLOAD PUSH1 0x40 DUP1 MLOAD PUSH1 0x20 PUSH2 0x100 SWAP8 DUP5 AND ISZERO DUP9 MUL PUSH1 0x0 NOT ADD SWAP1 SWAP4 AND SWAP5 SWAP1 SWAP5 DIV PUSH1 0x1F DUP2 ADD DUP4 SWAP1 DIV DUP4 MUL DUP6 ADD DUP4 ADD SWAP1 SWAP2 MSTORE DUP1 DUP5 MSTORE SWAP7 SWAP8 PUSH1 0xFF DUP1 DUP7 AND SWAP9 SWAP7 SWAP1 SWAP6 DIV SWAP1 SWAP5 AND SWAP6 POP SWAP3 SWAP4 SWAP2 SWAP3 SWAP1 SWAP2 SWAP1 DUP4 ADD DUP3 DUP3 DUP1 ISZERO PUSH2 0x1BC7 JUMPI DUP1 PUSH1 0x1F LT PUSH2 0x1B9C JUMPI PUSH2 0x100 DUP1 DUP4 SLOAD DIV MUL DUP4 MSTORE SWAP2 PUSH1 0x20 ADD SWAP2 PUSH2 0x1BC7 JUMP JUMPDEST DUP3 ADD SWAP2 SWAP1 PUSH1 0x0 MSTORE PUSH1 0x20 PUSH1 0x0 KECCAK256 SWAP1 JUMPDEST DUP2 SLOAD DUP2 MSTORE SWAP1 PUSH1 0x1 ADD SWAP1 PUSH1 0x20 ADD DUP1 DUP4 GT PUSH2 0x1BAA JUMPI DUP3 SWAP1 SUB PUSH1 0x1F AND DUP3 ADD SWAP2 JUMPDEST POP POP POP PUSH1 0x3 DUP5 ADD SLOAD PUSH1 0x4 DUP6 ADD SLOAD PUSH1 0x5 DUP7 ADD SLOAD PUSH1 0x6 DUP8 ADD SLOAD PUSH1 0x7 DUP9 ADD SLOAD PUSH1 0x8 SWAP1 SWAP9 ADD SLOAD SWAP7 SWAP8 SWAP4 SWAP7 SWAP3 SWAP6 POP SWAP1 SWAP4 POP SWAP2 SWAP1 PUSH1 0xFF AND DUP11 JUMP JUMPDEST PUSH2 0x1C03 PUSH2 0x2069 JUMP JUMPDEST PUSH1 0x1 PUSH1 0x1 PUSH1 0xA0 SHL SUB AND PUSH2 0x1C14 PUSH2 0x15FE JUMP JUMPDEST PUSH1 0x1 PUSH1 0x1 PUSH1 0xA0 SHL SUB AND EQ PUSH2 0x1C5D JUMPI PUSH1 0x40 DUP1 MLOAD PUSH3 0x461BCD PUSH1 0xE5 SHL DUP2 MSTORE PUSH1 0x20 PUSH1 0x4 DUP3 ADD DUP2 SWAP1 MSTORE PUSH1 0x24 DUP3 ADD MSTORE PUSH1 0x0 DUP1 MLOAD PUSH1 0x20 PUSH2 0x3CEF DUP4 CODECOPY DUP2 MLOAD SWAP2 MSTORE PUSH1 0x44 DUP3 ADD MSTORE SWAP1 MLOAD SWAP1 DUP2 SWAP1 SUB PUSH1 0x64 ADD SWAP1 REVERT JUMPDEST PUSH1 0x2 DUP1 SLOAD PUSH1 0x1 PUSH1 0x1 PUSH1 0xA0 SHL SUB NOT AND PUSH1 0x1 PUSH1 0x1 PUSH1 0xA0 SHL SUB SWAP3 SWAP1 SWAP3 AND SWAP2 SWAP1 SWAP2 OR SWAP1 SSTORE JUMP JUMPDEST PUSH1 0x60 PUSH1 0x3 DUP1 SLOAD DUP1 PUSH1 0x20 MUL PUSH1 0x20 ADD PUSH1 0x40 MLOAD SWAP1 DUP2 ADD PUSH1 0x40 MSTORE DUP1 SWAP3 SWAP2 SWAP1 DUP2 DUP2 MSTORE PUSH1 0x20 ADD PUSH1 0x0 SWAP1 JUMPDEST DUP3 DUP3 LT ISZERO PUSH2 0x1D4E JUMPI PUSH1 0x0 DUP5 DUP2 MSTORE PUSH1 0x20 SWAP1 DUP2 SWAP1 KECCAK256 DUP4 ADD DUP1 SLOAD PUSH1 0x40 DUP1 MLOAD PUSH1 0x1F PUSH1 0x2 PUSH1 0x0 NOT PUSH2 0x100 PUSH1 0x1 DUP8 AND ISZERO MUL ADD SWAP1 SWAP5 AND SWAP4 SWAP1 SWAP4 DIV SWAP3 DUP4 ADD DUP6 SWAP1 DIV DUP6 MUL DUP2 ADD DUP6 ADD SWAP1 SWAP2 MSTORE DUP2 DUP2 MSTORE SWAP3 DUP4 ADD DUP3 DUP3 DUP1 ISZERO PUSH2 0x1D3A JUMPI DUP1 PUSH1 0x1F LT PUSH2 0x1D0F JUMPI PUSH2 0x100 DUP1 DUP4 SLOAD DIV MUL DUP4 MSTORE SWAP2 PUSH1 0x20 ADD SWAP2 PUSH2 0x1D3A JUMP JUMPDEST DUP3 ADD SWAP2 SWAP1 PUSH1 0x0 MSTORE PUSH1 0x20 PUSH1 0x0 KECCAK256 SWAP1 JUMPDEST DUP2 SLOAD DUP2 MSTORE SWAP1 PUSH1 0x1 ADD SWAP1 PUSH1 0x20 ADD DUP1 DUP4 GT PUSH2 0x1D1D JUMPI DUP3 SWAP1 SUB PUSH1 0x1F AND DUP3 ADD SWAP2 JUMPDEST POP POP POP POP POP DUP2 MSTORE PUSH1 0x20 ADD SWAP1 PUSH1 0x1 ADD SWAP1 PUSH2 0x1CA3 JUMP JUMPDEST POP POP POP POP SWAP1 POP SWAP1 JUMP JUMPDEST PUSH2 0x1D5F PUSH2 0x2069 JUMP JUMPDEST PUSH1 0x1 PUSH1 0x1 PUSH1 0xA0 SHL SUB AND PUSH2 0x1D70 PUSH2 0x15FE JUMP JUMPDEST PUSH1 0x1 PUSH1 0x1 PUSH1 0xA0 SHL SUB AND EQ PUSH2 0x1DB9 JUMPI PUSH1 0x40 DUP1 MLOAD PUSH3 0x461BCD PUSH1 0xE5 SHL DUP2 MSTORE PUSH1 0x20 PUSH1 0x4 DUP3 ADD DUP2 SWAP1 MSTORE PUSH1 0x24 DUP3 ADD MSTORE PUSH1 0x0 DUP1 MLOAD PUSH1 0x20 PUSH2 0x3CEF DUP4 CODECOPY DUP2 MLOAD SWAP2 MSTORE PUSH1 0x44 DUP3 ADD MSTORE SWAP1 MLOAD SWAP1 DUP2 SWAP1 SUB PUSH1 0x64 ADD SWAP1 REVERT JUMPDEST PUSH1 0x1 PUSH1 0x1 PUSH1 0xA0 SHL SUB DUP2 AND PUSH2 0x1DFE JUMPI PUSH1 0x40 MLOAD PUSH3 0x461BCD PUSH1 0xE5 SHL DUP2 MSTORE PUSH1 0x4 ADD DUP1 DUP1 PUSH1 0x20 ADD DUP3 DUP2 SUB DUP3 MSTORE PUSH1 0x26 DUP2 MSTORE PUSH1 0x20 ADD DUP1 PUSH2 0x3C3E PUSH1 0x26 SWAP2 CODECOPY PUSH1 0x40 ADD SWAP2 POP POP PUSH1 0x40 MLOAD DUP1 SWAP2 SUB SWAP1 REVERT JUMPDEST PUSH1 0x0 DUP1 SLOAD PUSH1 0x40 MLOAD PUSH1 0x1 PUSH1 0x1 PUSH1 0xA0 SHL SUB DUP1 DUP6 AND SWAP4 SWAP3 AND SWAP2 PUSH32 0x8BE0079C531659141344CD1FD0A4F28419497F9722A3DAAFE3B4186F6B6457E0 SWAP2 LOG3 PUSH1 0x0 DUP1 SLOAD PUSH1 0x1 PUSH1 0x1 PUSH1 0xA0 SHL SUB NOT AND PUSH1 0x1 PUSH1 0x1 PUSH1 0xA0 SHL SUB SWAP3 SWAP1 SWAP3 AND SWAP2 SWAP1 SWAP2 OR SWAP1 SSTORE JUMP JUMPDEST PUSH2 0x1E61 PUSH2 0x2069 JUMP JUMPDEST PUSH1 0x1 PUSH1 0x1 PUSH1 0xA0 SHL SUB AND PUSH2 0x1E72 PUSH2 0x15FE JUMP JUMPDEST PUSH1 0x1 PUSH1 0x1 PUSH1 0xA0 SHL SUB AND EQ PUSH2 0x1EBB JUMPI PUSH1 0x40 DUP1 MLOAD PUSH3 0x461BCD PUSH1 0xE5 SHL DUP2 MSTORE PUSH1 0x20 PUSH1 0x4 DUP3 ADD DUP2 SWAP1 MSTORE PUSH1 0x24 DUP3 ADD MSTORE PUSH1 0x0 DUP1 MLOAD PUSH1 0x20 PUSH2 0x3CEF DUP4 CODECOPY DUP2 MLOAD SWAP2 MSTORE PUSH1 0x44 DUP3 ADD MSTORE SWAP1 MLOAD SWAP1 DUP2 SWAP1 SUB PUSH1 0x64 ADD SWAP1 REVERT JUMPDEST PUSH1 0x0 PUSH1 0x4 DUP3 PUSH1 0x40 MLOAD PUSH2 0x1ECD SWAP2 SWAP1 PUSH2 0x356A JUMP JUMPDEST SWAP1 DUP2 MSTORE PUSH1 0x40 MLOAD SWAP1 DUP2 SWAP1 SUB PUSH1 0x20 ADD SWAP1 KECCAK256 DUP1 SLOAD SWAP1 SWAP2 POP PUSH1 0x2 PUSH1 0x0 NOT PUSH2 0x100 PUSH1 0x1 DUP5 AND ISZERO MUL ADD SWAP1 SWAP2 AND DIV PUSH2 0x1F10 JUMPI PUSH1 0x40 MLOAD PUSH3 0x461BCD PUSH1 0xE5 SHL DUP2 MSTORE PUSH1 0x4 ADD PUSH2 0x4AB SWAP1 PUSH2 0x3866 JUMP JUMPDEST PUSH1 0x8 DUP2 ADD DUP1 SLOAD PUSH1 0xFF NOT DUP2 AND PUSH1 0xFF SWAP1 SWAP2 AND ISZERO OR SWAP1 SSTORE PUSH1 0x40 MLOAD PUSH2 0x1F32 SWAP1 DUP4 SWAP1 PUSH2 0x356A JUMP JUMPDEST PUSH1 0x40 MLOAD SWAP1 DUP2 SWAP1 SUB DUP2 KECCAK256 PUSH1 0x8 DUP4 ADD SLOAD SWAP1 SWAP2 PUSH32 0xCF04787A730DEFF0C06F98FBBE7289EB4198E7DF16426BA7734123EF2B06B74 SWAP2 PUSH2 0x1F73 SWAP2 PUSH1 0xFF SWAP1 SWAP2 AND SWAP1 PUSH2 0x3615 JUMP JUMPDEST PUSH1 0x40 MLOAD DUP1 SWAP2 SUB SWAP1 LOG2 POP POP JUMP JUMPDEST PUSH1 0x1 SLOAD PUSH1 0x1 PUSH1 0x1 PUSH1 0xA0 SHL SUB AND DUP2 JUMP JUMPDEST PUSH1 0x8 PUSH1 0x20 MSTORE DUP2 PUSH1 0x0 MSTORE PUSH1 0x40 PUSH1 0x0 KECCAK256 DUP2 DUP2 SLOAD DUP2 LT PUSH2 0x1FAA JUMPI PUSH1 0x0 DUP1 REVERT JUMPDEST PUSH1 0x0 SWAP2 DUP3 MSTORE PUSH1 0x20 SWAP2 DUP3 SWAP1 KECCAK256 ADD DUP1 SLOAD PUSH1 0x40 DUP1 MLOAD PUSH1 0x1F PUSH1 0x2 PUSH1 0x0 NOT PUSH2 0x100 PUSH1 0x1 DUP8 AND ISZERO MUL ADD SWAP1 SWAP5 AND SWAP4 SWAP1 SWAP4 DIV SWAP3 DUP4 ADD DUP6 SWAP1 DIV DUP6 MUL DUP2 ADD DUP6 ADD SWAP1 SWAP2 MSTORE DUP2 DUP2 MSTORE SWAP5 POP SWAP1 SWAP3 POP SWAP1 DUP4 ADD DUP3 DUP3 DUP1 ISZERO PUSH2 0xE7E JUMPI DUP1 PUSH1 0x1F LT PUSH2 0xE53 JUMPI PUSH2 0x100 DUP1 DUP4 SLOAD DIV MUL DUP4 MSTORE SWAP2 PUSH1 0x20 ADD SWAP2 PUSH2 0xE7E JUMP JUMPDEST PUSH1 0x40 DUP1 MLOAD PUSH1 0x1 PUSH1 0x1 PUSH1 0xA0 SHL SUB DUP5 AND PUSH1 0x24 DUP3 ADD MSTORE PUSH1 0x44 DUP1 DUP3 ADD DUP5 SWAP1 MSTORE DUP3 MLOAD DUP1 DUP4 SUB SWAP1 SWAP2 ADD DUP2 MSTORE PUSH1 0x64 SWAP1 SWAP2 ADD SWAP1 SWAP2 MSTORE PUSH1 0x20 DUP2 ADD DUP1 MLOAD PUSH1 0x1 PUSH1 0x1 PUSH1 0xE0 SHL SUB AND PUSH4 0xA9059CBB PUSH1 0xE0 SHL OR SWAP1 MSTORE PUSH2 0x2064 SWAP1 DUP5 SWAP1 PUSH2 0x231D JUMP JUMPDEST POP POP POP JUMP JUMPDEST CALLER SWAP1 JUMP JUMPDEST DUP2 MLOAD PUSH1 0x0 SWAP1 PUSH1 0x20 DUP5 ADD PUSH2 0x2088 PUSH5 0xFFFFFFFFFF DUP6 AND DUP3 DUP5 PUSH2 0x23CE JUMP JUMPDEST SWAP6 SWAP5 POP POP POP POP POP JUMP JUMPDEST PUSH2 0x20A0 PUSH3 0xFFFFFF NOT DUP3 AND PUSH2 0x2413 JUMP JUMPDEST PUSH2 0x20E5 JUMPI PUSH1 0x40 DUP1 MLOAD PUSH3 0x461BCD PUSH1 0xE5 SHL DUP2 MSTORE PUSH1 0x20 PUSH1 0x4 DUP3 ADD MSTORE PUSH1 0x11 PUSH1 0x24 DUP3 ADD MSTORE PUSH17 0x4D616C666F726D6564206D657373616765 PUSH1 0x78 SHL PUSH1 0x44 DUP3 ADD MSTORE SWAP1 MLOAD SWAP1 DUP2 SWAP1 SUB PUSH1 0x64 ADD SWAP1 REVERT JUMPDEST PUSH1 0xE4 PUSH2 0x20F6 PUSH3 0xFFFFFF NOT DUP4 AND PUSH2 0x218A JUMP JUMPDEST PUSH1 0x1 PUSH1 0x1 PUSH1 0x60 SHL SUB AND LT ISZERO PUSH2 0xDDA JUMPI PUSH1 0x40 DUP1 MLOAD PUSH3 0x461BCD PUSH1 0xE5 SHL DUP2 MSTORE PUSH1 0x20 PUSH1 0x4 DUP3 ADD MSTORE PUSH1 0x1F PUSH1 0x24 DUP3 ADD MSTORE PUSH32 0x496E76616C6964206275726E206D6573736167653A20746F6F2073686F727400 PUSH1 0x44 DUP3 ADD MSTORE SWAP1 MLOAD SWAP1 DUP2 SWAP1 SUB PUSH1 0x64 ADD SWAP1 REVERT JUMPDEST PUSH1 0x0 PUSH2 0x2184 PUSH1 0xE4 DUP1 PUSH2 0x2169 PUSH3 0xFFFFFF NOT DUP7 AND PUSH2 0x218A JUMP JUMPDEST PUSH3 0xFFFFFF NOT DUP7 AND SWAP3 SWAP2 PUSH1 0x1 PUSH1 0x1 PUSH1 0x60 SHL SUB SWAP2 SUB AND PUSH1 0x0 PUSH2 0x2450 JUMP JUMPDEST SWAP3 SWAP2 POP POP JUMP JUMPDEST PUSH1 0x18 SHR PUSH1 0x1 PUSH1 0x1 PUSH1 0x60 SHL SUB AND SWAP1 JUMP JUMPDEST PUSH1 0x60 PUSH1 0x0 DUP1 PUSH2 0x21A7 DUP5 PUSH2 0x218A JUMP JUMPDEST PUSH1 0x1 PUSH1 0x1 PUSH1 0x60 SHL SUB AND SWAP1 POP PUSH1 0x40 MLOAD SWAP2 POP DUP2 SWAP3 POP PUSH2 0x21C7 DUP5 DUP4 PUSH1 0x20 ADD PUSH2 0x24C1 JUMP JUMPDEST POP DUP2 DUP2 ADD PUSH1 0x20 ADD PUSH1 0x40 MSTORE SWAP1 MSTORE SWAP2 SWAP1 POP JUMP JUMPDEST PUSH1 0x0 PUSH2 0x2184 PUSH3 0xFFFFFF NOT DUP4 AND PUSH2 0x25FD JUMP JUMPDEST PUSH1 0x0 DUP1 PUSH32 0x5C64A8A74CFA7615128BCDFEEE4695403156B321BC1F0F1DD1A0B09D3618731E DUP8 DUP8 DUP8 DUP1 MLOAD SWAP1 PUSH1 0x20 ADD KECCAK256 DUP8 PUSH1 0x40 MLOAD PUSH1 0x20 ADD PUSH2 0x222C SWAP6 SWAP5 SWAP4 SWAP3 SWAP2 SWAP1 PUSH2 0x3629 JUMP JUMPDEST PUSH1 0x40 MLOAD PUSH1 0x20 DUP2 DUP4 SUB SUB DUP2 MSTORE SWAP1 PUSH1 0x40 MSTORE DUP1 MLOAD SWAP1 PUSH1 0x20 ADD KECCAK256 SWAP1 POP PUSH1 0x0 PUSH32 0x0 DUP3 PUSH1 0x40 MLOAD PUSH1 0x20 ADD PUSH2 0x2279 SWAP3 SWAP2 SWAP1 PUSH2 0x3586 JUMP JUMPDEST PUSH1 0x40 DUP1 MLOAD PUSH1 0x1F NOT DUP2 DUP5 SUB ADD DUP2 MSTORE SWAP2 SWAP1 MSTORE DUP1 MLOAD PUSH1 0x20 SWAP1 SWAP2 ADD KECCAK256 SWAP1 POP PUSH1 0x0 PUSH2 0x229F DUP3 DUP7 PUSH2 0x2612 JUMP JUMPDEST PUSH1 0x1 SLOAD PUSH1 0x1 PUSH1 0x1 PUSH1 0xA0 SHL SUB SWAP1 DUP2 AND SWAP2 AND EQ SWAP10 SWAP9 POP POP POP POP POP POP POP POP POP JUMP JUMPDEST PUSH1 0x40 DUP1 MLOAD PUSH1 0x1 PUSH1 0x1 PUSH1 0xA0 SHL SUB DUP1 DUP7 AND PUSH1 0x24 DUP4 ADD MSTORE DUP5 AND PUSH1 0x44 DUP3 ADD MSTORE PUSH1 0x64 DUP1 DUP3 ADD DUP5 SWAP1 MSTORE DUP3 MLOAD DUP1 DUP4 SUB SWAP1 SWAP2 ADD DUP2 MSTORE PUSH1 0x84 SWAP1 SWAP2 ADD SWAP1 SWAP2 MSTORE PUSH1 0x20 DUP2 ADD DUP1 MLOAD PUSH1 0x1 PUSH1 0x1 PUSH1 0xE0 SHL SUB AND PUSH4 0x23B872DD PUSH1 0xE0 SHL OR SWAP1 MSTORE PUSH2 0x2317 SWAP1 DUP6 SWAP1 PUSH2 0x231D JUMP JUMPDEST POP POP POP POP JUMP JUMPDEST PUSH1 0x0 PUSH2 0x2372 DUP3 PUSH1 0x40 MLOAD DUP1 PUSH1 0x40 ADD PUSH1 0x40 MSTORE DUP1 PUSH1 0x20 DUP2 MSTORE PUSH1 0x20 ADD PUSH32 0x5361666545524332303A206C6F772D6C6576656C2063616C6C206661696C6564 DUP2 MSTORE POP DUP6 PUSH1 0x1 PUSH1 0x1 PUSH1 0xA0 SHL SUB AND PUSH2 0x2688 SWAP1 SWAP3 SWAP2 SWAP1 PUSH4 0xFFFFFFFF AND JUMP JUMPDEST DUP1 MLOAD SWAP1 SWAP2 POP ISZERO PUSH2 0x2064 JUMPI DUP1 DUP1 PUSH1 0x20 ADD SWAP1 MLOAD PUSH1 0x20 DUP2 LT ISZERO PUSH2 0x2391 JUMPI PUSH1 0x0 DUP1 REVERT JUMPDEST POP MLOAD PUSH2 0x2064 JUMPI PUSH1 0x40 MLOAD PUSH3 0x461BCD PUSH1 0xE5 SHL DUP2 MSTORE PUSH1 0x4 ADD DUP1 DUP1 PUSH1 0x20 ADD DUP3 DUP2 SUB DUP3 MSTORE PUSH1 0x2A DUP2 MSTORE PUSH1 0x20 ADD DUP1 PUSH2 0x3D49 PUSH1 0x2A SWAP2 CODECOPY PUSH1 0x40 ADD SWAP2 POP POP PUSH1 0x40 MLOAD DUP1 SWAP2 SUB SWAP1 REVERT JUMPDEST PUSH1 0x0 DUP1 PUSH2 0x23DB DUP5 DUP5 PUSH2 0x2697 JUMP JUMPDEST SWAP1 POP PUSH1 0x40 MLOAD DUP2 GT ISZERO PUSH2 0x23EB JUMPI POP PUSH1 0x0 JUMPDEST DUP1 PUSH2 0x23FD JUMPI PUSH3 0xFFFFFF NOT SWAP2 POP POP PUSH2 0x240C JUMP JUMPDEST PUSH2 0x2408 DUP6 DUP6 DUP6 PUSH2 0x26F1 JUMP JUMPDEST SWAP2 POP POP JUMPDEST SWAP4 SWAP3 POP POP POP JUMP JUMPDEST PUSH1 0x0 PUSH2 0x241E DUP3 PUSH2 0x2704 JUMP JUMPDEST PUSH5 0xFFFFFFFFFF AND PUSH5 0xFFFFFFFFFF EQ ISZERO PUSH2 0x2439 JUMPI POP PUSH1 0x0 PUSH2 0xA19 JUMP JUMPDEST PUSH1 0x0 PUSH2 0x2444 DUP4 PUSH2 0x270A JUMP JUMPDEST PUSH1 0x40 MLOAD LT ISZERO SWAP4 SWAP3 POP POP POP JUMP JUMPDEST PUSH1 0x0 DUP1 PUSH2 0x245C DUP7 PUSH2 0x272F JUMP JUMPDEST PUSH1 0x1 PUSH1 0x1 PUSH1 0x60 SHL SUB AND SWAP1 POP PUSH2 0x2470 DUP7 PUSH2 0x270A JUMP JUMPDEST PUSH2 0x2484 DUP6 PUSH2 0x247E DUP5 DUP10 PUSH2 0x2697 JUMP JUMPDEST SWAP1 PUSH2 0x2697 JUMP JUMPDEST GT ISZERO PUSH2 0x2497 JUMPI PUSH3 0xFFFFFF NOT SWAP2 POP POP PUSH2 0x24B9 JUMP JUMPDEST PUSH2 0x24A1 DUP2 DUP7 PUSH2 0x2697 JUMP JUMPDEST SWAP1 POP PUSH2 0x24B5 DUP4 PUSH5 0xFFFFFFFFFF AND DUP3 DUP7 PUSH2 0x23CE JUMP JUMPDEST SWAP2 POP POP JUMPDEST SWAP5 SWAP4 POP POP POP POP JUMP JUMPDEST PUSH1 0x0 PUSH2 0x24CC DUP4 PUSH2 0x273E JUMP JUMPDEST PUSH2 0x2507 JUMPI PUSH1 0x40 MLOAD PUSH3 0x461BCD PUSH1 0xE5 SHL DUP2 MSTORE PUSH1 0x4 ADD DUP1 DUP1 PUSH1 0x20 ADD DUP3 DUP2 SUB DUP3 MSTORE PUSH1 0x28 DUP2 MSTORE PUSH1 0x20 ADD DUP1 PUSH2 0x3D73 PUSH1 0x28 SWAP2 CODECOPY PUSH1 0x40 ADD SWAP2 POP POP PUSH1 0x40 MLOAD DUP1 SWAP2 SUB SWAP1 REVERT JUMPDEST PUSH2 0x2510 DUP4 PUSH2 0x2413 JUMP JUMPDEST PUSH2 0x254B JUMPI PUSH1 0x40 MLOAD PUSH3 0x461BCD PUSH1 0xE5 SHL DUP2 MSTORE PUSH1 0x4 ADD DUP1 DUP1 PUSH1 0x20 ADD DUP3 DUP2 SUB DUP3 MSTORE PUSH1 0x2B DUP2 MSTORE PUSH1 0x20 ADD DUP1 PUSH2 0x3D9B PUSH1 0x2B SWAP2 CODECOPY PUSH1 0x40 ADD SWAP2 POP POP PUSH1 0x40 MLOAD DUP1 SWAP2 SUB SWAP1 REVERT JUMPDEST PUSH1 0x0 PUSH2 0x2556 DUP5 PUSH2 0x218A JUMP JUMPDEST PUSH1 0x1 PUSH1 0x1 PUSH1 0x60 SHL SUB AND SWAP1 POP PUSH1 0x0 PUSH2 0x256C DUP6 PUSH2 0x272F JUMP JUMPDEST PUSH1 0x1 PUSH1 0x1 PUSH1 0x60 SHL SUB AND SWAP1 POP PUSH1 0x0 DUP1 PUSH1 0x40 MLOAD SWAP2 POP DUP6 DUP3 GT ISZERO PUSH2 0x258D JUMPI PUSH1 0x20 PUSH1 0x60 REVERT JUMPDEST DUP4 DUP7 DUP6 DUP6 PUSH1 0x4 GAS STATICCALL SWAP1 POP DUP1 PUSH2 0x25D8 JUMPI PUSH1 0x40 DUP1 MLOAD PUSH3 0x461BCD PUSH1 0xE5 SHL DUP2 MSTORE PUSH1 0x20 PUSH1 0x4 DUP3 ADD MSTORE PUSH1 0xC PUSH1 0x24 DUP3 ADD MSTORE PUSH12 0x6964656E74697479204F4F47 PUSH1 0xA0 SHL PUSH1 0x44 DUP3 ADD MSTORE SWAP1 MLOAD SWAP1 DUP2 SWAP1 SUB PUSH1 0x64 ADD SWAP1 REVERT JUMPDEST PUSH2 0x25F2 PUSH2 0x25E4 DUP9 PUSH2 0x2704 JUMP JUMPDEST PUSH5 0xFFFFFFFFFF AND DUP8 DUP7 PUSH2 0x26F1 JUMP JUMPDEST SWAP8 SWAP7 POP POP POP POP POP POP POP JUMP JUMPDEST PUSH1 0x0 PUSH2 0x2184 PUSH3 0xFFFFFF NOT DUP4 AND PUSH1 0x44 PUSH1 0x20 PUSH2 0x2750 JUMP JUMPDEST PUSH1 0x0 DUP2 MLOAD PUSH1 0x41 EQ PUSH2 0x266A JUMPI PUSH1 0x40 DUP1 MLOAD PUSH3 0x461BCD PUSH1 0xE5 SHL DUP2 MSTORE PUSH1 0x20 PUSH1 0x4 DUP3 ADD MSTORE PUSH1 0x1F PUSH1 0x24 DUP3 ADD MSTORE PUSH32 0x45434453413A20696E76616C6964207369676E6174757265206C656E67746800 PUSH1 0x44 DUP3 ADD MSTORE SWAP1 MLOAD SWAP1 DUP2 SWAP1 SUB PUSH1 0x64 ADD SWAP1 REVERT JUMPDEST PUSH1 0x20 DUP3 ADD MLOAD PUSH1 0x40 DUP4 ADD MLOAD PUSH1 0x60 DUP5 ADD MLOAD PUSH1 0x0 BYTE PUSH2 0x15E5 DUP7 DUP3 DUP6 DUP6 PUSH2 0x2771 JUMP JUMPDEST PUSH1 0x60 PUSH2 0x24B9 DUP5 DUP5 PUSH1 0x0 DUP6 PUSH2 0x28E6 JUMP JUMPDEST PUSH1 0x0 DUP3 DUP3 ADD DUP4 DUP2 LT ISZERO PUSH2 0x240C JUMPI PUSH1 0x40 DUP1 MLOAD PUSH3 0x461BCD PUSH1 0xE5 SHL DUP2 MSTORE PUSH1 0x20 PUSH1 0x4 DUP3 ADD MSTORE PUSH1 0x1B PUSH1 0x24 DUP3 ADD MSTORE PUSH32 0x536166654D6174683A206164646974696F6E206F766572666C6F770000000000 PUSH1 0x44 DUP3 ADD MSTORE SWAP1 MLOAD SWAP1 DUP2 SWAP1 SUB PUSH1 0x64 ADD SWAP1 REVERT JUMPDEST PUSH1 0x60 SWAP3 DUP4 SHL SWAP2 SWAP1 SWAP2 OR SWAP1 SWAP2 SHL OR PUSH1 0x18 SHL SWAP1 JUMP JUMPDEST PUSH1 0xD8 SHR SWAP1 JUMP JUMPDEST PUSH1 0x0 PUSH2 0x2715 DUP3 PUSH2 0x218A JUMP JUMPDEST PUSH2 0x271E DUP4 PUSH2 0x272F JUMP JUMPDEST ADD PUSH1 0x1 PUSH1 0x1 PUSH1 0x60 SHL SUB AND SWAP1 POP SWAP2 SWAP1 POP JUMP JUMPDEST PUSH1 0x78 SHR PUSH1 0x1 PUSH1 0x1 PUSH1 0x60 SHL SUB AND SWAP1 JUMP JUMPDEST PUSH1 0x0 PUSH2 0x2749 DUP3 PUSH2 0x2A36 JUMP JUMPDEST ISZERO SWAP3 SWAP2 POP POP JUMP JUMPDEST PUSH1 0x0 DUP2 PUSH1 0x20 SUB PUSH1 0x8 MUL PUSH1 0xFF AND PUSH2 0x2767 DUP6 DUP6 DUP6 PUSH2 0x2A42 JUMP JUMPDEST SWAP1 SHR SWAP5 SWAP4 POP POP POP POP JUMP JUMPDEST PUSH1 0x0 PUSH32 0x7FFFFFFFFFFFFFFFFFFFFFFFFFFFFFFF5D576E7357A4501DDFE92F46681B20A0 DUP3 GT ISZERO PUSH2 0x27D2 JUMPI PUSH1 0x40 MLOAD PUSH3 0x461BCD PUSH1 0xE5 SHL DUP2 MSTORE PUSH1 0x4 ADD DUP1 DUP1 PUSH1 0x20 ADD DUP3 DUP2 SUB DUP3 MSTORE PUSH1 0x22 DUP2 MSTORE PUSH1 0x20 ADD DUP1 PUSH2 0x3C64 PUSH1 0x22 SWAP2 CODECOPY PUSH1 0x40 ADD SWAP2 POP POP PUSH1 0x40 MLOAD DUP1 SWAP2 SUB SWAP1 REVERT JUMPDEST DUP4 PUSH1 0xFF AND PUSH1 0x1B EQ DUP1 PUSH2 0x27E7 JUMPI POP DUP4 PUSH1 0xFF AND PUSH1 0x1C EQ JUMPDEST PUSH2 0x2822 JUMPI PUSH1 0x40 MLOAD PUSH3 0x461BCD PUSH1 0xE5 SHL DUP2 MSTORE PUSH1 0x4 ADD DUP1 DUP1 PUSH1 0x20 ADD DUP3 DUP2 SUB DUP3 MSTORE PUSH1 0x22 DUP2 MSTORE PUSH1 0x20 ADD DUP1 PUSH2 0x3CCD PUSH1 0x22 SWAP2 CODECOPY PUSH1 0x40 ADD SWAP2 POP POP PUSH1 0x40 MLOAD DUP1 SWAP2 SUB SWAP1 REVERT JUMPDEST PUSH1 0x0 PUSH1 0x1 DUP7 DUP7 DUP7 DUP7 PUSH1 0x40 MLOAD PUSH1 0x0 DUP2 MSTORE PUSH1 0x20 ADD PUSH1 0x40 MSTORE PUSH1 0x40 MLOAD DUP1 DUP6 DUP2 MSTORE PUSH1 0x20 ADD DUP5 PUSH1 0xFF AND DUP2 MSTORE PUSH1 0x20 ADD DUP4 DUP2 MSTORE PUSH1 0x20 ADD DUP3 DUP2 MSTORE PUSH1 0x20 ADD SWAP5 POP POP POP POP POP PUSH1 0x20 PUSH1 0x40 MLOAD PUSH1 0x20 DUP2 SUB SWAP1 DUP1 DUP5 SUB SWAP1 DUP6 GAS STATICCALL ISZERO DUP1 ISZERO PUSH2 0x287E JUMPI RETURNDATASIZE PUSH1 0x0 DUP1 RETURNDATACOPY RETURNDATASIZE PUSH1 0x0 REVERT JUMPDEST POP POP PUSH1 0x40 MLOAD PUSH1 0x1F NOT ADD MLOAD SWAP2 POP POP PUSH1 0x1 PUSH1 0x1 PUSH1 0xA0 SHL SUB DUP2 AND PUSH2 0x2088 JUMPI PUSH1 0x40 DUP1 MLOAD PUSH3 0x461BCD PUSH1 0xE5 SHL DUP2 MSTORE PUSH1 0x20 PUSH1 0x4 DUP3 ADD MSTORE PUSH1 0x18 PUSH1 0x24 DUP3 ADD MSTORE PUSH32 0x45434453413A20696E76616C6964207369676E61747572650000000000000000 PUSH1 0x44 DUP3 ADD MSTORE SWAP1 MLOAD SWAP1 DUP2 SWAP1 SUB PUSH1 0x64 ADD SWAP1 REVERT JUMPDEST PUSH1 0x60 DUP3 SELFBALANCE LT ISZERO PUSH2 0x2927 JUMPI PUSH1 0x40 MLOAD PUSH3 0x461BCD PUSH1 0xE5 SHL DUP2 MSTORE PUSH1 0x4 ADD DUP1 DUP1 PUSH1 0x20 ADD DUP3 DUP2 SUB DUP3 MSTORE PUSH1 0x26 DUP2 MSTORE PUSH1 0x20 ADD DUP1 PUSH2 0x3C86 PUSH1 0x26 SWAP2 CODECOPY PUSH1 0x40 ADD SWAP2 POP POP PUSH1 0x40 MLOAD DUP1 SWAP2 SUB SWAP1 REVERT JUMPDEST PUSH2 0x2930 DUP6 PUSH2 0x2BA5 JUMP JUMPDEST PUSH2 0x2981 JUMPI PUSH1 0x40 DUP1 MLOAD PUSH3 0x461BCD PUSH1 0xE5 SHL DUP2 MSTORE PUSH1 0x20 PUSH1 0x4 DUP3 ADD MSTORE PUSH1 0x1D PUSH1 0x24 DUP3 ADD MSTORE PUSH32 0x416464726573733A2063616C6C20746F206E6F6E2D636F6E7472616374000000 PUSH1 0x44 DUP3 ADD MSTORE SWAP1 MLOAD SWAP1 DUP2 SWAP1 SUB PUSH1 0x64 ADD SWAP1 REVERT JUMPDEST PUSH1 0x0 DUP1 DUP7 PUSH1 0x1 PUSH1 0x1 PUSH1 0xA0 SHL SUB AND DUP6 DUP8 PUSH1 0x40 MLOAD DUP1 DUP3 DUP1 MLOAD SWAP1 PUSH1 0x20 ADD SWAP1 DUP1 DUP4 DUP4 JUMPDEST PUSH1 0x20 DUP4 LT PUSH2 0x29BF JUMPI DUP1 MLOAD DUP3 MSTORE PUSH1 0x1F NOT SWAP1 SWAP3 ADD SWAP2 PUSH1 0x20 SWAP2 DUP3 ADD SWAP2 ADD PUSH2 0x29A0 JUMP JUMPDEST PUSH1 0x1 DUP4 PUSH1 0x20 SUB PUSH2 0x100 EXP SUB DUP1 NOT DUP3 MLOAD AND DUP2 DUP5 MLOAD AND DUP1 DUP3 OR DUP6 MSTORE POP POP POP POP POP POP SWAP1 POP ADD SWAP2 POP POP PUSH1 0x0 PUSH1 0x40 MLOAD DUP1 DUP4 SUB DUP2 DUP6 DUP8 GAS CALL SWAP3 POP POP POP RETURNDATASIZE DUP1 PUSH1 0x0 DUP2 EQ PUSH2 0x2A21 JUMPI PUSH1 0x40 MLOAD SWAP2 POP PUSH1 0x1F NOT PUSH1 0x3F RETURNDATASIZE ADD AND DUP3 ADD PUSH1 0x40 MSTORE RETURNDATASIZE DUP3 MSTORE RETURNDATASIZE PUSH1 0x0 PUSH1 0x20 DUP5 ADD RETURNDATACOPY PUSH2 0x2A26 JUMP JUMPDEST PUSH1 0x60 SWAP2 POP JUMPDEST POP SWAP2 POP SWAP2 POP PUSH2 0x25F2 DUP3 DUP3 DUP7 PUSH2 0x2BAB JUMP JUMPDEST PUSH3 0xFFFFFF NOT SWAP1 DUP2 AND EQ SWAP1 JUMP JUMPDEST PUSH1 0x0 PUSH1 0xFF DUP3 AND PUSH2 0x2A54 JUMPI POP PUSH1 0x0 PUSH2 0x240C JUMP JUMPDEST PUSH2 0x2A5D DUP5 PUSH2 0x218A JUMP JUMPDEST PUSH1 0x1 PUSH1 0x1 PUSH1 0x60 SHL SUB AND PUSH2 0x2A73 DUP5 PUSH1 0xFF DUP6 AND PUSH2 0x2697 JUMP JUMPDEST GT ISZERO PUSH2 0x2B2E JUMPI PUSH2 0x2AAA PUSH2 0x2A85 DUP6 PUSH2 0x272F JUMP JUMPDEST PUSH1 0x1 PUSH1 0x1 PUSH1 0x60 SHL SUB AND PUSH2 0x2A97 DUP7 PUSH2 0x218A JUMP JUMPDEST PUSH1 0x1 PUSH1 0x1 PUSH1 0x60 SHL SUB AND DUP6 DUP6 PUSH1 0xFF AND PUSH2 0x2C11 JUMP JUMPDEST PUSH1 0x40 MLOAD PUSH3 0x461BCD PUSH1 0xE5 SHL DUP2 MSTORE PUSH1 0x4 ADD DUP1 DUP1 PUSH1 0x20 ADD DUP3 DUP2 SUB DUP3 MSTORE DUP4 DUP2 DUP2 MLOAD DUP2 MSTORE PUSH1 0x20 ADD SWAP2 POP DUP1 MLOAD SWAP1 PUSH1 0x20 ADD SWAP1 DUP1 DUP4 DUP4 PUSH1 0x0 JUMPDEST DUP4 DUP2 LT ISZERO PUSH2 0x2AF3 JUMPI DUP2 DUP2 ADD MLOAD DUP4 DUP3 ADD MSTORE PUSH1 0x20 ADD PUSH2 0x2ADB JUMP JUMPDEST POP POP POP POP SWAP1 POP SWAP1 DUP2 ADD SWAP1 PUSH1 0x1F AND DUP1 ISZERO PUSH2 0x2B20 JUMPI DUP1 DUP3 SUB DUP1 MLOAD PUSH1 0x1 DUP4 PUSH1 0x20 SUB PUSH2 0x100 EXP SUB NOT AND DUP2 MSTORE PUSH1 0x20 ADD SWAP2 POP JUMPDEST POP SWAP3 POP POP POP PUSH1 0x40 MLOAD DUP1 SWAP2 SUB SWAP1 REVERT JUMPDEST PUSH1 0x20 DUP3 PUSH1 0xFF AND GT ISZERO PUSH2 0x2B71 JUMPI PUSH1 0x40 MLOAD PUSH3 0x461BCD PUSH1 0xE5 SHL DUP2 MSTORE PUSH1 0x4 ADD DUP1 DUP1 PUSH1 0x20 ADD DUP3 DUP2 SUB DUP3 MSTORE PUSH1 0x3A DUP2 MSTORE PUSH1 0x20 ADD DUP1 PUSH2 0x3D0F PUSH1 0x3A SWAP2 CODECOPY PUSH1 0x40 ADD SWAP2 POP POP PUSH1 0x40 MLOAD DUP1 SWAP2 SUB SWAP1 REVERT JUMPDEST PUSH1 0x8 DUP3 MUL PUSH1 0x0 PUSH2 0x2B80 DUP7 PUSH2 0x272F JUMP JUMPDEST PUSH1 0x1 PUSH1 0x1 PUSH1 0x60 SHL SUB AND SWAP1 POP PUSH1 0x0 PUSH2 0x2B96 DUP4 PUSH2 0x2D04 JUMP JUMPDEST SWAP2 SWAP1 SWAP6 ADD MLOAD AND SWAP6 SWAP5 POP POP POP POP POP JUMP JUMPDEST EXTCODESIZE ISZERO ISZERO SWAP1 JUMP JUMPDEST PUSH1 0x60 DUP4 ISZERO PUSH2 0x2BBA JUMPI POP DUP2 PUSH2 0x240C JUMP JUMPDEST DUP3 MLOAD ISZERO PUSH2 0x2BCA JUMPI DUP3 MLOAD DUP1 DUP5 PUSH1 0x20 ADD REVERT JUMPDEST PUSH1 0x40 MLOAD PUSH3 0x461BCD PUSH1 0xE5 SHL DUP2 MSTORE PUSH1 0x20 PUSH1 0x4 DUP3 ADD DUP2 DUP2 MSTORE DUP5 MLOAD PUSH1 0x24 DUP5 ADD MSTORE DUP5 MLOAD DUP6 SWAP4 SWAP2 SWAP3 DUP4 SWAP3 PUSH1 0x44 ADD SWAP2 SWAP1 DUP6 ADD SWAP1 DUP1 DUP4 DUP4 PUSH1 0x0 DUP4 ISZERO PUSH2 0x2AF3 JUMPI DUP2 DUP2 ADD MLOAD DUP4 DUP3 ADD MSTORE PUSH1 0x20 ADD PUSH2 0x2ADB JUMP JUMPDEST PUSH1 0x60 PUSH1 0x0 PUSH2 0x2C1E DUP7 PUSH2 0x2D13 JUMP JUMPDEST SWAP2 POP POP PUSH1 0x0 PUSH2 0x2C2C DUP7 PUSH2 0x2D13 JUMP JUMPDEST SWAP2 POP POP PUSH1 0x0 PUSH2 0x2C3A DUP7 PUSH2 0x2D13 JUMP JUMPDEST SWAP2 POP POP PUSH1 0x0 PUSH2 0x2C48 DUP7 PUSH2 0x2D13 JUMP JUMPDEST SWAP2 POP POP DUP4 DUP4 DUP4 DUP4 PUSH1 0x40 MLOAD PUSH1 0x20 ADD DUP1 DUP1 PUSH2 0x3DC6 PUSH1 0x35 SWAP2 CODECOPY PUSH1 0x1 PUSH1 0x1 PUSH1 0xD0 SHL SUB NOT PUSH1 0xD0 DUP8 DUP2 SHL DUP3 AND PUSH1 0x35 DUP5 ADD MSTORE PUSH15 0x40EED2E8D040D8CADCCEE8D04060F PUSH1 0x8B SHL PUSH1 0x3B DUP5 ADD MSTORE DUP7 SWAP1 SHL AND PUSH1 0x4A DUP3 ADD MSTORE PUSH1 0x50 ADD PUSH1 0x21 PUSH2 0x3CAC DUP3 CODECOPY PUSH1 0x1 PUSH1 0x1 PUSH1 0xD0 SHL SUB NOT PUSH1 0xD0 SWAP5 DUP6 SHL DUP2 AND PUSH1 0x21 DUP4 ADD MSTORE PUSH15 0x40EED2E8D040D8CADCCEE8D04060F PUSH1 0x8B SHL PUSH1 0x27 DUP4 ADD MSTORE SWAP3 SWAP1 SWAP4 SHL SWAP1 SWAP2 AND PUSH1 0x36 DUP4 ADD MSTORE POP PUSH1 0x17 PUSH1 0xF9 SHL PUSH1 0x3C DUP3 ADD MSTORE PUSH1 0x40 DUP1 MLOAD PUSH1 0x1D DUP2 DUP5 SUB ADD DUP2 MSTORE PUSH1 0x3D SWAP1 SWAP3 ADD SWAP1 MSTORE SWAP12 SWAP11 POP POP POP POP POP POP POP POP POP POP POP JUMP JUMPDEST PUSH1 0x1 PUSH1 0xFF SHL PUSH1 0x0 NOT SWAP1 SWAP2 ADD SAR SWAP1 JUMP JUMPDEST PUSH1 0x0 DUP1 PUSH1 0x1F JUMPDEST PUSH1 0xF DUP2 PUSH1 0xFF AND GT ISZERO PUSH2 0x2D5D JUMPI PUSH1 0xFF PUSH1 0x8 DUP3 MUL AND DUP5 SWAP1 SHR PUSH2 0x2D38 DUP2 PUSH2 0x2DAB JUMP JUMPDEST PUSH2 0xFFFF AND DUP5 OR SWAP4 POP DUP2 PUSH1 0xFF AND PUSH1 0x10 EQ PUSH2 0x2D53 JUMPI PUSH1 0x10 DUP5 SWAP1 SHL SWAP4 POP JUMPDEST POP PUSH1 0x0 NOT ADD PUSH2 0x2D19 JUMP JUMPDEST POP PUSH1 0xF JUMPDEST PUSH1 0xFF DUP2 PUSH1 0xFF AND LT ISZERO PUSH2 0x2DA5 JUMPI PUSH1 0xFF PUSH1 0x8 DUP3 MUL AND DUP5 SWAP1 SHR PUSH2 0x2D80 DUP2 PUSH2 0x2DAB JUMP JUMPDEST PUSH2 0xFFFF AND DUP4 OR SWAP3 POP DUP2 PUSH1 0xFF AND PUSH1 0x0 EQ PUSH2 0x2D9B JUMPI PUSH1 0x10 DUP4 SWAP1 SHL SWAP3 POP JUMPDEST POP PUSH1 0x0 NOT ADD PUSH2 0x2D61 JUMP JUMPDEST POP SWAP2 POP SWAP2 JUMP JUMPDEST PUSH1 0x0 PUSH2 0x2DBD PUSH1 0x4 DUP4 PUSH1 0xFF AND SWAP1 SHR PUSH2 0x2DDB JUMP JUMPDEST PUSH1 0xFF AND OR PUSH1 0x8 SHL PUSH3 0xFFFF00 AND PUSH2 0x2DD2 DUP3 PUSH2 0x2DDB JUMP JUMPDEST PUSH1 0xFF AND OR SWAP2 SWAP1 POP JUMP JUMPDEST PUSH1 0x40 DUP1 MLOAD DUP1 DUP3 ADD SWAP1 SWAP2 MSTORE PUSH1 0x10 DUP1 DUP3 MSTORE PUSH16 0x181899199A1A9B1B9C1CB0B131B232B3 PUSH1 0x81 SHL PUSH1 0x20 DUP4 ADD MSTORE PUSH1 0x0 SWAP2 PUSH1 0xF DUP5 AND SWAP2 DUP3 SWAP1 DUP2 LT PUSH2 0x2E15 JUMPI INVALID JUMPDEST ADD PUSH1 0x20 ADD MLOAD PUSH1 0xF8 SHR SWAP4 SWAP3 POP POP POP JUMP JUMPDEST DUP3 DUP1 SLOAD PUSH1 0x1 DUP2 PUSH1 0x1 AND ISZERO PUSH2 0x100 MUL SUB AND PUSH1 0x2 SWAP1 DIV SWAP1 PUSH1 0x0 MSTORE PUSH1 0x20 PUSH1 0x0 KECCAK256 SWAP1 PUSH1 0x1F ADD PUSH1 0x20 SWAP1 DIV DUP2 ADD SWAP3 DUP3 PUSH2 0x2E5A JUMPI PUSH1 0x0 DUP6 SSTORE PUSH2 0x2EA0 JUMP JUMPDEST DUP3 PUSH1 0x1F LT PUSH2 0x2E73 JUMPI DUP1 MLOAD PUSH1 0xFF NOT AND DUP4 DUP1 ADD OR DUP6 SSTORE PUSH2 0x2EA0 JUMP JUMPDEST DUP3 DUP1 ADD PUSH1 0x1 ADD DUP6 SSTORE DUP3 ISZERO PUSH2 0x2EA0 JUMPI SWAP2 DUP3 ADD JUMPDEST DUP3 DUP2 GT ISZERO PUSH2 0x2EA0 JUMPI DUP3 MLOAD DUP3 SSTORE SWAP2 PUSH1 0x20 ADD SWAP2 SWAP1 PUSH1 0x1 ADD SWAP1 PUSH2 0x2E85 JUMP JUMPDEST POP PUSH2 0x2EAC SWAP3 SWAP2 POP PUSH2 0x2F8C JUMP JUMPDEST POP SWAP1 JUMP JUMPDEST PUSH1 0x40 MLOAD DUP1 PUSH1 0xA0 ADD PUSH1 0x40 MSTORE DUP1 PUSH1 0x0 DUP2 MSTORE PUSH1 0x20 ADD PUSH1 0x0 DUP2 MSTORE PUSH1 0x20 ADD PUSH1 0x0 PUSH1 0x1 PUSH1 0x1 PUSH1 0xA0 SHL SUB AND DUP2 MSTORE PUSH1 0x20 ADD PUSH1 0x0 DUP2 MSTORE PUSH1 0x20 ADD PUSH1 0x0 DUP2 MSTORE POP SWAP1 JUMP JUMPDEST PUSH1 0x40 DUP1 MLOAD PUSH2 0x140 DUP2 ADD SWAP1 SWAP2 MSTORE PUSH1 0x60 DUP2 MSTORE PUSH1 0x20 DUP2 ADD PUSH1 0x0 DUP2 MSTORE PUSH1 0x20 ADD PUSH1 0x0 DUP2 MSTORE PUSH1 0x20 ADD PUSH1 0x60 DUP2 MSTORE PUSH1 0x20 ADD PUSH1 0x0 DUP2 MSTORE PUSH1 0x20 ADD PUSH1 0x0 DUP2 MSTORE PUSH1 0x20 ADD PUSH1 0x0 DUP2 MSTORE PUSH1 0x20 ADD PUSH1 0x0 DUP2 MSTORE PUSH1 0x20 ADD PUSH1 0x0 DUP2 MSTORE PUSH1 0x20 ADD PUSH1 0x0 ISZERO ISZERO DUP2 MSTORE POP SWAP1 JUMP JUMPDEST PUSH1 0x40 MLOAD DUP1 PUSH1 0xE0 ADD PUSH1 0x40 MSTORE DUP1 PUSH1 0x0 DUP2 MSTORE PUSH1 0x20 ADD PUSH1 0x0 PUSH1 0x1 PUSH1 0x1 PUSH1 0xA0 SHL SUB AND DUP2 MSTORE PUSH1 0x20 ADD PUSH1 0x0 DUP2 MSTORE PUSH1 0x20 ADD PUSH1 0x0 DUP2 MSTORE PUSH1 0x20 ADD PUSH1 0x0 ISZERO ISZERO DUP2 MSTORE PUSH1 0x20 ADD PUSH1 0x0 PUSH4 0xFFFFFFFF AND DUP2 MSTORE PUSH1 0x20 ADD PUSH1 0x60 DUP2 MSTORE POP SWAP1 JUMP JUMPDEST JUMPDEST DUP1 DUP3 GT ISZERO PUSH2 0x2EAC JUMPI PUSH1 0x0 DUP2 SSTORE PUSH1 0x1 ADD PUSH2 0x2F8D JUMP JUMPDEST PUSH1 0x0 PUSH2 0x2FB4 PUSH2 0x2FAF DUP5 PUSH2 0x3BEF JUMP JUMPDEST PUSH2 0x3BCB JUMP JUMPDEST SWAP1 POP DUP3 DUP2 MSTORE DUP4 DUP4 DUP4 ADD GT ISZERO PUSH2 0x2FC8 JUMPI PUSH1 0x0 DUP1 REVERT JUMPDEST DUP3 DUP3 PUSH1 0x20 DUP4 ADD CALLDATACOPY PUSH1 0x0 PUSH1 0x20 DUP5 DUP4 ADD ADD MSTORE SWAP4 SWAP3 POP POP POP JUMP JUMPDEST DUP1 CALLDATALOAD PUSH1 0x1 PUSH1 0x1 PUSH1 0xA0 SHL SUB DUP2 AND DUP2 EQ PUSH2 0xA19 JUMPI PUSH1 0x0 DUP1 REVERT JUMPDEST PUSH1 0x0 DUP3 PUSH1 0x1F DUP4 ADD SLT PUSH2 0x3006 JUMPI DUP1 DUP2 REVERT JUMPDEST PUSH2 0x240C DUP4 DUP4 CALLDATALOAD PUSH1 0x20 DUP6 ADD PUSH2 0x2FA1 JUMP JUMPDEST PUSH1 0x0 DUP3 PUSH1 0x1F DUP4 ADD SLT PUSH2 0x3025 JUMPI DUP1 DUP2 REVERT JUMPDEST DUP2 MLOAD PUSH2 0x3033 PUSH2 0x2FAF DUP3 PUSH2 0x3BEF JUMP JUMPDEST DUP2 DUP2 MSTORE DUP5 PUSH1 0x20 DUP4 DUP7 ADD ADD GT ISZERO PUSH2 0x3047 JUMPI DUP3 DUP4 REVERT JUMPDEST PUSH2 0x24B9 DUP3 PUSH1 0x20 DUP4 ADD PUSH1 0x20 DUP8 ADD PUSH2 0x3C11 JUMP JUMPDEST DUP1 CALLDATALOAD PUSH4 0xFFFFFFFF DUP2 AND DUP2 EQ PUSH2 0xA19 JUMPI PUSH1 0x0 DUP1 REVERT JUMPDEST PUSH1 0x0 PUSH1 0x20 DUP3 DUP5 SUB SLT ISZERO PUSH2 0x307D JUMPI DUP1 DUP2 REVERT JUMPDEST PUSH2 0x240C DUP3 PUSH2 0x2FDF JUMP JUMPDEST PUSH1 0x0 PUSH1 0x20 DUP3 DUP5 SUB SLT ISZERO PUSH2 0x3097 JUMPI DUP1 DUP2 REVERT JUMPDEST DUP2 CALLDATALOAD PUSH8 0xFFFFFFFFFFFFFFFF DUP2 GT ISZERO PUSH2 0x30AD JUMPI DUP2 DUP3 REVERT JUMPDEST PUSH2 0x24B9 DUP5 DUP3 DUP6 ADD PUSH2 0x2FF6 JUMP JUMPDEST PUSH1 0x0 DUP1 PUSH1 0x40 DUP4 DUP6 SUB SLT ISZERO PUSH2 0x30CB JUMPI DUP1 DUP2 REVERT JUMPDEST DUP3 CALLDATALOAD PUSH8 0xFFFFFFFFFFFFFFFF DUP2 GT ISZERO PUSH2 0x30E1 JUMPI DUP2 DUP3 REVERT JUMPDEST PUSH2 0x30ED DUP6 DUP3 DUP7 ADD PUSH2 0x2FF6 JUMP JUMPDEST SWAP3 POP POP PUSH2 0x30FC PUSH1 0x20 DUP5 ADD PUSH2 0x2FDF JUMP JUMPDEST SWAP1 POP SWAP3 POP SWAP3 SWAP1 POP JUMP JUMPDEST PUSH1 0x0 DUP1 PUSH1 0x0 DUP1 PUSH1 0x0 PUSH1 0xA0 DUP7 DUP9 SUB SLT ISZERO PUSH2 0x311C JUMPI DUP1 DUP2 REVERT JUMPDEST DUP6 CALLDATALOAD PUSH8 0xFFFFFFFFFFFFFFFF DUP1 DUP3 GT ISZERO PUSH2 0x3133 JUMPI DUP3 DUP4 REVERT JUMPDEST PUSH2 0x313F DUP10 DUP4 DUP11 ADD PUSH2 0x2FF6 JUMP JUMPDEST SWAP7 POP PUSH1 0x20 DUP9 ADD CALLDATALOAD SWAP2 POP PUSH1 0x4 DUP3 LT PUSH2 0x3154 JUMPI DUP3 DUP4 REVERT JUMPDEST SWAP1 SWAP5 POP PUSH1 0x40 DUP8 ADD CALLDATALOAD SWAP1 PUSH1 0x2 DUP3 LT PUSH2 0x3169 JUMPI DUP3 DUP4 REVERT JUMPDEST SWAP1 SWAP4 POP PUSH1 0x60 DUP8 ADD CALLDATALOAD SWAP1 DUP1 DUP3 GT ISZERO PUSH2 0x317E JUMPI DUP3 DUP4 REVERT JUMPDEST POP PUSH2 0x318B DUP9 DUP3 DUP10 ADD PUSH2 0x2FF6 JUMP JUMPDEST SWAP6 SWAP9 SWAP5 SWAP8 POP SWAP3 SWAP6 PUSH1 0x80 ADD CALLDATALOAD SWAP4 SWAP3 POP POP POP JUMP JUMPDEST PUSH1 0x0 DUP1 PUSH1 0x40 DUP4 DUP6 SUB SLT ISZERO PUSH2 0x31AF JUMPI DUP2 DUP3 REVERT JUMPDEST DUP3 MLOAD PUSH8 0xFFFFFFFFFFFFFFFF DUP1 DUP3 GT ISZERO PUSH2 0x31C6 JUMPI DUP4 DUP5 REVERT JUMPDEST PUSH2 0x31D2 DUP7 DUP4 DUP8 ADD PUSH2 0x3015 JUMP JUMPDEST SWAP4 POP PUSH1 0x20 DUP6 ADD MLOAD SWAP2 POP DUP1 DUP3 GT ISZERO PUSH2 0x31E7 JUMPI DUP3 DUP4 REVERT JUMPDEST POP PUSH2 0x31F4 DUP6 DUP3 DUP7 ADD PUSH2 0x3015 JUMP JUMPDEST SWAP2 POP POP SWAP3 POP SWAP3 SWAP1 POP JUMP JUMPDEST PUSH1 0x0 DUP1 PUSH1 0x40 DUP4 DUP6 SUB SLT ISZERO PUSH2 0x3210 JUMPI DUP2 DUP3 REVERT JUMPDEST DUP3 CALLDATALOAD PUSH8 0xFFFFFFFFFFFFFFFF DUP2 GT ISZERO PUSH2 0x3226 JUMPI DUP3 DUP4 REVERT JUMPDEST PUSH2 0x3232 DUP6 DUP3 DUP7 ADD PUSH2 0x2FF6 JUMP JUMPDEST SWAP6 PUSH1 0x20 SWAP5 SWAP1 SWAP5 ADD CALLDATALOAD SWAP5 POP POP POP POP JUMP JUMPDEST PUSH1 0x0 DUP1 PUSH1 0x0 PUSH1 0x60 DUP5 DUP7 SUB SLT ISZERO PUSH2 0x3255 JUMPI DUP3 DUP4 REVERT JUMPDEST DUP4 CALLDATALOAD PUSH8 0xFFFFFFFFFFFFFFFF DUP1 DUP3 GT ISZERO PUSH2 0x326C JUMPI DUP5 DUP6 REVERT JUMPDEST PUSH2 0x3278 DUP8 DUP4 DUP9 ADD PUSH2 0x2FF6 JUMP JUMPDEST SWAP5 POP PUSH1 0x20 DUP7 ADD CALLDATALOAD SWAP4 POP PUSH1 0x40 DUP7 ADD CALLDATALOAD SWAP2 POP DUP1 DUP3 GT ISZERO PUSH2 0x3294 JUMPI DUP3 DUP4 REVERT JUMPDEST POP PUSH2 0x32A1 DUP7 DUP3 DUP8 ADD PUSH2 0x2FF6 JUMP JUMPDEST SWAP2 POP POP SWAP3 POP SWAP3 POP SWAP3 JUMP JUMPDEST PUSH1 0x0 DUP1 PUSH1 0x0 DUP1 PUSH1 0x0 DUP1 PUSH1 0xC0 DUP8 DUP10 SUB SLT ISZERO PUSH2 0x32C3 JUMPI DUP1 DUP2 REVERT JUMPDEST DUP7 CALLDATALOAD PUSH8 0xFFFFFFFFFFFFFFFF DUP1 DUP3 GT ISZERO PUSH2 0x32DA JUMPI DUP3 DUP4 REVERT JUMPDEST PUSH2 0x32E6 DUP11 DUP4 DUP12 ADD PUSH2 0x2FF6 JUMP JUMPDEST SWAP8 POP PUSH1 0x20 DUP10 ADD CALLDATALOAD SWAP7 POP PUSH1 0x40 DUP10 ADD CALLDATALOAD SWAP6 POP PUSH1 0x60 DUP10 ADD CALLDATALOAD SWAP2 POP DUP1 DUP3 GT ISZERO PUSH2 0x3309 JUMPI DUP3 DUP4 REVERT JUMPDEST POP PUSH2 0x3316 DUP10 DUP3 DUP11 ADD PUSH2 0x2FF6 JUMP JUMPDEST SWAP4 POP POP PUSH1 0x80 DUP8 ADD CALLDATALOAD SWAP2 POP PUSH2 0x332C PUSH1 0xA0 DUP9 ADD PUSH2 0x2FDF JUMP JUMPDEST SWAP1 POP SWAP3 SWAP6 POP SWAP3 SWAP6 POP SWAP3 SWAP6 JUMP JUMPDEST PUSH1 0x0 PUSH1 0x20 DUP3 DUP5 SUB SLT ISZERO PUSH2 0x3349 JUMPI DUP1 DUP2 REVERT JUMPDEST POP CALLDATALOAD SWAP2 SWAP1 POP JUMP JUMPDEST PUSH1 0x0 PUSH1 0x20 DUP3 DUP5 SUB SLT ISZERO PUSH2 0x3361 JUMPI DUP1 DUP2 REVERT JUMPDEST POP MLOAD SWAP2 SWAP1 POP JUMP JUMPDEST PUSH1 0x0 DUP1 PUSH1 0x40 DUP4 DUP6 SUB SLT ISZERO PUSH2 0x337A JUMPI DUP2 DUP3 REVERT JUMPDEST POP POP DUP1 CALLDATALOAD SWAP3 PUSH1 0x20 SWAP1 SWAP2 ADD CALLDATALOAD SWAP2 POP JUMP JUMPDEST PUSH1 0x0 DUP1 PUSH1 0x0 DUP1 PUSH1 0x0 PUSH1 0xA0 DUP7 DUP9 SUB SLT ISZERO PUSH2 0x33A0 JUMPI DUP3 DUP4 REVERT JUMPDEST DUP6 CALLDATALOAD SWAP5 POP PUSH1 0x20 DUP7 ADD CALLDATALOAD SWAP4 POP PUSH1 0x40 DUP7 ADD CALLDATALOAD PUSH8 0xFFFFFFFFFFFFFFFF DUP1 DUP3 GT ISZERO PUSH2 0x33C5 JUMPI DUP5 DUP6 REVERT JUMPDEST PUSH2 0x33D1 DUP10 DUP4 DUP11 ADD PUSH2 0x2FF6 JUMP JUMPDEST SWAP5 POP PUSH1 0x60 DUP9 ADD CALLDATALOAD SWAP4 POP PUSH1 0x80 DUP9 ADD CALLDATALOAD SWAP2 POP DUP1 DUP3 GT ISZERO PUSH2 0x33ED JUMPI DUP3 DUP4 REVERT JUMPDEST POP DUP7 ADD PUSH1 0x1F DUP2 ADD DUP9 SGT PUSH2 0x33FE JUMPI DUP2 DUP3 REVERT JUMPDEST PUSH2 0x340D DUP9 DUP3 CALLDATALOAD PUSH1 0x20 DUP5 ADD PUSH2 0x2FA1 JUMP JUMPDEST SWAP2 POP POP SWAP3 SWAP6 POP SWAP3 SWAP6 SWAP1 SWAP4 POP JUMP JUMPDEST PUSH1 0x0 DUP1 PUSH1 0x0 DUP1 PUSH1 0x0 PUSH1 0x80 DUP7 DUP9 SUB SLT ISZERO PUSH2 0x3431 JUMPI DUP3 DUP4 REVERT JUMPDEST PUSH2 0x343A DUP7 PUSH2 0x3058 JUMP JUMPDEST SWAP5 POP PUSH1 0x20 DUP7 ADD CALLDATALOAD SWAP4 POP PUSH2 0x344F PUSH1 0x40 DUP8 ADD PUSH2 0x3058 JUMP JUMPDEST SWAP3 POP PUSH1 0x60 DUP7 ADD CALLDATALOAD PUSH8 0xFFFFFFFFFFFFFFFF DUP1 DUP3 GT ISZERO PUSH2 0x346B JUMPI DUP3 DUP4 REVERT JUMPDEST DUP2 DUP9 ADD SWAP2 POP DUP9 PUSH1 0x1F DUP4 ADD SLT PUSH2 0x347E JUMPI DUP3 DUP4 REVERT JUMPDEST DUP2 CALLDATALOAD DUP2 DUP2 GT ISZERO PUSH2 0x348C JUMPI DUP4 DUP5 REVERT JUMPDEST DUP10 PUSH1 0x20 DUP3 DUP6 ADD ADD GT ISZERO PUSH2 0x349D JUMPI DUP4 DUP5 REVERT JUMPDEST SWAP7 SWAP10 SWAP6 SWAP9 POP SWAP4 SWAP7 POP PUSH1 0x20 ADD SWAP5 SWAP4 SWAP3 POP POP POP JUMP JUMPDEST ISZERO ISZERO SWAP1 MSTORE JUMP JUMPDEST PUSH1 0x2 DUP2 LT PUSH2 0x34C0 JUMPI INVALID JUMPDEST SWAP1 MSTORE JUMP JUMPDEST PUSH1 0x4 DUP2 LT PUSH2 0x34C0 JUMPI INVALID JUMPDEST PUSH1 0x0 DUP2 MLOAD DUP1 DUP5 MSTORE PUSH2 0x34E6 DUP2 PUSH1 0x20 DUP7 ADD PUSH1 0x20 DUP7 ADD PUSH2 0x3C11 JUMP JUMPDEST PUSH1 0x1F ADD PUSH1 0x1F NOT AND SWAP3 SWAP1 SWAP3 ADD PUSH1 0x20 ADD SWAP3 SWAP2 POP POP JUMP JUMPDEST PUSH1 0x0 DUP1 DUP4 SLOAD PUSH1 0x1 DUP1 DUP3 AND PUSH1 0x0 DUP2 EQ PUSH2 0x3519 JUMPI PUSH1 0x1 DUP2 EQ PUSH2 0x3530 JUMPI PUSH2 0x355F JUMP JUMPDEST PUSH1 0xFF NOT DUP4 AND DUP7 MSTORE PUSH1 0x2 DUP4 DIV PUSH1 0x7F AND DUP7 ADD SWAP4 POP PUSH2 0x355F JUMP JUMPDEST PUSH1 0x2 DUP4 DIV DUP8 DUP7 MSTORE PUSH1 0x20 DUP1 DUP8 KECCAK256 DUP8 JUMPDEST DUP4 DUP2 LT ISZERO PUSH2 0x3557 JUMPI DUP2 SLOAD DUP11 DUP3 ADD MSTORE SWAP1 DUP6 ADD SWAP1 DUP3 ADD PUSH2 0x353E JUMP JUMPDEST POP POP POP DUP7 ADD SWAP4 POP JUMPDEST POP SWAP2 SWAP6 SWAP5 POP POP POP POP POP JUMP JUMPDEST PUSH1 0x0 DUP3 MLOAD PUSH2 0x357C DUP2 DUP5 PUSH1 0x20 DUP8 ADD PUSH2 0x3C11 JUMP JUMPDEST SWAP2 SWAP1 SWAP2 ADD SWAP3 SWAP2 POP POP JUMP JUMPDEST PUSH2 0x1901 PUSH1 0xF0 SHL DUP2 MSTORE PUSH1 0x2 DUP2 ADD SWAP3 SWAP1 SWAP3 MSTORE PUSH1 0x22 DUP3 ADD MSTORE PUSH1 0x42 ADD SWAP1 JUMP JUMPDEST PUSH1 0x1 PUSH1 0x1 PUSH1 0xA0 SHL SUB SWAP2 SWAP1 SWAP2 AND DUP2 MSTORE PUSH1 0x20 ADD SWAP1 JUMP JUMPDEST PUSH1 0x0 PUSH1 0x20 DUP1 DUP4 ADD DUP2 DUP5 MSTORE DUP1 DUP6 MLOAD DUP1 DUP4 MSTORE PUSH1 0x40 DUP7 ADD SWAP2 POP PUSH1 0x40 DUP5 DUP3 MUL DUP8 ADD ADD SWAP3 POP DUP4 DUP8 ADD DUP6 JUMPDEST DUP3 DUP2 LT ISZERO PUSH2 0x3608 JUMPI PUSH1 0x3F NOT DUP9 DUP7 SUB ADD DUP5 MSTORE PUSH2 0x35F6 DUP6 DUP4 MLOAD PUSH2 0x34CE JUMP JUMPDEST SWAP5 POP SWAP3 DUP6 ADD SWAP3 SWAP1 DUP6 ADD SWAP1 PUSH1 0x1 ADD PUSH2 0x35DA JUMP JUMPDEST POP SWAP3 SWAP8 SWAP7 POP POP POP POP POP POP POP JUMP JUMPDEST SWAP1 ISZERO ISZERO DUP2 MSTORE PUSH1 0x20 ADD SWAP1 JUMP JUMPDEST SWAP1 DUP2 MSTORE PUSH1 0x20 ADD SWAP1 JUMP JUMPDEST SWAP5 DUP6 MSTORE PUSH1 0x20 DUP6 ADD SWAP4 SWAP1 SWAP4 MSTORE PUSH1 0x40 DUP5 ADD SWAP2 SWAP1 SWAP2 MSTORE PUSH1 0x60 DUP4 ADD MSTORE PUSH1 0x80 DUP3 ADD MSTORE PUSH1 0xA0 ADD SWAP1 JUMP JUMPDEST PUSH1 0x0 PUSH1 0x20 DUP3 MSTORE PUSH2 0x240C PUSH1 0x20 DUP4 ADD DUP5 PUSH2 0x34CE JUMP JUMPDEST PUSH1 0x0 PUSH1 0xA0 DUP3 MSTORE PUSH2 0x3672 PUSH1 0xA0 DUP4 ADD DUP9 PUSH2 0x34CE JUMP JUMPDEST PUSH2 0x367F PUSH1 0x20 DUP5 ADD DUP9 PUSH2 0x34C4 JUMP JUMPDEST PUSH2 0x368C PUSH1 0x40 DUP5 ADD DUP8 PUSH2 0x34B6 JUMP JUMPDEST DUP3 DUP2 SUB PUSH1 0x60 DUP5 ADD MSTORE PUSH2 0x369E DUP2 DUP7 PUSH2 0x34CE JUMP JUMPDEST SWAP2 POP POP DUP3 PUSH1 0x80 DUP4 ADD MSTORE SWAP7 SWAP6 POP POP POP POP POP POP JUMP JUMPDEST PUSH1 0x0 PUSH2 0x140 DUP1 DUP4 MSTORE PUSH2 0x36C5 DUP2 DUP5 ADD DUP15 PUSH2 0x34CE JUMP JUMPDEST SWAP1 POP PUSH2 0x36D4 PUSH1 0x20 DUP5 ADD DUP14 PUSH2 0x34C4 JUMP JUMPDEST PUSH2 0x36E1 PUSH1 0x40 DUP5 ADD DUP13 PUSH2 0x34B6 JUMP JUMPDEST DUP3 DUP2 SUB PUSH1 0x60 DUP5 ADD MSTORE PUSH2 0x36F3 DUP2 DUP12 PUSH2 0x34CE JUMP JUMPDEST PUSH1 0x80 DUP5 ADD SWAP10 SWAP1 SWAP10 MSTORE POP POP PUSH1 0xA0 DUP2 ADD SWAP6 SWAP1 SWAP6 MSTORE PUSH1 0xC0 DUP6 ADD SWAP4 SWAP1 SWAP4 MSTORE PUSH1 0xE0 DUP5 ADD SWAP2 SWAP1 SWAP2 MSTORE PUSH2 0x100 DUP4 ADD MSTORE ISZERO ISZERO PUSH2 0x120 SWAP1 SWAP2 ADD MSTORE SWAP5 SWAP4 POP POP POP POP JUMP JUMPDEST PUSH1 0x0 PUSH1 0xA0 DUP3 MSTORE PUSH2 0x373F PUSH1 0xA0 DUP4 ADD DUP9 PUSH2 0x34CE JUMP JUMPDEST PUSH4 0xFFFFFFFF DUP8 AND PUSH1 0x20 DUP5 ADD MSTORE DUP6 PUSH1 0x40 DUP5 ADD MSTORE DUP5 PUSH1 0x60 DUP5 ADD MSTORE DUP3 DUP2 SUB PUSH1 0x80 DUP5 ADD MSTORE PUSH2 0x3769 DUP2 DUP6 PUSH2 0x34CE JUMP JUMPDEST SWAP9 SWAP8 POP POP POP POP POP POP POP POP JUMP JUMPDEST PUSH1 0x0 PUSH1 0xC0 DUP3 MSTORE PUSH2 0x3788 PUSH1 0xC0 DUP4 ADD DUP10 PUSH2 0x34CE JUMP JUMPDEST DUP8 PUSH1 0x20 DUP5 ADD MSTORE DUP7 PUSH1 0x40 DUP5 ADD MSTORE DUP3 DUP2 SUB PUSH1 0x60 DUP5 ADD MSTORE PUSH2 0x37A6 DUP2 DUP8 PUSH2 0x34CE JUMP JUMPDEST PUSH1 0x80 DUP5 ADD SWAP6 SWAP1 SWAP6 MSTORE POP POP PUSH1 0xA0 ADD MSTORE SWAP5 SWAP4 POP POP POP POP JUMP JUMPDEST PUSH1 0x20 DUP1 DUP3 MSTORE PUSH1 0x13 SWAP1 DUP3 ADD MSTORE PUSH19 0x9CC2E8D2DEDCC2D8D2E8F29AD2E6DAC2E8C6D PUSH1 0x6B SHL PUSH1 0x40 DUP3 ADD MSTORE PUSH1 0x60 ADD SWAP1 JUMP JUMPDEST PUSH1 0x20 DUP1 DUP3 MSTORE PUSH1 0x12 SWAP1 DUP3 ADD MSTORE PUSH18 0x496E76616C69644E6174696F6E616C697479 PUSH1 0x70 SHL PUSH1 0x40 DUP3 ADD MSTORE PUSH1 0x60 ADD SWAP1 JUMP JUMPDEST PUSH1 0x20 DUP1 DUP3 MSTORE PUSH1 0xD SWAP1 DUP3 ADD MSTORE PUSH13 0x125B9D985B1A59105B5BDD5B9D PUSH1 0x9A SHL PUSH1 0x40 DUP3 ADD MSTORE PUSH1 0x60 ADD SWAP1 JUMP JUMPDEST PUSH1 0x20 DUP1 DUP3 MSTORE PUSH1 0x10 SWAP1 DUP3 ADD MSTORE PUSH16 0x125B9D985B1A59149958DA5C1A595B9D PUSH1 0x82 SHL PUSH1 0x40 DUP3 ADD MSTORE PUSH1 0x60 ADD SWAP1 JUMP JUMPDEST PUSH1 0x20 DUP1 DUP3 MSTORE PUSH1 0xB SWAP1 DUP3 ADD MSTORE PUSH11 0x125B9D985B1A59141BDBDB PUSH1 0xAA SHL PUSH1 0x40 DUP3 ADD MSTORE PUSH1 0x60 ADD SWAP1 JUMP JUMPDEST PUSH1 0x20 DUP1 DUP3 MSTORE PUSH1 0x17 SWAP1 DUP3 ADD MSTORE PUSH32 0x556E617574686F72697A65643A204E6F742041646D696E000000000000000000 PUSH1 0x40 DUP3 ADD MSTORE PUSH1 0x60 ADD SWAP1 JUMP JUMPDEST PUSH1 0x20 DUP1 DUP3 MSTORE PUSH1 0x15 SWAP1 DUP3 ADD MSTORE PUSH21 0x139BC81A1BDBDAC819185D18481C1C9BDD9A591959 PUSH1 0x5A SHL PUSH1 0x40 DUP3 ADD MSTORE PUSH1 0x60 ADD SWAP1 JUMP JUMPDEST PUSH1 0x20 DUP1 DUP3 MSTORE PUSH1 0xC SWAP1 DUP3 ADD MSTORE PUSH12 0x506F6F6C496E616374697665 PUSH1 0xA0 SHL PUSH1 0x40 DUP3 ADD MSTORE PUSH1 0x60 ADD SWAP1 JUMP JUMPDEST PUSH1 0x20 DUP1 DUP3 MSTORE PUSH1 0xE SWAP1 DUP3 ADD MSTORE PUSH14 0x105B1C9958591E50DB185A5B5959 PUSH1 0x92 SHL PUSH1 0x40 DUP3 ADD MSTORE PUSH1 0x60 ADD SWAP1 JUMP JUMPDEST PUSH1 0x20 DUP1 DUP3 MSTORE PUSH1 0x11 SWAP1 DUP3 ADD MSTORE PUSH17 0x496E73756666696369656E7446756E6473 PUSH1 0x78 SHL PUSH1 0x40 DUP3 ADD MSTORE PUSH1 0x60 ADD SWAP1 JUMP JUMPDEST PUSH1 0x20 DUP1 DUP3 MSTORE PUSH1 0x11 SWAP1 DUP3 ADD MSTORE PUSH17 0x506F6F6C416C7265616479457869737473 PUSH1 0x78 SHL PUSH1 0x40 DUP3 ADD MSTORE PUSH1 0x60 ADD SWAP1 JUMP JUMPDEST PUSH1 0x20 DUP1 DUP3 MSTORE PUSH1 0x13 SWAP1 DUP3 ADD MSTORE PUSH19 0x496E646578206F7574206F6620626F756E6473 PUSH1 0x68 SHL PUSH1 0x40 DUP3 ADD MSTORE PUSH1 0x60 ADD SWAP1 JUMP JUMPDEST PUSH1 0x20 DUP1 DUP3 MSTORE PUSH1 0xD SWAP1 DUP3 ADD MSTORE PUSH13 0x125B9D985B1A59141BDBDB1259 PUSH1 0x9A SHL PUSH1 0x40 DUP3 ADD MSTORE PUSH1 0x60 ADD SWAP1 JUMP JUMPDEST DUP2 MLOAD DUP2 MSTORE PUSH1 0x20 DUP1 DUP4 ADD MLOAD SWAP1 DUP3 ADD MSTORE PUSH1 0x40 DUP1 DUP4 ADD MLOAD PUSH1 0x1 PUSH1 0x1 PUSH1 0xA0 SHL SUB AND SWAP1 DUP3 ADD MSTORE PUSH1 0x60 DUP1 DUP4 ADD MLOAD SWAP1 DUP3 ADD MSTORE PUSH1 0x80 SWAP2 DUP3 ADD MLOAD SWAP2 DUP2 ADD SWAP2 SWAP1 SWAP2 MSTORE PUSH1 0xA0 ADD SWAP1 JUMP JUMPDEST PUSH1 0x0 PUSH1 0x20 DUP3 MSTORE DUP3 MLOAD PUSH1 0x20 DUP4 ADD MSTORE PUSH1 0x1 DUP1 PUSH1 0xA0 SHL SUB PUSH1 0x20 DUP5 ADD MLOAD AND PUSH1 0x40 DUP4 ADD MSTORE PUSH1 0x40 DUP4 ADD MLOAD PUSH1 0x60 DUP4 ADD MSTORE PUSH1 0x60 DUP4 ADD MLOAD PUSH1 0x80 DUP4 ADD MSTORE PUSH1 0x80 DUP4 ADD MLOAD ISZERO ISZERO PUSH1 0xA0 DUP4 ADD MSTORE PUSH4 0xFFFFFFFF PUSH1 0xA0 DUP5 ADD MLOAD AND PUSH1 0xC0 DUP4 ADD MSTORE PUSH1 0xC0 DUP4 ADD MLOAD PUSH1 0xE0 DUP1 DUP5 ADD MSTORE PUSH2 0x24B9 PUSH2 0x100 DUP5 ADD DUP3 PUSH2 0x34CE JUMP JUMPDEST PUSH1 0x0 PUSH1 0x20 DUP3 MSTORE DUP3 MLOAD PUSH2 0x140 DUP1 PUSH1 0x20 DUP6 ADD MSTORE PUSH2 0x3AAE PUSH2 0x160 DUP6 ADD DUP4 PUSH2 0x34CE JUMP JUMPDEST SWAP2 POP PUSH1 0x20 DUP6 ADD MLOAD PUSH2 0x3AC2 PUSH1 0x40 DUP7 ADD DUP3 PUSH2 0x34C4 JUMP JUMPDEST POP PUSH1 0x40 DUP6 ADD MLOAD PUSH2 0x3AD5 PUSH1 0x60 DUP7 ADD DUP3 PUSH2 0x34B6 JUMP JUMPDEST POP PUSH1 0x60 DUP6 ADD MLOAD DUP5 DUP4 SUB PUSH1 0x1F NOT ADD PUSH1 0x80 DUP7 ADD MSTORE PUSH2 0x3AF1 DUP4 DUP3 PUSH2 0x34CE JUMP JUMPDEST SWAP3 POP POP PUSH1 0x80 DUP6 ADD MLOAD PUSH1 0xA0 DUP6 ADD MSTORE PUSH1 0xA0 DUP6 ADD MLOAD PUSH1 0xC0 DUP6 ADD MSTORE PUSH1 0xC0 DUP6 ADD MLOAD PUSH1 0xE0 DUP6 ADD MSTORE PUSH1 0xE0 DUP6 ADD MLOAD PUSH2 0x100 DUP2 DUP2 DUP8 ADD MSTORE DUP1 DUP8 ADD MLOAD SWAP2 POP POP PUSH2 0x120 DUP2 DUP2 DUP8 ADD MSTORE DUP1 DUP8 ADD MLOAD SWAP2 POP POP PUSH2 0x3B41 DUP3 DUP7 ADD DUP3 PUSH2 0x34B0 JUMP JUMPDEST POP SWAP1 SWAP5 SWAP4 POP POP POP POP JUMP JUMPDEST PUSH1 0x0 DUP9 DUP3 MSTORE PUSH1 0x1 DUP1 PUSH1 0xA0 SHL SUB DUP9 AND PUSH1 0x20 DUP4 ADD MSTORE DUP7 PUSH1 0x40 DUP4 ADD MSTORE DUP6 PUSH1 0x60 DUP4 ADD MSTORE DUP5 ISZERO ISZERO PUSH1 0x80 DUP4 ADD MSTORE PUSH4 0xFFFFFFFF DUP5 AND PUSH1 0xA0 DUP4 ADD MSTORE PUSH1 0xE0 PUSH1 0xC0 DUP4 ADD MSTORE PUSH2 0x3B92 PUSH1 0xE0 DUP4 ADD DUP5 PUSH2 0x34CE JUMP JUMPDEST SWAP10 SWAP9 POP POP POP POP POP POP POP POP POP JUMP JUMPDEST SWAP5 DUP6 MSTORE PUSH1 0x20 DUP6 ADD SWAP4 SWAP1 SWAP4 MSTORE PUSH1 0x1 PUSH1 0x1 PUSH1 0xA0 SHL SUB SWAP2 SWAP1 SWAP2 AND PUSH1 0x40 DUP5 ADD MSTORE PUSH1 0x60 DUP4 ADD MSTORE PUSH1 0x80 DUP3 ADD MSTORE PUSH1 0xA0 ADD SWAP1 JUMP JUMPDEST PUSH1 0x40 MLOAD DUP2 DUP2 ADD PUSH8 0xFFFFFFFFFFFFFFFF DUP2 GT DUP3 DUP3 LT OR ISZERO PUSH2 0x3BE7 JUMPI INVALID JUMPDEST PUSH1 0x40 MSTORE SWAP2 SWAP1 POP JUMP JUMPDEST PUSH1 0x0 PUSH8 0xFFFFFFFFFFFFFFFF DUP3 GT ISZERO PUSH2 0x3C03 JUMPI INVALID JUMPDEST POP PUSH1 0x1F ADD PUSH1 0x1F NOT AND PUSH1 0x20 ADD SWAP1 JUMP JUMPDEST PUSH1 0x0 JUMPDEST DUP4 DUP2 LT ISZERO PUSH2 0x3C2C JUMPI DUP2 DUP2 ADD MLOAD DUP4 DUP3 ADD MSTORE PUSH1 0x20 ADD PUSH2 0x3C14 JUMP JUMPDEST DUP4 DUP2 GT ISZERO PUSH2 0x2317 JUMPI POP POP PUSH1 0x0 SWAP2 ADD MSTORE JUMP INVALID 0x4F PUSH24 0x6E61626C653A206E6577206F776E65722069732074686520 PUSH27 0x65726F206164647265737345434453413A20696E76616C69642073 PUSH10 0x676E6174757265202773 0x27 KECCAK256 PUSH23 0x616C7565416464726573733A20696E7375666669636965 PUSH15 0x742062616C616E636520666F722063 PUSH2 0x6C6C 0x2E KECCAK256 COINBASE PUSH21 0x74656D7074656420746F20696E646578206174206F PUSH7 0x66736574203078 GASLIMIT NUMBER DIFFICULTY MSTORE8 COINBASE GASPRICE KECCAK256 PUSH10 0x6E76616C696420736967 PUSH15 0x6174757265202776272076616C7565 0x4F PUSH24 0x6E61626C653A2063616C6C6572206973206E6F7420746865 KECCAK256 PUSH16 0x776E657254797065644D656D56696577 0x2F PUSH10 0x6E646578202D20417474 PUSH6 0x6D7074656420 PUSH21 0x6F20696E646578206D6F7265207468616E20333220 PUSH3 0x797465 PUSH20 0x5361666545524332303A204552433230206F7065 PUSH19 0x6174696F6E20646964206E6F74207375636365 PUSH6 0x645479706564 0x4D PUSH6 0x6D566965772F PUSH4 0x6F707954 PUSH16 0x202D204E756C6C20706F696E74657220 PUSH5 0x6572656654 PUSH26 0x7065644D656D566965772F636F7079546F202D20496E76616C69 PUSH5 0x20706F696E PUSH21 0x657220646572656654797065644D656D566965772F PUSH10 0x6E646578202D204F7665 PUSH19 0x72616E2074686520766965772E20536C696365 KECCAK256 PUSH10 0x73206174203078A26469 PUSH17 0x667358221220193FCFB876610D9AC08A40 0xAF CREATE BYTE PUSH24 0xADF2FD4EE091B2D5836598E1499E55913A64736F6C634300 SMOD MOD STOP CALLER 0x4F PUSH24 0x6E61626C653A206E6577206F776E65722069732074686520 PUSH27 0x65726F20616464726573738BE0079C531659141344CD1FD0A4F284 NOT 0x49 PUSH32 0x9722A3DAAFE3B4186F6B6457E000000000000000000000000000000000000000 "
        },
        "methodIdentifiers": {
          "DOMAIN_SEPARATOR()": "3644e515",
          "adminAddress()": "fc6f9468",
          "cctpMessageTransmitter()": "8c73eb04",
          "checkPersonClaimedFromPool(string,uint256)": "8bbd58e2",
          "claimRelief(string,uint256,uint256,string,uint256,address)": "0e0b8c8b",
          "createReliefPool(string,uint8,uint8,string,uint256)": "21050edc",
          "donate(string,uint256,string)": "b9adb2f7",
          "emergencyWithdraw(uint256)": "5312ea8e",
          "getAllPoolIds()": "f19c3d5b",
          "getBeneficiary(string,address)": "1376938d",
          "getContractBalance()": "6f9fb98a",
          "getDonor(string,address)": "aa62e312",
          "getPersonClaimedPools(uint256)": "7332cec4",
          "getPoolIdByIndex(uint256)": "20de7592",
          "getReliefPool(string)": "734123c4",
          "getTotalPools()": "d3ffe67a",
          "handleReceiveFinalizedMessage(uint32,bytes32,uint32,bytes)": "11cffb67",
          "handleReceiveUnfinalizedMessage(uint32,bytes32,uint32,bytes)": "7c92f219",
          "hasPersonClaimedFromPool(string,uint256)": "b2396e6c",
          "owner()": "8da5cb5b",
          "personClaimedPools(uint256,uint256)": "feb16532",
          "poolBeneficiaries(string,address)": "1223310a",
          "poolDonors(string,address)": "9605cfe5",
          "poolIds(uint256)": "69883b4e",
          "reliefPools(string)": "d697d231",
          "renounceOwnership()": "715018a6",
          "setCCTPMessageTransmitter(address)": "d9db6e03",
          "togglePoolStatus(string)": "f6ab0872",
          "transferOwnership(address)": "f2fde38b",
          "usdcToken()": "11eac855",
          "verifyAdminSignature(uint256,uint256,string,uint256,bytes)": "8be55456"
        }
      }
    }
  }
}