{"contracts/ReliefPools.sol":{"ReliefPools":{"abi":[{"inputs":[{"internalType":"address","name":"_adminAddress","type":"address"},{"internalType":"address","name":"_usdcToken","type":"address"},{"internalType":"address","name":"_cctpMessageTransmitter","type":"address"}],"stateMutability":"nonpayable","type":"constructor"},{"anonymous":false,"inputs":[{"indexed":true,"internalType":"uint256","name":"poolId","type":"uint256"},{"indexed":true,"internalType":"address","name":"donor","type":"address"},{"indexed":false,"internalType":"uint32","name":"sourceDomain","type":"uint32"},{"indexed":false,"internalType":"uint256","name":"amount","type":"uint256"},{"indexed":false,"internalType":"uint256","name":"timestamp","type":"uint256"},{"indexed":false,"internalType":"string","name":"location","type":"string"}],"name":"DonationMade","type":"event"},{"anonymous":false,"inputs":[{"indexed":true,"internalType":"uint256","name":"poolId","type":"uint256"},{"indexed":true,"internalType":"address","name":"claimer","type":"address"},{"indexed":true,"internalType":"address","name":"recipient","type":"address"},{"indexed":false,"internalType":"uint256","name":"nullifier","type":"uint256"},{"indexed":false,"internalType":"uint256","name":"userIdentifier","type":"uint256"},{"indexed":false,"internalType":"string","name":"nationality","type":"string"},{"indexed":false,"internalType":"uint256","name":"amount","type":"uint256"},{"indexed":false,"internalType":"uint256","name":"timestamp","type":"uint256"}],"name":"FundsClaimed","type":"event"},{"anonymous":false,"inputs":[{"indexed":true,"internalType":"address","name":"previousOwner","type":"address"},{"indexed":true,"internalType":"address","name":"newOwner","type":"address"}],"name":"OwnershipTransferred","type":"event"},{"anonymous":false,"inputs":[{"indexed":true,"internalType":"uint256","name":"poolId","type":"uint256"},{"indexed":false,"internalType":"bool","name":"isActive","type":"bool"}],"name":"PoolStatusChanged","type":"event"},{"anonymous":false,"inputs":[{"indexed":true,"internalType":"uint256","name":"poolId","type":"uint256"},{"indexed":false,"internalType":"enum ReliefPools.DisasterTypeEnum","name":"disasterType","type":"uint8"},{"indexed":false,"internalType":"enum ReliefPools.ClassificationEnum","name":"classification","type":"uint8"},{"indexed":false,"internalType":"string","name":"nationalityRequired","type":"string"},{"indexed":false,"internalType":"uint256","name":"allocatedFundsPerPerson","type":"uint256"}],"name":"ReliefPoolCreated","type":"event"},{"inputs":[],"name":"DOMAIN_SEPARATOR","outputs":[{"internalType":"bytes32","name":"","type":"bytes32"}],"stateMutability":"view","type":"function"},{"inputs":[],"name":"VERIFICATION_MESSAGE_TYPEHASH","outputs":[{"internalType":"bytes32","name":"","type":"bytes32"}],"stateMutability":"view","type":"function"},{"inputs":[{"internalType":"uint32","name":"sourceDomain","type":"uint32"},{"internalType":"bytes32","name":"sender","type":"bytes32"},{"internalType":"bytes","name":"messageBody","type":"bytes"}],"name":"_processCrossChainDonation","outputs":[],"stateMutability":"nonpayable","type":"function"},{"inputs":[],"name":"adminAddress","outputs":[{"internalType":"address","name":"","type":"address"}],"stateMutability":"view","type":"function"},{"inputs":[],"name":"cctpMessageTransmitter","outputs":[{"internalType":"address","name":"","type":"address"}],"stateMutability":"view","type":"function"},{"inputs":[{"internalType":"uint256","name":"poolId","type":"uint256"},{"internalType":"uint256","name":"userIdentifier","type":"uint256"}],"name":"checkPersonClaimedFromPool","outputs":[{"internalType":"bool","name":"","type":"bool"}],"stateMutability":"view","type":"function"},{"inputs":[{"internalType":"uint256","name":"poolId","type":"uint256"},{"internalType":"uint256","name":"nullifier","type":"uint256"},{"internalType":"uint256","name":"userIdentifier","type":"uint256"},{"internalType":"string","name":"nationality","type":"string"},{"internalType":"uint256","name":"timestamp","type":"uint256"},{"internalType":"address","name":"recipient","type":"address"},{"internalType":"bytes","name":"adminSignature","type":"bytes"}],"name":"claimRelief","outputs":[],"stateMutability":"nonpayable","type":"function"},{"inputs":[{"internalType":"uint256","name":"poolId","type":"uint256"},{"internalType":"uint256","name":"nullifier","type":"uint256"},{"internalType":"uint256","name":"userIdentifier","type":"uint256"},{"internalType":"string","name":"nationality","type":"string"},{"internalType":"uint256","name":"timestamp","type":"uint256"},{"internalType":"bytes","name":"adminSignature","type":"bytes"}],"name":"claimReliefToSelf","outputs":[],"stateMutability":"nonpayable","type":"function"},{"inputs":[{"internalType":"enum ReliefPools.DisasterTypeEnum","name":"disasterType","type":"uint8"},{"internalType":"enum ReliefPools.ClassificationEnum","name":"classification","type":"uint8"},{"internalType":"string","name":"nationalityRequired","type":"string"},{"internalType":"uint256","name":"allocatedFundsPerPerson","type":"uint256"}],"name":"createReliefPool","outputs":[{"internalType":"uint256","name":"","type":"uint256"}],"stateMutability":"nonpayable","type":"function"},{"inputs":[{"internalType":"uint256","name":"poolId","type":"uint256"},{"internalType":"uint256","name":"amount","type":"uint256"},{"internalType":"string","name":"location","type":"string"}],"name":"donate","outputs":[],"stateMutability":"nonpayable","type":"function"},{"inputs":[{"internalType":"uint256","name":"amount","type":"uint256"}],"name":"emergencyWithdraw","outputs":[],"stateMutability":"nonpayable","type":"function"},{"inputs":[{"internalType":"uint256","name":"poolId","type":"uint256"},{"internalType":"address","name":"beneficiary","type":"address"}],"name":"getBeneficiary","outputs":[{"components":[{"internalType":"uint256","name":"nullifier","type":"uint256"},{"internalType":"uint256","name":"userIdentifier","type":"uint256"},{"internalType":"address","name":"walletAddress","type":"address"},{"internalType":"uint256","name":"amount","type":"uint256"},{"internalType":"uint256","name":"timestamp","type":"uint256"}],"internalType":"struct ReliefPools.Beneficiary","name":"","type":"tuple"}],"stateMutability":"view","type":"function"},{"inputs":[],"name":"getContractBalance","outputs":[{"internalType":"uint256","name":"","type":"uint256"}],"stateMutability":"view","type":"function"},{"inputs":[{"internalType":"uint256","name":"poolId","type":"uint256"},{"internalType":"address","name":"donor","type":"address"}],"name":"getDonor","outputs":[{"components":[{"internalType":"uint256","name":"id","type":"uint256"},{"internalType":"address","name":"walletAddress","type":"address"},{"internalType":"uint256","name":"amount","type":"uint256"},{"internalType":"uint256","name":"timestamp","type":"uint256"},{"internalType":"bool","name":"isCrossChain","type":"bool"},{"internalType":"uint32","name":"sourceDomain","type":"uint32"},{"internalType":"string","name":"location","type":"string"}],"internalType":"struct ReliefPools.Donor","name":"","type":"tuple"}],"stateMutability":"view","type":"function"},{"inputs":[{"internalType":"uint256","name":"userIdentifier","type":"uint256"}],"name":"getPersonClaimedPools","outputs":[{"internalType":"uint256[]","name":"","type":"uint256[]"}],"stateMutability":"view","type":"function"},{"inputs":[{"internalType":"uint256","name":"poolId","type":"uint256"}],"name":"getReliefPool","outputs":[{"components":[{"internalType":"uint256","name":"id","type":"uint256"},{"internalType":"enum ReliefPools.DisasterTypeEnum","name":"disasterType","type":"uint8"},{"internalType":"enum ReliefPools.ClassificationEnum","name":"classification","type":"uint8"},{"internalType":"string","name":"nationalityRequired","type":"string"},{"internalType":"uint256","name":"allocatedFundsPerPerson","type":"uint256"},{"internalType":"uint256","name":"totalBeneficiaries","type":"uint256"},{"internalType":"uint256","name":"totalDonors","type":"uint256"},{"internalType":"uint256","name":"totalAmountClaimed","type":"uint256"},{"internalType":"uint256","name":"totalAmountDonated","type":"uint256"},{"internalType":"bool","name":"isActive","type":"bool"}],"internalType":"struct ReliefPools.ReliefPool","name":"","type":"tuple"}],"stateMutability":"view","type":"function"},{"inputs":[],"name":"getTotalPools","outputs":[{"internalType":"uint256","name":"","type":"uint256"}],"stateMutability":"view","type":"function"},{"inputs":[{"internalType":"uint32","name":"sourceDomain","type":"uint32"},{"internalType":"bytes32","name":"sender","type":"bytes32"},{"internalType":"uint32","name":"finalityThresholdExecuted","type":"uint32"},{"internalType":"bytes","name":"messageBody","type":"bytes"}],"name":"handleReceiveFinalizedMessage","outputs":[{"internalType":"bool","name":"","type":"bool"}],"stateMutability":"nonpayable","type":"function"},{"inputs":[{"internalType":"uint32","name":"sourceDomain","type":"uint32"},{"internalType":"bytes32","name":"sender","type":"bytes32"},{"internalType":"uint32","name":"finalityThresholdExecuted","type":"uint32"},{"internalType":"bytes","name":"messageBody","type":"bytes"}],"name":"handleReceiveUnfinalizedMessage","outputs":[{"internalType":"bool","name":"","type":"bool"}],"stateMutability":"nonpayable","type":"function"},{"inputs":[{"internalType":"uint256","name":"","type":"uint256"},{"internalType":"uint256","name":"","type":"uint256"}],"name":"hasPersonClaimedFromPool","outputs":[{"internalType":"bool","name":"","type":"bool"}],"stateMutability":"view","type":"function"},{"inputs":[],"name":"owner","outputs":[{"internalType":"address","name":"","type":"address"}],"stateMutability":"view","type":"function"},{"inputs":[{"internalType":"uint256","name":"","type":"uint256"},{"internalType":"uint256","name":"","type":"uint256"}],"name":"personClaimedPools","outputs":[{"internalType":"uint256","name":"","type":"uint256"}],"stateMutability":"view","type":"function"},{"inputs":[{"internalType":"uint256","name":"","type":"uint256"},{"internalType":"address","name":"","type":"address"}],"name":"poolBeneficiaries","outputs":[{"internalType":"uint256","name":"nullifier","type":"uint256"},{"internalType":"uint256","name":"userIdentifier","type":"uint256"},{"internalType":"address","name":"walletAddress","type":"address"},{"internalType":"uint256","name":"amount","type":"uint256"},{"internalType":"uint256","name":"timestamp","type":"uint256"}],"stateMutability":"view","type":"function"},{"inputs":[],"name":"poolCounter","outputs":[{"internalType":"uint256","name":"","type":"uint256"}],"stateMutability":"view","type":"function"},{"inputs":[{"internalType":"uint256","name":"","type":"uint256"},{"internalType":"address","name":"","type":"address"}],"name":"poolDonors","outputs":[{"internalType":"uint256","name":"id","type":"uint256"},{"internalType":"address","name":"walletAddress","type":"address"},{"internalType":"uint256","name":"amount","type":"uint256"},{"internalType":"uint256","name":"timestamp","type":"uint256"},{"internalType":"bool","name":"isCrossChain","type":"bool"},{"internalType":"uint32","name":"sourceDomain","type":"uint32"},{"internalType":"string","name":"location","type":"string"}],"stateMutability":"view","type":"function"},{"inputs":[{"internalType":"uint256","name":"","type":"uint256"}],"name":"reliefPools","outputs":[{"internalType":"uint256","name":"id","type":"uint256"},{"internalType":"enum ReliefPools.DisasterTypeEnum","name":"disasterType","type":"uint8"},{"internalType":"enum ReliefPools.ClassificationEnum","name":"classification","type":"uint8"},{"internalType":"string","name":"nationalityRequired","type":"string"},{"internalType":"uint256","name":"allocatedFundsPerPerson","type":"uint256"},{"internalType":"uint256","name":"totalBeneficiaries","type":"uint256"},{"internalType":"uint256","name":"totalDonors","type":"uint256"},{"internalType":"uint256","name":"totalAmountClaimed","type":"uint256"},{"internalType":"uint256","name":"totalAmountDonated","type":"uint256"},{"internalType":"bool","name":"isActive","type":"bool"}],"stateMutability":"view","type":"function"},{"inputs":[],"name":"renounceOwnership","outputs":[],"stateMutability":"nonpayable","type":"function"},{"inputs":[{"internalType":"address","name":"_cctpMessageTransmitter","type":"address"}],"name":"setCCTPMessageTransmitter","outputs":[],"stateMutability":"nonpayable","type":"function"},{"inputs":[{"internalType":"uint256","name":"poolId","type":"uint256"}],"name":"togglePoolStatus","outputs":[],"stateMutability":"nonpayable","type":"function"},{"inputs":[{"internalType":"address","name":"newOwner","type":"address"}],"name":"transferOwnership","outputs":[],"stateMutability":"nonpayable","type":"function"},{"inputs":[],"name":"usdcToken","outputs":[{"internalType":"contract IERC20","name":"","type":"address"}],"stateMutability":"view","type":"function"},{"inputs":[{"internalType":"address","name":"userAddress","type":"address"},{"internalType":"uint256","name":"nullifier","type":"uint256"},{"internalType":"uint256","name":"userIdentifier","type":"uint256"},{"internalType":"string","name":"nationality","type":"string"},{"internalType":"uint256","name":"timestamp","type":"uint256"},{"internalType":"bytes","name":"adminSignature","type":"bytes"}],"name":"verifyAdminSignature","outputs":[{"internalType":"bool","name":"","type":"bool"}],"stateMutability":"view","type":"function"}],"evm":{"bytecode":{"linkReferences":{},"object":"60c06040523480156200001157600080fd5b5060405162003d4b38038062003d4b8339810160408190526200003491620002d5565b6000620000406200019b565b600080546001600160a01b0319166001600160a01b03831690811782556040519293509160008051602062003d2b833981519152908290a350600180546001600160a01b038086166001600160a01b0319928316179092556001600160601b0319606085901b166080526002805492841692909116919091179055620000c6336200019f565b604080518082018252600b81526a52656c696566506f6f6c7360a81b6020918201528151808301835260018152603160f81b90820152905162000176917f8b73c3c69bb8fe3d512ecc4cf759cc79239f7b179b0ffacaa9a75d522b39400f917f3323a8070b7081e28ca423d850c49e17147e941af41daf0ad176ecf1a5481b67917fc89efdaa54c0f20c7adf612882df0950f5a951637e0307cdcb4c672f298b8bc691612105913091016200031e565b60408051601f19818403018152919052805160209091012060a052506200034e915050565b3390565b620001a96200019b565b6001600160a01b0316620001bc620002a9565b6001600160a01b03161462000218576040805162461bcd60e51b815260206004820181905260248201527f4f776e61626c653a2063616c6c6572206973206e6f7420746865206f776e6572604482015290519081900360640190fd5b6001600160a01b0381166200025f5760405162461bcd60e51b815260040180806020018281038252602681526020018062003d056026913960400191505060405180910390fd5b600080546040516001600160a01b038085169392169160008051602062003d2b83398151915291a3600080546001600160a01b0319166001600160a01b0392909216919091179055565b6000546001600160a01b031690565b80516001600160a01b0381168114620002d057600080fd5b919050565b600080600060608486031215620002ea578283fd5b620002f584620002b8565b92506200030560208501620002b8565b91506200031560408501620002b8565b90509250925092565b9485526020850193909352604084019190915261ffff1660608301526001600160a01b0316608082015260a00190565b60805160601c60a051613972620003936000398061097f5280611cb05250806104ff52806105a95280610a345280610abe5280610e24528061102952506139726000f3fe608060405234801561001057600080fd5b50600436106101f05760003560e01c806382e15e511161010f578063d3ffe67a116100a2578063f2fde38b11610071578063f2fde38b14610433578063f594dbf414610446578063fc6f94681461046c578063feb1653214610474576101f0565b8063d3ffe67a146103fd578063d9db6e0314610405578063db5e4c7514610418578063e1a788eb1461042b576101f0565b80638e09727e116100de5780638e09727e146103a25780639e3079cb146103c2578063a8f7f995146103ca578063d0e5a743146103dd576101f0565b806382e15e511461036c5780638b29caf51461037f5780638c73eb04146103925780638da5cb5b1461039a576101f0565b80633644e515116101875780636f9fb98a116101565780636f9fb98a14610329578063715018a6146103315780637332cec4146103395780637c92f21914610359576101f0565b80633644e515146102ca5780633b121902146102df5780635312ea8e146102f257806359b3c2d814610305576101f0565b806319c2799f116101c357806319c2799f14610268578063216b31c11461029157806324c872ed146102a457806329d9b720146102b7576101f0565b806306cc759b146101f557806311cffb671461021e57806311eac8551461023e57806316c3cdf514610253575b600080fd5b610208610203366004612d6f565b610487565b6040516102159190613401565b60405180910390f35b61023161022c366004612fbc565b6104f1565b6040516102159190613156565b6102466104fd565b60405161021591906130fe565b610266610261366004612e3a565b610521565b005b61027b610276366004612d3f565b610778565b6040516102159a999897969594939291906135a3565b61026661029f366004612d3f565b61085d565b6102316102b2366004612e19565b610942565b6102316102c5366004612c44565b610962565b6102d261097d565b6040516102159190613161565b6102316102ed366004612e19565b6109a1565b610266610300366004612d3f565b6109c1565b610318610313366004612d6f565b610a60565b604051610215959493929190613610565b6102d2610aa4565b610266610b48565b61034c610347366004612d3f565b610bf4565b6040516102159190613112565b610231610367366004612fbc565b610c57565b61026661037a366004612e88565b610cec565b6102d261038d366004612cd1565b6110bf565b6102466112f8565b610246611307565b6103b56103b0366004612d3f565b611316565b60405161021591906134a7565b6102d261146b565b6102666103d8366004612f20565b611471565b6103f06103eb366004612d6f565b6114da565b604051610215919061343f565b6102d26115ef565b610266610413366004612c2a565b6115f5565b610266610426366004612f64565b611679565b6102d26119a3565b610266610441366004612c2a565b6119c7565b610459610454366004612d6f565b611ac9565b604051610215979695949392919061354f565b610246611bab565b6102d2610482366004612e19565b611bba565b61048f6129ea565b5060009182526005602090815260408084206001600160a01b039384168552825292839020835160a081018552815481526001820154928101929092526002810154909216928101929092526003810154606083015260040154608082015290565b60015b95945050505050565b7f000000000000000000000000000000000000000000000000000000000000000081565b6000838152600460205260409020805484146105585760405162461bcd60e51b815260040161054f906132d8565b60405180910390fd5b600881015460ff1661057c5760405162461bcd60e51b815260040161054f9061335c565b6000831161059c5760405162461bcd60e51b815260040161054f90613287565b6105d16001600160a01b037f000000000000000000000000000000000000000000000000000000000000000016333086611beb565b80600501600081548092919060010191905055508281600701600082825401925050819055506040518060e0016040528082600501548152602001336001600160a01b03168152602001848152602001428152602001600015158152602001600663ffffffff16815260200183815250600660008681526020019081526020016000206000336001600160a01b03166001600160a01b031681526020019081526020016000206000820151816000015560208201518160010160006101000a8154816001600160a01b0302191690836001600160a01b03160217905550604082015181600201556060820151816003015560808201518160040160006101000a81548160ff02191690831515021790555060a08201518160040160016101000a81548163ffffffff021916908363ffffffff16021790555060c0820151816005019080519060200190610725929190612a22565b50905050336001600160a01b0316847f743501122ba2cd9590984350a2076553271a243e2b9de8617a802d7c7af7d301600686428760405161076a94939291906131d9565b60405180910390a350505050565b60046020908152600091825260409182902080546001808301546002808501805488516101009582161586026000190190911692909204601f8101889004880283018801909852878252939660ff8084169794909304909216949390929091908301828280156108295780601f106107fe57610100808354040283529160200191610829565b820191906000526020600020905b81548152906001019060200180831161080c57829003601f168201915b5050506003840154600485015460058601546006870154600788015460089098015496979396929550909350919060ff168a565b610865611c4b565b6001600160a01b0316610876611307565b6001600160a01b0316146108bf576040805162461bcd60e51b81526020600482018190526024820152600080516020613831833981519152604482015290519081900360640190fd5b6000818152600460205260409020805482146108ed5760405162461bcd60e51b815260040161054f906132d8565b60088101805460ff19811660ff91821615179182905560405184927fb3c3c605d1520cd5bf41301dd5c04929e0ff021b02a10ea259b5a5b2d521a29c9261093692911690613156565b60405180910390a25050565b600091825260076020908152604080842092845291905290205460ff1690565b6000610972878787878787611c4f565b979650505050505050565b7f000000000000000000000000000000000000000000000000000000000000000081565b600760209081526000928352604080842090915290825290205460ff1681565b6109c9611c4b565b6001600160a01b03166109da611307565b6001600160a01b031614610a23576040805162461bcd60e51b81526020600482018190526024820152600080516020613831833981519152604482015290519081900360640190fd5b600154610a5d906001600160a01b037f00000000000000000000000000000000000000000000000000000000000000008116911683611d26565b50565b600560209081526000928352604080842090915290825290208054600182015460028301546003840154600490940154929391926001600160a01b03909116919085565b6040516370a0823160e01b81526000906001600160a01b037f000000000000000000000000000000000000000000000000000000000000000016906370a0823190610af39030906004016130fe565b60206040518083038186803b158015610b0b57600080fd5b505afa158015610b1f573d6000803e3d6000fd5b505050506040513d601f19601f82011682018060405250810190610b439190612d57565b905090565b610b50611c4b565b6001600160a01b0316610b61611307565b6001600160a01b031614610baa576040805162461bcd60e51b81526020600482018190526024820152600080516020613831833981519152604482015290519081900360640190fd5b600080546040516001600160a01b03909116907f8be0079c531659141344cd1fd0a4f28419497f9722a3daafe3b4186f6b6457e0908390a3600080546001600160a01b0319169055565b600081815260086020908152604091829020805483518184028101840190945280845260609392830182828015610c4a57602002820191906000526020600020905b815481526020019060010190808311610c36575b505050505090505b919050565b6002546000906001600160a01b03163314610c845760405162461bcd60e51b815260040161054f906133d5565b60405163db5e4c7560e01b8152309063db5e4c7590610cad9089908990889088906004016136ca565b600060405180830381600087803b158015610cc757600080fd5b505af1925050508015610cd8575060015b610ce4575060006104f4565b5060016104f4565b600087815260046020526040902080548814610d1a5760405162461bcd60e51b815260040161054f906132d8565b600881015460ff16610d3e5760405162461bcd60e51b815260040161054f9061335c565b600088815260076020908152604080832089845290915290205460ff1615610d785760405162461bcd60e51b815260040161054f90613382565b6001600160a01b038316610d9e5760405162461bcd60e51b815260040161054f906132ae565b80600201604051610daf9190613073565b6040518091039020858051906020012014610ddc5760405162461bcd60e51b815260040161054f90613204565b610dea338888888887611c4f565b610e065760405162461bcd60e51b815260040161054f90613231565b60038101546040516370a0823160e01b815281906001600160a01b037f000000000000000000000000000000000000000000000000000000000000000016906370a0823190610e599030906004016130fe565b60206040518083038186803b158015610e7157600080fd5b505afa158015610e85573d6000803e3d6000fd5b505050506040513d601f19601f82011682018060405250810190610ea99190612d57565b1015610ec75760405162461bcd60e51b815260040161054f906133aa565b81600401600081548092919060010191905055508082600601600082825401925050819055506040518060a00160405280898152602001888152602001856001600160a01b0316815260200182815260200142815250600560008b81526020019081526020016000206000866001600160a01b03166001600160a01b03168152602001908152602001600020600082015181600001556020820151816001015560408201518160020160006101000a8154816001600160a01b0302191690836001600160a01b0316021790555060608201518160030155608082015181600401559050506001600760008b8152602001908152602001600020600089815260200190815260200160002060006101000a81548160ff0219169083151502179055506008600088815260200190815260200160002089908060018154018082558091505060019003906000526020600020016000909190919091505561106084827f00000000000000000000000000000000000000000000000000000000000000006001600160a01b0316611d269092919063ffffffff16565b836001600160a01b0316336001600160a01b03168a7f5f6d78d5d398fbde6899ed8b8490a27ae6f7910869243d2a50b6d94b71c6ca2b8b8b8b87426040516110ac95949392919061363c565b60405180910390a4505050505050505050565b60006110c9611c4b565b6001600160a01b03166110da611307565b6001600160a01b031614611123576040805162461bcd60e51b81526020600482018190526024820152600080516020613831833981519152604482015290519081900360640190fd5b60008351116111445760405162461bcd60e51b815260040161054f9061325b565b600082116111645760405162461bcd60e51b815260040161054f90613287565b6003805460018101825560408051610140810190915281815290916020820190889081111561118f57fe5b81526020018660018111156111a057fe5b81526020018581526020018481526020016000815260200160008152602001600081526020016000815260200160011515815250600460008381526020019081526020016000206000820151816000015560208201518160010160006101000a81548160ff0219169083600381111561121557fe5b021790555060408201518160010160016101000a81548160ff0219169083600181111561123e57fe5b02179055506060820151805161125e916002840191602090910190612a22565b506080820151600382015560a0820151600482015560c0820151600582015560e082015160068201556101008201516007820155610120909101516008909101805460ff191691151591909117905560405181907fa359134b476f4b3e621ad56f265a9173e1d6890866fc0250caa7e37f2b55f60c906112e590899089908990899061319b565b60405180910390a290505b949350505050565b6002546001600160a01b031681565b6000546001600160a01b031690565b61131e612aae565b60008281526004602090815260409182902082516101408101909352805483526001810154909183019060ff16600381111561135657fe5b600381111561136157fe5b81526020016001820160019054906101000a900460ff16600181111561138357fe5b600181111561138e57fe5b8152600282810180546040805160206001841615610100026000190190931694909404601f8101839004830285018301909152808452938101939083018282801561141a5780601f106113ef5761010080835404028352916020019161141a565b820191906000526020600020905b8154815290600101906020018083116113fd57829003601f168201915b505050918352505060038201546020820152600482015460408201526005820154606082015260068201546080820152600782015460a082015260089091015460ff16151560c09091015292915050565b60035481565b6040516382e15e5160e01b815230906382e15e51906114a0908990899089908990899033908a9060040161366f565b600060405180830381600087803b1580156114ba57600080fd5b505af11580156114ce573d6000803e3d6000fd5b50505050505050505050565b6114e2612b04565b60008381526006602090815260408083206001600160a01b03868116855290835292819020815160e08101835281548152600180830154909516818501526002808301548285015260038301546060830152600483015460ff8116151560808401526101009081900463ffffffff1660a08401526005840180548651988116159092026000190190911691909104601f81018690048602870186019094528386529094919360c0860193908301828280156115de5780601f106115b3576101008083540402835291602001916115de565b820191906000526020600020905b8154815290600101906020018083116115c157829003601f168201915b505050505081525050905092915050565b60035490565b6115fd611c4b565b6001600160a01b031661160e611307565b6001600160a01b031614611657576040805162461bcd60e51b81526020600482018190526024820152600080516020613831833981519152604482015290519081900360640190fd5b600280546001600160a01b0319166001600160a01b0392909216919091179055565b3330146116985760405162461bcd60e51b815260040161054f906132fd565b60006116de600084848080601f0160208091040260200160405190810160405280939291908181526020018383808284376000920191909152509293925050611d7d9050565b90506116ef62ffffff198216611d98565b600061170062ffffff198316611e59565b9050600061171362ffffff198316611e91565b6001600160601b0316116117395760405162461bcd60e51b815260040161054f9061332d565b600061174a62ffffff198316611ea0565b9050600080828060200190518101906117639190612d9a565b9150915060006117788662ffffff1916611edf565b600084815260046020526040902080549192509084146117aa5760405162461bcd60e51b815260040161054f906132d8565b600881015460ff166117ce5760405162461bcd60e51b815260040161054f9061335c565b600082116117ee5760405162461bcd60e51b815260040161054f90613287565b806005016000815480929190600101919050555081816007016000828254019250508190555060008a60001c90506040518060e0016040528083600501548152602001826001600160a01b031681526020018481526020014281526020016001151581526020018d63ffffffff16815260200185815250600660008781526020019081526020016000206000836001600160a01b03166001600160a01b031681526020019081526020016000206000820151816000015560208201518160010160006101000a8154816001600160a01b0302191690836001600160a01b03160217905550604082015181600201556060820151816003015560808201518160040160006101000a81548160ff02191690831515021790555060a08201518160040160016101000a81548163ffffffff021916908363ffffffff16021790555060c0820151816005019080519060200190611949929190612a22565b50905050806001600160a01b0316857f743501122ba2cd9590984350a2076553271a243e2b9de8617a802d7c7af7d3018e86428960405161198d94939291906131d9565b60405180910390a3505050505050505050505050565b7f8db8d84faf8b2365d4ffd175c1a5bf60a3c3bb8fd65fb126c9bbc39786d11da781565b6119cf611c4b565b6001600160a01b03166119e0611307565b6001600160a01b031614611a29576040805162461bcd60e51b81526020600482018190526024820152600080516020613831833981519152604482015290519081900360640190fd5b6001600160a01b038116611a6e5760405162461bcd60e51b81526004018080602001828103825260268152602001806137806026913960400191505060405180910390fd5b600080546040516001600160a01b03808516939216917f8be0079c531659141344cd1fd0a4f28419497f9722a3daafe3b4186f6b6457e091a3600080546001600160a01b0319166001600160a01b0392909216919091179055565b60066020908152600092835260408084208252918352918190208054600180830154600280850154600386015460048701546005880180548a516101009882161589026000190190911695909504601f81018c90048c0286018c01909a5289855296996001600160a01b03909516989297919660ff82169690910463ffffffff16949193929091830182828015611ba15780601f10611b7657610100808354040283529160200191611ba1565b820191906000526020600020905b815481529060010190602001808311611b8457829003601f168201915b5050505050905087565b6001546001600160a01b031681565b60086020528160005260406000208181548110611bd657600080fd5b90600052602060002001600091509150505481565b604080516001600160a01b0380861660248301528416604482015260648082018490528251808303909101815260849091019091526020810180516001600160e01b03166323b872dd60e01b179052611c45908590611ef0565b50505050565b3390565b6000807f8db8d84faf8b2365d4ffd175c1a5bf60a3c3bb8fd65fb126c9bbc39786d11da7888888888051906020012088604051602001611c949695949392919061316a565b60405160208183030381529060405280519060200120905060007f000000000000000000000000000000000000000000000000000000000000000082604051602001611ce19291906130e3565b60408051601f19818403018152919052805160209091012090506000611d078286611fa1565b6001546001600160a01b039081169116149a9950505050505050505050565b604080516001600160a01b038416602482015260448082018490528251808303909101815260649091019091526020810180516001600160e01b031663a9059cbb60e01b179052611d78908490611ef0565b505050565b8151600090602084016104f464ffffffffff85168284612021565b611da762ffffff198216612066565b611dec576040805162461bcd60e51b81526020600482015260116024820152704d616c666f726d6564206d65737361676560781b604482015290519081900360640190fd5b60e4611dfd62ffffff198316611e91565b6001600160601b03161015610a5d576040805162461bcd60e51b815260206004820152601f60248201527f496e76616c6964206275726e206d6573736167653a20746f6f2073686f727400604482015290519081900360640190fd5b6000611e8b60e480611e7062ffffff198616611e91565b62ffffff19861692916001600160601b0391031660006120a3565b92915050565b60181c6001600160601b031690565b6060600080611eae84611e91565b6001600160601b031690506040519150819250611ece8483602001612108565b508181016020016040529052919050565b6000611e8b62ffffff198316612239565b6000611f45826040518060400160405280602081526020017f5361666545524332303a206c6f772d6c6576656c2063616c6c206661696c6564815250856001600160a01b031661224e9092919063ffffffff16565b805190915015611d7857808060200190516020811015611f6457600080fd5b5051611d785760405162461bcd60e51b815260040180806020018281038252602a81526020018061388b602a913960400191505060405180910390fd5b60008151604114611ff9576040805162461bcd60e51b815260206004820152601f60248201527f45434453413a20696e76616c6964207369676e6174757265206c656e67746800604482015290519081900360640190fd5b60208201516040830151606084015160001a6120178682858561225d565b9695505050505050565b60008061202e84846123d2565b905060405181111561203e575060005b806120505762ffffff1991505061205f565b61205b85858561242c565b9150505b9392505050565b60006120718261243f565b64ffffffffff1664ffffffffff141561208c57506000610c52565b600061209783612445565b60405110159392505050565b6000806120af8661246a565b6001600160601b031690506120c386612445565b6120d7856120d184896123d2565b906123d2565b11156120ea5762ffffff199150506112f0565b6120f481866123d2565b90506120178364ffffffffff168286612021565b600061211383612479565b61214e5760405162461bcd60e51b81526004018080602001828103825260288152602001806138b56028913960400191505060405180910390fd5b61215783612066565b6121925760405162461bcd60e51b815260040180806020018281038252602b8152602001806138dd602b913960400191505060405180910390fd5b600061219d84611e91565b6001600160601b0316905060006121b38561246a565b6001600160601b031690506000806040519150858211156121d45760206060fd5b8386858560045afa90508061221f576040805162461bcd60e51b815260206004820152600c60248201526b6964656e74697479204f4f4760a01b604482015290519081900360640190fd5b61097261222b8861243f565b64ffffffffff16878661242c565b6000611e8b62ffffff1983166044602061248b565b60606112f084846000856124ac565b60007f7fffffffffffffffffffffffffffffff5d576e7357a4501ddfe92f46681b20a08211156122be5760405162461bcd60e51b81526004018080602001828103825260228152602001806137a66022913960400191505060405180910390fd5b8360ff16601b14806122d357508360ff16601c145b61230e5760405162461bcd60e51b815260040180806020018281038252602281526020018061380f6022913960400191505060405180910390fd5b600060018686868660405160008152602001604052604051808581526020018460ff1681526020018381526020018281526020019450505050506020604051602081039080840390855afa15801561236a573d6000803e3d6000fd5b5050604051601f1901519150506001600160a01b0381166104f4576040805162461bcd60e51b815260206004820152601860248201527f45434453413a20696e76616c6964207369676e61747572650000000000000000604482015290519081900360640190fd5b60008282018381101561205f576040805162461bcd60e51b815260206004820152601b60248201527f536166654d6174683a206164646974696f6e206f766572666c6f770000000000604482015290519081900360640190fd5b606092831b9190911790911b1760181b90565b60d81c90565b600061245082611e91565b6124598361246a565b016001600160601b03169050919050565b60781c6001600160601b031690565b6000612484826125fc565b1592915050565b60008160200360080260ff166124a2858585612608565b901c949350505050565b6060824710156124ed5760405162461bcd60e51b81526004018080602001828103825260268152602001806137c86026913960400191505060405180910390fd5b6124f68561276b565b612547576040805162461bcd60e51b815260206004820152601d60248201527f416464726573733a2063616c6c20746f206e6f6e2d636f6e7472616374000000604482015290519081900360640190fd5b600080866001600160a01b031685876040518082805190602001908083835b602083106125855780518252601f199092019160209182019101612566565b6001836020036101000a03801982511681845116808217855250505050505090500191505060006040518083038185875af1925050503d80600081146125e7576040519150601f19603f3d011682016040523d82523d6000602084013e6125ec565b606091505b5091509150610972828286612771565b62ffffff199081161490565b600060ff821661261a5750600061205f565b61262384611e91565b6001600160601b03166126398460ff85166123d2565b11156126f45761267061264b8561246a565b6001600160601b031661265d86611e91565b6001600160601b0316858560ff166127d7565b60405162461bcd60e51b81526004018080602001828103825283818151815260200191508051906020019080838360005b838110156126b95781810151838201526020016126a1565b50505050905090810190601f1680156126e65780820380516001836020036101000a031916815260200191505b509250505060405180910390fd5b60208260ff1611156127375760405162461bcd60e51b815260040180806020018281038252603a815260200180613851603a913960400191505060405180910390fd5b6008820260006127468661246a565b6001600160601b03169050600061275c836128ca565b91909501511695945050505050565b3b151590565b6060831561278057508161205f565b8251156127905782518084602001fd5b60405162461bcd60e51b81526020600482018181528451602484015284518593919283926044019190850190808383600083156126b95781810151838201526020016126a1565b606060006127e4866128d9565b91505060006127f2866128d9565b9150506000612800866128d9565b915050600061280e866128d9565b915050838383836040516020018080613908603591396001600160d01b031960d087811b821660358401526e040eed2e8d040d8cadccee8d04060f608b1b603b84015286901b16604a82015260500160216137ee82396001600160d01b031960d094851b811660218301526e040eed2e8d040d8cadccee8d04060f608b1b60278301529290931b909116603683015250601760f91b603c82015260408051601d818403018152603d90920190529b9a5050505050505050505050565b600160ff1b6000199091011d90565b600080601f5b600f8160ff1611156129235760ff600882021684901c6128fe81612971565b61ffff16841793508160ff1660101461291957601084901b93505b50600019016128df565b50600f5b60ff8160ff16101561296b5760ff600882021684901c61294681612971565b61ffff16831792508160ff1660001461296157601083901b92505b5060001901612927565b50915091565b600061298360048360ff16901c6129a1565b60ff161760081b62ffff0016612998826129a1565b60ff1617919050565b6040805180820190915260108082526f181899199a1a9b1b9c1cb0b131b232b360811b6020830152600091600f841691829081106129db57fe5b016020015160f81c9392505050565b6040518060a00160405280600081526020016000815260200160006001600160a01b0316815260200160008152602001600081525090565b828054600181600116156101000203166002900490600052602060002090601f016020900481019282612a585760008555612a9e565b82601f10612a7157805160ff1916838001178555612a9e565b82800160010185558215612a9e579182015b82811115612a9e578251825591602001919060010190612a83565b50612aaa929150612b52565b5090565b604080516101408101909152600080825260208201908152602001600081526020016060815260200160008152602001600081526020016000815260200160008152602001600081526020016000151581525090565b6040518060e001604052806000815260200160006001600160a01b031681526020016000815260200160008152602001600015158152602001600063ffffffff168152602001606081525090565b5b80821115612aaa5760008155600101612b53565b80356001600160a01b0381168114610c5257600080fd5b60008083601f840112612b8f578182fd5b50813567ffffffffffffffff811115612ba6578182fd5b602083019150836020828501011115612bbe57600080fd5b9250929050565b600082601f830112612bd5578081fd5b8135612be8612be382613731565b61370d565b818152846020838601011115612bfc578283fd5b816020850160208301379081016020019190915292915050565b803563ffffffff81168114610c5257600080fd5b600060208284031215612c3b578081fd5b61205f82612b67565b60008060008060008060c08789031215612c5c578182fd5b612c6587612b67565b95506020870135945060408701359350606087013567ffffffffffffffff80821115612c8f578384fd5b612c9b8a838b01612bc5565b94506080890135935060a0890135915080821115612cb7578283fd5b50612cc489828a01612bc5565b9150509295509295509295565b60008060008060808587031215612ce6578384fd5b843560048110612cf4578485fd5b9350602085013560028110612d07578384fd5b9250604085013567ffffffffffffffff811115612d22578283fd5b612d2e87828801612bc5565b949793965093946060013593505050565b600060208284031215612d50578081fd5b5035919050565b600060208284031215612d68578081fd5b5051919050565b60008060408385031215612d81578182fd5b82359150612d9160208401612b67565b90509250929050565b60008060408385031215612dac578182fd5b82519150602083015167ffffffffffffffff811115612dc9578182fd5b8301601f81018513612dd9578182fd5b8051612de7612be382613731565b818152866020838501011115612dfb578384fd5b612e0c826020830160208601613753565b8093505050509250929050565b60008060408385031215612e2b578182fd5b50508035926020909101359150565b600080600060608486031215612e4e578283fd5b8335925060208401359150604084013567ffffffffffffffff811115612e72578182fd5b612e7e86828701612bc5565b9150509250925092565b600080600080600080600060e0888a031215612ea2578485fd5b873596506020880135955060408801359450606088013567ffffffffffffffff80821115612ece578283fd5b612eda8b838c01612bc5565b955060808a01359450612eef60a08b01612b67565b935060c08a0135915080821115612f04578283fd5b50612f118a828b01612bc5565b91505092959891949750929550565b60008060008060008060c08789031215612f38578384fd5b863595506020870135945060408701359350606087013567ffffffffffffffff80821115612c8f578384fd5b60008060008060608587031215612f79578182fd5b612f8285612c16565b935060208501359250604085013567ffffffffffffffff811115612fa4578283fd5b612fb087828801612b7e565b95989497509550505050565b600080600080600060808688031215612fd3578283fd5b612fdc86612c16565b945060208601359350612ff160408701612c16565b9250606086013567ffffffffffffffff81111561300c578182fd5b61301888828901612b7e565b969995985093965092949392505050565b15159052565b60008151808452613047816020860160208601613753565b601f01601f19169290920160200192915050565b6002811061306557fe5b9052565b6004811061306557fe5b600080835460018082166000811461309257600181146130a9576130d8565b60ff198316865260028304607f16860193506130d8565b600283048786526020808720875b838110156130d05781548a8201529085019082016130b7565b505050860193505b509195945050505050565b61190160f01b81526002810192909252602282015260420190565b6001600160a01b0391909116815260200190565b6020808252825182820181905260009190848201906040850190845b8181101561314a5783518352928401929184019160010161312e565b50909695505050505050565b901515815260200190565b90815260200190565b9586526001600160a01b0394909416602086015260408501929092526060840152608083015260a082015260c00190565b60006131a78287613069565b6131b4602083018661305b565b608060408301526131c8608083018561302f565b905082606083015295945050505050565b600063ffffffff8616825284602083015283604083015260806060830152612017608083018461302f565b60208082526013908201527209cc2e8d2dedcc2d8d2e8f29ad2e6dac2e8c6d606b1b604082015260600190565b60208082526010908201526f496e76616c69645369676e617475726560801b604082015260600190565b602080825260129082015271496e76616c69644e6174696f6e616c69747960701b604082015260600190565b6020808252600d908201526c125b9d985b1a59105b5bdd5b9d609a1b604082015260600190565b60208082526010908201526f125b9d985b1a59149958da5c1a595b9d60821b604082015260600190565b6020808252600b908201526a125b9d985b1a59141bdbdb60aa1b604082015260600190565b602080825260169082015275496e7465726e616c2066756e6374696f6e206f6e6c7960501b604082015260600190565b602080825260159082015274139bc81a1bdbdac819185d18481c1c9bdd9a591959605a1b604082015260600190565b6020808252600c908201526b506f6f6c496e61637469766560a01b604082015260600190565b6020808252600e908201526d105b1c9958591e50db185a5b595960921b604082015260600190565b602080825260119082015270496e73756666696369656e7446756e647360781b604082015260600190565b6020808252601290820152712ab730baba3437b934bd32b221b0b63632b960711b604082015260600190565b81518152602080830151908201526040808301516001600160a01b031690820152606080830151908201526080918201519181019190915260a00190565b6000602082528251602083015260018060a01b03602084015116604083015260408301516060830152606083015160808301526080830151151560a083015263ffffffff60a08401511660c083015260c083015160e0808401526112f061010084018261302f565b6000602082528251602083015260208301516134c66040840182613069565b5060408301516134d9606084018261305b565b5060608301516101408060808501526134f661016085018361302f565b9150608085015160a085015260a085015160c085015260c085015160e085015260e085015161010081818701528087015191505061012081818701528087015191505061354582860182613029565b5090949350505050565b600088825260018060a01b0388166020830152866040830152856060830152841515608083015263ffffffff841660a083015260e060c083015261359660e083018461302f565b9998505050505050505050565b60006101408c83526135b8602084018d613069565b6135c5604084018c61305b565b8060608401526135d78184018b61302f565b6080840199909952505060a081019590955260c085019390935260e0840191909152610100830152151561012090910152949350505050565b94855260208501939093526001600160a01b039190911660408401526060830152608082015260a00190565b600086825285602083015260a0604083015261365b60a083018661302f565b606083019490945250608001529392505050565b600088825287602083015286604083015260e0606083015261369460e083018761302f565b608083018690526001600160a01b03851660a084015282810360c08401526136bc818561302f565b9a9950505050505050505050565b600063ffffffff861682528460208301526060604083015282606083015282846080840137818301608090810191909152601f909201601f191601019392505050565b60405181810167ffffffffffffffff8111828210171561372957fe5b604052919050565b600067ffffffffffffffff82111561374557fe5b50601f01601f191660200190565b60005b8381101561376e578181015183820152602001613756565b83811115611c45575050600091015256fe4f776e61626c653a206e6577206f776e657220697320746865207a65726f206164647265737345434453413a20696e76616c6964207369676e6174757265202773272076616c7565416464726573733a20696e73756666696369656e742062616c616e636520666f722063616c6c2e20417474656d7074656420746f20696e646578206174206f666673657420307845434453413a20696e76616c6964207369676e6174757265202776272076616c75654f776e61626c653a2063616c6c6572206973206e6f7420746865206f776e657254797065644d656d566965772f696e646578202d20417474656d7074656420746f20696e646578206d6f7265207468616e2033322062797465735361666545524332303a204552433230206f7065726174696f6e20646964206e6f74207375636365656454797065644d656d566965772f636f7079546f202d204e756c6c20706f696e74657220646572656654797065644d656d566965772f636f7079546f202d20496e76616c696420706f696e74657220646572656654797065644d656d566965772f696e646578202d204f76657272616e2074686520766965772e20536c696365206973206174203078a2646970667358221220697afabb9a3f967fb475092502d7356dcf50e4386b77e6c25346b27eccb306e864736f6c634300070600334f776e61626c653a206e6577206f776e657220697320746865207a65726f20616464726573738be0079c531659141344cd1fd0a4f28419497f9722a3daafe3b4186f6b6457e0","opcodes":"PUSH1 0xC0 PUSH1 0x40 MSTORE CALLVALUE DUP1 ISZERO PUSH3 0x11 JUMPI PUSH1 0x0 DUP1 REVERT JUMPDEST POP PUSH1 0x40 MLOAD PUSH3 0x3D4B CODESIZE SUB DUP1 PUSH3 0x3D4B DUP4 CODECOPY DUP2 ADD PUSH1 0x40 DUP2 SWAP1 MSTORE PUSH3 0x34 SWAP2 PUSH3 0x2D5 JUMP JUMPDEST PUSH1 0x0 PUSH3 0x40 PUSH3 0x19B JUMP JUMPDEST PUSH1 0x0 DUP1 SLOAD PUSH1 0x1 PUSH1 0x1 PUSH1 0xA0 SHL SUB NOT AND PUSH1 0x1 PUSH1 0x1 PUSH1 0xA0 SHL SUB DUP4 AND SWAP1 DUP2 OR DUP3 SSTORE PUSH1 0x40 MLOAD SWAP3 SWAP4 POP SWAP2 PUSH1 0x0 DUP1 MLOAD PUSH1 0x20 PUSH3 0x3D2B DUP4 CODECOPY DUP2 MLOAD SWAP2 MSTORE SWAP1 DUP3 SWAP1 LOG3 POP PUSH1 0x1 DUP1 SLOAD PUSH1 0x1 PUSH1 0x1 PUSH1 0xA0 SHL SUB DUP1 DUP7 AND PUSH1 0x1 PUSH1 0x1 PUSH1 0xA0 SHL SUB NOT SWAP3 DUP4 AND OR SWAP1 SWAP3 SSTORE PUSH1 0x1 PUSH1 0x1 PUSH1 0x60 SHL SUB NOT PUSH1 0x60 DUP6 SWAP1 SHL AND PUSH1 0x80 MSTORE PUSH1 0x2 DUP1 SLOAD SWAP3 DUP5 AND SWAP3 SWAP1 SWAP2 AND SWAP2 SWAP1 SWAP2 OR SWAP1 SSTORE PUSH3 0xC6 CALLER PUSH3 0x19F JUMP JUMPDEST PUSH1 0x40 DUP1 MLOAD DUP1 DUP3 ADD DUP3 MSTORE PUSH1 0xB DUP2 MSTORE PUSH11 0x52656C696566506F6F6C73 PUSH1 0xA8 SHL PUSH1 0x20 SWAP2 DUP3 ADD MSTORE DUP2 MLOAD DUP1 DUP4 ADD DUP4 MSTORE PUSH1 0x1 DUP2 MSTORE PUSH1 0x31 PUSH1 0xF8 SHL SWAP1 DUP3 ADD MSTORE SWAP1 MLOAD PUSH3 0x176 SWAP2 PUSH32 0x8B73C3C69BB8FE3D512ECC4CF759CC79239F7B179B0FFACAA9A75D522B39400F SWAP2 PUSH32 0x3323A8070B7081E28CA423D850C49E17147E941AF41DAF0AD176ECF1A5481B67 SWAP2 PUSH32 0xC89EFDAA54C0F20C7ADF612882DF0950F5A951637E0307CDCB4C672F298B8BC6 SWAP2 PUSH2 0x2105 SWAP2 ADDRESS SWAP2 ADD PUSH3 0x31E JUMP JUMPDEST PUSH1 0x40 DUP1 MLOAD PUSH1 0x1F NOT DUP2 DUP5 SUB ADD DUP2 MSTORE SWAP2 SWAP1 MSTORE DUP1 MLOAD PUSH1 0x20 SWAP1 SWAP2 ADD KECCAK256 PUSH1 0xA0 MSTORE POP PUSH3 0x34E SWAP2 POP POP JUMP JUMPDEST CALLER SWAP1 JUMP JUMPDEST PUSH3 0x1A9 PUSH3 0x19B JUMP JUMPDEST PUSH1 0x1 PUSH1 0x1 PUSH1 0xA0 SHL SUB AND PUSH3 0x1BC PUSH3 0x2A9 JUMP JUMPDEST PUSH1 0x1 PUSH1 0x1 PUSH1 0xA0 SHL SUB AND EQ PUSH3 0x218 JUMPI PUSH1 0x40 DUP1 MLOAD PUSH3 0x461BCD PUSH1 0xE5 SHL DUP2 MSTORE PUSH1 0x20 PUSH1 0x4 DUP3 ADD DUP2 SWAP1 MSTORE PUSH1 0x24 DUP3 ADD MSTORE PUSH32 0x4F776E61626C653A2063616C6C6572206973206E6F7420746865206F776E6572 PUSH1 0x44 DUP3 ADD MSTORE SWAP1 MLOAD SWAP1 DUP2 SWAP1 SUB PUSH1 0x64 ADD SWAP1 REVERT JUMPDEST PUSH1 0x1 PUSH1 0x1 PUSH1 0xA0 SHL SUB DUP2 AND PUSH3 0x25F JUMPI PUSH1 0x40 MLOAD PUSH3 0x461BCD PUSH1 0xE5 SHL DUP2 MSTORE PUSH1 0x4 ADD DUP1 DUP1 PUSH1 0x20 ADD DUP3 DUP2 SUB DUP3 MSTORE PUSH1 0x26 DUP2 MSTORE PUSH1 0x20 ADD DUP1 PUSH3 0x3D05 PUSH1 0x26 SWAP2 CODECOPY PUSH1 0x40 ADD SWAP2 POP POP PUSH1 0x40 MLOAD DUP1 SWAP2 SUB SWAP1 REVERT JUMPDEST PUSH1 0x0 DUP1 SLOAD PUSH1 0x40 MLOAD PUSH1 0x1 PUSH1 0x1 PUSH1 0xA0 SHL SUB DUP1 DUP6 AND SWAP4 SWAP3 AND SWAP2 PUSH1 0x0 DUP1 MLOAD PUSH1 0x20 PUSH3 0x3D2B DUP4 CODECOPY DUP2 MLOAD SWAP2 MSTORE SWAP2 LOG3 PUSH1 0x0 DUP1 SLOAD PUSH1 0x1 PUSH1 0x1 PUSH1 0xA0 SHL SUB NOT AND PUSH1 0x1 PUSH1 0x1 PUSH1 0xA0 SHL SUB SWAP3 SWAP1 SWAP3 AND SWAP2 SWAP1 SWAP2 OR SWAP1 SSTORE JUMP JUMPDEST PUSH1 0x0 SLOAD PUSH1 0x1 PUSH1 0x1 PUSH1 0xA0 SHL SUB AND SWAP1 JUMP JUMPDEST DUP1 MLOAD PUSH1 0x1 PUSH1 0x1 PUSH1 0xA0 SHL SUB DUP2 AND DUP2 EQ PUSH3 0x2D0 JUMPI PUSH1 0x0 DUP1 REVERT JUMPDEST SWAP2 SWAP1 POP JUMP JUMPDEST PUSH1 0x0 DUP1 PUSH1 0x0 PUSH1 0x60 DUP5 DUP7 SUB SLT ISZERO PUSH3 0x2EA JUMPI DUP3 DUP4 REVERT JUMPDEST PUSH3 0x2F5 DUP5 PUSH3 0x2B8 JUMP JUMPDEST SWAP3 POP PUSH3 0x305 PUSH1 0x20 DUP6 ADD PUSH3 0x2B8 JUMP JUMPDEST SWAP2 POP PUSH3 0x315 PUSH1 0x40 DUP6 ADD PUSH3 0x2B8 JUMP JUMPDEST SWAP1 POP SWAP3 POP SWAP3 POP SWAP3 JUMP JUMPDEST SWAP5 DUP6 MSTORE PUSH1 0x20 DUP6 ADD SWAP4 SWAP1 SWAP4 MSTORE PUSH1 0x40 DUP5 ADD SWAP2 SWAP1 SWAP2 MSTORE PUSH2 0xFFFF AND PUSH1 0x60 DUP4 ADD MSTORE PUSH1 0x1 PUSH1 0x1 PUSH1 0xA0 SHL SUB AND PUSH1 0x80 DUP3 ADD MSTORE PUSH1 0xA0 ADD SWAP1 JUMP JUMPDEST PUSH1 0x80 MLOAD PUSH1 0x60 SHR PUSH1 0xA0 MLOAD PUSH2 0x3972 PUSH3 0x393 PUSH1 0x0 CODECOPY DUP1 PUSH2 0x97F MSTORE DUP1 PUSH2 0x1CB0 MSTORE POP DUP1 PUSH2 0x4FF MSTORE DUP1 PUSH2 0x5A9 MSTORE DUP1 PUSH2 0xA34 MSTORE DUP1 PUSH2 0xABE MSTORE DUP1 PUSH2 0xE24 MSTORE DUP1 PUSH2 0x1029 MSTORE POP PUSH2 0x3972 PUSH1 0x0 RETURN INVALID PUSH1 0x80 PUSH1 0x40 MSTORE CALLVALUE DUP1 ISZERO PUSH2 0x10 JUMPI PUSH1 0x0 DUP1 REVERT JUMPDEST POP PUSH1 0x4 CALLDATASIZE LT PUSH2 0x1F0 JUMPI PUSH1 0x0 CALLDATALOAD PUSH1 0xE0 SHR DUP1 PUSH4 0x82E15E51 GT PUSH2 0x10F JUMPI DUP1 PUSH4 0xD3FFE67A GT PUSH2 0xA2 JUMPI DUP1 PUSH4 0xF2FDE38B GT PUSH2 0x71 JUMPI DUP1 PUSH4 0xF2FDE38B EQ PUSH2 0x433 JUMPI DUP1 PUSH4 0xF594DBF4 EQ PUSH2 0x446 JUMPI DUP1 PUSH4 0xFC6F9468 EQ PUSH2 0x46C JUMPI DUP1 PUSH4 0xFEB16532 EQ PUSH2 0x474 JUMPI PUSH2 0x1F0 JUMP JUMPDEST DUP1 PUSH4 0xD3FFE67A EQ PUSH2 0x3FD JUMPI DUP1 PUSH4 0xD9DB6E03 EQ PUSH2 0x405 JUMPI DUP1 PUSH4 0xDB5E4C75 EQ PUSH2 0x418 JUMPI DUP1 PUSH4 0xE1A788EB EQ PUSH2 0x42B JUMPI PUSH2 0x1F0 JUMP JUMPDEST DUP1 PUSH4 0x8E09727E GT PUSH2 0xDE JUMPI DUP1 PUSH4 0x8E09727E EQ PUSH2 0x3A2 JUMPI DUP1 PUSH4 0x9E3079CB EQ PUSH2 0x3C2 JUMPI DUP1 PUSH4 0xA8F7F995 EQ PUSH2 0x3CA JUMPI DUP1 PUSH4 0xD0E5A743 EQ PUSH2 0x3DD JUMPI PUSH2 0x1F0 JUMP JUMPDEST DUP1 PUSH4 0x82E15E51 EQ PUSH2 0x36C JUMPI DUP1 PUSH4 0x8B29CAF5 EQ PUSH2 0x37F JUMPI DUP1 PUSH4 0x8C73EB04 EQ PUSH2 0x392 JUMPI DUP1 PUSH4 0x8DA5CB5B EQ PUSH2 0x39A JUMPI PUSH2 0x1F0 JUMP JUMPDEST DUP1 PUSH4 0x3644E515 GT PUSH2 0x187 JUMPI DUP1 PUSH4 0x6F9FB98A GT PUSH2 0x156 JUMPI DUP1 PUSH4 0x6F9FB98A EQ PUSH2 0x329 JUMPI DUP1 PUSH4 0x715018A6 EQ PUSH2 0x331 JUMPI DUP1 PUSH4 0x7332CEC4 EQ PUSH2 0x339 JUMPI DUP1 PUSH4 0x7C92F219 EQ PUSH2 0x359 JUMPI PUSH2 0x1F0 JUMP JUMPDEST DUP1 PUSH4 0x3644E515 EQ PUSH2 0x2CA JUMPI DUP1 PUSH4 0x3B121902 EQ PUSH2 0x2DF JUMPI DUP1 PUSH4 0x5312EA8E EQ PUSH2 0x2F2 JUMPI DUP1 PUSH4 0x59B3C2D8 EQ PUSH2 0x305 JUMPI PUSH2 0x1F0 JUMP JUMPDEST DUP1 PUSH4 0x19C2799F GT PUSH2 0x1C3 JUMPI DUP1 PUSH4 0x19C2799F EQ PUSH2 0x268 JUMPI DUP1 PUSH4 0x216B31C1 EQ PUSH2 0x291 JUMPI DUP1 PUSH4 0x24C872ED EQ PUSH2 0x2A4 JUMPI DUP1 PUSH4 0x29D9B720 EQ PUSH2 0x2B7 JUMPI PUSH2 0x1F0 JUMP JUMPDEST DUP1 PUSH4 0x6CC759B EQ PUSH2 0x1F5 JUMPI DUP1 PUSH4 0x11CFFB67 EQ PUSH2 0x21E JUMPI DUP1 PUSH4 0x11EAC855 EQ PUSH2 0x23E JUMPI DUP1 PUSH4 0x16C3CDF5 EQ PUSH2 0x253 JUMPI JUMPDEST PUSH1 0x0 DUP1 REVERT JUMPDEST PUSH2 0x208 PUSH2 0x203 CALLDATASIZE PUSH1 0x4 PUSH2 0x2D6F JUMP JUMPDEST PUSH2 0x487 JUMP JUMPDEST PUSH1 0x40 MLOAD PUSH2 0x215 SWAP2 SWAP1 PUSH2 0x3401 JUMP JUMPDEST PUSH1 0x40 MLOAD DUP1 SWAP2 SUB SWAP1 RETURN JUMPDEST PUSH2 0x231 PUSH2 0x22C CALLDATASIZE PUSH1 0x4 PUSH2 0x2FBC JUMP JUMPDEST PUSH2 0x4F1 JUMP JUMPDEST PUSH1 0x40 MLOAD PUSH2 0x215 SWAP2 SWAP1 PUSH2 0x3156 JUMP JUMPDEST PUSH2 0x246 PUSH2 0x4FD JUMP JUMPDEST PUSH1 0x40 MLOAD PUSH2 0x215 SWAP2 SWAP1 PUSH2 0x30FE JUMP JUMPDEST PUSH2 0x266 PUSH2 0x261 CALLDATASIZE PUSH1 0x4 PUSH2 0x2E3A JUMP JUMPDEST PUSH2 0x521 JUMP JUMPDEST STOP JUMPDEST PUSH2 0x27B PUSH2 0x276 CALLDATASIZE PUSH1 0x4 PUSH2 0x2D3F JUMP JUMPDEST PUSH2 0x778 JUMP JUMPDEST PUSH1 0x40 MLOAD PUSH2 0x215 SWAP11 SWAP10 SWAP9 SWAP8 SWAP7 SWAP6 SWAP5 SWAP4 SWAP3 SWAP2 SWAP1 PUSH2 0x35A3 JUMP JUMPDEST PUSH2 0x266 PUSH2 0x29F CALLDATASIZE PUSH1 0x4 PUSH2 0x2D3F JUMP JUMPDEST PUSH2 0x85D JUMP JUMPDEST PUSH2 0x231 PUSH2 0x2B2 CALLDATASIZE PUSH1 0x4 PUSH2 0x2E19 JUMP JUMPDEST PUSH2 0x942 JUMP JUMPDEST PUSH2 0x231 PUSH2 0x2C5 CALLDATASIZE PUSH1 0x4 PUSH2 0x2C44 JUMP JUMPDEST PUSH2 0x962 JUMP JUMPDEST PUSH2 0x2D2 PUSH2 0x97D JUMP JUMPDEST PUSH1 0x40 MLOAD PUSH2 0x215 SWAP2 SWAP1 PUSH2 0x3161 JUMP JUMPDEST PUSH2 0x231 PUSH2 0x2ED CALLDATASIZE PUSH1 0x4 PUSH2 0x2E19 JUMP JUMPDEST PUSH2 0x9A1 JUMP JUMPDEST PUSH2 0x266 PUSH2 0x300 CALLDATASIZE PUSH1 0x4 PUSH2 0x2D3F JUMP JUMPDEST PUSH2 0x9C1 JUMP JUMPDEST PUSH2 0x318 PUSH2 0x313 CALLDATASIZE PUSH1 0x4 PUSH2 0x2D6F JUMP JUMPDEST PUSH2 0xA60 JUMP JUMPDEST PUSH1 0x40 MLOAD PUSH2 0x215 SWAP6 SWAP5 SWAP4 SWAP3 SWAP2 SWAP1 PUSH2 0x3610 JUMP JUMPDEST PUSH2 0x2D2 PUSH2 0xAA4 JUMP JUMPDEST PUSH2 0x266 PUSH2 0xB48 JUMP JUMPDEST PUSH2 0x34C PUSH2 0x347 CALLDATASIZE PUSH1 0x4 PUSH2 0x2D3F JUMP JUMPDEST PUSH2 0xBF4 JUMP JUMPDEST PUSH1 0x40 MLOAD PUSH2 0x215 SWAP2 SWAP1 PUSH2 0x3112 JUMP JUMPDEST PUSH2 0x231 PUSH2 0x367 CALLDATASIZE PUSH1 0x4 PUSH2 0x2FBC JUMP JUMPDEST PUSH2 0xC57 JUMP JUMPDEST PUSH2 0x266 PUSH2 0x37A CALLDATASIZE PUSH1 0x4 PUSH2 0x2E88 JUMP JUMPDEST PUSH2 0xCEC JUMP JUMPDEST PUSH2 0x2D2 PUSH2 0x38D CALLDATASIZE PUSH1 0x4 PUSH2 0x2CD1 JUMP JUMPDEST PUSH2 0x10BF JUMP JUMPDEST PUSH2 0x246 PUSH2 0x12F8 JUMP JUMPDEST PUSH2 0x246 PUSH2 0x1307 JUMP JUMPDEST PUSH2 0x3B5 PUSH2 0x3B0 CALLDATASIZE PUSH1 0x4 PUSH2 0x2D3F JUMP JUMPDEST PUSH2 0x1316 JUMP JUMPDEST PUSH1 0x40 MLOAD PUSH2 0x215 SWAP2 SWAP1 PUSH2 0x34A7 JUMP JUMPDEST PUSH2 0x2D2 PUSH2 0x146B JUMP JUMPDEST PUSH2 0x266 PUSH2 0x3D8 CALLDATASIZE PUSH1 0x4 PUSH2 0x2F20 JUMP JUMPDEST PUSH2 0x1471 JUMP JUMPDEST PUSH2 0x3F0 PUSH2 0x3EB CALLDATASIZE PUSH1 0x4 PUSH2 0x2D6F JUMP JUMPDEST PUSH2 0x14DA JUMP JUMPDEST PUSH1 0x40 MLOAD PUSH2 0x215 SWAP2 SWAP1 PUSH2 0x343F JUMP JUMPDEST PUSH2 0x2D2 PUSH2 0x15EF JUMP JUMPDEST PUSH2 0x266 PUSH2 0x413 CALLDATASIZE PUSH1 0x4 PUSH2 0x2C2A JUMP JUMPDEST PUSH2 0x15F5 JUMP JUMPDEST PUSH2 0x266 PUSH2 0x426 CALLDATASIZE PUSH1 0x4 PUSH2 0x2F64 JUMP JUMPDEST PUSH2 0x1679 JUMP JUMPDEST PUSH2 0x2D2 PUSH2 0x19A3 JUMP JUMPDEST PUSH2 0x266 PUSH2 0x441 CALLDATASIZE PUSH1 0x4 PUSH2 0x2C2A JUMP JUMPDEST PUSH2 0x19C7 JUMP JUMPDEST PUSH2 0x459 PUSH2 0x454 CALLDATASIZE PUSH1 0x4 PUSH2 0x2D6F JUMP JUMPDEST PUSH2 0x1AC9 JUMP JUMPDEST PUSH1 0x40 MLOAD PUSH2 0x215 SWAP8 SWAP7 SWAP6 SWAP5 SWAP4 SWAP3 SWAP2 SWAP1 PUSH2 0x354F JUMP JUMPDEST PUSH2 0x246 PUSH2 0x1BAB JUMP JUMPDEST PUSH2 0x2D2 PUSH2 0x482 CALLDATASIZE PUSH1 0x4 PUSH2 0x2E19 JUMP JUMPDEST PUSH2 0x1BBA JUMP JUMPDEST PUSH2 0x48F PUSH2 0x29EA JUMP JUMPDEST POP PUSH1 0x0 SWAP2 DUP3 MSTORE PUSH1 0x5 PUSH1 0x20 SWAP1 DUP2 MSTORE PUSH1 0x40 DUP1 DUP5 KECCAK256 PUSH1 0x1 PUSH1 0x1 PUSH1 0xA0 SHL SUB SWAP4 DUP5 AND DUP6 MSTORE DUP3 MSTORE SWAP3 DUP4 SWAP1 KECCAK256 DUP4 MLOAD PUSH1 0xA0 DUP2 ADD DUP6 MSTORE DUP2 SLOAD DUP2 MSTORE PUSH1 0x1 DUP3 ADD SLOAD SWAP3 DUP2 ADD SWAP3 SWAP1 SWAP3 MSTORE PUSH1 0x2 DUP2 ADD SLOAD SWAP1 SWAP3 AND SWAP3 DUP2 ADD SWAP3 SWAP1 SWAP3 MSTORE PUSH1 0x3 DUP2 ADD SLOAD PUSH1 0x60 DUP4 ADD MSTORE PUSH1 0x4 ADD SLOAD PUSH1 0x80 DUP3 ADD MSTORE SWAP1 JUMP JUMPDEST PUSH1 0x1 JUMPDEST SWAP6 SWAP5 POP POP POP POP POP JUMP JUMPDEST PUSH32 0x0 DUP2 JUMP JUMPDEST PUSH1 0x0 DUP4 DUP2 MSTORE PUSH1 0x4 PUSH1 0x20 MSTORE PUSH1 0x40 SWAP1 KECCAK256 DUP1 SLOAD DUP5 EQ PUSH2 0x558 JUMPI PUSH1 0x40 MLOAD PUSH3 0x461BCD PUSH1 0xE5 SHL DUP2 MSTORE PUSH1 0x4 ADD PUSH2 0x54F SWAP1 PUSH2 0x32D8 JUMP JUMPDEST PUSH1 0x40 MLOAD DUP1 SWAP2 SUB SWAP1 REVERT JUMPDEST PUSH1 0x8 DUP2 ADD SLOAD PUSH1 0xFF AND PUSH2 0x57C JUMPI PUSH1 0x40 MLOAD PUSH3 0x461BCD PUSH1 0xE5 SHL DUP2 MSTORE PUSH1 0x4 ADD PUSH2 0x54F SWAP1 PUSH2 0x335C JUMP JUMPDEST PUSH1 0x0 DUP4 GT PUSH2 0x59C JUMPI PUSH1 0x40 MLOAD PUSH3 0x461BCD PUSH1 0xE5 SHL DUP2 MSTORE PUSH1 0x4 ADD PUSH2 0x54F SWAP1 PUSH2 0x3287 JUMP JUMPDEST PUSH2 0x5D1 PUSH1 0x1 PUSH1 0x1 PUSH1 0xA0 SHL SUB PUSH32 0x0 AND CALLER ADDRESS DUP7 PUSH2 0x1BEB JUMP JUMPDEST DUP1 PUSH1 0x5 ADD PUSH1 0x0 DUP2 SLOAD DUP1 SWAP3 SWAP2 SWAP1 PUSH1 0x1 ADD SWAP2 SWAP1 POP SSTORE POP DUP3 DUP2 PUSH1 0x7 ADD PUSH1 0x0 DUP3 DUP3 SLOAD ADD SWAP3 POP POP DUP2 SWAP1 SSTORE POP PUSH1 0x40 MLOAD DUP1 PUSH1 0xE0 ADD PUSH1 0x40 MSTORE DUP1 DUP3 PUSH1 0x5 ADD SLOAD DUP2 MSTORE PUSH1 0x20 ADD CALLER PUSH1 0x1 PUSH1 0x1 PUSH1 0xA0 SHL SUB AND DUP2 MSTORE PUSH1 0x20 ADD DUP5 DUP2 MSTORE PUSH1 0x20 ADD TIMESTAMP DUP2 MSTORE PUSH1 0x20 ADD PUSH1 0x0 ISZERO ISZERO DUP2 MSTORE PUSH1 0x20 ADD PUSH1 0x6 PUSH4 0xFFFFFFFF AND DUP2 MSTORE PUSH1 0x20 ADD DUP4 DUP2 MSTORE POP PUSH1 0x6 PUSH1 0x0 DUP7 DUP2 MSTORE PUSH1 0x20 ADD SWAP1 DUP2 MSTORE PUSH1 0x20 ADD PUSH1 0x0 KECCAK256 PUSH1 0x0 CALLER PUSH1 0x1 PUSH1 0x1 PUSH1 0xA0 SHL SUB AND PUSH1 0x1 PUSH1 0x1 PUSH1 0xA0 SHL SUB AND DUP2 MSTORE PUSH1 0x20 ADD SWAP1 DUP2 MSTORE PUSH1 0x20 ADD PUSH1 0x0 KECCAK256 PUSH1 0x0 DUP3 ADD MLOAD DUP2 PUSH1 0x0 ADD SSTORE PUSH1 0x20 DUP3 ADD MLOAD DUP2 PUSH1 0x1 ADD PUSH1 0x0 PUSH2 0x100 EXP DUP2 SLOAD DUP2 PUSH1 0x1 PUSH1 0x1 PUSH1 0xA0 SHL SUB MUL NOT AND SWAP1 DUP4 PUSH1 0x1 PUSH1 0x1 PUSH1 0xA0 SHL SUB AND MUL OR SWAP1 SSTORE POP PUSH1 0x40 DUP3 ADD MLOAD DUP2 PUSH1 0x2 ADD SSTORE PUSH1 0x60 DUP3 ADD MLOAD DUP2 PUSH1 0x3 ADD SSTORE PUSH1 0x80 DUP3 ADD MLOAD DUP2 PUSH1 0x4 ADD PUSH1 0x0 PUSH2 0x100 EXP DUP2 SLOAD DUP2 PUSH1 0xFF MUL NOT AND SWAP1 DUP4 ISZERO ISZERO MUL OR SWAP1 SSTORE POP PUSH1 0xA0 DUP3 ADD MLOAD DUP2 PUSH1 0x4 ADD PUSH1 0x1 PUSH2 0x100 EXP DUP2 SLOAD DUP2 PUSH4 0xFFFFFFFF MUL NOT AND SWAP1 DUP4 PUSH4 0xFFFFFFFF AND MUL OR SWAP1 SSTORE POP PUSH1 0xC0 DUP3 ADD MLOAD DUP2 PUSH1 0x5 ADD SWAP1 DUP1 MLOAD SWAP1 PUSH1 0x20 ADD SWAP1 PUSH2 0x725 SWAP3 SWAP2 SWAP1 PUSH2 0x2A22 JUMP JUMPDEST POP SWAP1 POP POP CALLER PUSH1 0x1 PUSH1 0x1 PUSH1 0xA0 SHL SUB AND DUP5 PUSH32 0x743501122BA2CD9590984350A2076553271A243E2B9DE8617A802D7C7AF7D301 PUSH1 0x6 DUP7 TIMESTAMP DUP8 PUSH1 0x40 MLOAD PUSH2 0x76A SWAP5 SWAP4 SWAP3 SWAP2 SWAP1 PUSH2 0x31D9 JUMP JUMPDEST PUSH1 0x40 MLOAD DUP1 SWAP2 SUB SWAP1 LOG3 POP POP POP POP JUMP JUMPDEST PUSH1 0x4 PUSH1 0x20 SWAP1 DUP2 MSTORE PUSH1 0x0 SWAP2 DUP3 MSTORE PUSH1 0x40 SWAP2 DUP3 SWAP1 KECCAK256 DUP1 SLOAD PUSH1 0x1 DUP1 DUP4 ADD SLOAD PUSH1 0x2 DUP1 DUP6 ADD DUP1 SLOAD DUP9 MLOAD PUSH2 0x100 SWAP6 DUP3 AND ISZERO DUP7 MUL PUSH1 0x0 NOT ADD SWAP1 SWAP2 AND SWAP3 SWAP1 SWAP3 DIV PUSH1 0x1F DUP2 ADD DUP9 SWAP1 DIV DUP9 MUL DUP4 ADD DUP9 ADD SWAP1 SWAP9 MSTORE DUP8 DUP3 MSTORE SWAP4 SWAP7 PUSH1 0xFF DUP1 DUP5 AND SWAP8 SWAP5 SWAP1 SWAP4 DIV SWAP1 SWAP3 AND SWAP5 SWAP4 SWAP1 SWAP3 SWAP1 SWAP2 SWAP1 DUP4 ADD DUP3 DUP3 DUP1 ISZERO PUSH2 0x829 JUMPI DUP1 PUSH1 0x1F LT PUSH2 0x7FE JUMPI PUSH2 0x100 DUP1 DUP4 SLOAD DIV MUL DUP4 MSTORE SWAP2 PUSH1 0x20 ADD SWAP2 PUSH2 0x829 JUMP JUMPDEST DUP3 ADD SWAP2 SWAP1 PUSH1 0x0 MSTORE PUSH1 0x20 PUSH1 0x0 KECCAK256 SWAP1 JUMPDEST DUP2 SLOAD DUP2 MSTORE SWAP1 PUSH1 0x1 ADD SWAP1 PUSH1 0x20 ADD DUP1 DUP4 GT PUSH2 0x80C JUMPI DUP3 SWAP1 SUB PUSH1 0x1F AND DUP3 ADD SWAP2 JUMPDEST POP POP POP PUSH1 0x3 DUP5 ADD SLOAD PUSH1 0x4 DUP6 ADD SLOAD PUSH1 0x5 DUP7 ADD SLOAD PUSH1 0x6 DUP8 ADD SLOAD PUSH1 0x7 DUP9 ADD SLOAD PUSH1 0x8 SWAP1 SWAP9 ADD SLOAD SWAP7 SWAP8 SWAP4 SWAP7 SWAP3 SWAP6 POP SWAP1 SWAP4 POP SWAP2 SWAP1 PUSH1 0xFF AND DUP11 JUMP JUMPDEST PUSH2 0x865 PUSH2 0x1C4B JUMP JUMPDEST PUSH1 0x1 PUSH1 0x1 PUSH1 0xA0 SHL SUB AND PUSH2 0x876 PUSH2 0x1307 JUMP JUMPDEST PUSH1 0x1 PUSH1 0x1 PUSH1 0xA0 SHL SUB AND EQ PUSH2 0x8BF JUMPI PUSH1 0x40 DUP1 MLOAD PUSH3 0x461BCD PUSH1 0xE5 SHL DUP2 MSTORE PUSH1 0x20 PUSH1 0x4 DUP3 ADD DUP2 SWAP1 MSTORE PUSH1 0x24 DUP3 ADD MSTORE PUSH1 0x0 DUP1 MLOAD PUSH1 0x20 PUSH2 0x3831 DUP4 CODECOPY DUP2 MLOAD SWAP2 MSTORE PUSH1 0x44 DUP3 ADD MSTORE SWAP1 MLOAD SWAP1 DUP2 SWAP1 SUB PUSH1 0x64 ADD SWAP1 REVERT JUMPDEST PUSH1 0x0 DUP2 DUP2 MSTORE PUSH1 0x4 PUSH1 0x20 MSTORE PUSH1 0x40 SWAP1 KECCAK256 DUP1 SLOAD DUP3 EQ PUSH2 0x8ED JUMPI PUSH1 0x40 MLOAD PUSH3 0x461BCD PUSH1 0xE5 SHL DUP2 MSTORE PUSH1 0x4 ADD PUSH2 0x54F SWAP1 PUSH2 0x32D8 JUMP JUMPDEST PUSH1 0x8 DUP2 ADD DUP1 SLOAD PUSH1 0xFF NOT DUP2 AND PUSH1 0xFF SWAP2 DUP3 AND ISZERO OR SWAP2 DUP3 SWAP1 SSTORE PUSH1 0x40 MLOAD DUP5 SWAP3 PUSH32 0xB3C3C605D1520CD5BF41301DD5C04929E0FF021B02A10EA259B5A5B2D521A29C SWAP3 PUSH2 0x936 SWAP3 SWAP2 AND SWAP1 PUSH2 0x3156 JUMP JUMPDEST PUSH1 0x40 MLOAD DUP1 SWAP2 SUB SWAP1 LOG2 POP POP JUMP JUMPDEST PUSH1 0x0 SWAP2 DUP3 MSTORE PUSH1 0x7 PUSH1 0x20 SWAP1 DUP2 MSTORE PUSH1 0x40 DUP1 DUP5 KECCAK256 SWAP3 DUP5 MSTORE SWAP2 SWAP1 MSTORE SWAP1 KECCAK256 SLOAD PUSH1 0xFF AND SWAP1 JUMP JUMPDEST PUSH1 0x0 PUSH2 0x972 DUP8 DUP8 DUP8 DUP8 DUP8 DUP8 PUSH2 0x1C4F JUMP JUMPDEST SWAP8 SWAP7 POP POP POP POP POP POP POP JUMP JUMPDEST PUSH32 0x0 DUP2 JUMP JUMPDEST PUSH1 0x7 PUSH1 0x20 SWAP1 DUP2 MSTORE PUSH1 0x0 SWAP3 DUP4 MSTORE PUSH1 0x40 DUP1 DUP5 KECCAK256 SWAP1 SWAP2 MSTORE SWAP1 DUP3 MSTORE SWAP1 KECCAK256 SLOAD PUSH1 0xFF AND DUP2 JUMP JUMPDEST PUSH2 0x9C9 PUSH2 0x1C4B JUMP JUMPDEST PUSH1 0x1 PUSH1 0x1 PUSH1 0xA0 SHL SUB AND PUSH2 0x9DA PUSH2 0x1307 JUMP JUMPDEST PUSH1 0x1 PUSH1 0x1 PUSH1 0xA0 SHL SUB AND EQ PUSH2 0xA23 JUMPI PUSH1 0x40 DUP1 MLOAD PUSH3 0x461BCD PUSH1 0xE5 SHL DUP2 MSTORE PUSH1 0x20 PUSH1 0x4 DUP3 ADD DUP2 SWAP1 MSTORE PUSH1 0x24 DUP3 ADD MSTORE PUSH1 0x0 DUP1 MLOAD PUSH1 0x20 PUSH2 0x3831 DUP4 CODECOPY DUP2 MLOAD SWAP2 MSTORE PUSH1 0x44 DUP3 ADD MSTORE SWAP1 MLOAD SWAP1 DUP2 SWAP1 SUB PUSH1 0x64 ADD SWAP1 REVERT JUMPDEST PUSH1 0x1 SLOAD PUSH2 0xA5D SWAP1 PUSH1 0x1 PUSH1 0x1 PUSH1 0xA0 SHL SUB PUSH32 0x0 DUP2 AND SWAP2 AND DUP4 PUSH2 0x1D26 JUMP JUMPDEST POP JUMP JUMPDEST PUSH1 0x5 PUSH1 0x20 SWAP1 DUP2 MSTORE PUSH1 0x0 SWAP3 DUP4 MSTORE PUSH1 0x40 DUP1 DUP5 KECCAK256 SWAP1 SWAP2 MSTORE SWAP1 DUP3 MSTORE SWAP1 KECCAK256 DUP1 SLOAD PUSH1 0x1 DUP3 ADD SLOAD PUSH1 0x2 DUP4 ADD SLOAD PUSH1 0x3 DUP5 ADD SLOAD PUSH1 0x4 SWAP1 SWAP5 ADD SLOAD SWAP3 SWAP4 SWAP2 SWAP3 PUSH1 0x1 PUSH1 0x1 PUSH1 0xA0 SHL SUB SWAP1 SWAP2 AND SWAP2 SWAP1 DUP6 JUMP JUMPDEST PUSH1 0x40 MLOAD PUSH4 0x70A08231 PUSH1 0xE0 SHL DUP2 MSTORE PUSH1 0x0 SWAP1 PUSH1 0x1 PUSH1 0x1 PUSH1 0xA0 SHL SUB PUSH32 0x0 AND SWAP1 PUSH4 0x70A08231 SWAP1 PUSH2 0xAF3 SWAP1 ADDRESS SWAP1 PUSH1 0x4 ADD PUSH2 0x30FE JUMP JUMPDEST PUSH1 0x20 PUSH1 0x40 MLOAD DUP1 DUP4 SUB DUP2 DUP7 DUP1 EXTCODESIZE ISZERO DUP1 ISZERO PUSH2 0xB0B JUMPI PUSH1 0x0 DUP1 REVERT JUMPDEST POP GAS STATICCALL ISZERO DUP1 ISZERO PUSH2 0xB1F JUMPI RETURNDATASIZE PUSH1 0x0 DUP1 RETURNDATACOPY RETURNDATASIZE PUSH1 0x0 REVERT JUMPDEST POP POP POP POP PUSH1 0x40 MLOAD RETURNDATASIZE PUSH1 0x1F NOT PUSH1 0x1F DUP3 ADD AND DUP3 ADD DUP1 PUSH1 0x40 MSTORE POP DUP2 ADD SWAP1 PUSH2 0xB43 SWAP2 SWAP1 PUSH2 0x2D57 JUMP JUMPDEST SWAP1 POP SWAP1 JUMP JUMPDEST PUSH2 0xB50 PUSH2 0x1C4B JUMP JUMPDEST PUSH1 0x1 PUSH1 0x1 PUSH1 0xA0 SHL SUB AND PUSH2 0xB61 PUSH2 0x1307 JUMP JUMPDEST PUSH1 0x1 PUSH1 0x1 PUSH1 0xA0 SHL SUB AND EQ PUSH2 0xBAA JUMPI PUSH1 0x40 DUP1 MLOAD PUSH3 0x461BCD PUSH1 0xE5 SHL DUP2 MSTORE PUSH1 0x20 PUSH1 0x4 DUP3 ADD DUP2 SWAP1 MSTORE PUSH1 0x24 DUP3 ADD MSTORE PUSH1 0x0 DUP1 MLOAD PUSH1 0x20 PUSH2 0x3831 DUP4 CODECOPY DUP2 MLOAD SWAP2 MSTORE PUSH1 0x44 DUP3 ADD MSTORE SWAP1 MLOAD SWAP1 DUP2 SWAP1 SUB PUSH1 0x64 ADD SWAP1 REVERT JUMPDEST PUSH1 0x0 DUP1 SLOAD PUSH1 0x40 MLOAD PUSH1 0x1 PUSH1 0x1 PUSH1 0xA0 SHL SUB SWAP1 SWAP2 AND SWAP1 PUSH32 0x8BE0079C531659141344CD1FD0A4F28419497F9722A3DAAFE3B4186F6B6457E0 SWAP1 DUP4 SWAP1 LOG3 PUSH1 0x0 DUP1 SLOAD PUSH1 0x1 PUSH1 0x1 PUSH1 0xA0 SHL SUB NOT AND SWAP1 SSTORE JUMP JUMPDEST PUSH1 0x0 DUP2 DUP2 MSTORE PUSH1 0x8 PUSH1 0x20 SWAP1 DUP2 MSTORE PUSH1 0x40 SWAP2 DUP3 SWAP1 KECCAK256 DUP1 SLOAD DUP4 MLOAD DUP2 DUP5 MUL DUP2 ADD DUP5 ADD SWAP1 SWAP5 MSTORE DUP1 DUP5 MSTORE PUSH1 0x60 SWAP4 SWAP3 DUP4 ADD DUP3 DUP3 DUP1 ISZERO PUSH2 0xC4A JUMPI PUSH1 0x20 MUL DUP3 ADD SWAP2 SWAP1 PUSH1 0x0 MSTORE PUSH1 0x20 PUSH1 0x0 KECCAK256 SWAP1 JUMPDEST DUP2 SLOAD DUP2 MSTORE PUSH1 0x20 ADD SWAP1 PUSH1 0x1 ADD SWAP1 DUP1 DUP4 GT PUSH2 0xC36 JUMPI JUMPDEST POP POP POP POP POP SWAP1 POP JUMPDEST SWAP2 SWAP1 POP JUMP JUMPDEST PUSH1 0x2 SLOAD PUSH1 0x0 SWAP1 PUSH1 0x1 PUSH1 0x1 PUSH1 0xA0 SHL SUB AND CALLER EQ PUSH2 0xC84 JUMPI PUSH1 0x40 MLOAD PUSH3 0x461BCD PUSH1 0xE5 SHL DUP2 MSTORE PUSH1 0x4 ADD PUSH2 0x54F SWAP1 PUSH2 0x33D5 JUMP JUMPDEST PUSH1 0x40 MLOAD PUSH4 0xDB5E4C75 PUSH1 0xE0 SHL DUP2 MSTORE ADDRESS SWAP1 PUSH4 0xDB5E4C75 SWAP1 PUSH2 0xCAD SWAP1 DUP10 SWAP1 DUP10 SWAP1 DUP9 SWAP1 DUP9 SWAP1 PUSH1 0x4 ADD PUSH2 0x36CA JUMP JUMPDEST PUSH1 0x0 PUSH1 0x40 MLOAD DUP1 DUP4 SUB DUP2 PUSH1 0x0 DUP8 DUP1 EXTCODESIZE ISZERO DUP1 ISZERO PUSH2 0xCC7 JUMPI PUSH1 0x0 DUP1 REVERT JUMPDEST POP GAS CALL SWAP3 POP POP POP DUP1 ISZERO PUSH2 0xCD8 JUMPI POP PUSH1 0x1 JUMPDEST PUSH2 0xCE4 JUMPI POP PUSH1 0x0 PUSH2 0x4F4 JUMP JUMPDEST POP PUSH1 0x1 PUSH2 0x4F4 JUMP JUMPDEST PUSH1 0x0 DUP8 DUP2 MSTORE PUSH1 0x4 PUSH1 0x20 MSTORE PUSH1 0x40 SWAP1 KECCAK256 DUP1 SLOAD DUP9 EQ PUSH2 0xD1A JUMPI PUSH1 0x40 MLOAD PUSH3 0x461BCD PUSH1 0xE5 SHL DUP2 MSTORE PUSH1 0x4 ADD PUSH2 0x54F SWAP1 PUSH2 0x32D8 JUMP JUMPDEST PUSH1 0x8 DUP2 ADD SLOAD PUSH1 0xFF AND PUSH2 0xD3E JUMPI PUSH1 0x40 MLOAD PUSH3 0x461BCD PUSH1 0xE5 SHL DUP2 MSTORE PUSH1 0x4 ADD PUSH2 0x54F SWAP1 PUSH2 0x335C JUMP JUMPDEST PUSH1 0x0 DUP9 DUP2 MSTORE PUSH1 0x7 PUSH1 0x20 SWAP1 DUP2 MSTORE PUSH1 0x40 DUP1 DUP4 KECCAK256 DUP10 DUP5 MSTORE SWAP1 SWAP2 MSTORE SWAP1 KECCAK256 SLOAD PUSH1 0xFF AND ISZERO PUSH2 0xD78 JUMPI PUSH1 0x40 MLOAD PUSH3 0x461BCD PUSH1 0xE5 SHL DUP2 MSTORE PUSH1 0x4 ADD PUSH2 0x54F SWAP1 PUSH2 0x3382 JUMP JUMPDEST PUSH1 0x1 PUSH1 0x1 PUSH1 0xA0 SHL SUB DUP4 AND PUSH2 0xD9E JUMPI PUSH1 0x40 MLOAD PUSH3 0x461BCD PUSH1 0xE5 SHL DUP2 MSTORE PUSH1 0x4 ADD PUSH2 0x54F SWAP1 PUSH2 0x32AE JUMP JUMPDEST DUP1 PUSH1 0x2 ADD PUSH1 0x40 MLOAD PUSH2 0xDAF SWAP2 SWAP1 PUSH2 0x3073 JUMP JUMPDEST PUSH1 0x40 MLOAD DUP1 SWAP2 SUB SWAP1 KECCAK256 DUP6 DUP1 MLOAD SWAP1 PUSH1 0x20 ADD KECCAK256 EQ PUSH2 0xDDC JUMPI PUSH1 0x40 MLOAD PUSH3 0x461BCD PUSH1 0xE5 SHL DUP2 MSTORE PUSH1 0x4 ADD PUSH2 0x54F SWAP1 PUSH2 0x3204 JUMP JUMPDEST PUSH2 0xDEA CALLER DUP9 DUP9 DUP9 DUP9 DUP8 PUSH2 0x1C4F JUMP JUMPDEST PUSH2 0xE06 JUMPI PUSH1 0x40 MLOAD PUSH3 0x461BCD PUSH1 0xE5 SHL DUP2 MSTORE PUSH1 0x4 ADD PUSH2 0x54F SWAP1 PUSH2 0x3231 JUMP JUMPDEST PUSH1 0x3 DUP2 ADD SLOAD PUSH1 0x40 MLOAD PUSH4 0x70A08231 PUSH1 0xE0 SHL DUP2 MSTORE DUP2 SWAP1 PUSH1 0x1 PUSH1 0x1 PUSH1 0xA0 SHL SUB PUSH32 0x0 AND SWAP1 PUSH4 0x70A08231 SWAP1 PUSH2 0xE59 SWAP1 ADDRESS SWAP1 PUSH1 0x4 ADD PUSH2 0x30FE JUMP JUMPDEST PUSH1 0x20 PUSH1 0x40 MLOAD DUP1 DUP4 SUB DUP2 DUP7 DUP1 EXTCODESIZE ISZERO DUP1 ISZERO PUSH2 0xE71 JUMPI PUSH1 0x0 DUP1 REVERT JUMPDEST POP GAS STATICCALL ISZERO DUP1 ISZERO PUSH2 0xE85 JUMPI RETURNDATASIZE PUSH1 0x0 DUP1 RETURNDATACOPY RETURNDATASIZE PUSH1 0x0 REVERT JUMPDEST POP POP POP POP PUSH1 0x40 MLOAD RETURNDATASIZE PUSH1 0x1F NOT PUSH1 0x1F DUP3 ADD AND DUP3 ADD DUP1 PUSH1 0x40 MSTORE POP DUP2 ADD SWAP1 PUSH2 0xEA9 SWAP2 SWAP1 PUSH2 0x2D57 JUMP JUMPDEST LT ISZERO PUSH2 0xEC7 JUMPI PUSH1 0x40 MLOAD PUSH3 0x461BCD PUSH1 0xE5 SHL DUP2 MSTORE PUSH1 0x4 ADD PUSH2 0x54F SWAP1 PUSH2 0x33AA JUMP JUMPDEST DUP2 PUSH1 0x4 ADD PUSH1 0x0 DUP2 SLOAD DUP1 SWAP3 SWAP2 SWAP1 PUSH1 0x1 ADD SWAP2 SWAP1 POP SSTORE POP DUP1 DUP3 PUSH1 0x6 ADD PUSH1 0x0 DUP3 DUP3 SLOAD ADD SWAP3 POP POP DUP2 SWAP1 SSTORE POP PUSH1 0x40 MLOAD DUP1 PUSH1 0xA0 ADD PUSH1 0x40 MSTORE DUP1 DUP10 DUP2 MSTORE PUSH1 0x20 ADD DUP9 DUP2 MSTORE PUSH1 0x20 ADD DUP6 PUSH1 0x1 PUSH1 0x1 PUSH1 0xA0 SHL SUB AND DUP2 MSTORE PUSH1 0x20 ADD DUP3 DUP2 MSTORE PUSH1 0x20 ADD TIMESTAMP DUP2 MSTORE POP PUSH1 0x5 PUSH1 0x0 DUP12 DUP2 MSTORE PUSH1 0x20 ADD SWAP1 DUP2 MSTORE PUSH1 0x20 ADD PUSH1 0x0 KECCAK256 PUSH1 0x0 DUP7 PUSH1 0x1 PUSH1 0x1 PUSH1 0xA0 SHL SUB AND PUSH1 0x1 PUSH1 0x1 PUSH1 0xA0 SHL SUB AND DUP2 MSTORE PUSH1 0x20 ADD SWAP1 DUP2 MSTORE PUSH1 0x20 ADD PUSH1 0x0 KECCAK256 PUSH1 0x0 DUP3 ADD MLOAD DUP2 PUSH1 0x0 ADD SSTORE PUSH1 0x20 DUP3 ADD MLOAD DUP2 PUSH1 0x1 ADD SSTORE PUSH1 0x40 DUP3 ADD MLOAD DUP2 PUSH1 0x2 ADD PUSH1 0x0 PUSH2 0x100 EXP DUP2 SLOAD DUP2 PUSH1 0x1 PUSH1 0x1 PUSH1 0xA0 SHL SUB MUL NOT AND SWAP1 DUP4 PUSH1 0x1 PUSH1 0x1 PUSH1 0xA0 SHL SUB AND MUL OR SWAP1 SSTORE POP PUSH1 0x60 DUP3 ADD MLOAD DUP2 PUSH1 0x3 ADD SSTORE PUSH1 0x80 DUP3 ADD MLOAD DUP2 PUSH1 0x4 ADD SSTORE SWAP1 POP POP PUSH1 0x1 PUSH1 0x7 PUSH1 0x0 DUP12 DUP2 MSTORE PUSH1 0x20 ADD SWAP1 DUP2 MSTORE PUSH1 0x20 ADD PUSH1 0x0 KECCAK256 PUSH1 0x0 DUP10 DUP2 MSTORE PUSH1 0x20 ADD SWAP1 DUP2 MSTORE PUSH1 0x20 ADD PUSH1 0x0 KECCAK256 PUSH1 0x0 PUSH2 0x100 EXP DUP2 SLOAD DUP2 PUSH1 0xFF MUL NOT AND SWAP1 DUP4 ISZERO ISZERO MUL OR SWAP1 SSTORE POP PUSH1 0x8 PUSH1 0x0 DUP9 DUP2 MSTORE PUSH1 0x20 ADD SWAP1 DUP2 MSTORE PUSH1 0x20 ADD PUSH1 0x0 KECCAK256 DUP10 SWAP1 DUP1 PUSH1 0x1 DUP2 SLOAD ADD DUP1 DUP3 SSTORE DUP1 SWAP2 POP POP PUSH1 0x1 SWAP1 SUB SWAP1 PUSH1 0x0 MSTORE PUSH1 0x20 PUSH1 0x0 KECCAK256 ADD PUSH1 0x0 SWAP1 SWAP2 SWAP1 SWAP2 SWAP1 SWAP2 POP SSTORE PUSH2 0x1060 DUP5 DUP3 PUSH32 0x0 PUSH1 0x1 PUSH1 0x1 PUSH1 0xA0 SHL SUB AND PUSH2 0x1D26 SWAP1 SWAP3 SWAP2 SWAP1 PUSH4 0xFFFFFFFF AND JUMP JUMPDEST DUP4 PUSH1 0x1 PUSH1 0x1 PUSH1 0xA0 SHL SUB AND CALLER PUSH1 0x1 PUSH1 0x1 PUSH1 0xA0 SHL SUB AND DUP11 PUSH32 0x5F6D78D5D398FBDE6899ED8B8490A27AE6F7910869243D2A50B6D94B71C6CA2B DUP12 DUP12 DUP12 DUP8 TIMESTAMP PUSH1 0x40 MLOAD PUSH2 0x10AC SWAP6 SWAP5 SWAP4 SWAP3 SWAP2 SWAP1 PUSH2 0x363C JUMP JUMPDEST PUSH1 0x40 MLOAD DUP1 SWAP2 SUB SWAP1 LOG4 POP POP POP POP POP POP POP POP POP JUMP JUMPDEST PUSH1 0x0 PUSH2 0x10C9 PUSH2 0x1C4B JUMP JUMPDEST PUSH1 0x1 PUSH1 0x1 PUSH1 0xA0 SHL SUB AND PUSH2 0x10DA PUSH2 0x1307 JUMP JUMPDEST PUSH1 0x1 PUSH1 0x1 PUSH1 0xA0 SHL SUB AND EQ PUSH2 0x1123 JUMPI PUSH1 0x40 DUP1 MLOAD PUSH3 0x461BCD PUSH1 0xE5 SHL DUP2 MSTORE PUSH1 0x20 PUSH1 0x4 DUP3 ADD DUP2 SWAP1 MSTORE PUSH1 0x24 DUP3 ADD MSTORE PUSH1 0x0 DUP1 MLOAD PUSH1 0x20 PUSH2 0x3831 DUP4 CODECOPY DUP2 MLOAD SWAP2 MSTORE PUSH1 0x44 DUP3 ADD MSTORE SWAP1 MLOAD SWAP1 DUP2 SWAP1 SUB PUSH1 0x64 ADD SWAP1 REVERT JUMPDEST PUSH1 0x0 DUP4 MLOAD GT PUSH2 0x1144 JUMPI PUSH1 0x40 MLOAD PUSH3 0x461BCD PUSH1 0xE5 SHL DUP2 MSTORE PUSH1 0x4 ADD PUSH2 0x54F SWAP1 PUSH2 0x325B JUMP JUMPDEST PUSH1 0x0 DUP3 GT PUSH2 0x1164 JUMPI PUSH1 0x40 MLOAD PUSH3 0x461BCD PUSH1 0xE5 SHL DUP2 MSTORE PUSH1 0x4 ADD PUSH2 0x54F SWAP1 PUSH2 0x3287 JUMP JUMPDEST PUSH1 0x3 DUP1 SLOAD PUSH1 0x1 DUP2 ADD DUP3 SSTORE PUSH1 0x40 DUP1 MLOAD PUSH2 0x140 DUP2 ADD SWAP1 SWAP2 MSTORE DUP2 DUP2 MSTORE SWAP1 SWAP2 PUSH1 0x20 DUP3 ADD SWAP1 DUP9 SWAP1 DUP2 GT ISZERO PUSH2 0x118F JUMPI INVALID JUMPDEST DUP2 MSTORE PUSH1 0x20 ADD DUP7 PUSH1 0x1 DUP2 GT ISZERO PUSH2 0x11A0 JUMPI INVALID JUMPDEST DUP2 MSTORE PUSH1 0x20 ADD DUP6 DUP2 MSTORE PUSH1 0x20 ADD DUP5 DUP2 MSTORE PUSH1 0x20 ADD PUSH1 0x0 DUP2 MSTORE PUSH1 0x20 ADD PUSH1 0x0 DUP2 MSTORE PUSH1 0x20 ADD PUSH1 0x0 DUP2 MSTORE PUSH1 0x20 ADD PUSH1 0x0 DUP2 MSTORE PUSH1 0x20 ADD PUSH1 0x1 ISZERO ISZERO DUP2 MSTORE POP PUSH1 0x4 PUSH1 0x0 DUP4 DUP2 MSTORE PUSH1 0x20 ADD SWAP1 DUP2 MSTORE PUSH1 0x20 ADD PUSH1 0x0 KECCAK256 PUSH1 0x0 DUP3 ADD MLOAD DUP2 PUSH1 0x0 ADD SSTORE PUSH1 0x20 DUP3 ADD MLOAD DUP2 PUSH1 0x1 ADD PUSH1 0x0 PUSH2 0x100 EXP DUP2 SLOAD DUP2 PUSH1 0xFF MUL NOT AND SWAP1 DUP4 PUSH1 0x3 DUP2 GT ISZERO PUSH2 0x1215 JUMPI INVALID JUMPDEST MUL OR SWAP1 SSTORE POP PUSH1 0x40 DUP3 ADD MLOAD DUP2 PUSH1 0x1 ADD PUSH1 0x1 PUSH2 0x100 EXP DUP2 SLOAD DUP2 PUSH1 0xFF MUL NOT AND SWAP1 DUP4 PUSH1 0x1 DUP2 GT ISZERO PUSH2 0x123E JUMPI INVALID JUMPDEST MUL OR SWAP1 SSTORE POP PUSH1 0x60 DUP3 ADD MLOAD DUP1 MLOAD PUSH2 0x125E SWAP2 PUSH1 0x2 DUP5 ADD SWAP2 PUSH1 0x20 SWAP1 SWAP2 ADD SWAP1 PUSH2 0x2A22 JUMP JUMPDEST POP PUSH1 0x80 DUP3 ADD MLOAD PUSH1 0x3 DUP3 ADD SSTORE PUSH1 0xA0 DUP3 ADD MLOAD PUSH1 0x4 DUP3 ADD SSTORE PUSH1 0xC0 DUP3 ADD MLOAD PUSH1 0x5 DUP3 ADD SSTORE PUSH1 0xE0 DUP3 ADD MLOAD PUSH1 0x6 DUP3 ADD SSTORE PUSH2 0x100 DUP3 ADD MLOAD PUSH1 0x7 DUP3 ADD SSTORE PUSH2 0x120 SWAP1 SWAP2 ADD MLOAD PUSH1 0x8 SWAP1 SWAP2 ADD DUP1 SLOAD PUSH1 0xFF NOT AND SWAP2 ISZERO ISZERO SWAP2 SWAP1 SWAP2 OR SWAP1 SSTORE PUSH1 0x40 MLOAD DUP2 SWAP1 PUSH32 0xA359134B476F4B3E621AD56F265A9173E1D6890866FC0250CAA7E37F2B55F60C SWAP1 PUSH2 0x12E5 SWAP1 DUP10 SWAP1 DUP10 SWAP1 DUP10 SWAP1 DUP10 SWAP1 PUSH2 0x319B JUMP JUMPDEST PUSH1 0x40 MLOAD DUP1 SWAP2 SUB SWAP1 LOG2 SWAP1 POP JUMPDEST SWAP5 SWAP4 POP POP POP POP JUMP JUMPDEST PUSH1 0x2 SLOAD PUSH1 0x1 PUSH1 0x1 PUSH1 0xA0 SHL SUB AND DUP2 JUMP JUMPDEST PUSH1 0x0 SLOAD PUSH1 0x1 PUSH1 0x1 PUSH1 0xA0 SHL SUB AND SWAP1 JUMP JUMPDEST PUSH2 0x131E PUSH2 0x2AAE JUMP JUMPDEST PUSH1 0x0 DUP3 DUP2 MSTORE PUSH1 0x4 PUSH1 0x20 SWAP1 DUP2 MSTORE PUSH1 0x40 SWAP2 DUP3 SWAP1 KECCAK256 DUP3 MLOAD PUSH2 0x140 DUP2 ADD SWAP1 SWAP4 MSTORE DUP1 SLOAD DUP4 MSTORE PUSH1 0x1 DUP2 ADD SLOAD SWAP1 SWAP2 DUP4 ADD SWAP1 PUSH1 0xFF AND PUSH1 0x3 DUP2 GT ISZERO PUSH2 0x1356 JUMPI INVALID JUMPDEST PUSH1 0x3 DUP2 GT ISZERO PUSH2 0x1361 JUMPI INVALID JUMPDEST DUP2 MSTORE PUSH1 0x20 ADD PUSH1 0x1 DUP3 ADD PUSH1 0x1 SWAP1 SLOAD SWAP1 PUSH2 0x100 EXP SWAP1 DIV PUSH1 0xFF AND PUSH1 0x1 DUP2 GT ISZERO PUSH2 0x1383 JUMPI INVALID JUMPDEST PUSH1 0x1 DUP2 GT ISZERO PUSH2 0x138E JUMPI INVALID JUMPDEST DUP2 MSTORE PUSH1 0x2 DUP3 DUP2 ADD DUP1 SLOAD PUSH1 0x40 DUP1 MLOAD PUSH1 0x20 PUSH1 0x1 DUP5 AND ISZERO PUSH2 0x100 MUL PUSH1 0x0 NOT ADD SWAP1 SWAP4 AND SWAP5 SWAP1 SWAP5 DIV PUSH1 0x1F DUP2 ADD DUP4 SWAP1 DIV DUP4 MUL DUP6 ADD DUP4 ADD SWAP1 SWAP2 MSTORE DUP1 DUP5 MSTORE SWAP4 DUP2 ADD SWAP4 SWAP1 DUP4 ADD DUP3 DUP3 DUP1 ISZERO PUSH2 0x141A JUMPI DUP1 PUSH1 0x1F LT PUSH2 0x13EF JUMPI PUSH2 0x100 DUP1 DUP4 SLOAD DIV MUL DUP4 MSTORE SWAP2 PUSH1 0x20 ADD SWAP2 PUSH2 0x141A JUMP JUMPDEST DUP3 ADD SWAP2 SWAP1 PUSH1 0x0 MSTORE PUSH1 0x20 PUSH1 0x0 KECCAK256 SWAP1 JUMPDEST DUP2 SLOAD DUP2 MSTORE SWAP1 PUSH1 0x1 ADD SWAP1 PUSH1 0x20 ADD DUP1 DUP4 GT PUSH2 0x13FD JUMPI DUP3 SWAP1 SUB PUSH1 0x1F AND DUP3 ADD SWAP2 JUMPDEST POP POP POP SWAP2 DUP4 MSTORE POP POP PUSH1 0x3 DUP3 ADD SLOAD PUSH1 0x20 DUP3 ADD MSTORE PUSH1 0x4 DUP3 ADD SLOAD PUSH1 0x40 DUP3 ADD MSTORE PUSH1 0x5 DUP3 ADD SLOAD PUSH1 0x60 DUP3 ADD MSTORE PUSH1 0x6 DUP3 ADD SLOAD PUSH1 0x80 DUP3 ADD MSTORE PUSH1 0x7 DUP3 ADD SLOAD PUSH1 0xA0 DUP3 ADD MSTORE PUSH1 0x8 SWAP1 SWAP2 ADD SLOAD PUSH1 0xFF AND ISZERO ISZERO PUSH1 0xC0 SWAP1 SWAP2 ADD MSTORE SWAP3 SWAP2 POP POP JUMP JUMPDEST PUSH1 0x3 SLOAD DUP2 JUMP JUMPDEST PUSH1 0x40 MLOAD PUSH4 0x82E15E51 PUSH1 0xE0 SHL DUP2 MSTORE ADDRESS SWAP1 PUSH4 0x82E15E51 SWAP1 PUSH2 0x14A0 SWAP1 DUP10 SWAP1 DUP10 SWAP1 DUP10 SWAP1 DUP10 SWAP1 DUP10 SWAP1 CALLER SWAP1 DUP11 SWAP1 PUSH1 0x4 ADD PUSH2 0x366F JUMP JUMPDEST PUSH1 0x0 PUSH1 0x40 MLOAD DUP1 DUP4 SUB DUP2 PUSH1 0x0 DUP8 DUP1 EXTCODESIZE ISZERO DUP1 ISZERO PUSH2 0x14BA JUMPI PUSH1 0x0 DUP1 REVERT JUMPDEST POP GAS CALL ISZERO DUP1 ISZERO PUSH2 0x14CE JUMPI RETURNDATASIZE PUSH1 0x0 DUP1 RETURNDATACOPY RETURNDATASIZE PUSH1 0x0 REVERT JUMPDEST POP POP POP POP POP POP POP POP POP POP JUMP JUMPDEST PUSH2 0x14E2 PUSH2 0x2B04 JUMP JUMPDEST PUSH1 0x0 DUP4 DUP2 MSTORE PUSH1 0x6 PUSH1 0x20 SWAP1 DUP2 MSTORE PUSH1 0x40 DUP1 DUP4 KECCAK256 PUSH1 0x1 PUSH1 0x1 PUSH1 0xA0 SHL SUB DUP7 DUP2 AND DUP6 MSTORE SWAP1 DUP4 MSTORE SWAP3 DUP2 SWAP1 KECCAK256 DUP2 MLOAD PUSH1 0xE0 DUP2 ADD DUP4 MSTORE DUP2 SLOAD DUP2 MSTORE PUSH1 0x1 DUP1 DUP4 ADD SLOAD SWAP1 SWAP6 AND DUP2 DUP6 ADD MSTORE PUSH1 0x2 DUP1 DUP4 ADD SLOAD DUP3 DUP6 ADD MSTORE PUSH1 0x3 DUP4 ADD SLOAD PUSH1 0x60 DUP4 ADD MSTORE PUSH1 0x4 DUP4 ADD SLOAD PUSH1 0xFF DUP2 AND ISZERO ISZERO PUSH1 0x80 DUP5 ADD MSTORE PUSH2 0x100 SWAP1 DUP2 SWAP1 DIV PUSH4 0xFFFFFFFF AND PUSH1 0xA0 DUP5 ADD MSTORE PUSH1 0x5 DUP5 ADD DUP1 SLOAD DUP7 MLOAD SWAP9 DUP2 AND ISZERO SWAP1 SWAP3 MUL PUSH1 0x0 NOT ADD SWAP1 SWAP2 AND SWAP2 SWAP1 SWAP2 DIV PUSH1 0x1F DUP2 ADD DUP7 SWAP1 DIV DUP7 MUL DUP8 ADD DUP7 ADD SWAP1 SWAP5 MSTORE DUP4 DUP7 MSTORE SWAP1 SWAP5 SWAP2 SWAP4 PUSH1 0xC0 DUP7 ADD SWAP4 SWAP1 DUP4 ADD DUP3 DUP3 DUP1 ISZERO PUSH2 0x15DE JUMPI DUP1 PUSH1 0x1F LT PUSH2 0x15B3 JUMPI PUSH2 0x100 DUP1 DUP4 SLOAD DIV MUL DUP4 MSTORE SWAP2 PUSH1 0x20 ADD SWAP2 PUSH2 0x15DE JUMP JUMPDEST DUP3 ADD SWAP2 SWAP1 PUSH1 0x0 MSTORE PUSH1 0x20 PUSH1 0x0 KECCAK256 SWAP1 JUMPDEST DUP2 SLOAD DUP2 MSTORE SWAP1 PUSH1 0x1 ADD SWAP1 PUSH1 0x20 ADD DUP1 DUP4 GT PUSH2 0x15C1 JUMPI DUP3 SWAP1 SUB PUSH1 0x1F AND DUP3 ADD SWAP2 JUMPDEST POP POP POP POP POP DUP2 MSTORE POP POP SWAP1 POP SWAP3 SWAP2 POP POP JUMP JUMPDEST PUSH1 0x3 SLOAD SWAP1 JUMP JUMPDEST PUSH2 0x15FD PUSH2 0x1C4B JUMP JUMPDEST PUSH1 0x1 PUSH1 0x1 PUSH1 0xA0 SHL SUB AND PUSH2 0x160E PUSH2 0x1307 JUMP JUMPDEST PUSH1 0x1 PUSH1 0x1 PUSH1 0xA0 SHL SUB AND EQ PUSH2 0x1657 JUMPI PUSH1 0x40 DUP1 MLOAD PUSH3 0x461BCD PUSH1 0xE5 SHL DUP2 MSTORE PUSH1 0x20 PUSH1 0x4 DUP3 ADD DUP2 SWAP1 MSTORE PUSH1 0x24 DUP3 ADD MSTORE PUSH1 0x0 DUP1 MLOAD PUSH1 0x20 PUSH2 0x3831 DUP4 CODECOPY DUP2 MLOAD SWAP2 MSTORE PUSH1 0x44 DUP3 ADD MSTORE SWAP1 MLOAD SWAP1 DUP2 SWAP1 SUB PUSH1 0x64 ADD SWAP1 REVERT JUMPDEST PUSH1 0x2 DUP1 SLOAD PUSH1 0x1 PUSH1 0x1 PUSH1 0xA0 SHL SUB NOT AND PUSH1 0x1 PUSH1 0x1 PUSH1 0xA0 SHL SUB SWAP3 SWAP1 SWAP3 AND SWAP2 SWAP1 SWAP2 OR SWAP1 SSTORE JUMP JUMPDEST CALLER ADDRESS EQ PUSH2 0x1698 JUMPI PUSH1 0x40 MLOAD PUSH3 0x461BCD PUSH1 0xE5 SHL DUP2 MSTORE PUSH1 0x4 ADD PUSH2 0x54F SWAP1 PUSH2 0x32FD JUMP JUMPDEST PUSH1 0x0 PUSH2 0x16DE PUSH1 0x0 DUP5 DUP5 DUP1 DUP1 PUSH1 0x1F ADD PUSH1 0x20 DUP1 SWAP2 DIV MUL PUSH1 0x20 ADD PUSH1 0x40 MLOAD SWAP1 DUP2 ADD PUSH1 0x40 MSTORE DUP1 SWAP4 SWAP3 SWAP2 SWAP1 DUP2 DUP2 MSTORE PUSH1 0x20 ADD DUP4 DUP4 DUP1 DUP3 DUP5 CALLDATACOPY PUSH1 0x0 SWAP3 ADD SWAP2 SWAP1 SWAP2 MSTORE POP SWAP3 SWAP4 SWAP3 POP POP PUSH2 0x1D7D SWAP1 POP JUMP JUMPDEST SWAP1 POP PUSH2 0x16EF PUSH3 0xFFFFFF NOT DUP3 AND PUSH2 0x1D98 JUMP JUMPDEST PUSH1 0x0 PUSH2 0x1700 PUSH3 0xFFFFFF NOT DUP4 AND PUSH2 0x1E59 JUMP JUMPDEST SWAP1 POP PUSH1 0x0 PUSH2 0x1713 PUSH3 0xFFFFFF NOT DUP4 AND PUSH2 0x1E91 JUMP JUMPDEST PUSH1 0x1 PUSH1 0x1 PUSH1 0x60 SHL SUB AND GT PUSH2 0x1739 JUMPI PUSH1 0x40 MLOAD PUSH3 0x461BCD PUSH1 0xE5 SHL DUP2 MSTORE PUSH1 0x4 ADD PUSH2 0x54F SWAP1 PUSH2 0x332D JUMP JUMPDEST PUSH1 0x0 PUSH2 0x174A PUSH3 0xFFFFFF NOT DUP4 AND PUSH2 0x1EA0 JUMP JUMPDEST SWAP1 POP PUSH1 0x0 DUP1 DUP3 DUP1 PUSH1 0x20 ADD SWAP1 MLOAD DUP2 ADD SWAP1 PUSH2 0x1763 SWAP2 SWAP1 PUSH2 0x2D9A JUMP JUMPDEST SWAP2 POP SWAP2 POP PUSH1 0x0 PUSH2 0x1778 DUP7 PUSH3 0xFFFFFF NOT AND PUSH2 0x1EDF JUMP JUMPDEST PUSH1 0x0 DUP5 DUP2 MSTORE PUSH1 0x4 PUSH1 0x20 MSTORE PUSH1 0x40 SWAP1 KECCAK256 DUP1 SLOAD SWAP2 SWAP3 POP SWAP1 DUP5 EQ PUSH2 0x17AA JUMPI PUSH1 0x40 MLOAD PUSH3 0x461BCD PUSH1 0xE5 SHL DUP2 MSTORE PUSH1 0x4 ADD PUSH2 0x54F SWAP1 PUSH2 0x32D8 JUMP JUMPDEST PUSH1 0x8 DUP2 ADD SLOAD PUSH1 0xFF AND PUSH2 0x17CE JUMPI PUSH1 0x40 MLOAD PUSH3 0x461BCD PUSH1 0xE5 SHL DUP2 MSTORE PUSH1 0x4 ADD PUSH2 0x54F SWAP1 PUSH2 0x335C JUMP JUMPDEST PUSH1 0x0 DUP3 GT PUSH2 0x17EE JUMPI PUSH1 0x40 MLOAD PUSH3 0x461BCD PUSH1 0xE5 SHL DUP2 MSTORE PUSH1 0x4 ADD PUSH2 0x54F SWAP1 PUSH2 0x3287 JUMP JUMPDEST DUP1 PUSH1 0x5 ADD PUSH1 0x0 DUP2 SLOAD DUP1 SWAP3 SWAP2 SWAP1 PUSH1 0x1 ADD SWAP2 SWAP1 POP SSTORE POP DUP2 DUP2 PUSH1 0x7 ADD PUSH1 0x0 DUP3 DUP3 SLOAD ADD SWAP3 POP POP DUP2 SWAP1 SSTORE POP PUSH1 0x0 DUP11 PUSH1 0x0 SHR SWAP1 POP PUSH1 0x40 MLOAD DUP1 PUSH1 0xE0 ADD PUSH1 0x40 MSTORE DUP1 DUP4 PUSH1 0x5 ADD SLOAD DUP2 MSTORE PUSH1 0x20 ADD DUP3 PUSH1 0x1 PUSH1 0x1 PUSH1 0xA0 SHL SUB AND DUP2 MSTORE PUSH1 0x20 ADD DUP5 DUP2 MSTORE PUSH1 0x20 ADD TIMESTAMP DUP2 MSTORE PUSH1 0x20 ADD PUSH1 0x1 ISZERO ISZERO DUP2 MSTORE PUSH1 0x20 ADD DUP14 PUSH4 0xFFFFFFFF AND DUP2 MSTORE PUSH1 0x20 ADD DUP6 DUP2 MSTORE POP PUSH1 0x6 PUSH1 0x0 DUP8 DUP2 MSTORE PUSH1 0x20 ADD SWAP1 DUP2 MSTORE PUSH1 0x20 ADD PUSH1 0x0 KECCAK256 PUSH1 0x0 DUP4 PUSH1 0x1 PUSH1 0x1 PUSH1 0xA0 SHL SUB AND PUSH1 0x1 PUSH1 0x1 PUSH1 0xA0 SHL SUB AND DUP2 MSTORE PUSH1 0x20 ADD SWAP1 DUP2 MSTORE PUSH1 0x20 ADD PUSH1 0x0 KECCAK256 PUSH1 0x0 DUP3 ADD MLOAD DUP2 PUSH1 0x0 ADD SSTORE PUSH1 0x20 DUP3 ADD MLOAD DUP2 PUSH1 0x1 ADD PUSH1 0x0 PUSH2 0x100 EXP DUP2 SLOAD DUP2 PUSH1 0x1 PUSH1 0x1 PUSH1 0xA0 SHL SUB MUL NOT AND SWAP1 DUP4 PUSH1 0x1 PUSH1 0x1 PUSH1 0xA0 SHL SUB AND MUL OR SWAP1 SSTORE POP PUSH1 0x40 DUP3 ADD MLOAD DUP2 PUSH1 0x2 ADD SSTORE PUSH1 0x60 DUP3 ADD MLOAD DUP2 PUSH1 0x3 ADD SSTORE PUSH1 0x80 DUP3 ADD MLOAD DUP2 PUSH1 0x4 ADD PUSH1 0x0 PUSH2 0x100 EXP DUP2 SLOAD DUP2 PUSH1 0xFF MUL NOT AND SWAP1 DUP4 ISZERO ISZERO MUL OR SWAP1 SSTORE POP PUSH1 0xA0 DUP3 ADD MLOAD DUP2 PUSH1 0x4 ADD PUSH1 0x1 PUSH2 0x100 EXP DUP2 SLOAD DUP2 PUSH4 0xFFFFFFFF MUL NOT AND SWAP1 DUP4 PUSH4 0xFFFFFFFF AND MUL OR SWAP1 SSTORE POP PUSH1 0xC0 DUP3 ADD MLOAD DUP2 PUSH1 0x5 ADD SWAP1 DUP1 MLOAD SWAP1 PUSH1 0x20 ADD SWAP1 PUSH2 0x1949 SWAP3 SWAP2 SWAP1 PUSH2 0x2A22 JUMP JUMPDEST POP SWAP1 POP POP DUP1 PUSH1 0x1 PUSH1 0x1 PUSH1 0xA0 SHL SUB AND DUP6 PUSH32 0x743501122BA2CD9590984350A2076553271A243E2B9DE8617A802D7C7AF7D301 DUP15 DUP7 TIMESTAMP DUP10 PUSH1 0x40 MLOAD PUSH2 0x198D SWAP5 SWAP4 SWAP3 SWAP2 SWAP1 PUSH2 0x31D9 JUMP JUMPDEST PUSH1 0x40 MLOAD DUP1 SWAP2 SUB SWAP1 LOG3 POP POP POP POP POP POP POP POP POP POP POP POP JUMP JUMPDEST PUSH32 0x8DB8D84FAF8B2365D4FFD175C1A5BF60A3C3BB8FD65FB126C9BBC39786D11DA7 DUP2 JUMP JUMPDEST PUSH2 0x19CF PUSH2 0x1C4B JUMP JUMPDEST PUSH1 0x1 PUSH1 0x1 PUSH1 0xA0 SHL SUB AND PUSH2 0x19E0 PUSH2 0x1307 JUMP JUMPDEST PUSH1 0x1 PUSH1 0x1 PUSH1 0xA0 SHL SUB AND EQ PUSH2 0x1A29 JUMPI PUSH1 0x40 DUP1 MLOAD PUSH3 0x461BCD PUSH1 0xE5 SHL DUP2 MSTORE PUSH1 0x20 PUSH1 0x4 DUP3 ADD DUP2 SWAP1 MSTORE PUSH1 0x24 DUP3 ADD MSTORE PUSH1 0x0 DUP1 MLOAD PUSH1 0x20 PUSH2 0x3831 DUP4 CODECOPY DUP2 MLOAD SWAP2 MSTORE PUSH1 0x44 DUP3 ADD MSTORE SWAP1 MLOAD SWAP1 DUP2 SWAP1 SUB PUSH1 0x64 ADD SWAP1 REVERT JUMPDEST PUSH1 0x1 PUSH1 0x1 PUSH1 0xA0 SHL SUB DUP2 AND PUSH2 0x1A6E JUMPI PUSH1 0x40 MLOAD PUSH3 0x461BCD PUSH1 0xE5 SHL DUP2 MSTORE PUSH1 0x4 ADD DUP1 DUP1 PUSH1 0x20 ADD DUP3 DUP2 SUB DUP3 MSTORE PUSH1 0x26 DUP2 MSTORE PUSH1 0x20 ADD DUP1 PUSH2 0x3780 PUSH1 0x26 SWAP2 CODECOPY PUSH1 0x40 ADD SWAP2 POP POP PUSH1 0x40 MLOAD DUP1 SWAP2 SUB SWAP1 REVERT JUMPDEST PUSH1 0x0 DUP1 SLOAD PUSH1 0x40 MLOAD PUSH1 0x1 PUSH1 0x1 PUSH1 0xA0 SHL SUB DUP1 DUP6 AND SWAP4 SWAP3 AND SWAP2 PUSH32 0x8BE0079C531659141344CD1FD0A4F28419497F9722A3DAAFE3B4186F6B6457E0 SWAP2 LOG3 PUSH1 0x0 DUP1 SLOAD PUSH1 0x1 PUSH1 0x1 PUSH1 0xA0 SHL SUB NOT AND PUSH1 0x1 PUSH1 0x1 PUSH1 0xA0 SHL SUB SWAP3 SWAP1 SWAP3 AND SWAP2 SWAP1 SWAP2 OR SWAP1 SSTORE JUMP JUMPDEST PUSH1 0x6 PUSH1 0x20 SWAP1 DUP2 MSTORE PUSH1 0x0 SWAP3 DUP4 MSTORE PUSH1 0x40 DUP1 DUP5 KECCAK256 DUP3 MSTORE SWAP2 DUP4 MSTORE SWAP2 DUP2 SWAP1 KECCAK256 DUP1 SLOAD PUSH1 0x1 DUP1 DUP4 ADD SLOAD PUSH1 0x2 DUP1 DUP6 ADD SLOAD PUSH1 0x3 DUP7 ADD SLOAD PUSH1 0x4 DUP8 ADD SLOAD PUSH1 0x5 DUP9 ADD DUP1 SLOAD DUP11 MLOAD PUSH2 0x100 SWAP9 DUP3 AND ISZERO DUP10 MUL PUSH1 0x0 NOT ADD SWAP1 SWAP2 AND SWAP6 SWAP1 SWAP6 DIV PUSH1 0x1F DUP2 ADD DUP13 SWAP1 DIV DUP13 MUL DUP7 ADD DUP13 ADD SWAP1 SWAP11 MSTORE DUP10 DUP6 MSTORE SWAP7 SWAP10 PUSH1 0x1 PUSH1 0x1 PUSH1 0xA0 SHL SUB SWAP1 SWAP6 AND SWAP9 SWAP3 SWAP8 SWAP2 SWAP7 PUSH1 0xFF DUP3 AND SWAP7 SWAP1 SWAP2 DIV PUSH4 0xFFFFFFFF AND SWAP5 SWAP2 SWAP4 SWAP3 SWAP1 SWAP2 DUP4 ADD DUP3 DUP3 DUP1 ISZERO PUSH2 0x1BA1 JUMPI DUP1 PUSH1 0x1F LT PUSH2 0x1B76 JUMPI PUSH2 0x100 DUP1 DUP4 SLOAD DIV MUL DUP4 MSTORE SWAP2 PUSH1 0x20 ADD SWAP2 PUSH2 0x1BA1 JUMP JUMPDEST DUP3 ADD SWAP2 SWAP1 PUSH1 0x0 MSTORE PUSH1 0x20 PUSH1 0x0 KECCAK256 SWAP1 JUMPDEST DUP2 SLOAD DUP2 MSTORE SWAP1 PUSH1 0x1 ADD SWAP1 PUSH1 0x20 ADD DUP1 DUP4 GT PUSH2 0x1B84 JUMPI DUP3 SWAP1 SUB PUSH1 0x1F AND DUP3 ADD SWAP2 JUMPDEST POP POP POP POP POP SWAP1 POP DUP8 JUMP JUMPDEST PUSH1 0x1 SLOAD PUSH1 0x1 PUSH1 0x1 PUSH1 0xA0 SHL SUB AND DUP2 JUMP JUMPDEST PUSH1 0x8 PUSH1 0x20 MSTORE DUP2 PUSH1 0x0 MSTORE PUSH1 0x40 PUSH1 0x0 KECCAK256 DUP2 DUP2 SLOAD DUP2 LT PUSH2 0x1BD6 JUMPI PUSH1 0x0 DUP1 REVERT JUMPDEST SWAP1 PUSH1 0x0 MSTORE PUSH1 0x20 PUSH1 0x0 KECCAK256 ADD PUSH1 0x0 SWAP2 POP SWAP2 POP POP SLOAD DUP2 JUMP JUMPDEST PUSH1 0x40 DUP1 MLOAD PUSH1 0x1 PUSH1 0x1 PUSH1 0xA0 SHL SUB DUP1 DUP7 AND PUSH1 0x24 DUP4 ADD MSTORE DUP5 AND PUSH1 0x44 DUP3 ADD MSTORE PUSH1 0x64 DUP1 DUP3 ADD DUP5 SWAP1 MSTORE DUP3 MLOAD DUP1 DUP4 SUB SWAP1 SWAP2 ADD DUP2 MSTORE PUSH1 0x84 SWAP1 SWAP2 ADD SWAP1 SWAP2 MSTORE PUSH1 0x20 DUP2 ADD DUP1 MLOAD PUSH1 0x1 PUSH1 0x1 PUSH1 0xE0 SHL SUB AND PUSH4 0x23B872DD PUSH1 0xE0 SHL OR SWAP1 MSTORE PUSH2 0x1C45 SWAP1 DUP6 SWAP1 PUSH2 0x1EF0 JUMP JUMPDEST POP POP POP POP JUMP JUMPDEST CALLER SWAP1 JUMP JUMPDEST PUSH1 0x0 DUP1 PUSH32 0x8DB8D84FAF8B2365D4FFD175C1A5BF60A3C3BB8FD65FB126C9BBC39786D11DA7 DUP9 DUP9 DUP9 DUP9 DUP1 MLOAD SWAP1 PUSH1 0x20 ADD KECCAK256 DUP9 PUSH1 0x40 MLOAD PUSH1 0x20 ADD PUSH2 0x1C94 SWAP7 SWAP6 SWAP5 SWAP4 SWAP3 SWAP2 SWAP1 PUSH2 0x316A JUMP JUMPDEST PUSH1 0x40 MLOAD PUSH1 0x20 DUP2 DUP4 SUB SUB DUP2 MSTORE SWAP1 PUSH1 0x40 MSTORE DUP1 MLOAD SWAP1 PUSH1 0x20 ADD KECCAK256 SWAP1 POP PUSH1 0x0 PUSH32 0x0 DUP3 PUSH1 0x40 MLOAD PUSH1 0x20 ADD PUSH2 0x1CE1 SWAP3 SWAP2 SWAP1 PUSH2 0x30E3 JUMP JUMPDEST PUSH1 0x40 DUP1 MLOAD PUSH1 0x1F NOT DUP2 DUP5 SUB ADD DUP2 MSTORE SWAP2 SWAP1 MSTORE DUP1 MLOAD PUSH1 0x20 SWAP1 SWAP2 ADD KECCAK256 SWAP1 POP PUSH1 0x0 PUSH2 0x1D07 DUP3 DUP7 PUSH2 0x1FA1 JUMP JUMPDEST PUSH1 0x1 SLOAD PUSH1 0x1 PUSH1 0x1 PUSH1 0xA0 SHL SUB SWAP1 DUP2 AND SWAP2 AND EQ SWAP11 SWAP10 POP POP POP POP POP POP POP POP POP POP JUMP JUMPDEST PUSH1 0x40 DUP1 MLOAD PUSH1 0x1 PUSH1 0x1 PUSH1 0xA0 SHL SUB DUP5 AND PUSH1 0x24 DUP3 ADD MSTORE PUSH1 0x44 DUP1 DUP3 ADD DUP5 SWAP1 MSTORE DUP3 MLOAD DUP1 DUP4 SUB SWAP1 SWAP2 ADD DUP2 MSTORE PUSH1 0x64 SWAP1 SWAP2 ADD SWAP1 SWAP2 MSTORE PUSH1 0x20 DUP2 ADD DUP1 MLOAD PUSH1 0x1 PUSH1 0x1 PUSH1 0xE0 SHL SUB AND PUSH4 0xA9059CBB PUSH1 0xE0 SHL OR SWAP1 MSTORE PUSH2 0x1D78 SWAP1 DUP5 SWAP1 PUSH2 0x1EF0 JUMP JUMPDEST POP POP POP JUMP JUMPDEST DUP2 MLOAD PUSH1 0x0 SWAP1 PUSH1 0x20 DUP5 ADD PUSH2 0x4F4 PUSH5 0xFFFFFFFFFF DUP6 AND DUP3 DUP5 PUSH2 0x2021 JUMP JUMPDEST PUSH2 0x1DA7 PUSH3 0xFFFFFF NOT DUP3 AND PUSH2 0x2066 JUMP JUMPDEST PUSH2 0x1DEC JUMPI PUSH1 0x40 DUP1 MLOAD PUSH3 0x461BCD PUSH1 0xE5 SHL DUP2 MSTORE PUSH1 0x20 PUSH1 0x4 DUP3 ADD MSTORE PUSH1 0x11 PUSH1 0x24 DUP3 ADD MSTORE PUSH17 0x4D616C666F726D6564206D657373616765 PUSH1 0x78 SHL PUSH1 0x44 DUP3 ADD MSTORE SWAP1 MLOAD SWAP1 DUP2 SWAP1 SUB PUSH1 0x64 ADD SWAP1 REVERT JUMPDEST PUSH1 0xE4 PUSH2 0x1DFD PUSH3 0xFFFFFF NOT DUP4 AND PUSH2 0x1E91 JUMP JUMPDEST PUSH1 0x1 PUSH1 0x1 PUSH1 0x60 SHL SUB AND LT ISZERO PUSH2 0xA5D JUMPI PUSH1 0x40 DUP1 MLOAD PUSH3 0x461BCD PUSH1 0xE5 SHL DUP2 MSTORE PUSH1 0x20 PUSH1 0x4 DUP3 ADD MSTORE PUSH1 0x1F PUSH1 0x24 DUP3 ADD MSTORE PUSH32 0x496E76616C6964206275726E206D6573736167653A20746F6F2073686F727400 PUSH1 0x44 DUP3 ADD MSTORE SWAP1 MLOAD SWAP1 DUP2 SWAP1 SUB PUSH1 0x64 ADD SWAP1 REVERT JUMPDEST PUSH1 0x0 PUSH2 0x1E8B PUSH1 0xE4 DUP1 PUSH2 0x1E70 PUSH3 0xFFFFFF NOT DUP7 AND PUSH2 0x1E91 JUMP JUMPDEST PUSH3 0xFFFFFF NOT DUP7 AND SWAP3 SWAP2 PUSH1 0x1 PUSH1 0x1 PUSH1 0x60 SHL SUB SWAP2 SUB AND PUSH1 0x0 PUSH2 0x20A3 JUMP JUMPDEST SWAP3 SWAP2 POP POP JUMP JUMPDEST PUSH1 0x18 SHR PUSH1 0x1 PUSH1 0x1 PUSH1 0x60 SHL SUB AND SWAP1 JUMP JUMPDEST PUSH1 0x60 PUSH1 0x0 DUP1 PUSH2 0x1EAE DUP5 PUSH2 0x1E91 JUMP JUMPDEST PUSH1 0x1 PUSH1 0x1 PUSH1 0x60 SHL SUB AND SWAP1 POP PUSH1 0x40 MLOAD SWAP2 POP DUP2 SWAP3 POP PUSH2 0x1ECE DUP5 DUP4 PUSH1 0x20 ADD PUSH2 0x2108 JUMP JUMPDEST POP DUP2 DUP2 ADD PUSH1 0x20 ADD PUSH1 0x40 MSTORE SWAP1 MSTORE SWAP2 SWAP1 POP JUMP JUMPDEST PUSH1 0x0 PUSH2 0x1E8B PUSH3 0xFFFFFF NOT DUP4 AND PUSH2 0x2239 JUMP JUMPDEST PUSH1 0x0 PUSH2 0x1F45 DUP3 PUSH1 0x40 MLOAD DUP1 PUSH1 0x40 ADD PUSH1 0x40 MSTORE DUP1 PUSH1 0x20 DUP2 MSTORE PUSH1 0x20 ADD PUSH32 0x5361666545524332303A206C6F772D6C6576656C2063616C6C206661696C6564 DUP2 MSTORE POP DUP6 PUSH1 0x1 PUSH1 0x1 PUSH1 0xA0 SHL SUB AND PUSH2 0x224E SWAP1 SWAP3 SWAP2 SWAP1 PUSH4 0xFFFFFFFF AND JUMP JUMPDEST DUP1 MLOAD SWAP1 SWAP2 POP ISZERO PUSH2 0x1D78 JUMPI DUP1 DUP1 PUSH1 0x20 ADD SWAP1 MLOAD PUSH1 0x20 DUP2 LT ISZERO PUSH2 0x1F64 JUMPI PUSH1 0x0 DUP1 REVERT JUMPDEST POP MLOAD PUSH2 0x1D78 JUMPI PUSH1 0x40 MLOAD PUSH3 0x461BCD PUSH1 0xE5 SHL DUP2 MSTORE PUSH1 0x4 ADD DUP1 DUP1 PUSH1 0x20 ADD DUP3 DUP2 SUB DUP3 MSTORE PUSH1 0x2A DUP2 MSTORE PUSH1 0x20 ADD DUP1 PUSH2 0x388B PUSH1 0x2A SWAP2 CODECOPY PUSH1 0x40 ADD SWAP2 POP POP PUSH1 0x40 MLOAD DUP1 SWAP2 SUB SWAP1 REVERT JUMPDEST PUSH1 0x0 DUP2 MLOAD PUSH1 0x41 EQ PUSH2 0x1FF9 JUMPI PUSH1 0x40 DUP1 MLOAD PUSH3 0x461BCD PUSH1 0xE5 SHL DUP2 MSTORE PUSH1 0x20 PUSH1 0x4 DUP3 ADD MSTORE PUSH1 0x1F PUSH1 0x24 DUP3 ADD MSTORE PUSH32 0x45434453413A20696E76616C6964207369676E6174757265206C656E67746800 PUSH1 0x44 DUP3 ADD MSTORE SWAP1 MLOAD SWAP1 DUP2 SWAP1 SUB PUSH1 0x64 ADD SWAP1 REVERT JUMPDEST PUSH1 0x20 DUP3 ADD MLOAD PUSH1 0x40 DUP4 ADD MLOAD PUSH1 0x60 DUP5 ADD MLOAD PUSH1 0x0 BYTE PUSH2 0x2017 DUP7 DUP3 DUP6 DUP6 PUSH2 0x225D JUMP JUMPDEST SWAP7 SWAP6 POP POP POP POP POP POP JUMP JUMPDEST PUSH1 0x0 DUP1 PUSH2 0x202E DUP5 DUP5 PUSH2 0x23D2 JUMP JUMPDEST SWAP1 POP PUSH1 0x40 MLOAD DUP2 GT ISZERO PUSH2 0x203E JUMPI POP PUSH1 0x0 JUMPDEST DUP1 PUSH2 0x2050 JUMPI PUSH3 0xFFFFFF NOT SWAP2 POP POP PUSH2 0x205F JUMP JUMPDEST PUSH2 0x205B DUP6 DUP6 DUP6 PUSH2 0x242C JUMP JUMPDEST SWAP2 POP POP JUMPDEST SWAP4 SWAP3 POP POP POP JUMP JUMPDEST PUSH1 0x0 PUSH2 0x2071 DUP3 PUSH2 0x243F JUMP JUMPDEST PUSH5 0xFFFFFFFFFF AND PUSH5 0xFFFFFFFFFF EQ ISZERO PUSH2 0x208C JUMPI POP PUSH1 0x0 PUSH2 0xC52 JUMP JUMPDEST PUSH1 0x0 PUSH2 0x2097 DUP4 PUSH2 0x2445 JUMP JUMPDEST PUSH1 0x40 MLOAD LT ISZERO SWAP4 SWAP3 POP POP POP JUMP JUMPDEST PUSH1 0x0 DUP1 PUSH2 0x20AF DUP7 PUSH2 0x246A JUMP JUMPDEST PUSH1 0x1 PUSH1 0x1 PUSH1 0x60 SHL SUB AND SWAP1 POP PUSH2 0x20C3 DUP7 PUSH2 0x2445 JUMP JUMPDEST PUSH2 0x20D7 DUP6 PUSH2 0x20D1 DUP5 DUP10 PUSH2 0x23D2 JUMP JUMPDEST SWAP1 PUSH2 0x23D2 JUMP JUMPDEST GT ISZERO PUSH2 0x20EA JUMPI PUSH3 0xFFFFFF NOT SWAP2 POP POP PUSH2 0x12F0 JUMP JUMPDEST PUSH2 0x20F4 DUP2 DUP7 PUSH2 0x23D2 JUMP JUMPDEST SWAP1 POP PUSH2 0x2017 DUP4 PUSH5 0xFFFFFFFFFF AND DUP3 DUP7 PUSH2 0x2021 JUMP JUMPDEST PUSH1 0x0 PUSH2 0x2113 DUP4 PUSH2 0x2479 JUMP JUMPDEST PUSH2 0x214E JUMPI PUSH1 0x40 MLOAD PUSH3 0x461BCD PUSH1 0xE5 SHL DUP2 MSTORE PUSH1 0x4 ADD DUP1 DUP1 PUSH1 0x20 ADD DUP3 DUP2 SUB DUP3 MSTORE PUSH1 0x28 DUP2 MSTORE PUSH1 0x20 ADD DUP1 PUSH2 0x38B5 PUSH1 0x28 SWAP2 CODECOPY PUSH1 0x40 ADD SWAP2 POP POP PUSH1 0x40 MLOAD DUP1 SWAP2 SUB SWAP1 REVERT JUMPDEST PUSH2 0x2157 DUP4 PUSH2 0x2066 JUMP JUMPDEST PUSH2 0x2192 JUMPI PUSH1 0x40 MLOAD PUSH3 0x461BCD PUSH1 0xE5 SHL DUP2 MSTORE PUSH1 0x4 ADD DUP1 DUP1 PUSH1 0x20 ADD DUP3 DUP2 SUB DUP3 MSTORE PUSH1 0x2B DUP2 MSTORE PUSH1 0x20 ADD DUP1 PUSH2 0x38DD PUSH1 0x2B SWAP2 CODECOPY PUSH1 0x40 ADD SWAP2 POP POP PUSH1 0x40 MLOAD DUP1 SWAP2 SUB SWAP1 REVERT JUMPDEST PUSH1 0x0 PUSH2 0x219D DUP5 PUSH2 0x1E91 JUMP JUMPDEST PUSH1 0x1 PUSH1 0x1 PUSH1 0x60 SHL SUB AND SWAP1 POP PUSH1 0x0 PUSH2 0x21B3 DUP6 PUSH2 0x246A JUMP JUMPDEST PUSH1 0x1 PUSH1 0x1 PUSH1 0x60 SHL SUB AND SWAP1 POP PUSH1 0x0 DUP1 PUSH1 0x40 MLOAD SWAP2 POP DUP6 DUP3 GT ISZERO PUSH2 0x21D4 JUMPI PUSH1 0x20 PUSH1 0x60 REVERT JUMPDEST DUP4 DUP7 DUP6 DUP6 PUSH1 0x4 GAS STATICCALL SWAP1 POP DUP1 PUSH2 0x221F JUMPI PUSH1 0x40 DUP1 MLOAD PUSH3 0x461BCD PUSH1 0xE5 SHL DUP2 MSTORE PUSH1 0x20 PUSH1 0x4 DUP3 ADD MSTORE PUSH1 0xC PUSH1 0x24 DUP3 ADD MSTORE PUSH12 0x6964656E74697479204F4F47 PUSH1 0xA0 SHL PUSH1 0x44 DUP3 ADD MSTORE SWAP1 MLOAD SWAP1 DUP2 SWAP1 SUB PUSH1 0x64 ADD SWAP1 REVERT JUMPDEST PUSH2 0x972 PUSH2 0x222B DUP9 PUSH2 0x243F JUMP JUMPDEST PUSH5 0xFFFFFFFFFF AND DUP8 DUP7 PUSH2 0x242C JUMP JUMPDEST PUSH1 0x0 PUSH2 0x1E8B PUSH3 0xFFFFFF NOT DUP4 AND PUSH1 0x44 PUSH1 0x20 PUSH2 0x248B JUMP JUMPDEST PUSH1 0x60 PUSH2 0x12F0 DUP5 DUP5 PUSH1 0x0 DUP6 PUSH2 0x24AC JUMP JUMPDEST PUSH1 0x0 PUSH32 0x7FFFFFFFFFFFFFFFFFFFFFFFFFFFFFFF5D576E7357A4501DDFE92F46681B20A0 DUP3 GT ISZERO PUSH2 0x22BE JUMPI PUSH1 0x40 MLOAD PUSH3 0x461BCD PUSH1 0xE5 SHL DUP2 MSTORE PUSH1 0x4 ADD DUP1 DUP1 PUSH1 0x20 ADD DUP3 DUP2 SUB DUP3 MSTORE PUSH1 0x22 DUP2 MSTORE PUSH1 0x20 ADD DUP1 PUSH2 0x37A6 PUSH1 0x22 SWAP2 CODECOPY PUSH1 0x40 ADD SWAP2 POP POP PUSH1 0x40 MLOAD DUP1 SWAP2 SUB SWAP1 REVERT JUMPDEST DUP4 PUSH1 0xFF AND PUSH1 0x1B EQ DUP1 PUSH2 0x22D3 JUMPI POP DUP4 PUSH1 0xFF AND PUSH1 0x1C EQ JUMPDEST PUSH2 0x230E JUMPI PUSH1 0x40 MLOAD PUSH3 0x461BCD PUSH1 0xE5 SHL DUP2 MSTORE PUSH1 0x4 ADD DUP1 DUP1 PUSH1 0x20 ADD DUP3 DUP2 SUB DUP3 MSTORE PUSH1 0x22 DUP2 MSTORE PUSH1 0x20 ADD DUP1 PUSH2 0x380F PUSH1 0x22 SWAP2 CODECOPY PUSH1 0x40 ADD SWAP2 POP POP PUSH1 0x40 MLOAD DUP1 SWAP2 SUB SWAP1 REVERT JUMPDEST PUSH1 0x0 PUSH1 0x1 DUP7 DUP7 DUP7 DUP7 PUSH1 0x40 MLOAD PUSH1 0x0 DUP2 MSTORE PUSH1 0x20 ADD PUSH1 0x40 MSTORE PUSH1 0x40 MLOAD DUP1 DUP6 DUP2 MSTORE PUSH1 0x20 ADD DUP5 PUSH1 0xFF AND DUP2 MSTORE PUSH1 0x20 ADD DUP4 DUP2 MSTORE PUSH1 0x20 ADD DUP3 DUP2 MSTORE PUSH1 0x20 ADD SWAP5 POP POP POP POP POP PUSH1 0x20 PUSH1 0x40 MLOAD PUSH1 0x20 DUP2 SUB SWAP1 DUP1 DUP5 SUB SWAP1 DUP6 GAS STATICCALL ISZERO DUP1 ISZERO PUSH2 0x236A JUMPI RETURNDATASIZE PUSH1 0x0 DUP1 RETURNDATACOPY RETURNDATASIZE PUSH1 0x0 REVERT JUMPDEST POP POP PUSH1 0x40 MLOAD PUSH1 0x1F NOT ADD MLOAD SWAP2 POP POP PUSH1 0x1 PUSH1 0x1 PUSH1 0xA0 SHL SUB DUP2 AND PUSH2 0x4F4 JUMPI PUSH1 0x40 DUP1 MLOAD PUSH3 0x461BCD PUSH1 0xE5 SHL DUP2 MSTORE PUSH1 0x20 PUSH1 0x4 DUP3 ADD MSTORE PUSH1 0x18 PUSH1 0x24 DUP3 ADD MSTORE PUSH32 0x45434453413A20696E76616C6964207369676E61747572650000000000000000 PUSH1 0x44 DUP3 ADD MSTORE SWAP1 MLOAD SWAP1 DUP2 SWAP1 SUB PUSH1 0x64 ADD SWAP1 REVERT JUMPDEST PUSH1 0x0 DUP3 DUP3 ADD DUP4 DUP2 LT ISZERO PUSH2 0x205F JUMPI PUSH1 0x40 DUP1 MLOAD PUSH3 0x461BCD PUSH1 0xE5 SHL DUP2 MSTORE PUSH1 0x20 PUSH1 0x4 DUP3 ADD MSTORE PUSH1 0x1B PUSH1 0x24 DUP3 ADD MSTORE PUSH32 0x536166654D6174683A206164646974696F6E206F766572666C6F770000000000 PUSH1 0x44 DUP3 ADD MSTORE SWAP1 MLOAD SWAP1 DUP2 SWAP1 SUB PUSH1 0x64 ADD SWAP1 REVERT JUMPDEST PUSH1 0x60 SWAP3 DUP4 SHL SWAP2 SWAP1 SWAP2 OR SWAP1 SWAP2 SHL OR PUSH1 0x18 SHL SWAP1 JUMP JUMPDEST PUSH1 0xD8 SHR SWAP1 JUMP JUMPDEST PUSH1 0x0 PUSH2 0x2450 DUP3 PUSH2 0x1E91 JUMP JUMPDEST PUSH2 0x2459 DUP4 PUSH2 0x246A JUMP JUMPDEST ADD PUSH1 0x1 PUSH1 0x1 PUSH1 0x60 SHL SUB AND SWAP1 POP SWAP2 SWAP1 POP JUMP JUMPDEST PUSH1 0x78 SHR PUSH1 0x1 PUSH1 0x1 PUSH1 0x60 SHL SUB AND SWAP1 JUMP JUMPDEST PUSH1 0x0 PUSH2 0x2484 DUP3 PUSH2 0x25FC JUMP JUMPDEST ISZERO SWAP3 SWAP2 POP POP JUMP JUMPDEST PUSH1 0x0 DUP2 PUSH1 0x20 SUB PUSH1 0x8 MUL PUSH1 0xFF AND PUSH2 0x24A2 DUP6 DUP6 DUP6 PUSH2 0x2608 JUMP JUMPDEST SWAP1 SHR SWAP5 SWAP4 POP POP POP POP JUMP JUMPDEST PUSH1 0x60 DUP3 SELFBALANCE LT ISZERO PUSH2 0x24ED JUMPI PUSH1 0x40 MLOAD PUSH3 0x461BCD PUSH1 0xE5 SHL DUP2 MSTORE PUSH1 0x4 ADD DUP1 DUP1 PUSH1 0x20 ADD DUP3 DUP2 SUB DUP3 MSTORE PUSH1 0x26 DUP2 MSTORE PUSH1 0x20 ADD DUP1 PUSH2 0x37C8 PUSH1 0x26 SWAP2 CODECOPY PUSH1 0x40 ADD SWAP2 POP POP PUSH1 0x40 MLOAD DUP1 SWAP2 SUB SWAP1 REVERT JUMPDEST PUSH2 0x24F6 DUP6 PUSH2 0x276B JUMP JUMPDEST PUSH2 0x2547 JUMPI PUSH1 0x40 DUP1 MLOAD PUSH3 0x461BCD PUSH1 0xE5 SHL DUP2 MSTORE PUSH1 0x20 PUSH1 0x4 DUP3 ADD MSTORE PUSH1 0x1D PUSH1 0x24 DUP3 ADD MSTORE PUSH32 0x416464726573733A2063616C6C20746F206E6F6E2D636F6E7472616374000000 PUSH1 0x44 DUP3 ADD MSTORE SWAP1 MLOAD SWAP1 DUP2 SWAP1 SUB PUSH1 0x64 ADD SWAP1 REVERT JUMPDEST PUSH1 0x0 DUP1 DUP7 PUSH1 0x1 PUSH1 0x1 PUSH1 0xA0 SHL SUB AND DUP6 DUP8 PUSH1 0x40 MLOAD DUP1 DUP3 DUP1 MLOAD SWAP1 PUSH1 0x20 ADD SWAP1 DUP1 DUP4 DUP4 JUMPDEST PUSH1 0x20 DUP4 LT PUSH2 0x2585 JUMPI DUP1 MLOAD DUP3 MSTORE PUSH1 0x1F NOT SWAP1 SWAP3 ADD SWAP2 PUSH1 0x20 SWAP2 DUP3 ADD SWAP2 ADD PUSH2 0x2566 JUMP JUMPDEST PUSH1 0x1 DUP4 PUSH1 0x20 SUB PUSH2 0x100 EXP SUB DUP1 NOT DUP3 MLOAD AND DUP2 DUP5 MLOAD AND DUP1 DUP3 OR DUP6 MSTORE POP POP POP POP POP POP SWAP1 POP ADD SWAP2 POP POP PUSH1 0x0 PUSH1 0x40 MLOAD DUP1 DUP4 SUB DUP2 DUP6 DUP8 GAS CALL SWAP3 POP POP POP RETURNDATASIZE DUP1 PUSH1 0x0 DUP2 EQ PUSH2 0x25E7 JUMPI PUSH1 0x40 MLOAD SWAP2 POP PUSH1 0x1F NOT PUSH1 0x3F RETURNDATASIZE ADD AND DUP3 ADD PUSH1 0x40 MSTORE RETURNDATASIZE DUP3 MSTORE RETURNDATASIZE PUSH1 0x0 PUSH1 0x20 DUP5 ADD RETURNDATACOPY PUSH2 0x25EC JUMP JUMPDEST PUSH1 0x60 SWAP2 POP JUMPDEST POP SWAP2 POP SWAP2 POP PUSH2 0x972 DUP3 DUP3 DUP7 PUSH2 0x2771 JUMP JUMPDEST PUSH3 0xFFFFFF NOT SWAP1 DUP2 AND EQ SWAP1 JUMP JUMPDEST PUSH1 0x0 PUSH1 0xFF DUP3 AND PUSH2 0x261A JUMPI POP PUSH1 0x0 PUSH2 0x205F JUMP JUMPDEST PUSH2 0x2623 DUP5 PUSH2 0x1E91 JUMP JUMPDEST PUSH1 0x1 PUSH1 0x1 PUSH1 0x60 SHL SUB AND PUSH2 0x2639 DUP5 PUSH1 0xFF DUP6 AND PUSH2 0x23D2 JUMP JUMPDEST GT ISZERO PUSH2 0x26F4 JUMPI PUSH2 0x2670 PUSH2 0x264B DUP6 PUSH2 0x246A JUMP JUMPDEST PUSH1 0x1 PUSH1 0x1 PUSH1 0x60 SHL SUB AND PUSH2 0x265D DUP7 PUSH2 0x1E91 JUMP JUMPDEST PUSH1 0x1 PUSH1 0x1 PUSH1 0x60 SHL SUB AND DUP6 DUP6 PUSH1 0xFF AND PUSH2 0x27D7 JUMP JUMPDEST PUSH1 0x40 MLOAD PUSH3 0x461BCD PUSH1 0xE5 SHL DUP2 MSTORE PUSH1 0x4 ADD DUP1 DUP1 PUSH1 0x20 ADD DUP3 DUP2 SUB DUP3 MSTORE DUP4 DUP2 DUP2 MLOAD DUP2 MSTORE PUSH1 0x20 ADD SWAP2 POP DUP1 MLOAD SWAP1 PUSH1 0x20 ADD SWAP1 DUP1 DUP4 DUP4 PUSH1 0x0 JUMPDEST DUP4 DUP2 LT ISZERO PUSH2 0x26B9 JUMPI DUP2 DUP2 ADD MLOAD DUP4 DUP3 ADD MSTORE PUSH1 0x20 ADD PUSH2 0x26A1 JUMP JUMPDEST POP POP POP POP SWAP1 POP SWAP1 DUP2 ADD SWAP1 PUSH1 0x1F AND DUP1 ISZERO PUSH2 0x26E6 JUMPI DUP1 DUP3 SUB DUP1 MLOAD PUSH1 0x1 DUP4 PUSH1 0x20 SUB PUSH2 0x100 EXP SUB NOT AND DUP2 MSTORE PUSH1 0x20 ADD SWAP2 POP JUMPDEST POP SWAP3 POP POP POP PUSH1 0x40 MLOAD DUP1 SWAP2 SUB SWAP1 REVERT JUMPDEST PUSH1 0x20 DUP3 PUSH1 0xFF AND GT ISZERO PUSH2 0x2737 JUMPI PUSH1 0x40 MLOAD PUSH3 0x461BCD PUSH1 0xE5 SHL DUP2 MSTORE PUSH1 0x4 ADD DUP1 DUP1 PUSH1 0x20 ADD DUP3 DUP2 SUB DUP3 MSTORE PUSH1 0x3A DUP2 MSTORE PUSH1 0x20 ADD DUP1 PUSH2 0x3851 PUSH1 0x3A SWAP2 CODECOPY PUSH1 0x40 ADD SWAP2 POP POP PUSH1 0x40 MLOAD DUP1 SWAP2 SUB SWAP1 REVERT JUMPDEST PUSH1 0x8 DUP3 MUL PUSH1 0x0 PUSH2 0x2746 DUP7 PUSH2 0x246A JUMP JUMPDEST PUSH1 0x1 PUSH1 0x1 PUSH1 0x60 SHL SUB AND SWAP1 POP PUSH1 0x0 PUSH2 0x275C DUP4 PUSH2 0x28CA JUMP JUMPDEST SWAP2 SWAP1 SWAP6 ADD MLOAD AND SWAP6 SWAP5 POP POP POP POP POP JUMP JUMPDEST EXTCODESIZE ISZERO ISZERO SWAP1 JUMP JUMPDEST PUSH1 0x60 DUP4 ISZERO PUSH2 0x2780 JUMPI POP DUP2 PUSH2 0x205F JUMP JUMPDEST DUP3 MLOAD ISZERO PUSH2 0x2790 JUMPI DUP3 MLOAD DUP1 DUP5 PUSH1 0x20 ADD REVERT JUMPDEST PUSH1 0x40 MLOAD PUSH3 0x461BCD PUSH1 0xE5 SHL DUP2 MSTORE PUSH1 0x20 PUSH1 0x4 DUP3 ADD DUP2 DUP2 MSTORE DUP5 MLOAD PUSH1 0x24 DUP5 ADD MSTORE DUP5 MLOAD DUP6 SWAP4 SWAP2 SWAP3 DUP4 SWAP3 PUSH1 0x44 ADD SWAP2 SWAP1 DUP6 ADD SWAP1 DUP1 DUP4 DUP4 PUSH1 0x0 DUP4 ISZERO PUSH2 0x26B9 JUMPI DUP2 DUP2 ADD MLOAD DUP4 DUP3 ADD MSTORE PUSH1 0x20 ADD PUSH2 0x26A1 JUMP JUMPDEST PUSH1 0x60 PUSH1 0x0 PUSH2 0x27E4 DUP7 PUSH2 0x28D9 JUMP JUMPDEST SWAP2 POP POP PUSH1 0x0 PUSH2 0x27F2 DUP7 PUSH2 0x28D9 JUMP JUMPDEST SWAP2 POP POP PUSH1 0x0 PUSH2 0x2800 DUP7 PUSH2 0x28D9 JUMP JUMPDEST SWAP2 POP POP PUSH1 0x0 PUSH2 0x280E DUP7 PUSH2 0x28D9 JUMP JUMPDEST SWAP2 POP POP DUP4 DUP4 DUP4 DUP4 PUSH1 0x40 MLOAD PUSH1 0x20 ADD DUP1 DUP1 PUSH2 0x3908 PUSH1 0x35 SWAP2 CODECOPY PUSH1 0x1 PUSH1 0x1 PUSH1 0xD0 SHL SUB NOT PUSH1 0xD0 DUP8 DUP2 SHL DUP3 AND PUSH1 0x35 DUP5 ADD MSTORE PUSH15 0x40EED2E8D040D8CADCCEE8D04060F PUSH1 0x8B SHL PUSH1 0x3B DUP5 ADD MSTORE DUP7 SWAP1 SHL AND PUSH1 0x4A DUP3 ADD MSTORE PUSH1 0x50 ADD PUSH1 0x21 PUSH2 0x37EE DUP3 CODECOPY PUSH1 0x1 PUSH1 0x1 PUSH1 0xD0 SHL SUB NOT PUSH1 0xD0 SWAP5 DUP6 SHL DUP2 AND PUSH1 0x21 DUP4 ADD MSTORE PUSH15 0x40EED2E8D040D8CADCCEE8D04060F PUSH1 0x8B SHL PUSH1 0x27 DUP4 ADD MSTORE SWAP3 SWAP1 SWAP4 SHL SWAP1 SWAP2 AND PUSH1 0x36 DUP4 ADD MSTORE POP PUSH1 0x17 PUSH1 0xF9 SHL PUSH1 0x3C DUP3 ADD MSTORE PUSH1 0x40 DUP1 MLOAD PUSH1 0x1D DUP2 DUP5 SUB ADD DUP2 MSTORE PUSH1 0x3D SWAP1 SWAP3 ADD SWAP1 MSTORE SWAP12 SWAP11 POP POP POP POP POP POP POP POP POP POP POP JUMP JUMPDEST PUSH1 0x1 PUSH1 0xFF SHL PUSH1 0x0 NOT SWAP1 SWAP2 ADD SAR SWAP1 JUMP JUMPDEST PUSH1 0x0 DUP1 PUSH1 0x1F JUMPDEST PUSH1 0xF DUP2 PUSH1 0xFF AND GT ISZERO PUSH2 0x2923 JUMPI PUSH1 0xFF PUSH1 0x8 DUP3 MUL AND DUP5 SWAP1 SHR PUSH2 0x28FE DUP2 PUSH2 0x2971 JUMP JUMPDEST PUSH2 0xFFFF AND DUP5 OR SWAP4 POP DUP2 PUSH1 0xFF AND PUSH1 0x10 EQ PUSH2 0x2919 JUMPI PUSH1 0x10 DUP5 SWAP1 SHL SWAP4 POP JUMPDEST POP PUSH1 0x0 NOT ADD PUSH2 0x28DF JUMP JUMPDEST POP PUSH1 0xF JUMPDEST PUSH1 0xFF DUP2 PUSH1 0xFF AND LT ISZERO PUSH2 0x296B JUMPI PUSH1 0xFF PUSH1 0x8 DUP3 MUL AND DUP5 SWAP1 SHR PUSH2 0x2946 DUP2 PUSH2 0x2971 JUMP JUMPDEST PUSH2 0xFFFF AND DUP4 OR SWAP3 POP DUP2 PUSH1 0xFF AND PUSH1 0x0 EQ PUSH2 0x2961 JUMPI PUSH1 0x10 DUP4 SWAP1 SHL SWAP3 POP JUMPDEST POP PUSH1 0x0 NOT ADD PUSH2 0x2927 JUMP JUMPDEST POP SWAP2 POP SWAP2 JUMP JUMPDEST PUSH1 0x0 PUSH2 0x2983 PUSH1 0x4 DUP4 PUSH1 0xFF AND SWAP1 SHR PUSH2 0x29A1 JUMP JUMPDEST PUSH1 0xFF AND OR PUSH1 0x8 SHL PUSH3 0xFFFF00 AND PUSH2 0x2998 DUP3 PUSH2 0x29A1 JUMP JUMPDEST PUSH1 0xFF AND OR SWAP2 SWAP1 POP JUMP JUMPDEST PUSH1 0x40 DUP1 MLOAD DUP1 DUP3 ADD SWAP1 SWAP2 MSTORE PUSH1 0x10 DUP1 DUP3 MSTORE PUSH16 0x181899199A1A9B1B9C1CB0B131B232B3 PUSH1 0x81 SHL PUSH1 0x20 DUP4 ADD MSTORE PUSH1 0x0 SWAP2 PUSH1 0xF DUP5 AND SWAP2 DUP3 SWAP1 DUP2 LT PUSH2 0x29DB JUMPI INVALID JUMPDEST ADD PUSH1 0x20 ADD MLOAD PUSH1 0xF8 SHR SWAP4 SWAP3 POP POP POP JUMP JUMPDEST PUSH1 0x40 MLOAD DUP1 PUSH1 0xA0 ADD PUSH1 0x40 MSTORE DUP1 PUSH1 0x0 DUP2 MSTORE PUSH1 0x20 ADD PUSH1 0x0 DUP2 MSTORE PUSH1 0x20 ADD PUSH1 0x0 PUSH1 0x1 PUSH1 0x1 PUSH1 0xA0 SHL SUB AND DUP2 MSTORE PUSH1 0x20 ADD PUSH1 0x0 DUP2 MSTORE PUSH1 0x20 ADD PUSH1 0x0 DUP2 MSTORE POP SWAP1 JUMP JUMPDEST DUP3 DUP1 SLOAD PUSH1 0x1 DUP2 PUSH1 0x1 AND ISZERO PUSH2 0x100 MUL SUB AND PUSH1 0x2 SWAP1 DIV SWAP1 PUSH1 0x0 MSTORE PUSH1 0x20 PUSH1 0x0 KECCAK256 SWAP1 PUSH1 0x1F ADD PUSH1 0x20 SWAP1 DIV DUP2 ADD SWAP3 DUP3 PUSH2 0x2A58 JUMPI PUSH1 0x0 DUP6 SSTORE PUSH2 0x2A9E JUMP JUMPDEST DUP3 PUSH1 0x1F LT PUSH2 0x2A71 JUMPI DUP1 MLOAD PUSH1 0xFF NOT AND DUP4 DUP1 ADD OR DUP6 SSTORE PUSH2 0x2A9E JUMP JUMPDEST DUP3 DUP1 ADD PUSH1 0x1 ADD DUP6 SSTORE DUP3 ISZERO PUSH2 0x2A9E JUMPI SWAP2 DUP3 ADD JUMPDEST DUP3 DUP2 GT ISZERO PUSH2 0x2A9E JUMPI DUP3 MLOAD DUP3 SSTORE SWAP2 PUSH1 0x20 ADD SWAP2 SWAP1 PUSH1 0x1 ADD SWAP1 PUSH2 0x2A83 JUMP JUMPDEST POP PUSH2 0x2AAA SWAP3 SWAP2 POP PUSH2 0x2B52 JUMP JUMPDEST POP SWAP1 JUMP JUMPDEST PUSH1 0x40 DUP1 MLOAD PUSH2 0x140 DUP2 ADD SWAP1 SWAP2 MSTORE PUSH1 0x0 DUP1 DUP3 MSTORE PUSH1 0x20 DUP3 ADD SWAP1 DUP2 MSTORE PUSH1 0x20 ADD PUSH1 0x0 DUP2 MSTORE PUSH1 0x20 ADD PUSH1 0x60 DUP2 MSTORE PUSH1 0x20 ADD PUSH1 0x0 DUP2 MSTORE PUSH1 0x20 ADD PUSH1 0x0 DUP2 MSTORE PUSH1 0x20 ADD PUSH1 0x0 DUP2 MSTORE PUSH1 0x20 ADD PUSH1 0x0 DUP2 MSTORE PUSH1 0x20 ADD PUSH1 0x0 DUP2 MSTORE PUSH1 0x20 ADD PUSH1 0x0 ISZERO ISZERO DUP2 MSTORE POP SWAP1 JUMP JUMPDEST PUSH1 0x40 MLOAD DUP1 PUSH1 0xE0 ADD PUSH1 0x40 MSTORE DUP1 PUSH1 0x0 DUP2 MSTORE PUSH1 0x20 ADD PUSH1 0x0 PUSH1 0x1 PUSH1 0x1 PUSH1 0xA0 SHL SUB AND DUP2 MSTORE PUSH1 0x20 ADD PUSH1 0x0 DUP2 MSTORE PUSH1 0x20 ADD PUSH1 0x0 DUP2 MSTORE PUSH1 0x20 ADD PUSH1 0x0 ISZERO ISZERO DUP2 MSTORE PUSH1 0x20 ADD PUSH1 0x0 PUSH4 0xFFFFFFFF AND DUP2 MSTORE PUSH1 0x20 ADD PUSH1 0x60 DUP2 MSTORE POP SWAP1 JUMP JUMPDEST JUMPDEST DUP1 DUP3 GT ISZERO PUSH2 0x2AAA JUMPI PUSH1 0x0 DUP2 SSTORE PUSH1 0x1 ADD PUSH2 0x2B53 JUMP JUMPDEST DUP1 CALLDATALOAD PUSH1 0x1 PUSH1 0x1 PUSH1 0xA0 SHL SUB DUP2 AND DUP2 EQ PUSH2 0xC52 JUMPI PUSH1 0x0 DUP1 REVERT JUMPDEST PUSH1 0x0 DUP1 DUP4 PUSH1 0x1F DUP5 ADD SLT PUSH2 0x2B8F JUMPI DUP2 DUP3 REVERT JUMPDEST POP DUP2 CALLDATALOAD PUSH8 0xFFFFFFFFFFFFFFFF DUP2 GT ISZERO PUSH2 0x2BA6 JUMPI DUP2 DUP3 REVERT JUMPDEST PUSH1 0x20 DUP4 ADD SWAP2 POP DUP4 PUSH1 0x20 DUP3 DUP6 ADD ADD GT ISZERO PUSH2 0x2BBE JUMPI PUSH1 0x0 DUP1 REVERT JUMPDEST SWAP3 POP SWAP3 SWAP1 POP JUMP JUMPDEST PUSH1 0x0 DUP3 PUSH1 0x1F DUP4 ADD SLT PUSH2 0x2BD5 JUMPI DUP1 DUP2 REVERT JUMPDEST DUP2 CALLDATALOAD PUSH2 0x2BE8 PUSH2 0x2BE3 DUP3 PUSH2 0x3731 JUMP JUMPDEST PUSH2 0x370D JUMP JUMPDEST DUP2 DUP2 MSTORE DUP5 PUSH1 0x20 DUP4 DUP7 ADD ADD GT ISZERO PUSH2 0x2BFC JUMPI DUP3 DUP4 REVERT JUMPDEST DUP2 PUSH1 0x20 DUP6 ADD PUSH1 0x20 DUP4 ADD CALLDATACOPY SWAP1 DUP2 ADD PUSH1 0x20 ADD SWAP2 SWAP1 SWAP2 MSTORE SWAP3 SWAP2 POP POP JUMP JUMPDEST DUP1 CALLDATALOAD PUSH4 0xFFFFFFFF DUP2 AND DUP2 EQ PUSH2 0xC52 JUMPI PUSH1 0x0 DUP1 REVERT JUMPDEST PUSH1 0x0 PUSH1 0x20 DUP3 DUP5 SUB SLT ISZERO PUSH2 0x2C3B JUMPI DUP1 DUP2 REVERT JUMPDEST PUSH2 0x205F DUP3 PUSH2 0x2B67 JUMP JUMPDEST PUSH1 0x0 DUP1 PUSH1 0x0 DUP1 PUSH1 0x0 DUP1 PUSH1 0xC0 DUP8 DUP10 SUB SLT ISZERO PUSH2 0x2C5C JUMPI DUP2 DUP3 REVERT JUMPDEST PUSH2 0x2C65 DUP8 PUSH2 0x2B67 JUMP JUMPDEST SWAP6 POP PUSH1 0x20 DUP8 ADD CALLDATALOAD SWAP5 POP PUSH1 0x40 DUP8 ADD CALLDATALOAD SWAP4 POP PUSH1 0x60 DUP8 ADD CALLDATALOAD PUSH8 0xFFFFFFFFFFFFFFFF DUP1 DUP3 GT ISZERO PUSH2 0x2C8F JUMPI DUP4 DUP5 REVERT JUMPDEST PUSH2 0x2C9B DUP11 DUP4 DUP12 ADD PUSH2 0x2BC5 JUMP JUMPDEST SWAP5 POP PUSH1 0x80 DUP10 ADD CALLDATALOAD SWAP4 POP PUSH1 0xA0 DUP10 ADD CALLDATALOAD SWAP2 POP DUP1 DUP3 GT ISZERO PUSH2 0x2CB7 JUMPI DUP3 DUP4 REVERT JUMPDEST POP PUSH2 0x2CC4 DUP10 DUP3 DUP11 ADD PUSH2 0x2BC5 JUMP JUMPDEST SWAP2 POP POP SWAP3 SWAP6 POP SWAP3 SWAP6 POP SWAP3 SWAP6 JUMP JUMPDEST PUSH1 0x0 DUP1 PUSH1 0x0 DUP1 PUSH1 0x80 DUP6 DUP8 SUB SLT ISZERO PUSH2 0x2CE6 JUMPI DUP4 DUP5 REVERT JUMPDEST DUP5 CALLDATALOAD PUSH1 0x4 DUP2 LT PUSH2 0x2CF4 JUMPI DUP5 DUP6 REVERT JUMPDEST SWAP4 POP PUSH1 0x20 DUP6 ADD CALLDATALOAD PUSH1 0x2 DUP2 LT PUSH2 0x2D07 JUMPI DUP4 DUP5 REVERT JUMPDEST SWAP3 POP PUSH1 0x40 DUP6 ADD CALLDATALOAD PUSH8 0xFFFFFFFFFFFFFFFF DUP2 GT ISZERO PUSH2 0x2D22 JUMPI DUP3 DUP4 REVERT JUMPDEST PUSH2 0x2D2E DUP8 DUP3 DUP9 ADD PUSH2 0x2BC5 JUMP JUMPDEST SWAP5 SWAP8 SWAP4 SWAP7 POP SWAP4 SWAP5 PUSH1 0x60 ADD CALLDATALOAD SWAP4 POP POP POP JUMP JUMPDEST PUSH1 0x0 PUSH1 0x20 DUP3 DUP5 SUB SLT ISZERO PUSH2 0x2D50 JUMPI DUP1 DUP2 REVERT JUMPDEST POP CALLDATALOAD SWAP2 SWAP1 POP JUMP JUMPDEST PUSH1 0x0 PUSH1 0x20 DUP3 DUP5 SUB SLT ISZERO PUSH2 0x2D68 JUMPI DUP1 DUP2 REVERT JUMPDEST POP MLOAD SWAP2 SWAP1 POP JUMP JUMPDEST PUSH1 0x0 DUP1 PUSH1 0x40 DUP4 DUP6 SUB SLT ISZERO PUSH2 0x2D81 JUMPI DUP2 DUP3 REVERT JUMPDEST DUP3 CALLDATALOAD SWAP2 POP PUSH2 0x2D91 PUSH1 0x20 DUP5 ADD PUSH2 0x2B67 JUMP JUMPDEST SWAP1 POP SWAP3 POP SWAP3 SWAP1 POP JUMP JUMPDEST PUSH1 0x0 DUP1 PUSH1 0x40 DUP4 DUP6 SUB SLT ISZERO PUSH2 0x2DAC JUMPI DUP2 DUP3 REVERT JUMPDEST DUP3 MLOAD SWAP2 POP PUSH1 0x20 DUP4 ADD MLOAD PUSH8 0xFFFFFFFFFFFFFFFF DUP2 GT ISZERO PUSH2 0x2DC9 JUMPI DUP2 DUP3 REVERT JUMPDEST DUP4 ADD PUSH1 0x1F DUP2 ADD DUP6 SGT PUSH2 0x2DD9 JUMPI DUP2 DUP3 REVERT JUMPDEST DUP1 MLOAD PUSH2 0x2DE7 PUSH2 0x2BE3 DUP3 PUSH2 0x3731 JUMP JUMPDEST DUP2 DUP2 MSTORE DUP7 PUSH1 0x20 DUP4 DUP6 ADD ADD GT ISZERO PUSH2 0x2DFB JUMPI DUP4 DUP5 REVERT JUMPDEST PUSH2 0x2E0C DUP3 PUSH1 0x20 DUP4 ADD PUSH1 0x20 DUP7 ADD PUSH2 0x3753 JUMP JUMPDEST DUP1 SWAP4 POP POP POP POP SWAP3 POP SWAP3 SWAP1 POP JUMP JUMPDEST PUSH1 0x0 DUP1 PUSH1 0x40 DUP4 DUP6 SUB SLT ISZERO PUSH2 0x2E2B JUMPI DUP2 DUP3 REVERT JUMPDEST POP POP DUP1 CALLDATALOAD SWAP3 PUSH1 0x20 SWAP1 SWAP2 ADD CALLDATALOAD SWAP2 POP JUMP JUMPDEST PUSH1 0x0 DUP1 PUSH1 0x0 PUSH1 0x60 DUP5 DUP7 SUB SLT ISZERO PUSH2 0x2E4E JUMPI DUP3 DUP4 REVERT JUMPDEST DUP4 CALLDATALOAD SWAP3 POP PUSH1 0x20 DUP5 ADD CALLDATALOAD SWAP2 POP PUSH1 0x40 DUP5 ADD CALLDATALOAD PUSH8 0xFFFFFFFFFFFFFFFF DUP2 GT ISZERO PUSH2 0x2E72 JUMPI DUP2 DUP3 REVERT JUMPDEST PUSH2 0x2E7E DUP7 DUP3 DUP8 ADD PUSH2 0x2BC5 JUMP JUMPDEST SWAP2 POP POP SWAP3 POP SWAP3 POP SWAP3 JUMP JUMPDEST PUSH1 0x0 DUP1 PUSH1 0x0 DUP1 PUSH1 0x0 DUP1 PUSH1 0x0 PUSH1 0xE0 DUP9 DUP11 SUB SLT ISZERO PUSH2 0x2EA2 JUMPI DUP5 DUP6 REVERT JUMPDEST DUP8 CALLDATALOAD SWAP7 POP PUSH1 0x20 DUP9 ADD CALLDATALOAD SWAP6 POP PUSH1 0x40 DUP9 ADD CALLDATALOAD SWAP5 POP PUSH1 0x60 DUP9 ADD CALLDATALOAD PUSH8 0xFFFFFFFFFFFFFFFF DUP1 DUP3 GT ISZERO PUSH2 0x2ECE JUMPI DUP3 DUP4 REVERT JUMPDEST PUSH2 0x2EDA DUP12 DUP4 DUP13 ADD PUSH2 0x2BC5 JUMP JUMPDEST SWAP6 POP PUSH1 0x80 DUP11 ADD CALLDATALOAD SWAP5 POP PUSH2 0x2EEF PUSH1 0xA0 DUP12 ADD PUSH2 0x2B67 JUMP JUMPDEST SWAP4 POP PUSH1 0xC0 DUP11 ADD CALLDATALOAD SWAP2 POP DUP1 DUP3 GT ISZERO PUSH2 0x2F04 JUMPI DUP3 DUP4 REVERT JUMPDEST POP PUSH2 0x2F11 DUP11 DUP3 DUP12 ADD PUSH2 0x2BC5 JUMP JUMPDEST SWAP2 POP POP SWAP3 SWAP6 SWAP9 SWAP2 SWAP5 SWAP8 POP SWAP3 SWAP6 POP JUMP JUMPDEST PUSH1 0x0 DUP1 PUSH1 0x0 DUP1 PUSH1 0x0 DUP1 PUSH1 0xC0 DUP8 DUP10 SUB SLT ISZERO PUSH2 0x2F38 JUMPI DUP4 DUP5 REVERT JUMPDEST DUP7 CALLDATALOAD SWAP6 POP PUSH1 0x20 DUP8 ADD CALLDATALOAD SWAP5 POP PUSH1 0x40 DUP8 ADD CALLDATALOAD SWAP4 POP PUSH1 0x60 DUP8 ADD CALLDATALOAD PUSH8 0xFFFFFFFFFFFFFFFF DUP1 DUP3 GT ISZERO PUSH2 0x2C8F JUMPI DUP4 DUP5 REVERT JUMPDEST PUSH1 0x0 DUP1 PUSH1 0x0 DUP1 PUSH1 0x60 DUP6 DUP8 SUB SLT ISZERO PUSH2 0x2F79 JUMPI DUP2 DUP3 REVERT JUMPDEST PUSH2 0x2F82 DUP6 PUSH2 0x2C16 JUMP JUMPDEST SWAP4 POP PUSH1 0x20 DUP6 ADD CALLDATALOAD SWAP3 POP PUSH1 0x40 DUP6 ADD CALLDATALOAD PUSH8 0xFFFFFFFFFFFFFFFF DUP2 GT ISZERO PUSH2 0x2FA4 JUMPI DUP3 DUP4 REVERT JUMPDEST PUSH2 0x2FB0 DUP8 DUP3 DUP9 ADD PUSH2 0x2B7E JUMP JUMPDEST SWAP6 SWAP9 SWAP5 SWAP8 POP SWAP6 POP POP POP POP JUMP JUMPDEST PUSH1 0x0 DUP1 PUSH1 0x0 DUP1 PUSH1 0x0 PUSH1 0x80 DUP7 DUP9 SUB SLT ISZERO PUSH2 0x2FD3 JUMPI DUP3 DUP4 REVERT JUMPDEST PUSH2 0x2FDC DUP7 PUSH2 0x2C16 JUMP JUMPDEST SWAP5 POP PUSH1 0x20 DUP7 ADD CALLDATALOAD SWAP4 POP PUSH2 0x2FF1 PUSH1 0x40 DUP8 ADD PUSH2 0x2C16 JUMP JUMPDEST SWAP3 POP PUSH1 0x60 DUP7 ADD CALLDATALOAD PUSH8 0xFFFFFFFFFFFFFFFF DUP2 GT ISZERO PUSH2 0x300C JUMPI DUP2 DUP3 REVERT JUMPDEST PUSH2 0x3018 DUP9 DUP3 DUP10 ADD PUSH2 0x2B7E JUMP JUMPDEST SWAP7 SWAP10 SWAP6 SWAP9 POP SWAP4 SWAP7 POP SWAP3 SWAP5 SWAP4 SWAP3 POP POP POP JUMP JUMPDEST ISZERO ISZERO SWAP1 MSTORE JUMP JUMPDEST PUSH1 0x0 DUP2 MLOAD DUP1 DUP5 MSTORE PUSH2 0x3047 DUP2 PUSH1 0x20 DUP7 ADD PUSH1 0x20 DUP7 ADD PUSH2 0x3753 JUMP JUMPDEST PUSH1 0x1F ADD PUSH1 0x1F NOT AND SWAP3 SWAP1 SWAP3 ADD PUSH1 0x20 ADD SWAP3 SWAP2 POP POP JUMP JUMPDEST PUSH1 0x2 DUP2 LT PUSH2 0x3065 JUMPI INVALID JUMPDEST SWAP1 MSTORE JUMP JUMPDEST PUSH1 0x4 DUP2 LT PUSH2 0x3065 JUMPI INVALID JUMPDEST PUSH1 0x0 DUP1 DUP4 SLOAD PUSH1 0x1 DUP1 DUP3 AND PUSH1 0x0 DUP2 EQ PUSH2 0x3092 JUMPI PUSH1 0x1 DUP2 EQ PUSH2 0x30A9 JUMPI PUSH2 0x30D8 JUMP JUMPDEST PUSH1 0xFF NOT DUP4 AND DUP7 MSTORE PUSH1 0x2 DUP4 DIV PUSH1 0x7F AND DUP7 ADD SWAP4 POP PUSH2 0x30D8 JUMP JUMPDEST PUSH1 0x2 DUP4 DIV DUP8 DUP7 MSTORE PUSH1 0x20 DUP1 DUP8 KECCAK256 DUP8 JUMPDEST DUP4 DUP2 LT ISZERO PUSH2 0x30D0 JUMPI DUP2 SLOAD DUP11 DUP3 ADD MSTORE SWAP1 DUP6 ADD SWAP1 DUP3 ADD PUSH2 0x30B7 JUMP JUMPDEST POP POP POP DUP7 ADD SWAP4 POP JUMPDEST POP SWAP2 SWAP6 SWAP5 POP POP POP POP POP JUMP JUMPDEST PUSH2 0x1901 PUSH1 0xF0 SHL DUP2 MSTORE PUSH1 0x2 DUP2 ADD SWAP3 SWAP1 SWAP3 MSTORE PUSH1 0x22 DUP3 ADD MSTORE PUSH1 0x42 ADD SWAP1 JUMP JUMPDEST PUSH1 0x1 PUSH1 0x1 PUSH1 0xA0 SHL SUB SWAP2 SWAP1 SWAP2 AND DUP2 MSTORE PUSH1 0x20 ADD SWAP1 JUMP JUMPDEST PUSH1 0x20 DUP1 DUP3 MSTORE DUP3 MLOAD DUP3 DUP3 ADD DUP2 SWAP1 MSTORE PUSH1 0x0 SWAP2 SWAP1 DUP5 DUP3 ADD SWAP1 PUSH1 0x40 DUP6 ADD SWAP1 DUP5 JUMPDEST DUP2 DUP2 LT ISZERO PUSH2 0x314A JUMPI DUP4 MLOAD DUP4 MSTORE SWAP3 DUP5 ADD SWAP3 SWAP2 DUP5 ADD SWAP2 PUSH1 0x1 ADD PUSH2 0x312E JUMP JUMPDEST POP SWAP1 SWAP7 SWAP6 POP POP POP POP POP POP JUMP JUMPDEST SWAP1 ISZERO ISZERO DUP2 MSTORE PUSH1 0x20 ADD SWAP1 JUMP JUMPDEST SWAP1 DUP2 MSTORE PUSH1 0x20 ADD SWAP1 JUMP JUMPDEST SWAP6 DUP7 MSTORE PUSH1 0x1 PUSH1 0x1 PUSH1 0xA0 SHL SUB SWAP5 SWAP1 SWAP5 AND PUSH1 0x20 DUP7 ADD MSTORE PUSH1 0x40 DUP6 ADD SWAP3 SWAP1 SWAP3 MSTORE PUSH1 0x60 DUP5 ADD MSTORE PUSH1 0x80 DUP4 ADD MSTORE PUSH1 0xA0 DUP3 ADD MSTORE PUSH1 0xC0 ADD SWAP1 JUMP JUMPDEST PUSH1 0x0 PUSH2 0x31A7 DUP3 DUP8 PUSH2 0x3069 JUMP JUMPDEST PUSH2 0x31B4 PUSH1 0x20 DUP4 ADD DUP7 PUSH2 0x305B JUMP JUMPDEST PUSH1 0x80 PUSH1 0x40 DUP4 ADD MSTORE PUSH2 0x31C8 PUSH1 0x80 DUP4 ADD DUP6 PUSH2 0x302F JUMP JUMPDEST SWAP1 POP DUP3 PUSH1 0x60 DUP4 ADD MSTORE SWAP6 SWAP5 POP POP POP POP POP JUMP JUMPDEST PUSH1 0x0 PUSH4 0xFFFFFFFF DUP7 AND DUP3 MSTORE DUP5 PUSH1 0x20 DUP4 ADD MSTORE DUP4 PUSH1 0x40 DUP4 ADD MSTORE PUSH1 0x80 PUSH1 0x60 DUP4 ADD MSTORE PUSH2 0x2017 PUSH1 0x80 DUP4 ADD DUP5 PUSH2 0x302F JUMP JUMPDEST PUSH1 0x20 DUP1 DUP3 MSTORE PUSH1 0x13 SWAP1 DUP3 ADD MSTORE PUSH19 0x9CC2E8D2DEDCC2D8D2E8F29AD2E6DAC2E8C6D PUSH1 0x6B SHL PUSH1 0x40 DUP3 ADD MSTORE PUSH1 0x60 ADD SWAP1 JUMP JUMPDEST PUSH1 0x20 DUP1 DUP3 MSTORE PUSH1 0x10 SWAP1 DUP3 ADD MSTORE PUSH16 0x496E76616C69645369676E6174757265 PUSH1 0x80 SHL PUSH1 0x40 DUP3 ADD MSTORE PUSH1 0x60 ADD SWAP1 JUMP JUMPDEST PUSH1 0x20 DUP1 DUP3 MSTORE PUSH1 0x12 SWAP1 DUP3 ADD MSTORE PUSH18 0x496E76616C69644E6174696F6E616C697479 PUSH1 0x70 SHL PUSH1 0x40 DUP3 ADD MSTORE PUSH1 0x60 ADD SWAP1 JUMP JUMPDEST PUSH1 0x20 DUP1 DUP3 MSTORE PUSH1 0xD SWAP1 DUP3 ADD MSTORE PUSH13 0x125B9D985B1A59105B5BDD5B9D PUSH1 0x9A SHL PUSH1 0x40 DUP3 ADD MSTORE PUSH1 0x60 ADD SWAP1 JUMP JUMPDEST PUSH1 0x20 DUP1 DUP3 MSTORE PUSH1 0x10 SWAP1 DUP3 ADD MSTORE PUSH16 0x125B9D985B1A59149958DA5C1A595B9D PUSH1 0x82 SHL PUSH1 0x40 DUP3 ADD MSTORE PUSH1 0x60 ADD SWAP1 JUMP JUMPDEST PUSH1 0x20 DUP1 DUP3 MSTORE PUSH1 0xB SWAP1 DUP3 ADD MSTORE PUSH11 0x125B9D985B1A59141BDBDB PUSH1 0xAA SHL PUSH1 0x40 DUP3 ADD MSTORE PUSH1 0x60 ADD SWAP1 JUMP JUMPDEST PUSH1 0x20 DUP1 DUP3 MSTORE PUSH1 0x16 SWAP1 DUP3 ADD MSTORE PUSH22 0x496E7465726E616C2066756E6374696F6E206F6E6C79 PUSH1 0x50 SHL PUSH1 0x40 DUP3 ADD MSTORE PUSH1 0x60 ADD SWAP1 JUMP JUMPDEST PUSH1 0x20 DUP1 DUP3 MSTORE PUSH1 0x15 SWAP1 DUP3 ADD MSTORE PUSH21 0x139BC81A1BDBDAC819185D18481C1C9BDD9A591959 PUSH1 0x5A SHL PUSH1 0x40 DUP3 ADD MSTORE PUSH1 0x60 ADD SWAP1 JUMP JUMPDEST PUSH1 0x20 DUP1 DUP3 MSTORE PUSH1 0xC SWAP1 DUP3 ADD MSTORE PUSH12 0x506F6F6C496E616374697665 PUSH1 0xA0 SHL PUSH1 0x40 DUP3 ADD MSTORE PUSH1 0x60 ADD SWAP1 JUMP JUMPDEST PUSH1 0x20 DUP1 DUP3 MSTORE PUSH1 0xE SWAP1 DUP3 ADD MSTORE PUSH14 0x105B1C9958591E50DB185A5B5959 PUSH1 0x92 SHL PUSH1 0x40 DUP3 ADD MSTORE PUSH1 0x60 ADD SWAP1 JUMP JUMPDEST PUSH1 0x20 DUP1 DUP3 MSTORE PUSH1 0x11 SWAP1 DUP3 ADD MSTORE PUSH17 0x496E73756666696369656E7446756E6473 PUSH1 0x78 SHL PUSH1 0x40 DUP3 ADD MSTORE PUSH1 0x60 ADD SWAP1 JUMP JUMPDEST PUSH1 0x20 DUP1 DUP3 MSTORE PUSH1 0x12 SWAP1 DUP3 ADD MSTORE PUSH18 0x2AB730BABA3437B934BD32B221B0B63632B9 PUSH1 0x71 SHL PUSH1 0x40 DUP3 ADD MSTORE PUSH1 0x60 ADD SWAP1 JUMP JUMPDEST DUP2 MLOAD DUP2 MSTORE PUSH1 0x20 DUP1 DUP4 ADD MLOAD SWAP1 DUP3 ADD MSTORE PUSH1 0x40 DUP1 DUP4 ADD MLOAD PUSH1 0x1 PUSH1 0x1 PUSH1 0xA0 SHL SUB AND SWAP1 DUP3 ADD MSTORE PUSH1 0x60 DUP1 DUP4 ADD MLOAD SWAP1 DUP3 ADD MSTORE PUSH1 0x80 SWAP2 DUP3 ADD MLOAD SWAP2 DUP2 ADD SWAP2 SWAP1 SWAP2 MSTORE PUSH1 0xA0 ADD SWAP1 JUMP JUMPDEST PUSH1 0x0 PUSH1 0x20 DUP3 MSTORE DUP3 MLOAD PUSH1 0x20 DUP4 ADD MSTORE PUSH1 0x1 DUP1 PUSH1 0xA0 SHL SUB PUSH1 0x20 DUP5 ADD MLOAD AND PUSH1 0x40 DUP4 ADD MSTORE PUSH1 0x40 DUP4 ADD MLOAD PUSH1 0x60 DUP4 ADD MSTORE PUSH1 0x60 DUP4 ADD MLOAD PUSH1 0x80 DUP4 ADD MSTORE PUSH1 0x80 DUP4 ADD MLOAD ISZERO ISZERO PUSH1 0xA0 DUP4 ADD MSTORE PUSH4 0xFFFFFFFF PUSH1 0xA0 DUP5 ADD MLOAD AND PUSH1 0xC0 DUP4 ADD MSTORE PUSH1 0xC0 DUP4 ADD MLOAD PUSH1 0xE0 DUP1 DUP5 ADD MSTORE PUSH2 0x12F0 PUSH2 0x100 DUP5 ADD DUP3 PUSH2 0x302F JUMP JUMPDEST PUSH1 0x0 PUSH1 0x20 DUP3 MSTORE DUP3 MLOAD PUSH1 0x20 DUP4 ADD MSTORE PUSH1 0x20 DUP4 ADD MLOAD PUSH2 0x34C6 PUSH1 0x40 DUP5 ADD DUP3 PUSH2 0x3069 JUMP JUMPDEST POP PUSH1 0x40 DUP4 ADD MLOAD PUSH2 0x34D9 PUSH1 0x60 DUP5 ADD DUP3 PUSH2 0x305B JUMP JUMPDEST POP PUSH1 0x60 DUP4 ADD MLOAD PUSH2 0x140 DUP1 PUSH1 0x80 DUP6 ADD MSTORE PUSH2 0x34F6 PUSH2 0x160 DUP6 ADD DUP4 PUSH2 0x302F JUMP JUMPDEST SWAP2 POP PUSH1 0x80 DUP6 ADD MLOAD PUSH1 0xA0 DUP6 ADD MSTORE PUSH1 0xA0 DUP6 ADD MLOAD PUSH1 0xC0 DUP6 ADD MSTORE PUSH1 0xC0 DUP6 ADD MLOAD PUSH1 0xE0 DUP6 ADD MSTORE PUSH1 0xE0 DUP6 ADD MLOAD PUSH2 0x100 DUP2 DUP2 DUP8 ADD MSTORE DUP1 DUP8 ADD MLOAD SWAP2 POP POP PUSH2 0x120 DUP2 DUP2 DUP8 ADD MSTORE DUP1 DUP8 ADD MLOAD SWAP2 POP POP PUSH2 0x3545 DUP3 DUP7 ADD DUP3 PUSH2 0x3029 JUMP JUMPDEST POP SWAP1 SWAP5 SWAP4 POP POP POP POP JUMP JUMPDEST PUSH1 0x0 DUP9 DUP3 MSTORE PUSH1 0x1 DUP1 PUSH1 0xA0 SHL SUB DUP9 AND PUSH1 0x20 DUP4 ADD MSTORE DUP7 PUSH1 0x40 DUP4 ADD MSTORE DUP6 PUSH1 0x60 DUP4 ADD MSTORE DUP5 ISZERO ISZERO PUSH1 0x80 DUP4 ADD MSTORE PUSH4 0xFFFFFFFF DUP5 AND PUSH1 0xA0 DUP4 ADD MSTORE PUSH1 0xE0 PUSH1 0xC0 DUP4 ADD MSTORE PUSH2 0x3596 PUSH1 0xE0 DUP4 ADD DUP5 PUSH2 0x302F JUMP JUMPDEST SWAP10 SWAP9 POP POP POP POP POP POP POP POP POP JUMP JUMPDEST PUSH1 0x0 PUSH2 0x140 DUP13 DUP4 MSTORE PUSH2 0x35B8 PUSH1 0x20 DUP5 ADD DUP14 PUSH2 0x3069 JUMP JUMPDEST PUSH2 0x35C5 PUSH1 0x40 DUP5 ADD DUP13 PUSH2 0x305B JUMP JUMPDEST DUP1 PUSH1 0x60 DUP5 ADD MSTORE PUSH2 0x35D7 DUP2 DUP5 ADD DUP12 PUSH2 0x302F JUMP JUMPDEST PUSH1 0x80 DUP5 ADD SWAP10 SWAP1 SWAP10 MSTORE POP POP PUSH1 0xA0 DUP2 ADD SWAP6 SWAP1 SWAP6 MSTORE PUSH1 0xC0 DUP6 ADD SWAP4 SWAP1 SWAP4 MSTORE PUSH1 0xE0 DUP5 ADD SWAP2 SWAP1 SWAP2 MSTORE PUSH2 0x100 DUP4 ADD MSTORE ISZERO ISZERO PUSH2 0x120 SWAP1 SWAP2 ADD MSTORE SWAP5 SWAP4 POP POP POP POP JUMP JUMPDEST SWAP5 DUP6 MSTORE PUSH1 0x20 DUP6 ADD SWAP4 SWAP1 SWAP4 MSTORE PUSH1 0x1 PUSH1 0x1 PUSH1 0xA0 SHL SUB SWAP2 SWAP1 SWAP2 AND PUSH1 0x40 DUP5 ADD MSTORE PUSH1 0x60 DUP4 ADD MSTORE PUSH1 0x80 DUP3 ADD MSTORE PUSH1 0xA0 ADD SWAP1 JUMP JUMPDEST PUSH1 0x0 DUP7 DUP3 MSTORE DUP6 PUSH1 0x20 DUP4 ADD MSTORE PUSH1 0xA0 PUSH1 0x40 DUP4 ADD MSTORE PUSH2 0x365B PUSH1 0xA0 DUP4 ADD DUP7 PUSH2 0x302F JUMP JUMPDEST PUSH1 0x60 DUP4 ADD SWAP5 SWAP1 SWAP5 MSTORE POP PUSH1 0x80 ADD MSTORE SWAP4 SWAP3 POP POP POP JUMP JUMPDEST PUSH1 0x0 DUP9 DUP3 MSTORE DUP8 PUSH1 0x20 DUP4 ADD MSTORE DUP7 PUSH1 0x40 DUP4 ADD MSTORE PUSH1 0xE0 PUSH1 0x60 DUP4 ADD MSTORE PUSH2 0x3694 PUSH1 0xE0 DUP4 ADD DUP8 PUSH2 0x302F JUMP JUMPDEST PUSH1 0x80 DUP4 ADD DUP7 SWAP1 MSTORE PUSH1 0x1 PUSH1 0x1 PUSH1 0xA0 SHL SUB DUP6 AND PUSH1 0xA0 DUP5 ADD MSTORE DUP3 DUP2 SUB PUSH1 0xC0 DUP5 ADD MSTORE PUSH2 0x36BC DUP2 DUP6 PUSH2 0x302F JUMP JUMPDEST SWAP11 SWAP10 POP POP POP POP POP POP POP POP POP POP JUMP JUMPDEST PUSH1 0x0 PUSH4 0xFFFFFFFF DUP7 AND DUP3 MSTORE DUP5 PUSH1 0x20 DUP4 ADD MSTORE PUSH1 0x60 PUSH1 0x40 DUP4 ADD MSTORE DUP3 PUSH1 0x60 DUP4 ADD MSTORE DUP3 DUP5 PUSH1 0x80 DUP5 ADD CALLDATACOPY DUP2 DUP4 ADD PUSH1 0x80 SWAP1 DUP2 ADD SWAP2 SWAP1 SWAP2 MSTORE PUSH1 0x1F SWAP1 SWAP3 ADD PUSH1 0x1F NOT AND ADD ADD SWAP4 SWAP3 POP POP POP JUMP JUMPDEST PUSH1 0x40 MLOAD DUP2 DUP2 ADD PUSH8 0xFFFFFFFFFFFFFFFF DUP2 GT DUP3 DUP3 LT OR ISZERO PUSH2 0x3729 JUMPI INVALID JUMPDEST PUSH1 0x40 MSTORE SWAP2 SWAP1 POP JUMP JUMPDEST PUSH1 0x0 PUSH8 0xFFFFFFFFFFFFFFFF DUP3 GT ISZERO PUSH2 0x3745 JUMPI INVALID JUMPDEST POP PUSH1 0x1F ADD PUSH1 0x1F NOT AND PUSH1 0x20 ADD SWAP1 JUMP JUMPDEST PUSH1 0x0 JUMPDEST DUP4 DUP2 LT ISZERO PUSH2 0x376E JUMPI DUP2 DUP2 ADD MLOAD DUP4 DUP3 ADD MSTORE PUSH1 0x20 ADD PUSH2 0x3756 JUMP JUMPDEST DUP4 DUP2 GT ISZERO PUSH2 0x1C45 JUMPI POP POP PUSH1 0x0 SWAP2 ADD MSTORE JUMP INVALID 0x4F PUSH24 0x6E61626C653A206E6577206F776E65722069732074686520 PUSH27 0x65726F206164647265737345434453413A20696E76616C69642073 PUSH10 0x676E6174757265202773 0x27 KECCAK256 PUSH23 0x616C7565416464726573733A20696E7375666669636965 PUSH15 0x742062616C616E636520666F722063 PUSH2 0x6C6C 0x2E KECCAK256 COINBASE PUSH21 0x74656D7074656420746F20696E646578206174206F PUSH7 0x66736574203078 GASLIMIT NUMBER DIFFICULTY MSTORE8 COINBASE GASPRICE KECCAK256 PUSH10 0x6E76616C696420736967 PUSH15 0x6174757265202776272076616C7565 0x4F PUSH24 0x6E61626C653A2063616C6C6572206973206E6F7420746865 KECCAK256 PUSH16 0x776E657254797065644D656D56696577 0x2F PUSH10 0x6E646578202D20417474 PUSH6 0x6D7074656420 PUSH21 0x6F20696E646578206D6F7265207468616E20333220 PUSH3 0x797465 PUSH20 0x5361666545524332303A204552433230206F7065 PUSH19 0x6174696F6E20646964206E6F74207375636365 PUSH6 0x645479706564 0x4D PUSH6 0x6D566965772F PUSH4 0x6F707954 PUSH16 0x202D204E756C6C20706F696E74657220 PUSH5 0x6572656654 PUSH26 0x7065644D656D566965772F636F7079546F202D20496E76616C69 PUSH5 0x20706F696E PUSH21 0x657220646572656654797065644D656D566965772F PUSH10 0x6E646578202D204F7665 PUSH19 0x72616E2074686520766965772E20536C696365 KECCAK256 PUSH10 0x73206174203078A26469 PUSH17 0x667358221220697AFABB9A3F967FB47509 0x25 MUL 0xD7 CALLDATALOAD PUSH14 0xCF50E4386B77E6C25346B27ECCB3 MOD 0xE8 PUSH5 0x736F6C6343 STOP SMOD MOD STOP CALLER 0x4F PUSH24 0x6E61626C653A206E6577206F776E65722069732074686520 PUSH27 0x65726F20616464726573738BE0079C531659141344CD1FD0A4F284 NOT 0x49 PUSH32 0x9722A3DAAFE3B4186F6B6457E000000000000000000000000000000000000000 "},"methodIdentifiers":{"DOMAIN_SEPARATOR()":"3644e515","VERIFICATION_MESSAGE_TYPEHASH()":"e1a788eb","_processCrossChainDonation(uint32,bytes32,bytes)":"db5e4c75","adminAddress()":"fc6f9468","cctpMessageTransmitter()":"8c73eb04","checkPersonClaimedFromPool(uint256,uint256)":"24c872ed","claimRelief(uint256,uint256,uint256,string,uint256,address,bytes)":"82e15e51","claimReliefToSelf(uint256,uint256,uint256,string,uint256,bytes)":"a8f7f995","createReliefPool(uint8,uint8,string,uint256)":"8b29caf5","donate(uint256,uint256,string)":"16c3cdf5","emergencyWithdraw(uint256)":"5312ea8e","getBeneficiary(uint256,address)":"06cc759b","getContractBalance()":"6f9fb98a","getDonor(uint256,address)":"d0e5a743","getPersonClaimedPools(uint256)":"7332cec4","getReliefPool(uint256)":"8e09727e","getTotalPools()":"d3ffe67a","handleReceiveFinalizedMessage(uint32,bytes32,uint32,bytes)":"11cffb67","handleReceiveUnfinalizedMessage(uint32,bytes32,uint32,bytes)":"7c92f219","hasPersonClaimedFromPool(uint256,uint256)":"3b121902","owner()":"8da5cb5b","personClaimedPools(uint256,uint256)":"feb16532","poolBeneficiaries(uint256,address)":"59b3c2d8","poolCounter()":"9e3079cb","poolDonors(uint256,address)":"f594dbf4","reliefPools(uint256)":"19c2799f","renounceOwnership()":"715018a6","setCCTPMessageTransmitter(address)":"d9db6e03","togglePoolStatus(uint256)":"216b31c1","transferOwnership(address)":"f2fde38b","usdcToken()":"11eac855","verifyAdminSignature(address,uint256,uint256,string,uint256,bytes)":"29d9b720"}}}}}