{"contracts/ReliefPools.sol":{"ReliefPools":{"abi":[{"inputs":[{"internalType":"address","name":"_adminAddress","type":"address"},{"internalType":"address","name":"_usdcToken","type":"address"},{"internalType":"address","name":"_cctpMessageTransmitter","type":"address"}],"stateMutability":"nonpayable","type":"constructor"},{"anonymous":false,"inputs":[{"indexed":true,"internalType":"uint256","name":"poolId","type":"uint256"},{"indexed":true,"internalType":"address","name":"donor","type":"address"},{"indexed":false,"internalType":"uint32","name":"sourceDomain","type":"uint32"},{"indexed":false,"internalType":"uint256","name":"amount","type":"uint256"},{"indexed":false,"internalType":"uint256","name":"timestamp","type":"uint256"},{"indexed":false,"internalType":"string","name":"location","type":"string"}],"name":"DonationMade","type":"event"},{"anonymous":false,"inputs":[{"indexed":true,"internalType":"uint256","name":"poolId","type":"uint256"},{"indexed":true,"internalType":"address","name":"claimer","type":"address"},{"indexed":true,"internalType":"address","name":"recipient","type":"address"},{"indexed":false,"internalType":"uint256","name":"nullifier","type":"uint256"},{"indexed":false,"internalType":"uint256","name":"userIdentifier","type":"uint256"},{"indexed":false,"internalType":"string","name":"nationality","type":"string"},{"indexed":false,"internalType":"uint256","name":"amount","type":"uint256"},{"indexed":false,"internalType":"uint256","name":"timestamp","type":"uint256"}],"name":"FundsClaimed","type":"event"},{"anonymous":false,"inputs":[{"indexed":true,"internalType":"address","name":"previousOwner","type":"address"},{"indexed":true,"internalType":"address","name":"newOwner","type":"address"}],"name":"OwnershipTransferred","type":"event"},{"anonymous":false,"inputs":[{"indexed":true,"internalType":"uint256","name":"poolId","type":"uint256"},{"indexed":false,"internalType":"bool","name":"isActive","type":"bool"}],"name":"PoolStatusChanged","type":"event"},{"anonymous":false,"inputs":[{"indexed":true,"internalType":"uint256","name":"poolId","type":"uint256"},{"indexed":false,"internalType":"enum ReliefPools.DisasterTypeEnum","name":"disasterType","type":"uint8"},{"indexed":false,"internalType":"enum ReliefPools.ClassificationEnum","name":"classification","type":"uint8"},{"indexed":false,"internalType":"string","name":"nationalityRequired","type":"string"},{"indexed":false,"internalType":"uint256","name":"allocatedFundsPerPerson","type":"uint256"}],"name":"ReliefPoolCreated","type":"event"},{"inputs":[],"name":"DOMAIN_SEPARATOR","outputs":[{"internalType":"bytes32","name":"","type":"bytes32"}],"stateMutability":"view","type":"function"},{"inputs":[],"name":"VERIFICATION_MESSAGE_TYPEHASH","outputs":[{"internalType":"bytes32","name":"","type":"bytes32"}],"stateMutability":"view","type":"function"},{"inputs":[{"internalType":"uint32","name":"sourceDomain","type":"uint32"},{"internalType":"bytes32","name":"sender","type":"bytes32"},{"internalType":"bytes","name":"messageBody","type":"bytes"}],"name":"_processCrossChainDonation","outputs":[],"stateMutability":"nonpayable","type":"function"},{"inputs":[],"name":"adminAddress","outputs":[{"internalType":"address","name":"","type":"address"}],"stateMutability":"view","type":"function"},{"inputs":[],"name":"cctpMessageTransmitter","outputs":[{"internalType":"address","name":"","type":"address"}],"stateMutability":"view","type":"function"},{"inputs":[{"internalType":"uint256","name":"poolId","type":"uint256"},{"internalType":"uint256","name":"nullifier","type":"uint256"},{"internalType":"uint256","name":"userIdentifier","type":"uint256"}],"name":"checkPersonClaimedFromPool","outputs":[{"internalType":"bool","name":"","type":"bool"}],"stateMutability":"view","type":"function"},{"inputs":[{"internalType":"uint256","name":"poolId","type":"uint256"},{"internalType":"uint256","name":"nullifier","type":"uint256"},{"internalType":"uint256","name":"userIdentifier","type":"uint256"},{"internalType":"string","name":"nationality","type":"string"},{"internalType":"uint256","name":"timestamp","type":"uint256"},{"internalType":"address","name":"recipient","type":"address"},{"internalType":"bytes","name":"adminSignature","type":"bytes"}],"name":"claimRelief","outputs":[],"stateMutability":"nonpayable","type":"function"},{"inputs":[{"internalType":"uint256","name":"poolId","type":"uint256"},{"internalType":"uint256","name":"nullifier","type":"uint256"},{"internalType":"uint256","name":"userIdentifier","type":"uint256"},{"internalType":"string","name":"nationality","type":"string"},{"internalType":"uint256","name":"timestamp","type":"uint256"},{"internalType":"bytes","name":"adminSignature","type":"bytes"}],"name":"claimReliefToSelf","outputs":[],"stateMutability":"nonpayable","type":"function"},{"inputs":[{"internalType":"enum ReliefPools.DisasterTypeEnum","name":"disasterType","type":"uint8"},{"internalType":"enum ReliefPools.ClassificationEnum","name":"classification","type":"uint8"},{"internalType":"string","name":"nationalityRequired","type":"string"},{"internalType":"uint256","name":"allocatedFundsPerPerson","type":"uint256"}],"name":"createReliefPool","outputs":[{"internalType":"uint256","name":"","type":"uint256"}],"stateMutability":"nonpayable","type":"function"},{"inputs":[{"internalType":"uint256","name":"poolId","type":"uint256"},{"internalType":"uint256","name":"amount","type":"uint256"},{"internalType":"string","name":"location","type":"string"}],"name":"donate","outputs":[],"stateMutability":"nonpayable","type":"function"},{"inputs":[{"internalType":"uint256","name":"amount","type":"uint256"}],"name":"emergencyWithdraw","outputs":[],"stateMutability":"nonpayable","type":"function"},{"inputs":[{"internalType":"uint256","name":"poolId","type":"uint256"},{"internalType":"address","name":"beneficiary","type":"address"}],"name":"getBeneficiary","outputs":[{"components":[{"internalType":"uint256","name":"nullifier","type":"uint256"},{"internalType":"uint256","name":"userIdentifier","type":"uint256"},{"internalType":"address","name":"walletAddress","type":"address"},{"internalType":"uint256","name":"amount","type":"uint256"},{"internalType":"uint256","name":"timestamp","type":"uint256"}],"internalType":"struct ReliefPools.Beneficiary","name":"","type":"tuple"}],"stateMutability":"view","type":"function"},{"inputs":[],"name":"getContractBalance","outputs":[{"internalType":"uint256","name":"","type":"uint256"}],"stateMutability":"view","type":"function"},{"inputs":[{"internalType":"uint256","name":"poolId","type":"uint256"},{"internalType":"address","name":"donor","type":"address"}],"name":"getDonor","outputs":[{"components":[{"internalType":"uint256","name":"id","type":"uint256"},{"internalType":"address","name":"walletAddress","type":"address"},{"internalType":"uint256","name":"amount","type":"uint256"},{"internalType":"uint256","name":"timestamp","type":"uint256"},{"internalType":"bool","name":"isCrossChain","type":"bool"},{"internalType":"uint32","name":"sourceDomain","type":"uint32"},{"internalType":"string","name":"location","type":"string"}],"internalType":"struct ReliefPools.Donor","name":"","type":"tuple"}],"stateMutability":"view","type":"function"},{"inputs":[{"internalType":"uint256","name":"nullifier","type":"uint256"},{"internalType":"uint256","name":"userIdentifier","type":"uint256"}],"name":"getPersonClaimedPools","outputs":[{"internalType":"uint256[]","name":"","type":"uint256[]"}],"stateMutability":"view","type":"function"},{"inputs":[{"internalType":"uint256","name":"poolId","type":"uint256"}],"name":"getReliefPool","outputs":[{"components":[{"internalType":"uint256","name":"id","type":"uint256"},{"internalType":"enum ReliefPools.DisasterTypeEnum","name":"disasterType","type":"uint8"},{"internalType":"enum ReliefPools.ClassificationEnum","name":"classification","type":"uint8"},{"internalType":"string","name":"nationalityRequired","type":"string"},{"internalType":"uint256","name":"allocatedFundsPerPerson","type":"uint256"},{"internalType":"uint256","name":"totalBeneficiaries","type":"uint256"},{"internalType":"uint256","name":"totalDonors","type":"uint256"},{"internalType":"uint256","name":"totalAmountClaimed","type":"uint256"},{"internalType":"uint256","name":"totalAmountDonated","type":"uint256"},{"internalType":"bool","name":"isActive","type":"bool"}],"internalType":"struct ReliefPools.ReliefPool","name":"","type":"tuple"}],"stateMutability":"view","type":"function"},{"inputs":[],"name":"getTotalPools","outputs":[{"internalType":"uint256","name":"","type":"uint256"}],"stateMutability":"view","type":"function"},{"inputs":[{"internalType":"uint32","name":"sourceDomain","type":"uint32"},{"internalType":"bytes32","name":"sender","type":"bytes32"},{"internalType":"uint32","name":"finalityThresholdExecuted","type":"uint32"},{"internalType":"bytes","name":"messageBody","type":"bytes"}],"name":"handleReceiveFinalizedMessage","outputs":[{"internalType":"bool","name":"","type":"bool"}],"stateMutability":"nonpayable","type":"function"},{"inputs":[{"internalType":"uint32","name":"sourceDomain","type":"uint32"},{"internalType":"bytes32","name":"sender","type":"bytes32"},{"internalType":"uint32","name":"finalityThresholdExecuted","type":"uint32"},{"internalType":"bytes","name":"messageBody","type":"bytes"}],"name":"handleReceiveUnfinalizedMessage","outputs":[{"internalType":"bool","name":"","type":"bool"}],"stateMutability":"nonpayable","type":"function"},{"inputs":[{"internalType":"uint256","name":"","type":"uint256"},{"internalType":"uint256","name":"","type":"uint256"}],"name":"hasPersonClaimedFromPool","outputs":[{"internalType":"bool","name":"","type":"bool"}],"stateMutability":"view","type":"function"},{"inputs":[],"name":"owner","outputs":[{"internalType":"address","name":"","type":"address"}],"stateMutability":"view","type":"function"},{"inputs":[{"internalType":"uint256","name":"","type":"uint256"},{"internalType":"uint256","name":"","type":"uint256"}],"name":"personClaimedPools","outputs":[{"internalType":"uint256","name":"","type":"uint256"}],"stateMutability":"view","type":"function"},{"inputs":[{"internalType":"uint256","name":"","type":"uint256"},{"internalType":"address","name":"","type":"address"}],"name":"poolBeneficiaries","outputs":[{"internalType":"uint256","name":"nullifier","type":"uint256"},{"internalType":"uint256","name":"userIdentifier","type":"uint256"},{"internalType":"address","name":"walletAddress","type":"address"},{"internalType":"uint256","name":"amount","type":"uint256"},{"internalType":"uint256","name":"timestamp","type":"uint256"}],"stateMutability":"view","type":"function"},{"inputs":[],"name":"poolCounter","outputs":[{"internalType":"uint256","name":"","type":"uint256"}],"stateMutability":"view","type":"function"},{"inputs":[{"internalType":"uint256","name":"","type":"uint256"},{"internalType":"address","name":"","type":"address"}],"name":"poolDonors","outputs":[{"internalType":"uint256","name":"id","type":"uint256"},{"internalType":"address","name":"walletAddress","type":"address"},{"internalType":"uint256","name":"amount","type":"uint256"},{"internalType":"uint256","name":"timestamp","type":"uint256"},{"internalType":"bool","name":"isCrossChain","type":"bool"},{"internalType":"uint32","name":"sourceDomain","type":"uint32"},{"internalType":"string","name":"location","type":"string"}],"stateMutability":"view","type":"function"},{"inputs":[{"internalType":"uint256","name":"","type":"uint256"}],"name":"reliefPools","outputs":[{"internalType":"uint256","name":"id","type":"uint256"},{"internalType":"enum ReliefPools.DisasterTypeEnum","name":"disasterType","type":"uint8"},{"internalType":"enum ReliefPools.ClassificationEnum","name":"classification","type":"uint8"},{"internalType":"string","name":"nationalityRequired","type":"string"},{"internalType":"uint256","name":"allocatedFundsPerPerson","type":"uint256"},{"internalType":"uint256","name":"totalBeneficiaries","type":"uint256"},{"internalType":"uint256","name":"totalDonors","type":"uint256"},{"internalType":"uint256","name":"totalAmountClaimed","type":"uint256"},{"internalType":"uint256","name":"totalAmountDonated","type":"uint256"},{"internalType":"bool","name":"isActive","type":"bool"}],"stateMutability":"view","type":"function"},{"inputs":[],"name":"renounceOwnership","outputs":[],"stateMutability":"nonpayable","type":"function"},{"inputs":[{"internalType":"address","name":"_cctpMessageTransmitter","type":"address"}],"name":"setCCTPMessageTransmitter","outputs":[],"stateMutability":"nonpayable","type":"function"},{"inputs":[{"internalType":"uint256","name":"poolId","type":"uint256"}],"name":"togglePoolStatus","outputs":[],"stateMutability":"nonpayable","type":"function"},{"inputs":[{"internalType":"address","name":"newOwner","type":"address"}],"name":"transferOwnership","outputs":[],"stateMutability":"nonpayable","type":"function"},{"inputs":[],"name":"usdcToken","outputs":[{"internalType":"contract IERC20","name":"","type":"address"}],"stateMutability":"view","type":"function"},{"inputs":[{"internalType":"address","name":"userAddress","type":"address"},{"internalType":"uint256","name":"nullifier","type":"uint256"},{"internalType":"uint256","name":"userIdentifier","type":"uint256"},{"internalType":"string","name":"nationality","type":"string"},{"internalType":"uint256","name":"timestamp","type":"uint256"},{"internalType":"bytes","name":"adminSignature","type":"bytes"}],"name":"verifyAdminSignature","outputs":[{"internalType":"bool","name":"","type":"bool"}],"stateMutability":"view","type":"function"}],"evm":{"bytecode":{"linkReferences":{},"object":"60c06040523480156200001157600080fd5b5060405162003dd438038062003dd48339810160408190526200003491620002d5565b6000620000406200019b565b600080546001600160a01b0319166001600160a01b03831690811782556040519293509160008051602062003db4833981519152908290a350600180546001600160a01b038086166001600160a01b0319928316179092556001600160601b0319606085901b166080526002805492841692909116919091179055620000c6336200019f565b604080518082018252600b81526a52656c696566506f6f6c7360a81b6020918201528151808301835260018152603160f81b90820152905162000176917f8b73c3c69bb8fe3d512ecc4cf759cc79239f7b179b0ffacaa9a75d522b39400f917f3323a8070b7081e28ca423d850c49e17147e941af41daf0ad176ecf1a5481b67917fc89efdaa54c0f20c7adf612882df0950f5a951637e0307cdcb4c672f298b8bc691612105913091016200031e565b60408051601f19818403018152919052805160209091012060a052506200034e915050565b3390565b620001a96200019b565b6001600160a01b0316620001bc620002a9565b6001600160a01b03161462000218576040805162461bcd60e51b815260206004820181905260248201527f4f776e61626c653a2063616c6c6572206973206e6f7420746865206f776e6572604482015290519081900360640190fd5b6001600160a01b0381166200025f5760405162461bcd60e51b815260040180806020018281038252602681526020018062003d8e6026913960400191505060405180910390fd5b600080546040516001600160a01b038085169392169160008051602062003db483398151915291a3600080546001600160a01b0319166001600160a01b0392909216919091179055565b6000546001600160a01b031690565b80516001600160a01b0381168114620002d057600080fd5b919050565b600080600060608486031215620002ea578283fd5b620002f584620002b8565b92506200030560208501620002b8565b91506200031560408501620002b8565b90509250925092565b9485526020850193909352604084019190915261ffff1660608301526001600160a01b0316608082015260a00190565b60805160601c60a0516139fb620003936000398061095f5280611cd85250806104ff52806105a95280610a145280610a9e5280610e04528061100952506139fb6000f3fe608060405234801561001057600080fd5b50600436106101f05760003560e01c80638b29caf51161010f578063d9db6e03116100a2578063f2fde38b11610071578063f2fde38b14610433578063f594dbf414610446578063fc6f94681461046c578063feb1653214610474576101f0565b8063d9db6e03146103f2578063db5e4c7514610405578063e1a788eb14610418578063ef20c85a14610420576101f0565b80639e3079cb116100de5780639e3079cb146103af578063a8f7f995146103b7578063d0e5a743146103ca578063d3ffe67a146103ea576101f0565b80638b29caf51461036c5780638c73eb041461037f5780638da5cb5b146103875780638e09727e1461038f576101f0565b80633b12190211610187578063715018a611610156578063715018a61461031e57806373aacb00146103265780637c92f2191461034657806382e15e5114610359576101f0565b80633b121902146102cc5780635312ea8e146102df57806359b3c2d8146102f25780636f9fb98a14610316576101f0565b806319c2799f116101c357806319c2799f14610268578063216b31c11461029157806329d9b720146102a45780633644e515146102b7576101f0565b806306cc759b146101f557806311cffb671461021e57806311eac8551461023e57806316c3cdf514610253575b600080fd5b610208610203366004612d8c565b610487565b6040516102159190613449565b60405180910390f35b61023161022c366004613004565b6104f1565b604051610215919061319e565b6102466104fd565b6040516102159190613146565b610266610261366004612e57565b610521565b005b61027b610276366004612d5c565b610778565b6040516102159a999897969594939291906135eb565b61026661029f366004612d5c565b61085d565b6102316102b2366004612c61565b610942565b6102bf61095d565b60405161021591906131a9565b6102316102da366004612e36565b610981565b6102666102ed366004612d5c565b6109a1565b610305610300366004612d8c565b610a40565b604051610215959493929190613658565b6102bf610a84565b610266610b28565b610339610334366004612e36565b610bd4565b604051610215919061315a565b610231610354366004613004565b610c37565b610266610367366004612ed0565b610ccc565b6102bf61037a366004612cee565b61109f565b6102466112d8565b6102466112e7565b6103a261039d366004612d5c565b6112f6565b60405161021591906134ef565b6102bf61144d565b6102666103c5366004612f68565b611453565b6103dd6103d8366004612d8c565b6114bc565b6040516102159190613487565b6102bf6115d1565b610266610400366004612c47565b6115d7565b610266610413366004612fac565b61165b565b6102bf6119a6565b61023161042e366004612ea5565b6119ca565b610266610441366004612c47565b6119ef565b610459610454366004612d8c565b611af1565b6040516102159796959493929190613597565b610246611bd3565b6102bf610482366004612e36565b611be2565b61048f612a07565b5060009182526005602090815260408084206001600160a01b039384168552825292839020835160a081018552815481526001820154928101929092526002810154909216928101929092526003810154606083015260040154608082015290565b60015b95945050505050565b7f000000000000000000000000000000000000000000000000000000000000000081565b6000838152600460205260409020805484146105585760405162461bcd60e51b815260040161054f90613320565b60405180910390fd5b600881015460ff1661057c5760405162461bcd60e51b815260040161054f906133a4565b6000831161059c5760405162461bcd60e51b815260040161054f906132cf565b6105d16001600160a01b037f000000000000000000000000000000000000000000000000000000000000000016333086611c13565b80600501600081548092919060010191905055508281600701600082825401925050819055506040518060e0016040528082600501548152602001336001600160a01b03168152602001848152602001428152602001600015158152602001600663ffffffff16815260200183815250600660008681526020019081526020016000206000336001600160a01b03166001600160a01b031681526020019081526020016000206000820151816000015560208201518160010160006101000a8154816001600160a01b0302191690836001600160a01b03160217905550604082015181600201556060820151816003015560808201518160040160006101000a81548160ff02191690831515021790555060a08201518160040160016101000a81548163ffffffff021916908363ffffffff16021790555060c0820151816005019080519060200190610725929190612a3f565b50905050336001600160a01b0316847f743501122ba2cd9590984350a2076553271a243e2b9de8617a802d7c7af7d301600686428760405161076a9493929190613221565b60405180910390a350505050565b60046020908152600091825260409182902080546001808301546002808501805488516101009582161586026000190190911692909204601f8101889004880283018801909852878252939660ff8084169794909304909216949390929091908301828280156108295780601f106107fe57610100808354040283529160200191610829565b820191906000526020600020905b81548152906001019060200180831161080c57829003601f168201915b5050506003840154600485015460058601546006870154600788015460089098015496979396929550909350919060ff168a565b610865611c73565b6001600160a01b03166108766112e7565b6001600160a01b0316146108bf576040805162461bcd60e51b815260206004820181905260248201526000805160206138ba833981519152604482015290519081900360640190fd5b6000818152600460205260409020805482146108ed5760405162461bcd60e51b815260040161054f90613320565b60088101805460ff19811660ff91821615179182905560405184927fb3c3c605d1520cd5bf41301dd5c04929e0ff021b02a10ea259b5a5b2d521a29c926109369291169061319e565b60405180910390a25050565b6000610952878787878787611c77565b979650505050505050565b7f000000000000000000000000000000000000000000000000000000000000000081565b600760209081526000928352604080842090915290825290205460ff1681565b6109a9611c73565b6001600160a01b03166109ba6112e7565b6001600160a01b031614610a03576040805162461bcd60e51b815260206004820181905260248201526000805160206138ba833981519152604482015290519081900360640190fd5b600154610a3d906001600160a01b037f00000000000000000000000000000000000000000000000000000000000000008116911683611d4e565b50565b600560209081526000928352604080842090915290825290208054600182015460028301546003840154600490940154929391926001600160a01b03909116919085565b6040516370a0823160e01b81526000906001600160a01b037f000000000000000000000000000000000000000000000000000000000000000016906370a0823190610ad3903090600401613146565b60206040518083038186803b158015610aeb57600080fd5b505afa158015610aff573d6000803e3d6000fd5b505050506040513d601f19601f82011682018060405250810190610b239190612d74565b905090565b610b30611c73565b6001600160a01b0316610b416112e7565b6001600160a01b031614610b8a576040805162461bcd60e51b815260206004820181905260248201526000805160206138ba833981519152604482015290519081900360640190fd5b600080546040516001600160a01b03909116907f8be0079c531659141344cd1fd0a4f28419497f9722a3daafe3b4186f6b6457e0908390a3600080546001600160a01b0319169055565b600081815260086020908152604091829020805483518184028101840190945280845260609392830182828015610c2a57602002820191906000526020600020905b815481526020019060010190808311610c16575b5050505050905092915050565b6002546000906001600160a01b03163314610c645760405162461bcd60e51b815260040161054f9061341d565b60405163db5e4c7560e01b8152309063db5e4c7590610c8d908990899088908890600401613712565b600060405180830381600087803b158015610ca757600080fd5b505af1925050508015610cb8575060015b610cc4575060006104f4565b5060016104f4565b600087815260046020526040902080548814610cfa5760405162461bcd60e51b815260040161054f90613320565b600881015460ff16610d1e5760405162461bcd60e51b815260040161054f906133a4565b600088815260076020908152604080832089845290915290205460ff1615610d585760405162461bcd60e51b815260040161054f906133ca565b6001600160a01b038316610d7e5760405162461bcd60e51b815260040161054f906132f6565b80600201604051610d8f91906130bb565b6040518091039020858051906020012014610dbc5760405162461bcd60e51b815260040161054f9061324c565b610dca338888888887611c77565b610de65760405162461bcd60e51b815260040161054f90613279565b60038101546040516370a0823160e01b815281906001600160a01b037f000000000000000000000000000000000000000000000000000000000000000016906370a0823190610e39903090600401613146565b60206040518083038186803b158015610e5157600080fd5b505afa158015610e65573d6000803e3d6000fd5b505050506040513d601f19601f82011682018060405250810190610e899190612d74565b1015610ea75760405162461bcd60e51b815260040161054f906133f2565b81600401600081548092919060010191905055508082600601600082825401925050819055506040518060a00160405280898152602001888152602001856001600160a01b0316815260200182815260200142815250600560008b81526020019081526020016000206000866001600160a01b03166001600160a01b03168152602001908152602001600020600082015181600001556020820151816001015560408201518160020160006101000a8154816001600160a01b0302191690836001600160a01b0316021790555060608201518160030155608082015181600401559050506001600760008b8152602001908152602001600020600089815260200190815260200160002060006101000a81548160ff0219169083151502179055506008600088815260200190815260200160002089908060018154018082558091505060019003906000526020600020016000909190919091505561104084827f00000000000000000000000000000000000000000000000000000000000000006001600160a01b0316611d4e9092919063ffffffff16565b836001600160a01b0316336001600160a01b03168a7f5f6d78d5d398fbde6899ed8b8490a27ae6f7910869243d2a50b6d94b71c6ca2b8b8b8b874260405161108c959493929190613684565b60405180910390a4505050505050505050565b60006110a9611c73565b6001600160a01b03166110ba6112e7565b6001600160a01b031614611103576040805162461bcd60e51b815260206004820181905260248201526000805160206138ba833981519152604482015290519081900360640190fd5b60008351116111245760405162461bcd60e51b815260040161054f906132a3565b600082116111445760405162461bcd60e51b815260040161054f906132cf565b6003805460018101825560408051610140810190915281815290916020820190889081111561116f57fe5b815260200186600181111561118057fe5b81526020018581526020018481526020016000815260200160008152602001600081526020016000815260200160011515815250600460008381526020019081526020016000206000820151816000015560208201518160010160006101000a81548160ff021916908360038111156111f557fe5b021790555060408201518160010160016101000a81548160ff0219169083600181111561121e57fe5b02179055506060820151805161123e916002840191602090910190612a3f565b506080820151600382015560a0820151600482015560c0820151600582015560e082015160068201556101008201516007820155610120909101516008909101805460ff191691151591909117905560405181907fa359134b476f4b3e621ad56f265a9173e1d6890866fc0250caa7e37f2b55f60c906112c59089908990899089906131e3565b60405180910390a290505b949350505050565b6002546001600160a01b031681565b6000546001600160a01b031690565b6112fe612acb565b60008281526004602090815260409182902082516101408101909352805483526001810154909183019060ff16600381111561133657fe5b600381111561134157fe5b81526020016001820160019054906101000a900460ff16600181111561136357fe5b600181111561136e57fe5b8152600282810180546040805160206001841615610100026000190190931694909404601f810183900483028501830190915280845293810193908301828280156113fa5780601f106113cf576101008083540402835291602001916113fa565b820191906000526020600020905b8154815290600101906020018083116113dd57829003601f168201915b505050918352505060038201546020820152600482015460408201526005820154606082015260068201546080820152600782015460a082015260089091015460ff16151560c09091015290505b919050565b60035481565b6040516382e15e5160e01b815230906382e15e5190611482908990899089908990899033908a906004016136b7565b600060405180830381600087803b15801561149c57600080fd5b505af11580156114b0573d6000803e3d6000fd5b50505050505050505050565b6114c4612b21565b60008381526006602090815260408083206001600160a01b03868116855290835292819020815160e08101835281548152600180830154909516818501526002808301548285015260038301546060830152600483015460ff8116151560808401526101009081900463ffffffff1660a08401526005840180548651988116159092026000190190911691909104601f81018690048602870186019094528386529094919360c0860193908301828280156115c05780601f10611595576101008083540402835291602001916115c0565b820191906000526020600020905b8154815290600101906020018083116115a357829003601f168201915b505050505081525050905092915050565b60035490565b6115df611c73565b6001600160a01b03166115f06112e7565b6001600160a01b031614611639576040805162461bcd60e51b815260206004820181905260248201526000805160206138ba833981519152604482015290519081900360640190fd5b600280546001600160a01b0319166001600160a01b0392909216919091179055565b33301461167a5760405162461bcd60e51b815260040161054f90613345565b60006116c0600084848080601f0160208091040260200160405190810160405280939291908181526020018383808284376000920191909152509293925050611da59050565b90506116d162ffffff198216611dc0565b60006116e262ffffff198316611e81565b905060006116f562ffffff198316611eb9565b6001600160601b03161161171b5760405162461bcd60e51b815260040161054f90613375565b600061172c62ffffff198316611ec8565b9050600080828060200190518101906117459190612db7565b91509150600061175a8662ffffff1916611f07565b6000848152600460205260409020805491925090841461178c5760405162461bcd60e51b815260040161054f90613320565b600881015460ff166117b05760405162461bcd60e51b815260040161054f906133a4565b600082116117d05760405162461bcd60e51b815260040161054f906132cf565b806005016000815480929190600101919050555081816007016000828254019250508190555060008a60001c90506040518060e0016040528083600501548152602001826001600160a01b031681526020018481526020014281526020016001151581526020018d63ffffffff1681526020016040518060400160405280600b81526020016a31b937b9b996b1b430b4b760a91b815250815250600660008781526020019081526020016000206000836001600160a01b03166001600160a01b031681526020019081526020016000206000820151816000015560208201518160010160006101000a8154816001600160a01b0302191690836001600160a01b03160217905550604082015181600201556060820151816003015560808201518160040160006101000a81548160ff02191690831515021790555060a08201518160040160016101000a81548163ffffffff021916908363ffffffff16021790555060c082015181600501908051906020019061194e929190612a3f565b50905050806001600160a01b0316857f743501122ba2cd9590984350a2076553271a243e2b9de8617a802d7c7af7d3018e864260405161199093929190613755565b60405180910390a3505050505050505050505050565b7f8db8d84faf8b2365d4ffd175c1a5bf60a3c3bb8fd65fb126c9bbc39786d11da781565b600083815260076020908152604080832084845290915290205460ff165b9392505050565b6119f7611c73565b6001600160a01b0316611a086112e7565b6001600160a01b031614611a51576040805162461bcd60e51b815260206004820181905260248201526000805160206138ba833981519152604482015290519081900360640190fd5b6001600160a01b038116611a965760405162461bcd60e51b81526004018080602001828103825260268152602001806138096026913960400191505060405180910390fd5b600080546040516001600160a01b03808516939216917f8be0079c531659141344cd1fd0a4f28419497f9722a3daafe3b4186f6b6457e091a3600080546001600160a01b0319166001600160a01b0392909216919091179055565b60066020908152600092835260408084208252918352918190208054600180830154600280850154600386015460048701546005880180548a516101009882161589026000190190911695909504601f81018c90048c0286018c01909a5289855296996001600160a01b03909516989297919660ff82169690910463ffffffff16949193929091830182828015611bc95780601f10611b9e57610100808354040283529160200191611bc9565b820191906000526020600020905b815481529060010190602001808311611bac57829003601f168201915b5050505050905087565b6001546001600160a01b031681565b60086020528160005260406000208181548110611bfe57600080fd5b90600052602060002001600091509150505481565b604080516001600160a01b0380861660248301528416604482015260648082018490528251808303909101815260849091019091526020810180516001600160e01b03166323b872dd60e01b179052611c6d908590611f18565b50505050565b3390565b6000807f8db8d84faf8b2365d4ffd175c1a5bf60a3c3bb8fd65fb126c9bbc39786d11da7888888888051906020012088604051602001611cbc969594939291906131b2565b60405160208183030381529060405280519060200120905060007f000000000000000000000000000000000000000000000000000000000000000082604051602001611d0992919061312b565b60408051601f19818403018152919052805160209091012090506000611d2f8286611fc9565b6001546001600160a01b039081169116149a9950505050505050505050565b604080516001600160a01b038416602482015260448082018490528251808303909101815260649091019091526020810180516001600160e01b031663a9059cbb60e01b179052611da0908490611f18565b505050565b8151600090602084016104f464ffffffffff85168284612049565b611dcf62ffffff198216612083565b611e14576040805162461bcd60e51b81526020600482015260116024820152704d616c666f726d6564206d65737361676560781b604482015290519081900360640190fd5b60e4611e2562ffffff198316611eb9565b6001600160601b03161015610a3d576040805162461bcd60e51b815260206004820152601f60248201527f496e76616c6964206275726e206d6573736167653a20746f6f2073686f727400604482015290519081900360640190fd5b6000611eb360e480611e9862ffffff198616611eb9565b62ffffff19861692916001600160601b0391031660006120c0565b92915050565b60181c6001600160601b031690565b6060600080611ed684611eb9565b6001600160601b031690506040519150819250611ef68483602001612125565b508181016020016040529052919050565b6000611eb362ffffff198316612256565b6000611f6d826040518060400160405280602081526020017f5361666545524332303a206c6f772d6c6576656c2063616c6c206661696c6564815250856001600160a01b031661226b9092919063ffffffff16565b805190915015611da057808060200190516020811015611f8c57600080fd5b5051611da05760405162461bcd60e51b815260040180806020018281038252602a815260200180613914602a913960400191505060405180910390fd5b60008151604114612021576040805162461bcd60e51b815260206004820152601f60248201527f45434453413a20696e76616c6964207369676e6174757265206c656e67746800604482015290519081900360640190fd5b60208201516040830151606084015160001a61203f8682858561227a565b9695505050505050565b60008061205684846123ef565b9050604051811115612066575060005b806120785762ffffff199150506119e8565b6104f4858585612449565b600061208e8261245c565b64ffffffffff1664ffffffffff14156120a957506000611448565b60006120b483612462565b60405110159392505050565b6000806120cc86612487565b6001600160601b031690506120e086612462565b6120f4856120ee84896123ef565b906123ef565b11156121075762ffffff199150506112d0565b61211181866123ef565b905061203f8364ffffffffff168286612049565b600061213083612496565b61216b5760405162461bcd60e51b815260040180806020018281038252602881526020018061393e6028913960400191505060405180910390fd5b61217483612083565b6121af5760405162461bcd60e51b815260040180806020018281038252602b815260200180613966602b913960400191505060405180910390fd5b60006121ba84611eb9565b6001600160601b0316905060006121d085612487565b6001600160601b031690506000806040519150858211156121f15760206060fd5b8386858560045afa90508061223c576040805162461bcd60e51b815260206004820152600c60248201526b6964656e74697479204f4f4760a01b604482015290519081900360640190fd5b6109526122488861245c565b64ffffffffff168786612449565b6000611eb362ffffff198316604460206124a8565b60606112d084846000856124c9565b60007f7fffffffffffffffffffffffffffffff5d576e7357a4501ddfe92f46681b20a08211156122db5760405162461bcd60e51b815260040180806020018281038252602281526020018061382f6022913960400191505060405180910390fd5b8360ff16601b14806122f057508360ff16601c145b61232b5760405162461bcd60e51b81526004018080602001828103825260228152602001806138986022913960400191505060405180910390fd5b600060018686868660405160008152602001604052604051808581526020018460ff1681526020018381526020018281526020019450505050506020604051602081039080840390855afa158015612387573d6000803e3d6000fd5b5050604051601f1901519150506001600160a01b0381166104f4576040805162461bcd60e51b815260206004820152601860248201527f45434453413a20696e76616c6964207369676e61747572650000000000000000604482015290519081900360640190fd5b6000828201838110156119e8576040805162461bcd60e51b815260206004820152601b60248201527f536166654d6174683a206164646974696f6e206f766572666c6f770000000000604482015290519081900360640190fd5b606092831b9190911790911b1760181b90565b60d81c90565b600061246d82611eb9565b61247683612487565b016001600160601b03169050919050565b60781c6001600160601b031690565b60006124a182612619565b1592915050565b60008160200360080260ff166124bf858585612625565b901c949350505050565b60608247101561250a5760405162461bcd60e51b81526004018080602001828103825260268152602001806138516026913960400191505060405180910390fd5b61251385612788565b612564576040805162461bcd60e51b815260206004820152601d60248201527f416464726573733a2063616c6c20746f206e6f6e2d636f6e7472616374000000604482015290519081900360640190fd5b600080866001600160a01b031685876040518082805190602001908083835b602083106125a25780518252601f199092019160209182019101612583565b6001836020036101000a03801982511681845116808217855250505050505090500191505060006040518083038185875af1925050503d8060008114612604576040519150601f19603f3d011682016040523d82523d6000602084013e612609565b606091505b509150915061095282828661278e565b62ffffff199081161490565b600060ff8216612637575060006119e8565b61264084611eb9565b6001600160601b03166126568460ff85166123ef565b11156127115761268d61266885612487565b6001600160601b031661267a86611eb9565b6001600160601b0316858560ff166127f4565b60405162461bcd60e51b81526004018080602001828103825283818151815260200191508051906020019080838360005b838110156126d65781810151838201526020016126be565b50505050905090810190601f1680156127035780820380516001836020036101000a031916815260200191505b509250505060405180910390fd5b60208260ff1611156127545760405162461bcd60e51b815260040180806020018281038252603a8152602001806138da603a913960400191505060405180910390fd5b60088202600061276386612487565b6001600160601b031690506000612779836128e7565b91909501511695945050505050565b3b151590565b6060831561279d5750816119e8565b8251156127ad5782518084602001fd5b60405162461bcd60e51b81526020600482018181528451602484015284518593919283926044019190850190808383600083156126d65781810151838201526020016126be565b60606000612801866128f6565b915050600061280f866128f6565b915050600061281d866128f6565b915050600061282b866128f6565b915050838383836040516020018080613991603591396001600160d01b031960d087811b821660358401526e040eed2e8d040d8cadccee8d04060f608b1b603b84015286901b16604a820152605001602161387782396001600160d01b031960d094851b811660218301526e040eed2e8d040d8cadccee8d04060f608b1b60278301529290931b909116603683015250601760f91b603c82015260408051601d818403018152603d90920190529b9a5050505050505050505050565b600160ff1b6000199091011d90565b600080601f5b600f8160ff1611156129405760ff600882021684901c61291b8161298e565b61ffff16841793508160ff1660101461293657601084901b93505b50600019016128fc565b50600f5b60ff8160ff1610156129885760ff600882021684901c6129638161298e565b61ffff16831792508160ff1660001461297e57601083901b92505b5060001901612944565b50915091565b60006129a060048360ff16901c6129be565b60ff161760081b62ffff00166129b5826129be565b60ff1617919050565b6040805180820190915260108082526f181899199a1a9b1b9c1cb0b131b232b360811b6020830152600091600f841691829081106129f857fe5b016020015160f81c9392505050565b6040518060a00160405280600081526020016000815260200160006001600160a01b0316815260200160008152602001600081525090565b828054600181600116156101000203166002900490600052602060002090601f016020900481019282612a755760008555612abb565b82601f10612a8e57805160ff1916838001178555612abb565b82800160010185558215612abb579182015b82811115612abb578251825591602001919060010190612aa0565b50612ac7929150612b6f565b5090565b604080516101408101909152600080825260208201908152602001600081526020016060815260200160008152602001600081526020016000815260200160008152602001600081526020016000151581525090565b6040518060e001604052806000815260200160006001600160a01b031681526020016000815260200160008152602001600015158152602001600063ffffffff168152602001606081525090565b5b80821115612ac75760008155600101612b70565b80356001600160a01b038116811461144857600080fd5b60008083601f840112612bac578182fd5b50813567ffffffffffffffff811115612bc3578182fd5b602083019150836020828501011115612bdb57600080fd5b9250929050565b600082601f830112612bf2578081fd5b8135612c05612c00826137ba565b613796565b818152846020838601011115612c19578283fd5b816020850160208301379081016020019190915292915050565b803563ffffffff8116811461144857600080fd5b600060208284031215612c58578081fd5b6119e882612b84565b60008060008060008060c08789031215612c79578182fd5b612c8287612b84565b95506020870135945060408701359350606087013567ffffffffffffffff80821115612cac578384fd5b612cb88a838b01612be2565b94506080890135935060a0890135915080821115612cd4578283fd5b50612ce189828a01612be2565b9150509295509295509295565b60008060008060808587031215612d03578384fd5b843560048110612d11578485fd5b9350602085013560028110612d24578384fd5b9250604085013567ffffffffffffffff811115612d3f578283fd5b612d4b87828801612be2565b949793965093946060013593505050565b600060208284031215612d6d578081fd5b5035919050565b600060208284031215612d85578081fd5b5051919050565b60008060408385031215612d9e578182fd5b82359150612dae60208401612b84565b90509250929050565b60008060408385031215612dc9578182fd5b82519150602083015167ffffffffffffffff811115612de6578182fd5b8301601f81018513612df6578182fd5b8051612e04612c00826137ba565b818152866020838501011115612e18578384fd5b612e298260208301602086016137dc565b8093505050509250929050565b60008060408385031215612e48578182fd5b50508035926020909101359150565b600080600060608486031215612e6b578283fd5b8335925060208401359150604084013567ffffffffffffffff811115612e8f578182fd5b612e9b86828701612be2565b9150509250925092565b600080600060608486031215612eb9578081fd5b505081359360208301359350604090920135919050565b600080600080600080600060e0888a031215612eea578485fd5b873596506020880135955060408801359450606088013567ffffffffffffffff80821115612f16578283fd5b612f228b838c01612be2565b955060808a01359450612f3760a08b01612b84565b935060c08a0135915080821115612f4c578283fd5b50612f598a828b01612be2565b91505092959891949750929550565b60008060008060008060c08789031215612f80578384fd5b863595506020870135945060408701359350606087013567ffffffffffffffff80821115612cac578384fd5b60008060008060608587031215612fc1578182fd5b612fca85612c33565b935060208501359250604085013567ffffffffffffffff811115612fec578283fd5b612ff887828801612b9b565b95989497509550505050565b60008060008060006080868803121561301b578283fd5b61302486612c33565b94506020860135935061303960408701612c33565b9250606086013567ffffffffffffffff811115613054578182fd5b61306088828901612b9b565b969995985093965092949392505050565b15159052565b6000815180845261308f8160208601602086016137dc565b601f01601f19169290920160200192915050565b600281106130ad57fe5b9052565b600481106130ad57fe5b60008083546001808216600081146130da57600181146130f157613120565b60ff198316865260028304607f1686019350613120565b600283048786526020808720875b838110156131185781548a8201529085019082016130ff565b505050860193505b509195945050505050565b61190160f01b81526002810192909252602282015260420190565b6001600160a01b0391909116815260200190565b6020808252825182820181905260009190848201906040850190845b8181101561319257835183529284019291840191600101613176565b50909695505050505050565b901515815260200190565b90815260200190565b9586526001600160a01b0394909416602086015260408501929092526060840152608083015260a082015260c00190565b60006131ef82876130b1565b6131fc60208301866130a3565b608060408301526132106080830185613077565b905082606083015295945050505050565b600063ffffffff861682528460208301528360408301526080606083015261203f6080830184613077565b60208082526013908201527209cc2e8d2dedcc2d8d2e8f29ad2e6dac2e8c6d606b1b604082015260600190565b60208082526010908201526f496e76616c69645369676e617475726560801b604082015260600190565b602080825260129082015271496e76616c69644e6174696f6e616c69747960701b604082015260600190565b6020808252600d908201526c125b9d985b1a59105b5bdd5b9d609a1b604082015260600190565b60208082526010908201526f125b9d985b1a59149958da5c1a595b9d60821b604082015260600190565b6020808252600b908201526a125b9d985b1a59141bdbdb60aa1b604082015260600190565b602080825260169082015275496e7465726e616c2066756e6374696f6e206f6e6c7960501b604082015260600190565b602080825260159082015274139bc81a1bdbdac819185d18481c1c9bdd9a591959605a1b604082015260600190565b6020808252600c908201526b506f6f6c496e61637469766560a01b604082015260600190565b6020808252600e908201526d105b1c9958591e50db185a5b595960921b604082015260600190565b602080825260119082015270496e73756666696369656e7446756e647360781b604082015260600190565b6020808252601290820152712ab730baba3437b934bd32b221b0b63632b960711b604082015260600190565b81518152602080830151908201526040808301516001600160a01b031690820152606080830151908201526080918201519181019190915260a00190565b6000602082528251602083015260018060a01b03602084015116604083015260408301516060830152606083015160808301526080830151151560a083015263ffffffff60a08401511660c083015260c083015160e0808401526112d0610100840182613077565b60006020825282516020830152602083015161350e60408401826130b1565b50604083015161352160608401826130a3565b50606083015161014080608085015261353e610160850183613077565b9150608085015160a085015260a085015160c085015260c085015160e085015260e085015161010081818701528087015191505061012081818701528087015191505061358d82860182613071565b5090949350505050565b600088825260018060a01b0388166020830152866040830152856060830152841515608083015263ffffffff841660a083015260e060c08301526135de60e0830184613077565b9998505050505050505050565b60006101408c8352613600602084018d6130b1565b61360d604084018c6130a3565b80606084015261361f8184018b613077565b6080840199909952505060a081019590955260c085019390935260e0840191909152610100830152151561012090910152949350505050565b94855260208501939093526001600160a01b039190911660408401526060830152608082015260a00190565b600086825285602083015260a060408301526136a360a0830186613077565b606083019490945250608001529392505050565b600088825287602083015286604083015260e060608301526136dc60e0830187613077565b608083018690526001600160a01b03851660a084015282810360c08401526137048185613077565b9a9950505050505050505050565b600063ffffffff861682528460208301526060604083015282606083015282846080840137818301608090810191909152601f909201601f191601019392505050565b63ffffffff93909316835260208301919091526040820152608060608201819052600b908201526a31b937b9b996b1b430b4b760a91b60a082015260c00190565b60405181810167ffffffffffffffff811182821017156137b257fe5b604052919050565b600067ffffffffffffffff8211156137ce57fe5b50601f01601f191660200190565b60005b838110156137f75781810151838201526020016137df565b83811115611c6d575050600091015256fe4f776e61626c653a206e6577206f776e657220697320746865207a65726f206164647265737345434453413a20696e76616c6964207369676e6174757265202773272076616c7565416464726573733a20696e73756666696369656e742062616c616e636520666f722063616c6c2e20417474656d7074656420746f20696e646578206174206f666673657420307845434453413a20696e76616c6964207369676e6174757265202776272076616c75654f776e61626c653a2063616c6c6572206973206e6f7420746865206f776e657254797065644d656d566965772f696e646578202d20417474656d7074656420746f20696e646578206d6f7265207468616e2033322062797465735361666545524332303a204552433230206f7065726174696f6e20646964206e6f74207375636365656454797065644d656d566965772f636f7079546f202d204e756c6c20706f696e74657220646572656654797065644d656d566965772f636f7079546f202d20496e76616c696420706f696e74657220646572656654797065644d656d566965772f696e646578202d204f76657272616e2074686520766965772e20536c696365206973206174203078a2646970667358221220384eeb81a97676913426c9ac4180b8cc35791ee29bc382297ca9c110ecf6b8ca64736f6c634300070600334f776e61626c653a206e6577206f776e657220697320746865207a65726f20616464726573738be0079c531659141344cd1fd0a4f28419497f9722a3daafe3b4186f6b6457e0","opcodes":"PUSH1 0xC0 PUSH1 0x40 MSTORE CALLVALUE DUP1 ISZERO PUSH3 0x11 JUMPI PUSH1 0x0 DUP1 REVERT JUMPDEST POP PUSH1 0x40 MLOAD PUSH3 0x3DD4 CODESIZE SUB DUP1 PUSH3 0x3DD4 DUP4 CODECOPY DUP2 ADD PUSH1 0x40 DUP2 SWAP1 MSTORE PUSH3 0x34 SWAP2 PUSH3 0x2D5 JUMP JUMPDEST PUSH1 0x0 PUSH3 0x40 PUSH3 0x19B JUMP JUMPDEST PUSH1 0x0 DUP1 SLOAD PUSH1 0x1 PUSH1 0x1 PUSH1 0xA0 SHL SUB NOT AND PUSH1 0x1 PUSH1 0x1 PUSH1 0xA0 SHL SUB DUP4 AND SWAP1 DUP2 OR DUP3 SSTORE PUSH1 0x40 MLOAD SWAP3 SWAP4 POP SWAP2 PUSH1 0x0 DUP1 MLOAD PUSH1 0x20 PUSH3 0x3DB4 DUP4 CODECOPY DUP2 MLOAD SWAP2 MSTORE SWAP1 DUP3 SWAP1 LOG3 POP PUSH1 0x1 DUP1 SLOAD PUSH1 0x1 PUSH1 0x1 PUSH1 0xA0 SHL SUB DUP1 DUP7 AND PUSH1 0x1 PUSH1 0x1 PUSH1 0xA0 SHL SUB NOT SWAP3 DUP4 AND OR SWAP1 SWAP3 SSTORE PUSH1 0x1 PUSH1 0x1 PUSH1 0x60 SHL SUB NOT PUSH1 0x60 DUP6 SWAP1 SHL AND PUSH1 0x80 MSTORE PUSH1 0x2 DUP1 SLOAD SWAP3 DUP5 AND SWAP3 SWAP1 SWAP2 AND SWAP2 SWAP1 SWAP2 OR SWAP1 SSTORE PUSH3 0xC6 CALLER PUSH3 0x19F JUMP JUMPDEST PUSH1 0x40 DUP1 MLOAD DUP1 DUP3 ADD DUP3 MSTORE PUSH1 0xB DUP2 MSTORE PUSH11 0x52656C696566506F6F6C73 PUSH1 0xA8 SHL PUSH1 0x20 SWAP2 DUP3 ADD MSTORE DUP2 MLOAD DUP1 DUP4 ADD DUP4 MSTORE PUSH1 0x1 DUP2 MSTORE PUSH1 0x31 PUSH1 0xF8 SHL SWAP1 DUP3 ADD MSTORE SWAP1 MLOAD PUSH3 0x176 SWAP2 PUSH32 0x8B73C3C69BB8FE3D512ECC4CF759CC79239F7B179B0FFACAA9A75D522B39400F SWAP2 PUSH32 0x3323A8070B7081E28CA423D850C49E17147E941AF41DAF0AD176ECF1A5481B67 SWAP2 PUSH32 0xC89EFDAA54C0F20C7ADF612882DF0950F5A951637E0307CDCB4C672F298B8BC6 SWAP2 PUSH2 0x2105 SWAP2 ADDRESS SWAP2 ADD PUSH3 0x31E JUMP JUMPDEST PUSH1 0x40 DUP1 MLOAD PUSH1 0x1F NOT DUP2 DUP5 SUB ADD DUP2 MSTORE SWAP2 SWAP1 MSTORE DUP1 MLOAD PUSH1 0x20 SWAP1 SWAP2 ADD KECCAK256 PUSH1 0xA0 MSTORE POP PUSH3 0x34E SWAP2 POP POP JUMP JUMPDEST CALLER SWAP1 JUMP JUMPDEST PUSH3 0x1A9 PUSH3 0x19B JUMP JUMPDEST PUSH1 0x1 PUSH1 0x1 PUSH1 0xA0 SHL SUB AND PUSH3 0x1BC PUSH3 0x2A9 JUMP JUMPDEST PUSH1 0x1 PUSH1 0x1 PUSH1 0xA0 SHL SUB AND EQ PUSH3 0x218 JUMPI PUSH1 0x40 DUP1 MLOAD PUSH3 0x461BCD PUSH1 0xE5 SHL DUP2 MSTORE PUSH1 0x20 PUSH1 0x4 DUP3 ADD DUP2 SWAP1 MSTORE PUSH1 0x24 DUP3 ADD MSTORE PUSH32 0x4F776E61626C653A2063616C6C6572206973206E6F7420746865206F776E6572 PUSH1 0x44 DUP3 ADD MSTORE SWAP1 MLOAD SWAP1 DUP2 SWAP1 SUB PUSH1 0x64 ADD SWAP1 REVERT JUMPDEST PUSH1 0x1 PUSH1 0x1 PUSH1 0xA0 SHL SUB DUP2 AND PUSH3 0x25F JUMPI PUSH1 0x40 MLOAD PUSH3 0x461BCD PUSH1 0xE5 SHL DUP2 MSTORE PUSH1 0x4 ADD DUP1 DUP1 PUSH1 0x20 ADD DUP3 DUP2 SUB DUP3 MSTORE PUSH1 0x26 DUP2 MSTORE PUSH1 0x20 ADD DUP1 PUSH3 0x3D8E PUSH1 0x26 SWAP2 CODECOPY PUSH1 0x40 ADD SWAP2 POP POP PUSH1 0x40 MLOAD DUP1 SWAP2 SUB SWAP1 REVERT JUMPDEST PUSH1 0x0 DUP1 SLOAD PUSH1 0x40 MLOAD PUSH1 0x1 PUSH1 0x1 PUSH1 0xA0 SHL SUB DUP1 DUP6 AND SWAP4 SWAP3 AND SWAP2 PUSH1 0x0 DUP1 MLOAD PUSH1 0x20 PUSH3 0x3DB4 DUP4 CODECOPY DUP2 MLOAD SWAP2 MSTORE SWAP2 LOG3 PUSH1 0x0 DUP1 SLOAD PUSH1 0x1 PUSH1 0x1 PUSH1 0xA0 SHL SUB NOT AND PUSH1 0x1 PUSH1 0x1 PUSH1 0xA0 SHL SUB SWAP3 SWAP1 SWAP3 AND SWAP2 SWAP1 SWAP2 OR SWAP1 SSTORE JUMP JUMPDEST PUSH1 0x0 SLOAD PUSH1 0x1 PUSH1 0x1 PUSH1 0xA0 SHL SUB AND SWAP1 JUMP JUMPDEST DUP1 MLOAD PUSH1 0x1 PUSH1 0x1 PUSH1 0xA0 SHL SUB DUP2 AND DUP2 EQ PUSH3 0x2D0 JUMPI PUSH1 0x0 DUP1 REVERT JUMPDEST SWAP2 SWAP1 POP JUMP JUMPDEST PUSH1 0x0 DUP1 PUSH1 0x0 PUSH1 0x60 DUP5 DUP7 SUB SLT ISZERO PUSH3 0x2EA JUMPI DUP3 DUP4 REVERT JUMPDEST PUSH3 0x2F5 DUP5 PUSH3 0x2B8 JUMP JUMPDEST SWAP3 POP PUSH3 0x305 PUSH1 0x20 DUP6 ADD PUSH3 0x2B8 JUMP JUMPDEST SWAP2 POP PUSH3 0x315 PUSH1 0x40 DUP6 ADD PUSH3 0x2B8 JUMP JUMPDEST SWAP1 POP SWAP3 POP SWAP3 POP SWAP3 JUMP JUMPDEST SWAP5 DUP6 MSTORE PUSH1 0x20 DUP6 ADD SWAP4 SWAP1 SWAP4 MSTORE PUSH1 0x40 DUP5 ADD SWAP2 SWAP1 SWAP2 MSTORE PUSH2 0xFFFF AND PUSH1 0x60 DUP4 ADD MSTORE PUSH1 0x1 PUSH1 0x1 PUSH1 0xA0 SHL SUB AND PUSH1 0x80 DUP3 ADD MSTORE PUSH1 0xA0 ADD SWAP1 JUMP JUMPDEST PUSH1 0x80 MLOAD PUSH1 0x60 SHR PUSH1 0xA0 MLOAD PUSH2 0x39FB PUSH3 0x393 PUSH1 0x0 CODECOPY DUP1 PUSH2 0x95F MSTORE DUP1 PUSH2 0x1CD8 MSTORE POP DUP1 PUSH2 0x4FF MSTORE DUP1 PUSH2 0x5A9 MSTORE DUP1 PUSH2 0xA14 MSTORE DUP1 PUSH2 0xA9E MSTORE DUP1 PUSH2 0xE04 MSTORE DUP1 PUSH2 0x1009 MSTORE POP PUSH2 0x39FB PUSH1 0x0 RETURN INVALID PUSH1 0x80 PUSH1 0x40 MSTORE CALLVALUE DUP1 ISZERO PUSH2 0x10 JUMPI PUSH1 0x0 DUP1 REVERT JUMPDEST POP PUSH1 0x4 CALLDATASIZE LT PUSH2 0x1F0 JUMPI PUSH1 0x0 CALLDATALOAD PUSH1 0xE0 SHR DUP1 PUSH4 0x8B29CAF5 GT PUSH2 0x10F JUMPI DUP1 PUSH4 0xD9DB6E03 GT PUSH2 0xA2 JUMPI DUP1 PUSH4 0xF2FDE38B GT PUSH2 0x71 JUMPI DUP1 PUSH4 0xF2FDE38B EQ PUSH2 0x433 JUMPI DUP1 PUSH4 0xF594DBF4 EQ PUSH2 0x446 JUMPI DUP1 PUSH4 0xFC6F9468 EQ PUSH2 0x46C JUMPI DUP1 PUSH4 0xFEB16532 EQ PUSH2 0x474 JUMPI PUSH2 0x1F0 JUMP JUMPDEST DUP1 PUSH4 0xD9DB6E03 EQ PUSH2 0x3F2 JUMPI DUP1 PUSH4 0xDB5E4C75 EQ PUSH2 0x405 JUMPI DUP1 PUSH4 0xE1A788EB EQ PUSH2 0x418 JUMPI DUP1 PUSH4 0xEF20C85A EQ PUSH2 0x420 JUMPI PUSH2 0x1F0 JUMP JUMPDEST DUP1 PUSH4 0x9E3079CB GT PUSH2 0xDE JUMPI DUP1 PUSH4 0x9E3079CB EQ PUSH2 0x3AF JUMPI DUP1 PUSH4 0xA8F7F995 EQ PUSH2 0x3B7 JUMPI DUP1 PUSH4 0xD0E5A743 EQ PUSH2 0x3CA JUMPI DUP1 PUSH4 0xD3FFE67A EQ PUSH2 0x3EA JUMPI PUSH2 0x1F0 JUMP JUMPDEST DUP1 PUSH4 0x8B29CAF5 EQ PUSH2 0x36C JUMPI DUP1 PUSH4 0x8C73EB04 EQ PUSH2 0x37F JUMPI DUP1 PUSH4 0x8DA5CB5B EQ PUSH2 0x387 JUMPI DUP1 PUSH4 0x8E09727E EQ PUSH2 0x38F JUMPI PUSH2 0x1F0 JUMP JUMPDEST DUP1 PUSH4 0x3B121902 GT PUSH2 0x187 JUMPI DUP1 PUSH4 0x715018A6 GT PUSH2 0x156 JUMPI DUP1 PUSH4 0x715018A6 EQ PUSH2 0x31E JUMPI DUP1 PUSH4 0x73AACB00 EQ PUSH2 0x326 JUMPI DUP1 PUSH4 0x7C92F219 EQ PUSH2 0x346 JUMPI DUP1 PUSH4 0x82E15E51 EQ PUSH2 0x359 JUMPI PUSH2 0x1F0 JUMP JUMPDEST DUP1 PUSH4 0x3B121902 EQ PUSH2 0x2CC JUMPI DUP1 PUSH4 0x5312EA8E EQ PUSH2 0x2DF JUMPI DUP1 PUSH4 0x59B3C2D8 EQ PUSH2 0x2F2 JUMPI DUP1 PUSH4 0x6F9FB98A EQ PUSH2 0x316 JUMPI PUSH2 0x1F0 JUMP JUMPDEST DUP1 PUSH4 0x19C2799F GT PUSH2 0x1C3 JUMPI DUP1 PUSH4 0x19C2799F EQ PUSH2 0x268 JUMPI DUP1 PUSH4 0x216B31C1 EQ PUSH2 0x291 JUMPI DUP1 PUSH4 0x29D9B720 EQ PUSH2 0x2A4 JUMPI DUP1 PUSH4 0x3644E515 EQ PUSH2 0x2B7 JUMPI PUSH2 0x1F0 JUMP JUMPDEST DUP1 PUSH4 0x6CC759B EQ PUSH2 0x1F5 JUMPI DUP1 PUSH4 0x11CFFB67 EQ PUSH2 0x21E JUMPI DUP1 PUSH4 0x11EAC855 EQ PUSH2 0x23E JUMPI DUP1 PUSH4 0x16C3CDF5 EQ PUSH2 0x253 JUMPI JUMPDEST PUSH1 0x0 DUP1 REVERT JUMPDEST PUSH2 0x208 PUSH2 0x203 CALLDATASIZE PUSH1 0x4 PUSH2 0x2D8C JUMP JUMPDEST PUSH2 0x487 JUMP JUMPDEST PUSH1 0x40 MLOAD PUSH2 0x215 SWAP2 SWAP1 PUSH2 0x3449 JUMP JUMPDEST PUSH1 0x40 MLOAD DUP1 SWAP2 SUB SWAP1 RETURN JUMPDEST PUSH2 0x231 PUSH2 0x22C CALLDATASIZE PUSH1 0x4 PUSH2 0x3004 JUMP JUMPDEST PUSH2 0x4F1 JUMP JUMPDEST PUSH1 0x40 MLOAD PUSH2 0x215 SWAP2 SWAP1 PUSH2 0x319E JUMP JUMPDEST PUSH2 0x246 PUSH2 0x4FD JUMP JUMPDEST PUSH1 0x40 MLOAD PUSH2 0x215 SWAP2 SWAP1 PUSH2 0x3146 JUMP JUMPDEST PUSH2 0x266 PUSH2 0x261 CALLDATASIZE PUSH1 0x4 PUSH2 0x2E57 JUMP JUMPDEST PUSH2 0x521 JUMP JUMPDEST STOP JUMPDEST PUSH2 0x27B PUSH2 0x276 CALLDATASIZE PUSH1 0x4 PUSH2 0x2D5C JUMP JUMPDEST PUSH2 0x778 JUMP JUMPDEST PUSH1 0x40 MLOAD PUSH2 0x215 SWAP11 SWAP10 SWAP9 SWAP8 SWAP7 SWAP6 SWAP5 SWAP4 SWAP3 SWAP2 SWAP1 PUSH2 0x35EB JUMP JUMPDEST PUSH2 0x266 PUSH2 0x29F CALLDATASIZE PUSH1 0x4 PUSH2 0x2D5C JUMP JUMPDEST PUSH2 0x85D JUMP JUMPDEST PUSH2 0x231 PUSH2 0x2B2 CALLDATASIZE PUSH1 0x4 PUSH2 0x2C61 JUMP JUMPDEST PUSH2 0x942 JUMP JUMPDEST PUSH2 0x2BF PUSH2 0x95D JUMP JUMPDEST PUSH1 0x40 MLOAD PUSH2 0x215 SWAP2 SWAP1 PUSH2 0x31A9 JUMP JUMPDEST PUSH2 0x231 PUSH2 0x2DA CALLDATASIZE PUSH1 0x4 PUSH2 0x2E36 JUMP JUMPDEST PUSH2 0x981 JUMP JUMPDEST PUSH2 0x266 PUSH2 0x2ED CALLDATASIZE PUSH1 0x4 PUSH2 0x2D5C JUMP JUMPDEST PUSH2 0x9A1 JUMP JUMPDEST PUSH2 0x305 PUSH2 0x300 CALLDATASIZE PUSH1 0x4 PUSH2 0x2D8C JUMP JUMPDEST PUSH2 0xA40 JUMP JUMPDEST PUSH1 0x40 MLOAD PUSH2 0x215 SWAP6 SWAP5 SWAP4 SWAP3 SWAP2 SWAP1 PUSH2 0x3658 JUMP JUMPDEST PUSH2 0x2BF PUSH2 0xA84 JUMP JUMPDEST PUSH2 0x266 PUSH2 0xB28 JUMP JUMPDEST PUSH2 0x339 PUSH2 0x334 CALLDATASIZE PUSH1 0x4 PUSH2 0x2E36 JUMP JUMPDEST PUSH2 0xBD4 JUMP JUMPDEST PUSH1 0x40 MLOAD PUSH2 0x215 SWAP2 SWAP1 PUSH2 0x315A JUMP JUMPDEST PUSH2 0x231 PUSH2 0x354 CALLDATASIZE PUSH1 0x4 PUSH2 0x3004 JUMP JUMPDEST PUSH2 0xC37 JUMP JUMPDEST PUSH2 0x266 PUSH2 0x367 CALLDATASIZE PUSH1 0x4 PUSH2 0x2ED0 JUMP JUMPDEST PUSH2 0xCCC JUMP JUMPDEST PUSH2 0x2BF PUSH2 0x37A CALLDATASIZE PUSH1 0x4 PUSH2 0x2CEE JUMP JUMPDEST PUSH2 0x109F JUMP JUMPDEST PUSH2 0x246 PUSH2 0x12D8 JUMP JUMPDEST PUSH2 0x246 PUSH2 0x12E7 JUMP JUMPDEST PUSH2 0x3A2 PUSH2 0x39D CALLDATASIZE PUSH1 0x4 PUSH2 0x2D5C JUMP JUMPDEST PUSH2 0x12F6 JUMP JUMPDEST PUSH1 0x40 MLOAD PUSH2 0x215 SWAP2 SWAP1 PUSH2 0x34EF JUMP JUMPDEST PUSH2 0x2BF PUSH2 0x144D JUMP JUMPDEST PUSH2 0x266 PUSH2 0x3C5 CALLDATASIZE PUSH1 0x4 PUSH2 0x2F68 JUMP JUMPDEST PUSH2 0x1453 JUMP JUMPDEST PUSH2 0x3DD PUSH2 0x3D8 CALLDATASIZE PUSH1 0x4 PUSH2 0x2D8C JUMP JUMPDEST PUSH2 0x14BC JUMP JUMPDEST PUSH1 0x40 MLOAD PUSH2 0x215 SWAP2 SWAP1 PUSH2 0x3487 JUMP JUMPDEST PUSH2 0x2BF PUSH2 0x15D1 JUMP JUMPDEST PUSH2 0x266 PUSH2 0x400 CALLDATASIZE PUSH1 0x4 PUSH2 0x2C47 JUMP JUMPDEST PUSH2 0x15D7 JUMP JUMPDEST PUSH2 0x266 PUSH2 0x413 CALLDATASIZE PUSH1 0x4 PUSH2 0x2FAC JUMP JUMPDEST PUSH2 0x165B JUMP JUMPDEST PUSH2 0x2BF PUSH2 0x19A6 JUMP JUMPDEST PUSH2 0x231 PUSH2 0x42E CALLDATASIZE PUSH1 0x4 PUSH2 0x2EA5 JUMP JUMPDEST PUSH2 0x19CA JUMP JUMPDEST PUSH2 0x266 PUSH2 0x441 CALLDATASIZE PUSH1 0x4 PUSH2 0x2C47 JUMP JUMPDEST PUSH2 0x19EF JUMP JUMPDEST PUSH2 0x459 PUSH2 0x454 CALLDATASIZE PUSH1 0x4 PUSH2 0x2D8C JUMP JUMPDEST PUSH2 0x1AF1 JUMP JUMPDEST PUSH1 0x40 MLOAD PUSH2 0x215 SWAP8 SWAP7 SWAP6 SWAP5 SWAP4 SWAP3 SWAP2 SWAP1 PUSH2 0x3597 JUMP JUMPDEST PUSH2 0x246 PUSH2 0x1BD3 JUMP JUMPDEST PUSH2 0x2BF PUSH2 0x482 CALLDATASIZE PUSH1 0x4 PUSH2 0x2E36 JUMP JUMPDEST PUSH2 0x1BE2 JUMP JUMPDEST PUSH2 0x48F PUSH2 0x2A07 JUMP JUMPDEST POP PUSH1 0x0 SWAP2 DUP3 MSTORE PUSH1 0x5 PUSH1 0x20 SWAP1 DUP2 MSTORE PUSH1 0x40 DUP1 DUP5 KECCAK256 PUSH1 0x1 PUSH1 0x1 PUSH1 0xA0 SHL SUB SWAP4 DUP5 AND DUP6 MSTORE DUP3 MSTORE SWAP3 DUP4 SWAP1 KECCAK256 DUP4 MLOAD PUSH1 0xA0 DUP2 ADD DUP6 MSTORE DUP2 SLOAD DUP2 MSTORE PUSH1 0x1 DUP3 ADD SLOAD SWAP3 DUP2 ADD SWAP3 SWAP1 SWAP3 MSTORE PUSH1 0x2 DUP2 ADD SLOAD SWAP1 SWAP3 AND SWAP3 DUP2 ADD SWAP3 SWAP1 SWAP3 MSTORE PUSH1 0x3 DUP2 ADD SLOAD PUSH1 0x60 DUP4 ADD MSTORE PUSH1 0x4 ADD SLOAD PUSH1 0x80 DUP3 ADD MSTORE SWAP1 JUMP JUMPDEST PUSH1 0x1 JUMPDEST SWAP6 SWAP5 POP POP POP POP POP JUMP JUMPDEST PUSH32 0x0 DUP2 JUMP JUMPDEST PUSH1 0x0 DUP4 DUP2 MSTORE PUSH1 0x4 PUSH1 0x20 MSTORE PUSH1 0x40 SWAP1 KECCAK256 DUP1 SLOAD DUP5 EQ PUSH2 0x558 JUMPI PUSH1 0x40 MLOAD PUSH3 0x461BCD PUSH1 0xE5 SHL DUP2 MSTORE PUSH1 0x4 ADD PUSH2 0x54F SWAP1 PUSH2 0x3320 JUMP JUMPDEST PUSH1 0x40 MLOAD DUP1 SWAP2 SUB SWAP1 REVERT JUMPDEST PUSH1 0x8 DUP2 ADD SLOAD PUSH1 0xFF AND PUSH2 0x57C JUMPI PUSH1 0x40 MLOAD PUSH3 0x461BCD PUSH1 0xE5 SHL DUP2 MSTORE PUSH1 0x4 ADD PUSH2 0x54F SWAP1 PUSH2 0x33A4 JUMP JUMPDEST PUSH1 0x0 DUP4 GT PUSH2 0x59C JUMPI PUSH1 0x40 MLOAD PUSH3 0x461BCD PUSH1 0xE5 SHL DUP2 MSTORE PUSH1 0x4 ADD PUSH2 0x54F SWAP1 PUSH2 0x32CF JUMP JUMPDEST PUSH2 0x5D1 PUSH1 0x1 PUSH1 0x1 PUSH1 0xA0 SHL SUB PUSH32 0x0 AND CALLER ADDRESS DUP7 PUSH2 0x1C13 JUMP JUMPDEST DUP1 PUSH1 0x5 ADD PUSH1 0x0 DUP2 SLOAD DUP1 SWAP3 SWAP2 SWAP1 PUSH1 0x1 ADD SWAP2 SWAP1 POP SSTORE POP DUP3 DUP2 PUSH1 0x7 ADD PUSH1 0x0 DUP3 DUP3 SLOAD ADD SWAP3 POP POP DUP2 SWAP1 SSTORE POP PUSH1 0x40 MLOAD DUP1 PUSH1 0xE0 ADD PUSH1 0x40 MSTORE DUP1 DUP3 PUSH1 0x5 ADD SLOAD DUP2 MSTORE PUSH1 0x20 ADD CALLER PUSH1 0x1 PUSH1 0x1 PUSH1 0xA0 SHL SUB AND DUP2 MSTORE PUSH1 0x20 ADD DUP5 DUP2 MSTORE PUSH1 0x20 ADD TIMESTAMP DUP2 MSTORE PUSH1 0x20 ADD PUSH1 0x0 ISZERO ISZERO DUP2 MSTORE PUSH1 0x20 ADD PUSH1 0x6 PUSH4 0xFFFFFFFF AND DUP2 MSTORE PUSH1 0x20 ADD DUP4 DUP2 MSTORE POP PUSH1 0x6 PUSH1 0x0 DUP7 DUP2 MSTORE PUSH1 0x20 ADD SWAP1 DUP2 MSTORE PUSH1 0x20 ADD PUSH1 0x0 KECCAK256 PUSH1 0x0 CALLER PUSH1 0x1 PUSH1 0x1 PUSH1 0xA0 SHL SUB AND PUSH1 0x1 PUSH1 0x1 PUSH1 0xA0 SHL SUB AND DUP2 MSTORE PUSH1 0x20 ADD SWAP1 DUP2 MSTORE PUSH1 0x20 ADD PUSH1 0x0 KECCAK256 PUSH1 0x0 DUP3 ADD MLOAD DUP2 PUSH1 0x0 ADD SSTORE PUSH1 0x20 DUP3 ADD MLOAD DUP2 PUSH1 0x1 ADD PUSH1 0x0 PUSH2 0x100 EXP DUP2 SLOAD DUP2 PUSH1 0x1 PUSH1 0x1 PUSH1 0xA0 SHL SUB MUL NOT AND SWAP1 DUP4 PUSH1 0x1 PUSH1 0x1 PUSH1 0xA0 SHL SUB AND MUL OR SWAP1 SSTORE POP PUSH1 0x40 DUP3 ADD MLOAD DUP2 PUSH1 0x2 ADD SSTORE PUSH1 0x60 DUP3 ADD MLOAD DUP2 PUSH1 0x3 ADD SSTORE PUSH1 0x80 DUP3 ADD MLOAD DUP2 PUSH1 0x4 ADD PUSH1 0x0 PUSH2 0x100 EXP DUP2 SLOAD DUP2 PUSH1 0xFF MUL NOT AND SWAP1 DUP4 ISZERO ISZERO MUL OR SWAP1 SSTORE POP PUSH1 0xA0 DUP3 ADD MLOAD DUP2 PUSH1 0x4 ADD PUSH1 0x1 PUSH2 0x100 EXP DUP2 SLOAD DUP2 PUSH4 0xFFFFFFFF MUL NOT AND SWAP1 DUP4 PUSH4 0xFFFFFFFF AND MUL OR SWAP1 SSTORE POP PUSH1 0xC0 DUP3 ADD MLOAD DUP2 PUSH1 0x5 ADD SWAP1 DUP1 MLOAD SWAP1 PUSH1 0x20 ADD SWAP1 PUSH2 0x725 SWAP3 SWAP2 SWAP1 PUSH2 0x2A3F JUMP JUMPDEST POP SWAP1 POP POP CALLER PUSH1 0x1 PUSH1 0x1 PUSH1 0xA0 SHL SUB AND DUP5 PUSH32 0x743501122BA2CD9590984350A2076553271A243E2B9DE8617A802D7C7AF7D301 PUSH1 0x6 DUP7 TIMESTAMP DUP8 PUSH1 0x40 MLOAD PUSH2 0x76A SWAP5 SWAP4 SWAP3 SWAP2 SWAP1 PUSH2 0x3221 JUMP JUMPDEST PUSH1 0x40 MLOAD DUP1 SWAP2 SUB SWAP1 LOG3 POP POP POP POP JUMP JUMPDEST PUSH1 0x4 PUSH1 0x20 SWAP1 DUP2 MSTORE PUSH1 0x0 SWAP2 DUP3 MSTORE PUSH1 0x40 SWAP2 DUP3 SWAP1 KECCAK256 DUP1 SLOAD PUSH1 0x1 DUP1 DUP4 ADD SLOAD PUSH1 0x2 DUP1 DUP6 ADD DUP1 SLOAD DUP9 MLOAD PUSH2 0x100 SWAP6 DUP3 AND ISZERO DUP7 MUL PUSH1 0x0 NOT ADD SWAP1 SWAP2 AND SWAP3 SWAP1 SWAP3 DIV PUSH1 0x1F DUP2 ADD DUP9 SWAP1 DIV DUP9 MUL DUP4 ADD DUP9 ADD SWAP1 SWAP9 MSTORE DUP8 DUP3 MSTORE SWAP4 SWAP7 PUSH1 0xFF DUP1 DUP5 AND SWAP8 SWAP5 SWAP1 SWAP4 DIV SWAP1 SWAP3 AND SWAP5 SWAP4 SWAP1 SWAP3 SWAP1 SWAP2 SWAP1 DUP4 ADD DUP3 DUP3 DUP1 ISZERO PUSH2 0x829 JUMPI DUP1 PUSH1 0x1F LT PUSH2 0x7FE JUMPI PUSH2 0x100 DUP1 DUP4 SLOAD DIV MUL DUP4 MSTORE SWAP2 PUSH1 0x20 ADD SWAP2 PUSH2 0x829 JUMP JUMPDEST DUP3 ADD SWAP2 SWAP1 PUSH1 0x0 MSTORE PUSH1 0x20 PUSH1 0x0 KECCAK256 SWAP1 JUMPDEST DUP2 SLOAD DUP2 MSTORE SWAP1 PUSH1 0x1 ADD SWAP1 PUSH1 0x20 ADD DUP1 DUP4 GT PUSH2 0x80C JUMPI DUP3 SWAP1 SUB PUSH1 0x1F AND DUP3 ADD SWAP2 JUMPDEST POP POP POP PUSH1 0x3 DUP5 ADD SLOAD PUSH1 0x4 DUP6 ADD SLOAD PUSH1 0x5 DUP7 ADD SLOAD PUSH1 0x6 DUP8 ADD SLOAD PUSH1 0x7 DUP9 ADD SLOAD PUSH1 0x8 SWAP1 SWAP9 ADD SLOAD SWAP7 SWAP8 SWAP4 SWAP7 SWAP3 SWAP6 POP SWAP1 SWAP4 POP SWAP2 SWAP1 PUSH1 0xFF AND DUP11 JUMP JUMPDEST PUSH2 0x865 PUSH2 0x1C73 JUMP JUMPDEST PUSH1 0x1 PUSH1 0x1 PUSH1 0xA0 SHL SUB AND PUSH2 0x876 PUSH2 0x12E7 JUMP JUMPDEST PUSH1 0x1 PUSH1 0x1 PUSH1 0xA0 SHL SUB AND EQ PUSH2 0x8BF JUMPI PUSH1 0x40 DUP1 MLOAD PUSH3 0x461BCD PUSH1 0xE5 SHL DUP2 MSTORE PUSH1 0x20 PUSH1 0x4 DUP3 ADD DUP2 SWAP1 MSTORE PUSH1 0x24 DUP3 ADD MSTORE PUSH1 0x0 DUP1 MLOAD PUSH1 0x20 PUSH2 0x38BA DUP4 CODECOPY DUP2 MLOAD SWAP2 MSTORE PUSH1 0x44 DUP3 ADD MSTORE SWAP1 MLOAD SWAP1 DUP2 SWAP1 SUB PUSH1 0x64 ADD SWAP1 REVERT JUMPDEST PUSH1 0x0 DUP2 DUP2 MSTORE PUSH1 0x4 PUSH1 0x20 MSTORE PUSH1 0x40 SWAP1 KECCAK256 DUP1 SLOAD DUP3 EQ PUSH2 0x8ED JUMPI PUSH1 0x40 MLOAD PUSH3 0x461BCD PUSH1 0xE5 SHL DUP2 MSTORE PUSH1 0x4 ADD PUSH2 0x54F SWAP1 PUSH2 0x3320 JUMP JUMPDEST PUSH1 0x8 DUP2 ADD DUP1 SLOAD PUSH1 0xFF NOT DUP2 AND PUSH1 0xFF SWAP2 DUP3 AND ISZERO OR SWAP2 DUP3 SWAP1 SSTORE PUSH1 0x40 MLOAD DUP5 SWAP3 PUSH32 0xB3C3C605D1520CD5BF41301DD5C04929E0FF021B02A10EA259B5A5B2D521A29C SWAP3 PUSH2 0x936 SWAP3 SWAP2 AND SWAP1 PUSH2 0x319E JUMP JUMPDEST PUSH1 0x40 MLOAD DUP1 SWAP2 SUB SWAP1 LOG2 POP POP JUMP JUMPDEST PUSH1 0x0 PUSH2 0x952 DUP8 DUP8 DUP8 DUP8 DUP8 DUP8 PUSH2 0x1C77 JUMP JUMPDEST SWAP8 SWAP7 POP POP POP POP POP POP POP JUMP JUMPDEST PUSH32 0x0 DUP2 JUMP JUMPDEST PUSH1 0x7 PUSH1 0x20 SWAP1 DUP2 MSTORE PUSH1 0x0 SWAP3 DUP4 MSTORE PUSH1 0x40 DUP1 DUP5 KECCAK256 SWAP1 SWAP2 MSTORE SWAP1 DUP3 MSTORE SWAP1 KECCAK256 SLOAD PUSH1 0xFF AND DUP2 JUMP JUMPDEST PUSH2 0x9A9 PUSH2 0x1C73 JUMP JUMPDEST PUSH1 0x1 PUSH1 0x1 PUSH1 0xA0 SHL SUB AND PUSH2 0x9BA PUSH2 0x12E7 JUMP JUMPDEST PUSH1 0x1 PUSH1 0x1 PUSH1 0xA0 SHL SUB AND EQ PUSH2 0xA03 JUMPI PUSH1 0x40 DUP1 MLOAD PUSH3 0x461BCD PUSH1 0xE5 SHL DUP2 MSTORE PUSH1 0x20 PUSH1 0x4 DUP3 ADD DUP2 SWAP1 MSTORE PUSH1 0x24 DUP3 ADD MSTORE PUSH1 0x0 DUP1 MLOAD PUSH1 0x20 PUSH2 0x38BA DUP4 CODECOPY DUP2 MLOAD SWAP2 MSTORE PUSH1 0x44 DUP3 ADD MSTORE SWAP1 MLOAD SWAP1 DUP2 SWAP1 SUB PUSH1 0x64 ADD SWAP1 REVERT JUMPDEST PUSH1 0x1 SLOAD PUSH2 0xA3D SWAP1 PUSH1 0x1 PUSH1 0x1 PUSH1 0xA0 SHL SUB PUSH32 0x0 DUP2 AND SWAP2 AND DUP4 PUSH2 0x1D4E JUMP JUMPDEST POP JUMP JUMPDEST PUSH1 0x5 PUSH1 0x20 SWAP1 DUP2 MSTORE PUSH1 0x0 SWAP3 DUP4 MSTORE PUSH1 0x40 DUP1 DUP5 KECCAK256 SWAP1 SWAP2 MSTORE SWAP1 DUP3 MSTORE SWAP1 KECCAK256 DUP1 SLOAD PUSH1 0x1 DUP3 ADD SLOAD PUSH1 0x2 DUP4 ADD SLOAD PUSH1 0x3 DUP5 ADD SLOAD PUSH1 0x4 SWAP1 SWAP5 ADD SLOAD SWAP3 SWAP4 SWAP2 SWAP3 PUSH1 0x1 PUSH1 0x1 PUSH1 0xA0 SHL SUB SWAP1 SWAP2 AND SWAP2 SWAP1 DUP6 JUMP JUMPDEST PUSH1 0x40 MLOAD PUSH4 0x70A08231 PUSH1 0xE0 SHL DUP2 MSTORE PUSH1 0x0 SWAP1 PUSH1 0x1 PUSH1 0x1 PUSH1 0xA0 SHL SUB PUSH32 0x0 AND SWAP1 PUSH4 0x70A08231 SWAP1 PUSH2 0xAD3 SWAP1 ADDRESS SWAP1 PUSH1 0x4 ADD PUSH2 0x3146 JUMP JUMPDEST PUSH1 0x20 PUSH1 0x40 MLOAD DUP1 DUP4 SUB DUP2 DUP7 DUP1 EXTCODESIZE ISZERO DUP1 ISZERO PUSH2 0xAEB JUMPI PUSH1 0x0 DUP1 REVERT JUMPDEST POP GAS STATICCALL ISZERO DUP1 ISZERO PUSH2 0xAFF JUMPI RETURNDATASIZE PUSH1 0x0 DUP1 RETURNDATACOPY RETURNDATASIZE PUSH1 0x0 REVERT JUMPDEST POP POP POP POP PUSH1 0x40 MLOAD RETURNDATASIZE PUSH1 0x1F NOT PUSH1 0x1F DUP3 ADD AND DUP3 ADD DUP1 PUSH1 0x40 MSTORE POP DUP2 ADD SWAP1 PUSH2 0xB23 SWAP2 SWAP1 PUSH2 0x2D74 JUMP JUMPDEST SWAP1 POP SWAP1 JUMP JUMPDEST PUSH2 0xB30 PUSH2 0x1C73 JUMP JUMPDEST PUSH1 0x1 PUSH1 0x1 PUSH1 0xA0 SHL SUB AND PUSH2 0xB41 PUSH2 0x12E7 JUMP JUMPDEST PUSH1 0x1 PUSH1 0x1 PUSH1 0xA0 SHL SUB AND EQ PUSH2 0xB8A JUMPI PUSH1 0x40 DUP1 MLOAD PUSH3 0x461BCD PUSH1 0xE5 SHL DUP2 MSTORE PUSH1 0x20 PUSH1 0x4 DUP3 ADD DUP2 SWAP1 MSTORE PUSH1 0x24 DUP3 ADD MSTORE PUSH1 0x0 DUP1 MLOAD PUSH1 0x20 PUSH2 0x38BA DUP4 CODECOPY DUP2 MLOAD SWAP2 MSTORE PUSH1 0x44 DUP3 ADD MSTORE SWAP1 MLOAD SWAP1 DUP2 SWAP1 SUB PUSH1 0x64 ADD SWAP1 REVERT JUMPDEST PUSH1 0x0 DUP1 SLOAD PUSH1 0x40 MLOAD PUSH1 0x1 PUSH1 0x1 PUSH1 0xA0 SHL SUB SWAP1 SWAP2 AND SWAP1 PUSH32 0x8BE0079C531659141344CD1FD0A4F28419497F9722A3DAAFE3B4186F6B6457E0 SWAP1 DUP4 SWAP1 LOG3 PUSH1 0x0 DUP1 SLOAD PUSH1 0x1 PUSH1 0x1 PUSH1 0xA0 SHL SUB NOT AND SWAP1 SSTORE JUMP JUMPDEST PUSH1 0x0 DUP2 DUP2 MSTORE PUSH1 0x8 PUSH1 0x20 SWAP1 DUP2 MSTORE PUSH1 0x40 SWAP2 DUP3 SWAP1 KECCAK256 DUP1 SLOAD DUP4 MLOAD DUP2 DUP5 MUL DUP2 ADD DUP5 ADD SWAP1 SWAP5 MSTORE DUP1 DUP5 MSTORE PUSH1 0x60 SWAP4 SWAP3 DUP4 ADD DUP3 DUP3 DUP1 ISZERO PUSH2 0xC2A JUMPI PUSH1 0x20 MUL DUP3 ADD SWAP2 SWAP1 PUSH1 0x0 MSTORE PUSH1 0x20 PUSH1 0x0 KECCAK256 SWAP1 JUMPDEST DUP2 SLOAD DUP2 MSTORE PUSH1 0x20 ADD SWAP1 PUSH1 0x1 ADD SWAP1 DUP1 DUP4 GT PUSH2 0xC16 JUMPI JUMPDEST POP POP POP POP POP SWAP1 POP SWAP3 SWAP2 POP POP JUMP JUMPDEST PUSH1 0x2 SLOAD PUSH1 0x0 SWAP1 PUSH1 0x1 PUSH1 0x1 PUSH1 0xA0 SHL SUB AND CALLER EQ PUSH2 0xC64 JUMPI PUSH1 0x40 MLOAD PUSH3 0x461BCD PUSH1 0xE5 SHL DUP2 MSTORE PUSH1 0x4 ADD PUSH2 0x54F SWAP1 PUSH2 0x341D JUMP JUMPDEST PUSH1 0x40 MLOAD PUSH4 0xDB5E4C75 PUSH1 0xE0 SHL DUP2 MSTORE ADDRESS SWAP1 PUSH4 0xDB5E4C75 SWAP1 PUSH2 0xC8D SWAP1 DUP10 SWAP1 DUP10 SWAP1 DUP9 SWAP1 DUP9 SWAP1 PUSH1 0x4 ADD PUSH2 0x3712 JUMP JUMPDEST PUSH1 0x0 PUSH1 0x40 MLOAD DUP1 DUP4 SUB DUP2 PUSH1 0x0 DUP8 DUP1 EXTCODESIZE ISZERO DUP1 ISZERO PUSH2 0xCA7 JUMPI PUSH1 0x0 DUP1 REVERT JUMPDEST POP GAS CALL SWAP3 POP POP POP DUP1 ISZERO PUSH2 0xCB8 JUMPI POP PUSH1 0x1 JUMPDEST PUSH2 0xCC4 JUMPI POP PUSH1 0x0 PUSH2 0x4F4 JUMP JUMPDEST POP PUSH1 0x1 PUSH2 0x4F4 JUMP JUMPDEST PUSH1 0x0 DUP8 DUP2 MSTORE PUSH1 0x4 PUSH1 0x20 MSTORE PUSH1 0x40 SWAP1 KECCAK256 DUP1 SLOAD DUP9 EQ PUSH2 0xCFA JUMPI PUSH1 0x40 MLOAD PUSH3 0x461BCD PUSH1 0xE5 SHL DUP2 MSTORE PUSH1 0x4 ADD PUSH2 0x54F SWAP1 PUSH2 0x3320 JUMP JUMPDEST PUSH1 0x8 DUP2 ADD SLOAD PUSH1 0xFF AND PUSH2 0xD1E JUMPI PUSH1 0x40 MLOAD PUSH3 0x461BCD PUSH1 0xE5 SHL DUP2 MSTORE PUSH1 0x4 ADD PUSH2 0x54F SWAP1 PUSH2 0x33A4 JUMP JUMPDEST PUSH1 0x0 DUP9 DUP2 MSTORE PUSH1 0x7 PUSH1 0x20 SWAP1 DUP2 MSTORE PUSH1 0x40 DUP1 DUP4 KECCAK256 DUP10 DUP5 MSTORE SWAP1 SWAP2 MSTORE SWAP1 KECCAK256 SLOAD PUSH1 0xFF AND ISZERO PUSH2 0xD58 JUMPI PUSH1 0x40 MLOAD PUSH3 0x461BCD PUSH1 0xE5 SHL DUP2 MSTORE PUSH1 0x4 ADD PUSH2 0x54F SWAP1 PUSH2 0x33CA JUMP JUMPDEST PUSH1 0x1 PUSH1 0x1 PUSH1 0xA0 SHL SUB DUP4 AND PUSH2 0xD7E JUMPI PUSH1 0x40 MLOAD PUSH3 0x461BCD PUSH1 0xE5 SHL DUP2 MSTORE PUSH1 0x4 ADD PUSH2 0x54F SWAP1 PUSH2 0x32F6 JUMP JUMPDEST DUP1 PUSH1 0x2 ADD PUSH1 0x40 MLOAD PUSH2 0xD8F SWAP2 SWAP1 PUSH2 0x30BB JUMP JUMPDEST PUSH1 0x40 MLOAD DUP1 SWAP2 SUB SWAP1 KECCAK256 DUP6 DUP1 MLOAD SWAP1 PUSH1 0x20 ADD KECCAK256 EQ PUSH2 0xDBC JUMPI PUSH1 0x40 MLOAD PUSH3 0x461BCD PUSH1 0xE5 SHL DUP2 MSTORE PUSH1 0x4 ADD PUSH2 0x54F SWAP1 PUSH2 0x324C JUMP JUMPDEST PUSH2 0xDCA CALLER DUP9 DUP9 DUP9 DUP9 DUP8 PUSH2 0x1C77 JUMP JUMPDEST PUSH2 0xDE6 JUMPI PUSH1 0x40 MLOAD PUSH3 0x461BCD PUSH1 0xE5 SHL DUP2 MSTORE PUSH1 0x4 ADD PUSH2 0x54F SWAP1 PUSH2 0x3279 JUMP JUMPDEST PUSH1 0x3 DUP2 ADD SLOAD PUSH1 0x40 MLOAD PUSH4 0x70A08231 PUSH1 0xE0 SHL DUP2 MSTORE DUP2 SWAP1 PUSH1 0x1 PUSH1 0x1 PUSH1 0xA0 SHL SUB PUSH32 0x0 AND SWAP1 PUSH4 0x70A08231 SWAP1 PUSH2 0xE39 SWAP1 ADDRESS SWAP1 PUSH1 0x4 ADD PUSH2 0x3146 JUMP JUMPDEST PUSH1 0x20 PUSH1 0x40 MLOAD DUP1 DUP4 SUB DUP2 DUP7 DUP1 EXTCODESIZE ISZERO DUP1 ISZERO PUSH2 0xE51 JUMPI PUSH1 0x0 DUP1 REVERT JUMPDEST POP GAS STATICCALL ISZERO DUP1 ISZERO PUSH2 0xE65 JUMPI RETURNDATASIZE PUSH1 0x0 DUP1 RETURNDATACOPY RETURNDATASIZE PUSH1 0x0 REVERT JUMPDEST POP POP POP POP PUSH1 0x40 MLOAD RETURNDATASIZE PUSH1 0x1F NOT PUSH1 0x1F DUP3 ADD AND DUP3 ADD DUP1 PUSH1 0x40 MSTORE POP DUP2 ADD SWAP1 PUSH2 0xE89 SWAP2 SWAP1 PUSH2 0x2D74 JUMP JUMPDEST LT ISZERO PUSH2 0xEA7 JUMPI PUSH1 0x40 MLOAD PUSH3 0x461BCD PUSH1 0xE5 SHL DUP2 MSTORE PUSH1 0x4 ADD PUSH2 0x54F SWAP1 PUSH2 0x33F2 JUMP JUMPDEST DUP2 PUSH1 0x4 ADD PUSH1 0x0 DUP2 SLOAD DUP1 SWAP3 SWAP2 SWAP1 PUSH1 0x1 ADD SWAP2 SWAP1 POP SSTORE POP DUP1 DUP3 PUSH1 0x6 ADD PUSH1 0x0 DUP3 DUP3 SLOAD ADD SWAP3 POP POP DUP2 SWAP1 SSTORE POP PUSH1 0x40 MLOAD DUP1 PUSH1 0xA0 ADD PUSH1 0x40 MSTORE DUP1 DUP10 DUP2 MSTORE PUSH1 0x20 ADD DUP9 DUP2 MSTORE PUSH1 0x20 ADD DUP6 PUSH1 0x1 PUSH1 0x1 PUSH1 0xA0 SHL SUB AND DUP2 MSTORE PUSH1 0x20 ADD DUP3 DUP2 MSTORE PUSH1 0x20 ADD TIMESTAMP DUP2 MSTORE POP PUSH1 0x5 PUSH1 0x0 DUP12 DUP2 MSTORE PUSH1 0x20 ADD SWAP1 DUP2 MSTORE PUSH1 0x20 ADD PUSH1 0x0 KECCAK256 PUSH1 0x0 DUP7 PUSH1 0x1 PUSH1 0x1 PUSH1 0xA0 SHL SUB AND PUSH1 0x1 PUSH1 0x1 PUSH1 0xA0 SHL SUB AND DUP2 MSTORE PUSH1 0x20 ADD SWAP1 DUP2 MSTORE PUSH1 0x20 ADD PUSH1 0x0 KECCAK256 PUSH1 0x0 DUP3 ADD MLOAD DUP2 PUSH1 0x0 ADD SSTORE PUSH1 0x20 DUP3 ADD MLOAD DUP2 PUSH1 0x1 ADD SSTORE PUSH1 0x40 DUP3 ADD MLOAD DUP2 PUSH1 0x2 ADD PUSH1 0x0 PUSH2 0x100 EXP DUP2 SLOAD DUP2 PUSH1 0x1 PUSH1 0x1 PUSH1 0xA0 SHL SUB MUL NOT AND SWAP1 DUP4 PUSH1 0x1 PUSH1 0x1 PUSH1 0xA0 SHL SUB AND MUL OR SWAP1 SSTORE POP PUSH1 0x60 DUP3 ADD MLOAD DUP2 PUSH1 0x3 ADD SSTORE PUSH1 0x80 DUP3 ADD MLOAD DUP2 PUSH1 0x4 ADD SSTORE SWAP1 POP POP PUSH1 0x1 PUSH1 0x7 PUSH1 0x0 DUP12 DUP2 MSTORE PUSH1 0x20 ADD SWAP1 DUP2 MSTORE PUSH1 0x20 ADD PUSH1 0x0 KECCAK256 PUSH1 0x0 DUP10 DUP2 MSTORE PUSH1 0x20 ADD SWAP1 DUP2 MSTORE PUSH1 0x20 ADD PUSH1 0x0 KECCAK256 PUSH1 0x0 PUSH2 0x100 EXP DUP2 SLOAD DUP2 PUSH1 0xFF MUL NOT AND SWAP1 DUP4 ISZERO ISZERO MUL OR SWAP1 SSTORE POP PUSH1 0x8 PUSH1 0x0 DUP9 DUP2 MSTORE PUSH1 0x20 ADD SWAP1 DUP2 MSTORE PUSH1 0x20 ADD PUSH1 0x0 KECCAK256 DUP10 SWAP1 DUP1 PUSH1 0x1 DUP2 SLOAD ADD DUP1 DUP3 SSTORE DUP1 SWAP2 POP POP PUSH1 0x1 SWAP1 SUB SWAP1 PUSH1 0x0 MSTORE PUSH1 0x20 PUSH1 0x0 KECCAK256 ADD PUSH1 0x0 SWAP1 SWAP2 SWAP1 SWAP2 SWAP1 SWAP2 POP SSTORE PUSH2 0x1040 DUP5 DUP3 PUSH32 0x0 PUSH1 0x1 PUSH1 0x1 PUSH1 0xA0 SHL SUB AND PUSH2 0x1D4E SWAP1 SWAP3 SWAP2 SWAP1 PUSH4 0xFFFFFFFF AND JUMP JUMPDEST DUP4 PUSH1 0x1 PUSH1 0x1 PUSH1 0xA0 SHL SUB AND CALLER PUSH1 0x1 PUSH1 0x1 PUSH1 0xA0 SHL SUB AND DUP11 PUSH32 0x5F6D78D5D398FBDE6899ED8B8490A27AE6F7910869243D2A50B6D94B71C6CA2B DUP12 DUP12 DUP12 DUP8 TIMESTAMP PUSH1 0x40 MLOAD PUSH2 0x108C SWAP6 SWAP5 SWAP4 SWAP3 SWAP2 SWAP1 PUSH2 0x3684 JUMP JUMPDEST PUSH1 0x40 MLOAD DUP1 SWAP2 SUB SWAP1 LOG4 POP POP POP POP POP POP POP POP POP JUMP JUMPDEST PUSH1 0x0 PUSH2 0x10A9 PUSH2 0x1C73 JUMP JUMPDEST PUSH1 0x1 PUSH1 0x1 PUSH1 0xA0 SHL SUB AND PUSH2 0x10BA PUSH2 0x12E7 JUMP JUMPDEST PUSH1 0x1 PUSH1 0x1 PUSH1 0xA0 SHL SUB AND EQ PUSH2 0x1103 JUMPI PUSH1 0x40 DUP1 MLOAD PUSH3 0x461BCD PUSH1 0xE5 SHL DUP2 MSTORE PUSH1 0x20 PUSH1 0x4 DUP3 ADD DUP2 SWAP1 MSTORE PUSH1 0x24 DUP3 ADD MSTORE PUSH1 0x0 DUP1 MLOAD PUSH1 0x20 PUSH2 0x38BA DUP4 CODECOPY DUP2 MLOAD SWAP2 MSTORE PUSH1 0x44 DUP3 ADD MSTORE SWAP1 MLOAD SWAP1 DUP2 SWAP1 SUB PUSH1 0x64 ADD SWAP1 REVERT JUMPDEST PUSH1 0x0 DUP4 MLOAD GT PUSH2 0x1124 JUMPI PUSH1 0x40 MLOAD PUSH3 0x461BCD PUSH1 0xE5 SHL DUP2 MSTORE PUSH1 0x4 ADD PUSH2 0x54F SWAP1 PUSH2 0x32A3 JUMP JUMPDEST PUSH1 0x0 DUP3 GT PUSH2 0x1144 JUMPI PUSH1 0x40 MLOAD PUSH3 0x461BCD PUSH1 0xE5 SHL DUP2 MSTORE PUSH1 0x4 ADD PUSH2 0x54F SWAP1 PUSH2 0x32CF JUMP JUMPDEST PUSH1 0x3 DUP1 SLOAD PUSH1 0x1 DUP2 ADD DUP3 SSTORE PUSH1 0x40 DUP1 MLOAD PUSH2 0x140 DUP2 ADD SWAP1 SWAP2 MSTORE DUP2 DUP2 MSTORE SWAP1 SWAP2 PUSH1 0x20 DUP3 ADD SWAP1 DUP9 SWAP1 DUP2 GT ISZERO PUSH2 0x116F JUMPI INVALID JUMPDEST DUP2 MSTORE PUSH1 0x20 ADD DUP7 PUSH1 0x1 DUP2 GT ISZERO PUSH2 0x1180 JUMPI INVALID JUMPDEST DUP2 MSTORE PUSH1 0x20 ADD DUP6 DUP2 MSTORE PUSH1 0x20 ADD DUP5 DUP2 MSTORE PUSH1 0x20 ADD PUSH1 0x0 DUP2 MSTORE PUSH1 0x20 ADD PUSH1 0x0 DUP2 MSTORE PUSH1 0x20 ADD PUSH1 0x0 DUP2 MSTORE PUSH1 0x20 ADD PUSH1 0x0 DUP2 MSTORE PUSH1 0x20 ADD PUSH1 0x1 ISZERO ISZERO DUP2 MSTORE POP PUSH1 0x4 PUSH1 0x0 DUP4 DUP2 MSTORE PUSH1 0x20 ADD SWAP1 DUP2 MSTORE PUSH1 0x20 ADD PUSH1 0x0 KECCAK256 PUSH1 0x0 DUP3 ADD MLOAD DUP2 PUSH1 0x0 ADD SSTORE PUSH1 0x20 DUP3 ADD MLOAD DUP2 PUSH1 0x1 ADD PUSH1 0x0 PUSH2 0x100 EXP DUP2 SLOAD DUP2 PUSH1 0xFF MUL NOT AND SWAP1 DUP4 PUSH1 0x3 DUP2 GT ISZERO PUSH2 0x11F5 JUMPI INVALID JUMPDEST MUL OR SWAP1 SSTORE POP PUSH1 0x40 DUP3 ADD MLOAD DUP2 PUSH1 0x1 ADD PUSH1 0x1 PUSH2 0x100 EXP DUP2 SLOAD DUP2 PUSH1 0xFF MUL NOT AND SWAP1 DUP4 PUSH1 0x1 DUP2 GT ISZERO PUSH2 0x121E JUMPI INVALID JUMPDEST MUL OR SWAP1 SSTORE POP PUSH1 0x60 DUP3 ADD MLOAD DUP1 MLOAD PUSH2 0x123E SWAP2 PUSH1 0x2 DUP5 ADD SWAP2 PUSH1 0x20 SWAP1 SWAP2 ADD SWAP1 PUSH2 0x2A3F JUMP JUMPDEST POP PUSH1 0x80 DUP3 ADD MLOAD PUSH1 0x3 DUP3 ADD SSTORE PUSH1 0xA0 DUP3 ADD MLOAD PUSH1 0x4 DUP3 ADD SSTORE PUSH1 0xC0 DUP3 ADD MLOAD PUSH1 0x5 DUP3 ADD SSTORE PUSH1 0xE0 DUP3 ADD MLOAD PUSH1 0x6 DUP3 ADD SSTORE PUSH2 0x100 DUP3 ADD MLOAD PUSH1 0x7 DUP3 ADD SSTORE PUSH2 0x120 SWAP1 SWAP2 ADD MLOAD PUSH1 0x8 SWAP1 SWAP2 ADD DUP1 SLOAD PUSH1 0xFF NOT AND SWAP2 ISZERO ISZERO SWAP2 SWAP1 SWAP2 OR SWAP1 SSTORE PUSH1 0x40 MLOAD DUP2 SWAP1 PUSH32 0xA359134B476F4B3E621AD56F265A9173E1D6890866FC0250CAA7E37F2B55F60C SWAP1 PUSH2 0x12C5 SWAP1 DUP10 SWAP1 DUP10 SWAP1 DUP10 SWAP1 DUP10 SWAP1 PUSH2 0x31E3 JUMP JUMPDEST PUSH1 0x40 MLOAD DUP1 SWAP2 SUB SWAP1 LOG2 SWAP1 POP JUMPDEST SWAP5 SWAP4 POP POP POP POP JUMP JUMPDEST PUSH1 0x2 SLOAD PUSH1 0x1 PUSH1 0x1 PUSH1 0xA0 SHL SUB AND DUP2 JUMP JUMPDEST PUSH1 0x0 SLOAD PUSH1 0x1 PUSH1 0x1 PUSH1 0xA0 SHL SUB AND SWAP1 JUMP JUMPDEST PUSH2 0x12FE PUSH2 0x2ACB JUMP JUMPDEST PUSH1 0x0 DUP3 DUP2 MSTORE PUSH1 0x4 PUSH1 0x20 SWAP1 DUP2 MSTORE PUSH1 0x40 SWAP2 DUP3 SWAP1 KECCAK256 DUP3 MLOAD PUSH2 0x140 DUP2 ADD SWAP1 SWAP4 MSTORE DUP1 SLOAD DUP4 MSTORE PUSH1 0x1 DUP2 ADD SLOAD SWAP1 SWAP2 DUP4 ADD SWAP1 PUSH1 0xFF AND PUSH1 0x3 DUP2 GT ISZERO PUSH2 0x1336 JUMPI INVALID JUMPDEST PUSH1 0x3 DUP2 GT ISZERO PUSH2 0x1341 JUMPI INVALID JUMPDEST DUP2 MSTORE PUSH1 0x20 ADD PUSH1 0x1 DUP3 ADD PUSH1 0x1 SWAP1 SLOAD SWAP1 PUSH2 0x100 EXP SWAP1 DIV PUSH1 0xFF AND PUSH1 0x1 DUP2 GT ISZERO PUSH2 0x1363 JUMPI INVALID JUMPDEST PUSH1 0x1 DUP2 GT ISZERO PUSH2 0x136E JUMPI INVALID JUMPDEST DUP2 MSTORE PUSH1 0x2 DUP3 DUP2 ADD DUP1 SLOAD PUSH1 0x40 DUP1 MLOAD PUSH1 0x20 PUSH1 0x1 DUP5 AND ISZERO PUSH2 0x100 MUL PUSH1 0x0 NOT ADD SWAP1 SWAP4 AND SWAP5 SWAP1 SWAP5 DIV PUSH1 0x1F DUP2 ADD DUP4 SWAP1 DIV DUP4 MUL DUP6 ADD DUP4 ADD SWAP1 SWAP2 MSTORE DUP1 DUP5 MSTORE SWAP4 DUP2 ADD SWAP4 SWAP1 DUP4 ADD DUP3 DUP3 DUP1 ISZERO PUSH2 0x13FA JUMPI DUP1 PUSH1 0x1F LT PUSH2 0x13CF JUMPI PUSH2 0x100 DUP1 DUP4 SLOAD DIV MUL DUP4 MSTORE SWAP2 PUSH1 0x20 ADD SWAP2 PUSH2 0x13FA JUMP JUMPDEST DUP3 ADD SWAP2 SWAP1 PUSH1 0x0 MSTORE PUSH1 0x20 PUSH1 0x0 KECCAK256 SWAP1 JUMPDEST DUP2 SLOAD DUP2 MSTORE SWAP1 PUSH1 0x1 ADD SWAP1 PUSH1 0x20 ADD DUP1 DUP4 GT PUSH2 0x13DD JUMPI DUP3 SWAP1 SUB PUSH1 0x1F AND DUP3 ADD SWAP2 JUMPDEST POP POP POP SWAP2 DUP4 MSTORE POP POP PUSH1 0x3 DUP3 ADD SLOAD PUSH1 0x20 DUP3 ADD MSTORE PUSH1 0x4 DUP3 ADD SLOAD PUSH1 0x40 DUP3 ADD MSTORE PUSH1 0x5 DUP3 ADD SLOAD PUSH1 0x60 DUP3 ADD MSTORE PUSH1 0x6 DUP3 ADD SLOAD PUSH1 0x80 DUP3 ADD MSTORE PUSH1 0x7 DUP3 ADD SLOAD PUSH1 0xA0 DUP3 ADD MSTORE PUSH1 0x8 SWAP1 SWAP2 ADD SLOAD PUSH1 0xFF AND ISZERO ISZERO PUSH1 0xC0 SWAP1 SWAP2 ADD MSTORE SWAP1 POP JUMPDEST SWAP2 SWAP1 POP JUMP JUMPDEST PUSH1 0x3 SLOAD DUP2 JUMP JUMPDEST PUSH1 0x40 MLOAD PUSH4 0x82E15E51 PUSH1 0xE0 SHL DUP2 MSTORE ADDRESS SWAP1 PUSH4 0x82E15E51 SWAP1 PUSH2 0x1482 SWAP1 DUP10 SWAP1 DUP10 SWAP1 DUP10 SWAP1 DUP10 SWAP1 DUP10 SWAP1 CALLER SWAP1 DUP11 SWAP1 PUSH1 0x4 ADD PUSH2 0x36B7 JUMP JUMPDEST PUSH1 0x0 PUSH1 0x40 MLOAD DUP1 DUP4 SUB DUP2 PUSH1 0x0 DUP8 DUP1 EXTCODESIZE ISZERO DUP1 ISZERO PUSH2 0x149C JUMPI PUSH1 0x0 DUP1 REVERT JUMPDEST POP GAS CALL ISZERO DUP1 ISZERO PUSH2 0x14B0 JUMPI RETURNDATASIZE PUSH1 0x0 DUP1 RETURNDATACOPY RETURNDATASIZE PUSH1 0x0 REVERT JUMPDEST POP POP POP POP POP POP POP POP POP POP JUMP JUMPDEST PUSH2 0x14C4 PUSH2 0x2B21 JUMP JUMPDEST PUSH1 0x0 DUP4 DUP2 MSTORE PUSH1 0x6 PUSH1 0x20 SWAP1 DUP2 MSTORE PUSH1 0x40 DUP1 DUP4 KECCAK256 PUSH1 0x1 PUSH1 0x1 PUSH1 0xA0 SHL SUB DUP7 DUP2 AND DUP6 MSTORE SWAP1 DUP4 MSTORE SWAP3 DUP2 SWAP1 KECCAK256 DUP2 MLOAD PUSH1 0xE0 DUP2 ADD DUP4 MSTORE DUP2 SLOAD DUP2 MSTORE PUSH1 0x1 DUP1 DUP4 ADD SLOAD SWAP1 SWAP6 AND DUP2 DUP6 ADD MSTORE PUSH1 0x2 DUP1 DUP4 ADD SLOAD DUP3 DUP6 ADD MSTORE PUSH1 0x3 DUP4 ADD SLOAD PUSH1 0x60 DUP4 ADD MSTORE PUSH1 0x4 DUP4 ADD SLOAD PUSH1 0xFF DUP2 AND ISZERO ISZERO PUSH1 0x80 DUP5 ADD MSTORE PUSH2 0x100 SWAP1 DUP2 SWAP1 DIV PUSH4 0xFFFFFFFF AND PUSH1 0xA0 DUP5 ADD MSTORE PUSH1 0x5 DUP5 ADD DUP1 SLOAD DUP7 MLOAD SWAP9 DUP2 AND ISZERO SWAP1 SWAP3 MUL PUSH1 0x0 NOT ADD SWAP1 SWAP2 AND SWAP2 SWAP1 SWAP2 DIV PUSH1 0x1F DUP2 ADD DUP7 SWAP1 DIV DUP7 MUL DUP8 ADD DUP7 ADD SWAP1 SWAP5 MSTORE DUP4 DUP7 MSTORE SWAP1 SWAP5 SWAP2 SWAP4 PUSH1 0xC0 DUP7 ADD SWAP4 SWAP1 DUP4 ADD DUP3 DUP3 DUP1 ISZERO PUSH2 0x15C0 JUMPI DUP1 PUSH1 0x1F LT PUSH2 0x1595 JUMPI PUSH2 0x100 DUP1 DUP4 SLOAD DIV MUL DUP4 MSTORE SWAP2 PUSH1 0x20 ADD SWAP2 PUSH2 0x15C0 JUMP JUMPDEST DUP3 ADD SWAP2 SWAP1 PUSH1 0x0 MSTORE PUSH1 0x20 PUSH1 0x0 KECCAK256 SWAP1 JUMPDEST DUP2 SLOAD DUP2 MSTORE SWAP1 PUSH1 0x1 ADD SWAP1 PUSH1 0x20 ADD DUP1 DUP4 GT PUSH2 0x15A3 JUMPI DUP3 SWAP1 SUB PUSH1 0x1F AND DUP3 ADD SWAP2 JUMPDEST POP POP POP POP POP DUP2 MSTORE POP POP SWAP1 POP SWAP3 SWAP2 POP POP JUMP JUMPDEST PUSH1 0x3 SLOAD SWAP1 JUMP JUMPDEST PUSH2 0x15DF PUSH2 0x1C73 JUMP JUMPDEST PUSH1 0x1 PUSH1 0x1 PUSH1 0xA0 SHL SUB AND PUSH2 0x15F0 PUSH2 0x12E7 JUMP JUMPDEST PUSH1 0x1 PUSH1 0x1 PUSH1 0xA0 SHL SUB AND EQ PUSH2 0x1639 JUMPI PUSH1 0x40 DUP1 MLOAD PUSH3 0x461BCD PUSH1 0xE5 SHL DUP2 MSTORE PUSH1 0x20 PUSH1 0x4 DUP3 ADD DUP2 SWAP1 MSTORE PUSH1 0x24 DUP3 ADD MSTORE PUSH1 0x0 DUP1 MLOAD PUSH1 0x20 PUSH2 0x38BA DUP4 CODECOPY DUP2 MLOAD SWAP2 MSTORE PUSH1 0x44 DUP3 ADD MSTORE SWAP1 MLOAD SWAP1 DUP2 SWAP1 SUB PUSH1 0x64 ADD SWAP1 REVERT JUMPDEST PUSH1 0x2 DUP1 SLOAD PUSH1 0x1 PUSH1 0x1 PUSH1 0xA0 SHL SUB NOT AND PUSH1 0x1 PUSH1 0x1 PUSH1 0xA0 SHL SUB SWAP3 SWAP1 SWAP3 AND SWAP2 SWAP1 SWAP2 OR SWAP1 SSTORE JUMP JUMPDEST CALLER ADDRESS EQ PUSH2 0x167A JUMPI PUSH1 0x40 MLOAD PUSH3 0x461BCD PUSH1 0xE5 SHL DUP2 MSTORE PUSH1 0x4 ADD PUSH2 0x54F SWAP1 PUSH2 0x3345 JUMP JUMPDEST PUSH1 0x0 PUSH2 0x16C0 PUSH1 0x0 DUP5 DUP5 DUP1 DUP1 PUSH1 0x1F ADD PUSH1 0x20 DUP1 SWAP2 DIV MUL PUSH1 0x20 ADD PUSH1 0x40 MLOAD SWAP1 DUP2 ADD PUSH1 0x40 MSTORE DUP1 SWAP4 SWAP3 SWAP2 SWAP1 DUP2 DUP2 MSTORE PUSH1 0x20 ADD DUP4 DUP4 DUP1 DUP3 DUP5 CALLDATACOPY PUSH1 0x0 SWAP3 ADD SWAP2 SWAP1 SWAP2 MSTORE POP SWAP3 SWAP4 SWAP3 POP POP PUSH2 0x1DA5 SWAP1 POP JUMP JUMPDEST SWAP1 POP PUSH2 0x16D1 PUSH3 0xFFFFFF NOT DUP3 AND PUSH2 0x1DC0 JUMP JUMPDEST PUSH1 0x0 PUSH2 0x16E2 PUSH3 0xFFFFFF NOT DUP4 AND PUSH2 0x1E81 JUMP JUMPDEST SWAP1 POP PUSH1 0x0 PUSH2 0x16F5 PUSH3 0xFFFFFF NOT DUP4 AND PUSH2 0x1EB9 JUMP JUMPDEST PUSH1 0x1 PUSH1 0x1 PUSH1 0x60 SHL SUB AND GT PUSH2 0x171B JUMPI PUSH1 0x40 MLOAD PUSH3 0x461BCD PUSH1 0xE5 SHL DUP2 MSTORE PUSH1 0x4 ADD PUSH2 0x54F SWAP1 PUSH2 0x3375 JUMP JUMPDEST PUSH1 0x0 PUSH2 0x172C PUSH3 0xFFFFFF NOT DUP4 AND PUSH2 0x1EC8 JUMP JUMPDEST SWAP1 POP PUSH1 0x0 DUP1 DUP3 DUP1 PUSH1 0x20 ADD SWAP1 MLOAD DUP2 ADD SWAP1 PUSH2 0x1745 SWAP2 SWAP1 PUSH2 0x2DB7 JUMP JUMPDEST SWAP2 POP SWAP2 POP PUSH1 0x0 PUSH2 0x175A DUP7 PUSH3 0xFFFFFF NOT AND PUSH2 0x1F07 JUMP JUMPDEST PUSH1 0x0 DUP5 DUP2 MSTORE PUSH1 0x4 PUSH1 0x20 MSTORE PUSH1 0x40 SWAP1 KECCAK256 DUP1 SLOAD SWAP2 SWAP3 POP SWAP1 DUP5 EQ PUSH2 0x178C JUMPI PUSH1 0x40 MLOAD PUSH3 0x461BCD PUSH1 0xE5 SHL DUP2 MSTORE PUSH1 0x4 ADD PUSH2 0x54F SWAP1 PUSH2 0x3320 JUMP JUMPDEST PUSH1 0x8 DUP2 ADD SLOAD PUSH1 0xFF AND PUSH2 0x17B0 JUMPI PUSH1 0x40 MLOAD PUSH3 0x461BCD PUSH1 0xE5 SHL DUP2 MSTORE PUSH1 0x4 ADD PUSH2 0x54F SWAP1 PUSH2 0x33A4 JUMP JUMPDEST PUSH1 0x0 DUP3 GT PUSH2 0x17D0 JUMPI PUSH1 0x40 MLOAD PUSH3 0x461BCD PUSH1 0xE5 SHL DUP2 MSTORE PUSH1 0x4 ADD PUSH2 0x54F SWAP1 PUSH2 0x32CF JUMP JUMPDEST DUP1 PUSH1 0x5 ADD PUSH1 0x0 DUP2 SLOAD DUP1 SWAP3 SWAP2 SWAP1 PUSH1 0x1 ADD SWAP2 SWAP1 POP SSTORE POP DUP2 DUP2 PUSH1 0x7 ADD PUSH1 0x0 DUP3 DUP3 SLOAD ADD SWAP3 POP POP DUP2 SWAP1 SSTORE POP PUSH1 0x0 DUP11 PUSH1 0x0 SHR SWAP1 POP PUSH1 0x40 MLOAD DUP1 PUSH1 0xE0 ADD PUSH1 0x40 MSTORE DUP1 DUP4 PUSH1 0x5 ADD SLOAD DUP2 MSTORE PUSH1 0x20 ADD DUP3 PUSH1 0x1 PUSH1 0x1 PUSH1 0xA0 SHL SUB AND DUP2 MSTORE PUSH1 0x20 ADD DUP5 DUP2 MSTORE PUSH1 0x20 ADD TIMESTAMP DUP2 MSTORE PUSH1 0x20 ADD PUSH1 0x1 ISZERO ISZERO DUP2 MSTORE PUSH1 0x20 ADD DUP14 PUSH4 0xFFFFFFFF AND DUP2 MSTORE PUSH1 0x20 ADD PUSH1 0x40 MLOAD DUP1 PUSH1 0x40 ADD PUSH1 0x40 MSTORE DUP1 PUSH1 0xB DUP2 MSTORE PUSH1 0x20 ADD PUSH11 0x31B937B9B996B1B430B4B7 PUSH1 0xA9 SHL DUP2 MSTORE POP DUP2 MSTORE POP PUSH1 0x6 PUSH1 0x0 DUP8 DUP2 MSTORE PUSH1 0x20 ADD SWAP1 DUP2 MSTORE PUSH1 0x20 ADD PUSH1 0x0 KECCAK256 PUSH1 0x0 DUP4 PUSH1 0x1 PUSH1 0x1 PUSH1 0xA0 SHL SUB AND PUSH1 0x1 PUSH1 0x1 PUSH1 0xA0 SHL SUB AND DUP2 MSTORE PUSH1 0x20 ADD SWAP1 DUP2 MSTORE PUSH1 0x20 ADD PUSH1 0x0 KECCAK256 PUSH1 0x0 DUP3 ADD MLOAD DUP2 PUSH1 0x0 ADD SSTORE PUSH1 0x20 DUP3 ADD MLOAD DUP2 PUSH1 0x1 ADD PUSH1 0x0 PUSH2 0x100 EXP DUP2 SLOAD DUP2 PUSH1 0x1 PUSH1 0x1 PUSH1 0xA0 SHL SUB MUL NOT AND SWAP1 DUP4 PUSH1 0x1 PUSH1 0x1 PUSH1 0xA0 SHL SUB AND MUL OR SWAP1 SSTORE POP PUSH1 0x40 DUP3 ADD MLOAD DUP2 PUSH1 0x2 ADD SSTORE PUSH1 0x60 DUP3 ADD MLOAD DUP2 PUSH1 0x3 ADD SSTORE PUSH1 0x80 DUP3 ADD MLOAD DUP2 PUSH1 0x4 ADD PUSH1 0x0 PUSH2 0x100 EXP DUP2 SLOAD DUP2 PUSH1 0xFF MUL NOT AND SWAP1 DUP4 ISZERO ISZERO MUL OR SWAP1 SSTORE POP PUSH1 0xA0 DUP3 ADD MLOAD DUP2 PUSH1 0x4 ADD PUSH1 0x1 PUSH2 0x100 EXP DUP2 SLOAD DUP2 PUSH4 0xFFFFFFFF MUL NOT AND SWAP1 DUP4 PUSH4 0xFFFFFFFF AND MUL OR SWAP1 SSTORE POP PUSH1 0xC0 DUP3 ADD MLOAD DUP2 PUSH1 0x5 ADD SWAP1 DUP1 MLOAD SWAP1 PUSH1 0x20 ADD SWAP1 PUSH2 0x194E SWAP3 SWAP2 SWAP1 PUSH2 0x2A3F JUMP JUMPDEST POP SWAP1 POP POP DUP1 PUSH1 0x1 PUSH1 0x1 PUSH1 0xA0 SHL SUB AND DUP6 PUSH32 0x743501122BA2CD9590984350A2076553271A243E2B9DE8617A802D7C7AF7D301 DUP15 DUP7 TIMESTAMP PUSH1 0x40 MLOAD PUSH2 0x1990 SWAP4 SWAP3 SWAP2 SWAP1 PUSH2 0x3755 JUMP JUMPDEST PUSH1 0x40 MLOAD DUP1 SWAP2 SUB SWAP1 LOG3 POP POP POP POP POP POP POP POP POP POP POP POP JUMP JUMPDEST PUSH32 0x8DB8D84FAF8B2365D4FFD175C1A5BF60A3C3BB8FD65FB126C9BBC39786D11DA7 DUP2 JUMP JUMPDEST PUSH1 0x0 DUP4 DUP2 MSTORE PUSH1 0x7 PUSH1 0x20 SWAP1 DUP2 MSTORE PUSH1 0x40 DUP1 DUP4 KECCAK256 DUP5 DUP5 MSTORE SWAP1 SWAP2 MSTORE SWAP1 KECCAK256 SLOAD PUSH1 0xFF AND JUMPDEST SWAP4 SWAP3 POP POP POP JUMP JUMPDEST PUSH2 0x19F7 PUSH2 0x1C73 JUMP JUMPDEST PUSH1 0x1 PUSH1 0x1 PUSH1 0xA0 SHL SUB AND PUSH2 0x1A08 PUSH2 0x12E7 JUMP JUMPDEST PUSH1 0x1 PUSH1 0x1 PUSH1 0xA0 SHL SUB AND EQ PUSH2 0x1A51 JUMPI PUSH1 0x40 DUP1 MLOAD PUSH3 0x461BCD PUSH1 0xE5 SHL DUP2 MSTORE PUSH1 0x20 PUSH1 0x4 DUP3 ADD DUP2 SWAP1 MSTORE PUSH1 0x24 DUP3 ADD MSTORE PUSH1 0x0 DUP1 MLOAD PUSH1 0x20 PUSH2 0x38BA DUP4 CODECOPY DUP2 MLOAD SWAP2 MSTORE PUSH1 0x44 DUP3 ADD MSTORE SWAP1 MLOAD SWAP1 DUP2 SWAP1 SUB PUSH1 0x64 ADD SWAP1 REVERT JUMPDEST PUSH1 0x1 PUSH1 0x1 PUSH1 0xA0 SHL SUB DUP2 AND PUSH2 0x1A96 JUMPI PUSH1 0x40 MLOAD PUSH3 0x461BCD PUSH1 0xE5 SHL DUP2 MSTORE PUSH1 0x4 ADD DUP1 DUP1 PUSH1 0x20 ADD DUP3 DUP2 SUB DUP3 MSTORE PUSH1 0x26 DUP2 MSTORE PUSH1 0x20 ADD DUP1 PUSH2 0x3809 PUSH1 0x26 SWAP2 CODECOPY PUSH1 0x40 ADD SWAP2 POP POP PUSH1 0x40 MLOAD DUP1 SWAP2 SUB SWAP1 REVERT JUMPDEST PUSH1 0x0 DUP1 SLOAD PUSH1 0x40 MLOAD PUSH1 0x1 PUSH1 0x1 PUSH1 0xA0 SHL SUB DUP1 DUP6 AND SWAP4 SWAP3 AND SWAP2 PUSH32 0x8BE0079C531659141344CD1FD0A4F28419497F9722A3DAAFE3B4186F6B6457E0 SWAP2 LOG3 PUSH1 0x0 DUP1 SLOAD PUSH1 0x1 PUSH1 0x1 PUSH1 0xA0 SHL SUB NOT AND PUSH1 0x1 PUSH1 0x1 PUSH1 0xA0 SHL SUB SWAP3 SWAP1 SWAP3 AND SWAP2 SWAP1 SWAP2 OR SWAP1 SSTORE JUMP JUMPDEST PUSH1 0x6 PUSH1 0x20 SWAP1 DUP2 MSTORE PUSH1 0x0 SWAP3 DUP4 MSTORE PUSH1 0x40 DUP1 DUP5 KECCAK256 DUP3 MSTORE SWAP2 DUP4 MSTORE SWAP2 DUP2 SWAP1 KECCAK256 DUP1 SLOAD PUSH1 0x1 DUP1 DUP4 ADD SLOAD PUSH1 0x2 DUP1 DUP6 ADD SLOAD PUSH1 0x3 DUP7 ADD SLOAD PUSH1 0x4 DUP8 ADD SLOAD PUSH1 0x5 DUP9 ADD DUP1 SLOAD DUP11 MLOAD PUSH2 0x100 SWAP9 DUP3 AND ISZERO DUP10 MUL PUSH1 0x0 NOT ADD SWAP1 SWAP2 AND SWAP6 SWAP1 SWAP6 DIV PUSH1 0x1F DUP2 ADD DUP13 SWAP1 DIV DUP13 MUL DUP7 ADD DUP13 ADD SWAP1 SWAP11 MSTORE DUP10 DUP6 MSTORE SWAP7 SWAP10 PUSH1 0x1 PUSH1 0x1 PUSH1 0xA0 SHL SUB SWAP1 SWAP6 AND SWAP9 SWAP3 SWAP8 SWAP2 SWAP7 PUSH1 0xFF DUP3 AND SWAP7 SWAP1 SWAP2 DIV PUSH4 0xFFFFFFFF AND SWAP5 SWAP2 SWAP4 SWAP3 SWAP1 SWAP2 DUP4 ADD DUP3 DUP3 DUP1 ISZERO PUSH2 0x1BC9 JUMPI DUP1 PUSH1 0x1F LT PUSH2 0x1B9E JUMPI PUSH2 0x100 DUP1 DUP4 SLOAD DIV MUL DUP4 MSTORE SWAP2 PUSH1 0x20 ADD SWAP2 PUSH2 0x1BC9 JUMP JUMPDEST DUP3 ADD SWAP2 SWAP1 PUSH1 0x0 MSTORE PUSH1 0x20 PUSH1 0x0 KECCAK256 SWAP1 JUMPDEST DUP2 SLOAD DUP2 MSTORE SWAP1 PUSH1 0x1 ADD SWAP1 PUSH1 0x20 ADD DUP1 DUP4 GT PUSH2 0x1BAC JUMPI DUP3 SWAP1 SUB PUSH1 0x1F AND DUP3 ADD SWAP2 JUMPDEST POP POP POP POP POP SWAP1 POP DUP8 JUMP JUMPDEST PUSH1 0x1 SLOAD PUSH1 0x1 PUSH1 0x1 PUSH1 0xA0 SHL SUB AND DUP2 JUMP JUMPDEST PUSH1 0x8 PUSH1 0x20 MSTORE DUP2 PUSH1 0x0 MSTORE PUSH1 0x40 PUSH1 0x0 KECCAK256 DUP2 DUP2 SLOAD DUP2 LT PUSH2 0x1BFE JUMPI PUSH1 0x0 DUP1 REVERT JUMPDEST SWAP1 PUSH1 0x0 MSTORE PUSH1 0x20 PUSH1 0x0 KECCAK256 ADD PUSH1 0x0 SWAP2 POP SWAP2 POP POP SLOAD DUP2 JUMP JUMPDEST PUSH1 0x40 DUP1 MLOAD PUSH1 0x1 PUSH1 0x1 PUSH1 0xA0 SHL SUB DUP1 DUP7 AND PUSH1 0x24 DUP4 ADD MSTORE DUP5 AND PUSH1 0x44 DUP3 ADD MSTORE PUSH1 0x64 DUP1 DUP3 ADD DUP5 SWAP1 MSTORE DUP3 MLOAD DUP1 DUP4 SUB SWAP1 SWAP2 ADD DUP2 MSTORE PUSH1 0x84 SWAP1 SWAP2 ADD SWAP1 SWAP2 MSTORE PUSH1 0x20 DUP2 ADD DUP1 MLOAD PUSH1 0x1 PUSH1 0x1 PUSH1 0xE0 SHL SUB AND PUSH4 0x23B872DD PUSH1 0xE0 SHL OR SWAP1 MSTORE PUSH2 0x1C6D SWAP1 DUP6 SWAP1 PUSH2 0x1F18 JUMP JUMPDEST POP POP POP POP JUMP JUMPDEST CALLER SWAP1 JUMP JUMPDEST PUSH1 0x0 DUP1 PUSH32 0x8DB8D84FAF8B2365D4FFD175C1A5BF60A3C3BB8FD65FB126C9BBC39786D11DA7 DUP9 DUP9 DUP9 DUP9 DUP1 MLOAD SWAP1 PUSH1 0x20 ADD KECCAK256 DUP9 PUSH1 0x40 MLOAD PUSH1 0x20 ADD PUSH2 0x1CBC SWAP7 SWAP6 SWAP5 SWAP4 SWAP3 SWAP2 SWAP1 PUSH2 0x31B2 JUMP JUMPDEST PUSH1 0x40 MLOAD PUSH1 0x20 DUP2 DUP4 SUB SUB DUP2 MSTORE SWAP1 PUSH1 0x40 MSTORE DUP1 MLOAD SWAP1 PUSH1 0x20 ADD KECCAK256 SWAP1 POP PUSH1 0x0 PUSH32 0x0 DUP3 PUSH1 0x40 MLOAD PUSH1 0x20 ADD PUSH2 0x1D09 SWAP3 SWAP2 SWAP1 PUSH2 0x312B JUMP JUMPDEST PUSH1 0x40 DUP1 MLOAD PUSH1 0x1F NOT DUP2 DUP5 SUB ADD DUP2 MSTORE SWAP2 SWAP1 MSTORE DUP1 MLOAD PUSH1 0x20 SWAP1 SWAP2 ADD KECCAK256 SWAP1 POP PUSH1 0x0 PUSH2 0x1D2F DUP3 DUP7 PUSH2 0x1FC9 JUMP JUMPDEST PUSH1 0x1 SLOAD PUSH1 0x1 PUSH1 0x1 PUSH1 0xA0 SHL SUB SWAP1 DUP2 AND SWAP2 AND EQ SWAP11 SWAP10 POP POP POP POP POP POP POP POP POP POP JUMP JUMPDEST PUSH1 0x40 DUP1 MLOAD PUSH1 0x1 PUSH1 0x1 PUSH1 0xA0 SHL SUB DUP5 AND PUSH1 0x24 DUP3 ADD MSTORE PUSH1 0x44 DUP1 DUP3 ADD DUP5 SWAP1 MSTORE DUP3 MLOAD DUP1 DUP4 SUB SWAP1 SWAP2 ADD DUP2 MSTORE PUSH1 0x64 SWAP1 SWAP2 ADD SWAP1 SWAP2 MSTORE PUSH1 0x20 DUP2 ADD DUP1 MLOAD PUSH1 0x1 PUSH1 0x1 PUSH1 0xE0 SHL SUB AND PUSH4 0xA9059CBB PUSH1 0xE0 SHL OR SWAP1 MSTORE PUSH2 0x1DA0 SWAP1 DUP5 SWAP1 PUSH2 0x1F18 JUMP JUMPDEST POP POP POP JUMP JUMPDEST DUP2 MLOAD PUSH1 0x0 SWAP1 PUSH1 0x20 DUP5 ADD PUSH2 0x4F4 PUSH5 0xFFFFFFFFFF DUP6 AND DUP3 DUP5 PUSH2 0x2049 JUMP JUMPDEST PUSH2 0x1DCF PUSH3 0xFFFFFF NOT DUP3 AND PUSH2 0x2083 JUMP JUMPDEST PUSH2 0x1E14 JUMPI PUSH1 0x40 DUP1 MLOAD PUSH3 0x461BCD PUSH1 0xE5 SHL DUP2 MSTORE PUSH1 0x20 PUSH1 0x4 DUP3 ADD MSTORE PUSH1 0x11 PUSH1 0x24 DUP3 ADD MSTORE PUSH17 0x4D616C666F726D6564206D657373616765 PUSH1 0x78 SHL PUSH1 0x44 DUP3 ADD MSTORE SWAP1 MLOAD SWAP1 DUP2 SWAP1 SUB PUSH1 0x64 ADD SWAP1 REVERT JUMPDEST PUSH1 0xE4 PUSH2 0x1E25 PUSH3 0xFFFFFF NOT DUP4 AND PUSH2 0x1EB9 JUMP JUMPDEST PUSH1 0x1 PUSH1 0x1 PUSH1 0x60 SHL SUB AND LT ISZERO PUSH2 0xA3D JUMPI PUSH1 0x40 DUP1 MLOAD PUSH3 0x461BCD PUSH1 0xE5 SHL DUP2 MSTORE PUSH1 0x20 PUSH1 0x4 DUP3 ADD MSTORE PUSH1 0x1F PUSH1 0x24 DUP3 ADD MSTORE PUSH32 0x496E76616C6964206275726E206D6573736167653A20746F6F2073686F727400 PUSH1 0x44 DUP3 ADD MSTORE SWAP1 MLOAD SWAP1 DUP2 SWAP1 SUB PUSH1 0x64 ADD SWAP1 REVERT JUMPDEST PUSH1 0x0 PUSH2 0x1EB3 PUSH1 0xE4 DUP1 PUSH2 0x1E98 PUSH3 0xFFFFFF NOT DUP7 AND PUSH2 0x1EB9 JUMP JUMPDEST PUSH3 0xFFFFFF NOT DUP7 AND SWAP3 SWAP2 PUSH1 0x1 PUSH1 0x1 PUSH1 0x60 SHL SUB SWAP2 SUB AND PUSH1 0x0 PUSH2 0x20C0 JUMP JUMPDEST SWAP3 SWAP2 POP POP JUMP JUMPDEST PUSH1 0x18 SHR PUSH1 0x1 PUSH1 0x1 PUSH1 0x60 SHL SUB AND SWAP1 JUMP JUMPDEST PUSH1 0x60 PUSH1 0x0 DUP1 PUSH2 0x1ED6 DUP5 PUSH2 0x1EB9 JUMP JUMPDEST PUSH1 0x1 PUSH1 0x1 PUSH1 0x60 SHL SUB AND SWAP1 POP PUSH1 0x40 MLOAD SWAP2 POP DUP2 SWAP3 POP PUSH2 0x1EF6 DUP5 DUP4 PUSH1 0x20 ADD PUSH2 0x2125 JUMP JUMPDEST POP DUP2 DUP2 ADD PUSH1 0x20 ADD PUSH1 0x40 MSTORE SWAP1 MSTORE SWAP2 SWAP1 POP JUMP JUMPDEST PUSH1 0x0 PUSH2 0x1EB3 PUSH3 0xFFFFFF NOT DUP4 AND PUSH2 0x2256 JUMP JUMPDEST PUSH1 0x0 PUSH2 0x1F6D DUP3 PUSH1 0x40 MLOAD DUP1 PUSH1 0x40 ADD PUSH1 0x40 MSTORE DUP1 PUSH1 0x20 DUP2 MSTORE PUSH1 0x20 ADD PUSH32 0x5361666545524332303A206C6F772D6C6576656C2063616C6C206661696C6564 DUP2 MSTORE POP DUP6 PUSH1 0x1 PUSH1 0x1 PUSH1 0xA0 SHL SUB AND PUSH2 0x226B SWAP1 SWAP3 SWAP2 SWAP1 PUSH4 0xFFFFFFFF AND JUMP JUMPDEST DUP1 MLOAD SWAP1 SWAP2 POP ISZERO PUSH2 0x1DA0 JUMPI DUP1 DUP1 PUSH1 0x20 ADD SWAP1 MLOAD PUSH1 0x20 DUP2 LT ISZERO PUSH2 0x1F8C JUMPI PUSH1 0x0 DUP1 REVERT JUMPDEST POP MLOAD PUSH2 0x1DA0 JUMPI PUSH1 0x40 MLOAD PUSH3 0x461BCD PUSH1 0xE5 SHL DUP2 MSTORE PUSH1 0x4 ADD DUP1 DUP1 PUSH1 0x20 ADD DUP3 DUP2 SUB DUP3 MSTORE PUSH1 0x2A DUP2 MSTORE PUSH1 0x20 ADD DUP1 PUSH2 0x3914 PUSH1 0x2A SWAP2 CODECOPY PUSH1 0x40 ADD SWAP2 POP POP PUSH1 0x40 MLOAD DUP1 SWAP2 SUB SWAP1 REVERT JUMPDEST PUSH1 0x0 DUP2 MLOAD PUSH1 0x41 EQ PUSH2 0x2021 JUMPI PUSH1 0x40 DUP1 MLOAD PUSH3 0x461BCD PUSH1 0xE5 SHL DUP2 MSTORE PUSH1 0x20 PUSH1 0x4 DUP3 ADD MSTORE PUSH1 0x1F PUSH1 0x24 DUP3 ADD MSTORE PUSH32 0x45434453413A20696E76616C6964207369676E6174757265206C656E67746800 PUSH1 0x44 DUP3 ADD MSTORE SWAP1 MLOAD SWAP1 DUP2 SWAP1 SUB PUSH1 0x64 ADD SWAP1 REVERT JUMPDEST PUSH1 0x20 DUP3 ADD MLOAD PUSH1 0x40 DUP4 ADD MLOAD PUSH1 0x60 DUP5 ADD MLOAD PUSH1 0x0 BYTE PUSH2 0x203F DUP7 DUP3 DUP6 DUP6 PUSH2 0x227A JUMP JUMPDEST SWAP7 SWAP6 POP POP POP POP POP POP JUMP JUMPDEST PUSH1 0x0 DUP1 PUSH2 0x2056 DUP5 DUP5 PUSH2 0x23EF JUMP JUMPDEST SWAP1 POP PUSH1 0x40 MLOAD DUP2 GT ISZERO PUSH2 0x2066 JUMPI POP PUSH1 0x0 JUMPDEST DUP1 PUSH2 0x2078 JUMPI PUSH3 0xFFFFFF NOT SWAP2 POP POP PUSH2 0x19E8 JUMP JUMPDEST PUSH2 0x4F4 DUP6 DUP6 DUP6 PUSH2 0x2449 JUMP JUMPDEST PUSH1 0x0 PUSH2 0x208E DUP3 PUSH2 0x245C JUMP JUMPDEST PUSH5 0xFFFFFFFFFF AND PUSH5 0xFFFFFFFFFF EQ ISZERO PUSH2 0x20A9 JUMPI POP PUSH1 0x0 PUSH2 0x1448 JUMP JUMPDEST PUSH1 0x0 PUSH2 0x20B4 DUP4 PUSH2 0x2462 JUMP JUMPDEST PUSH1 0x40 MLOAD LT ISZERO SWAP4 SWAP3 POP POP POP JUMP JUMPDEST PUSH1 0x0 DUP1 PUSH2 0x20CC DUP7 PUSH2 0x2487 JUMP JUMPDEST PUSH1 0x1 PUSH1 0x1 PUSH1 0x60 SHL SUB AND SWAP1 POP PUSH2 0x20E0 DUP7 PUSH2 0x2462 JUMP JUMPDEST PUSH2 0x20F4 DUP6 PUSH2 0x20EE DUP5 DUP10 PUSH2 0x23EF JUMP JUMPDEST SWAP1 PUSH2 0x23EF JUMP JUMPDEST GT ISZERO PUSH2 0x2107 JUMPI PUSH3 0xFFFFFF NOT SWAP2 POP POP PUSH2 0x12D0 JUMP JUMPDEST PUSH2 0x2111 DUP2 DUP7 PUSH2 0x23EF JUMP JUMPDEST SWAP1 POP PUSH2 0x203F DUP4 PUSH5 0xFFFFFFFFFF AND DUP3 DUP7 PUSH2 0x2049 JUMP JUMPDEST PUSH1 0x0 PUSH2 0x2130 DUP4 PUSH2 0x2496 JUMP JUMPDEST PUSH2 0x216B JUMPI PUSH1 0x40 MLOAD PUSH3 0x461BCD PUSH1 0xE5 SHL DUP2 MSTORE PUSH1 0x4 ADD DUP1 DUP1 PUSH1 0x20 ADD DUP3 DUP2 SUB DUP3 MSTORE PUSH1 0x28 DUP2 MSTORE PUSH1 0x20 ADD DUP1 PUSH2 0x393E PUSH1 0x28 SWAP2 CODECOPY PUSH1 0x40 ADD SWAP2 POP POP PUSH1 0x40 MLOAD DUP1 SWAP2 SUB SWAP1 REVERT JUMPDEST PUSH2 0x2174 DUP4 PUSH2 0x2083 JUMP JUMPDEST PUSH2 0x21AF JUMPI PUSH1 0x40 MLOAD PUSH3 0x461BCD PUSH1 0xE5 SHL DUP2 MSTORE PUSH1 0x4 ADD DUP1 DUP1 PUSH1 0x20 ADD DUP3 DUP2 SUB DUP3 MSTORE PUSH1 0x2B DUP2 MSTORE PUSH1 0x20 ADD DUP1 PUSH2 0x3966 PUSH1 0x2B SWAP2 CODECOPY PUSH1 0x40 ADD SWAP2 POP POP PUSH1 0x40 MLOAD DUP1 SWAP2 SUB SWAP1 REVERT JUMPDEST PUSH1 0x0 PUSH2 0x21BA DUP5 PUSH2 0x1EB9 JUMP JUMPDEST PUSH1 0x1 PUSH1 0x1 PUSH1 0x60 SHL SUB AND SWAP1 POP PUSH1 0x0 PUSH2 0x21D0 DUP6 PUSH2 0x2487 JUMP JUMPDEST PUSH1 0x1 PUSH1 0x1 PUSH1 0x60 SHL SUB AND SWAP1 POP PUSH1 0x0 DUP1 PUSH1 0x40 MLOAD SWAP2 POP DUP6 DUP3 GT ISZERO PUSH2 0x21F1 JUMPI PUSH1 0x20 PUSH1 0x60 REVERT JUMPDEST DUP4 DUP7 DUP6 DUP6 PUSH1 0x4 GAS STATICCALL SWAP1 POP DUP1 PUSH2 0x223C JUMPI PUSH1 0x40 DUP1 MLOAD PUSH3 0x461BCD PUSH1 0xE5 SHL DUP2 MSTORE PUSH1 0x20 PUSH1 0x4 DUP3 ADD MSTORE PUSH1 0xC PUSH1 0x24 DUP3 ADD MSTORE PUSH12 0x6964656E74697479204F4F47 PUSH1 0xA0 SHL PUSH1 0x44 DUP3 ADD MSTORE SWAP1 MLOAD SWAP1 DUP2 SWAP1 SUB PUSH1 0x64 ADD SWAP1 REVERT JUMPDEST PUSH2 0x952 PUSH2 0x2248 DUP9 PUSH2 0x245C JUMP JUMPDEST PUSH5 0xFFFFFFFFFF AND DUP8 DUP7 PUSH2 0x2449 JUMP JUMPDEST PUSH1 0x0 PUSH2 0x1EB3 PUSH3 0xFFFFFF NOT DUP4 AND PUSH1 0x44 PUSH1 0x20 PUSH2 0x24A8 JUMP JUMPDEST PUSH1 0x60 PUSH2 0x12D0 DUP5 DUP5 PUSH1 0x0 DUP6 PUSH2 0x24C9 JUMP JUMPDEST PUSH1 0x0 PUSH32 0x7FFFFFFFFFFFFFFFFFFFFFFFFFFFFFFF5D576E7357A4501DDFE92F46681B20A0 DUP3 GT ISZERO PUSH2 0x22DB JUMPI PUSH1 0x40 MLOAD PUSH3 0x461BCD PUSH1 0xE5 SHL DUP2 MSTORE PUSH1 0x4 ADD DUP1 DUP1 PUSH1 0x20 ADD DUP3 DUP2 SUB DUP3 MSTORE PUSH1 0x22 DUP2 MSTORE PUSH1 0x20 ADD DUP1 PUSH2 0x382F PUSH1 0x22 SWAP2 CODECOPY PUSH1 0x40 ADD SWAP2 POP POP PUSH1 0x40 MLOAD DUP1 SWAP2 SUB SWAP1 REVERT JUMPDEST DUP4 PUSH1 0xFF AND PUSH1 0x1B EQ DUP1 PUSH2 0x22F0 JUMPI POP DUP4 PUSH1 0xFF AND PUSH1 0x1C EQ JUMPDEST PUSH2 0x232B JUMPI PUSH1 0x40 MLOAD PUSH3 0x461BCD PUSH1 0xE5 SHL DUP2 MSTORE PUSH1 0x4 ADD DUP1 DUP1 PUSH1 0x20 ADD DUP3 DUP2 SUB DUP3 MSTORE PUSH1 0x22 DUP2 MSTORE PUSH1 0x20 ADD DUP1 PUSH2 0x3898 PUSH1 0x22 SWAP2 CODECOPY PUSH1 0x40 ADD SWAP2 POP POP PUSH1 0x40 MLOAD DUP1 SWAP2 SUB SWAP1 REVERT JUMPDEST PUSH1 0x0 PUSH1 0x1 DUP7 DUP7 DUP7 DUP7 PUSH1 0x40 MLOAD PUSH1 0x0 DUP2 MSTORE PUSH1 0x20 ADD PUSH1 0x40 MSTORE PUSH1 0x40 MLOAD DUP1 DUP6 DUP2 MSTORE PUSH1 0x20 ADD DUP5 PUSH1 0xFF AND DUP2 MSTORE PUSH1 0x20 ADD DUP4 DUP2 MSTORE PUSH1 0x20 ADD DUP3 DUP2 MSTORE PUSH1 0x20 ADD SWAP5 POP POP POP POP POP PUSH1 0x20 PUSH1 0x40 MLOAD PUSH1 0x20 DUP2 SUB SWAP1 DUP1 DUP5 SUB SWAP1 DUP6 GAS STATICCALL ISZERO DUP1 ISZERO PUSH2 0x2387 JUMPI RETURNDATASIZE PUSH1 0x0 DUP1 RETURNDATACOPY RETURNDATASIZE PUSH1 0x0 REVERT JUMPDEST POP POP PUSH1 0x40 MLOAD PUSH1 0x1F NOT ADD MLOAD SWAP2 POP POP PUSH1 0x1 PUSH1 0x1 PUSH1 0xA0 SHL SUB DUP2 AND PUSH2 0x4F4 JUMPI PUSH1 0x40 DUP1 MLOAD PUSH3 0x461BCD PUSH1 0xE5 SHL DUP2 MSTORE PUSH1 0x20 PUSH1 0x4 DUP3 ADD MSTORE PUSH1 0x18 PUSH1 0x24 DUP3 ADD MSTORE PUSH32 0x45434453413A20696E76616C6964207369676E61747572650000000000000000 PUSH1 0x44 DUP3 ADD MSTORE SWAP1 MLOAD SWAP1 DUP2 SWAP1 SUB PUSH1 0x64 ADD SWAP1 REVERT JUMPDEST PUSH1 0x0 DUP3 DUP3 ADD DUP4 DUP2 LT ISZERO PUSH2 0x19E8 JUMPI PUSH1 0x40 DUP1 MLOAD PUSH3 0x461BCD PUSH1 0xE5 SHL DUP2 MSTORE PUSH1 0x20 PUSH1 0x4 DUP3 ADD MSTORE PUSH1 0x1B PUSH1 0x24 DUP3 ADD MSTORE PUSH32 0x536166654D6174683A206164646974696F6E206F766572666C6F770000000000 PUSH1 0x44 DUP3 ADD MSTORE SWAP1 MLOAD SWAP1 DUP2 SWAP1 SUB PUSH1 0x64 ADD SWAP1 REVERT JUMPDEST PUSH1 0x60 SWAP3 DUP4 SHL SWAP2 SWAP1 SWAP2 OR SWAP1 SWAP2 SHL OR PUSH1 0x18 SHL SWAP1 JUMP JUMPDEST PUSH1 0xD8 SHR SWAP1 JUMP JUMPDEST PUSH1 0x0 PUSH2 0x246D DUP3 PUSH2 0x1EB9 JUMP JUMPDEST PUSH2 0x2476 DUP4 PUSH2 0x2487 JUMP JUMPDEST ADD PUSH1 0x1 PUSH1 0x1 PUSH1 0x60 SHL SUB AND SWAP1 POP SWAP2 SWAP1 POP JUMP JUMPDEST PUSH1 0x78 SHR PUSH1 0x1 PUSH1 0x1 PUSH1 0x60 SHL SUB AND SWAP1 JUMP JUMPDEST PUSH1 0x0 PUSH2 0x24A1 DUP3 PUSH2 0x2619 JUMP JUMPDEST ISZERO SWAP3 SWAP2 POP POP JUMP JUMPDEST PUSH1 0x0 DUP2 PUSH1 0x20 SUB PUSH1 0x8 MUL PUSH1 0xFF AND PUSH2 0x24BF DUP6 DUP6 DUP6 PUSH2 0x2625 JUMP JUMPDEST SWAP1 SHR SWAP5 SWAP4 POP POP POP POP JUMP JUMPDEST PUSH1 0x60 DUP3 SELFBALANCE LT ISZERO PUSH2 0x250A JUMPI PUSH1 0x40 MLOAD PUSH3 0x461BCD PUSH1 0xE5 SHL DUP2 MSTORE PUSH1 0x4 ADD DUP1 DUP1 PUSH1 0x20 ADD DUP3 DUP2 SUB DUP3 MSTORE PUSH1 0x26 DUP2 MSTORE PUSH1 0x20 ADD DUP1 PUSH2 0x3851 PUSH1 0x26 SWAP2 CODECOPY PUSH1 0x40 ADD SWAP2 POP POP PUSH1 0x40 MLOAD DUP1 SWAP2 SUB SWAP1 REVERT JUMPDEST PUSH2 0x2513 DUP6 PUSH2 0x2788 JUMP JUMPDEST PUSH2 0x2564 JUMPI PUSH1 0x40 DUP1 MLOAD PUSH3 0x461BCD PUSH1 0xE5 SHL DUP2 MSTORE PUSH1 0x20 PUSH1 0x4 DUP3 ADD MSTORE PUSH1 0x1D PUSH1 0x24 DUP3 ADD MSTORE PUSH32 0x416464726573733A2063616C6C20746F206E6F6E2D636F6E7472616374000000 PUSH1 0x44 DUP3 ADD MSTORE SWAP1 MLOAD SWAP1 DUP2 SWAP1 SUB PUSH1 0x64 ADD SWAP1 REVERT JUMPDEST PUSH1 0x0 DUP1 DUP7 PUSH1 0x1 PUSH1 0x1 PUSH1 0xA0 SHL SUB AND DUP6 DUP8 PUSH1 0x40 MLOAD DUP1 DUP3 DUP1 MLOAD SWAP1 PUSH1 0x20 ADD SWAP1 DUP1 DUP4 DUP4 JUMPDEST PUSH1 0x20 DUP4 LT PUSH2 0x25A2 JUMPI DUP1 MLOAD DUP3 MSTORE PUSH1 0x1F NOT SWAP1 SWAP3 ADD SWAP2 PUSH1 0x20 SWAP2 DUP3 ADD SWAP2 ADD PUSH2 0x2583 JUMP JUMPDEST PUSH1 0x1 DUP4 PUSH1 0x20 SUB PUSH2 0x100 EXP SUB DUP1 NOT DUP3 MLOAD AND DUP2 DUP5 MLOAD AND DUP1 DUP3 OR DUP6 MSTORE POP POP POP POP POP POP SWAP1 POP ADD SWAP2 POP POP PUSH1 0x0 PUSH1 0x40 MLOAD DUP1 DUP4 SUB DUP2 DUP6 DUP8 GAS CALL SWAP3 POP POP POP RETURNDATASIZE DUP1 PUSH1 0x0 DUP2 EQ PUSH2 0x2604 JUMPI PUSH1 0x40 MLOAD SWAP2 POP PUSH1 0x1F NOT PUSH1 0x3F RETURNDATASIZE ADD AND DUP3 ADD PUSH1 0x40 MSTORE RETURNDATASIZE DUP3 MSTORE RETURNDATASIZE PUSH1 0x0 PUSH1 0x20 DUP5 ADD RETURNDATACOPY PUSH2 0x2609 JUMP JUMPDEST PUSH1 0x60 SWAP2 POP JUMPDEST POP SWAP2 POP SWAP2 POP PUSH2 0x952 DUP3 DUP3 DUP7 PUSH2 0x278E JUMP JUMPDEST PUSH3 0xFFFFFF NOT SWAP1 DUP2 AND EQ SWAP1 JUMP JUMPDEST PUSH1 0x0 PUSH1 0xFF DUP3 AND PUSH2 0x2637 JUMPI POP PUSH1 0x0 PUSH2 0x19E8 JUMP JUMPDEST PUSH2 0x2640 DUP5 PUSH2 0x1EB9 JUMP JUMPDEST PUSH1 0x1 PUSH1 0x1 PUSH1 0x60 SHL SUB AND PUSH2 0x2656 DUP5 PUSH1 0xFF DUP6 AND PUSH2 0x23EF JUMP JUMPDEST GT ISZERO PUSH2 0x2711 JUMPI PUSH2 0x268D PUSH2 0x2668 DUP6 PUSH2 0x2487 JUMP JUMPDEST PUSH1 0x1 PUSH1 0x1 PUSH1 0x60 SHL SUB AND PUSH2 0x267A DUP7 PUSH2 0x1EB9 JUMP JUMPDEST PUSH1 0x1 PUSH1 0x1 PUSH1 0x60 SHL SUB AND DUP6 DUP6 PUSH1 0xFF AND PUSH2 0x27F4 JUMP JUMPDEST PUSH1 0x40 MLOAD PUSH3 0x461BCD PUSH1 0xE5 SHL DUP2 MSTORE PUSH1 0x4 ADD DUP1 DUP1 PUSH1 0x20 ADD DUP3 DUP2 SUB DUP3 MSTORE DUP4 DUP2 DUP2 MLOAD DUP2 MSTORE PUSH1 0x20 ADD SWAP2 POP DUP1 MLOAD SWAP1 PUSH1 0x20 ADD SWAP1 DUP1 DUP4 DUP4 PUSH1 0x0 JUMPDEST DUP4 DUP2 LT ISZERO PUSH2 0x26D6 JUMPI DUP2 DUP2 ADD MLOAD DUP4 DUP3 ADD MSTORE PUSH1 0x20 ADD PUSH2 0x26BE JUMP JUMPDEST POP POP POP POP SWAP1 POP SWAP1 DUP2 ADD SWAP1 PUSH1 0x1F AND DUP1 ISZERO PUSH2 0x2703 JUMPI DUP1 DUP3 SUB DUP1 MLOAD PUSH1 0x1 DUP4 PUSH1 0x20 SUB PUSH2 0x100 EXP SUB NOT AND DUP2 MSTORE PUSH1 0x20 ADD SWAP2 POP JUMPDEST POP SWAP3 POP POP POP PUSH1 0x40 MLOAD DUP1 SWAP2 SUB SWAP1 REVERT JUMPDEST PUSH1 0x20 DUP3 PUSH1 0xFF AND GT ISZERO PUSH2 0x2754 JUMPI PUSH1 0x40 MLOAD PUSH3 0x461BCD PUSH1 0xE5 SHL DUP2 MSTORE PUSH1 0x4 ADD DUP1 DUP1 PUSH1 0x20 ADD DUP3 DUP2 SUB DUP3 MSTORE PUSH1 0x3A DUP2 MSTORE PUSH1 0x20 ADD DUP1 PUSH2 0x38DA PUSH1 0x3A SWAP2 CODECOPY PUSH1 0x40 ADD SWAP2 POP POP PUSH1 0x40 MLOAD DUP1 SWAP2 SUB SWAP1 REVERT JUMPDEST PUSH1 0x8 DUP3 MUL PUSH1 0x0 PUSH2 0x2763 DUP7 PUSH2 0x2487 JUMP JUMPDEST PUSH1 0x1 PUSH1 0x1 PUSH1 0x60 SHL SUB AND SWAP1 POP PUSH1 0x0 PUSH2 0x2779 DUP4 PUSH2 0x28E7 JUMP JUMPDEST SWAP2 SWAP1 SWAP6 ADD MLOAD AND SWAP6 SWAP5 POP POP POP POP POP JUMP JUMPDEST EXTCODESIZE ISZERO ISZERO SWAP1 JUMP JUMPDEST PUSH1 0x60 DUP4 ISZERO PUSH2 0x279D JUMPI POP DUP2 PUSH2 0x19E8 JUMP JUMPDEST DUP3 MLOAD ISZERO PUSH2 0x27AD JUMPI DUP3 MLOAD DUP1 DUP5 PUSH1 0x20 ADD REVERT JUMPDEST PUSH1 0x40 MLOAD PUSH3 0x461BCD PUSH1 0xE5 SHL DUP2 MSTORE PUSH1 0x20 PUSH1 0x4 DUP3 ADD DUP2 DUP2 MSTORE DUP5 MLOAD PUSH1 0x24 DUP5 ADD MSTORE DUP5 MLOAD DUP6 SWAP4 SWAP2 SWAP3 DUP4 SWAP3 PUSH1 0x44 ADD SWAP2 SWAP1 DUP6 ADD SWAP1 DUP1 DUP4 DUP4 PUSH1 0x0 DUP4 ISZERO PUSH2 0x26D6 JUMPI DUP2 DUP2 ADD MLOAD DUP4 DUP3 ADD MSTORE PUSH1 0x20 ADD PUSH2 0x26BE JUMP JUMPDEST PUSH1 0x60 PUSH1 0x0 PUSH2 0x2801 DUP7 PUSH2 0x28F6 JUMP JUMPDEST SWAP2 POP POP PUSH1 0x0 PUSH2 0x280F DUP7 PUSH2 0x28F6 JUMP JUMPDEST SWAP2 POP POP PUSH1 0x0 PUSH2 0x281D DUP7 PUSH2 0x28F6 JUMP JUMPDEST SWAP2 POP POP PUSH1 0x0 PUSH2 0x282B DUP7 PUSH2 0x28F6 JUMP JUMPDEST SWAP2 POP POP DUP4 DUP4 DUP4 DUP4 PUSH1 0x40 MLOAD PUSH1 0x20 ADD DUP1 DUP1 PUSH2 0x3991 PUSH1 0x35 SWAP2 CODECOPY PUSH1 0x1 PUSH1 0x1 PUSH1 0xD0 SHL SUB NOT PUSH1 0xD0 DUP8 DUP2 SHL DUP3 AND PUSH1 0x35 DUP5 ADD MSTORE PUSH15 0x40EED2E8D040D8CADCCEE8D04060F PUSH1 0x8B SHL PUSH1 0x3B DUP5 ADD MSTORE DUP7 SWAP1 SHL AND PUSH1 0x4A DUP3 ADD MSTORE PUSH1 0x50 ADD PUSH1 0x21 PUSH2 0x3877 DUP3 CODECOPY PUSH1 0x1 PUSH1 0x1 PUSH1 0xD0 SHL SUB NOT PUSH1 0xD0 SWAP5 DUP6 SHL DUP2 AND PUSH1 0x21 DUP4 ADD MSTORE PUSH15 0x40EED2E8D040D8CADCCEE8D04060F PUSH1 0x8B SHL PUSH1 0x27 DUP4 ADD MSTORE SWAP3 SWAP1 SWAP4 SHL SWAP1 SWAP2 AND PUSH1 0x36 DUP4 ADD MSTORE POP PUSH1 0x17 PUSH1 0xF9 SHL PUSH1 0x3C DUP3 ADD MSTORE PUSH1 0x40 DUP1 MLOAD PUSH1 0x1D DUP2 DUP5 SUB ADD DUP2 MSTORE PUSH1 0x3D SWAP1 SWAP3 ADD SWAP1 MSTORE SWAP12 SWAP11 POP POP POP POP POP POP POP POP POP POP POP JUMP JUMPDEST PUSH1 0x1 PUSH1 0xFF SHL PUSH1 0x0 NOT SWAP1 SWAP2 ADD SAR SWAP1 JUMP JUMPDEST PUSH1 0x0 DUP1 PUSH1 0x1F JUMPDEST PUSH1 0xF DUP2 PUSH1 0xFF AND GT ISZERO PUSH2 0x2940 JUMPI PUSH1 0xFF PUSH1 0x8 DUP3 MUL AND DUP5 SWAP1 SHR PUSH2 0x291B DUP2 PUSH2 0x298E JUMP JUMPDEST PUSH2 0xFFFF AND DUP5 OR SWAP4 POP DUP2 PUSH1 0xFF AND PUSH1 0x10 EQ PUSH2 0x2936 JUMPI PUSH1 0x10 DUP5 SWAP1 SHL SWAP4 POP JUMPDEST POP PUSH1 0x0 NOT ADD PUSH2 0x28FC JUMP JUMPDEST POP PUSH1 0xF JUMPDEST PUSH1 0xFF DUP2 PUSH1 0xFF AND LT ISZERO PUSH2 0x2988 JUMPI PUSH1 0xFF PUSH1 0x8 DUP3 MUL AND DUP5 SWAP1 SHR PUSH2 0x2963 DUP2 PUSH2 0x298E JUMP JUMPDEST PUSH2 0xFFFF AND DUP4 OR SWAP3 POP DUP2 PUSH1 0xFF AND PUSH1 0x0 EQ PUSH2 0x297E JUMPI PUSH1 0x10 DUP4 SWAP1 SHL SWAP3 POP JUMPDEST POP PUSH1 0x0 NOT ADD PUSH2 0x2944 JUMP JUMPDEST POP SWAP2 POP SWAP2 JUMP JUMPDEST PUSH1 0x0 PUSH2 0x29A0 PUSH1 0x4 DUP4 PUSH1 0xFF AND SWAP1 SHR PUSH2 0x29BE JUMP JUMPDEST PUSH1 0xFF AND OR PUSH1 0x8 SHL PUSH3 0xFFFF00 AND PUSH2 0x29B5 DUP3 PUSH2 0x29BE JUMP JUMPDEST PUSH1 0xFF AND OR SWAP2 SWAP1 POP JUMP JUMPDEST PUSH1 0x40 DUP1 MLOAD DUP1 DUP3 ADD SWAP1 SWAP2 MSTORE PUSH1 0x10 DUP1 DUP3 MSTORE PUSH16 0x181899199A1A9B1B9C1CB0B131B232B3 PUSH1 0x81 SHL PUSH1 0x20 DUP4 ADD MSTORE PUSH1 0x0 SWAP2 PUSH1 0xF DUP5 AND SWAP2 DUP3 SWAP1 DUP2 LT PUSH2 0x29F8 JUMPI INVALID JUMPDEST ADD PUSH1 0x20 ADD MLOAD PUSH1 0xF8 SHR SWAP4 SWAP3 POP POP POP JUMP JUMPDEST PUSH1 0x40 MLOAD DUP1 PUSH1 0xA0 ADD PUSH1 0x40 MSTORE DUP1 PUSH1 0x0 DUP2 MSTORE PUSH1 0x20 ADD PUSH1 0x0 DUP2 MSTORE PUSH1 0x20 ADD PUSH1 0x0 PUSH1 0x1 PUSH1 0x1 PUSH1 0xA0 SHL SUB AND DUP2 MSTORE PUSH1 0x20 ADD PUSH1 0x0 DUP2 MSTORE PUSH1 0x20 ADD PUSH1 0x0 DUP2 MSTORE POP SWAP1 JUMP JUMPDEST DUP3 DUP1 SLOAD PUSH1 0x1 DUP2 PUSH1 0x1 AND ISZERO PUSH2 0x100 MUL SUB AND PUSH1 0x2 SWAP1 DIV SWAP1 PUSH1 0x0 MSTORE PUSH1 0x20 PUSH1 0x0 KECCAK256 SWAP1 PUSH1 0x1F ADD PUSH1 0x20 SWAP1 DIV DUP2 ADD SWAP3 DUP3 PUSH2 0x2A75 JUMPI PUSH1 0x0 DUP6 SSTORE PUSH2 0x2ABB JUMP JUMPDEST DUP3 PUSH1 0x1F LT PUSH2 0x2A8E JUMPI DUP1 MLOAD PUSH1 0xFF NOT AND DUP4 DUP1 ADD OR DUP6 SSTORE PUSH2 0x2ABB JUMP JUMPDEST DUP3 DUP1 ADD PUSH1 0x1 ADD DUP6 SSTORE DUP3 ISZERO PUSH2 0x2ABB JUMPI SWAP2 DUP3 ADD JUMPDEST DUP3 DUP2 GT ISZERO PUSH2 0x2ABB JUMPI DUP3 MLOAD DUP3 SSTORE SWAP2 PUSH1 0x20 ADD SWAP2 SWAP1 PUSH1 0x1 ADD SWAP1 PUSH2 0x2AA0 JUMP JUMPDEST POP PUSH2 0x2AC7 SWAP3 SWAP2 POP PUSH2 0x2B6F JUMP JUMPDEST POP SWAP1 JUMP JUMPDEST PUSH1 0x40 DUP1 MLOAD PUSH2 0x140 DUP2 ADD SWAP1 SWAP2 MSTORE PUSH1 0x0 DUP1 DUP3 MSTORE PUSH1 0x20 DUP3 ADD SWAP1 DUP2 MSTORE PUSH1 0x20 ADD PUSH1 0x0 DUP2 MSTORE PUSH1 0x20 ADD PUSH1 0x60 DUP2 MSTORE PUSH1 0x20 ADD PUSH1 0x0 DUP2 MSTORE PUSH1 0x20 ADD PUSH1 0x0 DUP2 MSTORE PUSH1 0x20 ADD PUSH1 0x0 DUP2 MSTORE PUSH1 0x20 ADD PUSH1 0x0 DUP2 MSTORE PUSH1 0x20 ADD PUSH1 0x0 DUP2 MSTORE PUSH1 0x20 ADD PUSH1 0x0 ISZERO ISZERO DUP2 MSTORE POP SWAP1 JUMP JUMPDEST PUSH1 0x40 MLOAD DUP1 PUSH1 0xE0 ADD PUSH1 0x40 MSTORE DUP1 PUSH1 0x0 DUP2 MSTORE PUSH1 0x20 ADD PUSH1 0x0 PUSH1 0x1 PUSH1 0x1 PUSH1 0xA0 SHL SUB AND DUP2 MSTORE PUSH1 0x20 ADD PUSH1 0x0 DUP2 MSTORE PUSH1 0x20 ADD PUSH1 0x0 DUP2 MSTORE PUSH1 0x20 ADD PUSH1 0x0 ISZERO ISZERO DUP2 MSTORE PUSH1 0x20 ADD PUSH1 0x0 PUSH4 0xFFFFFFFF AND DUP2 MSTORE PUSH1 0x20 ADD PUSH1 0x60 DUP2 MSTORE POP SWAP1 JUMP JUMPDEST JUMPDEST DUP1 DUP3 GT ISZERO PUSH2 0x2AC7 JUMPI PUSH1 0x0 DUP2 SSTORE PUSH1 0x1 ADD PUSH2 0x2B70 JUMP JUMPDEST DUP1 CALLDATALOAD PUSH1 0x1 PUSH1 0x1 PUSH1 0xA0 SHL SUB DUP2 AND DUP2 EQ PUSH2 0x1448 JUMPI PUSH1 0x0 DUP1 REVERT JUMPDEST PUSH1 0x0 DUP1 DUP4 PUSH1 0x1F DUP5 ADD SLT PUSH2 0x2BAC JUMPI DUP2 DUP3 REVERT JUMPDEST POP DUP2 CALLDATALOAD PUSH8 0xFFFFFFFFFFFFFFFF DUP2 GT ISZERO PUSH2 0x2BC3 JUMPI DUP2 DUP3 REVERT JUMPDEST PUSH1 0x20 DUP4 ADD SWAP2 POP DUP4 PUSH1 0x20 DUP3 DUP6 ADD ADD GT ISZERO PUSH2 0x2BDB JUMPI PUSH1 0x0 DUP1 REVERT JUMPDEST SWAP3 POP SWAP3 SWAP1 POP JUMP JUMPDEST PUSH1 0x0 DUP3 PUSH1 0x1F DUP4 ADD SLT PUSH2 0x2BF2 JUMPI DUP1 DUP2 REVERT JUMPDEST DUP2 CALLDATALOAD PUSH2 0x2C05 PUSH2 0x2C00 DUP3 PUSH2 0x37BA JUMP JUMPDEST PUSH2 0x3796 JUMP JUMPDEST DUP2 DUP2 MSTORE DUP5 PUSH1 0x20 DUP4 DUP7 ADD ADD GT ISZERO PUSH2 0x2C19 JUMPI DUP3 DUP4 REVERT JUMPDEST DUP2 PUSH1 0x20 DUP6 ADD PUSH1 0x20 DUP4 ADD CALLDATACOPY SWAP1 DUP2 ADD PUSH1 0x20 ADD SWAP2 SWAP1 SWAP2 MSTORE SWAP3 SWAP2 POP POP JUMP JUMPDEST DUP1 CALLDATALOAD PUSH4 0xFFFFFFFF DUP2 AND DUP2 EQ PUSH2 0x1448 JUMPI PUSH1 0x0 DUP1 REVERT JUMPDEST PUSH1 0x0 PUSH1 0x20 DUP3 DUP5 SUB SLT ISZERO PUSH2 0x2C58 JUMPI DUP1 DUP2 REVERT JUMPDEST PUSH2 0x19E8 DUP3 PUSH2 0x2B84 JUMP JUMPDEST PUSH1 0x0 DUP1 PUSH1 0x0 DUP1 PUSH1 0x0 DUP1 PUSH1 0xC0 DUP8 DUP10 SUB SLT ISZERO PUSH2 0x2C79 JUMPI DUP2 DUP3 REVERT JUMPDEST PUSH2 0x2C82 DUP8 PUSH2 0x2B84 JUMP JUMPDEST SWAP6 POP PUSH1 0x20 DUP8 ADD CALLDATALOAD SWAP5 POP PUSH1 0x40 DUP8 ADD CALLDATALOAD SWAP4 POP PUSH1 0x60 DUP8 ADD CALLDATALOAD PUSH8 0xFFFFFFFFFFFFFFFF DUP1 DUP3 GT ISZERO PUSH2 0x2CAC JUMPI DUP4 DUP5 REVERT JUMPDEST PUSH2 0x2CB8 DUP11 DUP4 DUP12 ADD PUSH2 0x2BE2 JUMP JUMPDEST SWAP5 POP PUSH1 0x80 DUP10 ADD CALLDATALOAD SWAP4 POP PUSH1 0xA0 DUP10 ADD CALLDATALOAD SWAP2 POP DUP1 DUP3 GT ISZERO PUSH2 0x2CD4 JUMPI DUP3 DUP4 REVERT JUMPDEST POP PUSH2 0x2CE1 DUP10 DUP3 DUP11 ADD PUSH2 0x2BE2 JUMP JUMPDEST SWAP2 POP POP SWAP3 SWAP6 POP SWAP3 SWAP6 POP SWAP3 SWAP6 JUMP JUMPDEST PUSH1 0x0 DUP1 PUSH1 0x0 DUP1 PUSH1 0x80 DUP6 DUP8 SUB SLT ISZERO PUSH2 0x2D03 JUMPI DUP4 DUP5 REVERT JUMPDEST DUP5 CALLDATALOAD PUSH1 0x4 DUP2 LT PUSH2 0x2D11 JUMPI DUP5 DUP6 REVERT JUMPDEST SWAP4 POP PUSH1 0x20 DUP6 ADD CALLDATALOAD PUSH1 0x2 DUP2 LT PUSH2 0x2D24 JUMPI DUP4 DUP5 REVERT JUMPDEST SWAP3 POP PUSH1 0x40 DUP6 ADD CALLDATALOAD PUSH8 0xFFFFFFFFFFFFFFFF DUP2 GT ISZERO PUSH2 0x2D3F JUMPI DUP3 DUP4 REVERT JUMPDEST PUSH2 0x2D4B DUP8 DUP3 DUP9 ADD PUSH2 0x2BE2 JUMP JUMPDEST SWAP5 SWAP8 SWAP4 SWAP7 POP SWAP4 SWAP5 PUSH1 0x60 ADD CALLDATALOAD SWAP4 POP POP POP JUMP JUMPDEST PUSH1 0x0 PUSH1 0x20 DUP3 DUP5 SUB SLT ISZERO PUSH2 0x2D6D JUMPI DUP1 DUP2 REVERT JUMPDEST POP CALLDATALOAD SWAP2 SWAP1 POP JUMP JUMPDEST PUSH1 0x0 PUSH1 0x20 DUP3 DUP5 SUB SLT ISZERO PUSH2 0x2D85 JUMPI DUP1 DUP2 REVERT JUMPDEST POP MLOAD SWAP2 SWAP1 POP JUMP JUMPDEST PUSH1 0x0 DUP1 PUSH1 0x40 DUP4 DUP6 SUB SLT ISZERO PUSH2 0x2D9E JUMPI DUP2 DUP3 REVERT JUMPDEST DUP3 CALLDATALOAD SWAP2 POP PUSH2 0x2DAE PUSH1 0x20 DUP5 ADD PUSH2 0x2B84 JUMP JUMPDEST SWAP1 POP SWAP3 POP SWAP3 SWAP1 POP JUMP JUMPDEST PUSH1 0x0 DUP1 PUSH1 0x40 DUP4 DUP6 SUB SLT ISZERO PUSH2 0x2DC9 JUMPI DUP2 DUP3 REVERT JUMPDEST DUP3 MLOAD SWAP2 POP PUSH1 0x20 DUP4 ADD MLOAD PUSH8 0xFFFFFFFFFFFFFFFF DUP2 GT ISZERO PUSH2 0x2DE6 JUMPI DUP2 DUP3 REVERT JUMPDEST DUP4 ADD PUSH1 0x1F DUP2 ADD DUP6 SGT PUSH2 0x2DF6 JUMPI DUP2 DUP3 REVERT JUMPDEST DUP1 MLOAD PUSH2 0x2E04 PUSH2 0x2C00 DUP3 PUSH2 0x37BA JUMP JUMPDEST DUP2 DUP2 MSTORE DUP7 PUSH1 0x20 DUP4 DUP6 ADD ADD GT ISZERO PUSH2 0x2E18 JUMPI DUP4 DUP5 REVERT JUMPDEST PUSH2 0x2E29 DUP3 PUSH1 0x20 DUP4 ADD PUSH1 0x20 DUP7 ADD PUSH2 0x37DC JUMP JUMPDEST DUP1 SWAP4 POP POP POP POP SWAP3 POP SWAP3 SWAP1 POP JUMP JUMPDEST PUSH1 0x0 DUP1 PUSH1 0x40 DUP4 DUP6 SUB SLT ISZERO PUSH2 0x2E48 JUMPI DUP2 DUP3 REVERT JUMPDEST POP POP DUP1 CALLDATALOAD SWAP3 PUSH1 0x20 SWAP1 SWAP2 ADD CALLDATALOAD SWAP2 POP JUMP JUMPDEST PUSH1 0x0 DUP1 PUSH1 0x0 PUSH1 0x60 DUP5 DUP7 SUB SLT ISZERO PUSH2 0x2E6B JUMPI DUP3 DUP4 REVERT JUMPDEST DUP4 CALLDATALOAD SWAP3 POP PUSH1 0x20 DUP5 ADD CALLDATALOAD SWAP2 POP PUSH1 0x40 DUP5 ADD CALLDATALOAD PUSH8 0xFFFFFFFFFFFFFFFF DUP2 GT ISZERO PUSH2 0x2E8F JUMPI DUP2 DUP3 REVERT JUMPDEST PUSH2 0x2E9B DUP7 DUP3 DUP8 ADD PUSH2 0x2BE2 JUMP JUMPDEST SWAP2 POP POP SWAP3 POP SWAP3 POP SWAP3 JUMP JUMPDEST PUSH1 0x0 DUP1 PUSH1 0x0 PUSH1 0x60 DUP5 DUP7 SUB SLT ISZERO PUSH2 0x2EB9 JUMPI DUP1 DUP2 REVERT JUMPDEST POP POP DUP2 CALLDATALOAD SWAP4 PUSH1 0x20 DUP4 ADD CALLDATALOAD SWAP4 POP PUSH1 0x40 SWAP1 SWAP3 ADD CALLDATALOAD SWAP2 SWAP1 POP JUMP JUMPDEST PUSH1 0x0 DUP1 PUSH1 0x0 DUP1 PUSH1 0x0 DUP1 PUSH1 0x0 PUSH1 0xE0 DUP9 DUP11 SUB SLT ISZERO PUSH2 0x2EEA JUMPI DUP5 DUP6 REVERT JUMPDEST DUP8 CALLDATALOAD SWAP7 POP PUSH1 0x20 DUP9 ADD CALLDATALOAD SWAP6 POP PUSH1 0x40 DUP9 ADD CALLDATALOAD SWAP5 POP PUSH1 0x60 DUP9 ADD CALLDATALOAD PUSH8 0xFFFFFFFFFFFFFFFF DUP1 DUP3 GT ISZERO PUSH2 0x2F16 JUMPI DUP3 DUP4 REVERT JUMPDEST PUSH2 0x2F22 DUP12 DUP4 DUP13 ADD PUSH2 0x2BE2 JUMP JUMPDEST SWAP6 POP PUSH1 0x80 DUP11 ADD CALLDATALOAD SWAP5 POP PUSH2 0x2F37 PUSH1 0xA0 DUP12 ADD PUSH2 0x2B84 JUMP JUMPDEST SWAP4 POP PUSH1 0xC0 DUP11 ADD CALLDATALOAD SWAP2 POP DUP1 DUP3 GT ISZERO PUSH2 0x2F4C JUMPI DUP3 DUP4 REVERT JUMPDEST POP PUSH2 0x2F59 DUP11 DUP3 DUP12 ADD PUSH2 0x2BE2 JUMP JUMPDEST SWAP2 POP POP SWAP3 SWAP6 SWAP9 SWAP2 SWAP5 SWAP8 POP SWAP3 SWAP6 POP JUMP JUMPDEST PUSH1 0x0 DUP1 PUSH1 0x0 DUP1 PUSH1 0x0 DUP1 PUSH1 0xC0 DUP8 DUP10 SUB SLT ISZERO PUSH2 0x2F80 JUMPI DUP4 DUP5 REVERT JUMPDEST DUP7 CALLDATALOAD SWAP6 POP PUSH1 0x20 DUP8 ADD CALLDATALOAD SWAP5 POP PUSH1 0x40 DUP8 ADD CALLDATALOAD SWAP4 POP PUSH1 0x60 DUP8 ADD CALLDATALOAD PUSH8 0xFFFFFFFFFFFFFFFF DUP1 DUP3 GT ISZERO PUSH2 0x2CAC JUMPI DUP4 DUP5 REVERT JUMPDEST PUSH1 0x0 DUP1 PUSH1 0x0 DUP1 PUSH1 0x60 DUP6 DUP8 SUB SLT ISZERO PUSH2 0x2FC1 JUMPI DUP2 DUP3 REVERT JUMPDEST PUSH2 0x2FCA DUP6 PUSH2 0x2C33 JUMP JUMPDEST SWAP4 POP PUSH1 0x20 DUP6 ADD CALLDATALOAD SWAP3 POP PUSH1 0x40 DUP6 ADD CALLDATALOAD PUSH8 0xFFFFFFFFFFFFFFFF DUP2 GT ISZERO PUSH2 0x2FEC JUMPI DUP3 DUP4 REVERT JUMPDEST PUSH2 0x2FF8 DUP8 DUP3 DUP9 ADD PUSH2 0x2B9B JUMP JUMPDEST SWAP6 SWAP9 SWAP5 SWAP8 POP SWAP6 POP POP POP POP JUMP JUMPDEST PUSH1 0x0 DUP1 PUSH1 0x0 DUP1 PUSH1 0x0 PUSH1 0x80 DUP7 DUP9 SUB SLT ISZERO PUSH2 0x301B JUMPI DUP3 DUP4 REVERT JUMPDEST PUSH2 0x3024 DUP7 PUSH2 0x2C33 JUMP JUMPDEST SWAP5 POP PUSH1 0x20 DUP7 ADD CALLDATALOAD SWAP4 POP PUSH2 0x3039 PUSH1 0x40 DUP8 ADD PUSH2 0x2C33 JUMP JUMPDEST SWAP3 POP PUSH1 0x60 DUP7 ADD CALLDATALOAD PUSH8 0xFFFFFFFFFFFFFFFF DUP2 GT ISZERO PUSH2 0x3054 JUMPI DUP2 DUP3 REVERT JUMPDEST PUSH2 0x3060 DUP9 DUP3 DUP10 ADD PUSH2 0x2B9B JUMP JUMPDEST SWAP7 SWAP10 SWAP6 SWAP9 POP SWAP4 SWAP7 POP SWAP3 SWAP5 SWAP4 SWAP3 POP POP POP JUMP JUMPDEST ISZERO ISZERO SWAP1 MSTORE JUMP JUMPDEST PUSH1 0x0 DUP2 MLOAD DUP1 DUP5 MSTORE PUSH2 0x308F DUP2 PUSH1 0x20 DUP7 ADD PUSH1 0x20 DUP7 ADD PUSH2 0x37DC JUMP JUMPDEST PUSH1 0x1F ADD PUSH1 0x1F NOT AND SWAP3 SWAP1 SWAP3 ADD PUSH1 0x20 ADD SWAP3 SWAP2 POP POP JUMP JUMPDEST PUSH1 0x2 DUP2 LT PUSH2 0x30AD JUMPI INVALID JUMPDEST SWAP1 MSTORE JUMP JUMPDEST PUSH1 0x4 DUP2 LT PUSH2 0x30AD JUMPI INVALID JUMPDEST PUSH1 0x0 DUP1 DUP4 SLOAD PUSH1 0x1 DUP1 DUP3 AND PUSH1 0x0 DUP2 EQ PUSH2 0x30DA JUMPI PUSH1 0x1 DUP2 EQ PUSH2 0x30F1 JUMPI PUSH2 0x3120 JUMP JUMPDEST PUSH1 0xFF NOT DUP4 AND DUP7 MSTORE PUSH1 0x2 DUP4 DIV PUSH1 0x7F AND DUP7 ADD SWAP4 POP PUSH2 0x3120 JUMP JUMPDEST PUSH1 0x2 DUP4 DIV DUP8 DUP7 MSTORE PUSH1 0x20 DUP1 DUP8 KECCAK256 DUP8 JUMPDEST DUP4 DUP2 LT ISZERO PUSH2 0x3118 JUMPI DUP2 SLOAD DUP11 DUP3 ADD MSTORE SWAP1 DUP6 ADD SWAP1 DUP3 ADD PUSH2 0x30FF JUMP JUMPDEST POP POP POP DUP7 ADD SWAP4 POP JUMPDEST POP SWAP2 SWAP6 SWAP5 POP POP POP POP POP JUMP JUMPDEST PUSH2 0x1901 PUSH1 0xF0 SHL DUP2 MSTORE PUSH1 0x2 DUP2 ADD SWAP3 SWAP1 SWAP3 MSTORE PUSH1 0x22 DUP3 ADD MSTORE PUSH1 0x42 ADD SWAP1 JUMP JUMPDEST PUSH1 0x1 PUSH1 0x1 PUSH1 0xA0 SHL SUB SWAP2 SWAP1 SWAP2 AND DUP2 MSTORE PUSH1 0x20 ADD SWAP1 JUMP JUMPDEST PUSH1 0x20 DUP1 DUP3 MSTORE DUP3 MLOAD DUP3 DUP3 ADD DUP2 SWAP1 MSTORE PUSH1 0x0 SWAP2 SWAP1 DUP5 DUP3 ADD SWAP1 PUSH1 0x40 DUP6 ADD SWAP1 DUP5 JUMPDEST DUP2 DUP2 LT ISZERO PUSH2 0x3192 JUMPI DUP4 MLOAD DUP4 MSTORE SWAP3 DUP5 ADD SWAP3 SWAP2 DUP5 ADD SWAP2 PUSH1 0x1 ADD PUSH2 0x3176 JUMP JUMPDEST POP SWAP1 SWAP7 SWAP6 POP POP POP POP POP POP JUMP JUMPDEST SWAP1 ISZERO ISZERO DUP2 MSTORE PUSH1 0x20 ADD SWAP1 JUMP JUMPDEST SWAP1 DUP2 MSTORE PUSH1 0x20 ADD SWAP1 JUMP JUMPDEST SWAP6 DUP7 MSTORE PUSH1 0x1 PUSH1 0x1 PUSH1 0xA0 SHL SUB SWAP5 SWAP1 SWAP5 AND PUSH1 0x20 DUP7 ADD MSTORE PUSH1 0x40 DUP6 ADD SWAP3 SWAP1 SWAP3 MSTORE PUSH1 0x60 DUP5 ADD MSTORE PUSH1 0x80 DUP4 ADD MSTORE PUSH1 0xA0 DUP3 ADD MSTORE PUSH1 0xC0 ADD SWAP1 JUMP JUMPDEST PUSH1 0x0 PUSH2 0x31EF DUP3 DUP8 PUSH2 0x30B1 JUMP JUMPDEST PUSH2 0x31FC PUSH1 0x20 DUP4 ADD DUP7 PUSH2 0x30A3 JUMP JUMPDEST PUSH1 0x80 PUSH1 0x40 DUP4 ADD MSTORE PUSH2 0x3210 PUSH1 0x80 DUP4 ADD DUP6 PUSH2 0x3077 JUMP JUMPDEST SWAP1 POP DUP3 PUSH1 0x60 DUP4 ADD MSTORE SWAP6 SWAP5 POP POP POP POP POP JUMP JUMPDEST PUSH1 0x0 PUSH4 0xFFFFFFFF DUP7 AND DUP3 MSTORE DUP5 PUSH1 0x20 DUP4 ADD MSTORE DUP4 PUSH1 0x40 DUP4 ADD MSTORE PUSH1 0x80 PUSH1 0x60 DUP4 ADD MSTORE PUSH2 0x203F PUSH1 0x80 DUP4 ADD DUP5 PUSH2 0x3077 JUMP JUMPDEST PUSH1 0x20 DUP1 DUP3 MSTORE PUSH1 0x13 SWAP1 DUP3 ADD MSTORE PUSH19 0x9CC2E8D2DEDCC2D8D2E8F29AD2E6DAC2E8C6D PUSH1 0x6B SHL PUSH1 0x40 DUP3 ADD MSTORE PUSH1 0x60 ADD SWAP1 JUMP JUMPDEST PUSH1 0x20 DUP1 DUP3 MSTORE PUSH1 0x10 SWAP1 DUP3 ADD MSTORE PUSH16 0x496E76616C69645369676E6174757265 PUSH1 0x80 SHL PUSH1 0x40 DUP3 ADD MSTORE PUSH1 0x60 ADD SWAP1 JUMP JUMPDEST PUSH1 0x20 DUP1 DUP3 MSTORE PUSH1 0x12 SWAP1 DUP3 ADD MSTORE PUSH18 0x496E76616C69644E6174696F6E616C697479 PUSH1 0x70 SHL PUSH1 0x40 DUP3 ADD MSTORE PUSH1 0x60 ADD SWAP1 JUMP JUMPDEST PUSH1 0x20 DUP1 DUP3 MSTORE PUSH1 0xD SWAP1 DUP3 ADD MSTORE PUSH13 0x125B9D985B1A59105B5BDD5B9D PUSH1 0x9A SHL PUSH1 0x40 DUP3 ADD MSTORE PUSH1 0x60 ADD SWAP1 JUMP JUMPDEST PUSH1 0x20 DUP1 DUP3 MSTORE PUSH1 0x10 SWAP1 DUP3 ADD MSTORE PUSH16 0x125B9D985B1A59149958DA5C1A595B9D PUSH1 0x82 SHL PUSH1 0x40 DUP3 ADD MSTORE PUSH1 0x60 ADD SWAP1 JUMP JUMPDEST PUSH1 0x20 DUP1 DUP3 MSTORE PUSH1 0xB SWAP1 DUP3 ADD MSTORE PUSH11 0x125B9D985B1A59141BDBDB PUSH1 0xAA SHL PUSH1 0x40 DUP3 ADD MSTORE PUSH1 0x60 ADD SWAP1 JUMP JUMPDEST PUSH1 0x20 DUP1 DUP3 MSTORE PUSH1 0x16 SWAP1 DUP3 ADD MSTORE PUSH22 0x496E7465726E616C2066756E6374696F6E206F6E6C79 PUSH1 0x50 SHL PUSH1 0x40 DUP3 ADD MSTORE PUSH1 0x60 ADD SWAP1 JUMP JUMPDEST PUSH1 0x20 DUP1 DUP3 MSTORE PUSH1 0x15 SWAP1 DUP3 ADD MSTORE PUSH21 0x139BC81A1BDBDAC819185D18481C1C9BDD9A591959 PUSH1 0x5A SHL PUSH1 0x40 DUP3 ADD MSTORE PUSH1 0x60 ADD SWAP1 JUMP JUMPDEST PUSH1 0x20 DUP1 DUP3 MSTORE PUSH1 0xC SWAP1 DUP3 ADD MSTORE PUSH12 0x506F6F6C496E616374697665 PUSH1 0xA0 SHL PUSH1 0x40 DUP3 ADD MSTORE PUSH1 0x60 ADD SWAP1 JUMP JUMPDEST PUSH1 0x20 DUP1 DUP3 MSTORE PUSH1 0xE SWAP1 DUP3 ADD MSTORE PUSH14 0x105B1C9958591E50DB185A5B5959 PUSH1 0x92 SHL PUSH1 0x40 DUP3 ADD MSTORE PUSH1 0x60 ADD SWAP1 JUMP JUMPDEST PUSH1 0x20 DUP1 DUP3 MSTORE PUSH1 0x11 SWAP1 DUP3 ADD MSTORE PUSH17 0x496E73756666696369656E7446756E6473 PUSH1 0x78 SHL PUSH1 0x40 DUP3 ADD MSTORE PUSH1 0x60 ADD SWAP1 JUMP JUMPDEST PUSH1 0x20 DUP1 DUP3 MSTORE PUSH1 0x12 SWAP1 DUP3 ADD MSTORE PUSH18 0x2AB730BABA3437B934BD32B221B0B63632B9 PUSH1 0x71 SHL PUSH1 0x40 DUP3 ADD MSTORE PUSH1 0x60 ADD SWAP1 JUMP JUMPDEST DUP2 MLOAD DUP2 MSTORE PUSH1 0x20 DUP1 DUP4 ADD MLOAD SWAP1 DUP3 ADD MSTORE PUSH1 0x40 DUP1 DUP4 ADD MLOAD PUSH1 0x1 PUSH1 0x1 PUSH1 0xA0 SHL SUB AND SWAP1 DUP3 ADD MSTORE PUSH1 0x60 DUP1 DUP4 ADD MLOAD SWAP1 DUP3 ADD MSTORE PUSH1 0x80 SWAP2 DUP3 ADD MLOAD SWAP2 DUP2 ADD SWAP2 SWAP1 SWAP2 MSTORE PUSH1 0xA0 ADD SWAP1 JUMP JUMPDEST PUSH1 0x0 PUSH1 0x20 DUP3 MSTORE DUP3 MLOAD PUSH1 0x20 DUP4 ADD MSTORE PUSH1 0x1 DUP1 PUSH1 0xA0 SHL SUB PUSH1 0x20 DUP5 ADD MLOAD AND PUSH1 0x40 DUP4 ADD MSTORE PUSH1 0x40 DUP4 ADD MLOAD PUSH1 0x60 DUP4 ADD MSTORE PUSH1 0x60 DUP4 ADD MLOAD PUSH1 0x80 DUP4 ADD MSTORE PUSH1 0x80 DUP4 ADD MLOAD ISZERO ISZERO PUSH1 0xA0 DUP4 ADD MSTORE PUSH4 0xFFFFFFFF PUSH1 0xA0 DUP5 ADD MLOAD AND PUSH1 0xC0 DUP4 ADD MSTORE PUSH1 0xC0 DUP4 ADD MLOAD PUSH1 0xE0 DUP1 DUP5 ADD MSTORE PUSH2 0x12D0 PUSH2 0x100 DUP5 ADD DUP3 PUSH2 0x3077 JUMP JUMPDEST PUSH1 0x0 PUSH1 0x20 DUP3 MSTORE DUP3 MLOAD PUSH1 0x20 DUP4 ADD MSTORE PUSH1 0x20 DUP4 ADD MLOAD PUSH2 0x350E PUSH1 0x40 DUP5 ADD DUP3 PUSH2 0x30B1 JUMP JUMPDEST POP PUSH1 0x40 DUP4 ADD MLOAD PUSH2 0x3521 PUSH1 0x60 DUP5 ADD DUP3 PUSH2 0x30A3 JUMP JUMPDEST POP PUSH1 0x60 DUP4 ADD MLOAD PUSH2 0x140 DUP1 PUSH1 0x80 DUP6 ADD MSTORE PUSH2 0x353E PUSH2 0x160 DUP6 ADD DUP4 PUSH2 0x3077 JUMP JUMPDEST SWAP2 POP PUSH1 0x80 DUP6 ADD MLOAD PUSH1 0xA0 DUP6 ADD MSTORE PUSH1 0xA0 DUP6 ADD MLOAD PUSH1 0xC0 DUP6 ADD MSTORE PUSH1 0xC0 DUP6 ADD MLOAD PUSH1 0xE0 DUP6 ADD MSTORE PUSH1 0xE0 DUP6 ADD MLOAD PUSH2 0x100 DUP2 DUP2 DUP8 ADD MSTORE DUP1 DUP8 ADD MLOAD SWAP2 POP POP PUSH2 0x120 DUP2 DUP2 DUP8 ADD MSTORE DUP1 DUP8 ADD MLOAD SWAP2 POP POP PUSH2 0x358D DUP3 DUP7 ADD DUP3 PUSH2 0x3071 JUMP JUMPDEST POP SWAP1 SWAP5 SWAP4 POP POP POP POP JUMP JUMPDEST PUSH1 0x0 DUP9 DUP3 MSTORE PUSH1 0x1 DUP1 PUSH1 0xA0 SHL SUB DUP9 AND PUSH1 0x20 DUP4 ADD MSTORE DUP7 PUSH1 0x40 DUP4 ADD MSTORE DUP6 PUSH1 0x60 DUP4 ADD MSTORE DUP5 ISZERO ISZERO PUSH1 0x80 DUP4 ADD MSTORE PUSH4 0xFFFFFFFF DUP5 AND PUSH1 0xA0 DUP4 ADD MSTORE PUSH1 0xE0 PUSH1 0xC0 DUP4 ADD MSTORE PUSH2 0x35DE PUSH1 0xE0 DUP4 ADD DUP5 PUSH2 0x3077 JUMP JUMPDEST SWAP10 SWAP9 POP POP POP POP POP POP POP POP POP JUMP JUMPDEST PUSH1 0x0 PUSH2 0x140 DUP13 DUP4 MSTORE PUSH2 0x3600 PUSH1 0x20 DUP5 ADD DUP14 PUSH2 0x30B1 JUMP JUMPDEST PUSH2 0x360D PUSH1 0x40 DUP5 ADD DUP13 PUSH2 0x30A3 JUMP JUMPDEST DUP1 PUSH1 0x60 DUP5 ADD MSTORE PUSH2 0x361F DUP2 DUP5 ADD DUP12 PUSH2 0x3077 JUMP JUMPDEST PUSH1 0x80 DUP5 ADD SWAP10 SWAP1 SWAP10 MSTORE POP POP PUSH1 0xA0 DUP2 ADD SWAP6 SWAP1 SWAP6 MSTORE PUSH1 0xC0 DUP6 ADD SWAP4 SWAP1 SWAP4 MSTORE PUSH1 0xE0 DUP5 ADD SWAP2 SWAP1 SWAP2 MSTORE PUSH2 0x100 DUP4 ADD MSTORE ISZERO ISZERO PUSH2 0x120 SWAP1 SWAP2 ADD MSTORE SWAP5 SWAP4 POP POP POP POP JUMP JUMPDEST SWAP5 DUP6 MSTORE PUSH1 0x20 DUP6 ADD SWAP4 SWAP1 SWAP4 MSTORE PUSH1 0x1 PUSH1 0x1 PUSH1 0xA0 SHL SUB SWAP2 SWAP1 SWAP2 AND PUSH1 0x40 DUP5 ADD MSTORE PUSH1 0x60 DUP4 ADD MSTORE PUSH1 0x80 DUP3 ADD MSTORE PUSH1 0xA0 ADD SWAP1 JUMP JUMPDEST PUSH1 0x0 DUP7 DUP3 MSTORE DUP6 PUSH1 0x20 DUP4 ADD MSTORE PUSH1 0xA0 PUSH1 0x40 DUP4 ADD MSTORE PUSH2 0x36A3 PUSH1 0xA0 DUP4 ADD DUP7 PUSH2 0x3077 JUMP JUMPDEST PUSH1 0x60 DUP4 ADD SWAP5 SWAP1 SWAP5 MSTORE POP PUSH1 0x80 ADD MSTORE SWAP4 SWAP3 POP POP POP JUMP JUMPDEST PUSH1 0x0 DUP9 DUP3 MSTORE DUP8 PUSH1 0x20 DUP4 ADD MSTORE DUP7 PUSH1 0x40 DUP4 ADD MSTORE PUSH1 0xE0 PUSH1 0x60 DUP4 ADD MSTORE PUSH2 0x36DC PUSH1 0xE0 DUP4 ADD DUP8 PUSH2 0x3077 JUMP JUMPDEST PUSH1 0x80 DUP4 ADD DUP7 SWAP1 MSTORE PUSH1 0x1 PUSH1 0x1 PUSH1 0xA0 SHL SUB DUP6 AND PUSH1 0xA0 DUP5 ADD MSTORE DUP3 DUP2 SUB PUSH1 0xC0 DUP5 ADD MSTORE PUSH2 0x3704 DUP2 DUP6 PUSH2 0x3077 JUMP JUMPDEST SWAP11 SWAP10 POP POP POP POP POP POP POP POP POP POP JUMP JUMPDEST PUSH1 0x0 PUSH4 0xFFFFFFFF DUP7 AND DUP3 MSTORE DUP5 PUSH1 0x20 DUP4 ADD MSTORE PUSH1 0x60 PUSH1 0x40 DUP4 ADD MSTORE DUP3 PUSH1 0x60 DUP4 ADD MSTORE DUP3 DUP5 PUSH1 0x80 DUP5 ADD CALLDATACOPY DUP2 DUP4 ADD PUSH1 0x80 SWAP1 DUP2 ADD SWAP2 SWAP1 SWAP2 MSTORE PUSH1 0x1F SWAP1 SWAP3 ADD PUSH1 0x1F NOT AND ADD ADD SWAP4 SWAP3 POP POP POP JUMP JUMPDEST PUSH4 0xFFFFFFFF SWAP4 SWAP1 SWAP4 AND DUP4 MSTORE PUSH1 0x20 DUP4 ADD SWAP2 SWAP1 SWAP2 MSTORE PUSH1 0x40 DUP3 ADD MSTORE PUSH1 0x80 PUSH1 0x60 DUP3 ADD DUP2 SWAP1 MSTORE PUSH1 0xB SWAP1 DUP3 ADD MSTORE PUSH11 0x31B937B9B996B1B430B4B7 PUSH1 0xA9 SHL PUSH1 0xA0 DUP3 ADD MSTORE PUSH1 0xC0 ADD SWAP1 JUMP JUMPDEST PUSH1 0x40 MLOAD DUP2 DUP2 ADD PUSH8 0xFFFFFFFFFFFFFFFF DUP2 GT DUP3 DUP3 LT OR ISZERO PUSH2 0x37B2 JUMPI INVALID JUMPDEST PUSH1 0x40 MSTORE SWAP2 SWAP1 POP JUMP JUMPDEST PUSH1 0x0 PUSH8 0xFFFFFFFFFFFFFFFF DUP3 GT ISZERO PUSH2 0x37CE JUMPI INVALID JUMPDEST POP PUSH1 0x1F ADD PUSH1 0x1F NOT AND PUSH1 0x20 ADD SWAP1 JUMP JUMPDEST PUSH1 0x0 JUMPDEST DUP4 DUP2 LT ISZERO PUSH2 0x37F7 JUMPI DUP2 DUP2 ADD MLOAD DUP4 DUP3 ADD MSTORE PUSH1 0x20 ADD PUSH2 0x37DF JUMP JUMPDEST DUP4 DUP2 GT ISZERO PUSH2 0x1C6D JUMPI POP POP PUSH1 0x0 SWAP2 ADD MSTORE JUMP INVALID 0x4F PUSH24 0x6E61626C653A206E6577206F776E65722069732074686520 PUSH27 0x65726F206164647265737345434453413A20696E76616C69642073 PUSH10 0x676E6174757265202773 0x27 KECCAK256 PUSH23 0x616C7565416464726573733A20696E7375666669636965 PUSH15 0x742062616C616E636520666F722063 PUSH2 0x6C6C 0x2E KECCAK256 COINBASE PUSH21 0x74656D7074656420746F20696E646578206174206F PUSH7 0x66736574203078 GASLIMIT NUMBER DIFFICULTY MSTORE8 COINBASE GASPRICE KECCAK256 PUSH10 0x6E76616C696420736967 PUSH15 0x6174757265202776272076616C7565 0x4F PUSH24 0x6E61626C653A2063616C6C6572206973206E6F7420746865 KECCAK256 PUSH16 0x776E657254797065644D656D56696577 0x2F PUSH10 0x6E646578202D20417474 PUSH6 0x6D7074656420 PUSH21 0x6F20696E646578206D6F7265207468616E20333220 PUSH3 0x797465 PUSH20 0x5361666545524332303A204552433230206F7065 PUSH19 0x6174696F6E20646964206E6F74207375636365 PUSH6 0x645479706564 0x4D PUSH6 0x6D566965772F PUSH4 0x6F707954 PUSH16 0x202D204E756C6C20706F696E74657220 PUSH5 0x6572656654 PUSH26 0x7065644D656D566965772F636F7079546F202D20496E76616C69 PUSH5 0x20706F696E PUSH21 0x657220646572656654797065644D656D566965772F PUSH10 0x6E646578202D204F7665 PUSH19 0x72616E2074686520766965772E20536C696365 KECCAK256 PUSH10 0x73206174203078A26469 PUSH17 0x667358221220384EEB81A97676913426C9 0xAC COINBASE DUP1 0xB8 0xCC CALLDATALOAD PUSH26 0x1EE29BC382297CA9C110ECF6B8CA64736F6C634300070600334F PUSH24 0x6E61626C653A206E6577206F776E65722069732074686520 PUSH27 0x65726F20616464726573738BE0079C531659141344CD1FD0A4F284 NOT 0x49 PUSH32 0x9722A3DAAFE3B4186F6B6457E000000000000000000000000000000000000000 "},"methodIdentifiers":{"DOMAIN_SEPARATOR()":"3644e515","VERIFICATION_MESSAGE_TYPEHASH()":"e1a788eb","_processCrossChainDonation(uint32,bytes32,bytes)":"db5e4c75","adminAddress()":"fc6f9468","cctpMessageTransmitter()":"8c73eb04","checkPersonClaimedFromPool(uint256,uint256,uint256)":"ef20c85a","claimRelief(uint256,uint256,uint256,string,uint256,address,bytes)":"82e15e51","claimReliefToSelf(uint256,uint256,uint256,string,uint256,bytes)":"a8f7f995","createReliefPool(uint8,uint8,string,uint256)":"8b29caf5","donate(uint256,uint256,string)":"16c3cdf5","emergencyWithdraw(uint256)":"5312ea8e","getBeneficiary(uint256,address)":"06cc759b","getContractBalance()":"6f9fb98a","getDonor(uint256,address)":"d0e5a743","getPersonClaimedPools(uint256,uint256)":"73aacb00","getReliefPool(uint256)":"8e09727e","getTotalPools()":"d3ffe67a","handleReceiveFinalizedMessage(uint32,bytes32,uint32,bytes)":"11cffb67","handleReceiveUnfinalizedMessage(uint32,bytes32,uint32,bytes)":"7c92f219","hasPersonClaimedFromPool(uint256,uint256)":"3b121902","owner()":"8da5cb5b","personClaimedPools(uint256,uint256)":"feb16532","poolBeneficiaries(uint256,address)":"59b3c2d8","poolCounter()":"9e3079cb","poolDonors(uint256,address)":"f594dbf4","reliefPools(uint256)":"19c2799f","renounceOwnership()":"715018a6","setCCTPMessageTransmitter(address)":"d9db6e03","togglePoolStatus(uint256)":"216b31c1","transferOwnership(address)":"f2fde38b","usdcToken()":"11eac855","verifyAdminSignature(address,uint256,uint256,string,uint256,bytes)":"29d9b720"}}}}}