{"contracts/TypedMemView.sol":{"TypedMemView":{"abi":[{"inputs":[],"name":"NULL","outputs":[{"internalType":"bytes29","name":"","type":"bytes29"}],"stateMutability":"view","type":"function"}],"evm":{"bytecode":{"linkReferences":{},"object":"6095610024600b82828239805160001a607314601757fe5b30600052607381538281f3fe730000000000000000000000000000000000000000301460806040526004361060335760003560e01c8063f26be3fc146038575b600080fd5b603e6057565b6040805162ffffff199092168252519081900360200190f35b62ffffff198156fea2646970667358221220e46c93ef476a79de00530f72e67cd3ebf63809c06cf4b4303ec1d729c4aed5f564736f6c63430007060033","opcodes":"PUSH1 0x95 PUSH2 0x24 PUSH1 0xB DUP3 DUP3 DUP3 CODECOPY DUP1 MLOAD PUSH1 0x0 BYTE PUSH1 0x73 EQ PUSH1 0x17 JUMPI INVALID JUMPDEST ADDRESS PUSH1 0x0 MSTORE PUSH1 0x73 DUP2 MSTORE8 DUP3 DUP2 RETURN INVALID PUSH20 0x0 ADDRESS EQ PUSH1 0x80 PUSH1 0x40 MSTORE PUSH1 0x4 CALLDATASIZE LT PUSH1 0x33 JUMPI PUSH1 0x0 CALLDATALOAD PUSH1 0xE0 SHR DUP1 PUSH4 0xF26BE3FC EQ PUSH1 0x38 JUMPI JUMPDEST PUSH1 0x0 DUP1 REVERT JUMPDEST PUSH1 0x3E PUSH1 0x57 JUMP JUMPDEST PUSH1 0x40 DUP1 MLOAD PUSH3 0xFFFFFF NOT SWAP1 SWAP3 AND DUP3 MSTORE MLOAD SWAP1 DUP2 SWAP1 SUB PUSH1 0x20 ADD SWAP1 RETURN JUMPDEST PUSH3 0xFFFFFF NOT DUP2 JUMP INVALID LOG2 PUSH5 0x6970667358 0x22 SLT KECCAK256 0xE4 PUSH13 0x93EF476A79DE00530F72E67CD3 0xEB 0xF6 CODESIZE MULMOD 0xC0 PUSH13 0xF4B4303EC1D729C4AED5F56473 PUSH16 0x6C634300070600330000000000000000 "},"methodIdentifiers":{"NULL()":"f26be3fc"}}}}}