{
  "contracts/IdentityVerifier.sol": {
    "IdentityVerifier": {
      "abi": [
        {
          "inputs": [
            {
              "internalType": "address",
              "name": "_adminAddress",
              "type": "address"
            },
            {
              "internalType": "address",
              "name": "_identityVerificationHubV2",
              "type": "address"
            },
            {
              "internalType": "uint256",
              "name": "_scope",
              "type": "uint256"
            },
            {
              "internalType": "bytes32",
              "name": "_configId",
              "type": "bytes32"
            },
            {
              "internalType": "address",
              "name": "_reliefPoolsContract",
              "type": "address"
            }
          ],
          "stateMutability": "nonpayable",
          "type": "constructor"
        },
        {
          "inputs": [],
          "name": "ECDSAInvalidSignature",
          "type": "error"
        },
        {
          "inputs": [
            {
              "internalType": "uint256",
              "name": "length",
              "type": "uint256"
            }
          ],
          "name": "ECDSAInvalidSignatureLength",
          "type": "error"
        },
        {
          "inputs": [
            {
              "internalType": "bytes32",
              "name": "s",
              "type": "bytes32"
            }
          ],
          "name": "ECDSAInvalidSignatureS",
          "type": "error"
        },
        {
          "inputs": [],
          "name": "InvalidDataFormat",
          "type": "error"
        },
        {
          "inputs": [],
          "name": "InvalidNationality",
          "type": "error"
        },
        {
          "inputs": [],
          "name": "InvalidSignature",
          "type": "error"
        },
        {
          "inputs": [],
          "name": "InvalidUserIdentifier",
          "type": "error"
        },
        {
          "inputs": [
            {
              "internalType": "address",
              "name": "owner",
              "type": "address"
            }
          ],
          "name": "OwnableInvalidOwner",
          "type": "error"
        },
        {
          "inputs": [
            {
              "internalType": "address",
              "name": "account",
              "type": "address"
            }
          ],
          "name": "OwnableUnauthorizedAccount",
          "type": "error"
        },
        {
          "inputs": [],
          "name": "RegisteredNullifier",
          "type": "error"
        },
        {
          "inputs": [],
          "name": "UnauthorizedCaller",
          "type": "error"
        },
        {
          "inputs": [],
          "name": "UserIdentifierAlreadyVerified",
          "type": "error"
        },
        {
          "inputs": [],
          "name": "UserNotVerified",
          "type": "error"
        },
        {
          "anonymous": false,
          "inputs": [
            {
              "indexed": true,
              "internalType": "uint256",
              "name": "nullifier",
              "type": "uint256"
            },
            {
              "indexed": false,
              "internalType": "bytes",
              "name": "signature",
              "type": "bytes"
            },
            {
              "indexed": false,
              "internalType": "uint256",
              "name": "timestamp",
              "type": "uint256"
            }
          ],
          "name": "AdminSignatureGenerated",
          "type": "event"
        },
        {
          "anonymous": false,
          "inputs": [
            {
              "indexed": true,
              "internalType": "address",
              "name": "previousOwner",
              "type": "address"
            },
            {
              "indexed": true,
              "internalType": "address",
              "name": "newOwner",
              "type": "address"
            }
          ],
          "name": "OwnershipTransferred",
          "type": "event"
        },
        {
          "anonymous": false,
          "inputs": [
            {
              "indexed": true,
              "internalType": "uint256",
              "name": "newScope",
              "type": "uint256"
            }
          ],
          "name": "ScopeUpdated",
          "type": "event"
        },
        {
          "anonymous": false,
          "inputs": [
            {
              "indexed": true,
              "internalType": "uint256",
              "name": "nullifier",
              "type": "uint256"
            },
            {
              "indexed": true,
              "internalType": "uint256",
              "name": "userIdentifier",
              "type": "uint256"
            },
            {
              "indexed": false,
              "internalType": "string",
              "name": "nationality",
              "type": "string"
            },
            {
              "indexed": false,
              "internalType": "address",
              "name": "userAddress",
              "type": "address"
            },
            {
              "indexed": false,
              "internalType": "string",
              "name": "reliefPoolId",
              "type": "string"
            },
            {
              "indexed": false,
              "internalType": "uint256",
              "name": "timestamp",
              "type": "uint256"
            }
          ],
          "name": "UserVerified",
          "type": "event"
        },
        {
          "inputs": [],
          "name": "VERIFICATION_MESSAGE_TYPEHASH",
          "outputs": [
            {
              "internalType": "bytes32",
              "name": "",
              "type": "bytes32"
            }
          ],
          "stateMutability": "view",
          "type": "function"
        },
        {
          "inputs": [],
          "name": "adminAddress",
          "outputs": [
            {
              "internalType": "address",
              "name": "",
              "type": "address"
            }
          ],
          "stateMutability": "view",
          "type": "function"
        },
        {
          "inputs": [
            {
              "internalType": "uint256",
              "name": "",
              "type": "uint256"
            }
          ],
          "name": "adminSignatures",
          "outputs": [
            {
              "internalType": "bytes",
              "name": "",
              "type": "bytes"
            }
          ],
          "stateMutability": "view",
          "type": "function"
        },
        {
          "inputs": [],
          "name": "configId",
          "outputs": [
            {
              "internalType": "bytes32",
              "name": "",
              "type": "bytes32"
            }
          ],
          "stateMutability": "view",
          "type": "function"
        },
        {
          "inputs": [
            {
              "internalType": "uint256",
              "name": "nullifier",
              "type": "uint256"
            }
          ],
          "name": "getAdminSignature",
          "outputs": [
            {
              "internalType": "bytes",
              "name": "",
              "type": "bytes"
            }
          ],
          "stateMutability": "view",
          "type": "function"
        },
        {
          "inputs": [],
          "name": "getConfigId",
          "outputs": [
            {
              "internalType": "bytes32",
              "name": "",
              "type": "bytes32"
            }
          ],
          "stateMutability": "view",
          "type": "function"
        },
        {
          "inputs": [
            {
              "internalType": "bytes32",
              "name": "",
              "type": "bytes32"
            },
            {
              "internalType": "bytes32",
              "name": "",
              "type": "bytes32"
            },
            {
              "internalType": "bytes",
              "name": "",
              "type": "bytes"
            }
          ],
          "name": "getConfigId",
          "outputs": [
            {
              "internalType": "bytes32",
              "name": "",
              "type": "bytes32"
            }
          ],
          "stateMutability": "view",
          "type": "function"
        },
        {
          "inputs": [
            {
              "internalType": "uint256",
              "name": "nullifier",
              "type": "uint256"
            },
            {
              "internalType": "uint256",
              "name": "userIdentifier",
              "type": "uint256"
            },
            {
              "internalType": "string",
              "name": "nationality",
              "type": "string"
            },
            {
              "internalType": "uint256",
              "name": "timestamp",
              "type": "uint256"
            }
          ],
          "name": "getMessageHash",
          "outputs": [
            {
              "internalType": "bytes32",
              "name": "",
              "type": "bytes32"
            }
          ],
          "stateMutability": "view",
          "type": "function"
        },
        {
          "inputs": [
            {
              "internalType": "uint256",
              "name": "nullifier",
              "type": "uint256"
            }
          ],
          "name": "getMessageHashToSign",
          "outputs": [
            {
              "internalType": "bytes32",
              "name": "",
              "type": "bytes32"
            }
          ],
          "stateMutability": "view",
          "type": "function"
        },
        {
          "inputs": [
            {
              "internalType": "uint256",
              "name": "nullifier",
              "type": "uint256"
            }
          ],
          "name": "getVerificationData",
          "outputs": [
            {
              "components": [
                {
                  "internalType": "uint256",
                  "name": "nullifier",
                  "type": "uint256"
                },
                {
                  "internalType": "uint256",
                  "name": "userIdentifier",
                  "type": "uint256"
                },
                {
                  "internalType": "string",
                  "name": "nationality",
                  "type": "string"
                },
                {
                  "internalType": "uint256",
                  "name": "timestamp",
                  "type": "uint256"
                },
                {
                  "internalType": "bool",
                  "name": "isVerified",
                  "type": "bool"
                }
              ],
              "internalType": "struct IdentityVerifier.VerificationData",
              "name": "",
              "type": "tuple"
            }
          ],
          "stateMutability": "view",
          "type": "function"
        },
        {
          "inputs": [
            {
              "internalType": "uint256",
              "name": "nullifier",
              "type": "uint256"
            }
          ],
          "name": "getVerifiedUserAddress",
          "outputs": [
            {
              "internalType": "address",
              "name": "",
              "type": "address"
            }
          ],
          "stateMutability": "view",
          "type": "function"
        },
        {
          "inputs": [
            {
              "internalType": "uint256",
              "name": "nullifier",
              "type": "uint256"
            }
          ],
          "name": "isUserVerified",
          "outputs": [
            {
              "internalType": "bool",
              "name": "",
              "type": "bool"
            }
          ],
          "stateMutability": "view",
          "type": "function"
        },
        {
          "inputs": [
            {
              "internalType": "uint256",
              "name": "",
              "type": "uint256"
            }
          ],
          "name": "messageHashes",
          "outputs": [
            {
              "internalType": "bytes32",
              "name": "",
              "type": "bytes32"
            }
          ],
          "stateMutability": "view",
          "type": "function"
        },
        {
          "inputs": [
            {
              "internalType": "bytes",
              "name": "output",
              "type": "bytes"
            },
            {
              "internalType": "bytes",
              "name": "userData",
              "type": "bytes"
            }
          ],
          "name": "onVerificationSuccess",
          "outputs": [],
          "stateMutability": "nonpayable",
          "type": "function"
        },
        {
          "inputs": [],
          "name": "owner",
          "outputs": [
            {
              "internalType": "address",
              "name": "",
              "type": "address"
            }
          ],
          "stateMutability": "view",
          "type": "function"
        },
        {
          "inputs": [],
          "name": "reliefPoolsContract",
          "outputs": [
            {
              "internalType": "address",
              "name": "",
              "type": "address"
            }
          ],
          "stateMutability": "view",
          "type": "function"
        },
        {
          "inputs": [],
          "name": "renounceOwnership",
          "outputs": [],
          "stateMutability": "nonpayable",
          "type": "function"
        },
        {
          "inputs": [],
          "name": "scope",
          "outputs": [
            {
              "internalType": "uint256",
              "name": "",
              "type": "uint256"
            }
          ],
          "stateMutability": "view",
          "type": "function"
        },
        {
          "inputs": [
            {
              "internalType": "uint256",
              "name": "nullifier",
              "type": "uint256"
            },
            {
              "internalType": "bytes",
              "name": "signature",
              "type": "bytes"
            }
          ],
          "name": "setAdminSignature",
          "outputs": [],
          "stateMutability": "nonpayable",
          "type": "function"
        },
        {
          "inputs": [
            {
              "internalType": "address",
              "name": "_reliefPoolsContract",
              "type": "address"
            }
          ],
          "name": "setReliefPoolsContract",
          "outputs": [],
          "stateMutability": "nonpayable",
          "type": "function"
        },
        {
          "inputs": [
            {
              "internalType": "uint256",
              "name": "_scope",
              "type": "uint256"
            }
          ],
          "name": "setScope",
          "outputs": [],
          "stateMutability": "nonpayable",
          "type": "function"
        },
        {
          "inputs": [
            {
              "internalType": "address",
              "name": "newOwner",
              "type": "address"
            }
          ],
          "name": "transferOwnership",
          "outputs": [],
          "stateMutability": "nonpayable",
          "type": "function"
        },
        {
          "inputs": [
            {
              "internalType": "uint256",
              "name": "userIdentifier",
              "type": "uint256"
            }
          ],
          "name": "userIdentifierToAddress",
          "outputs": [
            {
              "internalType": "address",
              "name": "",
              "type": "address"
            }
          ],
          "stateMutability": "pure",
          "type": "function"
        },
        {
          "inputs": [
            {
              "internalType": "uint256",
              "name": "",
              "type": "uint256"
            }
          ],
          "name": "verifiedUsers",
          "outputs": [
            {
              "internalType": "uint256",
              "name": "nullifier",
              "type": "uint256"
            },
            {
              "internalType": "uint256",
              "name": "userIdentifier",
              "type": "uint256"
            },
            {
              "internalType": "string",
              "name": "nationality",
              "type": "string"
            },
            {
              "internalType": "uint256",
              "name": "timestamp",
              "type": "uint256"
            },
            {
              "internalType": "bool",
              "name": "isVerified",
              "type": "bool"
            }
          ],
          "stateMutability": "view",
          "type": "function"
        },
        {
          "inputs": [
            {
              "internalType": "uint256",
              "name": "nullifier",
              "type": "uint256"
            },
            {
              "internalType": "uint256",
              "name": "userIdentifier",
              "type": "uint256"
            },
            {
              "internalType": "string",
              "name": "nationality",
              "type": "string"
            },
            {
              "internalType": "uint256",
              "name": "timestamp",
              "type": "uint256"
            },
            {
              "internalType": "bytes",
              "name": "signature",
              "type": "bytes"
            }
          ],
          "name": "verifyAdminSignature",
          "outputs": [
            {
              "internalType": "bool",
              "name": "",
              "type": "bool"
            }
          ],
          "stateMutability": "view",
          "type": "function"
        },
        {
          "inputs": [
            {
              "internalType": "bytes",
              "name": "proofPayload",
              "type": "bytes"
            },
            {
              "internalType": "bytes",
              "name": "userContextData",
              "type": "bytes"
            }
          ],
          "name": "verifySelfProof",
          "outputs": [],
          "stateMutability": "nonpayable",
          "type": "function"
        }
      ],
      "evm": {
        "bytecode": {
          "linkReferences": {},
          "object": "60c060405234801561001057600080fd5b506040516121cc3803806121cc83398101604081905261002f91610165565b6001600160a01b0380851660805260008490558590811661006a57604051631e4fbdf760e01b81526000600482015260240160405180910390fd5b610073816100c7565b50600280546001600160a01b0319166001600160a01b03871617905560a082905261009d83610119565b600380546001600160a01b0319166001600160a01b0392909216919091179055506101bc92505050565b600180546001600160a01b038381166001600160a01b0319831681179093556040519116919082907f8be0079c531659141344cd1fd0a4f28419497f9722a3daafe3b4186f6b6457e090600090a35050565b600081815560405182917f379705e49518633184cc7e64f6a0c9361e35f275be47634afb6c2c603e5311e591a250565b80516001600160a01b038116811461016057600080fd5b919050565b600080600080600060a0868803121561017d57600080fd5b61018686610149565b945061019460208701610149565b935060408601519250606086015191506101b060808701610149565b90509295509295909350565b60805160a051611fcf6101fd6000396000818161029501528181610336015281816103a70152610d0d0152600081816108420152610d800152611fcf6000f3fe608060405234801561001057600080fd5b506004361061018e5760003560e01c80638da5cb5b116100de578063b564eb2711610097578063d161802b11610071578063d161802b146103ed578063e1a788eb14610400578063f2fde38b14610427578063fc6f94681461043a57600080fd5b8063b564eb27146103a2578063b8a6efbd146103c9578063b8baf4e4146103dc57600080fd5b80638da5cb5b14610302578063a81302a514610313578063ada1b31914610326578063b454bfed1461035c578063b4ba6ff91461037c578063b556c6da1461038f57600080fd5b80635d53ac161161014b578063715018a611610125578063715018a6146102c1578063833e5d78146102c95780638be55456146102dc5780638d2d8d6a146102ef57600080fd5b80635d53ac1614610268578063634daa11146102935780636e62d0a8146102b957600080fd5b806302de6988146101935780630343b1e7146101b9578063070f09ad146101d957806307763ec3146101ee5780632789b4d71461021257806337364ea214610248575b600080fd5b6101a66101a13660046114f1565b61044d565b6040519081526020015b60405180910390f35b6101cc6101c73660046114f1565b610492565b6040516101b0919061155a565b6101ec6101e73660046115ac565b6105aa565b005b6102016101fc3660046114f1565b6105d4565b6040516101b09594939291906115dc565b6102386102203660046114f1565b60009081526006602052604090206004015460ff1690565b60405190151581526020016101b0565b6101a66102563660046114f1565b60086020526000908152604090205481565b60035461027b906001600160a01b031681565b6040516001600160a01b0390911681526020016101b0565b7f00000000000000000000000000000000000000000000000000000000000000006101a6565b6000546101a6565b6101ec61068f565b6101a66102d7366004611703565b6106a3565b6102386102ea36600461175a565b61075a565b6101ec6102fd3660046117de565b610837565b6001546001600160a01b031661027b565b6101ec610321366004611845565b6108a7565b6101a6610334366004611875565b7f00000000000000000000000000000000000000000000000000000000000000009392505050565b61036f61036a3660046114f1565b610a03565b6040516101b091906118c4565b6101ec61038a3660046114f1565b610b32565b61027b61039d3660046114f1565b610b46565b6101a67f000000000000000000000000000000000000000000000000000000000000000081565b61036f6103d73660046114f1565b610bb4565b61027b6103ea3660046114f1565b90565b6101ec6103fb36600461191f565b610c4e565b6101a67f5c64a8a74cfa7615128bcdfeee4695403156b321bc1f0f1dd1a0b09d3618731e81565b6101ec6104353660046115ac565b610e2d565b60025461027b906001600160a01b031681565b60008181526006602052604081206004015460ff1661047f57604051637d93d32b60e01b815260040160405180910390fd5b5060009081526008602052604090205490565b6104c66040518060a00160405280600081526020016000815260200160608152602001600081526020016000151581525090565b600660008381526020019081526020016000206040518060a001604052908160008201548152602001600182015481526020016002820180546105089061198e565b80601f01602080910402602001604051908101604052809291908181526020018280546105349061198e565b80156105815780601f1061055657610100808354040283529160200191610581565b820191906000526020600020905b81548152906001019060200180831161056457829003601f168201915b50505091835250506003820154602082015260049091015460ff16151560409091015292915050565b6105b2610e68565b600380546001600160a01b0319166001600160a01b0392909216919091179055565b600660205260009081526040902080546001820154600283018054929391926105fc9061198e565b80601f01602080910402602001604051908101604052809291908181526020018280546106289061198e565b80156106755780601f1061064a57610100808354040283529160200191610675565b820191906000526020600020905b81548152906001019060200180831161065857829003601f168201915b50505050600383015460049093015491929160ff16905085565b610697610e68565b6106a16000610e95565b565b8151602080840191909120604080517f5c64a8a74cfa7615128bcdfeee4695403156b321bc1f0f1dd1a0b09d3618731e8185015280820188905260608101879052608081019290925260a08083018590528151808403909101815260c09092019052805191012060009081610716610ee7565b60405161190160f01b602082015260228101829052604281018490529091506062016040516020818303038152906040528051906020012092505050949350505050565b8251602080850191909120604080517f5c64a8a74cfa7615128bcdfeee4695403156b321bc1f0f1dd1a0b09d3618731e8185015280820189905260608101889052608081019290925260a08083018690528151808403909101815260c090920190528051910120600090816107cd610ee7565b60405161190160f01b6020820152602281018290526042810184905290915060009060620160408051601f198184030181529190528051602090910120905060006108188287611024565b6002546001600160a01b039081169116149a9950505050505050505050565b336001600160a01b037f0000000000000000000000000000000000000000000000000000000000000000161461088057604051635c427cd960e01b815260040160405180910390fd5b6000828060200190518101906108969190611b62565b90506108a2818361104e565b505050565b6002546001600160a01b031633146109065760405162461bcd60e51b815260206004820152601760248201527f556e617574686f72697a65643a204e6f742041646d696e00000000000000000060448201526064015b60405180910390fd5b60008281526006602052604090206004015460ff1661095b5760405162461bcd60e51b8152602060048201526011602482015270155cd95c881b9bdd081d995c9a599a5959607a1b60448201526064016108fd565b80516041146109ac5760405162461bcd60e51b815260206004820152601860248201527f496e76616c6964207369676e6174757265206c656e677468000000000000000060448201526064016108fd565b60008281526007602052604090206109c48282611d7b565b50817fe82ef336dc43f8105a8efda77cbaabb7fec1003a770537904a41858c706b0c2582426040516109f7929190611e39565b60405180910390a25050565b60008181526006602052604090206004015460609060ff16610a3857604051637d93d32b60e01b815260040160405180910390fd5b60008281526007602052604081208054610a519061198e565b905011610a945760405162461bcd60e51b815260206004820152601160248201527014da59db985d1d5c99481b9bdd081cd95d607a1b60448201526064016108fd565b60008281526007602052604090208054610aad9061198e565b80601f0160208091040260200160405190810160405280929190818152602001828054610ad99061198e565b8015610b265780601f10610afb57610100808354040283529160200191610b26565b820191906000526020600020905b815481529060010190602001808311610b0957829003601f168201915b50505050509050919050565b610b3a610e68565b610b43816111ec565b50565b60008181526006602052604081206004015460ff16610b9b5760405162461bcd60e51b8152602060048201526011602482015270155cd95c881b9bdd081d995c9a599a5959607a1b60448201526064016108fd565b6000828152600660205260409020600101545b92915050565b60076020526000908152604090208054610bcd9061198e565b80601f0160208091040260200160405190810160405280929190818152602001828054610bf99061198e565b8015610c465780601f10610c1b57610100808354040283529160200191610c46565b820191906000526020600020905b815481529060010190602001808311610c2957829003601f168201915b505050505081565b6020831015610c705760405163a512e2ff60e01b815260040160405180910390fd5b6040811015610c925760405163a512e2ff60e01b815260040160405180910390fd5b83356000610ca36020828587611e5b565b610cac91611e85565b90506000610cbe604060208688611e5b565b610cc791611e85565b90506000610cd88560408189611e5b565b8080601f01602080910402602001604051908101604052809392919081815260200183838082843760009201829052509394507f00000000000000000000000000000000000000000000000000000000000000009250610d36915050565b905060006002600060081b600054888d8d6020908092610d5893929190611e5b565b604051602001610d6d96959493929190611ea3565b60405160208183030381529060405290507f00000000000000000000000000000000000000000000000000000000000000006001600160a01b031663f7e83aee82848b8b604051602001610dc393929190611edf565b6040516020818303038152906040526040518363ffffffff1660e01b8152600401610def929190611ef9565b600060405180830381600087803b158015610e0957600080fd5b505af1158015610e1d573d6000803e3d6000fd5b5050505050505050505050505050565b610e35610e68565b6001600160a01b038116610e5f57604051631e4fbdf760e01b8152600060048201526024016108fd565b610b4381610e95565b6001546001600160a01b031633146106a15760405163118cdaa760e01b81523360048201526024016108fd565b600180546001600160a01b038381166001600160a01b0319831681179093556040519116919082907f8be0079c531659141344cd1fd0a4f28419497f9722a3daafe3b4186f6b6457e090600090a35050565b6003546000906001600160a01b0316610f425760405162461bcd60e51b815260206004820152601c60248201527f52656c696566506f6f6c7320636f6e7472616374206e6f74207365740000000060448201526064016108fd565b50604080518082018252600b81526a52656c696566506f6f6c7360a81b6020918201528151808301835260018152603160f81b9082015260035482517f8b73c3c69bb8fe3d512ecc4cf759cc79239f7b179b0ffacaa9a75d522b39400f818401527f3323a8070b7081e28ca423d850c49e17147e941af41daf0ad176ecf1a5481b67818501527fc89efdaa54c0f20c7adf612882df0950f5a951637e0307cdcb4c672f298b8bc6606082015261210560808201526001600160a01b0390911660a0808301919091528351808303909101815260c0909101909252815191012090565b600080600080611034868661121c565b9250925092506110448282611269565b5090949350505050565b8160e001515160000361107457604051631d89d0ab60e11b815260040160405180910390fd5b6040805160a0810182528382018051825260208086015181840190815260e08701518486019081524260608601526001608086018190529351600090815260069093529490912083518155905191810191909155915190919060028201906110dc9082611d7b565b50606082015160038201556080909101516004909101805460ff19169115159190911790556040820151602083015160e084015160009261111f929091426106a3565b6040848101516000908152600860209081529181208390559085015191925061114784611326565b9050600081511161119a5760405162461bcd60e51b815260206004820152601760248201527f506f6f6c2049442063616e6e6f7420626520656d70747900000000000000000060448201526064016108fd565b846020015185604001517f4bbd3d450af4603e26025d94c195e0ca7ee1f4b60fe2363806b06285e60d2bb88760e001518585426040516111dd9493929190611f27565b60405180910390a35050505050565b600081815560405182917f379705e49518633184cc7e64f6a0c9361e35f275be47634afb6c2c603e5311e591a250565b600080600083516041036112565760208401516040850151606086015160001a61124888828585611422565b955095509550505050611262565b50508151600091506002905b9250925092565b600082600381111561127d5761127d611f6d565b03611286575050565b600182600381111561129a5761129a611f6d565b036112b85760405163f645eedf60e01b815260040160405180910390fd5b60028260038111156112cc576112cc611f6d565b036112ed5760405163fce698f760e01b8152600481018290526024016108fd565b600382600381111561130157611301611f6d565b03611322576040516335e2f38360e21b8152600481018290526024016108fd565b5050565b60606000805b835181101561136d5783818151811061134757611347611f83565b01602001516001600160f81b0319166000036113655780915061136d565b60010161132c565b508060000361137a575081515b6000816001600160401b0381111561139457611394611614565b6040519080825280601f01601f1916602001820160405280156113be576020820181803683370190505b50905060005b8281101561141a578481815181106113de576113de611f83565b602001015160f81c60f81b8282815181106113fb576113fb611f83565b60200101906001600160f81b031916908160001a9053506001016113c4565b509392505050565b600080807f7fffffffffffffffffffffffffffffff5d576e7357a4501ddfe92f46681b20a084111561145d57506000915060039050826114e7565b604080516000808252602082018084528a905260ff891692820192909252606081018790526080810186905260019060a0016020604051602081039080840390855afa1580156114b1573d6000803e3d6000fd5b5050604051601f1901519150506001600160a01b0381166114dd575060009250600191508290506114e7565b9250600091508190505b9450945094915050565b60006020828403121561150357600080fd5b5035919050565b60005b8381101561152557818101518382015260200161150d565b50506000910152565b6000815180845261154681602086016020860161150a565b601f01601f19169290920160200192915050565b6020815281516020820152602082015160408201526000604083015160a0606084015261158a60c084018261152e565b9050606084015160808401526080840151151560a08401528091505092915050565b6000602082840312156115be57600080fd5b81356001600160a01b03811681146115d557600080fd5b9392505050565b85815284602082015260a0604082015260006115fb60a083018661152e565b6060830194909452509015156080909101529392505050565b634e487b7160e01b600052604160045260246000fd5b6040516101a081016001600160401b038111828210171561164d5761164d611614565b60405290565b604051601f8201601f191681016001600160401b038111828210171561167b5761167b611614565b604052919050565b60006001600160401b0382111561169c5761169c611614565b50601f01601f191660200190565b600082601f8301126116bb57600080fd5b81356020830160006116d46116cf84611683565b611653565b90508281528583830111156116e857600080fd5b82826020830137600092810160200192909252509392505050565b6000806000806080858703121561171957600080fd5b843593506020850135925060408501356001600160401b0381111561173d57600080fd5b611749878288016116aa565b949793965093946060013593505050565b600080600080600060a0868803121561177257600080fd5b853594506020860135935060408601356001600160401b0381111561179657600080fd5b6117a2888289016116aa565b9350506060860135915060808601356001600160401b038111156117c557600080fd5b6117d1888289016116aa565b9150509295509295909350565b600080604083850312156117f157600080fd5b82356001600160401b0381111561180757600080fd5b611813858286016116aa565b92505060208301356001600160401b0381111561182f57600080fd5b61183b858286016116aa565b9150509250929050565b6000806040838503121561185857600080fd5b8235915060208301356001600160401b0381111561182f57600080fd5b60008060006060848603121561188a57600080fd5b833592506020840135915060408401356001600160401b038111156118ae57600080fd5b6118ba868287016116aa565b9150509250925092565b6020815260006115d5602083018461152e565b60008083601f8401126118e957600080fd5b5081356001600160401b0381111561190057600080fd5b60208301915083602082850101111561191857600080fd5b9250929050565b6000806000806040858703121561193557600080fd5b84356001600160401b0381111561194b57600080fd5b611957878288016118d7565b90955093505060208501356001600160401b0381111561197657600080fd5b611982878288016118d7565b95989497509550505050565b600181811c908216806119a257607f821691505b6020821081036119c257634e487b7160e01b600052602260045260246000fd5b50919050565b600082601f8301126119d957600080fd5b6119e36080611653565b8060808401858111156119f557600080fd5b845b81811015611a0f5780518452602093840193016119f7565b509095945050505050565b600082601f830112611a2b57600080fd5b8151611a396116cf82611683565b818152846020838601011115611a4e57600080fd5b611a5f82602083016020870161150a565b949350505050565b600082601f830112611a7857600080fd5b81516001600160401b03811115611a9157611a91611614565b8060051b611aa160208201611653565b91825260208185018101929081019086841115611abd57600080fd5b6020860192505b83831015611b035782516001600160401b03811115611ae257600080fd5b611af1886020838a0101611a1a565b83525060209283019290910190611ac4565b9695505050505050565b600082601f830112611b1e57600080fd5b611b286060611653565b806060840185811115611b3a57600080fd5b845b81811015611a0f5780518015158114611b5457600080fd5b845260209384019301611b3c565b600060208284031215611b7457600080fd5b81516001600160401b03811115611b8a57600080fd5b82016102408185031215611b9d57600080fd5b611ba561162a565b815181526020808301519082015260408083015190820152611bca85606084016119c8565b606082015260e08201516001600160401b03811115611be857600080fd5b611bf486828501611a1a565b6080830152506101008201516001600160401b03811115611c1457600080fd5b611c2086828501611a67565b60a0830152506101208201516001600160401b03811115611c4057600080fd5b611c4c86828501611a1a565b60c0830152506101408201516001600160401b03811115611c6c57600080fd5b611c7886828501611a1a565b60e0830152506101608201516001600160401b03811115611c9857600080fd5b611ca486828501611a1a565b610100830152506101808201516001600160401b03811115611cc557600080fd5b611cd186828501611a1a565b610120830152506101a08201516001600160401b03811115611cf257600080fd5b611cfe86828501611a1a565b610140830152506101c0820151610160820152611d1f856101e08401611b0d565b610180820152949350505050565b601f8211156108a257806000526020600020601f840160051c81016020851015611d545750805b601f840160051c820191505b81811015611d745760008155600101611d60565b5050505050565b81516001600160401b03811115611d9457611d94611614565b611da881611da2845461198e565b84611d2d565b6020601f821160018114611ddc5760008315611dc45750848201515b600019600385901b1c1916600184901b178455611d74565b600084815260208120601f198516915b82811015611e0c5787850151825560209485019460019092019101611dec565b5084821015611e2a5786840151600019600387901b60f8161c191681555b50505050600190811b01905550565b604081526000611e4c604083018561152e565b90508260208301529392505050565b60008085851115611e6b57600080fd5b83861115611e7857600080fd5b5050820193919092039150565b80356020831015610bae57600019602084900360031b1b1692915050565b60ff60f81b8760f81b16815260ff1986166001820152846020820152836040820152818360608301376000910160600190815295945050505050565b838152818360208301376000910160200190815292915050565b604081526000611f0c604083018561152e565b8281036020840152611f1e818561152e565b95945050505050565b608081526000611f3a608083018761152e565b6001600160a01b03861660208401528281036040840152611f5b818661152e565b91505082606083015295945050505050565b634e487b7160e01b600052602160045260246000fd5b634e487b7160e01b600052603260045260246000fdfea2646970667358221220036ddfd440565b6a5d8303fcade5120c5b888d39523c865c59c1833b2411f0d764736f6c634300081c0033",
          "opcodes": "PUSH1 0xC0 PUSH1 0x40 MSTORE CALLVALUE DUP1 ISZERO PUSH2 0x10 JUMPI PUSH1 0x0 DUP1 REVERT JUMPDEST POP PUSH1 0x40 MLOAD PUSH2 0x21CC CODESIZE SUB DUP1 PUSH2 0x21CC DUP4 CODECOPY DUP2 ADD PUSH1 0x40 DUP2 SWAP1 MSTORE PUSH2 0x2F SWAP2 PUSH2 0x165 JUMP JUMPDEST PUSH1 0x1 PUSH1 0x1 PUSH1 0xA0 SHL SUB DUP1 DUP6 AND PUSH1 0x80 MSTORE PUSH1 0x0 DUP5 SWAP1 SSTORE DUP6 SWAP1 DUP2 AND PUSH2 0x6A JUMPI PUSH1 0x40 MLOAD PUSH4 0x1E4FBDF7 PUSH1 0xE0 SHL DUP2 MSTORE PUSH1 0x0 PUSH1 0x4 DUP3 ADD MSTORE PUSH1 0x24 ADD PUSH1 0x40 MLOAD DUP1 SWAP2 SUB SWAP1 REVERT JUMPDEST PUSH2 0x73 DUP2 PUSH2 0xC7 JUMP JUMPDEST POP PUSH1 0x2 DUP1 SLOAD PUSH1 0x1 PUSH1 0x1 PUSH1 0xA0 SHL SUB NOT AND PUSH1 0x1 PUSH1 0x1 PUSH1 0xA0 SHL SUB DUP8 AND OR SWAP1 SSTORE PUSH1 0xA0 DUP3 SWAP1 MSTORE PUSH2 0x9D DUP4 PUSH2 0x119 JUMP JUMPDEST PUSH1 0x3 DUP1 SLOAD PUSH1 0x1 PUSH1 0x1 PUSH1 0xA0 SHL SUB NOT AND PUSH1 0x1 PUSH1 0x1 PUSH1 0xA0 SHL SUB SWAP3 SWAP1 SWAP3 AND SWAP2 SWAP1 SWAP2 OR SWAP1 SSTORE POP PUSH2 0x1BC SWAP3 POP POP POP JUMP JUMPDEST PUSH1 0x1 DUP1 SLOAD PUSH1 0x1 PUSH1 0x1 PUSH1 0xA0 SHL SUB DUP4 DUP2 AND PUSH1 0x1 PUSH1 0x1 PUSH1 0xA0 SHL SUB NOT DUP4 AND DUP2 OR SWAP1 SWAP4 SSTORE PUSH1 0x40 MLOAD SWAP2 AND SWAP2 SWAP1 DUP3 SWAP1 PUSH32 0x8BE0079C531659141344CD1FD0A4F28419497F9722A3DAAFE3B4186F6B6457E0 SWAP1 PUSH1 0x0 SWAP1 LOG3 POP POP JUMP JUMPDEST PUSH1 0x0 DUP2 DUP2 SSTORE PUSH1 0x40 MLOAD DUP3 SWAP2 PUSH32 0x379705E49518633184CC7E64F6A0C9361E35F275BE47634AFB6C2C603E5311E5 SWAP2 LOG2 POP JUMP JUMPDEST DUP1 MLOAD PUSH1 0x1 PUSH1 0x1 PUSH1 0xA0 SHL SUB DUP2 AND DUP2 EQ PUSH2 0x160 JUMPI PUSH1 0x0 DUP1 REVERT JUMPDEST SWAP2 SWAP1 POP JUMP JUMPDEST PUSH1 0x0 DUP1 PUSH1 0x0 DUP1 PUSH1 0x0 PUSH1 0xA0 DUP7 DUP9 SUB SLT ISZERO PUSH2 0x17D JUMPI PUSH1 0x0 DUP1 REVERT JUMPDEST PUSH2 0x186 DUP7 PUSH2 0x149 JUMP JUMPDEST SWAP5 POP PUSH2 0x194 PUSH1 0x20 DUP8 ADD PUSH2 0x149 JUMP JUMPDEST SWAP4 POP PUSH1 0x40 DUP7 ADD MLOAD SWAP3 POP PUSH1 0x60 DUP7 ADD MLOAD SWAP2 POP PUSH2 0x1B0 PUSH1 0x80 DUP8 ADD PUSH2 0x149 JUMP JUMPDEST SWAP1 POP SWAP3 SWAP6 POP SWAP3 SWAP6 SWAP1 SWAP4 POP JUMP JUMPDEST PUSH1 0x80 MLOAD PUSH1 0xA0 MLOAD PUSH2 0x1FCF PUSH2 0x1FD PUSH1 0x0 CODECOPY PUSH1 0x0 DUP2 DUP2 PUSH2 0x295 ADD MSTORE DUP2 DUP2 PUSH2 0x336 ADD MSTORE DUP2 DUP2 PUSH2 0x3A7 ADD MSTORE PUSH2 0xD0D ADD MSTORE PUSH1 0x0 DUP2 DUP2 PUSH2 0x842 ADD MSTORE PUSH2 0xD80 ADD MSTORE PUSH2 0x1FCF PUSH1 0x0 RETURN INVALID PUSH1 0x80 PUSH1 0x40 MSTORE CALLVALUE DUP1 ISZERO PUSH2 0x10 JUMPI PUSH1 0x0 DUP1 REVERT JUMPDEST POP PUSH1 0x4 CALLDATASIZE LT PUSH2 0x18E JUMPI PUSH1 0x0 CALLDATALOAD PUSH1 0xE0 SHR DUP1 PUSH4 0x8DA5CB5B GT PUSH2 0xDE JUMPI DUP1 PUSH4 0xB564EB27 GT PUSH2 0x97 JUMPI DUP1 PUSH4 0xD161802B GT PUSH2 0x71 JUMPI DUP1 PUSH4 0xD161802B EQ PUSH2 0x3ED JUMPI DUP1 PUSH4 0xE1A788EB EQ PUSH2 0x400 JUMPI DUP1 PUSH4 0xF2FDE38B EQ PUSH2 0x427 JUMPI DUP1 PUSH4 0xFC6F9468 EQ PUSH2 0x43A JUMPI PUSH1 0x0 DUP1 REVERT JUMPDEST DUP1 PUSH4 0xB564EB27 EQ PUSH2 0x3A2 JUMPI DUP1 PUSH4 0xB8A6EFBD EQ PUSH2 0x3C9 JUMPI DUP1 PUSH4 0xB8BAF4E4 EQ PUSH2 0x3DC JUMPI PUSH1 0x0 DUP1 REVERT JUMPDEST DUP1 PUSH4 0x8DA5CB5B EQ PUSH2 0x302 JUMPI DUP1 PUSH4 0xA81302A5 EQ PUSH2 0x313 JUMPI DUP1 PUSH4 0xADA1B319 EQ PUSH2 0x326 JUMPI DUP1 PUSH4 0xB454BFED EQ PUSH2 0x35C JUMPI DUP1 PUSH4 0xB4BA6FF9 EQ PUSH2 0x37C JUMPI DUP1 PUSH4 0xB556C6DA EQ PUSH2 0x38F JUMPI PUSH1 0x0 DUP1 REVERT JUMPDEST DUP1 PUSH4 0x5D53AC16 GT PUSH2 0x14B JUMPI DUP1 PUSH4 0x715018A6 GT PUSH2 0x125 JUMPI DUP1 PUSH4 0x715018A6 EQ PUSH2 0x2C1 JUMPI DUP1 PUSH4 0x833E5D78 EQ PUSH2 0x2C9 JUMPI DUP1 PUSH4 0x8BE55456 EQ PUSH2 0x2DC JUMPI DUP1 PUSH4 0x8D2D8D6A EQ PUSH2 0x2EF JUMPI PUSH1 0x0 DUP1 REVERT JUMPDEST DUP1 PUSH4 0x5D53AC16 EQ PUSH2 0x268 JUMPI DUP1 PUSH4 0x634DAA11 EQ PUSH2 0x293 JUMPI DUP1 PUSH4 0x6E62D0A8 EQ PUSH2 0x2B9 JUMPI PUSH1 0x0 DUP1 REVERT JUMPDEST DUP1 PUSH4 0x2DE6988 EQ PUSH2 0x193 JUMPI DUP1 PUSH4 0x343B1E7 EQ PUSH2 0x1B9 JUMPI DUP1 PUSH4 0x70F09AD EQ PUSH2 0x1D9 JUMPI DUP1 PUSH4 0x7763EC3 EQ PUSH2 0x1EE JUMPI DUP1 PUSH4 0x2789B4D7 EQ PUSH2 0x212 JUMPI DUP1 PUSH4 0x37364EA2 EQ PUSH2 0x248 JUMPI JUMPDEST PUSH1 0x0 DUP1 REVERT JUMPDEST PUSH2 0x1A6 PUSH2 0x1A1 CALLDATASIZE PUSH1 0x4 PUSH2 0x14F1 JUMP JUMPDEST PUSH2 0x44D JUMP JUMPDEST PUSH1 0x40 MLOAD SWAP1 DUP2 MSTORE PUSH1 0x20 ADD JUMPDEST PUSH1 0x40 MLOAD DUP1 SWAP2 SUB SWAP1 RETURN JUMPDEST PUSH2 0x1CC PUSH2 0x1C7 CALLDATASIZE PUSH1 0x4 PUSH2 0x14F1 JUMP JUMPDEST PUSH2 0x492 JUMP JUMPDEST PUSH1 0x40 MLOAD PUSH2 0x1B0 SWAP2 SWAP1 PUSH2 0x155A JUMP JUMPDEST PUSH2 0x1EC PUSH2 0x1E7 CALLDATASIZE PUSH1 0x4 PUSH2 0x15AC JUMP JUMPDEST PUSH2 0x5AA JUMP JUMPDEST STOP JUMPDEST PUSH2 0x201 PUSH2 0x1FC CALLDATASIZE PUSH1 0x4 PUSH2 0x14F1 JUMP JUMPDEST PUSH2 0x5D4 JUMP JUMPDEST PUSH1 0x40 MLOAD PUSH2 0x1B0 SWAP6 SWAP5 SWAP4 SWAP3 SWAP2 SWAP1 PUSH2 0x15DC JUMP JUMPDEST PUSH2 0x238 PUSH2 0x220 CALLDATASIZE PUSH1 0x4 PUSH2 0x14F1 JUMP JUMPDEST PUSH1 0x0 SWAP1 DUP2 MSTORE PUSH1 0x6 PUSH1 0x20 MSTORE PUSH1 0x40 SWAP1 KECCAK256 PUSH1 0x4 ADD SLOAD PUSH1 0xFF AND SWAP1 JUMP JUMPDEST PUSH1 0x40 MLOAD SWAP1 ISZERO ISZERO DUP2 MSTORE PUSH1 0x20 ADD PUSH2 0x1B0 JUMP JUMPDEST PUSH2 0x1A6 PUSH2 0x256 CALLDATASIZE PUSH1 0x4 PUSH2 0x14F1 JUMP JUMPDEST PUSH1 0x8 PUSH1 0x20 MSTORE PUSH1 0x0 SWAP1 DUP2 MSTORE PUSH1 0x40 SWAP1 KECCAK256 SLOAD DUP2 JUMP JUMPDEST PUSH1 0x3 SLOAD PUSH2 0x27B SWAP1 PUSH1 0x1 PUSH1 0x1 PUSH1 0xA0 SHL SUB AND DUP2 JUMP JUMPDEST PUSH1 0x40 MLOAD PUSH1 0x1 PUSH1 0x1 PUSH1 0xA0 SHL SUB SWAP1 SWAP2 AND DUP2 MSTORE PUSH1 0x20 ADD PUSH2 0x1B0 JUMP JUMPDEST PUSH32 0x0 PUSH2 0x1A6 JUMP JUMPDEST PUSH1 0x0 SLOAD PUSH2 0x1A6 JUMP JUMPDEST PUSH2 0x1EC PUSH2 0x68F JUMP JUMPDEST PUSH2 0x1A6 PUSH2 0x2D7 CALLDATASIZE PUSH1 0x4 PUSH2 0x1703 JUMP JUMPDEST PUSH2 0x6A3 JUMP JUMPDEST PUSH2 0x238 PUSH2 0x2EA CALLDATASIZE PUSH1 0x4 PUSH2 0x175A JUMP JUMPDEST PUSH2 0x75A JUMP JUMPDEST PUSH2 0x1EC PUSH2 0x2FD CALLDATASIZE PUSH1 0x4 PUSH2 0x17DE JUMP JUMPDEST PUSH2 0x837 JUMP JUMPDEST PUSH1 0x1 SLOAD PUSH1 0x1 PUSH1 0x1 PUSH1 0xA0 SHL SUB AND PUSH2 0x27B JUMP JUMPDEST PUSH2 0x1EC PUSH2 0x321 CALLDATASIZE PUSH1 0x4 PUSH2 0x1845 JUMP JUMPDEST PUSH2 0x8A7 JUMP JUMPDEST PUSH2 0x1A6 PUSH2 0x334 CALLDATASIZE PUSH1 0x4 PUSH2 0x1875 JUMP JUMPDEST PUSH32 0x0 SWAP4 SWAP3 POP POP POP JUMP JUMPDEST PUSH2 0x36F PUSH2 0x36A CALLDATASIZE PUSH1 0x4 PUSH2 0x14F1 JUMP JUMPDEST PUSH2 0xA03 JUMP JUMPDEST PUSH1 0x40 MLOAD PUSH2 0x1B0 SWAP2 SWAP1 PUSH2 0x18C4 JUMP JUMPDEST PUSH2 0x1EC PUSH2 0x38A CALLDATASIZE PUSH1 0x4 PUSH2 0x14F1 JUMP JUMPDEST PUSH2 0xB32 JUMP JUMPDEST PUSH2 0x27B PUSH2 0x39D CALLDATASIZE PUSH1 0x4 PUSH2 0x14F1 JUMP JUMPDEST PUSH2 0xB46 JUMP JUMPDEST PUSH2 0x1A6 PUSH32 0x0 DUP2 JUMP JUMPDEST PUSH2 0x36F PUSH2 0x3D7 CALLDATASIZE PUSH1 0x4 PUSH2 0x14F1 JUMP JUMPDEST PUSH2 0xBB4 JUMP JUMPDEST PUSH2 0x27B PUSH2 0x3EA CALLDATASIZE PUSH1 0x4 PUSH2 0x14F1 JUMP JUMPDEST SWAP1 JUMP JUMPDEST PUSH2 0x1EC PUSH2 0x3FB CALLDATASIZE PUSH1 0x4 PUSH2 0x191F JUMP JUMPDEST PUSH2 0xC4E JUMP JUMPDEST PUSH2 0x1A6 PUSH32 0x5C64A8A74CFA7615128BCDFEEE4695403156B321BC1F0F1DD1A0B09D3618731E DUP2 JUMP JUMPDEST PUSH2 0x1EC PUSH2 0x435 CALLDATASIZE PUSH1 0x4 PUSH2 0x15AC JUMP JUMPDEST PUSH2 0xE2D JUMP JUMPDEST PUSH1 0x2 SLOAD PUSH2 0x27B SWAP1 PUSH1 0x1 PUSH1 0x1 PUSH1 0xA0 SHL SUB AND DUP2 JUMP JUMPDEST PUSH1 0x0 DUP2 DUP2 MSTORE PUSH1 0x6 PUSH1 0x20 MSTORE PUSH1 0x40 DUP2 KECCAK256 PUSH1 0x4 ADD SLOAD PUSH1 0xFF AND PUSH2 0x47F JUMPI PUSH1 0x40 MLOAD PUSH4 0x7D93D32B PUSH1 0xE0 SHL DUP2 MSTORE PUSH1 0x4 ADD PUSH1 0x40 MLOAD DUP1 SWAP2 SUB SWAP1 REVERT JUMPDEST POP PUSH1 0x0 SWAP1 DUP2 MSTORE PUSH1 0x8 PUSH1 0x20 MSTORE PUSH1 0x40 SWAP1 KECCAK256 SLOAD SWAP1 JUMP JUMPDEST PUSH2 0x4C6 PUSH1 0x40 MLOAD DUP1 PUSH1 0xA0 ADD PUSH1 0x40 MSTORE DUP1 PUSH1 0x0 DUP2 MSTORE PUSH1 0x20 ADD PUSH1 0x0 DUP2 MSTORE PUSH1 0x20 ADD PUSH1 0x60 DUP2 MSTORE PUSH1 0x20 ADD PUSH1 0x0 DUP2 MSTORE PUSH1 0x20 ADD PUSH1 0x0 ISZERO ISZERO DUP2 MSTORE POP SWAP1 JUMP JUMPDEST PUSH1 0x6 PUSH1 0x0 DUP4 DUP2 MSTORE PUSH1 0x20 ADD SWAP1 DUP2 MSTORE PUSH1 0x20 ADD PUSH1 0x0 KECCAK256 PUSH1 0x40 MLOAD DUP1 PUSH1 0xA0 ADD PUSH1 0x40 MSTORE SWAP1 DUP2 PUSH1 0x0 DUP3 ADD SLOAD DUP2 MSTORE PUSH1 0x20 ADD PUSH1 0x1 DUP3 ADD SLOAD DUP2 MSTORE PUSH1 0x20 ADD PUSH1 0x2 DUP3 ADD DUP1 SLOAD PUSH2 0x508 SWAP1 PUSH2 0x198E JUMP JUMPDEST DUP1 PUSH1 0x1F ADD PUSH1 0x20 DUP1 SWAP2 DIV MUL PUSH1 0x20 ADD PUSH1 0x40 MLOAD SWAP1 DUP2 ADD PUSH1 0x40 MSTORE DUP1 SWAP3 SWAP2 SWAP1 DUP2 DUP2 MSTORE PUSH1 0x20 ADD DUP3 DUP1 SLOAD PUSH2 0x534 SWAP1 PUSH2 0x198E JUMP JUMPDEST DUP1 ISZERO PUSH2 0x581 JUMPI DUP1 PUSH1 0x1F LT PUSH2 0x556 JUMPI PUSH2 0x100 DUP1 DUP4 SLOAD DIV MUL DUP4 MSTORE SWAP2 PUSH1 0x20 ADD SWAP2 PUSH2 0x581 JUMP JUMPDEST DUP3 ADD SWAP2 SWAP1 PUSH1 0x0 MSTORE PUSH1 0x20 PUSH1 0x0 KECCAK256 SWAP1 JUMPDEST DUP2 SLOAD DUP2 MSTORE SWAP1 PUSH1 0x1 ADD SWAP1 PUSH1 0x20 ADD DUP1 DUP4 GT PUSH2 0x564 JUMPI DUP3 SWAP1 SUB PUSH1 0x1F AND DUP3 ADD SWAP2 JUMPDEST POP POP POP SWAP2 DUP4 MSTORE POP POP PUSH1 0x3 DUP3 ADD SLOAD PUSH1 0x20 DUP3 ADD MSTORE PUSH1 0x4 SWAP1 SWAP2 ADD SLOAD PUSH1 0xFF AND ISZERO ISZERO PUSH1 0x40 SWAP1 SWAP2 ADD MSTORE SWAP3 SWAP2 POP POP JUMP JUMPDEST PUSH2 0x5B2 PUSH2 0xE68 JUMP JUMPDEST PUSH1 0x3 DUP1 SLOAD PUSH1 0x1 PUSH1 0x1 PUSH1 0xA0 SHL SUB NOT AND PUSH1 0x1 PUSH1 0x1 PUSH1 0xA0 SHL SUB SWAP3 SWAP1 SWAP3 AND SWAP2 SWAP1 SWAP2 OR SWAP1 SSTORE JUMP JUMPDEST PUSH1 0x6 PUSH1 0x20 MSTORE PUSH1 0x0 SWAP1 DUP2 MSTORE PUSH1 0x40 SWAP1 KECCAK256 DUP1 SLOAD PUSH1 0x1 DUP3 ADD SLOAD PUSH1 0x2 DUP4 ADD DUP1 SLOAD SWAP3 SWAP4 SWAP2 SWAP3 PUSH2 0x5FC SWAP1 PUSH2 0x198E JUMP JUMPDEST DUP1 PUSH1 0x1F ADD PUSH1 0x20 DUP1 SWAP2 DIV MUL PUSH1 0x20 ADD PUSH1 0x40 MLOAD SWAP1 DUP2 ADD PUSH1 0x40 MSTORE DUP1 SWAP3 SWAP2 SWAP1 DUP2 DUP2 MSTORE PUSH1 0x20 ADD DUP3 DUP1 SLOAD PUSH2 0x628 SWAP1 PUSH2 0x198E JUMP JUMPDEST DUP1 ISZERO PUSH2 0x675 JUMPI DUP1 PUSH1 0x1F LT PUSH2 0x64A JUMPI PUSH2 0x100 DUP1 DUP4 SLOAD DIV MUL DUP4 MSTORE SWAP2 PUSH1 0x20 ADD SWAP2 PUSH2 0x675 JUMP JUMPDEST DUP3 ADD SWAP2 SWAP1 PUSH1 0x0 MSTORE PUSH1 0x20 PUSH1 0x0 KECCAK256 SWAP1 JUMPDEST DUP2 SLOAD DUP2 MSTORE SWAP1 PUSH1 0x1 ADD SWAP1 PUSH1 0x20 ADD DUP1 DUP4 GT PUSH2 0x658 JUMPI DUP3 SWAP1 SUB PUSH1 0x1F AND DUP3 ADD SWAP2 JUMPDEST POP POP POP POP PUSH1 0x3 DUP4 ADD SLOAD PUSH1 0x4 SWAP1 SWAP4 ADD SLOAD SWAP2 SWAP3 SWAP2 PUSH1 0xFF AND SWAP1 POP DUP6 JUMP JUMPDEST PUSH2 0x697 PUSH2 0xE68 JUMP JUMPDEST PUSH2 0x6A1 PUSH1 0x0 PUSH2 0xE95 JUMP JUMPDEST JUMP JUMPDEST DUP2 MLOAD PUSH1 0x20 DUP1 DUP5 ADD SWAP2 SWAP1 SWAP2 KECCAK256 PUSH1 0x40 DUP1 MLOAD PUSH32 0x5C64A8A74CFA7615128BCDFEEE4695403156B321BC1F0F1DD1A0B09D3618731E DUP2 DUP6 ADD MSTORE DUP1 DUP3 ADD DUP9 SWAP1 MSTORE PUSH1 0x60 DUP2 ADD DUP8 SWAP1 MSTORE PUSH1 0x80 DUP2 ADD SWAP3 SWAP1 SWAP3 MSTORE PUSH1 0xA0 DUP1 DUP4 ADD DUP6 SWAP1 MSTORE DUP2 MLOAD DUP1 DUP5 SUB SWAP1 SWAP2 ADD DUP2 MSTORE PUSH1 0xC0 SWAP1 SWAP3 ADD SWAP1 MSTORE DUP1 MLOAD SWAP2 ADD KECCAK256 PUSH1 0x0 SWAP1 DUP2 PUSH2 0x716 PUSH2 0xEE7 JUMP JUMPDEST PUSH1 0x40 MLOAD PUSH2 0x1901 PUSH1 0xF0 SHL PUSH1 0x20 DUP3 ADD MSTORE PUSH1 0x22 DUP2 ADD DUP3 SWAP1 MSTORE PUSH1 0x42 DUP2 ADD DUP5 SWAP1 MSTORE SWAP1 SWAP2 POP PUSH1 0x62 ADD PUSH1 0x40 MLOAD PUSH1 0x20 DUP2 DUP4 SUB SUB DUP2 MSTORE SWAP1 PUSH1 0x40 MSTORE DUP1 MLOAD SWAP1 PUSH1 0x20 ADD KECCAK256 SWAP3 POP POP POP SWAP5 SWAP4 POP POP POP POP JUMP JUMPDEST DUP3 MLOAD PUSH1 0x20 DUP1 DUP6 ADD SWAP2 SWAP1 SWAP2 KECCAK256 PUSH1 0x40 DUP1 MLOAD PUSH32 0x5C64A8A74CFA7615128BCDFEEE4695403156B321BC1F0F1DD1A0B09D3618731E DUP2 DUP6 ADD MSTORE DUP1 DUP3 ADD DUP10 SWAP1 MSTORE PUSH1 0x60 DUP2 ADD DUP9 SWAP1 MSTORE PUSH1 0x80 DUP2 ADD SWAP3 SWAP1 SWAP3 MSTORE PUSH1 0xA0 DUP1 DUP4 ADD DUP7 SWAP1 MSTORE DUP2 MLOAD DUP1 DUP5 SUB SWAP1 SWAP2 ADD DUP2 MSTORE PUSH1 0xC0 SWAP1 SWAP3 ADD SWAP1 MSTORE DUP1 MLOAD SWAP2 ADD KECCAK256 PUSH1 0x0 SWAP1 DUP2 PUSH2 0x7CD PUSH2 0xEE7 JUMP JUMPDEST PUSH1 0x40 MLOAD PUSH2 0x1901 PUSH1 0xF0 SHL PUSH1 0x20 DUP3 ADD MSTORE PUSH1 0x22 DUP2 ADD DUP3 SWAP1 MSTORE PUSH1 0x42 DUP2 ADD DUP5 SWAP1 MSTORE SWAP1 SWAP2 POP PUSH1 0x0 SWAP1 PUSH1 0x62 ADD PUSH1 0x40 DUP1 MLOAD PUSH1 0x1F NOT DUP2 DUP5 SUB ADD DUP2 MSTORE SWAP2 SWAP1 MSTORE DUP1 MLOAD PUSH1 0x20 SWAP1 SWAP2 ADD KECCAK256 SWAP1 POP PUSH1 0x0 PUSH2 0x818 DUP3 DUP8 PUSH2 0x1024 JUMP JUMPDEST PUSH1 0x2 SLOAD PUSH1 0x1 PUSH1 0x1 PUSH1 0xA0 SHL SUB SWAP1 DUP2 AND SWAP2 AND EQ SWAP11 SWAP10 POP POP POP POP POP POP POP POP POP POP JUMP JUMPDEST CALLER PUSH1 0x1 PUSH1 0x1 PUSH1 0xA0 SHL SUB PUSH32 0x0 AND EQ PUSH2 0x880 JUMPI PUSH1 0x40 MLOAD PUSH4 0x5C427CD9 PUSH1 0xE0 SHL DUP2 MSTORE PUSH1 0x4 ADD PUSH1 0x40 MLOAD DUP1 SWAP2 SUB SWAP1 REVERT JUMPDEST PUSH1 0x0 DUP3 DUP1 PUSH1 0x20 ADD SWAP1 MLOAD DUP2 ADD SWAP1 PUSH2 0x896 SWAP2 SWAP1 PUSH2 0x1B62 JUMP JUMPDEST SWAP1 POP PUSH2 0x8A2 DUP2 DUP4 PUSH2 0x104E JUMP JUMPDEST POP POP POP JUMP JUMPDEST PUSH1 0x2 SLOAD PUSH1 0x1 PUSH1 0x1 PUSH1 0xA0 SHL SUB AND CALLER EQ PUSH2 0x906 JUMPI PUSH1 0x40 MLOAD PUSH3 0x461BCD PUSH1 0xE5 SHL DUP2 MSTORE PUSH1 0x20 PUSH1 0x4 DUP3 ADD MSTORE PUSH1 0x17 PUSH1 0x24 DUP3 ADD MSTORE PUSH32 0x556E617574686F72697A65643A204E6F742041646D696E000000000000000000 PUSH1 0x44 DUP3 ADD MSTORE PUSH1 0x64 ADD JUMPDEST PUSH1 0x40 MLOAD DUP1 SWAP2 SUB SWAP1 REVERT JUMPDEST PUSH1 0x0 DUP3 DUP2 MSTORE PUSH1 0x6 PUSH1 0x20 MSTORE PUSH1 0x40 SWAP1 KECCAK256 PUSH1 0x4 ADD SLOAD PUSH1 0xFF AND PUSH2 0x95B JUMPI PUSH1 0x40 MLOAD PUSH3 0x461BCD PUSH1 0xE5 SHL DUP2 MSTORE PUSH1 0x20 PUSH1 0x4 DUP3 ADD MSTORE PUSH1 0x11 PUSH1 0x24 DUP3 ADD MSTORE PUSH17 0x155CD95C881B9BDD081D995C9A599A5959 PUSH1 0x7A SHL PUSH1 0x44 DUP3 ADD MSTORE PUSH1 0x64 ADD PUSH2 0x8FD JUMP JUMPDEST DUP1 MLOAD PUSH1 0x41 EQ PUSH2 0x9AC JUMPI PUSH1 0x40 MLOAD PUSH3 0x461BCD PUSH1 0xE5 SHL DUP2 MSTORE PUSH1 0x20 PUSH1 0x4 DUP3 ADD MSTORE PUSH1 0x18 PUSH1 0x24 DUP3 ADD MSTORE PUSH32 0x496E76616C6964207369676E6174757265206C656E6774680000000000000000 PUSH1 0x44 DUP3 ADD MSTORE PUSH1 0x64 ADD PUSH2 0x8FD JUMP JUMPDEST PUSH1 0x0 DUP3 DUP2 MSTORE PUSH1 0x7 PUSH1 0x20 MSTORE PUSH1 0x40 SWAP1 KECCAK256 PUSH2 0x9C4 DUP3 DUP3 PUSH2 0x1D7B JUMP JUMPDEST POP DUP2 PUSH32 0xE82EF336DC43F8105A8EFDA77CBAABB7FEC1003A770537904A41858C706B0C25 DUP3 TIMESTAMP PUSH1 0x40 MLOAD PUSH2 0x9F7 SWAP3 SWAP2 SWAP1 PUSH2 0x1E39 JUMP JUMPDEST PUSH1 0x40 MLOAD DUP1 SWAP2 SUB SWAP1 LOG2 POP POP JUMP JUMPDEST PUSH1 0x0 DUP2 DUP2 MSTORE PUSH1 0x6 PUSH1 0x20 MSTORE PUSH1 0x40 SWAP1 KECCAK256 PUSH1 0x4 ADD SLOAD PUSH1 0x60 SWAP1 PUSH1 0xFF AND PUSH2 0xA38 JUMPI PUSH1 0x40 MLOAD PUSH4 0x7D93D32B PUSH1 0xE0 SHL DUP2 MSTORE PUSH1 0x4 ADD PUSH1 0x40 MLOAD DUP1 SWAP2 SUB SWAP1 REVERT JUMPDEST PUSH1 0x0 DUP3 DUP2 MSTORE PUSH1 0x7 PUSH1 0x20 MSTORE PUSH1 0x40 DUP2 KECCAK256 DUP1 SLOAD PUSH2 0xA51 SWAP1 PUSH2 0x198E JUMP JUMPDEST SWAP1 POP GT PUSH2 0xA94 JUMPI PUSH1 0x40 MLOAD PUSH3 0x461BCD PUSH1 0xE5 SHL DUP2 MSTORE PUSH1 0x20 PUSH1 0x4 DUP3 ADD MSTORE PUSH1 0x11 PUSH1 0x24 DUP3 ADD MSTORE PUSH17 0x14DA59DB985D1D5C99481B9BDD081CD95D PUSH1 0x7A SHL PUSH1 0x44 DUP3 ADD MSTORE PUSH1 0x64 ADD PUSH2 0x8FD JUMP JUMPDEST PUSH1 0x0 DUP3 DUP2 MSTORE PUSH1 0x7 PUSH1 0x20 MSTORE PUSH1 0x40 SWAP1 KECCAK256 DUP1 SLOAD PUSH2 0xAAD SWAP1 PUSH2 0x198E JUMP JUMPDEST DUP1 PUSH1 0x1F ADD PUSH1 0x20 DUP1 SWAP2 DIV MUL PUSH1 0x20 ADD PUSH1 0x40 MLOAD SWAP1 DUP2 ADD PUSH1 0x40 MSTORE DUP1 SWAP3 SWAP2 SWAP1 DUP2 DUP2 MSTORE PUSH1 0x20 ADD DUP3 DUP1 SLOAD PUSH2 0xAD9 SWAP1 PUSH2 0x198E JUMP JUMPDEST DUP1 ISZERO PUSH2 0xB26 JUMPI DUP1 PUSH1 0x1F LT PUSH2 0xAFB JUMPI PUSH2 0x100 DUP1 DUP4 SLOAD DIV MUL DUP4 MSTORE SWAP2 PUSH1 0x20 ADD SWAP2 PUSH2 0xB26 JUMP JUMPDEST DUP3 ADD SWAP2 SWAP1 PUSH1 0x0 MSTORE PUSH1 0x20 PUSH1 0x0 KECCAK256 SWAP1 JUMPDEST DUP2 SLOAD DUP2 MSTORE SWAP1 PUSH1 0x1 ADD SWAP1 PUSH1 0x20 ADD DUP1 DUP4 GT PUSH2 0xB09 JUMPI DUP3 SWAP1 SUB PUSH1 0x1F AND DUP3 ADD SWAP2 JUMPDEST POP POP POP POP POP SWAP1 POP SWAP2 SWAP1 POP JUMP JUMPDEST PUSH2 0xB3A PUSH2 0xE68 JUMP JUMPDEST PUSH2 0xB43 DUP2 PUSH2 0x11EC JUMP JUMPDEST POP JUMP JUMPDEST PUSH1 0x0 DUP2 DUP2 MSTORE PUSH1 0x6 PUSH1 0x20 MSTORE PUSH1 0x40 DUP2 KECCAK256 PUSH1 0x4 ADD SLOAD PUSH1 0xFF AND PUSH2 0xB9B JUMPI PUSH1 0x40 MLOAD PUSH3 0x461BCD PUSH1 0xE5 SHL DUP2 MSTORE PUSH1 0x20 PUSH1 0x4 DUP3 ADD MSTORE PUSH1 0x11 PUSH1 0x24 DUP3 ADD MSTORE PUSH17 0x155CD95C881B9BDD081D995C9A599A5959 PUSH1 0x7A SHL PUSH1 0x44 DUP3 ADD MSTORE PUSH1 0x64 ADD PUSH2 0x8FD JUMP JUMPDEST PUSH1 0x0 DUP3 DUP2 MSTORE PUSH1 0x6 PUSH1 0x20 MSTORE PUSH1 0x40 SWAP1 KECCAK256 PUSH1 0x1 ADD SLOAD JUMPDEST SWAP3 SWAP2 POP POP JUMP JUMPDEST PUSH1 0x7 PUSH1 0x20 MSTORE PUSH1 0x0 SWAP1 DUP2 MSTORE PUSH1 0x40 SWAP1 KECCAK256 DUP1 SLOAD PUSH2 0xBCD SWAP1 PUSH2 0x198E JUMP JUMPDEST DUP1 PUSH1 0x1F ADD PUSH1 0x20 DUP1 SWAP2 DIV MUL PUSH1 0x20 ADD PUSH1 0x40 MLOAD SWAP1 DUP2 ADD PUSH1 0x40 MSTORE DUP1 SWAP3 SWAP2 SWAP1 DUP2 DUP2 MSTORE PUSH1 0x20 ADD DUP3 DUP1 SLOAD PUSH2 0xBF9 SWAP1 PUSH2 0x198E JUMP JUMPDEST DUP1 ISZERO PUSH2 0xC46 JUMPI DUP1 PUSH1 0x1F LT PUSH2 0xC1B JUMPI PUSH2 0x100 DUP1 DUP4 SLOAD DIV MUL DUP4 MSTORE SWAP2 PUSH1 0x20 ADD SWAP2 PUSH2 0xC46 JUMP JUMPDEST DUP3 ADD SWAP2 SWAP1 PUSH1 0x0 MSTORE PUSH1 0x20 PUSH1 0x0 KECCAK256 SWAP1 JUMPDEST DUP2 SLOAD DUP2 MSTORE SWAP1 PUSH1 0x1 ADD SWAP1 PUSH1 0x20 ADD DUP1 DUP4 GT PUSH2 0xC29 JUMPI DUP3 SWAP1 SUB PUSH1 0x1F AND DUP3 ADD SWAP2 JUMPDEST POP POP POP POP POP DUP2 JUMP JUMPDEST PUSH1 0x20 DUP4 LT ISZERO PUSH2 0xC70 JUMPI PUSH1 0x40 MLOAD PUSH4 0xA512E2FF PUSH1 0xE0 SHL DUP2 MSTORE PUSH1 0x4 ADD PUSH1 0x40 MLOAD DUP1 SWAP2 SUB SWAP1 REVERT JUMPDEST PUSH1 0x40 DUP2 LT ISZERO PUSH2 0xC92 JUMPI PUSH1 0x40 MLOAD PUSH4 0xA512E2FF PUSH1 0xE0 SHL DUP2 MSTORE PUSH1 0x4 ADD PUSH1 0x40 MLOAD DUP1 SWAP2 SUB SWAP1 REVERT JUMPDEST DUP4 CALLDATALOAD PUSH1 0x0 PUSH2 0xCA3 PUSH1 0x20 DUP3 DUP6 DUP8 PUSH2 0x1E5B JUMP JUMPDEST PUSH2 0xCAC SWAP2 PUSH2 0x1E85 JUMP JUMPDEST SWAP1 POP PUSH1 0x0 PUSH2 0xCBE PUSH1 0x40 PUSH1 0x20 DUP7 DUP9 PUSH2 0x1E5B JUMP JUMPDEST PUSH2 0xCC7 SWAP2 PUSH2 0x1E85 JUMP JUMPDEST SWAP1 POP PUSH1 0x0 PUSH2 0xCD8 DUP6 PUSH1 0x40 DUP2 DUP10 PUSH2 0x1E5B JUMP JUMPDEST DUP1 DUP1 PUSH1 0x1F ADD PUSH1 0x20 DUP1 SWAP2 DIV MUL PUSH1 0x20 ADD PUSH1 0x40 MLOAD SWAP1 DUP2 ADD PUSH1 0x40 MSTORE DUP1 SWAP4 SWAP3 SWAP2 SWAP1 DUP2 DUP2 MSTORE PUSH1 0x20 ADD DUP4 DUP4 DUP1 DUP3 DUP5 CALLDATACOPY PUSH1 0x0 SWAP3 ADD DUP3 SWAP1 MSTORE POP SWAP4 SWAP5 POP PUSH32 0x0 SWAP3 POP PUSH2 0xD36 SWAP2 POP POP JUMP JUMPDEST SWAP1 POP PUSH1 0x0 PUSH1 0x2 PUSH1 0x0 PUSH1 0x8 SHL PUSH1 0x0 SLOAD DUP9 DUP14 DUP14 PUSH1 0x20 SWAP1 DUP1 SWAP3 PUSH2 0xD58 SWAP4 SWAP3 SWAP2 SWAP1 PUSH2 0x1E5B JUMP JUMPDEST PUSH1 0x40 MLOAD PUSH1 0x20 ADD PUSH2 0xD6D SWAP7 SWAP6 SWAP5 SWAP4 SWAP3 SWAP2 SWAP1 PUSH2 0x1EA3 JUMP JUMPDEST PUSH1 0x40 MLOAD PUSH1 0x20 DUP2 DUP4 SUB SUB DUP2 MSTORE SWAP1 PUSH1 0x40 MSTORE SWAP1 POP PUSH32 0x0 PUSH1 0x1 PUSH1 0x1 PUSH1 0xA0 SHL SUB AND PUSH4 0xF7E83AEE DUP3 DUP5 DUP12 DUP12 PUSH1 0x40 MLOAD PUSH1 0x20 ADD PUSH2 0xDC3 SWAP4 SWAP3 SWAP2 SWAP1 PUSH2 0x1EDF JUMP JUMPDEST PUSH1 0x40 MLOAD PUSH1 0x20 DUP2 DUP4 SUB SUB DUP2 MSTORE SWAP1 PUSH1 0x40 MSTORE PUSH1 0x40 MLOAD DUP4 PUSH4 0xFFFFFFFF AND PUSH1 0xE0 SHL DUP2 MSTORE PUSH1 0x4 ADD PUSH2 0xDEF SWAP3 SWAP2 SWAP1 PUSH2 0x1EF9 JUMP JUMPDEST PUSH1 0x0 PUSH1 0x40 MLOAD DUP1 DUP4 SUB DUP2 PUSH1 0x0 DUP8 DUP1 EXTCODESIZE ISZERO DUP1 ISZERO PUSH2 0xE09 JUMPI PUSH1 0x0 DUP1 REVERT JUMPDEST POP GAS CALL ISZERO DUP1 ISZERO PUSH2 0xE1D JUMPI RETURNDATASIZE PUSH1 0x0 DUP1 RETURNDATACOPY RETURNDATASIZE PUSH1 0x0 REVERT JUMPDEST POP POP POP POP POP POP POP POP POP POP POP POP POP POP JUMP JUMPDEST PUSH2 0xE35 PUSH2 0xE68 JUMP JUMPDEST PUSH1 0x1 PUSH1 0x1 PUSH1 0xA0 SHL SUB DUP2 AND PUSH2 0xE5F JUMPI PUSH1 0x40 MLOAD PUSH4 0x1E4FBDF7 PUSH1 0xE0 SHL DUP2 MSTORE PUSH1 0x0 PUSH1 0x4 DUP3 ADD MSTORE PUSH1 0x24 ADD PUSH2 0x8FD JUMP JUMPDEST PUSH2 0xB43 DUP2 PUSH2 0xE95 JUMP JUMPDEST PUSH1 0x1 SLOAD PUSH1 0x1 PUSH1 0x1 PUSH1 0xA0 SHL SUB AND CALLER EQ PUSH2 0x6A1 JUMPI PUSH1 0x40 MLOAD PUSH4 0x118CDAA7 PUSH1 0xE0 SHL DUP2 MSTORE CALLER PUSH1 0x4 DUP3 ADD MSTORE PUSH1 0x24 ADD PUSH2 0x8FD JUMP JUMPDEST PUSH1 0x1 DUP1 SLOAD PUSH1 0x1 PUSH1 0x1 PUSH1 0xA0 SHL SUB DUP4 DUP2 AND PUSH1 0x1 PUSH1 0x1 PUSH1 0xA0 SHL SUB NOT DUP4 AND DUP2 OR SWAP1 SWAP4 SSTORE PUSH1 0x40 MLOAD SWAP2 AND SWAP2 SWAP1 DUP3 SWAP1 PUSH32 0x8BE0079C531659141344CD1FD0A4F28419497F9722A3DAAFE3B4186F6B6457E0 SWAP1 PUSH1 0x0 SWAP1 LOG3 POP POP JUMP JUMPDEST PUSH1 0x3 SLOAD PUSH1 0x0 SWAP1 PUSH1 0x1 PUSH1 0x1 PUSH1 0xA0 SHL SUB AND PUSH2 0xF42 JUMPI PUSH1 0x40 MLOAD PUSH3 0x461BCD PUSH1 0xE5 SHL DUP2 MSTORE PUSH1 0x20 PUSH1 0x4 DUP3 ADD MSTORE PUSH1 0x1C PUSH1 0x24 DUP3 ADD MSTORE PUSH32 0x52656C696566506F6F6C7320636F6E7472616374206E6F742073657400000000 PUSH1 0x44 DUP3 ADD MSTORE PUSH1 0x64 ADD PUSH2 0x8FD JUMP JUMPDEST POP PUSH1 0x40 DUP1 MLOAD DUP1 DUP3 ADD DUP3 MSTORE PUSH1 0xB DUP2 MSTORE PUSH11 0x52656C696566506F6F6C73 PUSH1 0xA8 SHL PUSH1 0x20 SWAP2 DUP3 ADD MSTORE DUP2 MLOAD DUP1 DUP4 ADD DUP4 MSTORE PUSH1 0x1 DUP2 MSTORE PUSH1 0x31 PUSH1 0xF8 SHL SWAP1 DUP3 ADD MSTORE PUSH1 0x3 SLOAD DUP3 MLOAD PUSH32 0x8B73C3C69BB8FE3D512ECC4CF759CC79239F7B179B0FFACAA9A75D522B39400F DUP2 DUP5 ADD MSTORE PUSH32 0x3323A8070B7081E28CA423D850C49E17147E941AF41DAF0AD176ECF1A5481B67 DUP2 DUP6 ADD MSTORE PUSH32 0xC89EFDAA54C0F20C7ADF612882DF0950F5A951637E0307CDCB4C672F298B8BC6 PUSH1 0x60 DUP3 ADD MSTORE PUSH2 0x2105 PUSH1 0x80 DUP3 ADD MSTORE PUSH1 0x1 PUSH1 0x1 PUSH1 0xA0 SHL SUB SWAP1 SWAP2 AND PUSH1 0xA0 DUP1 DUP4 ADD SWAP2 SWAP1 SWAP2 MSTORE DUP4 MLOAD DUP1 DUP4 SUB SWAP1 SWAP2 ADD DUP2 MSTORE PUSH1 0xC0 SWAP1 SWAP2 ADD SWAP1 SWAP3 MSTORE DUP2 MLOAD SWAP2 ADD KECCAK256 SWAP1 JUMP JUMPDEST PUSH1 0x0 DUP1 PUSH1 0x0 DUP1 PUSH2 0x1034 DUP7 DUP7 PUSH2 0x121C JUMP JUMPDEST SWAP3 POP SWAP3 POP SWAP3 POP PUSH2 0x1044 DUP3 DUP3 PUSH2 0x1269 JUMP JUMPDEST POP SWAP1 SWAP5 SWAP4 POP POP POP POP JUMP JUMPDEST DUP2 PUSH1 0xE0 ADD MLOAD MLOAD PUSH1 0x0 SUB PUSH2 0x1074 JUMPI PUSH1 0x40 MLOAD PUSH4 0x1D89D0AB PUSH1 0xE1 SHL DUP2 MSTORE PUSH1 0x4 ADD PUSH1 0x40 MLOAD DUP1 SWAP2 SUB SWAP1 REVERT JUMPDEST PUSH1 0x40 DUP1 MLOAD PUSH1 0xA0 DUP2 ADD DUP3 MSTORE DUP4 DUP3 ADD DUP1 MLOAD DUP3 MSTORE PUSH1 0x20 DUP1 DUP7 ADD MLOAD DUP2 DUP5 ADD SWAP1 DUP2 MSTORE PUSH1 0xE0 DUP8 ADD MLOAD DUP5 DUP7 ADD SWAP1 DUP2 MSTORE TIMESTAMP PUSH1 0x60 DUP7 ADD MSTORE PUSH1 0x1 PUSH1 0x80 DUP7 ADD DUP2 SWAP1 MSTORE SWAP4 MLOAD PUSH1 0x0 SWAP1 DUP2 MSTORE PUSH1 0x6 SWAP1 SWAP4 MSTORE SWAP5 SWAP1 SWAP2 KECCAK256 DUP4 MLOAD DUP2 SSTORE SWAP1 MLOAD SWAP2 DUP2 ADD SWAP2 SWAP1 SWAP2 SSTORE SWAP2 MLOAD SWAP1 SWAP2 SWAP1 PUSH1 0x2 DUP3 ADD SWAP1 PUSH2 0x10DC SWAP1 DUP3 PUSH2 0x1D7B JUMP JUMPDEST POP PUSH1 0x60 DUP3 ADD MLOAD PUSH1 0x3 DUP3 ADD SSTORE PUSH1 0x80 SWAP1 SWAP2 ADD MLOAD PUSH1 0x4 SWAP1 SWAP2 ADD DUP1 SLOAD PUSH1 0xFF NOT AND SWAP2 ISZERO ISZERO SWAP2 SWAP1 SWAP2 OR SWAP1 SSTORE PUSH1 0x40 DUP3 ADD MLOAD PUSH1 0x20 DUP4 ADD MLOAD PUSH1 0xE0 DUP5 ADD MLOAD PUSH1 0x0 SWAP3 PUSH2 0x111F SWAP3 SWAP1 SWAP2 TIMESTAMP PUSH2 0x6A3 JUMP JUMPDEST PUSH1 0x40 DUP5 DUP2 ADD MLOAD PUSH1 0x0 SWAP1 DUP2 MSTORE PUSH1 0x8 PUSH1 0x20 SWAP1 DUP2 MSTORE SWAP2 DUP2 KECCAK256 DUP4 SWAP1 SSTORE SWAP1 DUP6 ADD MLOAD SWAP2 SWAP3 POP PUSH2 0x1147 DUP5 PUSH2 0x1326 JUMP JUMPDEST SWAP1 POP PUSH1 0x0 DUP2 MLOAD GT PUSH2 0x119A JUMPI PUSH1 0x40 MLOAD PUSH3 0x461BCD PUSH1 0xE5 SHL DUP2 MSTORE PUSH1 0x20 PUSH1 0x4 DUP3 ADD MSTORE PUSH1 0x17 PUSH1 0x24 DUP3 ADD MSTORE PUSH32 0x506F6F6C2049442063616E6E6F7420626520656D707479000000000000000000 PUSH1 0x44 DUP3 ADD MSTORE PUSH1 0x64 ADD PUSH2 0x8FD JUMP JUMPDEST DUP5 PUSH1 0x20 ADD MLOAD DUP6 PUSH1 0x40 ADD MLOAD PUSH32 0x4BBD3D450AF4603E26025D94C195E0CA7EE1F4B60FE2363806B06285E60D2BB8 DUP8 PUSH1 0xE0 ADD MLOAD DUP6 DUP6 TIMESTAMP PUSH1 0x40 MLOAD PUSH2 0x11DD SWAP5 SWAP4 SWAP3 SWAP2 SWAP1 PUSH2 0x1F27 JUMP JUMPDEST PUSH1 0x40 MLOAD DUP1 SWAP2 SUB SWAP1 LOG3 POP POP POP POP POP JUMP JUMPDEST PUSH1 0x0 DUP2 DUP2 SSTORE PUSH1 0x40 MLOAD DUP3 SWAP2 PUSH32 0x379705E49518633184CC7E64F6A0C9361E35F275BE47634AFB6C2C603E5311E5 SWAP2 LOG2 POP JUMP JUMPDEST PUSH1 0x0 DUP1 PUSH1 0x0 DUP4 MLOAD PUSH1 0x41 SUB PUSH2 0x1256 JUMPI PUSH1 0x20 DUP5 ADD MLOAD PUSH1 0x40 DUP6 ADD MLOAD PUSH1 0x60 DUP7 ADD MLOAD PUSH1 0x0 BYTE PUSH2 0x1248 DUP9 DUP3 DUP6 DUP6 PUSH2 0x1422 JUMP JUMPDEST SWAP6 POP SWAP6 POP SWAP6 POP POP POP POP PUSH2 0x1262 JUMP JUMPDEST POP POP DUP2 MLOAD PUSH1 0x0 SWAP2 POP PUSH1 0x2 SWAP1 JUMPDEST SWAP3 POP SWAP3 POP SWAP3 JUMP JUMPDEST PUSH1 0x0 DUP3 PUSH1 0x3 DUP2 GT ISZERO PUSH2 0x127D JUMPI PUSH2 0x127D PUSH2 0x1F6D JUMP JUMPDEST SUB PUSH2 0x1286 JUMPI POP POP JUMP JUMPDEST PUSH1 0x1 DUP3 PUSH1 0x3 DUP2 GT ISZERO PUSH2 0x129A JUMPI PUSH2 0x129A PUSH2 0x1F6D JUMP JUMPDEST SUB PUSH2 0x12B8 JUMPI PUSH1 0x40 MLOAD PUSH4 0xF645EEDF PUSH1 0xE0 SHL DUP2 MSTORE PUSH1 0x4 ADD PUSH1 0x40 MLOAD DUP1 SWAP2 SUB SWAP1 REVERT JUMPDEST PUSH1 0x2 DUP3 PUSH1 0x3 DUP2 GT ISZERO PUSH2 0x12CC JUMPI PUSH2 0x12CC PUSH2 0x1F6D JUMP JUMPDEST SUB PUSH2 0x12ED JUMPI PUSH1 0x40 MLOAD PUSH4 0xFCE698F7 PUSH1 0xE0 SHL DUP2 MSTORE PUSH1 0x4 DUP2 ADD DUP3 SWAP1 MSTORE PUSH1 0x24 ADD PUSH2 0x8FD JUMP JUMPDEST PUSH1 0x3 DUP3 PUSH1 0x3 DUP2 GT ISZERO PUSH2 0x1301 JUMPI PUSH2 0x1301 PUSH2 0x1F6D JUMP JUMPDEST SUB PUSH2 0x1322 JUMPI PUSH1 0x40 MLOAD PUSH4 0x35E2F383 PUSH1 0xE2 SHL DUP2 MSTORE PUSH1 0x4 DUP2 ADD DUP3 SWAP1 MSTORE PUSH1 0x24 ADD PUSH2 0x8FD JUMP JUMPDEST POP POP JUMP JUMPDEST PUSH1 0x60 PUSH1 0x0 DUP1 JUMPDEST DUP4 MLOAD DUP2 LT ISZERO PUSH2 0x136D JUMPI DUP4 DUP2 DUP2 MLOAD DUP2 LT PUSH2 0x1347 JUMPI PUSH2 0x1347 PUSH2 0x1F83 JUMP JUMPDEST ADD PUSH1 0x20 ADD MLOAD PUSH1 0x1 PUSH1 0x1 PUSH1 0xF8 SHL SUB NOT AND PUSH1 0x0 SUB PUSH2 0x1365 JUMPI DUP1 SWAP2 POP PUSH2 0x136D JUMP JUMPDEST PUSH1 0x1 ADD PUSH2 0x132C JUMP JUMPDEST POP DUP1 PUSH1 0x0 SUB PUSH2 0x137A JUMPI POP DUP2 MLOAD JUMPDEST PUSH1 0x0 DUP2 PUSH1 0x1 PUSH1 0x1 PUSH1 0x40 SHL SUB DUP2 GT ISZERO PUSH2 0x1394 JUMPI PUSH2 0x1394 PUSH2 0x1614 JUMP JUMPDEST PUSH1 0x40 MLOAD SWAP1 DUP1 DUP3 MSTORE DUP1 PUSH1 0x1F ADD PUSH1 0x1F NOT AND PUSH1 0x20 ADD DUP3 ADD PUSH1 0x40 MSTORE DUP1 ISZERO PUSH2 0x13BE JUMPI PUSH1 0x20 DUP3 ADD DUP2 DUP1 CALLDATASIZE DUP4 CALLDATACOPY ADD SWAP1 POP JUMPDEST POP SWAP1 POP PUSH1 0x0 JUMPDEST DUP3 DUP2 LT ISZERO PUSH2 0x141A JUMPI DUP5 DUP2 DUP2 MLOAD DUP2 LT PUSH2 0x13DE JUMPI PUSH2 0x13DE PUSH2 0x1F83 JUMP JUMPDEST PUSH1 0x20 ADD ADD MLOAD PUSH1 0xF8 SHR PUSH1 0xF8 SHL DUP3 DUP3 DUP2 MLOAD DUP2 LT PUSH2 0x13FB JUMPI PUSH2 0x13FB PUSH2 0x1F83 JUMP JUMPDEST PUSH1 0x20 ADD ADD SWAP1 PUSH1 0x1 PUSH1 0x1 PUSH1 0xF8 SHL SUB NOT AND SWAP1 DUP2 PUSH1 0x0 BYTE SWAP1 MSTORE8 POP PUSH1 0x1 ADD PUSH2 0x13C4 JUMP JUMPDEST POP SWAP4 SWAP3 POP POP POP JUMP JUMPDEST PUSH1 0x0 DUP1 DUP1 PUSH32 0x7FFFFFFFFFFFFFFFFFFFFFFFFFFFFFFF5D576E7357A4501DDFE92F46681B20A0 DUP5 GT ISZERO PUSH2 0x145D JUMPI POP PUSH1 0x0 SWAP2 POP PUSH1 0x3 SWAP1 POP DUP3 PUSH2 0x14E7 JUMP JUMPDEST PUSH1 0x40 DUP1 MLOAD PUSH1 0x0 DUP1 DUP3 MSTORE PUSH1 0x20 DUP3 ADD DUP1 DUP5 MSTORE DUP11 SWAP1 MSTORE PUSH1 0xFF DUP10 AND SWAP3 DUP3 ADD SWAP3 SWAP1 SWAP3 MSTORE PUSH1 0x60 DUP2 ADD DUP8 SWAP1 MSTORE PUSH1 0x80 DUP2 ADD DUP7 SWAP1 MSTORE PUSH1 0x1 SWAP1 PUSH1 0xA0 ADD PUSH1 0x20 PUSH1 0x40 MLOAD PUSH1 0x20 DUP2 SUB SWAP1 DUP1 DUP5 SUB SWAP1 DUP6 GAS STATICCALL ISZERO DUP1 ISZERO PUSH2 0x14B1 JUMPI RETURNDATASIZE PUSH1 0x0 DUP1 RETURNDATACOPY RETURNDATASIZE PUSH1 0x0 REVERT JUMPDEST POP POP PUSH1 0x40 MLOAD PUSH1 0x1F NOT ADD MLOAD SWAP2 POP POP PUSH1 0x1 PUSH1 0x1 PUSH1 0xA0 SHL SUB DUP2 AND PUSH2 0x14DD JUMPI POP PUSH1 0x0 SWAP3 POP PUSH1 0x1 SWAP2 POP DUP3 SWAP1 POP PUSH2 0x14E7 JUMP JUMPDEST SWAP3 POP PUSH1 0x0 SWAP2 POP DUP2 SWAP1 POP JUMPDEST SWAP5 POP SWAP5 POP SWAP5 SWAP2 POP POP JUMP JUMPDEST PUSH1 0x0 PUSH1 0x20 DUP3 DUP5 SUB SLT ISZERO PUSH2 0x1503 JUMPI PUSH1 0x0 DUP1 REVERT JUMPDEST POP CALLDATALOAD SWAP2 SWAP1 POP JUMP JUMPDEST PUSH1 0x0 JUMPDEST DUP4 DUP2 LT ISZERO PUSH2 0x1525 JUMPI DUP2 DUP2 ADD MLOAD DUP4 DUP3 ADD MSTORE PUSH1 0x20 ADD PUSH2 0x150D JUMP JUMPDEST POP POP PUSH1 0x0 SWAP2 ADD MSTORE JUMP JUMPDEST PUSH1 0x0 DUP2 MLOAD DUP1 DUP5 MSTORE PUSH2 0x1546 DUP2 PUSH1 0x20 DUP7 ADD PUSH1 0x20 DUP7 ADD PUSH2 0x150A JUMP JUMPDEST PUSH1 0x1F ADD PUSH1 0x1F NOT AND SWAP3 SWAP1 SWAP3 ADD PUSH1 0x20 ADD SWAP3 SWAP2 POP POP JUMP JUMPDEST PUSH1 0x20 DUP2 MSTORE DUP2 MLOAD PUSH1 0x20 DUP3 ADD MSTORE PUSH1 0x20 DUP3 ADD MLOAD PUSH1 0x40 DUP3 ADD MSTORE PUSH1 0x0 PUSH1 0x40 DUP4 ADD MLOAD PUSH1 0xA0 PUSH1 0x60 DUP5 ADD MSTORE PUSH2 0x158A PUSH1 0xC0 DUP5 ADD DUP3 PUSH2 0x152E JUMP JUMPDEST SWAP1 POP PUSH1 0x60 DUP5 ADD MLOAD PUSH1 0x80 DUP5 ADD MSTORE PUSH1 0x80 DUP5 ADD MLOAD ISZERO ISZERO PUSH1 0xA0 DUP5 ADD MSTORE DUP1 SWAP2 POP POP SWAP3 SWAP2 POP POP JUMP JUMPDEST PUSH1 0x0 PUSH1 0x20 DUP3 DUP5 SUB SLT ISZERO PUSH2 0x15BE JUMPI PUSH1 0x0 DUP1 REVERT JUMPDEST DUP2 CALLDATALOAD PUSH1 0x1 PUSH1 0x1 PUSH1 0xA0 SHL SUB DUP2 AND DUP2 EQ PUSH2 0x15D5 JUMPI PUSH1 0x0 DUP1 REVERT JUMPDEST SWAP4 SWAP3 POP POP POP JUMP JUMPDEST DUP6 DUP2 MSTORE DUP5 PUSH1 0x20 DUP3 ADD MSTORE PUSH1 0xA0 PUSH1 0x40 DUP3 ADD MSTORE PUSH1 0x0 PUSH2 0x15FB PUSH1 0xA0 DUP4 ADD DUP7 PUSH2 0x152E JUMP JUMPDEST PUSH1 0x60 DUP4 ADD SWAP5 SWAP1 SWAP5 MSTORE POP SWAP1 ISZERO ISZERO PUSH1 0x80 SWAP1 SWAP2 ADD MSTORE SWAP4 SWAP3 POP POP POP JUMP JUMPDEST PUSH4 0x4E487B71 PUSH1 0xE0 SHL PUSH1 0x0 MSTORE PUSH1 0x41 PUSH1 0x4 MSTORE PUSH1 0x24 PUSH1 0x0 REVERT JUMPDEST PUSH1 0x40 MLOAD PUSH2 0x1A0 DUP2 ADD PUSH1 0x1 PUSH1 0x1 PUSH1 0x40 SHL SUB DUP2 GT DUP3 DUP3 LT OR ISZERO PUSH2 0x164D JUMPI PUSH2 0x164D PUSH2 0x1614 JUMP JUMPDEST PUSH1 0x40 MSTORE SWAP1 JUMP JUMPDEST PUSH1 0x40 MLOAD PUSH1 0x1F DUP3 ADD PUSH1 0x1F NOT AND DUP2 ADD PUSH1 0x1 PUSH1 0x1 PUSH1 0x40 SHL SUB DUP2 GT DUP3 DUP3 LT OR ISZERO PUSH2 0x167B JUMPI PUSH2 0x167B PUSH2 0x1614 JUMP JUMPDEST PUSH1 0x40 MSTORE SWAP2 SWAP1 POP JUMP JUMPDEST PUSH1 0x0 PUSH1 0x1 PUSH1 0x1 PUSH1 0x40 SHL SUB DUP3 GT ISZERO PUSH2 0x169C JUMPI PUSH2 0x169C PUSH2 0x1614 JUMP JUMPDEST POP PUSH1 0x1F ADD PUSH1 0x1F NOT AND PUSH1 0x20 ADD SWAP1 JUMP JUMPDEST PUSH1 0x0 DUP3 PUSH1 0x1F DUP4 ADD SLT PUSH2 0x16BB JUMPI PUSH1 0x0 DUP1 REVERT JUMPDEST DUP2 CALLDATALOAD PUSH1 0x20 DUP4 ADD PUSH1 0x0 PUSH2 0x16D4 PUSH2 0x16CF DUP5 PUSH2 0x1683 JUMP JUMPDEST PUSH2 0x1653 JUMP JUMPDEST SWAP1 POP DUP3 DUP2 MSTORE DUP6 DUP4 DUP4 ADD GT ISZERO PUSH2 0x16E8 JUMPI PUSH1 0x0 DUP1 REVERT JUMPDEST DUP3 DUP3 PUSH1 0x20 DUP4 ADD CALLDATACOPY PUSH1 0x0 SWAP3 DUP2 ADD PUSH1 0x20 ADD SWAP3 SWAP1 SWAP3 MSTORE POP SWAP4 SWAP3 POP POP POP JUMP JUMPDEST PUSH1 0x0 DUP1 PUSH1 0x0 DUP1 PUSH1 0x80 DUP6 DUP8 SUB SLT ISZERO PUSH2 0x1719 JUMPI PUSH1 0x0 DUP1 REVERT JUMPDEST DUP5 CALLDATALOAD SWAP4 POP PUSH1 0x20 DUP6 ADD CALLDATALOAD SWAP3 POP PUSH1 0x40 DUP6 ADD CALLDATALOAD PUSH1 0x1 PUSH1 0x1 PUSH1 0x40 SHL SUB DUP2 GT ISZERO PUSH2 0x173D JUMPI PUSH1 0x0 DUP1 REVERT JUMPDEST PUSH2 0x1749 DUP8 DUP3 DUP9 ADD PUSH2 0x16AA JUMP JUMPDEST SWAP5 SWAP8 SWAP4 SWAP7 POP SWAP4 SWAP5 PUSH1 0x60 ADD CALLDATALOAD SWAP4 POP POP POP JUMP JUMPDEST PUSH1 0x0 DUP1 PUSH1 0x0 DUP1 PUSH1 0x0 PUSH1 0xA0 DUP7 DUP9 SUB SLT ISZERO PUSH2 0x1772 JUMPI PUSH1 0x0 DUP1 REVERT JUMPDEST DUP6 CALLDATALOAD SWAP5 POP PUSH1 0x20 DUP7 ADD CALLDATALOAD SWAP4 POP PUSH1 0x40 DUP7 ADD CALLDATALOAD PUSH1 0x1 PUSH1 0x1 PUSH1 0x40 SHL SUB DUP2 GT ISZERO PUSH2 0x1796 JUMPI PUSH1 0x0 DUP1 REVERT JUMPDEST PUSH2 0x17A2 DUP9 DUP3 DUP10 ADD PUSH2 0x16AA JUMP JUMPDEST SWAP4 POP POP PUSH1 0x60 DUP7 ADD CALLDATALOAD SWAP2 POP PUSH1 0x80 DUP7 ADD CALLDATALOAD PUSH1 0x1 PUSH1 0x1 PUSH1 0x40 SHL SUB DUP2 GT ISZERO PUSH2 0x17C5 JUMPI PUSH1 0x0 DUP1 REVERT JUMPDEST PUSH2 0x17D1 DUP9 DUP3 DUP10 ADD PUSH2 0x16AA JUMP JUMPDEST SWAP2 POP POP SWAP3 SWAP6 POP SWAP3 SWAP6 SWAP1 SWAP4 POP JUMP JUMPDEST PUSH1 0x0 DUP1 PUSH1 0x40 DUP4 DUP6 SUB SLT ISZERO PUSH2 0x17F1 JUMPI PUSH1 0x0 DUP1 REVERT JUMPDEST DUP3 CALLDATALOAD PUSH1 0x1 PUSH1 0x1 PUSH1 0x40 SHL SUB DUP2 GT ISZERO PUSH2 0x1807 JUMPI PUSH1 0x0 DUP1 REVERT JUMPDEST PUSH2 0x1813 DUP6 DUP3 DUP7 ADD PUSH2 0x16AA JUMP JUMPDEST SWAP3 POP POP PUSH1 0x20 DUP4 ADD CALLDATALOAD PUSH1 0x1 PUSH1 0x1 PUSH1 0x40 SHL SUB DUP2 GT ISZERO PUSH2 0x182F JUMPI PUSH1 0x0 DUP1 REVERT JUMPDEST PUSH2 0x183B DUP6 DUP3 DUP7 ADD PUSH2 0x16AA JUMP JUMPDEST SWAP2 POP POP SWAP3 POP SWAP3 SWAP1 POP JUMP JUMPDEST PUSH1 0x0 DUP1 PUSH1 0x40 DUP4 DUP6 SUB SLT ISZERO PUSH2 0x1858 JUMPI PUSH1 0x0 DUP1 REVERT JUMPDEST DUP3 CALLDATALOAD SWAP2 POP PUSH1 0x20 DUP4 ADD CALLDATALOAD PUSH1 0x1 PUSH1 0x1 PUSH1 0x40 SHL SUB DUP2 GT ISZERO PUSH2 0x182F JUMPI PUSH1 0x0 DUP1 REVERT JUMPDEST PUSH1 0x0 DUP1 PUSH1 0x0 PUSH1 0x60 DUP5 DUP7 SUB SLT ISZERO PUSH2 0x188A JUMPI PUSH1 0x0 DUP1 REVERT JUMPDEST DUP4 CALLDATALOAD SWAP3 POP PUSH1 0x20 DUP5 ADD CALLDATALOAD SWAP2 POP PUSH1 0x40 DUP5 ADD CALLDATALOAD PUSH1 0x1 PUSH1 0x1 PUSH1 0x40 SHL SUB DUP2 GT ISZERO PUSH2 0x18AE JUMPI PUSH1 0x0 DUP1 REVERT JUMPDEST PUSH2 0x18BA DUP7 DUP3 DUP8 ADD PUSH2 0x16AA JUMP JUMPDEST SWAP2 POP POP SWAP3 POP SWAP3 POP SWAP3 JUMP JUMPDEST PUSH1 0x20 DUP2 MSTORE PUSH1 0x0 PUSH2 0x15D5 PUSH1 0x20 DUP4 ADD DUP5 PUSH2 0x152E JUMP JUMPDEST PUSH1 0x0 DUP1 DUP4 PUSH1 0x1F DUP5 ADD SLT PUSH2 0x18E9 JUMPI PUSH1 0x0 DUP1 REVERT JUMPDEST POP DUP2 CALLDATALOAD PUSH1 0x1 PUSH1 0x1 PUSH1 0x40 SHL SUB DUP2 GT ISZERO PUSH2 0x1900 JUMPI PUSH1 0x0 DUP1 REVERT JUMPDEST PUSH1 0x20 DUP4 ADD SWAP2 POP DUP4 PUSH1 0x20 DUP3 DUP6 ADD ADD GT ISZERO PUSH2 0x1918 JUMPI PUSH1 0x0 DUP1 REVERT JUMPDEST SWAP3 POP SWAP3 SWAP1 POP JUMP JUMPDEST PUSH1 0x0 DUP1 PUSH1 0x0 DUP1 PUSH1 0x40 DUP6 DUP8 SUB SLT ISZERO PUSH2 0x1935 JUMPI PUSH1 0x0 DUP1 REVERT JUMPDEST DUP5 CALLDATALOAD PUSH1 0x1 PUSH1 0x1 PUSH1 0x40 SHL SUB DUP2 GT ISZERO PUSH2 0x194B JUMPI PUSH1 0x0 DUP1 REVERT JUMPDEST PUSH2 0x1957 DUP8 DUP3 DUP9 ADD PUSH2 0x18D7 JUMP JUMPDEST SWAP1 SWAP6 POP SWAP4 POP POP PUSH1 0x20 DUP6 ADD CALLDATALOAD PUSH1 0x1 PUSH1 0x1 PUSH1 0x40 SHL SUB DUP2 GT ISZERO PUSH2 0x1976 JUMPI PUSH1 0x0 DUP1 REVERT JUMPDEST PUSH2 0x1982 DUP8 DUP3 DUP9 ADD PUSH2 0x18D7 JUMP JUMPDEST SWAP6 SWAP9 SWAP5 SWAP8 POP SWAP6 POP POP POP POP JUMP JUMPDEST PUSH1 0x1 DUP2 DUP2 SHR SWAP1 DUP3 AND DUP1 PUSH2 0x19A2 JUMPI PUSH1 0x7F DUP3 AND SWAP2 POP JUMPDEST PUSH1 0x20 DUP3 LT DUP2 SUB PUSH2 0x19C2 JUMPI PUSH4 0x4E487B71 PUSH1 0xE0 SHL PUSH1 0x0 MSTORE PUSH1 0x22 PUSH1 0x4 MSTORE PUSH1 0x24 PUSH1 0x0 REVERT JUMPDEST POP SWAP2 SWAP1 POP JUMP JUMPDEST PUSH1 0x0 DUP3 PUSH1 0x1F DUP4 ADD SLT PUSH2 0x19D9 JUMPI PUSH1 0x0 DUP1 REVERT JUMPDEST PUSH2 0x19E3 PUSH1 0x80 PUSH2 0x1653 JUMP JUMPDEST DUP1 PUSH1 0x80 DUP5 ADD DUP6 DUP2 GT ISZERO PUSH2 0x19F5 JUMPI PUSH1 0x0 DUP1 REVERT JUMPDEST DUP5 JUMPDEST DUP2 DUP2 LT ISZERO PUSH2 0x1A0F JUMPI DUP1 MLOAD DUP5 MSTORE PUSH1 0x20 SWAP4 DUP5 ADD SWAP4 ADD PUSH2 0x19F7 JUMP JUMPDEST POP SWAP1 SWAP6 SWAP5 POP POP POP POP POP JUMP JUMPDEST PUSH1 0x0 DUP3 PUSH1 0x1F DUP4 ADD SLT PUSH2 0x1A2B JUMPI PUSH1 0x0 DUP1 REVERT JUMPDEST DUP2 MLOAD PUSH2 0x1A39 PUSH2 0x16CF DUP3 PUSH2 0x1683 JUMP JUMPDEST DUP2 DUP2 MSTORE DUP5 PUSH1 0x20 DUP4 DUP7 ADD ADD GT ISZERO PUSH2 0x1A4E JUMPI PUSH1 0x0 DUP1 REVERT JUMPDEST PUSH2 0x1A5F DUP3 PUSH1 0x20 DUP4 ADD PUSH1 0x20 DUP8 ADD PUSH2 0x150A JUMP JUMPDEST SWAP5 SWAP4 POP POP POP POP JUMP JUMPDEST PUSH1 0x0 DUP3 PUSH1 0x1F DUP4 ADD SLT PUSH2 0x1A78 JUMPI PUSH1 0x0 DUP1 REVERT JUMPDEST DUP2 MLOAD PUSH1 0x1 PUSH1 0x1 PUSH1 0x40 SHL SUB DUP2 GT ISZERO PUSH2 0x1A91 JUMPI PUSH2 0x1A91 PUSH2 0x1614 JUMP JUMPDEST DUP1 PUSH1 0x5 SHL PUSH2 0x1AA1 PUSH1 0x20 DUP3 ADD PUSH2 0x1653 JUMP JUMPDEST SWAP2 DUP3 MSTORE PUSH1 0x20 DUP2 DUP6 ADD DUP2 ADD SWAP3 SWAP1 DUP2 ADD SWAP1 DUP7 DUP5 GT ISZERO PUSH2 0x1ABD JUMPI PUSH1 0x0 DUP1 REVERT JUMPDEST PUSH1 0x20 DUP7 ADD SWAP3 POP JUMPDEST DUP4 DUP4 LT ISZERO PUSH2 0x1B03 JUMPI DUP3 MLOAD PUSH1 0x1 PUSH1 0x1 PUSH1 0x40 SHL SUB DUP2 GT ISZERO PUSH2 0x1AE2 JUMPI PUSH1 0x0 DUP1 REVERT JUMPDEST PUSH2 0x1AF1 DUP9 PUSH1 0x20 DUP4 DUP11 ADD ADD PUSH2 0x1A1A JUMP JUMPDEST DUP4 MSTORE POP PUSH1 0x20 SWAP3 DUP4 ADD SWAP3 SWAP1 SWAP2 ADD SWAP1 PUSH2 0x1AC4 JUMP JUMPDEST SWAP7 SWAP6 POP POP POP POP POP POP JUMP JUMPDEST PUSH1 0x0 DUP3 PUSH1 0x1F DUP4 ADD SLT PUSH2 0x1B1E JUMPI PUSH1 0x0 DUP1 REVERT JUMPDEST PUSH2 0x1B28 PUSH1 0x60 PUSH2 0x1653 JUMP JUMPDEST DUP1 PUSH1 0x60 DUP5 ADD DUP6 DUP2 GT ISZERO PUSH2 0x1B3A JUMPI PUSH1 0x0 DUP1 REVERT JUMPDEST DUP5 JUMPDEST DUP2 DUP2 LT ISZERO PUSH2 0x1A0F JUMPI DUP1 MLOAD DUP1 ISZERO ISZERO DUP2 EQ PUSH2 0x1B54 JUMPI PUSH1 0x0 DUP1 REVERT JUMPDEST DUP5 MSTORE PUSH1 0x20 SWAP4 DUP5 ADD SWAP4 ADD PUSH2 0x1B3C JUMP JUMPDEST PUSH1 0x0 PUSH1 0x20 DUP3 DUP5 SUB SLT ISZERO PUSH2 0x1B74 JUMPI PUSH1 0x0 DUP1 REVERT JUMPDEST DUP2 MLOAD PUSH1 0x1 PUSH1 0x1 PUSH1 0x40 SHL SUB DUP2 GT ISZERO PUSH2 0x1B8A JUMPI PUSH1 0x0 DUP1 REVERT JUMPDEST DUP3 ADD PUSH2 0x240 DUP2 DUP6 SUB SLT ISZERO PUSH2 0x1B9D JUMPI PUSH1 0x0 DUP1 REVERT JUMPDEST PUSH2 0x1BA5 PUSH2 0x162A JUMP JUMPDEST DUP2 MLOAD DUP2 MSTORE PUSH1 0x20 DUP1 DUP4 ADD MLOAD SWAP1 DUP3 ADD MSTORE PUSH1 0x40 DUP1 DUP4 ADD MLOAD SWAP1 DUP3 ADD MSTORE PUSH2 0x1BCA DUP6 PUSH1 0x60 DUP5 ADD PUSH2 0x19C8 JUMP JUMPDEST PUSH1 0x60 DUP3 ADD MSTORE PUSH1 0xE0 DUP3 ADD MLOAD PUSH1 0x1 PUSH1 0x1 PUSH1 0x40 SHL SUB DUP2 GT ISZERO PUSH2 0x1BE8 JUMPI PUSH1 0x0 DUP1 REVERT JUMPDEST PUSH2 0x1BF4 DUP7 DUP3 DUP6 ADD PUSH2 0x1A1A JUMP JUMPDEST PUSH1 0x80 DUP4 ADD MSTORE POP PUSH2 0x100 DUP3 ADD MLOAD PUSH1 0x1 PUSH1 0x1 PUSH1 0x40 SHL SUB DUP2 GT ISZERO PUSH2 0x1C14 JUMPI PUSH1 0x0 DUP1 REVERT JUMPDEST PUSH2 0x1C20 DUP7 DUP3 DUP6 ADD PUSH2 0x1A67 JUMP JUMPDEST PUSH1 0xA0 DUP4 ADD MSTORE POP PUSH2 0x120 DUP3 ADD MLOAD PUSH1 0x1 PUSH1 0x1 PUSH1 0x40 SHL SUB DUP2 GT ISZERO PUSH2 0x1C40 JUMPI PUSH1 0x0 DUP1 REVERT JUMPDEST PUSH2 0x1C4C DUP7 DUP3 DUP6 ADD PUSH2 0x1A1A JUMP JUMPDEST PUSH1 0xC0 DUP4 ADD MSTORE POP PUSH2 0x140 DUP3 ADD MLOAD PUSH1 0x1 PUSH1 0x1 PUSH1 0x40 SHL SUB DUP2 GT ISZERO PUSH2 0x1C6C JUMPI PUSH1 0x0 DUP1 REVERT JUMPDEST PUSH2 0x1C78 DUP7 DUP3 DUP6 ADD PUSH2 0x1A1A JUMP JUMPDEST PUSH1 0xE0 DUP4 ADD MSTORE POP PUSH2 0x160 DUP3 ADD MLOAD PUSH1 0x1 PUSH1 0x1 PUSH1 0x40 SHL SUB DUP2 GT ISZERO PUSH2 0x1C98 JUMPI PUSH1 0x0 DUP1 REVERT JUMPDEST PUSH2 0x1CA4 DUP7 DUP3 DUP6 ADD PUSH2 0x1A1A JUMP JUMPDEST PUSH2 0x100 DUP4 ADD MSTORE POP PUSH2 0x180 DUP3 ADD MLOAD PUSH1 0x1 PUSH1 0x1 PUSH1 0x40 SHL SUB DUP2 GT ISZERO PUSH2 0x1CC5 JUMPI PUSH1 0x0 DUP1 REVERT JUMPDEST PUSH2 0x1CD1 DUP7 DUP3 DUP6 ADD PUSH2 0x1A1A JUMP JUMPDEST PUSH2 0x120 DUP4 ADD MSTORE POP PUSH2 0x1A0 DUP3 ADD MLOAD PUSH1 0x1 PUSH1 0x1 PUSH1 0x40 SHL SUB DUP2 GT ISZERO PUSH2 0x1CF2 JUMPI PUSH1 0x0 DUP1 REVERT JUMPDEST PUSH2 0x1CFE DUP7 DUP3 DUP6 ADD PUSH2 0x1A1A JUMP JUMPDEST PUSH2 0x140 DUP4 ADD MSTORE POP PUSH2 0x1C0 DUP3 ADD MLOAD PUSH2 0x160 DUP3 ADD MSTORE PUSH2 0x1D1F DUP6 PUSH2 0x1E0 DUP5 ADD PUSH2 0x1B0D JUMP JUMPDEST PUSH2 0x180 DUP3 ADD MSTORE SWAP5 SWAP4 POP POP POP POP JUMP JUMPDEST PUSH1 0x1F DUP3 GT ISZERO PUSH2 0x8A2 JUMPI DUP1 PUSH1 0x0 MSTORE PUSH1 0x20 PUSH1 0x0 KECCAK256 PUSH1 0x1F DUP5 ADD PUSH1 0x5 SHR DUP2 ADD PUSH1 0x20 DUP6 LT ISZERO PUSH2 0x1D54 JUMPI POP DUP1 JUMPDEST PUSH1 0x1F DUP5 ADD PUSH1 0x5 SHR DUP3 ADD SWAP2 POP JUMPDEST DUP2 DUP2 LT ISZERO PUSH2 0x1D74 JUMPI PUSH1 0x0 DUP2 SSTORE PUSH1 0x1 ADD PUSH2 0x1D60 JUMP JUMPDEST POP POP POP POP POP JUMP JUMPDEST DUP2 MLOAD PUSH1 0x1 PUSH1 0x1 PUSH1 0x40 SHL SUB DUP2 GT ISZERO PUSH2 0x1D94 JUMPI PUSH2 0x1D94 PUSH2 0x1614 JUMP JUMPDEST PUSH2 0x1DA8 DUP2 PUSH2 0x1DA2 DUP5 SLOAD PUSH2 0x198E JUMP JUMPDEST DUP5 PUSH2 0x1D2D JUMP JUMPDEST PUSH1 0x20 PUSH1 0x1F DUP3 GT PUSH1 0x1 DUP2 EQ PUSH2 0x1DDC JUMPI PUSH1 0x0 DUP4 ISZERO PUSH2 0x1DC4 JUMPI POP DUP5 DUP3 ADD MLOAD JUMPDEST PUSH1 0x0 NOT PUSH1 0x3 DUP6 SWAP1 SHL SHR NOT AND PUSH1 0x1 DUP5 SWAP1 SHL OR DUP5 SSTORE PUSH2 0x1D74 JUMP JUMPDEST PUSH1 0x0 DUP5 DUP2 MSTORE PUSH1 0x20 DUP2 KECCAK256 PUSH1 0x1F NOT DUP6 AND SWAP2 JUMPDEST DUP3 DUP2 LT ISZERO PUSH2 0x1E0C JUMPI DUP8 DUP6 ADD MLOAD DUP3 SSTORE PUSH1 0x20 SWAP5 DUP6 ADD SWAP5 PUSH1 0x1 SWAP1 SWAP3 ADD SWAP2 ADD PUSH2 0x1DEC JUMP JUMPDEST POP DUP5 DUP3 LT ISZERO PUSH2 0x1E2A JUMPI DUP7 DUP5 ADD MLOAD PUSH1 0x0 NOT PUSH1 0x3 DUP8 SWAP1 SHL PUSH1 0xF8 AND SHR NOT AND DUP2 SSTORE JUMPDEST POP POP POP POP PUSH1 0x1 SWAP1 DUP2 SHL ADD SWAP1 SSTORE POP JUMP JUMPDEST PUSH1 0x40 DUP2 MSTORE PUSH1 0x0 PUSH2 0x1E4C PUSH1 0x40 DUP4 ADD DUP6 PUSH2 0x152E JUMP JUMPDEST SWAP1 POP DUP3 PUSH1 0x20 DUP4 ADD MSTORE SWAP4 SWAP3 POP POP POP JUMP JUMPDEST PUSH1 0x0 DUP1 DUP6 DUP6 GT ISZERO PUSH2 0x1E6B JUMPI PUSH1 0x0 DUP1 REVERT JUMPDEST DUP4 DUP7 GT ISZERO PUSH2 0x1E78 JUMPI PUSH1 0x0 DUP1 REVERT JUMPDEST POP POP DUP3 ADD SWAP4 SWAP2 SWAP1 SWAP3 SUB SWAP2 POP JUMP JUMPDEST DUP1 CALLDATALOAD PUSH1 0x20 DUP4 LT ISZERO PUSH2 0xBAE JUMPI PUSH1 0x0 NOT PUSH1 0x20 DUP5 SWAP1 SUB PUSH1 0x3 SHL SHL AND SWAP3 SWAP2 POP POP JUMP JUMPDEST PUSH1 0xFF PUSH1 0xF8 SHL DUP8 PUSH1 0xF8 SHL AND DUP2 MSTORE PUSH1 0xFF NOT DUP7 AND PUSH1 0x1 DUP3 ADD MSTORE DUP5 PUSH1 0x20 DUP3 ADD MSTORE DUP4 PUSH1 0x40 DUP3 ADD MSTORE DUP2 DUP4 PUSH1 0x60 DUP4 ADD CALLDATACOPY PUSH1 0x0 SWAP2 ADD PUSH1 0x60 ADD SWAP1 DUP2 MSTORE SWAP6 SWAP5 POP POP POP POP POP JUMP JUMPDEST DUP4 DUP2 MSTORE DUP2 DUP4 PUSH1 0x20 DUP4 ADD CALLDATACOPY PUSH1 0x0 SWAP2 ADD PUSH1 0x20 ADD SWAP1 DUP2 MSTORE SWAP3 SWAP2 POP POP JUMP JUMPDEST PUSH1 0x40 DUP2 MSTORE PUSH1 0x0 PUSH2 0x1F0C PUSH1 0x40 DUP4 ADD DUP6 PUSH2 0x152E JUMP JUMPDEST DUP3 DUP2 SUB PUSH1 0x20 DUP5 ADD MSTORE PUSH2 0x1F1E DUP2 DUP6 PUSH2 0x152E JUMP JUMPDEST SWAP6 SWAP5 POP POP POP POP POP JUMP JUMPDEST PUSH1 0x80 DUP2 MSTORE PUSH1 0x0 PUSH2 0x1F3A PUSH1 0x80 DUP4 ADD DUP8 PUSH2 0x152E JUMP JUMPDEST PUSH1 0x1 PUSH1 0x1 PUSH1 0xA0 SHL SUB DUP7 AND PUSH1 0x20 DUP5 ADD MSTORE DUP3 DUP2 SUB PUSH1 0x40 DUP5 ADD MSTORE PUSH2 0x1F5B DUP2 DUP7 PUSH2 0x152E JUMP JUMPDEST SWAP2 POP POP DUP3 PUSH1 0x60 DUP4 ADD MSTORE SWAP6 SWAP5 POP POP POP POP POP JUMP JUMPDEST PUSH4 0x4E487B71 PUSH1 0xE0 SHL PUSH1 0x0 MSTORE PUSH1 0x21 PUSH1 0x4 MSTORE PUSH1 0x24 PUSH1 0x0 REVERT JUMPDEST PUSH4 0x4E487B71 PUSH1 0xE0 SHL PUSH1 0x0 MSTORE PUSH1 0x32 PUSH1 0x4 MSTORE PUSH1 0x24 PUSH1 0x0 REVERT INVALID LOG2 PUSH5 0x6970667358 0x22 SLT KECCAK256 SUB PUSH14 0xDFD440565B6A5D8303FCADE5120C JUMPDEST DUP9 DUP14 CODECOPY MSTORE EXTCODECOPY DUP7 TLOAD MSIZE 0xC1 DUP4 EXTCODESIZE 0x24 GT CREATE 0xD7 PUSH5 0x736F6C6343 STOP ADDMOD SHR STOP CALLER "
        },
        "methodIdentifiers": {
          "VERIFICATION_MESSAGE_TYPEHASH()": "e1a788eb",
          "adminAddress()": "fc6f9468",
          "adminSignatures(uint256)": "b8a6efbd",
          "configId()": "b564eb27",
          "getAdminSignature(uint256)": "b454bfed",
          "getConfigId()": "634daa11",
          "getConfigId(bytes32,bytes32,bytes)": "ada1b319",
          "getMessageHash(uint256,uint256,string,uint256)": "833e5d78",
          "getMessageHashToSign(uint256)": "02de6988",
          "getVerificationData(uint256)": "0343b1e7",
          "getVerifiedUserAddress(uint256)": "b556c6da",
          "isUserVerified(uint256)": "2789b4d7",
          "messageHashes(uint256)": "37364ea2",
          "onVerificationSuccess(bytes,bytes)": "8d2d8d6a",
          "owner()": "8da5cb5b",
          "reliefPoolsContract()": "5d53ac16",
          "renounceOwnership()": "715018a6",
          "scope()": "6e62d0a8",
          "setAdminSignature(uint256,bytes)": "a81302a5",
          "setReliefPoolsContract(address)": "070f09ad",
          "setScope(uint256)": "b4ba6ff9",
          "transferOwnership(address)": "f2fde38b",
          "userIdentifierToAddress(uint256)": "b8baf4e4",
          "verifiedUsers(uint256)": "07763ec3",
          "verifyAdminSignature(uint256,uint256,string,uint256,bytes)": "8be55456",
          "verifySelfProof(bytes,bytes)": "d161802b"
        }
      }
    }
  }
}