{
  "contracts/IdentityVerifier.sol": {
    "IdentityVerifier": {
      "abi": [
        {
          "inputs": [
            {
              "internalType": "address",
              "name": "_adminAddress",
              "type": "address"
            },
            {
              "internalType": "address",
              "name": "_identityVerificationHubV2",
              "type": "address"
            },
            {
              "internalType": "uint256",
              "name": "_scope",
              "type": "uint256"
            },
            {
              "internalType": "bytes32",
              "name": "_configId",
              "type": "bytes32"
            }
          ],
          "stateMutability": "nonpayable",
          "type": "constructor"
        },
        {
          "inputs": [],
          "name": "ECDSAInvalidSignature",
          "type": "error"
        },
        {
          "inputs": [
            {
              "internalType": "uint256",
              "name": "length",
              "type": "uint256"
            }
          ],
          "name": "ECDSAInvalidSignatureLength",
          "type": "error"
        },
        {
          "inputs": [
            {
              "internalType": "bytes32",
              "name": "s",
              "type": "bytes32"
            }
          ],
          "name": "ECDSAInvalidSignatureS",
          "type": "error"
        },
        {
          "inputs": [],
          "name": "InvalidDataFormat",
          "type": "error"
        },
        {
          "inputs": [],
          "name": "InvalidNationality",
          "type": "error"
        },
        {
          "inputs": [],
          "name": "InvalidSignature",
          "type": "error"
        },
        {
          "inputs": [],
          "name": "InvalidUserIdentifier",
          "type": "error"
        },
        {
          "inputs": [
            {
              "internalType": "address",
              "name": "owner",
              "type": "address"
            }
          ],
          "name": "OwnableInvalidOwner",
          "type": "error"
        },
        {
          "inputs": [
            {
              "internalType": "address",
              "name": "account",
              "type": "address"
            }
          ],
          "name": "OwnableUnauthorizedAccount",
          "type": "error"
        },
        {
          "inputs": [],
          "name": "RegisteredNullifier",
          "type": "error"
        },
        {
          "inputs": [],
          "name": "UnauthorizedCaller",
          "type": "error"
        },
        {
          "inputs": [],
          "name": "UserIdentifierAlreadyVerified",
          "type": "error"
        },
        {
          "inputs": [],
          "name": "UserNotVerified",
          "type": "error"
        },
        {
          "anonymous": false,
          "inputs": [
            {
              "indexed": true,
              "internalType": "address",
              "name": "userAddress",
              "type": "address"
            },
            {
              "indexed": false,
              "internalType": "bytes",
              "name": "signature",
              "type": "bytes"
            },
            {
              "indexed": false,
              "internalType": "uint256",
              "name": "timestamp",
              "type": "uint256"
            }
          ],
          "name": "AdminSignatureGenerated",
          "type": "event"
        },
        {
          "anonymous": false,
          "inputs": [
            {
              "indexed": true,
              "internalType": "address",
              "name": "previousOwner",
              "type": "address"
            },
            {
              "indexed": true,
              "internalType": "address",
              "name": "newOwner",
              "type": "address"
            }
          ],
          "name": "OwnershipTransferred",
          "type": "event"
        },
        {
          "anonymous": false,
          "inputs": [
            {
              "indexed": true,
              "internalType": "uint256",
              "name": "newScope",
              "type": "uint256"
            }
          ],
          "name": "ScopeUpdated",
          "type": "event"
        },
        {
          "anonymous": false,
          "inputs": [
            {
              "indexed": true,
              "internalType": "address",
              "name": "userAddress",
              "type": "address"
            },
            {
              "indexed": true,
              "internalType": "uint256",
              "name": "nullifier",
              "type": "uint256"
            },
            {
              "indexed": true,
              "internalType": "uint256",
              "name": "userIdentifier",
              "type": "uint256"
            },
            {
              "indexed": false,
              "internalType": "string",
              "name": "nationality",
              "type": "string"
            },
            {
              "indexed": false,
              "internalType": "uint256",
              "name": "timestamp",
              "type": "uint256"
            }
          ],
          "name": "UserVerified",
          "type": "event"
        },
        {
          "inputs": [],
          "name": "DOMAIN_SEPARATOR",
          "outputs": [
            {
              "internalType": "bytes32",
              "name": "",
              "type": "bytes32"
            }
          ],
          "stateMutability": "view",
          "type": "function"
        },
        {
          "inputs": [],
          "name": "VERIFICATION_MESSAGE_TYPEHASH",
          "outputs": [
            {
              "internalType": "bytes32",
              "name": "",
              "type": "bytes32"
            }
          ],
          "stateMutability": "view",
          "type": "function"
        },
        {
          "inputs": [],
          "name": "adminAddress",
          "outputs": [
            {
              "internalType": "address",
              "name": "",
              "type": "address"
            }
          ],
          "stateMutability": "view",
          "type": "function"
        },
        {
          "inputs": [
            {
              "internalType": "address",
              "name": "",
              "type": "address"
            }
          ],
          "name": "adminSignatures",
          "outputs": [
            {
              "internalType": "bytes",
              "name": "",
              "type": "bytes"
            }
          ],
          "stateMutability": "view",
          "type": "function"
        },
        {
          "inputs": [],
          "name": "configId",
          "outputs": [
            {
              "internalType": "bytes32",
              "name": "",
              "type": "bytes32"
            }
          ],
          "stateMutability": "view",
          "type": "function"
        },
        {
          "inputs": [
            {
              "internalType": "address",
              "name": "userAddress",
              "type": "address"
            }
          ],
          "name": "getAdminSignature",
          "outputs": [
            {
              "internalType": "bytes",
              "name": "",
              "type": "bytes"
            }
          ],
          "stateMutability": "view",
          "type": "function"
        },
        {
          "inputs": [],
          "name": "getConfigId",
          "outputs": [
            {
              "internalType": "bytes32",
              "name": "",
              "type": "bytes32"
            }
          ],
          "stateMutability": "view",
          "type": "function"
        },
        {
          "inputs": [
            {
              "internalType": "bytes32",
              "name": "",
              "type": "bytes32"
            },
            {
              "internalType": "bytes32",
              "name": "",
              "type": "bytes32"
            },
            {
              "internalType": "bytes",
              "name": "",
              "type": "bytes"
            }
          ],
          "name": "getConfigId",
          "outputs": [
            {
              "internalType": "bytes32",
              "name": "",
              "type": "bytes32"
            }
          ],
          "stateMutability": "view",
          "type": "function"
        },
        {
          "inputs": [
            {
              "internalType": "address",
              "name": "userAddress",
              "type": "address"
            },
            {
              "internalType": "uint256",
              "name": "nullifier",
              "type": "uint256"
            },
            {
              "internalType": "uint256",
              "name": "userIdentifier",
              "type": "uint256"
            },
            {
              "internalType": "string",
              "name": "nationality",
              "type": "string"
            },
            {
              "internalType": "uint256",
              "name": "timestamp",
              "type": "uint256"
            }
          ],
          "name": "getMessageHash",
          "outputs": [
            {
              "internalType": "bytes32",
              "name": "",
              "type": "bytes32"
            }
          ],
          "stateMutability": "view",
          "type": "function"
        },
        {
          "inputs": [],
          "name": "getScope",
          "outputs": [
            {
              "internalType": "uint256",
              "name": "",
              "type": "uint256"
            }
          ],
          "stateMutability": "view",
          "type": "function"
        },
        {
          "inputs": [
            {
              "internalType": "address",
              "name": "userAddress",
              "type": "address"
            }
          ],
          "name": "getVerificationData",
          "outputs": [
            {
              "components": [
                {
                  "internalType": "uint256",
                  "name": "nullifier",
                  "type": "uint256"
                },
                {
                  "internalType": "uint256",
                  "name": "userIdentifier",
                  "type": "uint256"
                },
                {
                  "internalType": "string",
                  "name": "nationality",
                  "type": "string"
                },
                {
                  "internalType": "uint256",
                  "name": "timestamp",
                  "type": "uint256"
                },
                {
                  "internalType": "bool",
                  "name": "isVerified",
                  "type": "bool"
                }
              ],
              "internalType": "struct IdentityVerifier.VerificationData",
              "name": "",
              "type": "tuple"
            }
          ],
          "stateMutability": "view",
          "type": "function"
        },
        {
          "inputs": [
            {
              "internalType": "address",
              "name": "userAddress",
              "type": "address"
            }
          ],
          "name": "isUserVerified",
          "outputs": [
            {
              "internalType": "bool",
              "name": "",
              "type": "bool"
            }
          ],
          "stateMutability": "view",
          "type": "function"
        },
        {
          "inputs": [
            {
              "internalType": "bytes",
              "name": "output",
              "type": "bytes"
            },
            {
              "internalType": "bytes",
              "name": "userData",
              "type": "bytes"
            }
          ],
          "name": "onVerificationSuccess",
          "outputs": [],
          "stateMutability": "nonpayable",
          "type": "function"
        },
        {
          "inputs": [],
          "name": "owner",
          "outputs": [
            {
              "internalType": "address",
              "name": "",
              "type": "address"
            }
          ],
          "stateMutability": "view",
          "type": "function"
        },
        {
          "inputs": [],
          "name": "renounceOwnership",
          "outputs": [],
          "stateMutability": "nonpayable",
          "type": "function"
        },
        {
          "inputs": [],
          "name": "scope",
          "outputs": [
            {
              "internalType": "uint256",
              "name": "",
              "type": "uint256"
            }
          ],
          "stateMutability": "view",
          "type": "function"
        },
        {
          "inputs": [
            {
              "internalType": "address",
              "name": "newOwner",
              "type": "address"
            }
          ],
          "name": "transferOwnership",
          "outputs": [],
          "stateMutability": "nonpayable",
          "type": "function"
        },
        {
          "inputs": [
            {
              "internalType": "address",
              "name": "",
              "type": "address"
            }
          ],
          "name": "verifiedUsers",
          "outputs": [
            {
              "internalType": "uint256",
              "name": "nullifier",
              "type": "uint256"
            },
            {
              "internalType": "uint256",
              "name": "userIdentifier",
              "type": "uint256"
            },
            {
              "internalType": "string",
              "name": "nationality",
              "type": "string"
            },
            {
              "internalType": "uint256",
              "name": "timestamp",
              "type": "uint256"
            },
            {
              "internalType": "bool",
              "name": "isVerified",
              "type": "bool"
            }
          ],
          "stateMutability": "view",
          "type": "function"
        },
        {
          "inputs": [
            {
              "internalType": "address",
              "name": "userAddress",
              "type": "address"
            },
            {
              "internalType": "uint256",
              "name": "nullifier",
              "type": "uint256"
            },
            {
              "internalType": "uint256",
              "name": "userIdentifier",
              "type": "uint256"
            },
            {
              "internalType": "string",
              "name": "nationality",
              "type": "string"
            },
            {
              "internalType": "uint256",
              "name": "timestamp",
              "type": "uint256"
            },
            {
              "internalType": "bytes",
              "name": "signature",
              "type": "bytes"
            }
          ],
          "name": "verifyAdminSignature",
          "outputs": [
            {
              "internalType": "bool",
              "name": "",
              "type": "bool"
            }
          ],
          "stateMutability": "view",
          "type": "function"
        },
        {
          "inputs": [
            {
              "internalType": "bytes",
              "name": "proofPayload",
              "type": "bytes"
            },
            {
              "internalType": "bytes",
              "name": "userContextData",
              "type": "bytes"
            }
          ],
          "name": "verifySelfProof",
          "outputs": [],
          "stateMutability": "nonpayable",
          "type": "function"
        }
      ],
      "evm": {
        "bytecode": {
          "linkReferences": {},
          "object": "60e060405234801561001057600080fd5b50604051611dc6380380611dc683398101604081905261002f916101e8565b6001600160a01b0380841660805260008390558490811661006a57604051631e4fbdf760e01b81526000600482015260240160405180910390fd5b6100738161017a565b50600280546001600160a01b0319166001600160a01b03959095169490941790935560a092835260035550604080518082018252601081526f24b232b73a34ba3cab32b934b334b2b960811b6020918201528151808301835260018152603160f81b9082015281517f8b73c3c69bb8fe3d512ecc4cf759cc79239f7b179b0ffacaa9a75d522b39400f818301527f433800fed47aa798145e03f4cb479559d05f87d4328f79a7f8ca22d60688100a818401527fc89efdaa54c0f20c7adf612882df0950f5a951637e0307cdcb4c672f298b8bc6606082015262014a34608082015230818501528251808203909401845260c09081019092528251920191909120905261022b565b600180546001600160a01b038381166001600160a01b0319831681179093556040519116919082907f8be0079c531659141344cd1fd0a4f28419497f9722a3daafe3b4186f6b6457e090600090a35050565b80516001600160a01b03811681146101e357600080fd5b919050565b600080600080608085870312156101fe57600080fd5b610207856101cc565b9350610215602086016101cc565b6040860151606090960151949790965092505050565b60805160a05160c051611b3b61028b6000396000818161015e015281816103b90152818161047c0152610f310152600081816101a301528181610298015281816102c301526108330152600081816104ee01526108a60152611b3b6000f3fe608060405234801561001057600080fd5b506004361061012c5760003560e01c80639948251b116100ad578063d952c30311610071578063d952c303146102f8578063e1a788eb1461030b578063e35fe36614610320578063f2fde38b14610344578063fc6f94681461035757600080fd5b80639948251b14610239578063ace417e014610259578063ada1b31914610288578063b564eb27146102be578063d161802b146102e557600080fd5b8063715018a6116100f4578063715018a6146101cf5780638d2d8d6a146101d95780638da5cb5b146101ec57806395183eb714610211578063951cfa471461023157600080fd5b806329d9b720146101315780633644e51514610159578063597c5b4c1461018e578063634daa11146101a15780636e62d0a8146101c7575b600080fd5b61014461013f366004611173565b61036a565b60405190151581526020015b60405180910390f35b6101807f000000000000000000000000000000000000000000000000000000000000000081565b604051908152602001610150565b61018061019c366004611206565b61042f565b7f0000000000000000000000000000000000000000000000000000000000000000610180565b600054610180565b6101d76104cf565b005b6101d76101e736600461126e565b6104e3565b6001546001600160a01b03165b6040516001600160a01b039091168152602001610150565b61022461021f3660046112d5565b610553565b6040516101509190611347565b61018061067d565b61024c6102473660046112d5565b61068d565b6040516101509190611399565b6101446102673660046112d5565b6001600160a01b031660009081526006602052604090206004015460ff1690565b6101806102963660046113ac565b7f00000000000000000000000000000000000000000000000000000000000000009392505050565b6101807f000000000000000000000000000000000000000000000000000000000000000081565b6101d76102f3366004611443565b610774565b61024c6103063660046112d5565b610953565b610180600080516020611ae683398151915281565b61033361032e3660046112d5565b6109ed565b6040516101509594939291906114b2565b6101d76103523660046112d5565b610aa8565b6002546101f9906001600160a01b031681565b600080600080516020611ae683398151915288888888805190602001208860405160200161039d969594939291906114ea565b60405160208183030381529060405280519060200120905060007f0000000000000000000000000000000000000000000000000000000000000000826040516020016103ea92919061151b565b60408051601f198184030181529190528051602090910120905060006104108286610aeb565b6002546001600160a01b039081169116149a9950505050505050505050565b600080600080516020611ae6833981519152878787878051906020012087604051602001610462969594939291906114ea565b6040516020818303038152906040528051906020012090507f0000000000000000000000000000000000000000000000000000000000000000816040516020016104ad92919061151b565b6040516020818303038152906040528051906020012091505095945050505050565b6104d7610b17565b6104e16000610b44565b565b336001600160a01b037f0000000000000000000000000000000000000000000000000000000000000000161461052c57604051635c427cd960e01b815260040160405180910390fd5b60008280602001905181019061054291906116d0565b905061054e8183610b96565b505050565b6105876040518060a00160405280600081526020016000815260200160608152602001600081526020016000151581525090565b60066000836001600160a01b03166001600160a01b031681526020019081526020016000206040518060a001604052908160008201548152602001600182015481526020016002820180546105db9061189b565b80601f01602080910402602001604051908101604052809291908181526020018280546106079061189b565b80156106545780601f1061062957610100808354040283529160200191610654565b820191906000526020600020905b81548152906001019060200180831161063757829003601f168201915b50505091835250506003820154602082015260049091015460ff16151560409091015292915050565b600061068860035490565b905090565b6001600160a01b03811660009081526006602052604090206004015460609060ff166106cc57604051637d93d32b60e01b815260040160405180910390fd5b6001600160a01b038216600090815260076020526040902080546106ef9061189b565b80601f016020809104026020016040519081016040528092919081815260200182805461071b9061189b565b80156107685780601f1061073d57610100808354040283529160200191610768565b820191906000526020600020905b81548152906001019060200180831161074b57829003601f168201915b50505050509050919050565b60208310156107965760405163a512e2ff60e01b815260040160405180910390fd5b60408110156107b85760405163a512e2ff60e01b815260040160405180910390fd5b833560006107c960208285876118d5565b6107d2916118ff565b905060006107e46040602086886118d5565b6107ed916118ff565b905060006107fe85604081896118d5565b8080601f01602080910402602001604051908101604052809392919081815260200183838082843760009201829052509394507f0000000000000000000000000000000000000000000000000000000000000000925061085c915050565b905060006002600060081b600054888d8d602090809261087e939291906118d5565b6040516020016108939695949392919061191d565b60405160208183030381529060405290507f00000000000000000000000000000000000000000000000000000000000000006001600160a01b031663f7e83aee82848b8b6040516020016108e993929190611959565b6040516020818303038152906040526040518363ffffffff1660e01b8152600401610915929190611973565b600060405180830381600087803b15801561092f57600080fd5b505af1158015610943573d6000803e3d6000fd5b5050505050505050505050505050565b6007602052600090815260409020805461096c9061189b565b80601f01602080910402602001604051908101604052809291908181526020018280546109989061189b565b80156109e55780601f106109ba576101008083540402835291602001916109e5565b820191906000526020600020905b8154815290600101906020018083116109c857829003601f168201915b505050505081565b60066020526000908152604090208054600182015460028301805492939192610a159061189b565b80601f0160208091040260200160405190810160405280929190818152602001828054610a419061189b565b8015610a8e5780601f10610a6357610100808354040283529160200191610a8e565b820191906000526020600020905b815481529060010190602001808311610a7157829003601f168201915b50505050600383015460049093015491929160ff16905085565b610ab0610b17565b6001600160a01b038116610adf57604051631e4fbdf760e01b8152600060048201526024015b60405180910390fd5b610ae881610b44565b50565b600080600080610afb8686610dd7565b925092509250610b0b8282610e24565b50909150505b92915050565b6001546001600160a01b031633146104e15760405163118cdaa760e01b8152336004820152602401610ad6565b600180546001600160a01b038381166001600160a01b0319831681179093556040519116919082907f8be0079c531659141344cd1fd0a4f28419497f9722a3daafe3b4186f6b6457e090600090a35050565b8160200151600003610bbb5760405163f0c426db60e01b815260040160405180910390fd5b60408083015160009081526004602052205415610beb57604051631165e35160e11b815260040160405180910390fd5b60208083015160009081526005909152604090205460ff1615610c215760405163cab65ccd60e01b815260040160405180910390fd5b8160e0015151600003610c4757604051631d89d0ab60e11b815260040160405180910390fd5b6020808301805160408086018051600090815260048652828120939093558351835260058552818320805460ff19166001908117909155825160a08101845291518252935181860190815260e0880151828401908152426060840152608083018690523380865260069097529290932081518155925193830193909355516002820190610cd490826119ef565b50606082015160038201556080909101516004909101805460ff19169115159190911790556040830151602084015160e0850151600092610d1792859242610ee1565b6001600160a01b0383166000908152600760205260409020909150610d3c82826119ef565b5083602001518460400151836001600160a01b03167f1cb4cb11e427b149571bdd797a651e51618ab02dca30b7753b0732255761f4028760e0015142604051610d86929190611aad565b60405180910390a4816001600160a01b03167f012f548f41d1d41001e5063672f002d6555e4ff68a593d055bdf31cec3fbbb6c8242604051610dc9929190611aad565b60405180910390a250505050565b60008060008351604103610e115760208401516040850151606086015160001a610e0388828585610f99565b955095509550505050610e1d565b50508151600091506002905b9250925092565b6000826003811115610e3857610e38611acf565b03610e41575050565b6001826003811115610e5557610e55611acf565b03610e735760405163f645eedf60e01b815260040160405180910390fd5b6002826003811115610e8757610e87611acf565b03610ea85760405163fce698f760e01b815260048101829052602401610ad6565b6003826003811115610ebc57610ebc611acf565b03610edd576040516335e2f38360e21b815260048101829052602401610ad6565b5050565b60606000600080516020611ae6833981519152878787878051906020012087604051602001610f15969594939291906114ea565b60405160208183030381529060405280519060200120905060007f000000000000000000000000000000000000000000000000000000000000000082604051602001610f6292919061151b565b60408051808303601f1901815282825280516020918201208184015281518084039091018152918101905298975050505050505050565b600080807f7fffffffffffffffffffffffffffffff5d576e7357a4501ddfe92f46681b20a0841115610fd4575060009150600390508261105e565b604080516000808252602082018084528a905260ff891692820192909252606081018790526080810186905260019060a0016020604051602081039080840390855afa158015611028573d6000803e3d6000fd5b5050604051601f1901519150506001600160a01b0381166110545750600092506001915082905061105e565b9250600091508190505b9450945094915050565b80356001600160a01b038116811461107f57600080fd5b919050565b634e487b7160e01b600052604160045260246000fd5b6040516101a081016001600160401b03811182821017156110bd576110bd611084565b60405290565b604051601f8201601f191681016001600160401b03811182821017156110eb576110eb611084565b604052919050565b60006001600160401b0382111561110c5761110c611084565b50601f01601f191660200190565b600082601f83011261112b57600080fd5b813560208301600061114461113f846110f3565b6110c3565b905082815285838301111561115857600080fd5b82826020830137600092810160200192909252509392505050565b60008060008060008060c0878903121561118c57600080fd5b61119587611068565b9550602087013594506040870135935060608701356001600160401b038111156111be57600080fd5b6111ca89828a0161111a565b9350506080870135915060a08701356001600160401b038111156111ed57600080fd5b6111f989828a0161111a565b9150509295509295509295565b600080600080600060a0868803121561121e57600080fd5b61122786611068565b9450602086013593506040860135925060608601356001600160401b0381111561125057600080fd5b61125c8882890161111a565b95989497509295608001359392505050565b6000806040838503121561128157600080fd5b82356001600160401b0381111561129757600080fd5b6112a38582860161111a565b92505060208301356001600160401b038111156112bf57600080fd5b6112cb8582860161111a565b9150509250929050565b6000602082840312156112e757600080fd5b6112f082611068565b9392505050565b60005b838110156113125781810151838201526020016112fa565b50506000910152565b600081518084526113338160208601602086016112f7565b601f01601f19169290920160200192915050565b6020815281516020820152602082015160408201526000604083015160a0606084015261137760c084018261131b565b9050606084015160808401526080840151151560a08401528091505092915050565b6020815260006112f0602083018461131b565b6000806000606084860312156113c157600080fd5b833592506020840135915060408401356001600160401b038111156113e557600080fd5b6113f18682870161111a565b9150509250925092565b60008083601f84011261140d57600080fd5b5081356001600160401b0381111561142457600080fd5b60208301915083602082850101111561143c57600080fd5b9250929050565b6000806000806040858703121561145957600080fd5b84356001600160401b0381111561146f57600080fd5b61147b878288016113fb565b90955093505060208501356001600160401b0381111561149a57600080fd5b6114a6878288016113fb565b95989497509550505050565b85815284602082015260a0604082015260006114d160a083018661131b565b6060830194909452509015156080909101529392505050565b9586526001600160a01b0394909416602086015260408501929092526060840152608083015260a082015260c00190565b61190160f01b81526002810192909252602282015260420190565b600082601f83011261154757600080fd5b61155160806110c3565b80608084018581111561156357600080fd5b845b8181101561157d578051845260209384019301611565565b509095945050505050565b600082601f83011261159957600080fd5b81516115a761113f826110f3565b8181528460208386010111156115bc57600080fd5b6115cd8260208301602087016112f7565b949350505050565b600082601f8301126115e657600080fd5b81516001600160401b038111156115ff576115ff611084565b8060051b61160f602082016110c3565b9182526020818501810192908101908684111561162b57600080fd5b6020860192505b838310156116715782516001600160401b0381111561165057600080fd5b61165f886020838a0101611588565b83525060209283019290910190611632565b9695505050505050565b600082601f83011261168c57600080fd5b61169660606110c3565b8060608401858111156116a857600080fd5b845b8181101561157d57805180151581146116c257600080fd5b8452602093840193016116aa565b6000602082840312156116e257600080fd5b81516001600160401b038111156116f857600080fd5b8201610240818503121561170b57600080fd5b61171361109a565b8151815260208083015190820152604080830151908201526117388560608401611536565b606082015260e08201516001600160401b0381111561175657600080fd5b61176286828501611588565b6080830152506101008201516001600160401b0381111561178257600080fd5b61178e868285016115d5565b60a0830152506101208201516001600160401b038111156117ae57600080fd5b6117ba86828501611588565b60c0830152506101408201516001600160401b038111156117da57600080fd5b6117e686828501611588565b60e0830152506101608201516001600160401b0381111561180657600080fd5b61181286828501611588565b610100830152506101808201516001600160401b0381111561183357600080fd5b61183f86828501611588565b610120830152506101a08201516001600160401b0381111561186057600080fd5b61186c86828501611588565b610140830152506101c082015161016082015261188d856101e0840161167b565b610180820152949350505050565b600181811c908216806118af57607f821691505b6020821081036118cf57634e487b7160e01b600052602260045260246000fd5b50919050565b600080858511156118e557600080fd5b838611156118f257600080fd5b5050820193919092039150565b80356020831015610b1157600019602084900360031b1b1692915050565b60ff60f81b8760f81b16815260ff1986166001820152846020820152836040820152818360608301376000910160600190815295945050505050565b838152818360208301376000910160200190815292915050565b604081526000611986604083018561131b565b8281036020840152611998818561131b565b95945050505050565b601f82111561054e57806000526020600020601f840160051c810160208510156119c85750805b601f840160051c820191505b818110156119e857600081556001016119d4565b5050505050565b81516001600160401b03811115611a0857611a08611084565b611a1c81611a16845461189b565b846119a1565b6020601f821160018114611a505760008315611a385750848201515b600019600385901b1c1916600184901b1784556119e8565b600084815260208120601f198516915b82811015611a805787850151825560209485019460019092019101611a60565b5084821015611a9e5786840151600019600387901b60f8161c191681555b50505050600190811b01905550565b604081526000611ac0604083018561131b565b90508260208301529392505050565b634e487b7160e01b600052602160045260246000fdfe8db8d84faf8b2365d4ffd175c1a5bf60a3c3bb8fd65fb126c9bbc39786d11da7a2646970667358221220506d1d33a5329153c3c7211bb594b8d6c4dd7677221bd05898c634f58f68fe9c64736f6c634300081c0033",
          "opcodes": "PUSH1 0xE0 PUSH1 0x40 MSTORE CALLVALUE DUP1 ISZERO PUSH2 0x10 JUMPI PUSH1 0x0 DUP1 REVERT JUMPDEST POP PUSH1 0x40 MLOAD PUSH2 0x1DC6 CODESIZE SUB DUP1 PUSH2 0x1DC6 DUP4 CODECOPY DUP2 ADD PUSH1 0x40 DUP2 SWAP1 MSTORE PUSH2 0x2F SWAP2 PUSH2 0x1E8 JUMP JUMPDEST PUSH1 0x1 PUSH1 0x1 PUSH1 0xA0 SHL SUB DUP1 DUP5 AND PUSH1 0x80 MSTORE PUSH1 0x0 DUP4 SWAP1 SSTORE DUP5 SWAP1 DUP2 AND PUSH2 0x6A JUMPI PUSH1 0x40 MLOAD PUSH4 0x1E4FBDF7 PUSH1 0xE0 SHL DUP2 MSTORE PUSH1 0x0 PUSH1 0x4 DUP3 ADD MSTORE PUSH1 0x24 ADD PUSH1 0x40 MLOAD DUP1 SWAP2 SUB SWAP1 REVERT JUMPDEST PUSH2 0x73 DUP2 PUSH2 0x17A JUMP JUMPDEST POP PUSH1 0x2 DUP1 SLOAD PUSH1 0x1 PUSH1 0x1 PUSH1 0xA0 SHL SUB NOT AND PUSH1 0x1 PUSH1 0x1 PUSH1 0xA0 SHL SUB SWAP6 SWAP1 SWAP6 AND SWAP5 SWAP1 SWAP5 OR SWAP1 SWAP4 SSTORE PUSH1 0xA0 SWAP3 DUP4 MSTORE PUSH1 0x3 SSTORE POP PUSH1 0x40 DUP1 MLOAD DUP1 DUP3 ADD DUP3 MSTORE PUSH1 0x10 DUP2 MSTORE PUSH16 0x24B232B73A34BA3CAB32B934B334B2B9 PUSH1 0x81 SHL PUSH1 0x20 SWAP2 DUP3 ADD MSTORE DUP2 MLOAD DUP1 DUP4 ADD DUP4 MSTORE PUSH1 0x1 DUP2 MSTORE PUSH1 0x31 PUSH1 0xF8 SHL SWAP1 DUP3 ADD MSTORE DUP2 MLOAD PUSH32 0x8B73C3C69BB8FE3D512ECC4CF759CC79239F7B179B0FFACAA9A75D522B39400F DUP2 DUP4 ADD MSTORE PUSH32 0x433800FED47AA798145E03F4CB479559D05F87D4328F79A7F8CA22D60688100A DUP2 DUP5 ADD MSTORE PUSH32 0xC89EFDAA54C0F20C7ADF612882DF0950F5A951637E0307CDCB4C672F298B8BC6 PUSH1 0x60 DUP3 ADD MSTORE PUSH3 0x14A34 PUSH1 0x80 DUP3 ADD MSTORE ADDRESS DUP2 DUP6 ADD MSTORE DUP3 MLOAD DUP1 DUP3 SUB SWAP1 SWAP5 ADD DUP5 MSTORE PUSH1 0xC0 SWAP1 DUP2 ADD SWAP1 SWAP3 MSTORE DUP3 MLOAD SWAP3 ADD SWAP2 SWAP1 SWAP2 KECCAK256 SWAP1 MSTORE PUSH2 0x22B JUMP JUMPDEST PUSH1 0x1 DUP1 SLOAD PUSH1 0x1 PUSH1 0x1 PUSH1 0xA0 SHL SUB DUP4 DUP2 AND PUSH1 0x1 PUSH1 0x1 PUSH1 0xA0 SHL SUB NOT DUP4 AND DUP2 OR SWAP1 SWAP4 SSTORE PUSH1 0x40 MLOAD SWAP2 AND SWAP2 SWAP1 DUP3 SWAP1 PUSH32 0x8BE0079C531659141344CD1FD0A4F28419497F9722A3DAAFE3B4186F6B6457E0 SWAP1 PUSH1 0x0 SWAP1 LOG3 POP POP JUMP JUMPDEST DUP1 MLOAD PUSH1 0x1 PUSH1 0x1 PUSH1 0xA0 SHL SUB DUP2 AND DUP2 EQ PUSH2 0x1E3 JUMPI PUSH1 0x0 DUP1 REVERT JUMPDEST SWAP2 SWAP1 POP JUMP JUMPDEST PUSH1 0x0 DUP1 PUSH1 0x0 DUP1 PUSH1 0x80 DUP6 DUP8 SUB SLT ISZERO PUSH2 0x1FE JUMPI PUSH1 0x0 DUP1 REVERT JUMPDEST PUSH2 0x207 DUP6 PUSH2 0x1CC JUMP JUMPDEST SWAP4 POP PUSH2 0x215 PUSH1 0x20 DUP7 ADD PUSH2 0x1CC JUMP JUMPDEST PUSH1 0x40 DUP7 ADD MLOAD PUSH1 0x60 SWAP1 SWAP7 ADD MLOAD SWAP5 SWAP8 SWAP1 SWAP7 POP SWAP3 POP POP POP JUMP JUMPDEST PUSH1 0x80 MLOAD PUSH1 0xA0 MLOAD PUSH1 0xC0 MLOAD PUSH2 0x1B3B PUSH2 0x28B PUSH1 0x0 CODECOPY PUSH1 0x0 DUP2 DUP2 PUSH2 0x15E ADD MSTORE DUP2 DUP2 PUSH2 0x3B9 ADD MSTORE DUP2 DUP2 PUSH2 0x47C ADD MSTORE PUSH2 0xF31 ADD MSTORE PUSH1 0x0 DUP2 DUP2 PUSH2 0x1A3 ADD MSTORE DUP2 DUP2 PUSH2 0x298 ADD MSTORE DUP2 DUP2 PUSH2 0x2C3 ADD MSTORE PUSH2 0x833 ADD MSTORE PUSH1 0x0 DUP2 DUP2 PUSH2 0x4EE ADD MSTORE PUSH2 0x8A6 ADD MSTORE PUSH2 0x1B3B PUSH1 0x0 RETURN INVALID PUSH1 0x80 PUSH1 0x40 MSTORE CALLVALUE DUP1 ISZERO PUSH2 0x10 JUMPI PUSH1 0x0 DUP1 REVERT JUMPDEST POP PUSH1 0x4 CALLDATASIZE LT PUSH2 0x12C JUMPI PUSH1 0x0 CALLDATALOAD PUSH1 0xE0 SHR DUP1 PUSH4 0x9948251B GT PUSH2 0xAD JUMPI DUP1 PUSH4 0xD952C303 GT PUSH2 0x71 JUMPI DUP1 PUSH4 0xD952C303 EQ PUSH2 0x2F8 JUMPI DUP1 PUSH4 0xE1A788EB EQ PUSH2 0x30B JUMPI DUP1 PUSH4 0xE35FE366 EQ PUSH2 0x320 JUMPI DUP1 PUSH4 0xF2FDE38B EQ PUSH2 0x344 JUMPI DUP1 PUSH4 0xFC6F9468 EQ PUSH2 0x357 JUMPI PUSH1 0x0 DUP1 REVERT JUMPDEST DUP1 PUSH4 0x9948251B EQ PUSH2 0x239 JUMPI DUP1 PUSH4 0xACE417E0 EQ PUSH2 0x259 JUMPI DUP1 PUSH4 0xADA1B319 EQ PUSH2 0x288 JUMPI DUP1 PUSH4 0xB564EB27 EQ PUSH2 0x2BE JUMPI DUP1 PUSH4 0xD161802B EQ PUSH2 0x2E5 JUMPI PUSH1 0x0 DUP1 REVERT JUMPDEST DUP1 PUSH4 0x715018A6 GT PUSH2 0xF4 JUMPI DUP1 PUSH4 0x715018A6 EQ PUSH2 0x1CF JUMPI DUP1 PUSH4 0x8D2D8D6A EQ PUSH2 0x1D9 JUMPI DUP1 PUSH4 0x8DA5CB5B EQ PUSH2 0x1EC JUMPI DUP1 PUSH4 0x95183EB7 EQ PUSH2 0x211 JUMPI DUP1 PUSH4 0x951CFA47 EQ PUSH2 0x231 JUMPI PUSH1 0x0 DUP1 REVERT JUMPDEST DUP1 PUSH4 0x29D9B720 EQ PUSH2 0x131 JUMPI DUP1 PUSH4 0x3644E515 EQ PUSH2 0x159 JUMPI DUP1 PUSH4 0x597C5B4C EQ PUSH2 0x18E JUMPI DUP1 PUSH4 0x634DAA11 EQ PUSH2 0x1A1 JUMPI DUP1 PUSH4 0x6E62D0A8 EQ PUSH2 0x1C7 JUMPI JUMPDEST PUSH1 0x0 DUP1 REVERT JUMPDEST PUSH2 0x144 PUSH2 0x13F CALLDATASIZE PUSH1 0x4 PUSH2 0x1173 JUMP JUMPDEST PUSH2 0x36A JUMP JUMPDEST PUSH1 0x40 MLOAD SWAP1 ISZERO ISZERO DUP2 MSTORE PUSH1 0x20 ADD JUMPDEST PUSH1 0x40 MLOAD DUP1 SWAP2 SUB SWAP1 RETURN JUMPDEST PUSH2 0x180 PUSH32 0x0 DUP2 JUMP JUMPDEST PUSH1 0x40 MLOAD SWAP1 DUP2 MSTORE PUSH1 0x20 ADD PUSH2 0x150 JUMP JUMPDEST PUSH2 0x180 PUSH2 0x19C CALLDATASIZE PUSH1 0x4 PUSH2 0x1206 JUMP JUMPDEST PUSH2 0x42F JUMP JUMPDEST PUSH32 0x0 PUSH2 0x180 JUMP JUMPDEST PUSH1 0x0 SLOAD PUSH2 0x180 JUMP JUMPDEST PUSH2 0x1D7 PUSH2 0x4CF JUMP JUMPDEST STOP JUMPDEST PUSH2 0x1D7 PUSH2 0x1E7 CALLDATASIZE PUSH1 0x4 PUSH2 0x126E JUMP JUMPDEST PUSH2 0x4E3 JUMP JUMPDEST PUSH1 0x1 SLOAD PUSH1 0x1 PUSH1 0x1 PUSH1 0xA0 SHL SUB AND JUMPDEST PUSH1 0x40 MLOAD PUSH1 0x1 PUSH1 0x1 PUSH1 0xA0 SHL SUB SWAP1 SWAP2 AND DUP2 MSTORE PUSH1 0x20 ADD PUSH2 0x150 JUMP JUMPDEST PUSH2 0x224 PUSH2 0x21F CALLDATASIZE PUSH1 0x4 PUSH2 0x12D5 JUMP JUMPDEST PUSH2 0x553 JUMP JUMPDEST PUSH1 0x40 MLOAD PUSH2 0x150 SWAP2 SWAP1 PUSH2 0x1347 JUMP JUMPDEST PUSH2 0x180 PUSH2 0x67D JUMP JUMPDEST PUSH2 0x24C PUSH2 0x247 CALLDATASIZE PUSH1 0x4 PUSH2 0x12D5 JUMP JUMPDEST PUSH2 0x68D JUMP JUMPDEST PUSH1 0x40 MLOAD PUSH2 0x150 SWAP2 SWAP1 PUSH2 0x1399 JUMP JUMPDEST PUSH2 0x144 PUSH2 0x267 CALLDATASIZE PUSH1 0x4 PUSH2 0x12D5 JUMP JUMPDEST PUSH1 0x1 PUSH1 0x1 PUSH1 0xA0 SHL SUB AND PUSH1 0x0 SWAP1 DUP2 MSTORE PUSH1 0x6 PUSH1 0x20 MSTORE PUSH1 0x40 SWAP1 KECCAK256 PUSH1 0x4 ADD SLOAD PUSH1 0xFF AND SWAP1 JUMP JUMPDEST PUSH2 0x180 PUSH2 0x296 CALLDATASIZE PUSH1 0x4 PUSH2 0x13AC JUMP JUMPDEST PUSH32 0x0 SWAP4 SWAP3 POP POP POP JUMP JUMPDEST PUSH2 0x180 PUSH32 0x0 DUP2 JUMP JUMPDEST PUSH2 0x1D7 PUSH2 0x2F3 CALLDATASIZE PUSH1 0x4 PUSH2 0x1443 JUMP JUMPDEST PUSH2 0x774 JUMP JUMPDEST PUSH2 0x24C PUSH2 0x306 CALLDATASIZE PUSH1 0x4 PUSH2 0x12D5 JUMP JUMPDEST PUSH2 0x953 JUMP JUMPDEST PUSH2 0x180 PUSH1 0x0 DUP1 MLOAD PUSH1 0x20 PUSH2 0x1AE6 DUP4 CODECOPY DUP2 MLOAD SWAP2 MSTORE DUP2 JUMP JUMPDEST PUSH2 0x333 PUSH2 0x32E CALLDATASIZE PUSH1 0x4 PUSH2 0x12D5 JUMP JUMPDEST PUSH2 0x9ED JUMP JUMPDEST PUSH1 0x40 MLOAD PUSH2 0x150 SWAP6 SWAP5 SWAP4 SWAP3 SWAP2 SWAP1 PUSH2 0x14B2 JUMP JUMPDEST PUSH2 0x1D7 PUSH2 0x352 CALLDATASIZE PUSH1 0x4 PUSH2 0x12D5 JUMP JUMPDEST PUSH2 0xAA8 JUMP JUMPDEST PUSH1 0x2 SLOAD PUSH2 0x1F9 SWAP1 PUSH1 0x1 PUSH1 0x1 PUSH1 0xA0 SHL SUB AND DUP2 JUMP JUMPDEST PUSH1 0x0 DUP1 PUSH1 0x0 DUP1 MLOAD PUSH1 0x20 PUSH2 0x1AE6 DUP4 CODECOPY DUP2 MLOAD SWAP2 MSTORE DUP9 DUP9 DUP9 DUP9 DUP1 MLOAD SWAP1 PUSH1 0x20 ADD KECCAK256 DUP9 PUSH1 0x40 MLOAD PUSH1 0x20 ADD PUSH2 0x39D SWAP7 SWAP6 SWAP5 SWAP4 SWAP3 SWAP2 SWAP1 PUSH2 0x14EA JUMP JUMPDEST PUSH1 0x40 MLOAD PUSH1 0x20 DUP2 DUP4 SUB SUB DUP2 MSTORE SWAP1 PUSH1 0x40 MSTORE DUP1 MLOAD SWAP1 PUSH1 0x20 ADD KECCAK256 SWAP1 POP PUSH1 0x0 PUSH32 0x0 DUP3 PUSH1 0x40 MLOAD PUSH1 0x20 ADD PUSH2 0x3EA SWAP3 SWAP2 SWAP1 PUSH2 0x151B JUMP JUMPDEST PUSH1 0x40 DUP1 MLOAD PUSH1 0x1F NOT DUP2 DUP5 SUB ADD DUP2 MSTORE SWAP2 SWAP1 MSTORE DUP1 MLOAD PUSH1 0x20 SWAP1 SWAP2 ADD KECCAK256 SWAP1 POP PUSH1 0x0 PUSH2 0x410 DUP3 DUP7 PUSH2 0xAEB JUMP JUMPDEST PUSH1 0x2 SLOAD PUSH1 0x1 PUSH1 0x1 PUSH1 0xA0 SHL SUB SWAP1 DUP2 AND SWAP2 AND EQ SWAP11 SWAP10 POP POP POP POP POP POP POP POP POP POP JUMP JUMPDEST PUSH1 0x0 DUP1 PUSH1 0x0 DUP1 MLOAD PUSH1 0x20 PUSH2 0x1AE6 DUP4 CODECOPY DUP2 MLOAD SWAP2 MSTORE DUP8 DUP8 DUP8 DUP8 DUP1 MLOAD SWAP1 PUSH1 0x20 ADD KECCAK256 DUP8 PUSH1 0x40 MLOAD PUSH1 0x20 ADD PUSH2 0x462 SWAP7 SWAP6 SWAP5 SWAP4 SWAP3 SWAP2 SWAP1 PUSH2 0x14EA JUMP JUMPDEST PUSH1 0x40 MLOAD PUSH1 0x20 DUP2 DUP4 SUB SUB DUP2 MSTORE SWAP1 PUSH1 0x40 MSTORE DUP1 MLOAD SWAP1 PUSH1 0x20 ADD KECCAK256 SWAP1 POP PUSH32 0x0 DUP2 PUSH1 0x40 MLOAD PUSH1 0x20 ADD PUSH2 0x4AD SWAP3 SWAP2 SWAP1 PUSH2 0x151B JUMP JUMPDEST PUSH1 0x40 MLOAD PUSH1 0x20 DUP2 DUP4 SUB SUB DUP2 MSTORE SWAP1 PUSH1 0x40 MSTORE DUP1 MLOAD SWAP1 PUSH1 0x20 ADD KECCAK256 SWAP2 POP POP SWAP6 SWAP5 POP POP POP POP POP JUMP JUMPDEST PUSH2 0x4D7 PUSH2 0xB17 JUMP JUMPDEST PUSH2 0x4E1 PUSH1 0x0 PUSH2 0xB44 JUMP JUMPDEST JUMP JUMPDEST CALLER PUSH1 0x1 PUSH1 0x1 PUSH1 0xA0 SHL SUB PUSH32 0x0 AND EQ PUSH2 0x52C JUMPI PUSH1 0x40 MLOAD PUSH4 0x5C427CD9 PUSH1 0xE0 SHL DUP2 MSTORE PUSH1 0x4 ADD PUSH1 0x40 MLOAD DUP1 SWAP2 SUB SWAP1 REVERT JUMPDEST PUSH1 0x0 DUP3 DUP1 PUSH1 0x20 ADD SWAP1 MLOAD DUP2 ADD SWAP1 PUSH2 0x542 SWAP2 SWAP1 PUSH2 0x16D0 JUMP JUMPDEST SWAP1 POP PUSH2 0x54E DUP2 DUP4 PUSH2 0xB96 JUMP JUMPDEST POP POP POP JUMP JUMPDEST PUSH2 0x587 PUSH1 0x40 MLOAD DUP1 PUSH1 0xA0 ADD PUSH1 0x40 MSTORE DUP1 PUSH1 0x0 DUP2 MSTORE PUSH1 0x20 ADD PUSH1 0x0 DUP2 MSTORE PUSH1 0x20 ADD PUSH1 0x60 DUP2 MSTORE PUSH1 0x20 ADD PUSH1 0x0 DUP2 MSTORE PUSH1 0x20 ADD PUSH1 0x0 ISZERO ISZERO DUP2 MSTORE POP SWAP1 JUMP JUMPDEST PUSH1 0x6 PUSH1 0x0 DUP4 PUSH1 0x1 PUSH1 0x1 PUSH1 0xA0 SHL SUB AND PUSH1 0x1 PUSH1 0x1 PUSH1 0xA0 SHL SUB AND DUP2 MSTORE PUSH1 0x20 ADD SWAP1 DUP2 MSTORE PUSH1 0x20 ADD PUSH1 0x0 KECCAK256 PUSH1 0x40 MLOAD DUP1 PUSH1 0xA0 ADD PUSH1 0x40 MSTORE SWAP1 DUP2 PUSH1 0x0 DUP3 ADD SLOAD DUP2 MSTORE PUSH1 0x20 ADD PUSH1 0x1 DUP3 ADD SLOAD DUP2 MSTORE PUSH1 0x20 ADD PUSH1 0x2 DUP3 ADD DUP1 SLOAD PUSH2 0x5DB SWAP1 PUSH2 0x189B JUMP JUMPDEST DUP1 PUSH1 0x1F ADD PUSH1 0x20 DUP1 SWAP2 DIV MUL PUSH1 0x20 ADD PUSH1 0x40 MLOAD SWAP1 DUP2 ADD PUSH1 0x40 MSTORE DUP1 SWAP3 SWAP2 SWAP1 DUP2 DUP2 MSTORE PUSH1 0x20 ADD DUP3 DUP1 SLOAD PUSH2 0x607 SWAP1 PUSH2 0x189B JUMP JUMPDEST DUP1 ISZERO PUSH2 0x654 JUMPI DUP1 PUSH1 0x1F LT PUSH2 0x629 JUMPI PUSH2 0x100 DUP1 DUP4 SLOAD DIV MUL DUP4 MSTORE SWAP2 PUSH1 0x20 ADD SWAP2 PUSH2 0x654 JUMP JUMPDEST DUP3 ADD SWAP2 SWAP1 PUSH1 0x0 MSTORE PUSH1 0x20 PUSH1 0x0 KECCAK256 SWAP1 JUMPDEST DUP2 SLOAD DUP2 MSTORE SWAP1 PUSH1 0x1 ADD SWAP1 PUSH1 0x20 ADD DUP1 DUP4 GT PUSH2 0x637 JUMPI DUP3 SWAP1 SUB PUSH1 0x1F AND DUP3 ADD SWAP2 JUMPDEST POP POP POP SWAP2 DUP4 MSTORE POP POP PUSH1 0x3 DUP3 ADD SLOAD PUSH1 0x20 DUP3 ADD MSTORE PUSH1 0x4 SWAP1 SWAP2 ADD SLOAD PUSH1 0xFF AND ISZERO ISZERO PUSH1 0x40 SWAP1 SWAP2 ADD MSTORE SWAP3 SWAP2 POP POP JUMP JUMPDEST PUSH1 0x0 PUSH2 0x688 PUSH1 0x3 SLOAD SWAP1 JUMP JUMPDEST SWAP1 POP SWAP1 JUMP JUMPDEST PUSH1 0x1 PUSH1 0x1 PUSH1 0xA0 SHL SUB DUP2 AND PUSH1 0x0 SWAP1 DUP2 MSTORE PUSH1 0x6 PUSH1 0x20 MSTORE PUSH1 0x40 SWAP1 KECCAK256 PUSH1 0x4 ADD SLOAD PUSH1 0x60 SWAP1 PUSH1 0xFF AND PUSH2 0x6CC JUMPI PUSH1 0x40 MLOAD PUSH4 0x7D93D32B PUSH1 0xE0 SHL DUP2 MSTORE PUSH1 0x4 ADD PUSH1 0x40 MLOAD DUP1 SWAP2 SUB SWAP1 REVERT JUMPDEST PUSH1 0x1 PUSH1 0x1 PUSH1 0xA0 SHL SUB DUP3 AND PUSH1 0x0 SWAP1 DUP2 MSTORE PUSH1 0x7 PUSH1 0x20 MSTORE PUSH1 0x40 SWAP1 KECCAK256 DUP1 SLOAD PUSH2 0x6EF SWAP1 PUSH2 0x189B JUMP JUMPDEST DUP1 PUSH1 0x1F ADD PUSH1 0x20 DUP1 SWAP2 DIV MUL PUSH1 0x20 ADD PUSH1 0x40 MLOAD SWAP1 DUP2 ADD PUSH1 0x40 MSTORE DUP1 SWAP3 SWAP2 SWAP1 DUP2 DUP2 MSTORE PUSH1 0x20 ADD DUP3 DUP1 SLOAD PUSH2 0x71B SWAP1 PUSH2 0x189B JUMP JUMPDEST DUP1 ISZERO PUSH2 0x768 JUMPI DUP1 PUSH1 0x1F LT PUSH2 0x73D JUMPI PUSH2 0x100 DUP1 DUP4 SLOAD DIV MUL DUP4 MSTORE SWAP2 PUSH1 0x20 ADD SWAP2 PUSH2 0x768 JUMP JUMPDEST DUP3 ADD SWAP2 SWAP1 PUSH1 0x0 MSTORE PUSH1 0x20 PUSH1 0x0 KECCAK256 SWAP1 JUMPDEST DUP2 SLOAD DUP2 MSTORE SWAP1 PUSH1 0x1 ADD SWAP1 PUSH1 0x20 ADD DUP1 DUP4 GT PUSH2 0x74B JUMPI DUP3 SWAP1 SUB PUSH1 0x1F AND DUP3 ADD SWAP2 JUMPDEST POP POP POP POP POP SWAP1 POP SWAP2 SWAP1 POP JUMP JUMPDEST PUSH1 0x20 DUP4 LT ISZERO PUSH2 0x796 JUMPI PUSH1 0x40 MLOAD PUSH4 0xA512E2FF PUSH1 0xE0 SHL DUP2 MSTORE PUSH1 0x4 ADD PUSH1 0x40 MLOAD DUP1 SWAP2 SUB SWAP1 REVERT JUMPDEST PUSH1 0x40 DUP2 LT ISZERO PUSH2 0x7B8 JUMPI PUSH1 0x40 MLOAD PUSH4 0xA512E2FF PUSH1 0xE0 SHL DUP2 MSTORE PUSH1 0x4 ADD PUSH1 0x40 MLOAD DUP1 SWAP2 SUB SWAP1 REVERT JUMPDEST DUP4 CALLDATALOAD PUSH1 0x0 PUSH2 0x7C9 PUSH1 0x20 DUP3 DUP6 DUP8 PUSH2 0x18D5 JUMP JUMPDEST PUSH2 0x7D2 SWAP2 PUSH2 0x18FF JUMP JUMPDEST SWAP1 POP PUSH1 0x0 PUSH2 0x7E4 PUSH1 0x40 PUSH1 0x20 DUP7 DUP9 PUSH2 0x18D5 JUMP JUMPDEST PUSH2 0x7ED SWAP2 PUSH2 0x18FF JUMP JUMPDEST SWAP1 POP PUSH1 0x0 PUSH2 0x7FE DUP6 PUSH1 0x40 DUP2 DUP10 PUSH2 0x18D5 JUMP JUMPDEST DUP1 DUP1 PUSH1 0x1F ADD PUSH1 0x20 DUP1 SWAP2 DIV MUL PUSH1 0x20 ADD PUSH1 0x40 MLOAD SWAP1 DUP2 ADD PUSH1 0x40 MSTORE DUP1 SWAP4 SWAP3 SWAP2 SWAP1 DUP2 DUP2 MSTORE PUSH1 0x20 ADD DUP4 DUP4 DUP1 DUP3 DUP5 CALLDATACOPY PUSH1 0x0 SWAP3 ADD DUP3 SWAP1 MSTORE POP SWAP4 SWAP5 POP PUSH32 0x0 SWAP3 POP PUSH2 0x85C SWAP2 POP POP JUMP JUMPDEST SWAP1 POP PUSH1 0x0 PUSH1 0x2 PUSH1 0x0 PUSH1 0x8 SHL PUSH1 0x0 SLOAD DUP9 DUP14 DUP14 PUSH1 0x20 SWAP1 DUP1 SWAP3 PUSH2 0x87E SWAP4 SWAP3 SWAP2 SWAP1 PUSH2 0x18D5 JUMP JUMPDEST PUSH1 0x40 MLOAD PUSH1 0x20 ADD PUSH2 0x893 SWAP7 SWAP6 SWAP5 SWAP4 SWAP3 SWAP2 SWAP1 PUSH2 0x191D JUMP JUMPDEST PUSH1 0x40 MLOAD PUSH1 0x20 DUP2 DUP4 SUB SUB DUP2 MSTORE SWAP1 PUSH1 0x40 MSTORE SWAP1 POP PUSH32 0x0 PUSH1 0x1 PUSH1 0x1 PUSH1 0xA0 SHL SUB AND PUSH4 0xF7E83AEE DUP3 DUP5 DUP12 DUP12 PUSH1 0x40 MLOAD PUSH1 0x20 ADD PUSH2 0x8E9 SWAP4 SWAP3 SWAP2 SWAP1 PUSH2 0x1959 JUMP JUMPDEST PUSH1 0x40 MLOAD PUSH1 0x20 DUP2 DUP4 SUB SUB DUP2 MSTORE SWAP1 PUSH1 0x40 MSTORE PUSH1 0x40 MLOAD DUP4 PUSH4 0xFFFFFFFF AND PUSH1 0xE0 SHL DUP2 MSTORE PUSH1 0x4 ADD PUSH2 0x915 SWAP3 SWAP2 SWAP1 PUSH2 0x1973 JUMP JUMPDEST PUSH1 0x0 PUSH1 0x40 MLOAD DUP1 DUP4 SUB DUP2 PUSH1 0x0 DUP8 DUP1 EXTCODESIZE ISZERO DUP1 ISZERO PUSH2 0x92F JUMPI PUSH1 0x0 DUP1 REVERT JUMPDEST POP GAS CALL ISZERO DUP1 ISZERO PUSH2 0x943 JUMPI RETURNDATASIZE PUSH1 0x0 DUP1 RETURNDATACOPY RETURNDATASIZE PUSH1 0x0 REVERT JUMPDEST POP POP POP POP POP POP POP POP POP POP POP POP POP POP JUMP JUMPDEST PUSH1 0x7 PUSH1 0x20 MSTORE PUSH1 0x0 SWAP1 DUP2 MSTORE PUSH1 0x40 SWAP1 KECCAK256 DUP1 SLOAD PUSH2 0x96C SWAP1 PUSH2 0x189B JUMP JUMPDEST DUP1 PUSH1 0x1F ADD PUSH1 0x20 DUP1 SWAP2 DIV MUL PUSH1 0x20 ADD PUSH1 0x40 MLOAD SWAP1 DUP2 ADD PUSH1 0x40 MSTORE DUP1 SWAP3 SWAP2 SWAP1 DUP2 DUP2 MSTORE PUSH1 0x20 ADD DUP3 DUP1 SLOAD PUSH2 0x998 SWAP1 PUSH2 0x189B JUMP JUMPDEST DUP1 ISZERO PUSH2 0x9E5 JUMPI DUP1 PUSH1 0x1F LT PUSH2 0x9BA JUMPI PUSH2 0x100 DUP1 DUP4 SLOAD DIV MUL DUP4 MSTORE SWAP2 PUSH1 0x20 ADD SWAP2 PUSH2 0x9E5 JUMP JUMPDEST DUP3 ADD SWAP2 SWAP1 PUSH1 0x0 MSTORE PUSH1 0x20 PUSH1 0x0 KECCAK256 SWAP1 JUMPDEST DUP2 SLOAD DUP2 MSTORE SWAP1 PUSH1 0x1 ADD SWAP1 PUSH1 0x20 ADD DUP1 DUP4 GT PUSH2 0x9C8 JUMPI DUP3 SWAP1 SUB PUSH1 0x1F AND DUP3 ADD SWAP2 JUMPDEST POP POP POP POP POP DUP2 JUMP JUMPDEST PUSH1 0x6 PUSH1 0x20 MSTORE PUSH1 0x0 SWAP1 DUP2 MSTORE PUSH1 0x40 SWAP1 KECCAK256 DUP1 SLOAD PUSH1 0x1 DUP3 ADD SLOAD PUSH1 0x2 DUP4 ADD DUP1 SLOAD SWAP3 SWAP4 SWAP2 SWAP3 PUSH2 0xA15 SWAP1 PUSH2 0x189B JUMP JUMPDEST DUP1 PUSH1 0x1F ADD PUSH1 0x20 DUP1 SWAP2 DIV MUL PUSH1 0x20 ADD PUSH1 0x40 MLOAD SWAP1 DUP2 ADD PUSH1 0x40 MSTORE DUP1 SWAP3 SWAP2 SWAP1 DUP2 DUP2 MSTORE PUSH1 0x20 ADD DUP3 DUP1 SLOAD PUSH2 0xA41 SWAP1 PUSH2 0x189B JUMP JUMPDEST DUP1 ISZERO PUSH2 0xA8E JUMPI DUP1 PUSH1 0x1F LT PUSH2 0xA63 JUMPI PUSH2 0x100 DUP1 DUP4 SLOAD DIV MUL DUP4 MSTORE SWAP2 PUSH1 0x20 ADD SWAP2 PUSH2 0xA8E JUMP JUMPDEST DUP3 ADD SWAP2 SWAP1 PUSH1 0x0 MSTORE PUSH1 0x20 PUSH1 0x0 KECCAK256 SWAP1 JUMPDEST DUP2 SLOAD DUP2 MSTORE SWAP1 PUSH1 0x1 ADD SWAP1 PUSH1 0x20 ADD DUP1 DUP4 GT PUSH2 0xA71 JUMPI DUP3 SWAP1 SUB PUSH1 0x1F AND DUP3 ADD SWAP2 JUMPDEST POP POP POP POP PUSH1 0x3 DUP4 ADD SLOAD PUSH1 0x4 SWAP1 SWAP4 ADD SLOAD SWAP2 SWAP3 SWAP2 PUSH1 0xFF AND SWAP1 POP DUP6 JUMP JUMPDEST PUSH2 0xAB0 PUSH2 0xB17 JUMP JUMPDEST PUSH1 0x1 PUSH1 0x1 PUSH1 0xA0 SHL SUB DUP2 AND PUSH2 0xADF JUMPI PUSH1 0x40 MLOAD PUSH4 0x1E4FBDF7 PUSH1 0xE0 SHL DUP2 MSTORE PUSH1 0x0 PUSH1 0x4 DUP3 ADD MSTORE PUSH1 0x24 ADD JUMPDEST PUSH1 0x40 MLOAD DUP1 SWAP2 SUB SWAP1 REVERT JUMPDEST PUSH2 0xAE8 DUP2 PUSH2 0xB44 JUMP JUMPDEST POP JUMP JUMPDEST PUSH1 0x0 DUP1 PUSH1 0x0 DUP1 PUSH2 0xAFB DUP7 DUP7 PUSH2 0xDD7 JUMP JUMPDEST SWAP3 POP SWAP3 POP SWAP3 POP PUSH2 0xB0B DUP3 DUP3 PUSH2 0xE24 JUMP JUMPDEST POP SWAP1 SWAP2 POP POP JUMPDEST SWAP3 SWAP2 POP POP JUMP JUMPDEST PUSH1 0x1 SLOAD PUSH1 0x1 PUSH1 0x1 PUSH1 0xA0 SHL SUB AND CALLER EQ PUSH2 0x4E1 JUMPI PUSH1 0x40 MLOAD PUSH4 0x118CDAA7 PUSH1 0xE0 SHL DUP2 MSTORE CALLER PUSH1 0x4 DUP3 ADD MSTORE PUSH1 0x24 ADD PUSH2 0xAD6 JUMP JUMPDEST PUSH1 0x1 DUP1 SLOAD PUSH1 0x1 PUSH1 0x1 PUSH1 0xA0 SHL SUB DUP4 DUP2 AND PUSH1 0x1 PUSH1 0x1 PUSH1 0xA0 SHL SUB NOT DUP4 AND DUP2 OR SWAP1 SWAP4 SSTORE PUSH1 0x40 MLOAD SWAP2 AND SWAP2 SWAP1 DUP3 SWAP1 PUSH32 0x8BE0079C531659141344CD1FD0A4F28419497F9722A3DAAFE3B4186F6B6457E0 SWAP1 PUSH1 0x0 SWAP1 LOG3 POP POP JUMP JUMPDEST DUP2 PUSH1 0x20 ADD MLOAD PUSH1 0x0 SUB PUSH2 0xBBB JUMPI PUSH1 0x40 MLOAD PUSH4 0xF0C426DB PUSH1 0xE0 SHL DUP2 MSTORE PUSH1 0x4 ADD PUSH1 0x40 MLOAD DUP1 SWAP2 SUB SWAP1 REVERT JUMPDEST PUSH1 0x40 DUP1 DUP4 ADD MLOAD PUSH1 0x0 SWAP1 DUP2 MSTORE PUSH1 0x4 PUSH1 0x20 MSTORE KECCAK256 SLOAD ISZERO PUSH2 0xBEB JUMPI PUSH1 0x40 MLOAD PUSH4 0x1165E351 PUSH1 0xE1 SHL DUP2 MSTORE PUSH1 0x4 ADD PUSH1 0x40 MLOAD DUP1 SWAP2 SUB SWAP1 REVERT JUMPDEST PUSH1 0x20 DUP1 DUP4 ADD MLOAD PUSH1 0x0 SWAP1 DUP2 MSTORE PUSH1 0x5 SWAP1 SWAP2 MSTORE PUSH1 0x40 SWAP1 KECCAK256 SLOAD PUSH1 0xFF AND ISZERO PUSH2 0xC21 JUMPI PUSH1 0x40 MLOAD PUSH4 0xCAB65CCD PUSH1 0xE0 SHL DUP2 MSTORE PUSH1 0x4 ADD PUSH1 0x40 MLOAD DUP1 SWAP2 SUB SWAP1 REVERT JUMPDEST DUP2 PUSH1 0xE0 ADD MLOAD MLOAD PUSH1 0x0 SUB PUSH2 0xC47 JUMPI PUSH1 0x40 MLOAD PUSH4 0x1D89D0AB PUSH1 0xE1 SHL DUP2 MSTORE PUSH1 0x4 ADD PUSH1 0x40 MLOAD DUP1 SWAP2 SUB SWAP1 REVERT JUMPDEST PUSH1 0x20 DUP1 DUP4 ADD DUP1 MLOAD PUSH1 0x40 DUP1 DUP7 ADD DUP1 MLOAD PUSH1 0x0 SWAP1 DUP2 MSTORE PUSH1 0x4 DUP7 MSTORE DUP3 DUP2 KECCAK256 SWAP4 SWAP1 SWAP4 SSTORE DUP4 MLOAD DUP4 MSTORE PUSH1 0x5 DUP6 MSTORE DUP2 DUP4 KECCAK256 DUP1 SLOAD PUSH1 0xFF NOT AND PUSH1 0x1 SWAP1 DUP2 OR SWAP1 SWAP2 SSTORE DUP3 MLOAD PUSH1 0xA0 DUP2 ADD DUP5 MSTORE SWAP2 MLOAD DUP3 MSTORE SWAP4 MLOAD DUP2 DUP7 ADD SWAP1 DUP2 MSTORE PUSH1 0xE0 DUP9 ADD MLOAD DUP3 DUP5 ADD SWAP1 DUP2 MSTORE TIMESTAMP PUSH1 0x60 DUP5 ADD MSTORE PUSH1 0x80 DUP4 ADD DUP7 SWAP1 MSTORE CALLER DUP1 DUP7 MSTORE PUSH1 0x6 SWAP1 SWAP8 MSTORE SWAP3 SWAP1 SWAP4 KECCAK256 DUP2 MLOAD DUP2 SSTORE SWAP3 MLOAD SWAP4 DUP4 ADD SWAP4 SWAP1 SWAP4 SSTORE MLOAD PUSH1 0x2 DUP3 ADD SWAP1 PUSH2 0xCD4 SWAP1 DUP3 PUSH2 0x19EF JUMP JUMPDEST POP PUSH1 0x60 DUP3 ADD MLOAD PUSH1 0x3 DUP3 ADD SSTORE PUSH1 0x80 SWAP1 SWAP2 ADD MLOAD PUSH1 0x4 SWAP1 SWAP2 ADD DUP1 SLOAD PUSH1 0xFF NOT AND SWAP2 ISZERO ISZERO SWAP2 SWAP1 SWAP2 OR SWAP1 SSTORE PUSH1 0x40 DUP4 ADD MLOAD PUSH1 0x20 DUP5 ADD MLOAD PUSH1 0xE0 DUP6 ADD MLOAD PUSH1 0x0 SWAP3 PUSH2 0xD17 SWAP3 DUP6 SWAP3 TIMESTAMP PUSH2 0xEE1 JUMP JUMPDEST PUSH1 0x1 PUSH1 0x1 PUSH1 0xA0 SHL SUB DUP4 AND PUSH1 0x0 SWAP1 DUP2 MSTORE PUSH1 0x7 PUSH1 0x20 MSTORE PUSH1 0x40 SWAP1 KECCAK256 SWAP1 SWAP2 POP PUSH2 0xD3C DUP3 DUP3 PUSH2 0x19EF JUMP JUMPDEST POP DUP4 PUSH1 0x20 ADD MLOAD DUP5 PUSH1 0x40 ADD MLOAD DUP4 PUSH1 0x1 PUSH1 0x1 PUSH1 0xA0 SHL SUB AND PUSH32 0x1CB4CB11E427B149571BDD797A651E51618AB02DCA30B7753B0732255761F402 DUP8 PUSH1 0xE0 ADD MLOAD TIMESTAMP PUSH1 0x40 MLOAD PUSH2 0xD86 SWAP3 SWAP2 SWAP1 PUSH2 0x1AAD JUMP JUMPDEST PUSH1 0x40 MLOAD DUP1 SWAP2 SUB SWAP1 LOG4 DUP2 PUSH1 0x1 PUSH1 0x1 PUSH1 0xA0 SHL SUB AND PUSH32 0x12F548F41D1D41001E5063672F002D6555E4FF68A593D055BDF31CEC3FBBB6C DUP3 TIMESTAMP PUSH1 0x40 MLOAD PUSH2 0xDC9 SWAP3 SWAP2 SWAP1 PUSH2 0x1AAD JUMP JUMPDEST PUSH1 0x40 MLOAD DUP1 SWAP2 SUB SWAP1 LOG2 POP POP POP POP JUMP JUMPDEST PUSH1 0x0 DUP1 PUSH1 0x0 DUP4 MLOAD PUSH1 0x41 SUB PUSH2 0xE11 JUMPI PUSH1 0x20 DUP5 ADD MLOAD PUSH1 0x40 DUP6 ADD MLOAD PUSH1 0x60 DUP7 ADD MLOAD PUSH1 0x0 BYTE PUSH2 0xE03 DUP9 DUP3 DUP6 DUP6 PUSH2 0xF99 JUMP JUMPDEST SWAP6 POP SWAP6 POP SWAP6 POP POP POP POP PUSH2 0xE1D JUMP JUMPDEST POP POP DUP2 MLOAD PUSH1 0x0 SWAP2 POP PUSH1 0x2 SWAP1 JUMPDEST SWAP3 POP SWAP3 POP SWAP3 JUMP JUMPDEST PUSH1 0x0 DUP3 PUSH1 0x3 DUP2 GT ISZERO PUSH2 0xE38 JUMPI PUSH2 0xE38 PUSH2 0x1ACF JUMP JUMPDEST SUB PUSH2 0xE41 JUMPI POP POP JUMP JUMPDEST PUSH1 0x1 DUP3 PUSH1 0x3 DUP2 GT ISZERO PUSH2 0xE55 JUMPI PUSH2 0xE55 PUSH2 0x1ACF JUMP JUMPDEST SUB PUSH2 0xE73 JUMPI PUSH1 0x40 MLOAD PUSH4 0xF645EEDF PUSH1 0xE0 SHL DUP2 MSTORE PUSH1 0x4 ADD PUSH1 0x40 MLOAD DUP1 SWAP2 SUB SWAP1 REVERT JUMPDEST PUSH1 0x2 DUP3 PUSH1 0x3 DUP2 GT ISZERO PUSH2 0xE87 JUMPI PUSH2 0xE87 PUSH2 0x1ACF JUMP JUMPDEST SUB PUSH2 0xEA8 JUMPI PUSH1 0x40 MLOAD PUSH4 0xFCE698F7 PUSH1 0xE0 SHL DUP2 MSTORE PUSH1 0x4 DUP2 ADD DUP3 SWAP1 MSTORE PUSH1 0x24 ADD PUSH2 0xAD6 JUMP JUMPDEST PUSH1 0x3 DUP3 PUSH1 0x3 DUP2 GT ISZERO PUSH2 0xEBC JUMPI PUSH2 0xEBC PUSH2 0x1ACF JUMP JUMPDEST SUB PUSH2 0xEDD JUMPI PUSH1 0x40 MLOAD PUSH4 0x35E2F383 PUSH1 0xE2 SHL DUP2 MSTORE PUSH1 0x4 DUP2 ADD DUP3 SWAP1 MSTORE PUSH1 0x24 ADD PUSH2 0xAD6 JUMP JUMPDEST POP POP JUMP JUMPDEST PUSH1 0x60 PUSH1 0x0 PUSH1 0x0 DUP1 MLOAD PUSH1 0x20 PUSH2 0x1AE6 DUP4 CODECOPY DUP2 MLOAD SWAP2 MSTORE DUP8 DUP8 DUP8 DUP8 DUP1 MLOAD SWAP1 PUSH1 0x20 ADD KECCAK256 DUP8 PUSH1 0x40 MLOAD PUSH1 0x20 ADD PUSH2 0xF15 SWAP7 SWAP6 SWAP5 SWAP4 SWAP3 SWAP2 SWAP1 PUSH2 0x14EA JUMP JUMPDEST PUSH1 0x40 MLOAD PUSH1 0x20 DUP2 DUP4 SUB SUB DUP2 MSTORE SWAP1 PUSH1 0x40 MSTORE DUP1 MLOAD SWAP1 PUSH1 0x20 ADD KECCAK256 SWAP1 POP PUSH1 0x0 PUSH32 0x0 DUP3 PUSH1 0x40 MLOAD PUSH1 0x20 ADD PUSH2 0xF62 SWAP3 SWAP2 SWAP1 PUSH2 0x151B JUMP JUMPDEST PUSH1 0x40 DUP1 MLOAD DUP1 DUP4 SUB PUSH1 0x1F NOT ADD DUP2 MSTORE DUP3 DUP3 MSTORE DUP1 MLOAD PUSH1 0x20 SWAP2 DUP3 ADD KECCAK256 DUP2 DUP5 ADD MSTORE DUP2 MLOAD DUP1 DUP5 SUB SWAP1 SWAP2 ADD DUP2 MSTORE SWAP2 DUP2 ADD SWAP1 MSTORE SWAP9 SWAP8 POP POP POP POP POP POP POP POP JUMP JUMPDEST PUSH1 0x0 DUP1 DUP1 PUSH32 0x7FFFFFFFFFFFFFFFFFFFFFFFFFFFFFFF5D576E7357A4501DDFE92F46681B20A0 DUP5 GT ISZERO PUSH2 0xFD4 JUMPI POP PUSH1 0x0 SWAP2 POP PUSH1 0x3 SWAP1 POP DUP3 PUSH2 0x105E JUMP JUMPDEST PUSH1 0x40 DUP1 MLOAD PUSH1 0x0 DUP1 DUP3 MSTORE PUSH1 0x20 DUP3 ADD DUP1 DUP5 MSTORE DUP11 SWAP1 MSTORE PUSH1 0xFF DUP10 AND SWAP3 DUP3 ADD SWAP3 SWAP1 SWAP3 MSTORE PUSH1 0x60 DUP2 ADD DUP8 SWAP1 MSTORE PUSH1 0x80 DUP2 ADD DUP7 SWAP1 MSTORE PUSH1 0x1 SWAP1 PUSH1 0xA0 ADD PUSH1 0x20 PUSH1 0x40 MLOAD PUSH1 0x20 DUP2 SUB SWAP1 DUP1 DUP5 SUB SWAP1 DUP6 GAS STATICCALL ISZERO DUP1 ISZERO PUSH2 0x1028 JUMPI RETURNDATASIZE PUSH1 0x0 DUP1 RETURNDATACOPY RETURNDATASIZE PUSH1 0x0 REVERT JUMPDEST POP POP PUSH1 0x40 MLOAD PUSH1 0x1F NOT ADD MLOAD SWAP2 POP POP PUSH1 0x1 PUSH1 0x1 PUSH1 0xA0 SHL SUB DUP2 AND PUSH2 0x1054 JUMPI POP PUSH1 0x0 SWAP3 POP PUSH1 0x1 SWAP2 POP DUP3 SWAP1 POP PUSH2 0x105E JUMP JUMPDEST SWAP3 POP PUSH1 0x0 SWAP2 POP DUP2 SWAP1 POP JUMPDEST SWAP5 POP SWAP5 POP SWAP5 SWAP2 POP POP JUMP JUMPDEST DUP1 CALLDATALOAD PUSH1 0x1 PUSH1 0x1 PUSH1 0xA0 SHL SUB DUP2 AND DUP2 EQ PUSH2 0x107F JUMPI PUSH1 0x0 DUP1 REVERT JUMPDEST SWAP2 SWAP1 POP JUMP JUMPDEST PUSH4 0x4E487B71 PUSH1 0xE0 SHL PUSH1 0x0 MSTORE PUSH1 0x41 PUSH1 0x4 MSTORE PUSH1 0x24 PUSH1 0x0 REVERT JUMPDEST PUSH1 0x40 MLOAD PUSH2 0x1A0 DUP2 ADD PUSH1 0x1 PUSH1 0x1 PUSH1 0x40 SHL SUB DUP2 GT DUP3 DUP3 LT OR ISZERO PUSH2 0x10BD JUMPI PUSH2 0x10BD PUSH2 0x1084 JUMP JUMPDEST PUSH1 0x40 MSTORE SWAP1 JUMP JUMPDEST PUSH1 0x40 MLOAD PUSH1 0x1F DUP3 ADD PUSH1 0x1F NOT AND DUP2 ADD PUSH1 0x1 PUSH1 0x1 PUSH1 0x40 SHL SUB DUP2 GT DUP3 DUP3 LT OR ISZERO PUSH2 0x10EB JUMPI PUSH2 0x10EB PUSH2 0x1084 JUMP JUMPDEST PUSH1 0x40 MSTORE SWAP2 SWAP1 POP JUMP JUMPDEST PUSH1 0x0 PUSH1 0x1 PUSH1 0x1 PUSH1 0x40 SHL SUB DUP3 GT ISZERO PUSH2 0x110C JUMPI PUSH2 0x110C PUSH2 0x1084 JUMP JUMPDEST POP PUSH1 0x1F ADD PUSH1 0x1F NOT AND PUSH1 0x20 ADD SWAP1 JUMP JUMPDEST PUSH1 0x0 DUP3 PUSH1 0x1F DUP4 ADD SLT PUSH2 0x112B JUMPI PUSH1 0x0 DUP1 REVERT JUMPDEST DUP2 CALLDATALOAD PUSH1 0x20 DUP4 ADD PUSH1 0x0 PUSH2 0x1144 PUSH2 0x113F DUP5 PUSH2 0x10F3 JUMP JUMPDEST PUSH2 0x10C3 JUMP JUMPDEST SWAP1 POP DUP3 DUP2 MSTORE DUP6 DUP4 DUP4 ADD GT ISZERO PUSH2 0x1158 JUMPI PUSH1 0x0 DUP1 REVERT JUMPDEST DUP3 DUP3 PUSH1 0x20 DUP4 ADD CALLDATACOPY PUSH1 0x0 SWAP3 DUP2 ADD PUSH1 0x20 ADD SWAP3 SWAP1 SWAP3 MSTORE POP SWAP4 SWAP3 POP POP POP JUMP JUMPDEST PUSH1 0x0 DUP1 PUSH1 0x0 DUP1 PUSH1 0x0 DUP1 PUSH1 0xC0 DUP8 DUP10 SUB SLT ISZERO PUSH2 0x118C JUMPI PUSH1 0x0 DUP1 REVERT JUMPDEST PUSH2 0x1195 DUP8 PUSH2 0x1068 JUMP JUMPDEST SWAP6 POP PUSH1 0x20 DUP8 ADD CALLDATALOAD SWAP5 POP PUSH1 0x40 DUP8 ADD CALLDATALOAD SWAP4 POP PUSH1 0x60 DUP8 ADD CALLDATALOAD PUSH1 0x1 PUSH1 0x1 PUSH1 0x40 SHL SUB DUP2 GT ISZERO PUSH2 0x11BE JUMPI PUSH1 0x0 DUP1 REVERT JUMPDEST PUSH2 0x11CA DUP10 DUP3 DUP11 ADD PUSH2 0x111A JUMP JUMPDEST SWAP4 POP POP PUSH1 0x80 DUP8 ADD CALLDATALOAD SWAP2 POP PUSH1 0xA0 DUP8 ADD CALLDATALOAD PUSH1 0x1 PUSH1 0x1 PUSH1 0x40 SHL SUB DUP2 GT ISZERO PUSH2 0x11ED JUMPI PUSH1 0x0 DUP1 REVERT JUMPDEST PUSH2 0x11F9 DUP10 DUP3 DUP11 ADD PUSH2 0x111A JUMP JUMPDEST SWAP2 POP POP SWAP3 SWAP6 POP SWAP3 SWAP6 POP SWAP3 SWAP6 JUMP JUMPDEST PUSH1 0x0 DUP1 PUSH1 0x0 DUP1 PUSH1 0x0 PUSH1 0xA0 DUP7 DUP9 SUB SLT ISZERO PUSH2 0x121E JUMPI PUSH1 0x0 DUP1 REVERT JUMPDEST PUSH2 0x1227 DUP7 PUSH2 0x1068 JUMP JUMPDEST SWAP5 POP PUSH1 0x20 DUP7 ADD CALLDATALOAD SWAP4 POP PUSH1 0x40 DUP7 ADD CALLDATALOAD SWAP3 POP PUSH1 0x60 DUP7 ADD CALLDATALOAD PUSH1 0x1 PUSH1 0x1 PUSH1 0x40 SHL SUB DUP2 GT ISZERO PUSH2 0x1250 JUMPI PUSH1 0x0 DUP1 REVERT JUMPDEST PUSH2 0x125C DUP9 DUP3 DUP10 ADD PUSH2 0x111A JUMP JUMPDEST SWAP6 SWAP9 SWAP5 SWAP8 POP SWAP3 SWAP6 PUSH1 0x80 ADD CALLDATALOAD SWAP4 SWAP3 POP POP POP JUMP JUMPDEST PUSH1 0x0 DUP1 PUSH1 0x40 DUP4 DUP6 SUB SLT ISZERO PUSH2 0x1281 JUMPI PUSH1 0x0 DUP1 REVERT JUMPDEST DUP3 CALLDATALOAD PUSH1 0x1 PUSH1 0x1 PUSH1 0x40 SHL SUB DUP2 GT ISZERO PUSH2 0x1297 JUMPI PUSH1 0x0 DUP1 REVERT JUMPDEST PUSH2 0x12A3 DUP6 DUP3 DUP7 ADD PUSH2 0x111A JUMP JUMPDEST SWAP3 POP POP PUSH1 0x20 DUP4 ADD CALLDATALOAD PUSH1 0x1 PUSH1 0x1 PUSH1 0x40 SHL SUB DUP2 GT ISZERO PUSH2 0x12BF JUMPI PUSH1 0x0 DUP1 REVERT JUMPDEST PUSH2 0x12CB DUP6 DUP3 DUP7 ADD PUSH2 0x111A JUMP JUMPDEST SWAP2 POP POP SWAP3 POP SWAP3 SWAP1 POP JUMP JUMPDEST PUSH1 0x0 PUSH1 0x20 DUP3 DUP5 SUB SLT ISZERO PUSH2 0x12E7 JUMPI PUSH1 0x0 DUP1 REVERT JUMPDEST PUSH2 0x12F0 DUP3 PUSH2 0x1068 JUMP JUMPDEST SWAP4 SWAP3 POP POP POP JUMP JUMPDEST PUSH1 0x0 JUMPDEST DUP4 DUP2 LT ISZERO PUSH2 0x1312 JUMPI DUP2 DUP2 ADD MLOAD DUP4 DUP3 ADD MSTORE PUSH1 0x20 ADD PUSH2 0x12FA JUMP JUMPDEST POP POP PUSH1 0x0 SWAP2 ADD MSTORE JUMP JUMPDEST PUSH1 0x0 DUP2 MLOAD DUP1 DUP5 MSTORE PUSH2 0x1333 DUP2 PUSH1 0x20 DUP7 ADD PUSH1 0x20 DUP7 ADD PUSH2 0x12F7 JUMP JUMPDEST PUSH1 0x1F ADD PUSH1 0x1F NOT AND SWAP3 SWAP1 SWAP3 ADD PUSH1 0x20 ADD SWAP3 SWAP2 POP POP JUMP JUMPDEST PUSH1 0x20 DUP2 MSTORE DUP2 MLOAD PUSH1 0x20 DUP3 ADD MSTORE PUSH1 0x20 DUP3 ADD MLOAD PUSH1 0x40 DUP3 ADD MSTORE PUSH1 0x0 PUSH1 0x40 DUP4 ADD MLOAD PUSH1 0xA0 PUSH1 0x60 DUP5 ADD MSTORE PUSH2 0x1377 PUSH1 0xC0 DUP5 ADD DUP3 PUSH2 0x131B JUMP JUMPDEST SWAP1 POP PUSH1 0x60 DUP5 ADD MLOAD PUSH1 0x80 DUP5 ADD MSTORE PUSH1 0x80 DUP5 ADD MLOAD ISZERO ISZERO PUSH1 0xA0 DUP5 ADD MSTORE DUP1 SWAP2 POP POP SWAP3 SWAP2 POP POP JUMP JUMPDEST PUSH1 0x20 DUP2 MSTORE PUSH1 0x0 PUSH2 0x12F0 PUSH1 0x20 DUP4 ADD DUP5 PUSH2 0x131B JUMP JUMPDEST PUSH1 0x0 DUP1 PUSH1 0x0 PUSH1 0x60 DUP5 DUP7 SUB SLT ISZERO PUSH2 0x13C1 JUMPI PUSH1 0x0 DUP1 REVERT JUMPDEST DUP4 CALLDATALOAD SWAP3 POP PUSH1 0x20 DUP5 ADD CALLDATALOAD SWAP2 POP PUSH1 0x40 DUP5 ADD CALLDATALOAD PUSH1 0x1 PUSH1 0x1 PUSH1 0x40 SHL SUB DUP2 GT ISZERO PUSH2 0x13E5 JUMPI PUSH1 0x0 DUP1 REVERT JUMPDEST PUSH2 0x13F1 DUP7 DUP3 DUP8 ADD PUSH2 0x111A JUMP JUMPDEST SWAP2 POP POP SWAP3 POP SWAP3 POP SWAP3 JUMP JUMPDEST PUSH1 0x0 DUP1 DUP4 PUSH1 0x1F DUP5 ADD SLT PUSH2 0x140D JUMPI PUSH1 0x0 DUP1 REVERT JUMPDEST POP DUP2 CALLDATALOAD PUSH1 0x1 PUSH1 0x1 PUSH1 0x40 SHL SUB DUP2 GT ISZERO PUSH2 0x1424 JUMPI PUSH1 0x0 DUP1 REVERT JUMPDEST PUSH1 0x20 DUP4 ADD SWAP2 POP DUP4 PUSH1 0x20 DUP3 DUP6 ADD ADD GT ISZERO PUSH2 0x143C JUMPI PUSH1 0x0 DUP1 REVERT JUMPDEST SWAP3 POP SWAP3 SWAP1 POP JUMP JUMPDEST PUSH1 0x0 DUP1 PUSH1 0x0 DUP1 PUSH1 0x40 DUP6 DUP8 SUB SLT ISZERO PUSH2 0x1459 JUMPI PUSH1 0x0 DUP1 REVERT JUMPDEST DUP5 CALLDATALOAD PUSH1 0x1 PUSH1 0x1 PUSH1 0x40 SHL SUB DUP2 GT ISZERO PUSH2 0x146F JUMPI PUSH1 0x0 DUP1 REVERT JUMPDEST PUSH2 0x147B DUP8 DUP3 DUP9 ADD PUSH2 0x13FB JUMP JUMPDEST SWAP1 SWAP6 POP SWAP4 POP POP PUSH1 0x20 DUP6 ADD CALLDATALOAD PUSH1 0x1 PUSH1 0x1 PUSH1 0x40 SHL SUB DUP2 GT ISZERO PUSH2 0x149A JUMPI PUSH1 0x0 DUP1 REVERT JUMPDEST PUSH2 0x14A6 DUP8 DUP3 DUP9 ADD PUSH2 0x13FB JUMP JUMPDEST SWAP6 SWAP9 SWAP5 SWAP8 POP SWAP6 POP POP POP POP JUMP JUMPDEST DUP6 DUP2 MSTORE DUP5 PUSH1 0x20 DUP3 ADD MSTORE PUSH1 0xA0 PUSH1 0x40 DUP3 ADD MSTORE PUSH1 0x0 PUSH2 0x14D1 PUSH1 0xA0 DUP4 ADD DUP7 PUSH2 0x131B JUMP JUMPDEST PUSH1 0x60 DUP4 ADD SWAP5 SWAP1 SWAP5 MSTORE POP SWAP1 ISZERO ISZERO PUSH1 0x80 SWAP1 SWAP2 ADD MSTORE SWAP4 SWAP3 POP POP POP JUMP JUMPDEST SWAP6 DUP7 MSTORE PUSH1 0x1 PUSH1 0x1 PUSH1 0xA0 SHL SUB SWAP5 SWAP1 SWAP5 AND PUSH1 0x20 DUP7 ADD MSTORE PUSH1 0x40 DUP6 ADD SWAP3 SWAP1 SWAP3 MSTORE PUSH1 0x60 DUP5 ADD MSTORE PUSH1 0x80 DUP4 ADD MSTORE PUSH1 0xA0 DUP3 ADD MSTORE PUSH1 0xC0 ADD SWAP1 JUMP JUMPDEST PUSH2 0x1901 PUSH1 0xF0 SHL DUP2 MSTORE PUSH1 0x2 DUP2 ADD SWAP3 SWAP1 SWAP3 MSTORE PUSH1 0x22 DUP3 ADD MSTORE PUSH1 0x42 ADD SWAP1 JUMP JUMPDEST PUSH1 0x0 DUP3 PUSH1 0x1F DUP4 ADD SLT PUSH2 0x1547 JUMPI PUSH1 0x0 DUP1 REVERT JUMPDEST PUSH2 0x1551 PUSH1 0x80 PUSH2 0x10C3 JUMP JUMPDEST DUP1 PUSH1 0x80 DUP5 ADD DUP6 DUP2 GT ISZERO PUSH2 0x1563 JUMPI PUSH1 0x0 DUP1 REVERT JUMPDEST DUP5 JUMPDEST DUP2 DUP2 LT ISZERO PUSH2 0x157D JUMPI DUP1 MLOAD DUP5 MSTORE PUSH1 0x20 SWAP4 DUP5 ADD SWAP4 ADD PUSH2 0x1565 JUMP JUMPDEST POP SWAP1 SWAP6 SWAP5 POP POP POP POP POP JUMP JUMPDEST PUSH1 0x0 DUP3 PUSH1 0x1F DUP4 ADD SLT PUSH2 0x1599 JUMPI PUSH1 0x0 DUP1 REVERT JUMPDEST DUP2 MLOAD PUSH2 0x15A7 PUSH2 0x113F DUP3 PUSH2 0x10F3 JUMP JUMPDEST DUP2 DUP2 MSTORE DUP5 PUSH1 0x20 DUP4 DUP7 ADD ADD GT ISZERO PUSH2 0x15BC JUMPI PUSH1 0x0 DUP1 REVERT JUMPDEST PUSH2 0x15CD DUP3 PUSH1 0x20 DUP4 ADD PUSH1 0x20 DUP8 ADD PUSH2 0x12F7 JUMP JUMPDEST SWAP5 SWAP4 POP POP POP POP JUMP JUMPDEST PUSH1 0x0 DUP3 PUSH1 0x1F DUP4 ADD SLT PUSH2 0x15E6 JUMPI PUSH1 0x0 DUP1 REVERT JUMPDEST DUP2 MLOAD PUSH1 0x1 PUSH1 0x1 PUSH1 0x40 SHL SUB DUP2 GT ISZERO PUSH2 0x15FF JUMPI PUSH2 0x15FF PUSH2 0x1084 JUMP JUMPDEST DUP1 PUSH1 0x5 SHL PUSH2 0x160F PUSH1 0x20 DUP3 ADD PUSH2 0x10C3 JUMP JUMPDEST SWAP2 DUP3 MSTORE PUSH1 0x20 DUP2 DUP6 ADD DUP2 ADD SWAP3 SWAP1 DUP2 ADD SWAP1 DUP7 DUP5 GT ISZERO PUSH2 0x162B JUMPI PUSH1 0x0 DUP1 REVERT JUMPDEST PUSH1 0x20 DUP7 ADD SWAP3 POP JUMPDEST DUP4 DUP4 LT ISZERO PUSH2 0x1671 JUMPI DUP3 MLOAD PUSH1 0x1 PUSH1 0x1 PUSH1 0x40 SHL SUB DUP2 GT ISZERO PUSH2 0x1650 JUMPI PUSH1 0x0 DUP1 REVERT JUMPDEST PUSH2 0x165F DUP9 PUSH1 0x20 DUP4 DUP11 ADD ADD PUSH2 0x1588 JUMP JUMPDEST DUP4 MSTORE POP PUSH1 0x20 SWAP3 DUP4 ADD SWAP3 SWAP1 SWAP2 ADD SWAP1 PUSH2 0x1632 JUMP JUMPDEST SWAP7 SWAP6 POP POP POP POP POP POP JUMP JUMPDEST PUSH1 0x0 DUP3 PUSH1 0x1F DUP4 ADD SLT PUSH2 0x168C JUMPI PUSH1 0x0 DUP1 REVERT JUMPDEST PUSH2 0x1696 PUSH1 0x60 PUSH2 0x10C3 JUMP JUMPDEST DUP1 PUSH1 0x60 DUP5 ADD DUP6 DUP2 GT ISZERO PUSH2 0x16A8 JUMPI PUSH1 0x0 DUP1 REVERT JUMPDEST DUP5 JUMPDEST DUP2 DUP2 LT ISZERO PUSH2 0x157D JUMPI DUP1 MLOAD DUP1 ISZERO ISZERO DUP2 EQ PUSH2 0x16C2 JUMPI PUSH1 0x0 DUP1 REVERT JUMPDEST DUP5 MSTORE PUSH1 0x20 SWAP4 DUP5 ADD SWAP4 ADD PUSH2 0x16AA JUMP JUMPDEST PUSH1 0x0 PUSH1 0x20 DUP3 DUP5 SUB SLT ISZERO PUSH2 0x16E2 JUMPI PUSH1 0x0 DUP1 REVERT JUMPDEST DUP2 MLOAD PUSH1 0x1 PUSH1 0x1 PUSH1 0x40 SHL SUB DUP2 GT ISZERO PUSH2 0x16F8 JUMPI PUSH1 0x0 DUP1 REVERT JUMPDEST DUP3 ADD PUSH2 0x240 DUP2 DUP6 SUB SLT ISZERO PUSH2 0x170B JUMPI PUSH1 0x0 DUP1 REVERT JUMPDEST PUSH2 0x1713 PUSH2 0x109A JUMP JUMPDEST DUP2 MLOAD DUP2 MSTORE PUSH1 0x20 DUP1 DUP4 ADD MLOAD SWAP1 DUP3 ADD MSTORE PUSH1 0x40 DUP1 DUP4 ADD MLOAD SWAP1 DUP3 ADD MSTORE PUSH2 0x1738 DUP6 PUSH1 0x60 DUP5 ADD PUSH2 0x1536 JUMP JUMPDEST PUSH1 0x60 DUP3 ADD MSTORE PUSH1 0xE0 DUP3 ADD MLOAD PUSH1 0x1 PUSH1 0x1 PUSH1 0x40 SHL SUB DUP2 GT ISZERO PUSH2 0x1756 JUMPI PUSH1 0x0 DUP1 REVERT JUMPDEST PUSH2 0x1762 DUP7 DUP3 DUP6 ADD PUSH2 0x1588 JUMP JUMPDEST PUSH1 0x80 DUP4 ADD MSTORE POP PUSH2 0x100 DUP3 ADD MLOAD PUSH1 0x1 PUSH1 0x1 PUSH1 0x40 SHL SUB DUP2 GT ISZERO PUSH2 0x1782 JUMPI PUSH1 0x0 DUP1 REVERT JUMPDEST PUSH2 0x178E DUP7 DUP3 DUP6 ADD PUSH2 0x15D5 JUMP JUMPDEST PUSH1 0xA0 DUP4 ADD MSTORE POP PUSH2 0x120 DUP3 ADD MLOAD PUSH1 0x1 PUSH1 0x1 PUSH1 0x40 SHL SUB DUP2 GT ISZERO PUSH2 0x17AE JUMPI PUSH1 0x0 DUP1 REVERT JUMPDEST PUSH2 0x17BA DUP7 DUP3 DUP6 ADD PUSH2 0x1588 JUMP JUMPDEST PUSH1 0xC0 DUP4 ADD MSTORE POP PUSH2 0x140 DUP3 ADD MLOAD PUSH1 0x1 PUSH1 0x1 PUSH1 0x40 SHL SUB DUP2 GT ISZERO PUSH2 0x17DA JUMPI PUSH1 0x0 DUP1 REVERT JUMPDEST PUSH2 0x17E6 DUP7 DUP3 DUP6 ADD PUSH2 0x1588 JUMP JUMPDEST PUSH1 0xE0 DUP4 ADD MSTORE POP PUSH2 0x160 DUP3 ADD MLOAD PUSH1 0x1 PUSH1 0x1 PUSH1 0x40 SHL SUB DUP2 GT ISZERO PUSH2 0x1806 JUMPI PUSH1 0x0 DUP1 REVERT JUMPDEST PUSH2 0x1812 DUP7 DUP3 DUP6 ADD PUSH2 0x1588 JUMP JUMPDEST PUSH2 0x100 DUP4 ADD MSTORE POP PUSH2 0x180 DUP3 ADD MLOAD PUSH1 0x1 PUSH1 0x1 PUSH1 0x40 SHL SUB DUP2 GT ISZERO PUSH2 0x1833 JUMPI PUSH1 0x0 DUP1 REVERT JUMPDEST PUSH2 0x183F DUP7 DUP3 DUP6 ADD PUSH2 0x1588 JUMP JUMPDEST PUSH2 0x120 DUP4 ADD MSTORE POP PUSH2 0x1A0 DUP3 ADD MLOAD PUSH1 0x1 PUSH1 0x1 PUSH1 0x40 SHL SUB DUP2 GT ISZERO PUSH2 0x1860 JUMPI PUSH1 0x0 DUP1 REVERT JUMPDEST PUSH2 0x186C DUP7 DUP3 DUP6 ADD PUSH2 0x1588 JUMP JUMPDEST PUSH2 0x140 DUP4 ADD MSTORE POP PUSH2 0x1C0 DUP3 ADD MLOAD PUSH2 0x160 DUP3 ADD MSTORE PUSH2 0x188D DUP6 PUSH2 0x1E0 DUP5 ADD PUSH2 0x167B JUMP JUMPDEST PUSH2 0x180 DUP3 ADD MSTORE SWAP5 SWAP4 POP POP POP POP JUMP JUMPDEST PUSH1 0x1 DUP2 DUP2 SHR SWAP1 DUP3 AND DUP1 PUSH2 0x18AF JUMPI PUSH1 0x7F DUP3 AND SWAP2 POP JUMPDEST PUSH1 0x20 DUP3 LT DUP2 SUB PUSH2 0x18CF JUMPI PUSH4 0x4E487B71 PUSH1 0xE0 SHL PUSH1 0x0 MSTORE PUSH1 0x22 PUSH1 0x4 MSTORE PUSH1 0x24 PUSH1 0x0 REVERT JUMPDEST POP SWAP2 SWAP1 POP JUMP JUMPDEST PUSH1 0x0 DUP1 DUP6 DUP6 GT ISZERO PUSH2 0x18E5 JUMPI PUSH1 0x0 DUP1 REVERT JUMPDEST DUP4 DUP7 GT ISZERO PUSH2 0x18F2 JUMPI PUSH1 0x0 DUP1 REVERT JUMPDEST POP POP DUP3 ADD SWAP4 SWAP2 SWAP1 SWAP3 SUB SWAP2 POP JUMP JUMPDEST DUP1 CALLDATALOAD PUSH1 0x20 DUP4 LT ISZERO PUSH2 0xB11 JUMPI PUSH1 0x0 NOT PUSH1 0x20 DUP5 SWAP1 SUB PUSH1 0x3 SHL SHL AND SWAP3 SWAP2 POP POP JUMP JUMPDEST PUSH1 0xFF PUSH1 0xF8 SHL DUP8 PUSH1 0xF8 SHL AND DUP2 MSTORE PUSH1 0xFF NOT DUP7 AND PUSH1 0x1 DUP3 ADD MSTORE DUP5 PUSH1 0x20 DUP3 ADD MSTORE DUP4 PUSH1 0x40 DUP3 ADD MSTORE DUP2 DUP4 PUSH1 0x60 DUP4 ADD CALLDATACOPY PUSH1 0x0 SWAP2 ADD PUSH1 0x60 ADD SWAP1 DUP2 MSTORE SWAP6 SWAP5 POP POP POP POP POP JUMP JUMPDEST DUP4 DUP2 MSTORE DUP2 DUP4 PUSH1 0x20 DUP4 ADD CALLDATACOPY PUSH1 0x0 SWAP2 ADD PUSH1 0x20 ADD SWAP1 DUP2 MSTORE SWAP3 SWAP2 POP POP JUMP JUMPDEST PUSH1 0x40 DUP2 MSTORE PUSH1 0x0 PUSH2 0x1986 PUSH1 0x40 DUP4 ADD DUP6 PUSH2 0x131B JUMP JUMPDEST DUP3 DUP2 SUB PUSH1 0x20 DUP5 ADD MSTORE PUSH2 0x1998 DUP2 DUP6 PUSH2 0x131B JUMP JUMPDEST SWAP6 SWAP5 POP POP POP POP POP JUMP JUMPDEST PUSH1 0x1F DUP3 GT ISZERO PUSH2 0x54E JUMPI DUP1 PUSH1 0x0 MSTORE PUSH1 0x20 PUSH1 0x0 KECCAK256 PUSH1 0x1F DUP5 ADD PUSH1 0x5 SHR DUP2 ADD PUSH1 0x20 DUP6 LT ISZERO PUSH2 0x19C8 JUMPI POP DUP1 JUMPDEST PUSH1 0x1F DUP5 ADD PUSH1 0x5 SHR DUP3 ADD SWAP2 POP JUMPDEST DUP2 DUP2 LT ISZERO PUSH2 0x19E8 JUMPI PUSH1 0x0 DUP2 SSTORE PUSH1 0x1 ADD PUSH2 0x19D4 JUMP JUMPDEST POP POP POP POP POP JUMP JUMPDEST DUP2 MLOAD PUSH1 0x1 PUSH1 0x1 PUSH1 0x40 SHL SUB DUP2 GT ISZERO PUSH2 0x1A08 JUMPI PUSH2 0x1A08 PUSH2 0x1084 JUMP JUMPDEST PUSH2 0x1A1C DUP2 PUSH2 0x1A16 DUP5 SLOAD PUSH2 0x189B JUMP JUMPDEST DUP5 PUSH2 0x19A1 JUMP JUMPDEST PUSH1 0x20 PUSH1 0x1F DUP3 GT PUSH1 0x1 DUP2 EQ PUSH2 0x1A50 JUMPI PUSH1 0x0 DUP4 ISZERO PUSH2 0x1A38 JUMPI POP DUP5 DUP3 ADD MLOAD JUMPDEST PUSH1 0x0 NOT PUSH1 0x3 DUP6 SWAP1 SHL SHR NOT AND PUSH1 0x1 DUP5 SWAP1 SHL OR DUP5 SSTORE PUSH2 0x19E8 JUMP JUMPDEST PUSH1 0x0 DUP5 DUP2 MSTORE PUSH1 0x20 DUP2 KECCAK256 PUSH1 0x1F NOT DUP6 AND SWAP2 JUMPDEST DUP3 DUP2 LT ISZERO PUSH2 0x1A80 JUMPI DUP8 DUP6 ADD MLOAD DUP3 SSTORE PUSH1 0x20 SWAP5 DUP6 ADD SWAP5 PUSH1 0x1 SWAP1 SWAP3 ADD SWAP2 ADD PUSH2 0x1A60 JUMP JUMPDEST POP DUP5 DUP3 LT ISZERO PUSH2 0x1A9E JUMPI DUP7 DUP5 ADD MLOAD PUSH1 0x0 NOT PUSH1 0x3 DUP8 SWAP1 SHL PUSH1 0xF8 AND SHR NOT AND DUP2 SSTORE JUMPDEST POP POP POP POP PUSH1 0x1 SWAP1 DUP2 SHL ADD SWAP1 SSTORE POP JUMP JUMPDEST PUSH1 0x40 DUP2 MSTORE PUSH1 0x0 PUSH2 0x1AC0 PUSH1 0x40 DUP4 ADD DUP6 PUSH2 0x131B JUMP JUMPDEST SWAP1 POP DUP3 PUSH1 0x20 DUP4 ADD MSTORE SWAP4 SWAP3 POP POP POP JUMP JUMPDEST PUSH4 0x4E487B71 PUSH1 0xE0 SHL PUSH1 0x0 MSTORE PUSH1 0x21 PUSH1 0x4 MSTORE PUSH1 0x24 PUSH1 0x0 REVERT INVALID DUP14 0xB8 0xD8 0x4F 0xAF DUP12 0x23 PUSH6 0xD4FFD175C1A5 0xBF PUSH1 0xA3 0xC3 0xBB DUP16 0xD6 PUSH0 0xB1 0x26 0xC9 0xBB 0xC3 SWAP8 DUP7 0xD1 SAR 0xA7 LOG2 PUSH5 0x6970667358 0x22 SLT KECCAK256 POP PUSH14 0x1D33A5329153C3C7211BB594B8D6 0xC4 0xDD PUSH23 0x77221BD05898C634F58F68FE9C64736F6C634300081C00 CALLER "
        },
        "methodIdentifiers": {
          "DOMAIN_SEPARATOR()": "3644e515",
          "VERIFICATION_MESSAGE_TYPEHASH()": "e1a788eb",
          "adminAddress()": "fc6f9468",
          "adminSignatures(address)": "d952c303",
          "configId()": "b564eb27",
          "getAdminSignature(address)": "9948251b",
          "getConfigId()": "634daa11",
          "getConfigId(bytes32,bytes32,bytes)": "ada1b319",
          "getMessageHash(address,uint256,uint256,string,uint256)": "597c5b4c",
          "getScope()": "951cfa47",
          "getVerificationData(address)": "95183eb7",
          "isUserVerified(address)": "ace417e0",
          "onVerificationSuccess(bytes,bytes)": "8d2d8d6a",
          "owner()": "8da5cb5b",
          "renounceOwnership()": "715018a6",
          "scope()": "6e62d0a8",
          "transferOwnership(address)": "f2fde38b",
          "verifiedUsers(address)": "e35fe366",
          "verifyAdminSignature(address,uint256,uint256,string,uint256,bytes)": "29d9b720",
          "verifySelfProof(bytes,bytes)": "d161802b"
        }
      }
    }
  }
}