{
  "contracts/MockCCTPTransmitter.sol": {
    "MockCCTPTransmitter": {
      "abi": [
        {
          "inputs": [
            {
              "internalType": "uint32",
              "name": "sourceDomain",
              "type": "uint32"
            }
          ],
          "name": "getNonce",
          "outputs": [
            {
              "internalType": "uint64",
              "name": "",
              "type": "uint64"
            }
          ],
          "stateMutability": "pure",
          "type": "function"
        },
        {
          "inputs": [
            {
              "internalType": "uint32",
              "name": "destinationDomain",
              "type": "uint32"
            },
            {
              "internalType": "bytes32",
              "name": "recipient",
              "type": "bytes32"
            },
            {
              "internalType": "bytes",
              "name": "messageBody",
              "type": "bytes"
            }
          ],
          "name": "transmitMessage",
          "outputs": [
            {
              "internalType": "uint64",
              "name": "",
              "type": "uint64"
            }
          ],
          "stateMutability": "nonpayable",
          "type": "function"
        }
      ],
      "evm": {
        "bytecode": {
          "linkReferences": {},
          "object": "6080604052348015600f57600080fd5b506101818061001f6000396000f3fe608060405234801561001057600080fd5b50600436106100365760003560e01c8063393ff6841461003b5780637227b58414610072575b600080fd5b61005561004936600461009f565b6201e240949350505050565b60405167ffffffffffffffff909116815260200160405180910390f35b610055610080366004610129565b50600190565b803563ffffffff8116811461009a57600080fd5b919050565b600080600080606085870312156100b557600080fd5b6100be85610086565b935060208501359250604085013567ffffffffffffffff8111156100e157600080fd5b8501601f810187136100f257600080fd5b803567ffffffffffffffff81111561010957600080fd5b87602082840101111561011b57600080fd5b949793965060200194505050565b60006020828403121561013b57600080fd5b61014482610086565b939250505056fea2646970667358221220002e2ef55a7764fa8b8829a3e481d165345d91a05b5ea0997957e29c5b5f195b64736f6c634300081c0033",
          "opcodes": "PUSH1 0x80 PUSH1 0x40 MSTORE CALLVALUE DUP1 ISZERO PUSH1 0xF JUMPI PUSH1 0x0 DUP1 REVERT JUMPDEST POP PUSH2 0x181 DUP1 PUSH2 0x1F PUSH1 0x0 CODECOPY PUSH1 0x0 RETURN INVALID PUSH1 0x80 PUSH1 0x40 MSTORE CALLVALUE DUP1 ISZERO PUSH2 0x10 JUMPI PUSH1 0x0 DUP1 REVERT JUMPDEST POP PUSH1 0x4 CALLDATASIZE LT PUSH2 0x36 JUMPI PUSH1 0x0 CALLDATALOAD PUSH1 0xE0 SHR DUP1 PUSH4 0x393FF684 EQ PUSH2 0x3B JUMPI DUP1 PUSH4 0x7227B584 EQ PUSH2 0x72 JUMPI JUMPDEST PUSH1 0x0 DUP1 REVERT JUMPDEST PUSH2 0x55 PUSH2 0x49 CALLDATASIZE PUSH1 0x4 PUSH2 0x9F JUMP JUMPDEST PUSH3 0x1E240 SWAP5 SWAP4 POP POP POP POP JUMP JUMPDEST PUSH1 0x40 MLOAD PUSH8 0xFFFFFFFFFFFFFFFF SWAP1 SWAP2 AND DUP2 MSTORE PUSH1 0x20 ADD PUSH1 0x40 MLOAD DUP1 SWAP2 SUB SWAP1 RETURN JUMPDEST PUSH2 0x55 PUSH2 0x80 CALLDATASIZE PUSH1 0x4 PUSH2 0x129 JUMP JUMPDEST POP PUSH1 0x1 SWAP1 JUMP JUMPDEST DUP1 CALLDATALOAD PUSH4 0xFFFFFFFF DUP2 AND DUP2 EQ PUSH2 0x9A JUMPI PUSH1 0x0 DUP1 REVERT JUMPDEST SWAP2 SWAP1 POP JUMP JUMPDEST PUSH1 0x0 DUP1 PUSH1 0x0 DUP1 PUSH1 0x60 DUP6 DUP8 SUB SLT ISZERO PUSH2 0xB5 JUMPI PUSH1 0x0 DUP1 REVERT JUMPDEST PUSH2 0xBE DUP6 PUSH2 0x86 JUMP JUMPDEST SWAP4 POP PUSH1 0x20 DUP6 ADD CALLDATALOAD SWAP3 POP PUSH1 0x40 DUP6 ADD CALLDATALOAD PUSH8 0xFFFFFFFFFFFFFFFF DUP2 GT ISZERO PUSH2 0xE1 JUMPI PUSH1 0x0 DUP1 REVERT JUMPDEST DUP6 ADD PUSH1 0x1F DUP2 ADD DUP8 SGT PUSH2 0xF2 JUMPI PUSH1 0x0 DUP1 REVERT JUMPDEST DUP1 CALLDATALOAD PUSH8 0xFFFFFFFFFFFFFFFF DUP2 GT ISZERO PUSH2 0x109 JUMPI PUSH1 0x0 DUP1 REVERT JUMPDEST DUP8 PUSH1 0x20 DUP3 DUP5 ADD ADD GT ISZERO PUSH2 0x11B JUMPI PUSH1 0x0 DUP1 REVERT JUMPDEST SWAP5 SWAP8 SWAP4 SWAP7 POP PUSH1 0x20 ADD SWAP5 POP POP POP JUMP JUMPDEST PUSH1 0x0 PUSH1 0x20 DUP3 DUP5 SUB SLT ISZERO PUSH2 0x13B JUMPI PUSH1 0x0 DUP1 REVERT JUMPDEST PUSH2 0x144 DUP3 PUSH2 0x86 JUMP JUMPDEST SWAP4 SWAP3 POP POP POP JUMP INVALID LOG2 PUSH5 0x6970667358 0x22 SLT KECCAK256 STOP 0x2E 0x2E CREATE2 GAS PUSH24 0x64FA8B8829A3E481D165345D91A05B5EA0997957E29C5B5F NOT JUMPDEST PUSH5 0x736F6C6343 STOP ADDMOD SHR STOP CALLER "
        },
        "methodIdentifiers": {
          "getNonce(uint32)": "7227b584",
          "transmitMessage(uint32,bytes32,bytes)": "393ff684"
        }
      }
    }
  }
}